{
	"data": {
		"bytecode": {
			"linkReferences": {},
			"object": "610ee8610053600b82828239805160001a607314610046577f4e487b7100000000000000000000000000000000000000000000000000000000600052600060045260246000fd5b30600052607381538281f3fe73000000000000000000000000000000000000000030146080604052600436106100d95760003560e01c80637cc6fd5211610096578063bb0253c111610070578063bb0253c114610268578063c7f1619b14610298578063e8704307146102b4578063f7287056146102d0576100d9565b80637cc6fd52146101d85780638496374214610208578063af195af214610238576100d9565b80630ebe8e1d146100de57806312732962146100fc5780631b15bdca1461012c5780633cd03cfc1461015c57806350db78fc1461017857806374bdffde146101a8575b600080fd5b6100e66102ee565b6040516100f39190610705565b60405180910390f35b61011660048036038101906101119190610766565b61033d565b60405161012391906107dc565b60405180910390f35b6101466004803603810190610141919061097e565b6103b4565b60405161015391906107dc565b60405180910390f35b610176600480360381019061017191906109e4565b6103e8565b005b610192600480360381019061018d9190610a3a565b610430565b60405161019f9190610705565b60405180910390f35b6101c260048036038101906101bd919061097e565b610480565b6040516101cf91906107dc565b60405180910390f35b6101f260048036038101906101ed919061097e565b61048e565b6040516101ff91906107dc565b60405180910390f35b610222600480360381019061021d9190610ab5565b61049c565b60405161022f91906107dc565b60405180910390f35b610252600480360381019061024d919061097e565b6104bc565b60405161025f9190610b06565b60405180910390f35b610282600480360381019061027d9190610ab5565b6104d0565b60405161028f91906107dc565b60405180910390f35b6102b260048036038101906102ad9190610ab5565b6104ef565b005b6102ce60048036038101906102c9919061097e565b610584565b005b6102d86105b6565b6040516102e59190610705565b60405180910390f35b6102f6610605565b604051806101000160405280600081526020016000815260200160008152602001600081526020016000815260200160008152602001600081526020016000815250905090565b600080828461034c9190610b50565b90506000838561035c9190610be4565b905060008114156103715786925050506103ac565b60008183886103809190610c78565b61038a9190610dbe565b886103959190610be4565b905060008112156103a557600090505b8093505050505b949350505050565b60008160e001518260c00151116103cc5760006103e1565b8160e001518260c001516103e09190610e28565b5b9050919050565b806104115782608001518210156103fe5761042b565b82608001518261040e9190610e28565b91505b818360e0018181516104239190610e5c565b915081815250505b505050565b610438610605565b60405180610100016040528087815260200186815260200185815260200184815260200183815260200160008152602001600081526020016000815250905095945050505050565b600081600001519050919050565b600081604001519050919050565b60006104b4602060608460600151866060015161033d565b905092915050565b6000806104c8836103b4565b119050919050565b60006104e76040808460200151866020015161033d565b905092915050565b8060000151826000018181516105059190610e5c565b915081815250508060200151826020018181516105229190610e5c565b9150818152505080604001518260400181815161053f9190610e5c565b9150818152505080606001518260600181815161055c9190610e5c565b915081815250508060800151826080018181516105799190610e5c565b915081815250505050565b61058d81610480565b8160a001818152505061059f8161048e565b8160c001818152505060008160e001818152505050565b6105be610605565b604051806101000160405280600181526020016001815260200160018152602001600081526020016000815260200160008152602001600081526020016000815250905090565b60405180610100016040528060008152602001600081526020016000815260200160008152602001600081526020016000815260200160008152602001600081525090565b6000819050919050565b61065d8161064a565b82525050565b6101008201600082015161067a6000850182610654565b50602082015161068d6020850182610654565b5060408201516106a06040850182610654565b5060608201516106b36060850182610654565b5060808201516106c66080850182610654565b5060a08201516106d960a0850182610654565b5060c08201516106ec60c0850182610654565b5060e08201516106ff60e0850182610654565b50505050565b60006101008201905061071b6000830184610663565b92915050565b6000604051905090565b600080fd5b6000819050919050565b61074381610730565b811461074e57600080fd5b50565b6000813590506107608161073a565b92915050565b600080600080608085870312156107805761077f61072b565b5b600061078e87828801610751565b945050602061079f87828801610751565b93505060406107b087828801610751565b92505060606107c187828801610751565b91505092959194509250565b6107d68161064a565b82525050565b60006020820190506107f160008301846107cd565b92915050565b600080fd5b6000601f19601f8301169050919050565b7f4e487b7100000000000000000000000000000000000000000000000000000000600052604160045260246000fd5b610845826107fc565b810181811067ffffffffffffffff821117156108645761086361080d565b5b80604052505050565b6000610877610721565b9050610883828261083c565b919050565b6108918161064a565b811461089c57600080fd5b50565b6000813590506108ae81610888565b92915050565b600061010082840312156108cb576108ca6107f7565b5b6108d661010061086d565b905060006108e68482850161089f565b60008301525060206108fa8482850161089f565b602083015250604061090e8482850161089f565b60408301525060606109228482850161089f565b60608301525060806109368482850161089f565b60808301525060a061094a8482850161089f565b60a08301525060c061095e8482850161089f565b60c08301525060e06109728482850161089f565b60e08301525092915050565b600061010082840312156109955761099461072b565b5b60006109a3848285016108b4565b91505092915050565b60008115159050919050565b6109c1816109ac565b81146109cc57600080fd5b50565b6000813590506109de816109b8565b92915050565b600080600061014084860312156109fe576109fd61072b565b5b6000610a0c868287016108b4565b935050610100610a1e8682870161089f565b925050610120610a30868287016109cf565b9150509250925092565b600080600080600060a08688031215610a5657610a5561072b565b5b6000610a648882890161089f565b9550506020610a758882890161089f565b9450506040610a868882890161089f565b9350506060610a978882890161089f565b9250506080610aa88882890161089f565b9150509295509295909350565b6000806102008385031215610acd57610acc61072b565b5b6000610adb858286016108b4565b925050610100610aed858286016108b4565b9150509250929050565b610b00816109ac565b82525050565b6000602082019050610b1b6000830184610af7565b92915050565b7f4e487b7100000000000000000000000000000000000000000000000000000000600052601160045260246000fd5b6000610b5b82610730565b9150610b6683610730565b9250827f800000000000000000000000000000000000000000000000000000000000000001821260008412151615610ba157610ba0610b21565b5b827f7fffffffffffffffffffffffffffffffffffffffffffffffffffffffffffffff018213600084121615610bd957610bd8610b21565b5b828203905092915050565b6000610bef82610730565b9150610bfa83610730565b9250817f7fffffffffffffffffffffffffffffffffffffffffffffffffffffffffffffff03831360008312151615610c3557610c34610b21565b5b817f8000000000000000000000000000000000000000000000000000000000000000038312600083121615610c6d57610c6c610b21565b5b828201905092915050565b6000610c8382610730565b9150610c8e83610730565b9250827f7fffffffffffffffffffffffffffffffffffffffffffffffffffffffffffffff0482116000841360008413161615610ccd57610ccc610b21565b5b817f80000000000000000000000000000000000000000000000000000000000000000583126000841260008413161615610d0a57610d09610b21565b5b827f80000000000000000000000000000000000000000000000000000000000000000582126000841360008412161615610d4757610d46610b21565b5b827f7fffffffffffffffffffffffffffffffffffffffffffffffffffffffffffffff0582126000841260008412161615610d8457610d83610b21565b5b828202905092915050565b7f4e487b7100000000000000000000000000000000000000000000000000000000600052601260045260246000fd5b6000610dc982610730565b9150610dd483610730565b925082610de457610de3610d8f565b5b600160000383147f800000000000000000000000000000000000000000000000000000000000000083141615610e1d57610e1c610b21565b5b828205905092915050565b6000610e338261064a565b9150610e3e8361064a565b925082821015610e5157610e50610b21565b5b828203905092915050565b6000610e678261064a565b9150610e728361064a565b9250827fffffffffffffffffffffffffffffffffffffffffffffffffffffffffffffffff03821115610ea757610ea6610b21565b5b82820190509291505056fea2646970667358221220489018d53f7332a3d809cf0dbe073de73a0b28cdb6bda2e79abc64c3d8ef0bde64736f6c634300080a0033",
			"opcodes": "PUSH2 0xEE8 PUSH2 0x53 PUSH1 0xB DUP3 DUP3 DUP3 CODECOPY DUP1 MLOAD PUSH1 0x0 BYTE PUSH1 0x73 EQ PUSH2 0x46 JUMPI PUSH32 0x4E487B7100000000000000000000000000000000000000000000000000000000 PUSH1 0x0 MSTORE PUSH1 0x0 PUSH1 0x4 MSTORE PUSH1 0x24 PUSH1 0x0 REVERT JUMPDEST ADDRESS PUSH1 0x0 MSTORE PUSH1 0x73 DUP2 MSTORE8 DUP3 DUP2 RETURN INVALID PUSH20 0x0 ADDRESS EQ PUSH1 0x80 PUSH1 0x40 MSTORE PUSH1 0x4 CALLDATASIZE LT PUSH2 0xD9 JUMPI PUSH1 0x0 CALLDATALOAD PUSH1 0xE0 SHR DUP1 PUSH4 0x7CC6FD52 GT PUSH2 0x96 JUMPI DUP1 PUSH4 0xBB0253C1 GT PUSH2 0x70 JUMPI DUP1 PUSH4 0xBB0253C1 EQ PUSH2 0x268 JUMPI DUP1 PUSH4 0xC7F1619B EQ PUSH2 0x298 JUMPI DUP1 PUSH4 0xE8704307 EQ PUSH2 0x2B4 JUMPI DUP1 PUSH4 0xF7287056 EQ PUSH2 0x2D0 JUMPI PUSH2 0xD9 JUMP JUMPDEST DUP1 PUSH4 0x7CC6FD52 EQ PUSH2 0x1D8 JUMPI DUP1 PUSH4 0x84963742 EQ PUSH2 0x208 JUMPI DUP1 PUSH4 0xAF195AF2 EQ PUSH2 0x238 JUMPI PUSH2 0xD9 JUMP JUMPDEST DUP1 PUSH4 0xEBE8E1D EQ PUSH2 0xDE JUMPI DUP1 PUSH4 0x12732962 EQ PUSH2 0xFC JUMPI DUP1 PUSH4 0x1B15BDCA EQ PUSH2 0x12C JUMPI DUP1 PUSH4 0x3CD03CFC EQ PUSH2 0x15C JUMPI DUP1 PUSH4 0x50DB78FC EQ PUSH2 0x178 JUMPI DUP1 PUSH4 0x74BDFFDE EQ PUSH2 0x1A8 JUMPI JUMPDEST PUSH1 0x0 DUP1 REVERT JUMPDEST PUSH2 0xE6 PUSH2 0x2EE JUMP JUMPDEST PUSH1 0x40 MLOAD PUSH2 0xF3 SWAP2 SWAP1 PUSH2 0x705 JUMP JUMPDEST PUSH1 0x40 MLOAD DUP1 SWAP2 SUB SWAP1 RETURN JUMPDEST PUSH2 0x116 PUSH1 0x4 DUP1 CALLDATASIZE SUB DUP2 ADD SWAP1 PUSH2 0x111 SWAP2 SWAP1 PUSH2 0x766 JUMP JUMPDEST PUSH2 0x33D JUMP JUMPDEST PUSH1 0x40 MLOAD PUSH2 0x123 SWAP2 SWAP1 PUSH2 0x7DC JUMP JUMPDEST PUSH1 0x40 MLOAD DUP1 SWAP2 SUB SWAP1 RETURN JUMPDEST PUSH2 0x146 PUSH1 0x4 DUP1 CALLDATASIZE SUB DUP2 ADD SWAP1 PUSH2 0x141 SWAP2 SWAP1 PUSH2 0x97E JUMP JUMPDEST PUSH2 0x3B4 JUMP JUMPDEST PUSH1 0x40 MLOAD PUSH2 0x153 SWAP2 SWAP1 PUSH2 0x7DC JUMP JUMPDEST PUSH1 0x40 MLOAD DUP1 SWAP2 SUB SWAP1 RETURN JUMPDEST PUSH2 0x176 PUSH1 0x4 DUP1 CALLDATASIZE SUB DUP2 ADD SWAP1 PUSH2 0x171 SWAP2 SWAP1 PUSH2 0x9E4 JUMP JUMPDEST PUSH2 0x3E8 JUMP JUMPDEST STOP JUMPDEST PUSH2 0x192 PUSH1 0x4 DUP1 CALLDATASIZE SUB DUP2 ADD SWAP1 PUSH2 0x18D SWAP2 SWAP1 PUSH2 0xA3A JUMP JUMPDEST PUSH2 0x430 JUMP JUMPDEST PUSH1 0x40 MLOAD PUSH2 0x19F SWAP2 SWAP1 PUSH2 0x705 JUMP JUMPDEST PUSH1 0x40 MLOAD DUP1 SWAP2 SUB SWAP1 RETURN JUMPDEST PUSH2 0x1C2 PUSH1 0x4 DUP1 CALLDATASIZE SUB DUP2 ADD SWAP1 PUSH2 0x1BD SWAP2 SWAP1 PUSH2 0x97E JUMP JUMPDEST PUSH2 0x480 JUMP JUMPDEST PUSH1 0x40 MLOAD PUSH2 0x1CF SWAP2 SWAP1 PUSH2 0x7DC JUMP JUMPDEST PUSH1 0x40 MLOAD DUP1 SWAP2 SUB SWAP1 RETURN JUMPDEST PUSH2 0x1F2 PUSH1 0x4 DUP1 CALLDATASIZE SUB DUP2 ADD SWAP1 PUSH2 0x1ED SWAP2 SWAP1 PUSH2 0x97E JUMP JUMPDEST PUSH2 0x48E JUMP JUMPDEST PUSH1 0x40 MLOAD PUSH2 0x1FF SWAP2 SWAP1 PUSH2 0x7DC JUMP JUMPDEST PUSH1 0x40 MLOAD DUP1 SWAP2 SUB SWAP1 RETURN JUMPDEST PUSH2 0x222 PUSH1 0x4 DUP1 CALLDATASIZE SUB DUP2 ADD SWAP1 PUSH2 0x21D SWAP2 SWAP1 PUSH2 0xAB5 JUMP JUMPDEST PUSH2 0x49C JUMP JUMPDEST PUSH1 0x40 MLOAD PUSH2 0x22F SWAP2 SWAP1 PUSH2 0x7DC JUMP JUMPDEST PUSH1 0x40 MLOAD DUP1 SWAP2 SUB SWAP1 RETURN JUMPDEST PUSH2 0x252 PUSH1 0x4 DUP1 CALLDATASIZE SUB DUP2 ADD SWAP1 PUSH2 0x24D SWAP2 SWAP1 PUSH2 0x97E JUMP JUMPDEST PUSH2 0x4BC JUMP JUMPDEST PUSH1 0x40 MLOAD PUSH2 0x25F SWAP2 SWAP1 PUSH2 0xB06 JUMP JUMPDEST PUSH1 0x40 MLOAD DUP1 SWAP2 SUB SWAP1 RETURN JUMPDEST PUSH2 0x282 PUSH1 0x4 DUP1 CALLDATASIZE SUB DUP2 ADD SWAP1 PUSH2 0x27D SWAP2 SWAP1 PUSH2 0xAB5 JUMP JUMPDEST PUSH2 0x4D0 JUMP JUMPDEST PUSH1 0x40 MLOAD PUSH2 0x28F SWAP2 SWAP1 PUSH2 0x7DC JUMP JUMPDEST PUSH1 0x40 MLOAD DUP1 SWAP2 SUB SWAP1 RETURN JUMPDEST PUSH2 0x2B2 PUSH1 0x4 DUP1 CALLDATASIZE SUB DUP2 ADD SWAP1 PUSH2 0x2AD SWAP2 SWAP1 PUSH2 0xAB5 JUMP JUMPDEST PUSH2 0x4EF JUMP JUMPDEST STOP JUMPDEST PUSH2 0x2CE PUSH1 0x4 DUP1 CALLDATASIZE SUB DUP2 ADD SWAP1 PUSH2 0x2C9 SWAP2 SWAP1 PUSH2 0x97E JUMP JUMPDEST PUSH2 0x584 JUMP JUMPDEST STOP JUMPDEST PUSH2 0x2D8 PUSH2 0x5B6 JUMP JUMPDEST PUSH1 0x40 MLOAD PUSH2 0x2E5 SWAP2 SWAP1 PUSH2 0x705 JUMP JUMPDEST PUSH1 0x40 MLOAD DUP1 SWAP2 SUB SWAP1 RETURN JUMPDEST PUSH2 0x2F6 PUSH2 0x605 JUMP JUMPDEST PUSH1 0x40 MLOAD DUP1 PUSH2 0x100 ADD PUSH1 0x40 MSTORE DUP1 PUSH1 0x0 DUP2 MSTORE PUSH1 0x20 ADD PUSH1 0x0 DUP2 MSTORE PUSH1 0x20 ADD PUSH1 0x0 DUP2 MSTORE PUSH1 0x20 ADD PUSH1 0x0 DUP2 MSTORE PUSH1 0x20 ADD PUSH1 0x0 DUP2 MSTORE PUSH1 0x20 ADD PUSH1 0x0 DUP2 MSTORE PUSH1 0x20 ADD PUSH1 0x0 DUP2 MSTORE PUSH1 0x20 ADD PUSH1 0x0 DUP2 MSTORE POP SWAP1 POP SWAP1 JUMP JUMPDEST PUSH1 0x0 DUP1 DUP3 DUP5 PUSH2 0x34C SWAP2 SWAP1 PUSH2 0xB50 JUMP JUMPDEST SWAP1 POP PUSH1 0x0 DUP4 DUP6 PUSH2 0x35C SWAP2 SWAP1 PUSH2 0xBE4 JUMP JUMPDEST SWAP1 POP PUSH1 0x0 DUP2 EQ ISZERO PUSH2 0x371 JUMPI DUP7 SWAP3 POP POP POP PUSH2 0x3AC JUMP JUMPDEST PUSH1 0x0 DUP2 DUP4 DUP9 PUSH2 0x380 SWAP2 SWAP1 PUSH2 0xC78 JUMP JUMPDEST PUSH2 0x38A SWAP2 SWAP1 PUSH2 0xDBE JUMP JUMPDEST DUP9 PUSH2 0x395 SWAP2 SWAP1 PUSH2 0xBE4 JUMP JUMPDEST SWAP1 POP PUSH1 0x0 DUP2 SLT ISZERO PUSH2 0x3A5 JUMPI PUSH1 0x0 SWAP1 POP JUMPDEST DUP1 SWAP4 POP POP POP POP JUMPDEST SWAP5 SWAP4 POP POP POP POP JUMP JUMPDEST PUSH1 0x0 DUP2 PUSH1 0xE0 ADD MLOAD DUP3 PUSH1 0xC0 ADD MLOAD GT PUSH2 0x3CC JUMPI PUSH1 0x0 PUSH2 0x3E1 JUMP JUMPDEST DUP2 PUSH1 0xE0 ADD MLOAD DUP3 PUSH1 0xC0 ADD MLOAD PUSH2 0x3E0 SWAP2 SWAP1 PUSH2 0xE28 JUMP JUMPDEST JUMPDEST SWAP1 POP SWAP2 SWAP1 POP JUMP JUMPDEST DUP1 PUSH2 0x411 JUMPI DUP3 PUSH1 0x80 ADD MLOAD DUP3 LT ISZERO PUSH2 0x3FE JUMPI PUSH2 0x42B JUMP JUMPDEST DUP3 PUSH1 0x80 ADD MLOAD DUP3 PUSH2 0x40E SWAP2 SWAP1 PUSH2 0xE28 JUMP JUMPDEST SWAP2 POP JUMPDEST DUP2 DUP4 PUSH1 0xE0 ADD DUP2 DUP2 MLOAD PUSH2 0x423 SWAP2 SWAP1 PUSH2 0xE5C JUMP JUMPDEST SWAP2 POP DUP2 DUP2 MSTORE POP POP JUMPDEST POP POP POP JUMP JUMPDEST PUSH2 0x438 PUSH2 0x605 JUMP JUMPDEST PUSH1 0x40 MLOAD DUP1 PUSH2 0x100 ADD PUSH1 0x40 MSTORE DUP1 DUP8 DUP2 MSTORE PUSH1 0x20 ADD DUP7 DUP2 MSTORE PUSH1 0x20 ADD DUP6 DUP2 MSTORE PUSH1 0x20 ADD DUP5 DUP2 MSTORE PUSH1 0x20 ADD DUP4 DUP2 MSTORE PUSH1 0x20 ADD PUSH1 0x0 DUP2 MSTORE PUSH1 0x20 ADD PUSH1 0x0 DUP2 MSTORE PUSH1 0x20 ADD PUSH1 0x0 DUP2 MSTORE POP SWAP1 POP SWAP6 SWAP5 POP POP POP POP POP JUMP JUMPDEST PUSH1 0x0 DUP2 PUSH1 0x0 ADD MLOAD SWAP1 POP SWAP2 SWAP1 POP JUMP JUMPDEST PUSH1 0x0 DUP2 PUSH1 0x40 ADD MLOAD SWAP1 POP SWAP2 SWAP1 POP JUMP JUMPDEST PUSH1 0x0 PUSH2 0x4B4 PUSH1 0x20 PUSH1 0x60 DUP5 PUSH1 0x60 ADD MLOAD DUP7 PUSH1 0x60 ADD MLOAD PUSH2 0x33D JUMP JUMPDEST SWAP1 POP SWAP3 SWAP2 POP POP JUMP JUMPDEST PUSH1 0x0 DUP1 PUSH2 0x4C8 DUP4 PUSH2 0x3B4 JUMP JUMPDEST GT SWAP1 POP SWAP2 SWAP1 POP JUMP JUMPDEST PUSH1 0x0 PUSH2 0x4E7 PUSH1 0x40 DUP1 DUP5 PUSH1 0x20 ADD MLOAD DUP7 PUSH1 0x20 ADD MLOAD PUSH2 0x33D JUMP JUMPDEST SWAP1 POP SWAP3 SWAP2 POP POP JUMP JUMPDEST DUP1 PUSH1 0x0 ADD MLOAD DUP3 PUSH1 0x0 ADD DUP2 DUP2 MLOAD PUSH2 0x505 SWAP2 SWAP1 PUSH2 0xE5C JUMP JUMPDEST SWAP2 POP DUP2 DUP2 MSTORE POP POP DUP1 PUSH1 0x20 ADD MLOAD DUP3 PUSH1 0x20 ADD DUP2 DUP2 MLOAD PUSH2 0x522 SWAP2 SWAP1 PUSH2 0xE5C JUMP JUMPDEST SWAP2 POP DUP2 DUP2 MSTORE POP POP DUP1 PUSH1 0x40 ADD MLOAD DUP3 PUSH1 0x40 ADD DUP2 DUP2 MLOAD PUSH2 0x53F SWAP2 SWAP1 PUSH2 0xE5C JUMP JUMPDEST SWAP2 POP DUP2 DUP2 MSTORE POP POP DUP1 PUSH1 0x60 ADD MLOAD DUP3 PUSH1 0x60 ADD DUP2 DUP2 MLOAD PUSH2 0x55C SWAP2 SWAP1 PUSH2 0xE5C JUMP JUMPDEST SWAP2 POP DUP2 DUP2 MSTORE POP POP DUP1 PUSH1 0x80 ADD MLOAD DUP3 PUSH1 0x80 ADD DUP2 DUP2 MLOAD PUSH2 0x579 SWAP2 SWAP1 PUSH2 0xE5C JUMP JUMPDEST SWAP2 POP DUP2 DUP2 MSTORE POP POP POP POP JUMP JUMPDEST PUSH2 0x58D DUP2 PUSH2 0x480 JUMP JUMPDEST DUP2 PUSH1 0xA0 ADD DUP2 DUP2 MSTORE POP POP PUSH2 0x59F DUP2 PUSH2 0x48E JUMP JUMPDEST DUP2 PUSH1 0xC0 ADD DUP2 DUP2 MSTORE POP POP PUSH1 0x0 DUP2 PUSH1 0xE0 ADD DUP2 DUP2 MSTORE POP POP POP JUMP JUMPDEST PUSH2 0x5BE PUSH2 0x605 JUMP JUMPDEST PUSH1 0x40 MLOAD DUP1 PUSH2 0x100 ADD PUSH1 0x40 MSTORE DUP1 PUSH1 0x1 DUP2 MSTORE PUSH1 0x20 ADD PUSH1 0x1 DUP2 MSTORE PUSH1 0x20 ADD PUSH1 0x1 DUP2 MSTORE PUSH1 0x20 ADD PUSH1 0x0 DUP2 MSTORE PUSH1 0x20 ADD PUSH1 0x0 DUP2 MSTORE PUSH1 0x20 ADD PUSH1 0x0 DUP2 MSTORE PUSH1 0x20 ADD PUSH1 0x0 DUP2 MSTORE PUSH1 0x20 ADD PUSH1 0x0 DUP2 MSTORE POP SWAP1 POP SWAP1 JUMP JUMPDEST PUSH1 0x40 MLOAD DUP1 PUSH2 0x100 ADD PUSH1 0x40 MSTORE DUP1 PUSH1 0x0 DUP2 MSTORE PUSH1 0x20 ADD PUSH1 0x0 DUP2 MSTORE PUSH1 0x20 ADD PUSH1 0x0 DUP2 MSTORE PUSH1 0x20 ADD PUSH1 0x0 DUP2 MSTORE PUSH1 0x20 ADD PUSH1 0x0 DUP2 MSTORE PUSH1 0x20 ADD PUSH1 0x0 DUP2 MSTORE PUSH1 0x20 ADD PUSH1 0x0 DUP2 MSTORE PUSH1 0x20 ADD PUSH1 0x0 DUP2 MSTORE POP SWAP1 JUMP JUMPDEST PUSH1 0x0 DUP2 SWAP1 POP SWAP2 SWAP1 POP JUMP JUMPDEST PUSH2 0x65D DUP2 PUSH2 0x64A JUMP JUMPDEST DUP3 MSTORE POP POP JUMP JUMPDEST PUSH2 0x100 DUP3 ADD PUSH1 0x0 DUP3 ADD MLOAD PUSH2 0x67A PUSH1 0x0 DUP6 ADD DUP3 PUSH2 0x654 JUMP JUMPDEST POP PUSH1 0x20 DUP3 ADD MLOAD PUSH2 0x68D PUSH1 0x20 DUP6 ADD DUP3 PUSH2 0x654 JUMP JUMPDEST POP PUSH1 0x40 DUP3 ADD MLOAD PUSH2 0x6A0 PUSH1 0x40 DUP6 ADD DUP3 PUSH2 0x654 JUMP JUMPDEST POP PUSH1 0x60 DUP3 ADD MLOAD PUSH2 0x6B3 PUSH1 0x60 DUP6 ADD DUP3 PUSH2 0x654 JUMP JUMPDEST POP PUSH1 0x80 DUP3 ADD MLOAD PUSH2 0x6C6 PUSH1 0x80 DUP6 ADD DUP3 PUSH2 0x654 JUMP JUMPDEST POP PUSH1 0xA0 DUP3 ADD MLOAD PUSH2 0x6D9 PUSH1 0xA0 DUP6 ADD DUP3 PUSH2 0x654 JUMP JUMPDEST POP PUSH1 0xC0 DUP3 ADD MLOAD PUSH2 0x6EC PUSH1 0xC0 DUP6 ADD DUP3 PUSH2 0x654 JUMP JUMPDEST POP PUSH1 0xE0 DUP3 ADD MLOAD PUSH2 0x6FF PUSH1 0xE0 DUP6 ADD DUP3 PUSH2 0x654 JUMP JUMPDEST POP POP POP POP JUMP JUMPDEST PUSH1 0x0 PUSH2 0x100 DUP3 ADD SWAP1 POP PUSH2 0x71B PUSH1 0x0 DUP4 ADD DUP5 PUSH2 0x663 JUMP JUMPDEST SWAP3 SWAP2 POP POP JUMP JUMPDEST PUSH1 0x0 PUSH1 0x40 MLOAD SWAP1 POP SWAP1 JUMP JUMPDEST PUSH1 0x0 DUP1 REVERT JUMPDEST PUSH1 0x0 DUP2 SWAP1 POP SWAP2 SWAP1 POP JUMP JUMPDEST PUSH2 0x743 DUP2 PUSH2 0x730 JUMP JUMPDEST DUP2 EQ PUSH2 0x74E JUMPI PUSH1 0x0 DUP1 REVERT JUMPDEST POP JUMP JUMPDEST PUSH1 0x0 DUP2 CALLDATALOAD SWAP1 POP PUSH2 0x760 DUP2 PUSH2 0x73A JUMP JUMPDEST SWAP3 SWAP2 POP POP JUMP JUMPDEST PUSH1 0x0 DUP1 PUSH1 0x0 DUP1 PUSH1 0x80 DUP6 DUP8 SUB SLT ISZERO PUSH2 0x780 JUMPI PUSH2 0x77F PUSH2 0x72B JUMP JUMPDEST JUMPDEST PUSH1 0x0 PUSH2 0x78E DUP8 DUP3 DUP9 ADD PUSH2 0x751 JUMP JUMPDEST SWAP5 POP POP PUSH1 0x20 PUSH2 0x79F DUP8 DUP3 DUP9 ADD PUSH2 0x751 JUMP JUMPDEST SWAP4 POP POP PUSH1 0x40 PUSH2 0x7B0 DUP8 DUP3 DUP9 ADD PUSH2 0x751 JUMP JUMPDEST SWAP3 POP POP PUSH1 0x60 PUSH2 0x7C1 DUP8 DUP3 DUP9 ADD PUSH2 0x751 JUMP JUMPDEST SWAP2 POP POP SWAP3 SWAP6 SWAP2 SWAP5 POP SWAP3 POP JUMP JUMPDEST PUSH2 0x7D6 DUP2 PUSH2 0x64A JUMP JUMPDEST DUP3 MSTORE POP POP JUMP JUMPDEST PUSH1 0x0 PUSH1 0x20 DUP3 ADD SWAP1 POP PUSH2 0x7F1 PUSH1 0x0 DUP4 ADD DUP5 PUSH2 0x7CD JUMP JUMPDEST SWAP3 SWAP2 POP POP JUMP JUMPDEST PUSH1 0x0 DUP1 REVERT JUMPDEST PUSH1 0x0 PUSH1 0x1F NOT PUSH1 0x1F DUP4 ADD AND SWAP1 POP SWAP2 SWAP1 POP JUMP JUMPDEST PUSH32 0x4E487B7100000000000000000000000000000000000000000000000000000000 PUSH1 0x0 MSTORE PUSH1 0x41 PUSH1 0x4 MSTORE PUSH1 0x24 PUSH1 0x0 REVERT JUMPDEST PUSH2 0x845 DUP3 PUSH2 0x7FC JUMP JUMPDEST DUP2 ADD DUP2 DUP2 LT PUSH8 0xFFFFFFFFFFFFFFFF DUP3 GT OR ISZERO PUSH2 0x864 JUMPI PUSH2 0x863 PUSH2 0x80D JUMP JUMPDEST JUMPDEST DUP1 PUSH1 0x40 MSTORE POP POP POP JUMP JUMPDEST PUSH1 0x0 PUSH2 0x877 PUSH2 0x721 JUMP JUMPDEST SWAP1 POP PUSH2 0x883 DUP3 DUP3 PUSH2 0x83C JUMP JUMPDEST SWAP2 SWAP1 POP JUMP JUMPDEST PUSH2 0x891 DUP2 PUSH2 0x64A JUMP JUMPDEST DUP2 EQ PUSH2 0x89C JUMPI PUSH1 0x0 DUP1 REVERT JUMPDEST POP JUMP JUMPDEST PUSH1 0x0 DUP2 CALLDATALOAD SWAP1 POP PUSH2 0x8AE DUP2 PUSH2 0x888 JUMP JUMPDEST SWAP3 SWAP2 POP POP JUMP JUMPDEST PUSH1 0x0 PUSH2 0x100 DUP3 DUP5 SUB SLT ISZERO PUSH2 0x8CB JUMPI PUSH2 0x8CA PUSH2 0x7F7 JUMP JUMPDEST JUMPDEST PUSH2 0x8D6 PUSH2 0x100 PUSH2 0x86D JUMP JUMPDEST SWAP1 POP PUSH1 0x0 PUSH2 0x8E6 DUP5 DUP3 DUP6 ADD PUSH2 0x89F JUMP JUMPDEST PUSH1 0x0 DUP4 ADD MSTORE POP PUSH1 0x20 PUSH2 0x8FA DUP5 DUP3 DUP6 ADD PUSH2 0x89F JUMP JUMPDEST PUSH1 0x20 DUP4 ADD MSTORE POP PUSH1 0x40 PUSH2 0x90E DUP5 DUP3 DUP6 ADD PUSH2 0x89F JUMP JUMPDEST PUSH1 0x40 DUP4 ADD MSTORE POP PUSH1 0x60 PUSH2 0x922 DUP5 DUP3 DUP6 ADD PUSH2 0x89F JUMP JUMPDEST PUSH1 0x60 DUP4 ADD MSTORE POP PUSH1 0x80 PUSH2 0x936 DUP5 DUP3 DUP6 ADD PUSH2 0x89F JUMP JUMPDEST PUSH1 0x80 DUP4 ADD MSTORE POP PUSH1 0xA0 PUSH2 0x94A DUP5 DUP3 DUP6 ADD PUSH2 0x89F JUMP JUMPDEST PUSH1 0xA0 DUP4 ADD MSTORE POP PUSH1 0xC0 PUSH2 0x95E DUP5 DUP3 DUP6 ADD PUSH2 0x89F JUMP JUMPDEST PUSH1 0xC0 DUP4 ADD MSTORE POP PUSH1 0xE0 PUSH2 0x972 DUP5 DUP3 DUP6 ADD PUSH2 0x89F JUMP JUMPDEST PUSH1 0xE0 DUP4 ADD MSTORE POP SWAP3 SWAP2 POP POP JUMP JUMPDEST PUSH1 0x0 PUSH2 0x100 DUP3 DUP5 SUB SLT ISZERO PUSH2 0x995 JUMPI PUSH2 0x994 PUSH2 0x72B JUMP JUMPDEST JUMPDEST PUSH1 0x0 PUSH2 0x9A3 DUP5 DUP3 DUP6 ADD PUSH2 0x8B4 JUMP JUMPDEST SWAP2 POP POP SWAP3 SWAP2 POP POP JUMP JUMPDEST PUSH1 0x0 DUP2 ISZERO ISZERO SWAP1 POP SWAP2 SWAP1 POP JUMP JUMPDEST PUSH2 0x9C1 DUP2 PUSH2 0x9AC JUMP JUMPDEST DUP2 EQ PUSH2 0x9CC JUMPI PUSH1 0x0 DUP1 REVERT JUMPDEST POP JUMP JUMPDEST PUSH1 0x0 DUP2 CALLDATALOAD SWAP1 POP PUSH2 0x9DE DUP2 PUSH2 0x9B8 JUMP JUMPDEST SWAP3 SWAP2 POP POP JUMP JUMPDEST PUSH1 0x0 DUP1 PUSH1 0x0 PUSH2 0x140 DUP5 DUP7 SUB SLT ISZERO PUSH2 0x9FE JUMPI PUSH2 0x9FD PUSH2 0x72B JUMP JUMPDEST JUMPDEST PUSH1 0x0 PUSH2 0xA0C DUP7 DUP3 DUP8 ADD PUSH2 0x8B4 JUMP JUMPDEST SWAP4 POP POP PUSH2 0x100 PUSH2 0xA1E DUP7 DUP3 DUP8 ADD PUSH2 0x89F JUMP JUMPDEST SWAP3 POP POP PUSH2 0x120 PUSH2 0xA30 DUP7 DUP3 DUP8 ADD PUSH2 0x9CF JUMP JUMPDEST SWAP2 POP POP SWAP3 POP SWAP3 POP SWAP3 JUMP JUMPDEST PUSH1 0x0 DUP1 PUSH1 0x0 DUP1 PUSH1 0x0 PUSH1 0xA0 DUP7 DUP9 SUB SLT ISZERO PUSH2 0xA56 JUMPI PUSH2 0xA55 PUSH2 0x72B JUMP JUMPDEST JUMPDEST PUSH1 0x0 PUSH2 0xA64 DUP9 DUP3 DUP10 ADD PUSH2 0x89F JUMP JUMPDEST SWAP6 POP POP PUSH1 0x20 PUSH2 0xA75 DUP9 DUP3 DUP10 ADD PUSH2 0x89F JUMP JUMPDEST SWAP5 POP POP PUSH1 0x40 PUSH2 0xA86 DUP9 DUP3 DUP10 ADD PUSH2 0x89F JUMP JUMPDEST SWAP4 POP POP PUSH1 0x60 PUSH2 0xA97 DUP9 DUP3 DUP10 ADD PUSH2 0x89F JUMP JUMPDEST SWAP3 POP POP PUSH1 0x80 PUSH2 0xAA8 DUP9 DUP3 DUP10 ADD PUSH2 0x89F JUMP JUMPDEST SWAP2 POP POP SWAP3 SWAP6 POP SWAP3 SWAP6 SWAP1 SWAP4 POP JUMP JUMPDEST PUSH1 0x0 DUP1 PUSH2 0x200 DUP4 DUP6 SUB SLT ISZERO PUSH2 0xACD JUMPI PUSH2 0xACC PUSH2 0x72B JUMP JUMPDEST JUMPDEST PUSH1 0x0 PUSH2 0xADB DUP6 DUP3 DUP7 ADD PUSH2 0x8B4 JUMP JUMPDEST SWAP3 POP POP PUSH2 0x100 PUSH2 0xAED DUP6 DUP3 DUP7 ADD PUSH2 0x8B4 JUMP JUMPDEST SWAP2 POP POP SWAP3 POP SWAP3 SWAP1 POP JUMP JUMPDEST PUSH2 0xB00 DUP2 PUSH2 0x9AC JUMP JUMPDEST DUP3 MSTORE POP POP JUMP JUMPDEST PUSH1 0x0 PUSH1 0x20 DUP3 ADD SWAP1 POP PUSH2 0xB1B PUSH1 0x0 DUP4 ADD DUP5 PUSH2 0xAF7 JUMP JUMPDEST SWAP3 SWAP2 POP POP JUMP JUMPDEST PUSH32 0x4E487B7100000000000000000000000000000000000000000000000000000000 PUSH1 0x0 MSTORE PUSH1 0x11 PUSH1 0x4 MSTORE PUSH1 0x24 PUSH1 0x0 REVERT JUMPDEST PUSH1 0x0 PUSH2 0xB5B DUP3 PUSH2 0x730 JUMP JUMPDEST SWAP2 POP PUSH2 0xB66 DUP4 PUSH2 0x730 JUMP JUMPDEST SWAP3 POP DUP3 PUSH32 0x8000000000000000000000000000000000000000000000000000000000000000 ADD DUP3 SLT PUSH1 0x0 DUP5 SLT ISZERO AND ISZERO PUSH2 0xBA1 JUMPI PUSH2 0xBA0 PUSH2 0xB21 JUMP JUMPDEST JUMPDEST DUP3 PUSH32 0x7FFFFFFFFFFFFFFFFFFFFFFFFFFFFFFFFFFFFFFFFFFFFFFFFFFFFFFFFFFFFFFF ADD DUP3 SGT PUSH1 0x0 DUP5 SLT AND ISZERO PUSH2 0xBD9 JUMPI PUSH2 0xBD8 PUSH2 0xB21 JUMP JUMPDEST JUMPDEST DUP3 DUP3 SUB SWAP1 POP SWAP3 SWAP2 POP POP JUMP JUMPDEST PUSH1 0x0 PUSH2 0xBEF DUP3 PUSH2 0x730 JUMP JUMPDEST SWAP2 POP PUSH2 0xBFA DUP4 PUSH2 0x730 JUMP JUMPDEST SWAP3 POP DUP2 PUSH32 0x7FFFFFFFFFFFFFFFFFFFFFFFFFFFFFFFFFFFFFFFFFFFFFFFFFFFFFFFFFFFFFFF SUB DUP4 SGT PUSH1 0x0 DUP4 SLT ISZERO AND ISZERO PUSH2 0xC35 JUMPI PUSH2 0xC34 PUSH2 0xB21 JUMP JUMPDEST JUMPDEST DUP2 PUSH32 0x8000000000000000000000000000000000000000000000000000000000000000 SUB DUP4 SLT PUSH1 0x0 DUP4 SLT AND ISZERO PUSH2 0xC6D JUMPI PUSH2 0xC6C PUSH2 0xB21 JUMP JUMPDEST JUMPDEST DUP3 DUP3 ADD SWAP1 POP SWAP3 SWAP2 POP POP JUMP JUMPDEST PUSH1 0x0 PUSH2 0xC83 DUP3 PUSH2 0x730 JUMP JUMPDEST SWAP2 POP PUSH2 0xC8E DUP4 PUSH2 0x730 JUMP JUMPDEST SWAP3 POP DUP3 PUSH32 0x7FFFFFFFFFFFFFFFFFFFFFFFFFFFFFFFFFFFFFFFFFFFFFFFFFFFFFFFFFFFFFFF DIV DUP3 GT PUSH1 0x0 DUP5 SGT PUSH1 0x0 DUP5 SGT AND AND ISZERO PUSH2 0xCCD JUMPI PUSH2 0xCCC PUSH2 0xB21 JUMP JUMPDEST JUMPDEST DUP2 PUSH32 0x8000000000000000000000000000000000000000000000000000000000000000 SDIV DUP4 SLT PUSH1 0x0 DUP5 SLT PUSH1 0x0 DUP5 SGT AND AND ISZERO PUSH2 0xD0A JUMPI PUSH2 0xD09 PUSH2 0xB21 JUMP JUMPDEST JUMPDEST DUP3 PUSH32 0x8000000000000000000000000000000000000000000000000000000000000000 SDIV DUP3 SLT PUSH1 0x0 DUP5 SGT PUSH1 0x0 DUP5 SLT AND AND ISZERO PUSH2 0xD47 JUMPI PUSH2 0xD46 PUSH2 0xB21 JUMP JUMPDEST JUMPDEST DUP3 PUSH32 0x7FFFFFFFFFFFFFFFFFFFFFFFFFFFFFFFFFFFFFFFFFFFFFFFFFFFFFFFFFFFFFFF SDIV DUP3 SLT PUSH1 0x0 DUP5 SLT PUSH1 0x0 DUP5 SLT AND AND ISZERO PUSH2 0xD84 JUMPI PUSH2 0xD83 PUSH2 0xB21 JUMP JUMPDEST JUMPDEST DUP3 DUP3 MUL SWAP1 POP SWAP3 SWAP2 POP POP JUMP JUMPDEST PUSH32 0x4E487B7100000000000000000000000000000000000000000000000000000000 PUSH1 0x0 MSTORE PUSH1 0x12 PUSH1 0x4 MSTORE PUSH1 0x24 PUSH1 0x0 REVERT JUMPDEST PUSH1 0x0 PUSH2 0xDC9 DUP3 PUSH2 0x730 JUMP JUMPDEST SWAP2 POP PUSH2 0xDD4 DUP4 PUSH2 0x730 JUMP JUMPDEST SWAP3 POP DUP3 PUSH2 0xDE4 JUMPI PUSH2 0xDE3 PUSH2 0xD8F JUMP JUMPDEST JUMPDEST PUSH1 0x1 PUSH1 0x0 SUB DUP4 EQ PUSH32 0x8000000000000000000000000000000000000000000000000000000000000000 DUP4 EQ AND ISZERO PUSH2 0xE1D JUMPI PUSH2 0xE1C PUSH2 0xB21 JUMP JUMPDEST JUMPDEST DUP3 DUP3 SDIV SWAP1 POP SWAP3 SWAP2 POP POP JUMP JUMPDEST PUSH1 0x0 PUSH2 0xE33 DUP3 PUSH2 0x64A JUMP JUMPDEST SWAP2 POP PUSH2 0xE3E DUP4 PUSH2 0x64A JUMP JUMPDEST SWAP3 POP DUP3 DUP3 LT ISZERO PUSH2 0xE51 JUMPI PUSH2 0xE50 PUSH2 0xB21 JUMP JUMPDEST JUMPDEST DUP3 DUP3 SUB SWAP1 POP SWAP3 SWAP2 POP POP JUMP JUMPDEST PUSH1 0x0 PUSH2 0xE67 DUP3 PUSH2 0x64A JUMP JUMPDEST SWAP2 POP PUSH2 0xE72 DUP4 PUSH2 0x64A JUMP JUMPDEST SWAP3 POP DUP3 PUSH32 0xFFFFFFFFFFFFFFFFFFFFFFFFFFFFFFFFFFFFFFFFFFFFFFFFFFFFFFFFFFFFFFFF SUB DUP3 GT ISZERO PUSH2 0xEA7 JUMPI PUSH2 0xEA6 PUSH2 0xB21 JUMP JUMPDEST JUMPDEST DUP3 DUP3 ADD SWAP1 POP SWAP3 SWAP2 POP POP JUMP INVALID LOG2 PUSH5 0x6970667358 0x22 SLT KECCAK256 BASEFEE SWAP1 XOR 0xD5 EXTCODEHASH PUSH20 0x32A3D809CF0DBE073DE73A0B28CDB6BDA2E79ABC PUSH5 0xC3D8EF0BDE PUSH5 0x736F6C6343 STOP ADDMOD EXP STOP CALLER "
		},
		"gasEstimates": {
			"creation": {
				"codeDepositCost": "763200",
				"executionCost": "824",
				"totalCost": "764024"
			},
			"external": {
				"add(ComputedStats.Stats,ComputedStats.Stats)": "infinite",
				"alive(ComputedStats.Stats)": "infinite",
				"applyDamage(ComputedStats.Stats,uint256,bool)": "infinite",
				"calculateChance(int256,int256,int256,int256)": "infinite",
				"computeAttack(ComputedStats.Stats)": "infinite",
				"computeHealth(ComputedStats.Stats)": "infinite",
				"critChance(ComputedStats.Stats,ComputedStats.Stats)": "infinite",
				"defaultStats()": "infinite",
				"getHealth(ComputedStats.Stats)": "infinite",
				"hitChance(ComputedStats.Stats,ComputedStats.Stats)": "infinite",
				"init(ComputedStats.Stats)": "infinite",
				"newStats(uint256,uint256,uint256,uint256,uint256)": "infinite",
				"zeroStats()": "infinite"
			}
		},
		"methodIdentifiers": {
			"add(ComputedStats.Stats,ComputedStats.Stats)": "c7f1619b",
			"alive(ComputedStats.Stats)": "af195af2",
			"applyDamage(ComputedStats.Stats,uint256,bool)": "3cd03cfc",
			"calculateChance(int256,int256,int256,int256)": "12732962",
			"computeAttack(ComputedStats.Stats)": "74bdffde",
			"computeHealth(ComputedStats.Stats)": "7cc6fd52",
			"critChance(ComputedStats.Stats,ComputedStats.Stats)": "84963742",
			"defaultStats()": "f7287056",
			"getHealth(ComputedStats.Stats)": "1b15bdca",
			"hitChance(ComputedStats.Stats,ComputedStats.Stats)": "bb0253c1",
			"init(ComputedStats.Stats)": "e8704307",
			"newStats(uint256,uint256,uint256,uint256,uint256)": "50db78fc",
			"zeroStats()": "0ebe8e1d"
		}
	},
	"abi": [
		{
			"inputs": [
				{
					"components": [
						{
							"internalType": "uint256",
							"name": "strength",
							"type": "uint256"
						},
						{
							"internalType": "uint256",
							"name": "dexterity",
							"type": "uint256"
						},
						{
							"internalType": "uint256",
							"name": "constitution",
							"type": "uint256"
						},
						{
							"internalType": "uint256",
							"name": "luck",
							"type": "uint256"
						},
						{
							"internalType": "uint256",
							"name": "armor",
							"type": "uint256"
						},
						{
							"internalType": "uint256",
							"name": "attack",
							"type": "uint256"
						},
						{
							"internalType": "uint256",
							"name": "health",
							"type": "uint256"
						},
						{
							"internalType": "uint256",
							"name": "takenDamage",
							"type": "uint256"
						}
					],
					"internalType": "struct ComputedStats.Stats",
					"name": "one",
					"type": "tuple"
				},
				{
					"components": [
						{
							"internalType": "uint256",
							"name": "strength",
							"type": "uint256"
						},
						{
							"internalType": "uint256",
							"name": "dexterity",
							"type": "uint256"
						},
						{
							"internalType": "uint256",
							"name": "constitution",
							"type": "uint256"
						},
						{
							"internalType": "uint256",
							"name": "luck",
							"type": "uint256"
						},
						{
							"internalType": "uint256",
							"name": "armor",
							"type": "uint256"
						},
						{
							"internalType": "uint256",
							"name": "attack",
							"type": "uint256"
						},
						{
							"internalType": "uint256",
							"name": "health",
							"type": "uint256"
						},
						{
							"internalType": "uint256",
							"name": "takenDamage",
							"type": "uint256"
						}
					],
					"internalType": "struct ComputedStats.Stats",
					"name": "another",
					"type": "tuple"
				}
			],
			"name": "add",
			"outputs": [],
			"stateMutability": "pure",
			"type": "function"
		},
		{
			"inputs": [
				{
					"components": [
						{
							"internalType": "uint256",
							"name": "strength",
							"type": "uint256"
						},
						{
							"internalType": "uint256",
							"name": "dexterity",
							"type": "uint256"
						},
						{
							"internalType": "uint256",
							"name": "constitution",
							"type": "uint256"
						},
						{
							"internalType": "uint256",
							"name": "luck",
							"type": "uint256"
						},
						{
							"internalType": "uint256",
							"name": "armor",
							"type": "uint256"
						},
						{
							"internalType": "uint256",
							"name": "attack",
							"type": "uint256"
						},
						{
							"internalType": "uint256",
							"name": "health",
							"type": "uint256"
						},
						{
							"internalType": "uint256",
							"name": "takenDamage",
							"type": "uint256"
						}
					],
					"internalType": "struct ComputedStats.Stats",
					"name": "stats",
					"type": "tuple"
				}
			],
			"name": "alive",
			"outputs": [
				{
					"internalType": "bool",
					"name": "",
					"type": "bool"
				}
			],
			"stateMutability": "pure",
			"type": "function"
		},
		{
			"inputs": [
				{
					"components": [
						{
							"internalType": "uint256",
							"name": "strength",
							"type": "uint256"
						},
						{
							"internalType": "uint256",
							"name": "dexterity",
							"type": "uint256"
						},
						{
							"internalType": "uint256",
							"name": "constitution",
							"type": "uint256"
						},
						{
							"internalType": "uint256",
							"name": "luck",
							"type": "uint256"
						},
						{
							"internalType": "uint256",
							"name": "armor",
							"type": "uint256"
						},
						{
							"internalType": "uint256",
							"name": "attack",
							"type": "uint256"
						},
						{
							"internalType": "uint256",
							"name": "health",
							"type": "uint256"
						},
						{
							"internalType": "uint256",
							"name": "takenDamage",
							"type": "uint256"
						}
					],
					"internalType": "struct ComputedStats.Stats",
					"name": "stats",
					"type": "tuple"
				},
				{
					"internalType": "uint256",
					"name": "damage",
					"type": "uint256"
				},
				{
					"internalType": "bool",
					"name": "crit",
					"type": "bool"
				}
			],
			"name": "applyDamage",
			"outputs": [],
			"stateMutability": "pure",
			"type": "function"
		},
		{
			"inputs": [
				{
					"internalType": "int256",
					"name": "base",
					"type": "int256"
				},
				{
					"internalType": "int256",
					"name": "bonus",
					"type": "int256"
				},
				{
					"internalType": "int256",
					"name": "from",
					"type": "int256"
				},
				{
					"internalType": "int256",
					"name": "to",
					"type": "int256"
				}
			],
			"name": "calculateChance",
			"outputs": [
				{
					"internalType": "uint256",
					"name": "",
					"type": "uint256"
				}
			],
			"stateMutability": "pure",
			"type": "function"
		},
		{
			"inputs": [
				{
					"components": [
						{
							"internalType": "uint256",
							"name": "strength",
							"type": "uint256"
						},
						{
							"internalType": "uint256",
							"name": "dexterity",
							"type": "uint256"
						},
						{
							"internalType": "uint256",
							"name": "constitution",
							"type": "uint256"
						},
						{
							"internalType": "uint256",
							"name": "luck",
							"type": "uint256"
						},
						{
							"internalType": "uint256",
							"name": "armor",
							"type": "uint256"
						},
						{
							"internalType": "uint256",
							"name": "attack",
							"type": "uint256"
						},
						{
							"internalType": "uint256",
							"name": "health",
							"type": "uint256"
						},
						{
							"internalType": "uint256",
							"name": "takenDamage",
							"type": "uint256"
						}
					],
					"internalType": "struct ComputedStats.Stats",
					"name": "stats",
					"type": "tuple"
				}
			],
			"name": "computeAttack",
			"outputs": [
				{
					"internalType": "uint256",
					"name": "attack",
					"type": "uint256"
				}
			],
			"stateMutability": "pure",
			"type": "function"
		},
		{
			"inputs": [
				{
					"components": [
						{
							"internalType": "uint256",
							"name": "strength",
							"type": "uint256"
						},
						{
							"internalType": "uint256",
							"name": "dexterity",
							"type": "uint256"
						},
						{
							"internalType": "uint256",
							"name": "constitution",
							"type": "uint256"
						},
						{
							"internalType": "uint256",
							"name": "luck",
							"type": "uint256"
						},
						{
							"internalType": "uint256",
							"name": "armor",
							"type": "uint256"
						},
						{
							"internalType": "uint256",
							"name": "attack",
							"type": "uint256"
						},
						{
							"internalType": "uint256",
							"name": "health",
							"type": "uint256"
						},
						{
							"internalType": "uint256",
							"name": "takenDamage",
							"type": "uint256"
						}
					],
					"internalType": "struct ComputedStats.Stats",
					"name": "stats",
					"type": "tuple"
				}
			],
			"name": "computeHealth",
			"outputs": [
				{
					"internalType": "uint256",
					"name": "health",
					"type": "uint256"
				}
			],
			"stateMutability": "pure",
			"type": "function"
		},
		{
			"inputs": [
				{
					"components": [
						{
							"internalType": "uint256",
							"name": "strength",
							"type": "uint256"
						},
						{
							"internalType": "uint256",
							"name": "dexterity",
							"type": "uint256"
						},
						{
							"internalType": "uint256",
							"name": "constitution",
							"type": "uint256"
						},
						{
							"internalType": "uint256",
							"name": "luck",
							"type": "uint256"
						},
						{
							"internalType": "uint256",
							"name": "armor",
							"type": "uint256"
						},
						{
							"internalType": "uint256",
							"name": "attack",
							"type": "uint256"
						},
						{
							"internalType": "uint256",
							"name": "health",
							"type": "uint256"
						},
						{
							"internalType": "uint256",
							"name": "takenDamage",
							"type": "uint256"
						}
					],
					"internalType": "struct ComputedStats.Stats",
					"name": "target",
					"type": "tuple"
				},
				{
					"components": [
						{
							"internalType": "uint256",
							"name": "strength",
							"type": "uint256"
						},
						{
							"internalType": "uint256",
							"name": "dexterity",
							"type": "uint256"
						},
						{
							"internalType": "uint256",
							"name": "constitution",
							"type": "uint256"
						},
						{
							"internalType": "uint256",
							"name": "luck",
							"type": "uint256"
						},
						{
							"internalType": "uint256",
							"name": "armor",
							"type": "uint256"
						},
						{
							"internalType": "uint256",
							"name": "attack",
							"type": "uint256"
						},
						{
							"internalType": "uint256",
							"name": "health",
							"type": "uint256"
						},
						{
							"internalType": "uint256",
							"name": "takenDamage",
							"type": "uint256"
						}
					],
					"internalType": "struct ComputedStats.Stats",
					"name": "attacker",
					"type": "tuple"
				}
			],
			"name": "critChance",
			"outputs": [
				{
					"internalType": "uint256",
					"name": "",
					"type": "uint256"
				}
			],
			"stateMutability": "pure",
			"type": "function"
		},
		{
			"inputs": [],
			"name": "defaultStats",
			"outputs": [
				{
					"components": [
						{
							"internalType": "uint256",
							"name": "strength",
							"type": "uint256"
						},
						{
							"internalType": "uint256",
							"name": "dexterity",
							"type": "uint256"
						},
						{
							"internalType": "uint256",
							"name": "constitution",
							"type": "uint256"
						},
						{
							"internalType": "uint256",
							"name": "luck",
							"type": "uint256"
						},
						{
							"internalType": "uint256",
							"name": "armor",
							"type": "uint256"
						},
						{
							"internalType": "uint256",
							"name": "attack",
							"type": "uint256"
						},
						{
							"internalType": "uint256",
							"name": "health",
							"type": "uint256"
						},
						{
							"internalType": "uint256",
							"name": "takenDamage",
							"type": "uint256"
						}
					],
					"internalType": "struct ComputedStats.Stats",
					"name": "",
					"type": "tuple"
				}
			],
			"stateMutability": "pure",
			"type": "function"
		},
		{
			"inputs": [
				{
					"components": [
						{
							"internalType": "uint256",
							"name": "strength",
							"type": "uint256"
						},
						{
							"internalType": "uint256",
							"name": "dexterity",
							"type": "uint256"
						},
						{
							"internalType": "uint256",
							"name": "constitution",
							"type": "uint256"
						},
						{
							"internalType": "uint256",
							"name": "luck",
							"type": "uint256"
						},
						{
							"internalType": "uint256",
							"name": "armor",
							"type": "uint256"
						},
						{
							"internalType": "uint256",
							"name": "attack",
							"type": "uint256"
						},
						{
							"internalType": "uint256",
							"name": "health",
							"type": "uint256"
						},
						{
							"internalType": "uint256",
							"name": "takenDamage",
							"type": "uint256"
						}
					],
					"internalType": "struct ComputedStats.Stats",
					"name": "stats",
					"type": "tuple"
				}
			],
			"name": "getHealth",
			"outputs": [
				{
					"internalType": "uint256",
					"name": "",
					"type": "uint256"
				}
			],
			"stateMutability": "pure",
			"type": "function"
		},
		{
			"inputs": [
				{
					"components": [
						{
							"internalType": "uint256",
							"name": "strength",
							"type": "uint256"
						},
						{
							"internalType": "uint256",
							"name": "dexterity",
							"type": "uint256"
						},
						{
							"internalType": "uint256",
							"name": "constitution",
							"type": "uint256"
						},
						{
							"internalType": "uint256",
							"name": "luck",
							"type": "uint256"
						},
						{
							"internalType": "uint256",
							"name": "armor",
							"type": "uint256"
						},
						{
							"internalType": "uint256",
							"name": "attack",
							"type": "uint256"
						},
						{
							"internalType": "uint256",
							"name": "health",
							"type": "uint256"
						},
						{
							"internalType": "uint256",
							"name": "takenDamage",
							"type": "uint256"
						}
					],
					"internalType": "struct ComputedStats.Stats",
					"name": "target",
					"type": "tuple"
				},
				{
					"components": [
						{
							"internalType": "uint256",
							"name": "strength",
							"type": "uint256"
						},
						{
							"internalType": "uint256",
							"name": "dexterity",
							"type": "uint256"
						},
						{
							"internalType": "uint256",
							"name": "constitution",
							"type": "uint256"
						},
						{
							"internalType": "uint256",
							"name": "luck",
							"type": "uint256"
						},
						{
							"internalType": "uint256",
							"name": "armor",
							"type": "uint256"
						},
						{
							"internalType": "uint256",
							"name": "attack",
							"type": "uint256"
						},
						{
							"internalType": "uint256",
							"name": "health",
							"type": "uint256"
						},
						{
							"internalType": "uint256",
							"name": "takenDamage",
							"type": "uint256"
						}
					],
					"internalType": "struct ComputedStats.Stats",
					"name": "attacker",
					"type": "tuple"
				}
			],
			"name": "hitChance",
			"outputs": [
				{
					"internalType": "uint256",
					"name": "",
					"type": "uint256"
				}
			],
			"stateMutability": "pure",
			"type": "function"
		},
		{
			"inputs": [
				{
					"components": [
						{
							"internalType": "uint256",
							"name": "strength",
							"type": "uint256"
						},
						{
							"internalType": "uint256",
							"name": "dexterity",
							"type": "uint256"
						},
						{
							"internalType": "uint256",
							"name": "constitution",
							"type": "uint256"
						},
						{
							"internalType": "uint256",
							"name": "luck",
							"type": "uint256"
						},
						{
							"internalType": "uint256",
							"name": "armor",
							"type": "uint256"
						},
						{
							"internalType": "uint256",
							"name": "attack",
							"type": "uint256"
						},
						{
							"internalType": "uint256",
							"name": "health",
							"type": "uint256"
						},
						{
							"internalType": "uint256",
							"name": "takenDamage",
							"type": "uint256"
						}
					],
					"internalType": "struct ComputedStats.Stats",
					"name": "stats",
					"type": "tuple"
				}
			],
			"name": "init",
			"outputs": [],
			"stateMutability": "pure",
			"type": "function"
		},
		{
			"inputs": [
				{
					"internalType": "uint256",
					"name": "strength",
					"type": "uint256"
				},
				{
					"internalType": "uint256",
					"name": "dexterity",
					"type": "uint256"
				},
				{
					"internalType": "uint256",
					"name": "constitution",
					"type": "uint256"
				},
				{
					"internalType": "uint256",
					"name": "luck",
					"type": "uint256"
				},
				{
					"internalType": "uint256",
					"name": "armor",
					"type": "uint256"
				}
			],
			"name": "newStats",
			"outputs": [
				{
					"components": [
						{
							"internalType": "uint256",
							"name": "strength",
							"type": "uint256"
						},
						{
							"internalType": "uint256",
							"name": "dexterity",
							"type": "uint256"
						},
						{
							"internalType": "uint256",
							"name": "constitution",
							"type": "uint256"
						},
						{
							"internalType": "uint256",
							"name": "luck",
							"type": "uint256"
						},
						{
							"internalType": "uint256",
							"name": "armor",
							"type": "uint256"
						},
						{
							"internalType": "uint256",
							"name": "attack",
							"type": "uint256"
						},
						{
							"internalType": "uint256",
							"name": "health",
							"type": "uint256"
						},
						{
							"internalType": "uint256",
							"name": "takenDamage",
							"type": "uint256"
						}
					],
					"internalType": "struct ComputedStats.Stats",
					"name": "stats",
					"type": "tuple"
				}
			],
			"stateMutability": "pure",
			"type": "function"
		},
		{
			"inputs": [],
			"name": "zeroStats",
			"outputs": [
				{
					"components": [
						{
							"internalType": "uint256",
							"name": "strength",
							"type": "uint256"
						},
						{
							"internalType": "uint256",
							"name": "dexterity",
							"type": "uint256"
						},
						{
							"internalType": "uint256",
							"name": "constitution",
							"type": "uint256"
						},
						{
							"internalType": "uint256",
							"name": "luck",
							"type": "uint256"
						},
						{
							"internalType": "uint256",
							"name": "armor",
							"type": "uint256"
						},
						{
							"internalType": "uint256",
							"name": "attack",
							"type": "uint256"
						},
						{
							"internalType": "uint256",
							"name": "health",
							"type": "uint256"
						},
						{
							"internalType": "uint256",
							"name": "takenDamage",
							"type": "uint256"
						}
					],
					"internalType": "struct ComputedStats.Stats",
					"name": "",
					"type": "tuple"
				}
			],
			"stateMutability": "pure",
			"type": "function"
		}
	]
}