{
	"data": {
		"bytecode": {
			"linkReferences": {
				"contracts/libraries/ComputedStats.sol": {
					"ComputedStats": [
						{
							"length": 20,
							"start": 2082
						},
						{
							"length": 20,
							"start": 2306
						},
						{
							"length": 20,
							"start": 2530
						},
						{
							"length": 20,
							"start": 2817
						},
						{
							"length": 20,
							"start": 3043
						},
						{
							"length": 20,
							"start": 3267
						},
						{
							"length": 20,
							"start": 3439
						},
						{
							"length": 20,
							"start": 3665
						},
						{
							"length": 20,
							"start": 3891
						},
						{
							"length": 20,
							"start": 4063
						},
						{
							"length": 20,
							"start": 4287
						},
						{
							"length": 20,
							"start": 4513
						},
						{
							"length": 20,
							"start": 4685
						},
						{
							"length": 20,
							"start": 4909
						},
						{
							"length": 20,
							"start": 5133
						},
						{
							"length": 20,
							"start": 5305
						},
						{
							"length": 20,
							"start": 5529
						},
						{
							"length": 20,
							"start": 5753
						}
					]
				},
				"contracts/libraries/Utils.sol": {
					"Utils": [
						{
							"length": 20,
							"start": 1316
						},
						{
							"length": 20,
							"start": 6037
						},
						{
							"length": 20,
							"start": 6256
						}
					]
				}
			},
			"object": "600080546001600160a01b0319908116909155600180548216815560028054831681556003805484168155600580549094168455610140604052608092835260a09190915260c052600460e0526101009190915260066101208190526200006991600891620000a3565b503480156200007757600080fd5b5060008054336001600160a01b031991821681179092556005805490911690911781556006556200010f565b828054828255906000526020600020908101928215620000e6579160200282015b82811115620000e6578251829060ff16905591602001919060010190620000c4565b50620000f4929150620000f8565b5090565b5b80821115620000f45760008155600101620000f9565b61209a806200011f6000396000f3fe608060405234801561001057600080fd5b50600436106101415760003560e01c8063603eefa5116100b857806399597b701161007c57806399597b70146102b8578063d3dd4f29146102cb578063d7050b05146102de578063d8327b2f146102f1578063e1d3881414610304578063fae2c19b1461031757600080fd5b8063603eefa51461025557806362a863531461026857806383499df61461027b57806385535cc51461028e578063859329a2146102a157600080fd5b80632f2ddf541161010a5780632f2ddf54146101bc578063320b00d8146101dc5780633ccfd60b146102075780633ee527211461020f578063411557d11461022257806349d6790a1461023557600080fd5b8062a8b1881461014657806305e118311461015b57806314e8cd991461016e5780631b915579146101965780631c9d9563146101a9575b600080fd5b610159610154366004611a4a565b61032b565b005b610159610169366004611add565b610380565b61018161017c366004611ce1565b610400565b60405190151581526020015b60405180910390f35b6101596101a4366004611a4a565b61055c565b6101596101b7366004611a4a565b6105a8565b6101cf6101ca366004611d0e565b610633565b60405161018d9190611d75565b6002546101ef906001600160a01b031681565b6040516001600160a01b03909116815260200161018d565b610159611595565b61015961021d366004611ddb565b6115fb565b6005546101ef906001600160a01b031681565b610248610243366004611e1b565b61174b565b60405161018d9190611e38565b6001546101ef906001600160a01b031681565b6007546101ef906001600160a01b031681565b610159610289366004611a4a565b61183b565b61015961029c366004611a4a565b611887565b6102aa60065481565b60405190815260200161018d565b6000546101ef906001600160a01b031681565b6004546101ef906001600160a01b031681565b6101596102ec366004611a4a565b6118d3565b6101596102ff366004611a4a565b61191f565b6003546101ef906001600160a01b031681565b6102aa610325366004611e1b565b50600090565b6000546001600160a01b0316331461035e5760405162461bcd60e51b815260040161035590611e7c565b60405180910390fd5b600380546001600160a01b0319166001600160a01b0392909216919091179055565b6000546001600160a01b03163314806103a357506001546001600160a01b031633145b806103b857506002546001600160a01b031633145b806103cd57506003546001600160a01b031633145b6103e95760405162461bcd60e51b815260040161035590611eb3565b80516103fc90600890602084019061196b565b5050565b60008073__$b4ae538d42a0e0bb8330684d08e51a40b4$__63c0d2e8e6856040518263ffffffff1660e01b815260040161043a9190611efb565b60206040518083038186803b15801561045257600080fd5b505af4158015610466573d6000803e3d6000fd5b505050506040513d601f19601f8201168201806040525081019061048a9190611f7f565b60075460405163fae2c19b60e01b815291925060009185916001600160a01b03169063fae2c19b906104c0908990600401611efb565b60206040518083038186803b1580156104d857600080fd5b505afa1580156104ec573d6000803e3d6000fd5b505050506040513d601f19601f820116820180604052508101906105109190611f7f565b11905060004360096000858152602001908152602001600020868154811061053a5761053a611f98565b90600052602060002001541090508180156105525750805b9695505050505050565b6000546001600160a01b031633146105865760405162461bcd60e51b815260040161035590611e7c565b600180546001600160a01b0319166001600160a01b0392909216919091179055565b6000546001600160a01b03163314806105cb57506001546001600160a01b031633145b806105e057506002546001600160a01b031633145b806105f557506003546001600160a01b031633145b6106115760405162461bcd60e51b815260040161035590611eb3565b600780546001600160a01b0319166001600160a01b0392909216919091179055565b606060065482111561067d5760405162461bcd60e51b8152602060048201526013602482015272092dcecc2d8d2c840d8caeccad840d2dcc8caf606b1b6044820152606401610355565b81610958576040805160038082526080820190925290816020015b6106a06119b6565b81526020019060019003908161069857905050604080516060810182526001808252602082018190528251631436de3f60e21b8152600481018290526024810182905260448101919091526000606482018190526084820152929350919082019073__$d18125c9528dfe4cb67fa81d29b24a1cca$__906350db78fc9060a4016101006040518083038186803b15801561073957600080fd5b505af415801561074d573d6000803e3d6000fd5b505050506040513d601f19601f820116820180604052508101906107719190611fae565b8152508160008151811061078757610787611f98565b602090810291909101810191909152604080516060810182526002815260019281018390528151631436de3f60e21b8152600481018490526024810184905260448101939093526000606484018190526084840152919082019073__$d18125c9528dfe4cb67fa81d29b24a1cca$__906350db78fc9060a4016101006040518083038186803b15801561081957600080fd5b505af415801561082d573d6000803e3d6000fd5b505050506040513d601f19601f820116820180604052508101906108519190611fae565b8152508160018151811061086757610867611f98565b602090810291909101810191909152604080516060810182526003815260019281018390528151631436de3f60e21b8152600481018490526024810184905260448101939093526000606484018190526084840152919082019073__$d18125c9528dfe4cb67fa81d29b24a1cca$__906350db78fc9060a4015b6101006040518083038186803b1580156108fa57600080fd5b505af415801561090e573d6000803e3d6000fd5b505050506040513d601f19601f820116820180604052508101906109329190611fae565b8152508160028151811061094857610948611f98565b6020026020010181905250919050565b8160011415610bc6576040805160038082526080820190925290816020015b61097f6119b6565b81526020019060019003908161097757905050604080516060810182526001808252602082018190528251631436de3f60e21b8152600260048201526024810182905260448101919091526000606482018190526084820152929350919082019073__$d18125c9528dfe4cb67fa81d29b24a1cca$__906350db78fc9060a4016101006040518083038186803b158015610a1857600080fd5b505af4158015610a2c573d6000803e3d6000fd5b505050506040513d601f19601f82011682018060405250810190610a509190611fae565b81525081600081518110610a6657610a66611f98565b60209081029190910181019190915260408051606081018252600280825260019382018490528251631436de3f60e21b815260048101919091526024810184905260448101939093526000606484018190526084840152919082019073__$d18125c9528dfe4cb67fa81d29b24a1cca$__906350db78fc9060a4016101006040518083038186803b158015610afa57600080fd5b505af4158015610b0e573d6000803e3d6000fd5b505050506040513d601f19601f82011682018060405250810190610b329190611fae565b81525081600181518110610b4857610b48611f98565b602090810291909101810191909152604080516060810182526003815260019281018390528151631436de3f60e21b8152600260048201526024810184905260448101939093526000606484018190526084840152919082019073__$d18125c9528dfe4cb67fa81d29b24a1cca$__906350db78fc9060a4016108e1565b8160021415610e36576040805160038082526080820190925290816020015b610bed6119b6565b815260200190600190039081610be557905050604080516060810182526001808252602082018190528251631436de3f60e21b8152600260048201526024810182905260036044820152600060648201526084810191909152929350919082019073__$d18125c9528dfe4cb67fa81d29b24a1cca$__906350db78fc9060a4016101006040518083038186803b158015610c8657600080fd5b505af4158015610c9a573d6000803e3d6000fd5b505050506040513d601f19601f82011682018060405250810190610cbe9190611fae565b81525081600081518110610cd457610cd4611f98565b60209081029190910181019190915260408051606081018252600280825260019382018490528251631436de3f60e21b815260048101919091526024810184905260036044820152600060648201526084810193909352919082019073__$d18125c9528dfe4cb67fa81d29b24a1cca$__906350db78fc9060a4016101006040518083038186803b158015610d6857600080fd5b505af4158015610d7c573d6000803e3d6000fd5b505050506040513d601f19601f82011682018060405250810190610da09190611fae565b81525081600181518110610db657610db6611f98565b60209081029190910181019190915260408051606081018252600380825260019382018490528251631436de3f60e21b815260026004820152602481018590526044810191909152600060648201526084810193909352919082019073__$d18125c9528dfe4cb67fa81d29b24a1cca$__906350db78fc9060a4016108e1565b81600314156110a4576040805160038082526080820190925290816020015b610e5d6119b6565b815260200190600190039081610e5557905050604080516060810182526001808252602082018190528251631436de3f60e21b8152600360048201526024810191909152600760448201526000606482018190526084820152929350919082019073__$d18125c9528dfe4cb67fa81d29b24a1cca$__906350db78fc9060a4016101006040518083038186803b158015610ef657600080fd5b505af4158015610f0a573d6000803e3d6000fd5b505050506040513d601f19601f82011682018060405250810190610f2e9190611fae565b81525081600081518110610f4457610f44611f98565b602090810291909101810191909152604080516060810182526002815260019281018390528151631436de3f60e21b8152600360048201526024810193909352600760448401526000606484018190526084840152919082019073__$d18125c9528dfe4cb67fa81d29b24a1cca$__906350db78fc9060a4016101006040518083038186803b158015610fd657600080fd5b505af4158015610fea573d6000803e3d6000fd5b505050506040513d601f19601f8201168201806040525081019061100e9190611fae565b8152508160018151811061102457611024611f98565b60209081029190910181019190915260408051606081018252600380825260019382018490528251631436de3f60e21b815260048101919091526024810193909352600760448401526000606484018190526084840152919082019073__$d18125c9528dfe4cb67fa81d29b24a1cca$__906350db78fc9060a4016108e1565b8160041415611310576040805160038082526080820190925290816020015b6110cb6119b6565b8152602001906001900390816110c357905050604080516060810182526001808252602082018190528251631436de3f60e21b8152600c60048201526024810182905260086044820152600060648201526084810191909152929350919082019073__$d18125c9528dfe4cb67fa81d29b24a1cca$__906350db78fc9060a4016101006040518083038186803b15801561116457600080fd5b505af4158015611178573d6000803e3d6000fd5b505050506040513d601f19601f8201168201806040525081019061119c9190611fae565b815250816000815181106111b2576111b2611f98565b602090810291909101810191909152604080516060810182526002815260019281018390528151631436de3f60e21b8152600c60048201526024810184905260086044820152600060648201526084810193909352919082019073__$d18125c9528dfe4cb67fa81d29b24a1cca$__906350db78fc9060a4016101006040518083038186803b15801561124457600080fd5b505af4158015611258573d6000803e3d6000fd5b505050506040513d601f19601f8201168201806040525081019061127c9190611fae565b8152508160018151811061129257611292611f98565b602090810291909101810191909152604080516060810182526003815260019281018390528151631436de3f60e21b8152600c60048201526024810184905260086044820152600060648201526084810193909352919082019073__$d18125c9528dfe4cb67fa81d29b24a1cca$__906350db78fc9060a4016108e1565b8160051415611590576040805160038082526080820190925290816020015b6113376119b6565b81526020019060019003908161132f57905050604080516060810182526001808252602082018190528251631436de3f60e21b8152600a60048201526024810191909152600f60448201526000606482015260086084820152929350919082019073__$d18125c9528dfe4cb67fa81d29b24a1cca$__906350db78fc9060a4016101006040518083038186803b1580156113d057600080fd5b505af41580156113e4573d6000803e3d6000fd5b505050506040513d601f19601f820116820180604052508101906114089190611fae565b8152508160008151811061141e5761141e611f98565b602090810291909101810191909152604080516060810182526002815260019281018390528151631436de3f60e21b8152600a60048201526024810193909352600f60448401526000606484015260086084840152919082019073__$d18125c9528dfe4cb67fa81d29b24a1cca$__906350db78fc9060a4016101006040518083038186803b1580156114b057600080fd5b505af41580156114c4573d6000803e3d6000fd5b505050506040513d601f19601f820116820180604052508101906114e89190611fae565b815250816001815181106114fe576114fe611f98565b602090810291909101810191909152604080516060810182526003815260019281018390528151631436de3f60e21b8152600a60048201526024810193909352600f60448401526000606484015260086084840152919082019073__$d18125c9528dfe4cb67fa81d29b24a1cca$__906350db78fc9060a4016101006040518083038186803b1580156108fa57600080fd5b919050565b6000546001600160a01b031633146115bf5760405162461bcd60e51b815260040161035590611e7c565b6005546040516001600160a01b03909116904780156108fc02916000818181858888f193505050501580156115f8573d6000803e3d6000fd5b50565b6000546001600160a01b031633148061161e57506001546001600160a01b031633145b8061163357506002546001600160a01b031633145b8061164857506003546001600160a01b031633145b6116645760405162461bcd60e51b815260040161035590611eb3565b604051636069747360e11b815260009073__$b4ae538d42a0e0bb8330684d08e51a40b4$__9063c0d2e8e69061169e908790600401611efb565b60206040518083038186803b1580156116b657600080fd5b505af41580156116ca573d6000803e3d6000fd5b505050506040513d601f19601f820116820180604052508101906116ee9190611f7f565b90506008838154811061170357611703611f98565b906000526020600020015443611719919061203e565b600082815260096020526040902080548590811061173957611739611f98565b60009182526020909120015550505050565b6060600073__$b4ae538d42a0e0bb8330684d08e51a40b4$__63c0d2e8e6846040518263ffffffff1660e01b81526004016117869190611efb565b60206040518083038186803b15801561179e57600080fd5b505af41580156117b2573d6000803e3d6000fd5b505050506040513d601f19601f820116820180604052508101906117d69190611f7f565b600081815260096020908152604091829020805483518184028101840190945280845293945091929083018282801561182e57602002820191906000526020600020905b81548152602001906001019080831161181a575b5050505050915050919050565b6000546001600160a01b031633146118655760405162461bcd60e51b815260040161035590611e7c565b600280546001600160a01b0319166001600160a01b0392909216919091179055565b6000546001600160a01b031633146118b15760405162461bcd60e51b815260040161035590611e7c565b600580546001600160a01b0319166001600160a01b0392909216919091179055565b6000546001600160a01b031633146118fd5760405162461bcd60e51b815260040161035590611e7c565b600480546001600160a01b0319166001600160a01b0392909216919091179055565b6000546001600160a01b031633146119495760405162461bcd60e51b815260040161035590611e7c565b600080546001600160a01b0319166001600160a01b0392909216919091179055565b8280548282559060005260206000209081019282156119a6579160200282015b828111156119a657825182559160200191906001019061198b565b506119b2929150611a1e565b5090565b604051806060016040528060008152602001600015158152602001611a1960405180610100016040528060008152602001600081526020016000815260200160008152602001600081526020016000815260200160008152602001600081525090565b905290565b5b808211156119b25760008155600101611a1f565b80356001600160a01b038116811461159057600080fd5b600060208284031215611a5c57600080fd5b611a6582611a33565b9392505050565b634e487b7160e01b600052604160045260246000fd5b604051610100810167ffffffffffffffff81118282101715611aa657611aa6611a6c565b60405290565b604051601f8201601f1916810167ffffffffffffffff81118282101715611ad557611ad5611a6c565b604052919050565b60006020808385031215611af057600080fd5b823567ffffffffffffffff80821115611b0857600080fd5b818501915085601f830112611b1c57600080fd5b813581811115611b2e57611b2e611a6c565b8060051b9150611b3f848301611aac565b8181529183018401918481019088841115611b5957600080fd5b938501935b83851015611b7757843582529385019390850190611b5e565b98975050505050505050565b8035801515811461159057600080fd5b600060608284031215611ba557600080fd5b6040516060810181811067ffffffffffffffff82111715611bc857611bc8611a6c565b80604052508091508235815260208301356020820152604083013560408201525092915050565b6000818303610220811215611c0357600080fd5b611c0b611a82565b9150611c1683611b83565b8252611c2460208401611a33565b602083015260408301356040830152606083013560608301526080830135608083015260a083013560a08301526101008060bf1983011215611c6557600080fd5b611c6d611a82565b915060c0840135825260e08401356020830152808401356040830152506101208301356060820152610140830135608082015261016083013560a082015261018083013560c08201526101a083013560e08201528060c083015250611cd6836101c08401611b93565b60e082015292915050565b6000806102408385031215611cf557600080fd5b611cff8484611bef565b94610220939093013593505050565b600060208284031215611d2057600080fd5b5035919050565b805182526020810151602083015260408101516040830152606081015160608301526080810151608083015260a081015160a083015260c081015160c083015260e081015160e08301525050565b602080825282518282018190526000919060409081850190868401855b82811015611dce5781518051855286810151151587860152850151611db986860182611d27565b50610140939093019290850190600101611d92565b5091979650505050505050565b60008060006102608486031215611df157600080fd5b611dfb8585611bef565b92506102208401359150611e126102408501611b83565b90509250925092565b60006102208284031215611e2e57600080fd5b611a658383611bef565b6020808252825182820181905260009190848201906040850190845b81811015611e7057835183529284019291840191600101611e54565b50909695505050505050565b60208082526018908201527f43616e2062652063616c6c6564206f6e6c7920627920474d0000000000000000604082015260600190565b60208082526028908201527f4f6e6c792067616d6520636f6e7472616374732063616e2063616c6c207468696040820152671cc81b595d1a1bd960c21b606082015260800190565b60006102208201905082511515825260018060a01b03602084015116602083015260408301516040830152606083015160608301526080830151608083015260a083015160a083015260c0830151611f5660c0840182611d27565b5060e0929092015180516101c083015260208101516101e0830152604001516102009091015290565b600060208284031215611f9157600080fd5b5051919050565b634e487b7160e01b600052603260045260246000fd5b6000610100808385031215611fc257600080fd5b6040519081019067ffffffffffffffff82118183101715611fe557611fe5611a6c565b81604052835181526020840151602082015260408401516040820152606084015160608201526080840151608082015260a084015160a082015260c084015160c082015260e084015160e0820152809250505092915050565b6000821982111561205f57634e487b7160e01b600052601160045260246000fd5b50019056fea264697066735822122061d9b46e8b67444d4603e3358f207db8228cc1107620099a4335b44d08fbcc1764736f6c63430008090033",
			"opcodes": "PUSH1 0x0 DUP1 SLOAD PUSH1 0x1 PUSH1 0x1 PUSH1 0xA0 SHL SUB NOT SWAP1 DUP2 AND SWAP1 SWAP2 SSTORE PUSH1 0x1 DUP1 SLOAD DUP3 AND DUP2 SSTORE PUSH1 0x2 DUP1 SLOAD DUP4 AND DUP2 SSTORE PUSH1 0x3 DUP1 SLOAD DUP5 AND DUP2 SSTORE PUSH1 0x5 DUP1 SLOAD SWAP1 SWAP5 AND DUP5 SSTORE PUSH2 0x140 PUSH1 0x40 MSTORE PUSH1 0x80 SWAP3 DUP4 MSTORE PUSH1 0xA0 SWAP2 SWAP1 SWAP2 MSTORE PUSH1 0xC0 MSTORE PUSH1 0x4 PUSH1 0xE0 MSTORE PUSH2 0x100 SWAP2 SWAP1 SWAP2 MSTORE PUSH1 0x6 PUSH2 0x120 DUP2 SWAP1 MSTORE PUSH3 0x69 SWAP2 PUSH1 0x8 SWAP2 PUSH3 0xA3 JUMP JUMPDEST POP CALLVALUE DUP1 ISZERO PUSH3 0x77 JUMPI PUSH1 0x0 DUP1 REVERT JUMPDEST POP PUSH1 0x0 DUP1 SLOAD CALLER PUSH1 0x1 PUSH1 0x1 PUSH1 0xA0 SHL SUB NOT SWAP2 DUP3 AND DUP2 OR SWAP1 SWAP3 SSTORE PUSH1 0x5 DUP1 SLOAD SWAP1 SWAP2 AND SWAP1 SWAP2 OR DUP2 SSTORE PUSH1 0x6 SSTORE PUSH3 0x10F JUMP JUMPDEST DUP3 DUP1 SLOAD DUP3 DUP3 SSTORE SWAP1 PUSH1 0x0 MSTORE PUSH1 0x20 PUSH1 0x0 KECCAK256 SWAP1 DUP2 ADD SWAP3 DUP3 ISZERO PUSH3 0xE6 JUMPI SWAP2 PUSH1 0x20 MUL DUP3 ADD JUMPDEST DUP3 DUP2 GT ISZERO PUSH3 0xE6 JUMPI DUP3 MLOAD DUP3 SWAP1 PUSH1 0xFF AND SWAP1 SSTORE SWAP2 PUSH1 0x20 ADD SWAP2 SWAP1 PUSH1 0x1 ADD SWAP1 PUSH3 0xC4 JUMP JUMPDEST POP PUSH3 0xF4 SWAP3 SWAP2 POP PUSH3 0xF8 JUMP JUMPDEST POP SWAP1 JUMP JUMPDEST JUMPDEST DUP1 DUP3 GT ISZERO PUSH3 0xF4 JUMPI PUSH1 0x0 DUP2 SSTORE PUSH1 0x1 ADD PUSH3 0xF9 JUMP JUMPDEST PUSH2 0x209A DUP1 PUSH3 0x11F PUSH1 0x0 CODECOPY PUSH1 0x0 RETURN INVALID PUSH1 0x80 PUSH1 0x40 MSTORE CALLVALUE DUP1 ISZERO PUSH2 0x10 JUMPI PUSH1 0x0 DUP1 REVERT JUMPDEST POP PUSH1 0x4 CALLDATASIZE LT PUSH2 0x141 JUMPI PUSH1 0x0 CALLDATALOAD PUSH1 0xE0 SHR DUP1 PUSH4 0x603EEFA5 GT PUSH2 0xB8 JUMPI DUP1 PUSH4 0x99597B70 GT PUSH2 0x7C JUMPI DUP1 PUSH4 0x99597B70 EQ PUSH2 0x2B8 JUMPI DUP1 PUSH4 0xD3DD4F29 EQ PUSH2 0x2CB JUMPI DUP1 PUSH4 0xD7050B05 EQ PUSH2 0x2DE JUMPI DUP1 PUSH4 0xD8327B2F EQ PUSH2 0x2F1 JUMPI DUP1 PUSH4 0xE1D38814 EQ PUSH2 0x304 JUMPI DUP1 PUSH4 0xFAE2C19B EQ PUSH2 0x317 JUMPI PUSH1 0x0 DUP1 REVERT JUMPDEST DUP1 PUSH4 0x603EEFA5 EQ PUSH2 0x255 JUMPI DUP1 PUSH4 0x62A86353 EQ PUSH2 0x268 JUMPI DUP1 PUSH4 0x83499DF6 EQ PUSH2 0x27B JUMPI DUP1 PUSH4 0x85535CC5 EQ PUSH2 0x28E JUMPI DUP1 PUSH4 0x859329A2 EQ PUSH2 0x2A1 JUMPI PUSH1 0x0 DUP1 REVERT JUMPDEST DUP1 PUSH4 0x2F2DDF54 GT PUSH2 0x10A JUMPI DUP1 PUSH4 0x2F2DDF54 EQ PUSH2 0x1BC JUMPI DUP1 PUSH4 0x320B00D8 EQ PUSH2 0x1DC JUMPI DUP1 PUSH4 0x3CCFD60B EQ PUSH2 0x207 JUMPI DUP1 PUSH4 0x3EE52721 EQ PUSH2 0x20F JUMPI DUP1 PUSH4 0x411557D1 EQ PUSH2 0x222 JUMPI DUP1 PUSH4 0x49D6790A EQ PUSH2 0x235 JUMPI PUSH1 0x0 DUP1 REVERT JUMPDEST DUP1 PUSH3 0xA8B188 EQ PUSH2 0x146 JUMPI DUP1 PUSH4 0x5E11831 EQ PUSH2 0x15B JUMPI DUP1 PUSH4 0x14E8CD99 EQ PUSH2 0x16E JUMPI DUP1 PUSH4 0x1B915579 EQ PUSH2 0x196 JUMPI DUP1 PUSH4 0x1C9D9563 EQ PUSH2 0x1A9 JUMPI JUMPDEST PUSH1 0x0 DUP1 REVERT JUMPDEST PUSH2 0x159 PUSH2 0x154 CALLDATASIZE PUSH1 0x4 PUSH2 0x1A4A JUMP JUMPDEST PUSH2 0x32B JUMP JUMPDEST STOP JUMPDEST PUSH2 0x159 PUSH2 0x169 CALLDATASIZE PUSH1 0x4 PUSH2 0x1ADD JUMP JUMPDEST PUSH2 0x380 JUMP JUMPDEST PUSH2 0x181 PUSH2 0x17C CALLDATASIZE PUSH1 0x4 PUSH2 0x1CE1 JUMP JUMPDEST PUSH2 0x400 JUMP JUMPDEST PUSH1 0x40 MLOAD SWAP1 ISZERO ISZERO DUP2 MSTORE PUSH1 0x20 ADD JUMPDEST PUSH1 0x40 MLOAD DUP1 SWAP2 SUB SWAP1 RETURN JUMPDEST PUSH2 0x159 PUSH2 0x1A4 CALLDATASIZE PUSH1 0x4 PUSH2 0x1A4A JUMP JUMPDEST PUSH2 0x55C JUMP JUMPDEST PUSH2 0x159 PUSH2 0x1B7 CALLDATASIZE PUSH1 0x4 PUSH2 0x1A4A JUMP JUMPDEST PUSH2 0x5A8 JUMP JUMPDEST PUSH2 0x1CF PUSH2 0x1CA CALLDATASIZE PUSH1 0x4 PUSH2 0x1D0E JUMP JUMPDEST PUSH2 0x633 JUMP JUMPDEST PUSH1 0x40 MLOAD PUSH2 0x18D SWAP2 SWAP1 PUSH2 0x1D75 JUMP JUMPDEST PUSH1 0x2 SLOAD PUSH2 0x1EF SWAP1 PUSH1 0x1 PUSH1 0x1 PUSH1 0xA0 SHL SUB AND DUP2 JUMP JUMPDEST PUSH1 0x40 MLOAD PUSH1 0x1 PUSH1 0x1 PUSH1 0xA0 SHL SUB SWAP1 SWAP2 AND DUP2 MSTORE PUSH1 0x20 ADD PUSH2 0x18D JUMP JUMPDEST PUSH2 0x159 PUSH2 0x1595 JUMP JUMPDEST PUSH2 0x159 PUSH2 0x21D CALLDATASIZE PUSH1 0x4 PUSH2 0x1DDB JUMP JUMPDEST PUSH2 0x15FB JUMP JUMPDEST PUSH1 0x5 SLOAD PUSH2 0x1EF SWAP1 PUSH1 0x1 PUSH1 0x1 PUSH1 0xA0 SHL SUB AND DUP2 JUMP JUMPDEST PUSH2 0x248 PUSH2 0x243 CALLDATASIZE PUSH1 0x4 PUSH2 0x1E1B JUMP JUMPDEST PUSH2 0x174B JUMP JUMPDEST PUSH1 0x40 MLOAD PUSH2 0x18D SWAP2 SWAP1 PUSH2 0x1E38 JUMP JUMPDEST PUSH1 0x1 SLOAD PUSH2 0x1EF SWAP1 PUSH1 0x1 PUSH1 0x1 PUSH1 0xA0 SHL SUB AND DUP2 JUMP JUMPDEST PUSH1 0x7 SLOAD PUSH2 0x1EF SWAP1 PUSH1 0x1 PUSH1 0x1 PUSH1 0xA0 SHL SUB AND DUP2 JUMP JUMPDEST PUSH2 0x159 PUSH2 0x289 CALLDATASIZE PUSH1 0x4 PUSH2 0x1A4A JUMP JUMPDEST PUSH2 0x183B JUMP JUMPDEST PUSH2 0x159 PUSH2 0x29C CALLDATASIZE PUSH1 0x4 PUSH2 0x1A4A JUMP JUMPDEST PUSH2 0x1887 JUMP JUMPDEST PUSH2 0x2AA PUSH1 0x6 SLOAD DUP2 JUMP JUMPDEST PUSH1 0x40 MLOAD SWAP1 DUP2 MSTORE PUSH1 0x20 ADD PUSH2 0x18D JUMP JUMPDEST PUSH1 0x0 SLOAD PUSH2 0x1EF SWAP1 PUSH1 0x1 PUSH1 0x1 PUSH1 0xA0 SHL SUB AND DUP2 JUMP JUMPDEST PUSH1 0x4 SLOAD PUSH2 0x1EF SWAP1 PUSH1 0x1 PUSH1 0x1 PUSH1 0xA0 SHL SUB AND DUP2 JUMP JUMPDEST PUSH2 0x159 PUSH2 0x2EC CALLDATASIZE PUSH1 0x4 PUSH2 0x1A4A JUMP JUMPDEST PUSH2 0x18D3 JUMP JUMPDEST PUSH2 0x159 PUSH2 0x2FF CALLDATASIZE PUSH1 0x4 PUSH2 0x1A4A JUMP JUMPDEST PUSH2 0x191F JUMP JUMPDEST PUSH1 0x3 SLOAD PUSH2 0x1EF SWAP1 PUSH1 0x1 PUSH1 0x1 PUSH1 0xA0 SHL SUB AND DUP2 JUMP JUMPDEST PUSH2 0x2AA PUSH2 0x325 CALLDATASIZE PUSH1 0x4 PUSH2 0x1E1B JUMP JUMPDEST POP PUSH1 0x0 SWAP1 JUMP JUMPDEST PUSH1 0x0 SLOAD PUSH1 0x1 PUSH1 0x1 PUSH1 0xA0 SHL SUB AND CALLER EQ PUSH2 0x35E JUMPI PUSH1 0x40 MLOAD PUSH3 0x461BCD PUSH1 0xE5 SHL DUP2 MSTORE PUSH1 0x4 ADD PUSH2 0x355 SWAP1 PUSH2 0x1E7C JUMP JUMPDEST PUSH1 0x40 MLOAD DUP1 SWAP2 SUB SWAP1 REVERT JUMPDEST PUSH1 0x3 DUP1 SLOAD PUSH1 0x1 PUSH1 0x1 PUSH1 0xA0 SHL SUB NOT AND PUSH1 0x1 PUSH1 0x1 PUSH1 0xA0 SHL SUB SWAP3 SWAP1 SWAP3 AND SWAP2 SWAP1 SWAP2 OR SWAP1 SSTORE JUMP JUMPDEST PUSH1 0x0 SLOAD PUSH1 0x1 PUSH1 0x1 PUSH1 0xA0 SHL SUB AND CALLER EQ DUP1 PUSH2 0x3A3 JUMPI POP PUSH1 0x1 SLOAD PUSH1 0x1 PUSH1 0x1 PUSH1 0xA0 SHL SUB AND CALLER EQ JUMPDEST DUP1 PUSH2 0x3B8 JUMPI POP PUSH1 0x2 SLOAD PUSH1 0x1 PUSH1 0x1 PUSH1 0xA0 SHL SUB AND CALLER EQ JUMPDEST DUP1 PUSH2 0x3CD JUMPI POP PUSH1 0x3 SLOAD PUSH1 0x1 PUSH1 0x1 PUSH1 0xA0 SHL SUB AND CALLER EQ JUMPDEST PUSH2 0x3E9 JUMPI PUSH1 0x40 MLOAD PUSH3 0x461BCD PUSH1 0xE5 SHL DUP2 MSTORE PUSH1 0x4 ADD PUSH2 0x355 SWAP1 PUSH2 0x1EB3 JUMP JUMPDEST DUP1 MLOAD PUSH2 0x3FC SWAP1 PUSH1 0x8 SWAP1 PUSH1 0x20 DUP5 ADD SWAP1 PUSH2 0x196B JUMP JUMPDEST POP POP JUMP JUMPDEST PUSH1 0x0 DUP1 PUSH20 0x0 PUSH4 0xC0D2E8E6 DUP6 PUSH1 0x40 MLOAD DUP3 PUSH4 0xFFFFFFFF AND PUSH1 0xE0 SHL DUP2 MSTORE PUSH1 0x4 ADD PUSH2 0x43A SWAP2 SWAP1 PUSH2 0x1EFB JUMP JUMPDEST PUSH1 0x20 PUSH1 0x40 MLOAD DUP1 DUP4 SUB DUP2 DUP7 DUP1 EXTCODESIZE ISZERO DUP1 ISZERO PUSH2 0x452 JUMPI PUSH1 0x0 DUP1 REVERT JUMPDEST POP GAS DELEGATECALL ISZERO DUP1 ISZERO PUSH2 0x466 JUMPI RETURNDATASIZE PUSH1 0x0 DUP1 RETURNDATACOPY RETURNDATASIZE PUSH1 0x0 REVERT JUMPDEST POP POP POP POP PUSH1 0x40 MLOAD RETURNDATASIZE PUSH1 0x1F NOT PUSH1 0x1F DUP3 ADD AND DUP3 ADD DUP1 PUSH1 0x40 MSTORE POP DUP2 ADD SWAP1 PUSH2 0x48A SWAP2 SWAP1 PUSH2 0x1F7F JUMP JUMPDEST PUSH1 0x7 SLOAD PUSH1 0x40 MLOAD PUSH4 0xFAE2C19B PUSH1 0xE0 SHL DUP2 MSTORE SWAP2 SWAP3 POP PUSH1 0x0 SWAP2 DUP6 SWAP2 PUSH1 0x1 PUSH1 0x1 PUSH1 0xA0 SHL SUB AND SWAP1 PUSH4 0xFAE2C19B SWAP1 PUSH2 0x4C0 SWAP1 DUP10 SWAP1 PUSH1 0x4 ADD PUSH2 0x1EFB JUMP JUMPDEST PUSH1 0x20 PUSH1 0x40 MLOAD DUP1 DUP4 SUB DUP2 DUP7 DUP1 EXTCODESIZE ISZERO DUP1 ISZERO PUSH2 0x4D8 JUMPI PUSH1 0x0 DUP1 REVERT JUMPDEST POP GAS STATICCALL ISZERO DUP1 ISZERO PUSH2 0x4EC JUMPI RETURNDATASIZE PUSH1 0x0 DUP1 RETURNDATACOPY RETURNDATASIZE PUSH1 0x0 REVERT JUMPDEST POP POP POP POP PUSH1 0x40 MLOAD RETURNDATASIZE PUSH1 0x1F NOT PUSH1 0x1F DUP3 ADD AND DUP3 ADD DUP1 PUSH1 0x40 MSTORE POP DUP2 ADD SWAP1 PUSH2 0x510 SWAP2 SWAP1 PUSH2 0x1F7F JUMP JUMPDEST GT SWAP1 POP PUSH1 0x0 NUMBER PUSH1 0x9 PUSH1 0x0 DUP6 DUP2 MSTORE PUSH1 0x20 ADD SWAP1 DUP2 MSTORE PUSH1 0x20 ADD PUSH1 0x0 KECCAK256 DUP7 DUP2 SLOAD DUP2 LT PUSH2 0x53A JUMPI PUSH2 0x53A PUSH2 0x1F98 JUMP JUMPDEST SWAP1 PUSH1 0x0 MSTORE PUSH1 0x20 PUSH1 0x0 KECCAK256 ADD SLOAD LT SWAP1 POP DUP2 DUP1 ISZERO PUSH2 0x552 JUMPI POP DUP1 JUMPDEST SWAP7 SWAP6 POP POP POP POP POP POP JUMP JUMPDEST PUSH1 0x0 SLOAD PUSH1 0x1 PUSH1 0x1 PUSH1 0xA0 SHL SUB AND CALLER EQ PUSH2 0x586 JUMPI PUSH1 0x40 MLOAD PUSH3 0x461BCD PUSH1 0xE5 SHL DUP2 MSTORE PUSH1 0x4 ADD PUSH2 0x355 SWAP1 PUSH2 0x1E7C JUMP JUMPDEST PUSH1 0x1 DUP1 SLOAD PUSH1 0x1 PUSH1 0x1 PUSH1 0xA0 SHL SUB NOT AND PUSH1 0x1 PUSH1 0x1 PUSH1 0xA0 SHL SUB SWAP3 SWAP1 SWAP3 AND SWAP2 SWAP1 SWAP2 OR SWAP1 SSTORE JUMP JUMPDEST PUSH1 0x0 SLOAD PUSH1 0x1 PUSH1 0x1 PUSH1 0xA0 SHL SUB AND CALLER EQ DUP1 PUSH2 0x5CB JUMPI POP PUSH1 0x1 SLOAD PUSH1 0x1 PUSH1 0x1 PUSH1 0xA0 SHL SUB AND CALLER EQ JUMPDEST DUP1 PUSH2 0x5E0 JUMPI POP PUSH1 0x2 SLOAD PUSH1 0x1 PUSH1 0x1 PUSH1 0xA0 SHL SUB AND CALLER EQ JUMPDEST DUP1 PUSH2 0x5F5 JUMPI POP PUSH1 0x3 SLOAD PUSH1 0x1 PUSH1 0x1 PUSH1 0xA0 SHL SUB AND CALLER EQ JUMPDEST PUSH2 0x611 JUMPI PUSH1 0x40 MLOAD PUSH3 0x461BCD PUSH1 0xE5 SHL DUP2 MSTORE PUSH1 0x4 ADD PUSH2 0x355 SWAP1 PUSH2 0x1EB3 JUMP JUMPDEST PUSH1 0x7 DUP1 SLOAD PUSH1 0x1 PUSH1 0x1 PUSH1 0xA0 SHL SUB NOT AND PUSH1 0x1 PUSH1 0x1 PUSH1 0xA0 SHL SUB SWAP3 SWAP1 SWAP3 AND SWAP2 SWAP1 SWAP2 OR SWAP1 SSTORE JUMP JUMPDEST PUSH1 0x60 PUSH1 0x6 SLOAD DUP3 GT ISZERO PUSH2 0x67D JUMPI PUSH1 0x40 MLOAD PUSH3 0x461BCD PUSH1 0xE5 SHL DUP2 MSTORE PUSH1 0x20 PUSH1 0x4 DUP3 ADD MSTORE PUSH1 0x13 PUSH1 0x24 DUP3 ADD MSTORE PUSH19 0x92DCECC2D8D2C840D8CAECCAD840D2DCC8CAF PUSH1 0x6B SHL PUSH1 0x44 DUP3 ADD MSTORE PUSH1 0x64 ADD PUSH2 0x355 JUMP JUMPDEST DUP2 PUSH2 0x958 JUMPI PUSH1 0x40 DUP1 MLOAD PUSH1 0x3 DUP1 DUP3 MSTORE PUSH1 0x80 DUP3 ADD SWAP1 SWAP3 MSTORE SWAP1 DUP2 PUSH1 0x20 ADD JUMPDEST PUSH2 0x6A0 PUSH2 0x19B6 JUMP JUMPDEST DUP2 MSTORE PUSH1 0x20 ADD SWAP1 PUSH1 0x1 SWAP1 SUB SWAP1 DUP2 PUSH2 0x698 JUMPI SWAP1 POP POP PUSH1 0x40 DUP1 MLOAD PUSH1 0x60 DUP2 ADD DUP3 MSTORE PUSH1 0x1 DUP1 DUP3 MSTORE PUSH1 0x20 DUP3 ADD DUP2 SWAP1 MSTORE DUP3 MLOAD PUSH4 0x1436DE3F PUSH1 0xE2 SHL DUP2 MSTORE PUSH1 0x4 DUP2 ADD DUP3 SWAP1 MSTORE PUSH1 0x24 DUP2 ADD DUP3 SWAP1 MSTORE PUSH1 0x44 DUP2 ADD SWAP2 SWAP1 SWAP2 MSTORE PUSH1 0x0 PUSH1 0x64 DUP3 ADD DUP2 SWAP1 MSTORE PUSH1 0x84 DUP3 ADD MSTORE SWAP3 SWAP4 POP SWAP2 SWAP1 DUP3 ADD SWAP1 PUSH20 0x0 SWAP1 PUSH4 0x50DB78FC SWAP1 PUSH1 0xA4 ADD PUSH2 0x100 PUSH1 0x40 MLOAD DUP1 DUP4 SUB DUP2 DUP7 DUP1 EXTCODESIZE ISZERO DUP1 ISZERO PUSH2 0x739 JUMPI PUSH1 0x0 DUP1 REVERT JUMPDEST POP GAS DELEGATECALL ISZERO DUP1 ISZERO PUSH2 0x74D JUMPI RETURNDATASIZE PUSH1 0x0 DUP1 RETURNDATACOPY RETURNDATASIZE PUSH1 0x0 REVERT JUMPDEST POP POP POP POP PUSH1 0x40 MLOAD RETURNDATASIZE PUSH1 0x1F NOT PUSH1 0x1F DUP3 ADD AND DUP3 ADD DUP1 PUSH1 0x40 MSTORE POP DUP2 ADD SWAP1 PUSH2 0x771 SWAP2 SWAP1 PUSH2 0x1FAE JUMP JUMPDEST DUP2 MSTORE POP DUP2 PUSH1 0x0 DUP2 MLOAD DUP2 LT PUSH2 0x787 JUMPI PUSH2 0x787 PUSH2 0x1F98 JUMP JUMPDEST PUSH1 0x20 SWAP1 DUP2 MUL SWAP2 SWAP1 SWAP2 ADD DUP2 ADD SWAP2 SWAP1 SWAP2 MSTORE PUSH1 0x40 DUP1 MLOAD PUSH1 0x60 DUP2 ADD DUP3 MSTORE PUSH1 0x2 DUP2 MSTORE PUSH1 0x1 SWAP3 DUP2 ADD DUP4 SWAP1 MSTORE DUP2 MLOAD PUSH4 0x1436DE3F PUSH1 0xE2 SHL DUP2 MSTORE PUSH1 0x4 DUP2 ADD DUP5 SWAP1 MSTORE PUSH1 0x24 DUP2 ADD DUP5 SWAP1 MSTORE PUSH1 0x44 DUP2 ADD SWAP4 SWAP1 SWAP4 MSTORE PUSH1 0x0 PUSH1 0x64 DUP5 ADD DUP2 SWAP1 MSTORE PUSH1 0x84 DUP5 ADD MSTORE SWAP2 SWAP1 DUP3 ADD SWAP1 PUSH20 0x0 SWAP1 PUSH4 0x50DB78FC SWAP1 PUSH1 0xA4 ADD PUSH2 0x100 PUSH1 0x40 MLOAD DUP1 DUP4 SUB DUP2 DUP7 DUP1 EXTCODESIZE ISZERO DUP1 ISZERO PUSH2 0x819 JUMPI PUSH1 0x0 DUP1 REVERT JUMPDEST POP GAS DELEGATECALL ISZERO DUP1 ISZERO PUSH2 0x82D JUMPI RETURNDATASIZE PUSH1 0x0 DUP1 RETURNDATACOPY RETURNDATASIZE PUSH1 0x0 REVERT JUMPDEST POP POP POP POP PUSH1 0x40 MLOAD RETURNDATASIZE PUSH1 0x1F NOT PUSH1 0x1F DUP3 ADD AND DUP3 ADD DUP1 PUSH1 0x40 MSTORE POP DUP2 ADD SWAP1 PUSH2 0x851 SWAP2 SWAP1 PUSH2 0x1FAE JUMP JUMPDEST DUP2 MSTORE POP DUP2 PUSH1 0x1 DUP2 MLOAD DUP2 LT PUSH2 0x867 JUMPI PUSH2 0x867 PUSH2 0x1F98 JUMP JUMPDEST PUSH1 0x20 SWAP1 DUP2 MUL SWAP2 SWAP1 SWAP2 ADD DUP2 ADD SWAP2 SWAP1 SWAP2 MSTORE PUSH1 0x40 DUP1 MLOAD PUSH1 0x60 DUP2 ADD DUP3 MSTORE PUSH1 0x3 DUP2 MSTORE PUSH1 0x1 SWAP3 DUP2 ADD DUP4 SWAP1 MSTORE DUP2 MLOAD PUSH4 0x1436DE3F PUSH1 0xE2 SHL DUP2 MSTORE PUSH1 0x4 DUP2 ADD DUP5 SWAP1 MSTORE PUSH1 0x24 DUP2 ADD DUP5 SWAP1 MSTORE PUSH1 0x44 DUP2 ADD SWAP4 SWAP1 SWAP4 MSTORE PUSH1 0x0 PUSH1 0x64 DUP5 ADD DUP2 SWAP1 MSTORE PUSH1 0x84 DUP5 ADD MSTORE SWAP2 SWAP1 DUP3 ADD SWAP1 PUSH20 0x0 SWAP1 PUSH4 0x50DB78FC SWAP1 PUSH1 0xA4 ADD JUMPDEST PUSH2 0x100 PUSH1 0x40 MLOAD DUP1 DUP4 SUB DUP2 DUP7 DUP1 EXTCODESIZE ISZERO DUP1 ISZERO PUSH2 0x8FA JUMPI PUSH1 0x0 DUP1 REVERT JUMPDEST POP GAS DELEGATECALL ISZERO DUP1 ISZERO PUSH2 0x90E JUMPI RETURNDATASIZE PUSH1 0x0 DUP1 RETURNDATACOPY RETURNDATASIZE PUSH1 0x0 REVERT JUMPDEST POP POP POP POP PUSH1 0x40 MLOAD RETURNDATASIZE PUSH1 0x1F NOT PUSH1 0x1F DUP3 ADD AND DUP3 ADD DUP1 PUSH1 0x40 MSTORE POP DUP2 ADD SWAP1 PUSH2 0x932 SWAP2 SWAP1 PUSH2 0x1FAE JUMP JUMPDEST DUP2 MSTORE POP DUP2 PUSH1 0x2 DUP2 MLOAD DUP2 LT PUSH2 0x948 JUMPI PUSH2 0x948 PUSH2 0x1F98 JUMP JUMPDEST PUSH1 0x20 MUL PUSH1 0x20 ADD ADD DUP2 SWAP1 MSTORE POP SWAP2 SWAP1 POP JUMP JUMPDEST DUP2 PUSH1 0x1 EQ ISZERO PUSH2 0xBC6 JUMPI PUSH1 0x40 DUP1 MLOAD PUSH1 0x3 DUP1 DUP3 MSTORE PUSH1 0x80 DUP3 ADD SWAP1 SWAP3 MSTORE SWAP1 DUP2 PUSH1 0x20 ADD JUMPDEST PUSH2 0x97F PUSH2 0x19B6 JUMP JUMPDEST DUP2 MSTORE PUSH1 0x20 ADD SWAP1 PUSH1 0x1 SWAP1 SUB SWAP1 DUP2 PUSH2 0x977 JUMPI SWAP1 POP POP PUSH1 0x40 DUP1 MLOAD PUSH1 0x60 DUP2 ADD DUP3 MSTORE PUSH1 0x1 DUP1 DUP3 MSTORE PUSH1 0x20 DUP3 ADD DUP2 SWAP1 MSTORE DUP3 MLOAD PUSH4 0x1436DE3F PUSH1 0xE2 SHL DUP2 MSTORE PUSH1 0x2 PUSH1 0x4 DUP3 ADD MSTORE PUSH1 0x24 DUP2 ADD DUP3 SWAP1 MSTORE PUSH1 0x44 DUP2 ADD SWAP2 SWAP1 SWAP2 MSTORE PUSH1 0x0 PUSH1 0x64 DUP3 ADD DUP2 SWAP1 MSTORE PUSH1 0x84 DUP3 ADD MSTORE SWAP3 SWAP4 POP SWAP2 SWAP1 DUP3 ADD SWAP1 PUSH20 0x0 SWAP1 PUSH4 0x50DB78FC SWAP1 PUSH1 0xA4 ADD PUSH2 0x100 PUSH1 0x40 MLOAD DUP1 DUP4 SUB DUP2 DUP7 DUP1 EXTCODESIZE ISZERO DUP1 ISZERO PUSH2 0xA18 JUMPI PUSH1 0x0 DUP1 REVERT JUMPDEST POP GAS DELEGATECALL ISZERO DUP1 ISZERO PUSH2 0xA2C JUMPI RETURNDATASIZE PUSH1 0x0 DUP1 RETURNDATACOPY RETURNDATASIZE PUSH1 0x0 REVERT JUMPDEST POP POP POP POP PUSH1 0x40 MLOAD RETURNDATASIZE PUSH1 0x1F NOT PUSH1 0x1F DUP3 ADD AND DUP3 ADD DUP1 PUSH1 0x40 MSTORE POP DUP2 ADD SWAP1 PUSH2 0xA50 SWAP2 SWAP1 PUSH2 0x1FAE JUMP JUMPDEST DUP2 MSTORE POP DUP2 PUSH1 0x0 DUP2 MLOAD DUP2 LT PUSH2 0xA66 JUMPI PUSH2 0xA66 PUSH2 0x1F98 JUMP JUMPDEST PUSH1 0x20 SWAP1 DUP2 MUL SWAP2 SWAP1 SWAP2 ADD DUP2 ADD SWAP2 SWAP1 SWAP2 MSTORE PUSH1 0x40 DUP1 MLOAD PUSH1 0x60 DUP2 ADD DUP3 MSTORE PUSH1 0x2 DUP1 DUP3 MSTORE PUSH1 0x1 SWAP4 DUP3 ADD DUP5 SWAP1 MSTORE DUP3 MLOAD PUSH4 0x1436DE3F PUSH1 0xE2 SHL DUP2 MSTORE PUSH1 0x4 DUP2 ADD SWAP2 SWAP1 SWAP2 MSTORE PUSH1 0x24 DUP2 ADD DUP5 SWAP1 MSTORE PUSH1 0x44 DUP2 ADD SWAP4 SWAP1 SWAP4 MSTORE PUSH1 0x0 PUSH1 0x64 DUP5 ADD DUP2 SWAP1 MSTORE PUSH1 0x84 DUP5 ADD MSTORE SWAP2 SWAP1 DUP3 ADD SWAP1 PUSH20 0x0 SWAP1 PUSH4 0x50DB78FC SWAP1 PUSH1 0xA4 ADD PUSH2 0x100 PUSH1 0x40 MLOAD DUP1 DUP4 SUB DUP2 DUP7 DUP1 EXTCODESIZE ISZERO DUP1 ISZERO PUSH2 0xAFA JUMPI PUSH1 0x0 DUP1 REVERT JUMPDEST POP GAS DELEGATECALL ISZERO DUP1 ISZERO PUSH2 0xB0E JUMPI RETURNDATASIZE PUSH1 0x0 DUP1 RETURNDATACOPY RETURNDATASIZE PUSH1 0x0 REVERT JUMPDEST POP POP POP POP PUSH1 0x40 MLOAD RETURNDATASIZE PUSH1 0x1F NOT PUSH1 0x1F DUP3 ADD AND DUP3 ADD DUP1 PUSH1 0x40 MSTORE POP DUP2 ADD SWAP1 PUSH2 0xB32 SWAP2 SWAP1 PUSH2 0x1FAE JUMP JUMPDEST DUP2 MSTORE POP DUP2 PUSH1 0x1 DUP2 MLOAD DUP2 LT PUSH2 0xB48 JUMPI PUSH2 0xB48 PUSH2 0x1F98 JUMP JUMPDEST PUSH1 0x20 SWAP1 DUP2 MUL SWAP2 SWAP1 SWAP2 ADD DUP2 ADD SWAP2 SWAP1 SWAP2 MSTORE PUSH1 0x40 DUP1 MLOAD PUSH1 0x60 DUP2 ADD DUP3 MSTORE PUSH1 0x3 DUP2 MSTORE PUSH1 0x1 SWAP3 DUP2 ADD DUP4 SWAP1 MSTORE DUP2 MLOAD PUSH4 0x1436DE3F PUSH1 0xE2 SHL DUP2 MSTORE PUSH1 0x2 PUSH1 0x4 DUP3 ADD MSTORE PUSH1 0x24 DUP2 ADD DUP5 SWAP1 MSTORE PUSH1 0x44 DUP2 ADD SWAP4 SWAP1 SWAP4 MSTORE PUSH1 0x0 PUSH1 0x64 DUP5 ADD DUP2 SWAP1 MSTORE PUSH1 0x84 DUP5 ADD MSTORE SWAP2 SWAP1 DUP3 ADD SWAP1 PUSH20 0x0 SWAP1 PUSH4 0x50DB78FC SWAP1 PUSH1 0xA4 ADD PUSH2 0x8E1 JUMP JUMPDEST DUP2 PUSH1 0x2 EQ ISZERO PUSH2 0xE36 JUMPI PUSH1 0x40 DUP1 MLOAD PUSH1 0x3 DUP1 DUP3 MSTORE PUSH1 0x80 DUP3 ADD SWAP1 SWAP3 MSTORE SWAP1 DUP2 PUSH1 0x20 ADD JUMPDEST PUSH2 0xBED PUSH2 0x19B6 JUMP JUMPDEST DUP2 MSTORE PUSH1 0x20 ADD SWAP1 PUSH1 0x1 SWAP1 SUB SWAP1 DUP2 PUSH2 0xBE5 JUMPI SWAP1 POP POP PUSH1 0x40 DUP1 MLOAD PUSH1 0x60 DUP2 ADD DUP3 MSTORE PUSH1 0x1 DUP1 DUP3 MSTORE PUSH1 0x20 DUP3 ADD DUP2 SWAP1 MSTORE DUP3 MLOAD PUSH4 0x1436DE3F PUSH1 0xE2 SHL DUP2 MSTORE PUSH1 0x2 PUSH1 0x4 DUP3 ADD MSTORE PUSH1 0x24 DUP2 ADD DUP3 SWAP1 MSTORE PUSH1 0x3 PUSH1 0x44 DUP3 ADD MSTORE PUSH1 0x0 PUSH1 0x64 DUP3 ADD MSTORE PUSH1 0x84 DUP2 ADD SWAP2 SWAP1 SWAP2 MSTORE SWAP3 SWAP4 POP SWAP2 SWAP1 DUP3 ADD SWAP1 PUSH20 0x0 SWAP1 PUSH4 0x50DB78FC SWAP1 PUSH1 0xA4 ADD PUSH2 0x100 PUSH1 0x40 MLOAD DUP1 DUP4 SUB DUP2 DUP7 DUP1 EXTCODESIZE ISZERO DUP1 ISZERO PUSH2 0xC86 JUMPI PUSH1 0x0 DUP1 REVERT JUMPDEST POP GAS DELEGATECALL ISZERO DUP1 ISZERO PUSH2 0xC9A JUMPI RETURNDATASIZE PUSH1 0x0 DUP1 RETURNDATACOPY RETURNDATASIZE PUSH1 0x0 REVERT JUMPDEST POP POP POP POP PUSH1 0x40 MLOAD RETURNDATASIZE PUSH1 0x1F NOT PUSH1 0x1F DUP3 ADD AND DUP3 ADD DUP1 PUSH1 0x40 MSTORE POP DUP2 ADD SWAP1 PUSH2 0xCBE SWAP2 SWAP1 PUSH2 0x1FAE JUMP JUMPDEST DUP2 MSTORE POP DUP2 PUSH1 0x0 DUP2 MLOAD DUP2 LT PUSH2 0xCD4 JUMPI PUSH2 0xCD4 PUSH2 0x1F98 JUMP JUMPDEST PUSH1 0x20 SWAP1 DUP2 MUL SWAP2 SWAP1 SWAP2 ADD DUP2 ADD SWAP2 SWAP1 SWAP2 MSTORE PUSH1 0x40 DUP1 MLOAD PUSH1 0x60 DUP2 ADD DUP3 MSTORE PUSH1 0x2 DUP1 DUP3 MSTORE PUSH1 0x1 SWAP4 DUP3 ADD DUP5 SWAP1 MSTORE DUP3 MLOAD PUSH4 0x1436DE3F PUSH1 0xE2 SHL DUP2 MSTORE PUSH1 0x4 DUP2 ADD SWAP2 SWAP1 SWAP2 MSTORE PUSH1 0x24 DUP2 ADD DUP5 SWAP1 MSTORE PUSH1 0x3 PUSH1 0x44 DUP3 ADD MSTORE PUSH1 0x0 PUSH1 0x64 DUP3 ADD MSTORE PUSH1 0x84 DUP2 ADD SWAP4 SWAP1 SWAP4 MSTORE SWAP2 SWAP1 DUP3 ADD SWAP1 PUSH20 0x0 SWAP1 PUSH4 0x50DB78FC SWAP1 PUSH1 0xA4 ADD PUSH2 0x100 PUSH1 0x40 MLOAD DUP1 DUP4 SUB DUP2 DUP7 DUP1 EXTCODESIZE ISZERO DUP1 ISZERO PUSH2 0xD68 JUMPI PUSH1 0x0 DUP1 REVERT JUMPDEST POP GAS DELEGATECALL ISZERO DUP1 ISZERO PUSH2 0xD7C JUMPI RETURNDATASIZE PUSH1 0x0 DUP1 RETURNDATACOPY RETURNDATASIZE PUSH1 0x0 REVERT JUMPDEST POP POP POP POP PUSH1 0x40 MLOAD RETURNDATASIZE PUSH1 0x1F NOT PUSH1 0x1F DUP3 ADD AND DUP3 ADD DUP1 PUSH1 0x40 MSTORE POP DUP2 ADD SWAP1 PUSH2 0xDA0 SWAP2 SWAP1 PUSH2 0x1FAE JUMP JUMPDEST DUP2 MSTORE POP DUP2 PUSH1 0x1 DUP2 MLOAD DUP2 LT PUSH2 0xDB6 JUMPI PUSH2 0xDB6 PUSH2 0x1F98 JUMP JUMPDEST PUSH1 0x20 SWAP1 DUP2 MUL SWAP2 SWAP1 SWAP2 ADD DUP2 ADD SWAP2 SWAP1 SWAP2 MSTORE PUSH1 0x40 DUP1 MLOAD PUSH1 0x60 DUP2 ADD DUP3 MSTORE PUSH1 0x3 DUP1 DUP3 MSTORE PUSH1 0x1 SWAP4 DUP3 ADD DUP5 SWAP1 MSTORE DUP3 MLOAD PUSH4 0x1436DE3F PUSH1 0xE2 SHL DUP2 MSTORE PUSH1 0x2 PUSH1 0x4 DUP3 ADD MSTORE PUSH1 0x24 DUP2 ADD DUP6 SWAP1 MSTORE PUSH1 0x44 DUP2 ADD SWAP2 SWAP1 SWAP2 MSTORE PUSH1 0x0 PUSH1 0x64 DUP3 ADD MSTORE PUSH1 0x84 DUP2 ADD SWAP4 SWAP1 SWAP4 MSTORE SWAP2 SWAP1 DUP3 ADD SWAP1 PUSH20 0x0 SWAP1 PUSH4 0x50DB78FC SWAP1 PUSH1 0xA4 ADD PUSH2 0x8E1 JUMP JUMPDEST DUP2 PUSH1 0x3 EQ ISZERO PUSH2 0x10A4 JUMPI PUSH1 0x40 DUP1 MLOAD PUSH1 0x3 DUP1 DUP3 MSTORE PUSH1 0x80 DUP3 ADD SWAP1 SWAP3 MSTORE SWAP1 DUP2 PUSH1 0x20 ADD JUMPDEST PUSH2 0xE5D PUSH2 0x19B6 JUMP JUMPDEST DUP2 MSTORE PUSH1 0x20 ADD SWAP1 PUSH1 0x1 SWAP1 SUB SWAP1 DUP2 PUSH2 0xE55 JUMPI SWAP1 POP POP PUSH1 0x40 DUP1 MLOAD PUSH1 0x60 DUP2 ADD DUP3 MSTORE PUSH1 0x1 DUP1 DUP3 MSTORE PUSH1 0x20 DUP3 ADD DUP2 SWAP1 MSTORE DUP3 MLOAD PUSH4 0x1436DE3F PUSH1 0xE2 SHL DUP2 MSTORE PUSH1 0x3 PUSH1 0x4 DUP3 ADD MSTORE PUSH1 0x24 DUP2 ADD SWAP2 SWAP1 SWAP2 MSTORE PUSH1 0x7 PUSH1 0x44 DUP3 ADD MSTORE PUSH1 0x0 PUSH1 0x64 DUP3 ADD DUP2 SWAP1 MSTORE PUSH1 0x84 DUP3 ADD MSTORE SWAP3 SWAP4 POP SWAP2 SWAP1 DUP3 ADD SWAP1 PUSH20 0x0 SWAP1 PUSH4 0x50DB78FC SWAP1 PUSH1 0xA4 ADD PUSH2 0x100 PUSH1 0x40 MLOAD DUP1 DUP4 SUB DUP2 DUP7 DUP1 EXTCODESIZE ISZERO DUP1 ISZERO PUSH2 0xEF6 JUMPI PUSH1 0x0 DUP1 REVERT JUMPDEST POP GAS DELEGATECALL ISZERO DUP1 ISZERO PUSH2 0xF0A JUMPI RETURNDATASIZE PUSH1 0x0 DUP1 RETURNDATACOPY RETURNDATASIZE PUSH1 0x0 REVERT JUMPDEST POP POP POP POP PUSH1 0x40 MLOAD RETURNDATASIZE PUSH1 0x1F NOT PUSH1 0x1F DUP3 ADD AND DUP3 ADD DUP1 PUSH1 0x40 MSTORE POP DUP2 ADD SWAP1 PUSH2 0xF2E SWAP2 SWAP1 PUSH2 0x1FAE JUMP JUMPDEST DUP2 MSTORE POP DUP2 PUSH1 0x0 DUP2 MLOAD DUP2 LT PUSH2 0xF44 JUMPI PUSH2 0xF44 PUSH2 0x1F98 JUMP JUMPDEST PUSH1 0x20 SWAP1 DUP2 MUL SWAP2 SWAP1 SWAP2 ADD DUP2 ADD SWAP2 SWAP1 SWAP2 MSTORE PUSH1 0x40 DUP1 MLOAD PUSH1 0x60 DUP2 ADD DUP3 MSTORE PUSH1 0x2 DUP2 MSTORE PUSH1 0x1 SWAP3 DUP2 ADD DUP4 SWAP1 MSTORE DUP2 MLOAD PUSH4 0x1436DE3F PUSH1 0xE2 SHL DUP2 MSTORE PUSH1 0x3 PUSH1 0x4 DUP3 ADD MSTORE PUSH1 0x24 DUP2 ADD SWAP4 SWAP1 SWAP4 MSTORE PUSH1 0x7 PUSH1 0x44 DUP5 ADD MSTORE PUSH1 0x0 PUSH1 0x64 DUP5 ADD DUP2 SWAP1 MSTORE PUSH1 0x84 DUP5 ADD MSTORE SWAP2 SWAP1 DUP3 ADD SWAP1 PUSH20 0x0 SWAP1 PUSH4 0x50DB78FC SWAP1 PUSH1 0xA4 ADD PUSH2 0x100 PUSH1 0x40 MLOAD DUP1 DUP4 SUB DUP2 DUP7 DUP1 EXTCODESIZE ISZERO DUP1 ISZERO PUSH2 0xFD6 JUMPI PUSH1 0x0 DUP1 REVERT JUMPDEST POP GAS DELEGATECALL ISZERO DUP1 ISZERO PUSH2 0xFEA JUMPI RETURNDATASIZE PUSH1 0x0 DUP1 RETURNDATACOPY RETURNDATASIZE PUSH1 0x0 REVERT JUMPDEST POP POP POP POP PUSH1 0x40 MLOAD RETURNDATASIZE PUSH1 0x1F NOT PUSH1 0x1F DUP3 ADD AND DUP3 ADD DUP1 PUSH1 0x40 MSTORE POP DUP2 ADD SWAP1 PUSH2 0x100E SWAP2 SWAP1 PUSH2 0x1FAE JUMP JUMPDEST DUP2 MSTORE POP DUP2 PUSH1 0x1 DUP2 MLOAD DUP2 LT PUSH2 0x1024 JUMPI PUSH2 0x1024 PUSH2 0x1F98 JUMP JUMPDEST PUSH1 0x20 SWAP1 DUP2 MUL SWAP2 SWAP1 SWAP2 ADD DUP2 ADD SWAP2 SWAP1 SWAP2 MSTORE PUSH1 0x40 DUP1 MLOAD PUSH1 0x60 DUP2 ADD DUP3 MSTORE PUSH1 0x3 DUP1 DUP3 MSTORE PUSH1 0x1 SWAP4 DUP3 ADD DUP5 SWAP1 MSTORE DUP3 MLOAD PUSH4 0x1436DE3F PUSH1 0xE2 SHL DUP2 MSTORE PUSH1 0x4 DUP2 ADD SWAP2 SWAP1 SWAP2 MSTORE PUSH1 0x24 DUP2 ADD SWAP4 SWAP1 SWAP4 MSTORE PUSH1 0x7 PUSH1 0x44 DUP5 ADD MSTORE PUSH1 0x0 PUSH1 0x64 DUP5 ADD DUP2 SWAP1 MSTORE PUSH1 0x84 DUP5 ADD MSTORE SWAP2 SWAP1 DUP3 ADD SWAP1 PUSH20 0x0 SWAP1 PUSH4 0x50DB78FC SWAP1 PUSH1 0xA4 ADD PUSH2 0x8E1 JUMP JUMPDEST DUP2 PUSH1 0x4 EQ ISZERO PUSH2 0x1310 JUMPI PUSH1 0x40 DUP1 MLOAD PUSH1 0x3 DUP1 DUP3 MSTORE PUSH1 0x80 DUP3 ADD SWAP1 SWAP3 MSTORE SWAP1 DUP2 PUSH1 0x20 ADD JUMPDEST PUSH2 0x10CB PUSH2 0x19B6 JUMP JUMPDEST DUP2 MSTORE PUSH1 0x20 ADD SWAP1 PUSH1 0x1 SWAP1 SUB SWAP1 DUP2 PUSH2 0x10C3 JUMPI SWAP1 POP POP PUSH1 0x40 DUP1 MLOAD PUSH1 0x60 DUP2 ADD DUP3 MSTORE PUSH1 0x1 DUP1 DUP3 MSTORE PUSH1 0x20 DUP3 ADD DUP2 SWAP1 MSTORE DUP3 MLOAD PUSH4 0x1436DE3F PUSH1 0xE2 SHL DUP2 MSTORE PUSH1 0xC PUSH1 0x4 DUP3 ADD MSTORE PUSH1 0x24 DUP2 ADD DUP3 SWAP1 MSTORE PUSH1 0x8 PUSH1 0x44 DUP3 ADD MSTORE PUSH1 0x0 PUSH1 0x64 DUP3 ADD MSTORE PUSH1 0x84 DUP2 ADD SWAP2 SWAP1 SWAP2 MSTORE SWAP3 SWAP4 POP SWAP2 SWAP1 DUP3 ADD SWAP1 PUSH20 0x0 SWAP1 PUSH4 0x50DB78FC SWAP1 PUSH1 0xA4 ADD PUSH2 0x100 PUSH1 0x40 MLOAD DUP1 DUP4 SUB DUP2 DUP7 DUP1 EXTCODESIZE ISZERO DUP1 ISZERO PUSH2 0x1164 JUMPI PUSH1 0x0 DUP1 REVERT JUMPDEST POP GAS DELEGATECALL ISZERO DUP1 ISZERO PUSH2 0x1178 JUMPI RETURNDATASIZE PUSH1 0x0 DUP1 RETURNDATACOPY RETURNDATASIZE PUSH1 0x0 REVERT JUMPDEST POP POP POP POP PUSH1 0x40 MLOAD RETURNDATASIZE PUSH1 0x1F NOT PUSH1 0x1F DUP3 ADD AND DUP3 ADD DUP1 PUSH1 0x40 MSTORE POP DUP2 ADD SWAP1 PUSH2 0x119C SWAP2 SWAP1 PUSH2 0x1FAE JUMP JUMPDEST DUP2 MSTORE POP DUP2 PUSH1 0x0 DUP2 MLOAD DUP2 LT PUSH2 0x11B2 JUMPI PUSH2 0x11B2 PUSH2 0x1F98 JUMP JUMPDEST PUSH1 0x20 SWAP1 DUP2 MUL SWAP2 SWAP1 SWAP2 ADD DUP2 ADD SWAP2 SWAP1 SWAP2 MSTORE PUSH1 0x40 DUP1 MLOAD PUSH1 0x60 DUP2 ADD DUP3 MSTORE PUSH1 0x2 DUP2 MSTORE PUSH1 0x1 SWAP3 DUP2 ADD DUP4 SWAP1 MSTORE DUP2 MLOAD PUSH4 0x1436DE3F PUSH1 0xE2 SHL DUP2 MSTORE PUSH1 0xC PUSH1 0x4 DUP3 ADD MSTORE PUSH1 0x24 DUP2 ADD DUP5 SWAP1 MSTORE PUSH1 0x8 PUSH1 0x44 DUP3 ADD MSTORE PUSH1 0x0 PUSH1 0x64 DUP3 ADD MSTORE PUSH1 0x84 DUP2 ADD SWAP4 SWAP1 SWAP4 MSTORE SWAP2 SWAP1 DUP3 ADD SWAP1 PUSH20 0x0 SWAP1 PUSH4 0x50DB78FC SWAP1 PUSH1 0xA4 ADD PUSH2 0x100 PUSH1 0x40 MLOAD DUP1 DUP4 SUB DUP2 DUP7 DUP1 EXTCODESIZE ISZERO DUP1 ISZERO PUSH2 0x1244 JUMPI PUSH1 0x0 DUP1 REVERT JUMPDEST POP GAS DELEGATECALL ISZERO DUP1 ISZERO PUSH2 0x1258 JUMPI RETURNDATASIZE PUSH1 0x0 DUP1 RETURNDATACOPY RETURNDATASIZE PUSH1 0x0 REVERT JUMPDEST POP POP POP POP PUSH1 0x40 MLOAD RETURNDATASIZE PUSH1 0x1F NOT PUSH1 0x1F DUP3 ADD AND DUP3 ADD DUP1 PUSH1 0x40 MSTORE POP DUP2 ADD SWAP1 PUSH2 0x127C SWAP2 SWAP1 PUSH2 0x1FAE JUMP JUMPDEST DUP2 MSTORE POP DUP2 PUSH1 0x1 DUP2 MLOAD DUP2 LT PUSH2 0x1292 JUMPI PUSH2 0x1292 PUSH2 0x1F98 JUMP JUMPDEST PUSH1 0x20 SWAP1 DUP2 MUL SWAP2 SWAP1 SWAP2 ADD DUP2 ADD SWAP2 SWAP1 SWAP2 MSTORE PUSH1 0x40 DUP1 MLOAD PUSH1 0x60 DUP2 ADD DUP3 MSTORE PUSH1 0x3 DUP2 MSTORE PUSH1 0x1 SWAP3 DUP2 ADD DUP4 SWAP1 MSTORE DUP2 MLOAD PUSH4 0x1436DE3F PUSH1 0xE2 SHL DUP2 MSTORE PUSH1 0xC PUSH1 0x4 DUP3 ADD MSTORE PUSH1 0x24 DUP2 ADD DUP5 SWAP1 MSTORE PUSH1 0x8 PUSH1 0x44 DUP3 ADD MSTORE PUSH1 0x0 PUSH1 0x64 DUP3 ADD MSTORE PUSH1 0x84 DUP2 ADD SWAP4 SWAP1 SWAP4 MSTORE SWAP2 SWAP1 DUP3 ADD SWAP1 PUSH20 0x0 SWAP1 PUSH4 0x50DB78FC SWAP1 PUSH1 0xA4 ADD PUSH2 0x8E1 JUMP JUMPDEST DUP2 PUSH1 0x5 EQ ISZERO PUSH2 0x1590 JUMPI PUSH1 0x40 DUP1 MLOAD PUSH1 0x3 DUP1 DUP3 MSTORE PUSH1 0x80 DUP3 ADD SWAP1 SWAP3 MSTORE SWAP1 DUP2 PUSH1 0x20 ADD JUMPDEST PUSH2 0x1337 PUSH2 0x19B6 JUMP JUMPDEST DUP2 MSTORE PUSH1 0x20 ADD SWAP1 PUSH1 0x1 SWAP1 SUB SWAP1 DUP2 PUSH2 0x132F JUMPI SWAP1 POP POP PUSH1 0x40 DUP1 MLOAD PUSH1 0x60 DUP2 ADD DUP3 MSTORE PUSH1 0x1 DUP1 DUP3 MSTORE PUSH1 0x20 DUP3 ADD DUP2 SWAP1 MSTORE DUP3 MLOAD PUSH4 0x1436DE3F PUSH1 0xE2 SHL DUP2 MSTORE PUSH1 0xA PUSH1 0x4 DUP3 ADD MSTORE PUSH1 0x24 DUP2 ADD SWAP2 SWAP1 SWAP2 MSTORE PUSH1 0xF PUSH1 0x44 DUP3 ADD MSTORE PUSH1 0x0 PUSH1 0x64 DUP3 ADD MSTORE PUSH1 0x8 PUSH1 0x84 DUP3 ADD MSTORE SWAP3 SWAP4 POP SWAP2 SWAP1 DUP3 ADD SWAP1 PUSH20 0x0 SWAP1 PUSH4 0x50DB78FC SWAP1 PUSH1 0xA4 ADD PUSH2 0x100 PUSH1 0x40 MLOAD DUP1 DUP4 SUB DUP2 DUP7 DUP1 EXTCODESIZE ISZERO DUP1 ISZERO PUSH2 0x13D0 JUMPI PUSH1 0x0 DUP1 REVERT JUMPDEST POP GAS DELEGATECALL ISZERO DUP1 ISZERO PUSH2 0x13E4 JUMPI RETURNDATASIZE PUSH1 0x0 DUP1 RETURNDATACOPY RETURNDATASIZE PUSH1 0x0 REVERT JUMPDEST POP POP POP POP PUSH1 0x40 MLOAD RETURNDATASIZE PUSH1 0x1F NOT PUSH1 0x1F DUP3 ADD AND DUP3 ADD DUP1 PUSH1 0x40 MSTORE POP DUP2 ADD SWAP1 PUSH2 0x1408 SWAP2 SWAP1 PUSH2 0x1FAE JUMP JUMPDEST DUP2 MSTORE POP DUP2 PUSH1 0x0 DUP2 MLOAD DUP2 LT PUSH2 0x141E JUMPI PUSH2 0x141E PUSH2 0x1F98 JUMP JUMPDEST PUSH1 0x20 SWAP1 DUP2 MUL SWAP2 SWAP1 SWAP2 ADD DUP2 ADD SWAP2 SWAP1 SWAP2 MSTORE PUSH1 0x40 DUP1 MLOAD PUSH1 0x60 DUP2 ADD DUP3 MSTORE PUSH1 0x2 DUP2 MSTORE PUSH1 0x1 SWAP3 DUP2 ADD DUP4 SWAP1 MSTORE DUP2 MLOAD PUSH4 0x1436DE3F PUSH1 0xE2 SHL DUP2 MSTORE PUSH1 0xA PUSH1 0x4 DUP3 ADD MSTORE PUSH1 0x24 DUP2 ADD SWAP4 SWAP1 SWAP4 MSTORE PUSH1 0xF PUSH1 0x44 DUP5 ADD MSTORE PUSH1 0x0 PUSH1 0x64 DUP5 ADD MSTORE PUSH1 0x8 PUSH1 0x84 DUP5 ADD MSTORE SWAP2 SWAP1 DUP3 ADD SWAP1 PUSH20 0x0 SWAP1 PUSH4 0x50DB78FC SWAP1 PUSH1 0xA4 ADD PUSH2 0x100 PUSH1 0x40 MLOAD DUP1 DUP4 SUB DUP2 DUP7 DUP1 EXTCODESIZE ISZERO DUP1 ISZERO PUSH2 0x14B0 JUMPI PUSH1 0x0 DUP1 REVERT JUMPDEST POP GAS DELEGATECALL ISZERO DUP1 ISZERO PUSH2 0x14C4 JUMPI RETURNDATASIZE PUSH1 0x0 DUP1 RETURNDATACOPY RETURNDATASIZE PUSH1 0x0 REVERT JUMPDEST POP POP POP POP PUSH1 0x40 MLOAD RETURNDATASIZE PUSH1 0x1F NOT PUSH1 0x1F DUP3 ADD AND DUP3 ADD DUP1 PUSH1 0x40 MSTORE POP DUP2 ADD SWAP1 PUSH2 0x14E8 SWAP2 SWAP1 PUSH2 0x1FAE JUMP JUMPDEST DUP2 MSTORE POP DUP2 PUSH1 0x1 DUP2 MLOAD DUP2 LT PUSH2 0x14FE JUMPI PUSH2 0x14FE PUSH2 0x1F98 JUMP JUMPDEST PUSH1 0x20 SWAP1 DUP2 MUL SWAP2 SWAP1 SWAP2 ADD DUP2 ADD SWAP2 SWAP1 SWAP2 MSTORE PUSH1 0x40 DUP1 MLOAD PUSH1 0x60 DUP2 ADD DUP3 MSTORE PUSH1 0x3 DUP2 MSTORE PUSH1 0x1 SWAP3 DUP2 ADD DUP4 SWAP1 MSTORE DUP2 MLOAD PUSH4 0x1436DE3F PUSH1 0xE2 SHL DUP2 MSTORE PUSH1 0xA PUSH1 0x4 DUP3 ADD MSTORE PUSH1 0x24 DUP2 ADD SWAP4 SWAP1 SWAP4 MSTORE PUSH1 0xF PUSH1 0x44 DUP5 ADD MSTORE PUSH1 0x0 PUSH1 0x64 DUP5 ADD MSTORE PUSH1 0x8 PUSH1 0x84 DUP5 ADD MSTORE SWAP2 SWAP1 DUP3 ADD SWAP1 PUSH20 0x0 SWAP1 PUSH4 0x50DB78FC SWAP1 PUSH1 0xA4 ADD PUSH2 0x100 PUSH1 0x40 MLOAD DUP1 DUP4 SUB DUP2 DUP7 DUP1 EXTCODESIZE ISZERO DUP1 ISZERO PUSH2 0x8FA JUMPI PUSH1 0x0 DUP1 REVERT JUMPDEST SWAP2 SWAP1 POP JUMP JUMPDEST PUSH1 0x0 SLOAD PUSH1 0x1 PUSH1 0x1 PUSH1 0xA0 SHL SUB AND CALLER EQ PUSH2 0x15BF JUMPI PUSH1 0x40 MLOAD PUSH3 0x461BCD PUSH1 0xE5 SHL DUP2 MSTORE PUSH1 0x4 ADD PUSH2 0x355 SWAP1 PUSH2 0x1E7C JUMP JUMPDEST PUSH1 0x5 SLOAD PUSH1 0x40 MLOAD PUSH1 0x1 PUSH1 0x1 PUSH1 0xA0 SHL SUB SWAP1 SWAP2 AND SWAP1 SELFBALANCE DUP1 ISZERO PUSH2 0x8FC MUL SWAP2 PUSH1 0x0 DUP2 DUP2 DUP2 DUP6 DUP9 DUP9 CALL SWAP4 POP POP POP POP ISZERO DUP1 ISZERO PUSH2 0x15F8 JUMPI RETURNDATASIZE PUSH1 0x0 DUP1 RETURNDATACOPY RETURNDATASIZE PUSH1 0x0 REVERT JUMPDEST POP JUMP JUMPDEST PUSH1 0x0 SLOAD PUSH1 0x1 PUSH1 0x1 PUSH1 0xA0 SHL SUB AND CALLER EQ DUP1 PUSH2 0x161E JUMPI POP PUSH1 0x1 SLOAD PUSH1 0x1 PUSH1 0x1 PUSH1 0xA0 SHL SUB AND CALLER EQ JUMPDEST DUP1 PUSH2 0x1633 JUMPI POP PUSH1 0x2 SLOAD PUSH1 0x1 PUSH1 0x1 PUSH1 0xA0 SHL SUB AND CALLER EQ JUMPDEST DUP1 PUSH2 0x1648 JUMPI POP PUSH1 0x3 SLOAD PUSH1 0x1 PUSH1 0x1 PUSH1 0xA0 SHL SUB AND CALLER EQ JUMPDEST PUSH2 0x1664 JUMPI PUSH1 0x40 MLOAD PUSH3 0x461BCD PUSH1 0xE5 SHL DUP2 MSTORE PUSH1 0x4 ADD PUSH2 0x355 SWAP1 PUSH2 0x1EB3 JUMP JUMPDEST PUSH1 0x40 MLOAD PUSH4 0x60697473 PUSH1 0xE1 SHL DUP2 MSTORE PUSH1 0x0 SWAP1 PUSH20 0x0 SWAP1 PUSH4 0xC0D2E8E6 SWAP1 PUSH2 0x169E SWAP1 DUP8 SWAP1 PUSH1 0x4 ADD PUSH2 0x1EFB JUMP JUMPDEST PUSH1 0x20 PUSH1 0x40 MLOAD DUP1 DUP4 SUB DUP2 DUP7 DUP1 EXTCODESIZE ISZERO DUP1 ISZERO PUSH2 0x16B6 JUMPI PUSH1 0x0 DUP1 REVERT JUMPDEST POP GAS DELEGATECALL ISZERO DUP1 ISZERO PUSH2 0x16CA JUMPI RETURNDATASIZE PUSH1 0x0 DUP1 RETURNDATACOPY RETURNDATASIZE PUSH1 0x0 REVERT JUMPDEST POP POP POP POP PUSH1 0x40 MLOAD RETURNDATASIZE PUSH1 0x1F NOT PUSH1 0x1F DUP3 ADD AND DUP3 ADD DUP1 PUSH1 0x40 MSTORE POP DUP2 ADD SWAP1 PUSH2 0x16EE SWAP2 SWAP1 PUSH2 0x1F7F JUMP JUMPDEST SWAP1 POP PUSH1 0x8 DUP4 DUP2 SLOAD DUP2 LT PUSH2 0x1703 JUMPI PUSH2 0x1703 PUSH2 0x1F98 JUMP JUMPDEST SWAP1 PUSH1 0x0 MSTORE PUSH1 0x20 PUSH1 0x0 KECCAK256 ADD SLOAD NUMBER PUSH2 0x1719 SWAP2 SWAP1 PUSH2 0x203E JUMP JUMPDEST PUSH1 0x0 DUP3 DUP2 MSTORE PUSH1 0x9 PUSH1 0x20 MSTORE PUSH1 0x40 SWAP1 KECCAK256 DUP1 SLOAD DUP6 SWAP1 DUP2 LT PUSH2 0x1739 JUMPI PUSH2 0x1739 PUSH2 0x1F98 JUMP JUMPDEST PUSH1 0x0 SWAP2 DUP3 MSTORE PUSH1 0x20 SWAP1 SWAP2 KECCAK256 ADD SSTORE POP POP POP POP JUMP JUMPDEST PUSH1 0x60 PUSH1 0x0 PUSH20 0x0 PUSH4 0xC0D2E8E6 DUP5 PUSH1 0x40 MLOAD DUP3 PUSH4 0xFFFFFFFF AND PUSH1 0xE0 SHL DUP2 MSTORE PUSH1 0x4 ADD PUSH2 0x1786 SWAP2 SWAP1 PUSH2 0x1EFB JUMP JUMPDEST PUSH1 0x20 PUSH1 0x40 MLOAD DUP1 DUP4 SUB DUP2 DUP7 DUP1 EXTCODESIZE ISZERO DUP1 ISZERO PUSH2 0x179E JUMPI PUSH1 0x0 DUP1 REVERT JUMPDEST POP GAS DELEGATECALL ISZERO DUP1 ISZERO PUSH2 0x17B2 JUMPI RETURNDATASIZE PUSH1 0x0 DUP1 RETURNDATACOPY RETURNDATASIZE PUSH1 0x0 REVERT JUMPDEST POP POP POP POP PUSH1 0x40 MLOAD RETURNDATASIZE PUSH1 0x1F NOT PUSH1 0x1F DUP3 ADD AND DUP3 ADD DUP1 PUSH1 0x40 MSTORE POP DUP2 ADD SWAP1 PUSH2 0x17D6 SWAP2 SWAP1 PUSH2 0x1F7F JUMP JUMPDEST PUSH1 0x0 DUP2 DUP2 MSTORE PUSH1 0x9 PUSH1 0x20 SWAP1 DUP2 MSTORE PUSH1 0x40 SWAP2 DUP3 SWAP1 KECCAK256 DUP1 SLOAD DUP4 MLOAD DUP2 DUP5 MUL DUP2 ADD DUP5 ADD SWAP1 SWAP5 MSTORE DUP1 DUP5 MSTORE SWAP4 SWAP5 POP SWAP2 SWAP3 SWAP1 DUP4 ADD DUP3 DUP3 DUP1 ISZERO PUSH2 0x182E JUMPI PUSH1 0x20 MUL DUP3 ADD SWAP2 SWAP1 PUSH1 0x0 MSTORE PUSH1 0x20 PUSH1 0x0 KECCAK256 SWAP1 JUMPDEST DUP2 SLOAD DUP2 MSTORE PUSH1 0x20 ADD SWAP1 PUSH1 0x1 ADD SWAP1 DUP1 DUP4 GT PUSH2 0x181A JUMPI JUMPDEST POP POP POP POP POP SWAP2 POP POP SWAP2 SWAP1 POP JUMP JUMPDEST PUSH1 0x0 SLOAD PUSH1 0x1 PUSH1 0x1 PUSH1 0xA0 SHL SUB AND CALLER EQ PUSH2 0x1865 JUMPI PUSH1 0x40 MLOAD PUSH3 0x461BCD PUSH1 0xE5 SHL DUP2 MSTORE PUSH1 0x4 ADD PUSH2 0x355 SWAP1 PUSH2 0x1E7C JUMP JUMPDEST PUSH1 0x2 DUP1 SLOAD PUSH1 0x1 PUSH1 0x1 PUSH1 0xA0 SHL SUB NOT AND PUSH1 0x1 PUSH1 0x1 PUSH1 0xA0 SHL SUB SWAP3 SWAP1 SWAP3 AND SWAP2 SWAP1 SWAP2 OR SWAP1 SSTORE JUMP JUMPDEST PUSH1 0x0 SLOAD PUSH1 0x1 PUSH1 0x1 PUSH1 0xA0 SHL SUB AND CALLER EQ PUSH2 0x18B1 JUMPI PUSH1 0x40 MLOAD PUSH3 0x461BCD PUSH1 0xE5 SHL DUP2 MSTORE PUSH1 0x4 ADD PUSH2 0x355 SWAP1 PUSH2 0x1E7C JUMP JUMPDEST PUSH1 0x5 DUP1 SLOAD PUSH1 0x1 PUSH1 0x1 PUSH1 0xA0 SHL SUB NOT AND PUSH1 0x1 PUSH1 0x1 PUSH1 0xA0 SHL SUB SWAP3 SWAP1 SWAP3 AND SWAP2 SWAP1 SWAP2 OR SWAP1 SSTORE JUMP JUMPDEST PUSH1 0x0 SLOAD PUSH1 0x1 PUSH1 0x1 PUSH1 0xA0 SHL SUB AND CALLER EQ PUSH2 0x18FD JUMPI PUSH1 0x40 MLOAD PUSH3 0x461BCD PUSH1 0xE5 SHL DUP2 MSTORE PUSH1 0x4 ADD PUSH2 0x355 SWAP1 PUSH2 0x1E7C JUMP JUMPDEST PUSH1 0x4 DUP1 SLOAD PUSH1 0x1 PUSH1 0x1 PUSH1 0xA0 SHL SUB NOT AND PUSH1 0x1 PUSH1 0x1 PUSH1 0xA0 SHL SUB SWAP3 SWAP1 SWAP3 AND SWAP2 SWAP1 SWAP2 OR SWAP1 SSTORE JUMP JUMPDEST PUSH1 0x0 SLOAD PUSH1 0x1 PUSH1 0x1 PUSH1 0xA0 SHL SUB AND CALLER EQ PUSH2 0x1949 JUMPI PUSH1 0x40 MLOAD PUSH3 0x461BCD PUSH1 0xE5 SHL DUP2 MSTORE PUSH1 0x4 ADD PUSH2 0x355 SWAP1 PUSH2 0x1E7C JUMP JUMPDEST PUSH1 0x0 DUP1 SLOAD PUSH1 0x1 PUSH1 0x1 PUSH1 0xA0 SHL SUB NOT AND PUSH1 0x1 PUSH1 0x1 PUSH1 0xA0 SHL SUB SWAP3 SWAP1 SWAP3 AND SWAP2 SWAP1 SWAP2 OR SWAP1 SSTORE JUMP JUMPDEST DUP3 DUP1 SLOAD DUP3 DUP3 SSTORE SWAP1 PUSH1 0x0 MSTORE PUSH1 0x20 PUSH1 0x0 KECCAK256 SWAP1 DUP2 ADD SWAP3 DUP3 ISZERO PUSH2 0x19A6 JUMPI SWAP2 PUSH1 0x20 MUL DUP3 ADD JUMPDEST DUP3 DUP2 GT ISZERO PUSH2 0x19A6 JUMPI DUP3 MLOAD DUP3 SSTORE SWAP2 PUSH1 0x20 ADD SWAP2 SWAP1 PUSH1 0x1 ADD SWAP1 PUSH2 0x198B JUMP JUMPDEST POP PUSH2 0x19B2 SWAP3 SWAP2 POP PUSH2 0x1A1E JUMP JUMPDEST POP SWAP1 JUMP JUMPDEST PUSH1 0x40 MLOAD DUP1 PUSH1 0x60 ADD PUSH1 0x40 MSTORE DUP1 PUSH1 0x0 DUP2 MSTORE PUSH1 0x20 ADD PUSH1 0x0 ISZERO ISZERO DUP2 MSTORE PUSH1 0x20 ADD PUSH2 0x1A19 PUSH1 0x40 MLOAD DUP1 PUSH2 0x100 ADD PUSH1 0x40 MSTORE DUP1 PUSH1 0x0 DUP2 MSTORE PUSH1 0x20 ADD PUSH1 0x0 DUP2 MSTORE PUSH1 0x20 ADD PUSH1 0x0 DUP2 MSTORE PUSH1 0x20 ADD PUSH1 0x0 DUP2 MSTORE PUSH1 0x20 ADD PUSH1 0x0 DUP2 MSTORE PUSH1 0x20 ADD PUSH1 0x0 DUP2 MSTORE PUSH1 0x20 ADD PUSH1 0x0 DUP2 MSTORE PUSH1 0x20 ADD PUSH1 0x0 DUP2 MSTORE POP SWAP1 JUMP JUMPDEST SWAP1 MSTORE SWAP1 JUMP JUMPDEST JUMPDEST DUP1 DUP3 GT ISZERO PUSH2 0x19B2 JUMPI PUSH1 0x0 DUP2 SSTORE PUSH1 0x1 ADD PUSH2 0x1A1F JUMP JUMPDEST DUP1 CALLDATALOAD PUSH1 0x1 PUSH1 0x1 PUSH1 0xA0 SHL SUB DUP2 AND DUP2 EQ PUSH2 0x1590 JUMPI PUSH1 0x0 DUP1 REVERT JUMPDEST PUSH1 0x0 PUSH1 0x20 DUP3 DUP5 SUB SLT ISZERO PUSH2 0x1A5C JUMPI PUSH1 0x0 DUP1 REVERT JUMPDEST PUSH2 0x1A65 DUP3 PUSH2 0x1A33 JUMP JUMPDEST SWAP4 SWAP3 POP POP POP JUMP JUMPDEST PUSH4 0x4E487B71 PUSH1 0xE0 SHL PUSH1 0x0 MSTORE PUSH1 0x41 PUSH1 0x4 MSTORE PUSH1 0x24 PUSH1 0x0 REVERT JUMPDEST PUSH1 0x40 MLOAD PUSH2 0x100 DUP2 ADD PUSH8 0xFFFFFFFFFFFFFFFF DUP2 GT DUP3 DUP3 LT OR ISZERO PUSH2 0x1AA6 JUMPI PUSH2 0x1AA6 PUSH2 0x1A6C JUMP JUMPDEST PUSH1 0x40 MSTORE SWAP1 JUMP JUMPDEST PUSH1 0x40 MLOAD PUSH1 0x1F DUP3 ADD PUSH1 0x1F NOT AND DUP2 ADD PUSH8 0xFFFFFFFFFFFFFFFF DUP2 GT DUP3 DUP3 LT OR ISZERO PUSH2 0x1AD5 JUMPI PUSH2 0x1AD5 PUSH2 0x1A6C JUMP JUMPDEST PUSH1 0x40 MSTORE SWAP2 SWAP1 POP JUMP JUMPDEST PUSH1 0x0 PUSH1 0x20 DUP1 DUP4 DUP6 SUB SLT ISZERO PUSH2 0x1AF0 JUMPI PUSH1 0x0 DUP1 REVERT JUMPDEST DUP3 CALLDATALOAD PUSH8 0xFFFFFFFFFFFFFFFF DUP1 DUP3 GT ISZERO PUSH2 0x1B08 JUMPI PUSH1 0x0 DUP1 REVERT JUMPDEST DUP2 DUP6 ADD SWAP2 POP DUP6 PUSH1 0x1F DUP4 ADD SLT PUSH2 0x1B1C JUMPI PUSH1 0x0 DUP1 REVERT JUMPDEST DUP2 CALLDATALOAD DUP2 DUP2 GT ISZERO PUSH2 0x1B2E JUMPI PUSH2 0x1B2E PUSH2 0x1A6C JUMP JUMPDEST DUP1 PUSH1 0x5 SHL SWAP2 POP PUSH2 0x1B3F DUP5 DUP4 ADD PUSH2 0x1AAC JUMP JUMPDEST DUP2 DUP2 MSTORE SWAP2 DUP4 ADD DUP5 ADD SWAP2 DUP5 DUP2 ADD SWAP1 DUP9 DUP5 GT ISZERO PUSH2 0x1B59 JUMPI PUSH1 0x0 DUP1 REVERT JUMPDEST SWAP4 DUP6 ADD SWAP4 JUMPDEST DUP4 DUP6 LT ISZERO PUSH2 0x1B77 JUMPI DUP5 CALLDATALOAD DUP3 MSTORE SWAP4 DUP6 ADD SWAP4 SWAP1 DUP6 ADD SWAP1 PUSH2 0x1B5E JUMP JUMPDEST SWAP9 SWAP8 POP POP POP POP POP POP POP POP JUMP JUMPDEST DUP1 CALLDATALOAD DUP1 ISZERO ISZERO DUP2 EQ PUSH2 0x1590 JUMPI PUSH1 0x0 DUP1 REVERT JUMPDEST PUSH1 0x0 PUSH1 0x60 DUP3 DUP5 SUB SLT ISZERO PUSH2 0x1BA5 JUMPI PUSH1 0x0 DUP1 REVERT JUMPDEST PUSH1 0x40 MLOAD PUSH1 0x60 DUP2 ADD DUP2 DUP2 LT PUSH8 0xFFFFFFFFFFFFFFFF DUP3 GT OR ISZERO PUSH2 0x1BC8 JUMPI PUSH2 0x1BC8 PUSH2 0x1A6C JUMP JUMPDEST DUP1 PUSH1 0x40 MSTORE POP DUP1 SWAP2 POP DUP3 CALLDATALOAD DUP2 MSTORE PUSH1 0x20 DUP4 ADD CALLDATALOAD PUSH1 0x20 DUP3 ADD MSTORE PUSH1 0x40 DUP4 ADD CALLDATALOAD PUSH1 0x40 DUP3 ADD MSTORE POP SWAP3 SWAP2 POP POP JUMP JUMPDEST PUSH1 0x0 DUP2 DUP4 SUB PUSH2 0x220 DUP2 SLT ISZERO PUSH2 0x1C03 JUMPI PUSH1 0x0 DUP1 REVERT JUMPDEST PUSH2 0x1C0B PUSH2 0x1A82 JUMP JUMPDEST SWAP2 POP PUSH2 0x1C16 DUP4 PUSH2 0x1B83 JUMP JUMPDEST DUP3 MSTORE PUSH2 0x1C24 PUSH1 0x20 DUP5 ADD PUSH2 0x1A33 JUMP JUMPDEST PUSH1 0x20 DUP4 ADD MSTORE PUSH1 0x40 DUP4 ADD CALLDATALOAD PUSH1 0x40 DUP4 ADD MSTORE PUSH1 0x60 DUP4 ADD CALLDATALOAD PUSH1 0x60 DUP4 ADD MSTORE PUSH1 0x80 DUP4 ADD CALLDATALOAD PUSH1 0x80 DUP4 ADD MSTORE PUSH1 0xA0 DUP4 ADD CALLDATALOAD PUSH1 0xA0 DUP4 ADD MSTORE PUSH2 0x100 DUP1 PUSH1 0xBF NOT DUP4 ADD SLT ISZERO PUSH2 0x1C65 JUMPI PUSH1 0x0 DUP1 REVERT JUMPDEST PUSH2 0x1C6D PUSH2 0x1A82 JUMP JUMPDEST SWAP2 POP PUSH1 0xC0 DUP5 ADD CALLDATALOAD DUP3 MSTORE PUSH1 0xE0 DUP5 ADD CALLDATALOAD PUSH1 0x20 DUP4 ADD MSTORE DUP1 DUP5 ADD CALLDATALOAD PUSH1 0x40 DUP4 ADD MSTORE POP PUSH2 0x120 DUP4 ADD CALLDATALOAD PUSH1 0x60 DUP3 ADD MSTORE PUSH2 0x140 DUP4 ADD CALLDATALOAD PUSH1 0x80 DUP3 ADD MSTORE PUSH2 0x160 DUP4 ADD CALLDATALOAD PUSH1 0xA0 DUP3 ADD MSTORE PUSH2 0x180 DUP4 ADD CALLDATALOAD PUSH1 0xC0 DUP3 ADD MSTORE PUSH2 0x1A0 DUP4 ADD CALLDATALOAD PUSH1 0xE0 DUP3 ADD MSTORE DUP1 PUSH1 0xC0 DUP4 ADD MSTORE POP PUSH2 0x1CD6 DUP4 PUSH2 0x1C0 DUP5 ADD PUSH2 0x1B93 JUMP JUMPDEST PUSH1 0xE0 DUP3 ADD MSTORE SWAP3 SWAP2 POP POP JUMP JUMPDEST PUSH1 0x0 DUP1 PUSH2 0x240 DUP4 DUP6 SUB SLT ISZERO PUSH2 0x1CF5 JUMPI PUSH1 0x0 DUP1 REVERT JUMPDEST PUSH2 0x1CFF DUP5 DUP5 PUSH2 0x1BEF JUMP JUMPDEST SWAP5 PUSH2 0x220 SWAP4 SWAP1 SWAP4 ADD CALLDATALOAD SWAP4 POP POP POP JUMP JUMPDEST PUSH1 0x0 PUSH1 0x20 DUP3 DUP5 SUB SLT ISZERO PUSH2 0x1D20 JUMPI PUSH1 0x0 DUP1 REVERT JUMPDEST POP CALLDATALOAD SWAP2 SWAP1 POP JUMP JUMPDEST DUP1 MLOAD DUP3 MSTORE PUSH1 0x20 DUP2 ADD MLOAD PUSH1 0x20 DUP4 ADD MSTORE PUSH1 0x40 DUP2 ADD MLOAD PUSH1 0x40 DUP4 ADD MSTORE PUSH1 0x60 DUP2 ADD MLOAD PUSH1 0x60 DUP4 ADD MSTORE PUSH1 0x80 DUP2 ADD MLOAD PUSH1 0x80 DUP4 ADD MSTORE PUSH1 0xA0 DUP2 ADD MLOAD PUSH1 0xA0 DUP4 ADD MSTORE PUSH1 0xC0 DUP2 ADD MLOAD PUSH1 0xC0 DUP4 ADD MSTORE PUSH1 0xE0 DUP2 ADD MLOAD PUSH1 0xE0 DUP4 ADD MSTORE POP POP JUMP JUMPDEST PUSH1 0x20 DUP1 DUP3 MSTORE DUP3 MLOAD DUP3 DUP3 ADD DUP2 SWAP1 MSTORE PUSH1 0x0 SWAP2 SWAP1 PUSH1 0x40 SWAP1 DUP2 DUP6 ADD SWAP1 DUP7 DUP5 ADD DUP6 JUMPDEST DUP3 DUP2 LT ISZERO PUSH2 0x1DCE JUMPI DUP2 MLOAD DUP1 MLOAD DUP6 MSTORE DUP7 DUP2 ADD MLOAD ISZERO ISZERO DUP8 DUP7 ADD MSTORE DUP6 ADD MLOAD PUSH2 0x1DB9 DUP7 DUP7 ADD DUP3 PUSH2 0x1D27 JUMP JUMPDEST POP PUSH2 0x140 SWAP4 SWAP1 SWAP4 ADD SWAP3 SWAP1 DUP6 ADD SWAP1 PUSH1 0x1 ADD PUSH2 0x1D92 JUMP JUMPDEST POP SWAP2 SWAP8 SWAP7 POP POP POP POP POP POP POP JUMP JUMPDEST PUSH1 0x0 DUP1 PUSH1 0x0 PUSH2 0x260 DUP5 DUP7 SUB SLT ISZERO PUSH2 0x1DF1 JUMPI PUSH1 0x0 DUP1 REVERT JUMPDEST PUSH2 0x1DFB DUP6 DUP6 PUSH2 0x1BEF JUMP JUMPDEST SWAP3 POP PUSH2 0x220 DUP5 ADD CALLDATALOAD SWAP2 POP PUSH2 0x1E12 PUSH2 0x240 DUP6 ADD PUSH2 0x1B83 JUMP JUMPDEST SWAP1 POP SWAP3 POP SWAP3 POP SWAP3 JUMP JUMPDEST PUSH1 0x0 PUSH2 0x220 DUP3 DUP5 SUB SLT ISZERO PUSH2 0x1E2E JUMPI PUSH1 0x0 DUP1 REVERT JUMPDEST PUSH2 0x1A65 DUP4 DUP4 PUSH2 0x1BEF JUMP JUMPDEST PUSH1 0x20 DUP1 DUP3 MSTORE DUP3 MLOAD DUP3 DUP3 ADD DUP2 SWAP1 MSTORE PUSH1 0x0 SWAP2 SWAP1 DUP5 DUP3 ADD SWAP1 PUSH1 0x40 DUP6 ADD SWAP1 DUP5 JUMPDEST DUP2 DUP2 LT ISZERO PUSH2 0x1E70 JUMPI DUP4 MLOAD DUP4 MSTORE SWAP3 DUP5 ADD SWAP3 SWAP2 DUP5 ADD SWAP2 PUSH1 0x1 ADD PUSH2 0x1E54 JUMP JUMPDEST POP SWAP1 SWAP7 SWAP6 POP POP POP POP POP POP JUMP JUMPDEST PUSH1 0x20 DUP1 DUP3 MSTORE PUSH1 0x18 SWAP1 DUP3 ADD MSTORE PUSH32 0x43616E2062652063616C6C6564206F6E6C7920627920474D0000000000000000 PUSH1 0x40 DUP3 ADD MSTORE PUSH1 0x60 ADD SWAP1 JUMP JUMPDEST PUSH1 0x20 DUP1 DUP3 MSTORE PUSH1 0x28 SWAP1 DUP3 ADD MSTORE PUSH32 0x4F6E6C792067616D6520636F6E7472616374732063616E2063616C6C20746869 PUSH1 0x40 DUP3 ADD MSTORE PUSH8 0x1CC81B595D1A1BD9 PUSH1 0xC2 SHL PUSH1 0x60 DUP3 ADD MSTORE PUSH1 0x80 ADD SWAP1 JUMP JUMPDEST PUSH1 0x0 PUSH2 0x220 DUP3 ADD SWAP1 POP DUP3 MLOAD ISZERO ISZERO DUP3 MSTORE PUSH1 0x1 DUP1 PUSH1 0xA0 SHL SUB PUSH1 0x20 DUP5 ADD MLOAD AND PUSH1 0x20 DUP4 ADD MSTORE PUSH1 0x40 DUP4 ADD MLOAD PUSH1 0x40 DUP4 ADD MSTORE PUSH1 0x60 DUP4 ADD MLOAD PUSH1 0x60 DUP4 ADD MSTORE PUSH1 0x80 DUP4 ADD MLOAD PUSH1 0x80 DUP4 ADD MSTORE PUSH1 0xA0 DUP4 ADD MLOAD PUSH1 0xA0 DUP4 ADD MSTORE PUSH1 0xC0 DUP4 ADD MLOAD PUSH2 0x1F56 PUSH1 0xC0 DUP5 ADD DUP3 PUSH2 0x1D27 JUMP JUMPDEST POP PUSH1 0xE0 SWAP3 SWAP1 SWAP3 ADD MLOAD DUP1 MLOAD PUSH2 0x1C0 DUP4 ADD MSTORE PUSH1 0x20 DUP2 ADD MLOAD PUSH2 0x1E0 DUP4 ADD MSTORE PUSH1 0x40 ADD MLOAD PUSH2 0x200 SWAP1 SWAP2 ADD MSTORE SWAP1 JUMP JUMPDEST PUSH1 0x0 PUSH1 0x20 DUP3 DUP5 SUB SLT ISZERO PUSH2 0x1F91 JUMPI PUSH1 0x0 DUP1 REVERT JUMPDEST POP MLOAD SWAP2 SWAP1 POP JUMP JUMPDEST PUSH4 0x4E487B71 PUSH1 0xE0 SHL PUSH1 0x0 MSTORE PUSH1 0x32 PUSH1 0x4 MSTORE PUSH1 0x24 PUSH1 0x0 REVERT JUMPDEST PUSH1 0x0 PUSH2 0x100 DUP1 DUP4 DUP6 SUB SLT ISZERO PUSH2 0x1FC2 JUMPI PUSH1 0x0 DUP1 REVERT JUMPDEST PUSH1 0x40 MLOAD SWAP1 DUP2 ADD SWAP1 PUSH8 0xFFFFFFFFFFFFFFFF DUP3 GT DUP2 DUP4 LT OR ISZERO PUSH2 0x1FE5 JUMPI PUSH2 0x1FE5 PUSH2 0x1A6C JUMP JUMPDEST DUP2 PUSH1 0x40 MSTORE DUP4 MLOAD DUP2 MSTORE PUSH1 0x20 DUP5 ADD MLOAD PUSH1 0x20 DUP3 ADD MSTORE PUSH1 0x40 DUP5 ADD MLOAD PUSH1 0x40 DUP3 ADD MSTORE PUSH1 0x60 DUP5 ADD MLOAD PUSH1 0x60 DUP3 ADD MSTORE PUSH1 0x80 DUP5 ADD MLOAD PUSH1 0x80 DUP3 ADD MSTORE PUSH1 0xA0 DUP5 ADD MLOAD PUSH1 0xA0 DUP3 ADD MSTORE PUSH1 0xC0 DUP5 ADD MLOAD PUSH1 0xC0 DUP3 ADD MSTORE PUSH1 0xE0 DUP5 ADD MLOAD PUSH1 0xE0 DUP3 ADD MSTORE DUP1 SWAP3 POP POP POP SWAP3 SWAP2 POP POP JUMP JUMPDEST PUSH1 0x0 DUP3 NOT DUP3 GT ISZERO PUSH2 0x205F JUMPI PUSH4 0x4E487B71 PUSH1 0xE0 SHL PUSH1 0x0 MSTORE PUSH1 0x11 PUSH1 0x4 MSTORE PUSH1 0x24 PUSH1 0x0 REVERT JUMPDEST POP ADD SWAP1 JUMP INVALID LOG2 PUSH5 0x6970667358 0x22 SLT KECCAK256 PUSH2 0xD9B4 PUSH15 0x8B67444D4603E3358F207DB8228CC1 LT PUSH23 0x20099A4335B44D08FBCC1764736F6C6343000809003300 "
		},
		"gasEstimates": {
			"creation": {
				"codeDepositCost": "1669200",
				"executionCost": "infinite",
				"totalCost": "infinite"
			},
			"external": {
				"ACT1_MILESTONES_CONTACT_ADDRESS()": "2382",
				"CHARACTER_CONTRACT_ADDRESS()": "2382",
				"FIGHT_CONTRACT_ADDRESS()": "2447",
				"GAME_MANAGER_CONTRACT_ADDRESS()": "2360",
				"GAME_MASTER()": "2359",
				"MAX_LEVEL_INDEX()": "2406",
				"RANDOM_CONTRACT_ADDRESS()": "2381",
				"VAULT()": "2448",
				"getCooldowns((bool,address,uint256,uint256,uint256,uint256,(uint256,uint256,uint256,uint256,uint256,uint256,uint256,uint256),(uint256,uint256,uint256)))": "infinite",
				"getEnemies(uint256)": "infinite",
				"getProgress((bool,address,uint256,uint256,uint256,uint256,(uint256,uint256,uint256,uint256,uint256,uint256,uint256,uint256),(uint256,uint256,uint256)))": "infinite",
				"hasAccess((bool,address,uint256,uint256,uint256,uint256,(uint256,uint256,uint256,uint256,uint256,uint256,uint256,uint256),(uint256,uint256,uint256)),uint256)": "infinite",
				"setCharacterContractAddress(address)": "26778",
				"setCooldowns(uint256[])": "infinite",
				"setFightContractAddress(address)": "26735",
				"setGMContractAddress(address)": "26801",
				"setGameMasterAddress(address)": "26799",
				"setMainMapContract(address)": "33258",
				"setRandomContractAddress(address)": "26777",
				"setVaultAddress(address)": "26800",
				"update((bool,address,uint256,uint256,uint256,uint256,(uint256,uint256,uint256,uint256,uint256,uint256,uint256,uint256),(uint256,uint256,uint256)),uint256,bool)": "infinite",
				"withdraw()": "infinite"
			}
		},
		"methodIdentifiers": {
			"ACT1_MILESTONES_CONTACT_ADDRESS()": "62a86353",
			"CHARACTER_CONTRACT_ADDRESS()": "320b00d8",
			"FIGHT_CONTRACT_ADDRESS()": "e1d38814",
			"GAME_MANAGER_CONTRACT_ADDRESS()": "603eefa5",
			"GAME_MASTER()": "99597b70",
			"MAX_LEVEL_INDEX()": "859329a2",
			"RANDOM_CONTRACT_ADDRESS()": "d3dd4f29",
			"VAULT()": "411557d1",
			"getCooldowns((bool,address,uint256,uint256,uint256,uint256,(uint256,uint256,uint256,uint256,uint256,uint256,uint256,uint256),(uint256,uint256,uint256)))": "49d6790a",
			"getEnemies(uint256)": "2f2ddf54",
			"getProgress((bool,address,uint256,uint256,uint256,uint256,(uint256,uint256,uint256,uint256,uint256,uint256,uint256,uint256),(uint256,uint256,uint256)))": "fae2c19b",
			"hasAccess((bool,address,uint256,uint256,uint256,uint256,(uint256,uint256,uint256,uint256,uint256,uint256,uint256,uint256),(uint256,uint256,uint256)),uint256)": "14e8cd99",
			"setCharacterContractAddress(address)": "83499df6",
			"setCooldowns(uint256[])": "05e11831",
			"setFightContractAddress(address)": "00a8b188",
			"setGMContractAddress(address)": "1b915579",
			"setGameMasterAddress(address)": "d8327b2f",
			"setMainMapContract(address)": "1c9d9563",
			"setRandomContractAddress(address)": "d7050b05",
			"setVaultAddress(address)": "85535cc5",
			"update((bool,address,uint256,uint256,uint256,uint256,(uint256,uint256,uint256,uint256,uint256,uint256,uint256,uint256),(uint256,uint256,uint256)),uint256,bool)": "3ee52721",
			"withdraw()": "3ccfd60b"
		}
	},
	"abi": [
		{
			"inputs": [],
			"stateMutability": "nonpayable",
			"type": "constructor"
		},
		{
			"inputs": [],
			"name": "ACT1_MILESTONES_CONTACT_ADDRESS",
			"outputs": [
				{
					"internalType": "address",
					"name": "",
					"type": "address"
				}
			],
			"stateMutability": "view",
			"type": "function"
		},
		{
			"inputs": [],
			"name": "CHARACTER_CONTRACT_ADDRESS",
			"outputs": [
				{
					"internalType": "address",
					"name": "",
					"type": "address"
				}
			],
			"stateMutability": "view",
			"type": "function"
		},
		{
			"inputs": [],
			"name": "FIGHT_CONTRACT_ADDRESS",
			"outputs": [
				{
					"internalType": "address",
					"name": "",
					"type": "address"
				}
			],
			"stateMutability": "view",
			"type": "function"
		},
		{
			"inputs": [],
			"name": "GAME_MANAGER_CONTRACT_ADDRESS",
			"outputs": [
				{
					"internalType": "address",
					"name": "",
					"type": "address"
				}
			],
			"stateMutability": "view",
			"type": "function"
		},
		{
			"inputs": [],
			"name": "GAME_MASTER",
			"outputs": [
				{
					"internalType": "address",
					"name": "",
					"type": "address"
				}
			],
			"stateMutability": "view",
			"type": "function"
		},
		{
			"inputs": [],
			"name": "MAX_LEVEL_INDEX",
			"outputs": [
				{
					"internalType": "uint256",
					"name": "",
					"type": "uint256"
				}
			],
			"stateMutability": "view",
			"type": "function"
		},
		{
			"inputs": [],
			"name": "RANDOM_CONTRACT_ADDRESS",
			"outputs": [
				{
					"internalType": "address",
					"name": "",
					"type": "address"
				}
			],
			"stateMutability": "view",
			"type": "function"
		},
		{
			"inputs": [],
			"name": "VAULT",
			"outputs": [
				{
					"internalType": "address",
					"name": "",
					"type": "address"
				}
			],
			"stateMutability": "view",
			"type": "function"
		},
		{
			"inputs": [
				{
					"components": [
						{
							"internalType": "bool",
							"name": "exists",
							"type": "bool"
						},
						{
							"internalType": "address",
							"name": "contractAddress",
							"type": "address"
						},
						{
							"internalType": "uint256",
							"name": "tokenId",
							"type": "uint256"
						},
						{
							"internalType": "uint256",
							"name": "level",
							"type": "uint256"
						},
						{
							"internalType": "uint256",
							"name": "exp",
							"type": "uint256"
						},
						{
							"internalType": "uint256",
							"name": "upgrades",
							"type": "uint256"
						},
						{
							"components": [
								{
									"internalType": "uint256",
									"name": "strength",
									"type": "uint256"
								},
								{
									"internalType": "uint256",
									"name": "dexterity",
									"type": "uint256"
								},
								{
									"internalType": "uint256",
									"name": "constitution",
									"type": "uint256"
								},
								{
									"internalType": "uint256",
									"name": "luck",
									"type": "uint256"
								},
								{
									"internalType": "uint256",
									"name": "armor",
									"type": "uint256"
								},
								{
									"internalType": "uint256",
									"name": "attack",
									"type": "uint256"
								},
								{
									"internalType": "uint256",
									"name": "health",
									"type": "uint256"
								},
								{
									"internalType": "uint256",
									"name": "takenDamage",
									"type": "uint256"
								}
							],
							"internalType": "struct ComputedStats.Stats",
							"name": "stats",
							"type": "tuple"
						},
						{
							"components": [
								{
									"internalType": "uint256",
									"name": "armorSetId",
									"type": "uint256"
								},
								{
									"internalType": "uint256",
									"name": "weaponSetId",
									"type": "uint256"
								},
								{
									"internalType": "uint256",
									"name": "shieldId",
									"type": "uint256"
								}
							],
							"internalType": "struct Equipment",
							"name": "equipment",
							"type": "tuple"
						}
					],
					"internalType": "struct Character",
					"name": "character",
					"type": "tuple"
				}
			],
			"name": "getCooldowns",
			"outputs": [
				{
					"internalType": "uint256[]",
					"name": "cooldowns",
					"type": "uint256[]"
				}
			],
			"stateMutability": "view",
			"type": "function"
		},
		{
			"inputs": [
				{
					"internalType": "uint256",
					"name": "levelIndex",
					"type": "uint256"
				}
			],
			"name": "getEnemies",
			"outputs": [
				{
					"components": [
						{
							"internalType": "uint256",
							"name": "id",
							"type": "uint256"
						},
						{
							"internalType": "bool",
							"name": "present",
							"type": "bool"
						},
						{
							"components": [
								{
									"internalType": "uint256",
									"name": "strength",
									"type": "uint256"
								},
								{
									"internalType": "uint256",
									"name": "dexterity",
									"type": "uint256"
								},
								{
									"internalType": "uint256",
									"name": "constitution",
									"type": "uint256"
								},
								{
									"internalType": "uint256",
									"name": "luck",
									"type": "uint256"
								},
								{
									"internalType": "uint256",
									"name": "armor",
									"type": "uint256"
								},
								{
									"internalType": "uint256",
									"name": "attack",
									"type": "uint256"
								},
								{
									"internalType": "uint256",
									"name": "health",
									"type": "uint256"
								},
								{
									"internalType": "uint256",
									"name": "takenDamage",
									"type": "uint256"
								}
							],
							"internalType": "struct ComputedStats.Stats",
							"name": "stats",
							"type": "tuple"
						}
					],
					"internalType": "struct Enemy[]",
					"name": "enemies",
					"type": "tuple[]"
				}
			],
			"stateMutability": "view",
			"type": "function"
		},
		{
			"inputs": [
				{
					"components": [
						{
							"internalType": "bool",
							"name": "exists",
							"type": "bool"
						},
						{
							"internalType": "address",
							"name": "contractAddress",
							"type": "address"
						},
						{
							"internalType": "uint256",
							"name": "tokenId",
							"type": "uint256"
						},
						{
							"internalType": "uint256",
							"name": "level",
							"type": "uint256"
						},
						{
							"internalType": "uint256",
							"name": "exp",
							"type": "uint256"
						},
						{
							"internalType": "uint256",
							"name": "upgrades",
							"type": "uint256"
						},
						{
							"components": [
								{
									"internalType": "uint256",
									"name": "strength",
									"type": "uint256"
								},
								{
									"internalType": "uint256",
									"name": "dexterity",
									"type": "uint256"
								},
								{
									"internalType": "uint256",
									"name": "constitution",
									"type": "uint256"
								},
								{
									"internalType": "uint256",
									"name": "luck",
									"type": "uint256"
								},
								{
									"internalType": "uint256",
									"name": "armor",
									"type": "uint256"
								},
								{
									"internalType": "uint256",
									"name": "attack",
									"type": "uint256"
								},
								{
									"internalType": "uint256",
									"name": "health",
									"type": "uint256"
								},
								{
									"internalType": "uint256",
									"name": "takenDamage",
									"type": "uint256"
								}
							],
							"internalType": "struct ComputedStats.Stats",
							"name": "stats",
							"type": "tuple"
						},
						{
							"components": [
								{
									"internalType": "uint256",
									"name": "armorSetId",
									"type": "uint256"
								},
								{
									"internalType": "uint256",
									"name": "weaponSetId",
									"type": "uint256"
								},
								{
									"internalType": "uint256",
									"name": "shieldId",
									"type": "uint256"
								}
							],
							"internalType": "struct Equipment",
							"name": "equipment",
							"type": "tuple"
						}
					],
					"internalType": "struct Character",
					"name": "character",
					"type": "tuple"
				}
			],
			"name": "getProgress",
			"outputs": [
				{
					"internalType": "uint256",
					"name": "",
					"type": "uint256"
				}
			],
			"stateMutability": "pure",
			"type": "function"
		},
		{
			"inputs": [
				{
					"components": [
						{
							"internalType": "bool",
							"name": "exists",
							"type": "bool"
						},
						{
							"internalType": "address",
							"name": "contractAddress",
							"type": "address"
						},
						{
							"internalType": "uint256",
							"name": "tokenId",
							"type": "uint256"
						},
						{
							"internalType": "uint256",
							"name": "level",
							"type": "uint256"
						},
						{
							"internalType": "uint256",
							"name": "exp",
							"type": "uint256"
						},
						{
							"internalType": "uint256",
							"name": "upgrades",
							"type": "uint256"
						},
						{
							"components": [
								{
									"internalType": "uint256",
									"name": "strength",
									"type": "uint256"
								},
								{
									"internalType": "uint256",
									"name": "dexterity",
									"type": "uint256"
								},
								{
									"internalType": "uint256",
									"name": "constitution",
									"type": "uint256"
								},
								{
									"internalType": "uint256",
									"name": "luck",
									"type": "uint256"
								},
								{
									"internalType": "uint256",
									"name": "armor",
									"type": "uint256"
								},
								{
									"internalType": "uint256",
									"name": "attack",
									"type": "uint256"
								},
								{
									"internalType": "uint256",
									"name": "health",
									"type": "uint256"
								},
								{
									"internalType": "uint256",
									"name": "takenDamage",
									"type": "uint256"
								}
							],
							"internalType": "struct ComputedStats.Stats",
							"name": "stats",
							"type": "tuple"
						},
						{
							"components": [
								{
									"internalType": "uint256",
									"name": "armorSetId",
									"type": "uint256"
								},
								{
									"internalType": "uint256",
									"name": "weaponSetId",
									"type": "uint256"
								},
								{
									"internalType": "uint256",
									"name": "shieldId",
									"type": "uint256"
								}
							],
							"internalType": "struct Equipment",
							"name": "equipment",
							"type": "tuple"
						}
					],
					"internalType": "struct Character",
					"name": "character",
					"type": "tuple"
				},
				{
					"internalType": "uint256",
					"name": "index",
					"type": "uint256"
				}
			],
			"name": "hasAccess",
			"outputs": [
				{
					"internalType": "bool",
					"name": "",
					"type": "bool"
				}
			],
			"stateMutability": "view",
			"type": "function"
		},
		{
			"inputs": [
				{
					"internalType": "address",
					"name": "_address",
					"type": "address"
				}
			],
			"name": "setCharacterContractAddress",
			"outputs": [],
			"stateMutability": "nonpayable",
			"type": "function"
		},
		{
			"inputs": [
				{
					"internalType": "uint256[]",
					"name": "newCooldowns",
					"type": "uint256[]"
				}
			],
			"name": "setCooldowns",
			"outputs": [],
			"stateMutability": "nonpayable",
			"type": "function"
		},
		{
			"inputs": [
				{
					"internalType": "address",
					"name": "_address",
					"type": "address"
				}
			],
			"name": "setFightContractAddress",
			"outputs": [],
			"stateMutability": "nonpayable",
			"type": "function"
		},
		{
			"inputs": [
				{
					"internalType": "address",
					"name": "_address",
					"type": "address"
				}
			],
			"name": "setGMContractAddress",
			"outputs": [],
			"stateMutability": "nonpayable",
			"type": "function"
		},
		{
			"inputs": [
				{
					"internalType": "address",
					"name": "newGM",
					"type": "address"
				}
			],
			"name": "setGameMasterAddress",
			"outputs": [],
			"stateMutability": "nonpayable",
			"type": "function"
		},
		{
			"inputs": [
				{
					"internalType": "address",
					"name": "mainMapContract",
					"type": "address"
				}
			],
			"name": "setMainMapContract",
			"outputs": [],
			"stateMutability": "nonpayable",
			"type": "function"
		},
		{
			"inputs": [
				{
					"internalType": "address",
					"name": "newAddress",
					"type": "address"
				}
			],
			"name": "setRandomContractAddress",
			"outputs": [],
			"stateMutability": "nonpayable",
			"type": "function"
		},
		{
			"inputs": [
				{
					"internalType": "address",
					"name": "_address",
					"type": "address"
				}
			],
			"name": "setVaultAddress",
			"outputs": [],
			"stateMutability": "nonpayable",
			"type": "function"
		},
		{
			"inputs": [
				{
					"components": [
						{
							"internalType": "bool",
							"name": "exists",
							"type": "bool"
						},
						{
							"internalType": "address",
							"name": "contractAddress",
							"type": "address"
						},
						{
							"internalType": "uint256",
							"name": "tokenId",
							"type": "uint256"
						},
						{
							"internalType": "uint256",
							"name": "level",
							"type": "uint256"
						},
						{
							"internalType": "uint256",
							"name": "exp",
							"type": "uint256"
						},
						{
							"internalType": "uint256",
							"name": "upgrades",
							"type": "uint256"
						},
						{
							"components": [
								{
									"internalType": "uint256",
									"name": "strength",
									"type": "uint256"
								},
								{
									"internalType": "uint256",
									"name": "dexterity",
									"type": "uint256"
								},
								{
									"internalType": "uint256",
									"name": "constitution",
									"type": "uint256"
								},
								{
									"internalType": "uint256",
									"name": "luck",
									"type": "uint256"
								},
								{
									"internalType": "uint256",
									"name": "armor",
									"type": "uint256"
								},
								{
									"internalType": "uint256",
									"name": "attack",
									"type": "uint256"
								},
								{
									"internalType": "uint256",
									"name": "health",
									"type": "uint256"
								},
								{
									"internalType": "uint256",
									"name": "takenDamage",
									"type": "uint256"
								}
							],
							"internalType": "struct ComputedStats.Stats",
							"name": "stats",
							"type": "tuple"
						},
						{
							"components": [
								{
									"internalType": "uint256",
									"name": "armorSetId",
									"type": "uint256"
								},
								{
									"internalType": "uint256",
									"name": "weaponSetId",
									"type": "uint256"
								},
								{
									"internalType": "uint256",
									"name": "shieldId",
									"type": "uint256"
								}
							],
							"internalType": "struct Equipment",
							"name": "equipment",
							"type": "tuple"
						}
					],
					"internalType": "struct Character",
					"name": "character",
					"type": "tuple"
				},
				{
					"internalType": "uint256",
					"name": "index",
					"type": "uint256"
				},
				{
					"internalType": "bool",
					"name": "victory",
					"type": "bool"
				}
			],
			"name": "update",
			"outputs": [],
			"stateMutability": "nonpayable",
			"type": "function"
		},
		{
			"inputs": [],
			"name": "withdraw",
			"outputs": [],
			"stateMutability": "nonpayable",
			"type": "function"
		}
	]
}