{
	"data": {
		"bytecode": {
			"linkReferences": {
				"contracts/libraries/ComputedStats.sol": {
					"ComputedStats": [
						{
							"length": 20,
							"start": 2126
						},
						{
							"length": 20,
							"start": 2435
						},
						{
							"length": 20,
							"start": 2643
						},
						{
							"length": 20,
							"start": 2851
						},
						{
							"length": 20,
							"start": 3160
						},
						{
							"length": 20,
							"start": 3368
						},
						{
							"length": 20,
							"start": 3578
						},
						{
							"length": 20,
							"start": 3887
						},
						{
							"length": 20,
							"start": 4097
						},
						{
							"length": 20,
							"start": 4307
						},
						{
							"length": 20,
							"start": 4618
						},
						{
							"length": 20,
							"start": 4827
						},
						{
							"length": 20,
							"start": 5036
						},
						{
							"length": 20,
							"start": 5346
						},
						{
							"length": 20,
							"start": 5556
						},
						{
							"length": 20,
							"start": 5867
						}
					]
				},
				"contracts/libraries/Utils.sol": {
					"Utils": [
						{
							"length": 20,
							"start": 6764
						},
						{
							"length": 20,
							"start": 8246
						}
					]
				}
			},
			"object": "608060405260008060006101000a81548173ffffffffffffffffffffffffffffffffffffffff021916908373ffffffffffffffffffffffffffffffffffffffff1602179055506000600160006101000a81548173ffffffffffffffffffffffffffffffffffffffff021916908373ffffffffffffffffffffffffffffffffffffffff1602179055506000600260006101000a81548173ffffffffffffffffffffffffffffffffffffffff021916908373ffffffffffffffffffffffffffffffffffffffff1602179055506000600360006101000a81548173ffffffffffffffffffffffffffffffffffffffff021916908373ffffffffffffffffffffffffffffffffffffffff1602179055506000600460006101000a81548173ffffffffffffffffffffffffffffffffffffffff021916908373ffffffffffffffffffffffffffffffffffffffff1602179055506000600660006101000a81548173ffffffffffffffffffffffffffffffffffffffff021916908373ffffffffffffffffffffffffffffffffffffffff16021790555034801561019b57600080fd5b506006336000806101000a81548173ffffffffffffffffffffffffffffffffffffffff021916908373ffffffffffffffffffffffffffffffffffffffff16021790555033600660006101000a81548173ffffffffffffffffffffffffffffffffffffffff021916908373ffffffffffffffffffffffffffffffffffffffff160217905550806007819055505061306b806102366000396000f3fe608060405234801561001057600080fd5b506004361061012b5760003560e01c806383499df6116100ad578063d3dd4f2911610071578063d3dd4f29146102f6578063d7050b0514610314578063d8327b2f14610330578063e1d388141461034c578063fae2c19b1461036a5761012b565b806383499df61461026457806385535cc514610280578063859329a21461029c57806399597b70146102ba578063c85045f7146102d85761012b565b80633ccfd60b116100f45780633ccfd60b146101e65780633ee52721146101f0578063411557d11461020c578063603eefa51461022a5780636efc00ee146102485761012b565b8062a8b1881461013057806314e8cd991461014c5780631b9155791461017c5780632f2ddf5414610198578063320b00d8146101c8575b600080fd5b61014a60048036038101906101459190611f7e565b61039a565b005b610166600480360381019061016191906122a3565b61046c565b60405161017391906122f4565b60405180910390f35b61019660048036038101906101919190611f7e565b610481565b005b6101b260048036038101906101ad919061230f565b610553565b6040516101bf91906124ef565b60405180910390f35b6101d0611577565b6040516101dd9190612520565b60405180910390f35b6101ee61159d565b005b61020a6004803603810190610205919061253b565b611696565b005b6102146118e8565b6040516102219190612520565b60405180910390f35b61023261190e565b60405161023f9190612520565b60405180910390f35b610262600480360381019061025d9190611f7e565b611934565b005b61027e60048036038101906102799190611f7e565b611a06565b005b61029a60048036038101906102959190611f7e565b611ad8565b005b6102a4611baa565b6040516102b191906125a0565b60405180910390f35b6102c2611bb0565b6040516102cf9190612520565b60405180910390f35b6102e0611bd4565b6040516102ed9190612520565b60405180910390f35b6102fe611bfa565b60405161030b9190612520565b60405180910390f35b61032e60048036038101906103299190611f7e565b611c20565b005b61034a60048036038101906103459190611f7e565b611cf2565b005b610354611dc3565b6040516103619190612520565b60405180910390f35b610384600480360381019061037f91906125bb565b611de9565b60405161039191906125a0565b60405180910390f35b60008054906101000a900473ffffffffffffffffffffffffffffffffffffffff1673ffffffffffffffffffffffffffffffffffffffff163373ffffffffffffffffffffffffffffffffffffffff1614610428576040517f08c379a000000000000000000000000000000000000000000000000000000000815260040161041f90612646565b60405180910390fd5b80600360006101000a81548173ffffffffffffffffffffffffffffffffffffffff021916908373ffffffffffffffffffffffffffffffffffffffff16021790555050565b60008161047884611dfb565b14905092915050565b60008054906101000a900473ffffffffffffffffffffffffffffffffffffffff1673ffffffffffffffffffffffffffffffffffffffff163373ffffffffffffffffffffffffffffffffffffffff161461050f576040517f08c379a000000000000000000000000000000000000000000000000000000000815260040161050690612646565b60405180910390fd5b80600160006101000a81548173ffffffffffffffffffffffffffffffffffffffff021916908373ffffffffffffffffffffffffffffffffffffffff16021790555050565b60608160075481111561059b576040517f08c379a0000000000000000000000000000000000000000000000000000000008152600401610592906126b2565b60405180910390fd5b60008314156106d057600167ffffffffffffffff8111156105bf576105be611fc1565b5b6040519080825280602002602001820160405280156105f857816020015b6105e5611ea3565b8152602001906001900390816105dd5790505b50915060405180606001604052806001815260200160011515815260200173__$d18125c9528dfe4cb67fa81d29b24a1cca$__6350db78fc60018060016000806040518663ffffffff1660e01b8152600401610658959493929190612752565b6101006040518083038186803b15801561067157600080fd5b505af4158015610685573d6000803e3d6000fd5b505050506040513d601f19601f820116820180604052508101906106a99190612884565b815250826000815181106106c0576106bf6128b2565b5b6020026020010181905250611571565b60018314156109a557600367ffffffffffffffff8111156106f4576106f3611fc1565b5b60405190808252806020026020018201604052801561072d57816020015b61071a611ea3565b8152602001906001900390816107125790505b50915060405180606001604052806001815260200160011515815260200173__$d18125c9528dfe4cb67fa81d29b24a1cca$__6350db78fc60018060016000806040518663ffffffff1660e01b815260040161078d959493929190612752565b6101006040518083038186803b1580156107a657600080fd5b505af41580156107ba573d6000803e3d6000fd5b505050506040513d601f19601f820116820180604052508101906107de9190612884565b815250826000815181106107f5576107f46128b2565b5b602002602001018190525060405180606001604052806002815260200160011515815260200173__$d18125c9528dfe4cb67fa81d29b24a1cca$__6350db78fc60018060016000806040518663ffffffff1660e01b815260040161085d959493929190612752565b6101006040518083038186803b15801561087657600080fd5b505af415801561088a573d6000803e3d6000fd5b505050506040513d601f19601f820116820180604052508101906108ae9190612884565b815250826001815181106108c5576108c46128b2565b5b602002602001018190525060405180606001604052806003815260200160011515815260200173__$d18125c9528dfe4cb67fa81d29b24a1cca$__6350db78fc60018060016000806040518663ffffffff1660e01b815260040161092d959493929190612752565b6101006040518083038186803b15801561094657600080fd5b505af415801561095a573d6000803e3d6000fd5b505050506040513d601f19601f8201168201806040525081019061097e9190612884565b81525082600281518110610995576109946128b2565b5b6020026020010181905250611570565b6002831415610c7c57600367ffffffffffffffff8111156109c9576109c8611fc1565b5b604051908082528060200260200182016040528015610a0257816020015b6109ef611ea3565b8152602001906001900390816109e75790505b50915060405180606001604052806001815260200160011515815260200173__$d18125c9528dfe4cb67fa81d29b24a1cca$__6350db78fc60018060016000806040518663ffffffff1660e01b8152600401610a62959493929190612752565b6101006040518083038186803b158015610a7b57600080fd5b505af4158015610a8f573d6000803e3d6000fd5b505050506040513d601f19601f82011682018060405250810190610ab39190612884565b81525082600081518110610aca57610ac96128b2565b5b602002602001018190525060405180606001604052806002815260200160011515815260200173__$d18125c9528dfe4cb67fa81d29b24a1cca$__6350db78fc600260016003600060016040518663ffffffff1660e01b8152600401610b34959493929190612957565b6101006040518083038186803b158015610b4d57600080fd5b505af4158015610b61573d6000803e3d6000fd5b505050506040513d601f19601f82011682018060405250810190610b859190612884565b81525082600181518110610b9c57610b9b6128b2565b5b602002602001018190525060405180606001604052806003815260200160011515815260200173__$d18125c9528dfe4cb67fa81d29b24a1cca$__6350db78fc60018060016000806040518663ffffffff1660e01b8152600401610c04959493929190612752565b6101006040518083038186803b158015610c1d57600080fd5b505af4158015610c31573d6000803e3d6000fd5b505050506040513d601f19601f82011682018060405250810190610c559190612884565b81525082600281518110610c6c57610c6b6128b2565b5b602002602001018190525061156f565b6003831415610f5757600367ffffffffffffffff811115610ca057610c9f611fc1565b5b604051908082528060200260200182016040528015610cd957816020015b610cc6611ea3565b815260200190600190039081610cbe5790505b50915060405180606001604052806001815260200160011515815260200173__$d18125c9528dfe4cb67fa81d29b24a1cca$__6350db78fc600560016005600060016040518663ffffffff1660e01b8152600401610d3b9594939291906129e5565b6101006040518083038186803b158015610d5457600080fd5b505af4158015610d68573d6000803e3d6000fd5b505050506040513d601f19601f82011682018060405250810190610d8c9190612884565b81525082600081518110610da357610da26128b2565b5b602002602001018190525060405180606001604052806002815260200160011515815260200173__$d18125c9528dfe4cb67fa81d29b24a1cca$__6350db78fc600560016005600060016040518663ffffffff1660e01b8152600401610e0d9594939291906129e5565b6101006040518083038186803b158015610e2657600080fd5b505af4158015610e3a573d6000803e3d6000fd5b505050506040513d601f19601f82011682018060405250810190610e5e9190612884565b81525082600181518110610e7557610e746128b2565b5b602002602001018190525060405180606001604052806003815260200160011515815260200173__$d18125c9528dfe4cb67fa81d29b24a1cca$__6350db78fc600560016005600060016040518663ffffffff1660e01b8152600401610edf9594939291906129e5565b6101006040518083038186803b158015610ef857600080fd5b505af4158015610f0c573d6000803e3d6000fd5b505050506040513d601f19601f82011682018060405250810190610f309190612884565b81525082600281518110610f4757610f466128b2565b5b602002602001018190525061156e565b600483141561122f57600367ffffffffffffffff811115610f7b57610f7a611fc1565b5b604051908082528060200260200182016040528015610fb457816020015b610fa1611ea3565b815260200190600190039081610f995790505b50915060405180606001604052806001815260200160011515815260200173__$d18125c9528dfe4cb67fa81d29b24a1cca$__6350db78fc60086001600c6000806040518663ffffffff1660e01b8152600401611015959493929190612aae565b6101006040518083038186803b15801561102e57600080fd5b505af4158015611042573d6000803e3d6000fd5b505050506040513d601f19601f820116820180604052508101906110669190612884565b8152508260008151811061107d5761107c6128b2565b5b602002602001018190525060405180606001604052806002815260200160011515815260200173__$d18125c9528dfe4cb67fa81d29b24a1cca$__6350db78fc60086001600c6000806040518663ffffffff1660e01b81526004016110e6959493929190612aae565b6101006040518083038186803b1580156110ff57600080fd5b505af4158015611113573d6000803e3d6000fd5b505050506040513d601f19601f820116820180604052508101906111379190612884565b8152508260018151811061114e5761114d6128b2565b5b602002602001018190525060405180606001604052806003815260200160011515815260200173__$d18125c9528dfe4cb67fa81d29b24a1cca$__6350db78fc60086001600c6000806040518663ffffffff1660e01b81526004016111b7959493929190612aae565b6101006040518083038186803b1580156111d057600080fd5b505af41580156111e4573d6000803e3d6000fd5b505050506040513d601f19601f820116820180604052508101906112089190612884565b8152508260028151811061121f5761121e6128b2565b5b602002602001018190525061156d565b600583141561143857600267ffffffffffffffff81111561125357611252611fc1565b5b60405190808252806020026020018201604052801561128c57816020015b611279611ea3565b8152602001906001900390816112715790505b50915060405180606001604052806001815260200160011515815260200173__$d18125c9528dfe4cb67fa81d29b24a1cca$__6350db78fc60126001600c600060026040518663ffffffff1660e01b81526004016112ee959493929190612b3c565b6101006040518083038186803b15801561130757600080fd5b505af415801561131b573d6000803e3d6000fd5b505050506040513d601f19601f8201168201806040525081019061133f9190612884565b81525082600081518110611356576113556128b2565b5b602002602001018190525060405180606001604052806002815260200160011515815260200173__$d18125c9528dfe4cb67fa81d29b24a1cca$__6350db78fc600f6001600f600060056040518663ffffffff1660e01b81526004016113c0959493929190612bca565b6101006040518083038186803b1580156113d957600080fd5b505af41580156113ed573d6000803e3d6000fd5b505050506040513d601f19601f820116820180604052508101906114119190612884565b81525082600181518110611428576114276128b2565b5b602002602001018190525061156c565b600683141561156b57600167ffffffffffffffff81111561145c5761145b611fc1565b5b60405190808252806020026020018201604052801561149557816020015b611482611ea3565b81526020019060019003908161147a5790505b50915060405180606001604052806001815260200160011515815260200173__$d18125c9528dfe4cb67fa81d29b24a1cca$__6350db78fc6023600160326000600a6040518663ffffffff1660e01b81526004016114f7959493929190612cce565b6101006040518083038186803b15801561151057600080fd5b505af4158015611524573d6000803e3d6000fd5b505050506040513d601f19601f820116820180604052508101906115489190612884565b8152508260008151811061155f5761155e6128b2565b5b60200260200101819052505b5b5b5b5b5b5b50919050565b600260009054906101000a900473ffffffffffffffffffffffffffffffffffffffff1681565b60008054906101000a900473ffffffffffffffffffffffffffffffffffffffff1673ffffffffffffffffffffffffffffffffffffffff163373ffffffffffffffffffffffffffffffffffffffff161461162b576040517f08c379a000000000000000000000000000000000000000000000000000000000815260040161162290612646565b60405180910390fd5b600660009054906101000a900473ffffffffffffffffffffffffffffffffffffffff1673ffffffffffffffffffffffffffffffffffffffff166108fc479081150290604051600060405180830381858888f19350505050158015611693573d6000803e3d6000fd5b50565b60008054906101000a900473ffffffffffffffffffffffffffffffffffffffff1673ffffffffffffffffffffffffffffffffffffffff163373ffffffffffffffffffffffffffffffffffffffff16148061173d5750600160009054906101000a900473ffffffffffffffffffffffffffffffffffffffff1673ffffffffffffffffffffffffffffffffffffffff163373ffffffffffffffffffffffffffffffffffffffff16145b806117955750600260009054906101000a900473ffffffffffffffffffffffffffffffffffffffff1673ffffffffffffffffffffffffffffffffffffffff163373ffffffffffffffffffffffffffffffffffffffff16145b806117ed5750600360009054906101000a900473ffffffffffffffffffffffffffffffffffffffff1673ffffffffffffffffffffffffffffffffffffffff163373ffffffffffffffffffffffffffffffffffffffff16145b61182c576040517f08c379a000000000000000000000000000000000000000000000000000000000815260040161182390612d93565b60405180910390fd5b80156118e357600073__$b4ae538d42a0e0bb8330684d08e51a40b4$__63c0d2e8e6856040518263ffffffff1660e01b815260040161186b9190612f67565b60206040518083038186803b15801561188357600080fd5b505af4158015611897573d6000803e3d6000fd5b505050506040513d601f19601f820116820180604052508101906118bb9190612f83565b90506001836118ca9190612fdf565b6008600083815260200190815260200160002081905550505b505050565b600660009054906101000a900473ffffffffffffffffffffffffffffffffffffffff1681565b600160009054906101000a900473ffffffffffffffffffffffffffffffffffffffff1681565b60008054906101000a900473ffffffffffffffffffffffffffffffffffffffff1673ffffffffffffffffffffffffffffffffffffffff163373ffffffffffffffffffffffffffffffffffffffff16146119c2576040517f08c379a00000000000000000000000000000000000000000000000000000000081526004016119b990612646565b60405180910390fd5b80600460006101000a81548173ffffffffffffffffffffffffffffffffffffffff021916908373ffffffffffffffffffffffffffffffffffffffff16021790555050565b60008054906101000a900473ffffffffffffffffffffffffffffffffffffffff1673ffffffffffffffffffffffffffffffffffffffff163373ffffffffffffffffffffffffffffffffffffffff1614611a94576040517f08c379a0000000000000000000000000000000000000000000000000000000008152600401611a8b90612646565b60405180910390fd5b80600260006101000a81548173ffffffffffffffffffffffffffffffffffffffff021916908373ffffffffffffffffffffffffffffffffffffffff16021790555050565b60008054906101000a900473ffffffffffffffffffffffffffffffffffffffff1673ffffffffffffffffffffffffffffffffffffffff163373ffffffffffffffffffffffffffffffffffffffff1614611b66576040517f08c379a0000000000000000000000000000000000000000000000000000000008152600401611b5d90612646565b60405180910390fd5b80600660006101000a81548173ffffffffffffffffffffffffffffffffffffffff021916908373ffffffffffffffffffffffffffffffffffffffff16021790555050565b60075481565b60008054906101000a900473ffffffffffffffffffffffffffffffffffffffff1681565b600460009054906101000a900473ffffffffffffffffffffffffffffffffffffffff1681565b600560009054906101000a900473ffffffffffffffffffffffffffffffffffffffff1681565b60008054906101000a900473ffffffffffffffffffffffffffffffffffffffff1673ffffffffffffffffffffffffffffffffffffffff163373ffffffffffffffffffffffffffffffffffffffff1614611cae576040517f08c379a0000000000000000000000000000000000000000000000000000000008152600401611ca590612646565b60405180910390fd5b80600560006101000a81548173ffffffffffffffffffffffffffffffffffffffff021916908373ffffffffffffffffffffffffffffffffffffffff16021790555050565b60008054906101000a900473ffffffffffffffffffffffffffffffffffffffff1673ffffffffffffffffffffffffffffffffffffffff163373ffffffffffffffffffffffffffffffffffffffff1614611d80576040517f08c379a0000000000000000000000000000000000000000000000000000000008152600401611d7790612646565b60405180910390fd5b806000806101000a81548173ffffffffffffffffffffffffffffffffffffffff021916908373ffffffffffffffffffffffffffffffffffffffff16021790555050565b600360009054906101000a900473ffffffffffffffffffffffffffffffffffffffff1681565b6000611df482611dfb565b9050919050565b60008073__$b4ae538d42a0e0bb8330684d08e51a40b4$__63c0d2e8e6846040518263ffffffff1660e01b8152600401611e359190612f67565b60206040518083038186803b158015611e4d57600080fd5b505af4158015611e61573d6000803e3d6000fd5b505050506040513d601f19601f82011682018060405250810190611e859190612f83565b90506008600082815260200190815260200160002054915050919050565b604051806060016040528060008152602001600015158152602001611ec6611ecc565b81525090565b60405180610100016040528060008152602001600081526020016000815260200160008152602001600081526020016000815260200160008152602001600081525090565b6000604051905090565b600080fd5b600073ffffffffffffffffffffffffffffffffffffffff82169050919050565b6000611f4b82611f20565b9050919050565b611f5b81611f40565b8114611f6657600080fd5b50565b600081359050611f7881611f52565b92915050565b600060208284031215611f9457611f93611f1b565b5b6000611fa284828501611f69565b91505092915050565b600080fd5b6000601f19601f8301169050919050565b7f4e487b7100000000000000000000000000000000000000000000000000000000600052604160045260246000fd5b611ff982611fb0565b810181811067ffffffffffffffff8211171561201857612017611fc1565b5b80604052505050565b600061202b611f11565b90506120378282611ff0565b919050565b60008115159050919050565b6120518161203c565b811461205c57600080fd5b50565b60008135905061206e81612048565b92915050565b6000819050919050565b61208781612074565b811461209257600080fd5b50565b6000813590506120a48161207e565b92915050565b600061010082840312156120c1576120c0611fab565b5b6120cc610100612021565b905060006120dc84828501612095565b60008301525060206120f084828501612095565b602083015250604061210484828501612095565b604083015250606061211884828501612095565b606083015250608061212c84828501612095565b60808301525060a061214084828501612095565b60a08301525060c061215484828501612095565b60c08301525060e061216884828501612095565b60e08301525092915050565b60006060828403121561218a57612189611fab565b5b6121946060612021565b905060006121a484828501612095565b60008301525060206121b884828501612095565b60208301525060406121cc84828501612095565b60408301525092915050565b600061022082840312156121ef576121ee611fab565b5b6121fa610100612021565b9050600061220a8482850161205f565b600083015250602061221e84828501611f69565b602083015250604061223284828501612095565b604083015250606061224684828501612095565b606083015250608061225a84828501612095565b60808301525060a061226e84828501612095565b60a08301525060c0612282848285016120aa565b60c0830152506101c061229784828501612174565b60e08301525092915050565b60008061024083850312156122bb576122ba611f1b565b5b60006122c9858286016121d8565b9250506102206122db85828601612095565b9150509250929050565b6122ee8161203c565b82525050565b600060208201905061230960008301846122e5565b92915050565b60006020828403121561232557612324611f1b565b5b600061233384828501612095565b91505092915050565b600081519050919050565b600082825260208201905092915050565b6000819050602082019050919050565b61237181612074565b82525050565b6123808161203c565b82525050565b6101008201600082015161239d6000850182612368565b5060208201516123b06020850182612368565b5060408201516123c36040850182612368565b5060608201516123d66060850182612368565b5060808201516123e96080850182612368565b5060a08201516123fc60a0850182612368565b5060c082015161240f60c0850182612368565b5060e082015161242260e0850182612368565b50505050565b6101408201600082015161243f6000850182612368565b5060208201516124526020850182612377565b5060408201516124656040850182612386565b50505050565b60006124778383612428565b6101408301905092915050565b6000602082019050919050565b600061249c8261233c565b6124a68185612347565b93506124b183612358565b8060005b838110156124e25781516124c9888261246b565b97506124d483612484565b9250506001810190506124b5565b5085935050505092915050565b600060208201905081810360008301526125098184612491565b905092915050565b61251a81611f40565b82525050565b60006020820190506125356000830184612511565b92915050565b6000806000610260848603121561255557612554611f1b565b5b6000612563868287016121d8565b93505061022061257586828701612095565b9250506102406125878682870161205f565b9150509250925092565b61259a81612074565b82525050565b60006020820190506125b56000830184612591565b92915050565b600061022082840312156125d2576125d1611f1b565b5b60006125e0848285016121d8565b91505092915050565b600082825260208201905092915050565b7f43616e2062652063616c6c6564206f6e6c7920627920474d0000000000000000600082015250565b60006126306018836125e9565b915061263b826125fa565b602082019050919050565b6000602082019050818103600083015261265f81612623565b9050919050565b7f496e76616c6964206c6576656c20696e64657800000000000000000000000000600082015250565b600061269c6013836125e9565b91506126a782612666565b602082019050919050565b600060208201905081810360008301526126cb8161268f565b9050919050565b6000819050919050565b6000819050919050565b60006127016126fc6126f7846126d2565b6126dc565b612074565b9050919050565b612711816126e6565b82525050565b6000819050919050565b600061273c61273761273284612717565b6126dc565b612074565b9050919050565b61274c81612721565b82525050565b600060a0820190506127676000830188612708565b6127746020830187612708565b6127816040830186612708565b61278e6060830185612743565b61279b6080830184612743565b9695505050505050565b6000815190506127b48161207e565b92915050565b600061010082840312156127d1576127d0611fab565b5b6127dc610100612021565b905060006127ec848285016127a5565b6000830152506020612800848285016127a5565b6020830152506040612814848285016127a5565b6040830152506060612828848285016127a5565b606083015250608061283c848285016127a5565b60808301525060a0612850848285016127a5565b60a08301525060c0612864848285016127a5565b60c08301525060e0612878848285016127a5565b60e08301525092915050565b6000610100828403121561289b5761289a611f1b565b5b60006128a9848285016127ba565b91505092915050565b7f4e487b7100000000000000000000000000000000000000000000000000000000600052603260045260246000fd5b6000819050919050565b60006129066129016128fc846128e1565b6126dc565b612074565b9050919050565b612916816128eb565b82525050565b6000819050919050565b600061294161293c6129378461291c565b6126dc565b612074565b9050919050565b61295181612926565b82525050565b600060a08201905061296c600083018861290d565b6129796020830187612708565b6129866040830186612948565b6129936060830185612743565b6129a06080830184612708565b9695505050505050565b6000819050919050565b60006129cf6129ca6129c5846129aa565b6126dc565b612074565b9050919050565b6129df816129b4565b82525050565b600060a0820190506129fa60008301886129d6565b612a076020830187612708565b612a1460408301866129d6565b612a216060830185612743565b612a2e6080830184612708565b9695505050505050565b6000819050919050565b6000612a5d612a58612a5384612a38565b6126dc565b612074565b9050919050565b612a6d81612a42565b82525050565b6000819050919050565b6000612a98612a93612a8e84612a73565b6126dc565b612074565b9050919050565b612aa881612a7d565b82525050565b600060a082019050612ac36000830188612a64565b612ad06020830187612708565b612add6040830186612a9f565b612aea6060830185612743565b612af76080830184612743565b9695505050505050565b6000819050919050565b6000612b26612b21612b1c84612b01565b6126dc565b612074565b9050919050565b612b3681612b0b565b82525050565b600060a082019050612b516000830188612b2d565b612b5e6020830187612708565b612b6b6040830186612a9f565b612b786060830185612743565b612b85608083018461290d565b9695505050505050565b6000819050919050565b6000612bb4612baf612baa84612b8f565b6126dc565b612074565b9050919050565b612bc481612b99565b82525050565b600060a082019050612bdf6000830188612bbb565b612bec6020830187612708565b612bf96040830186612bbb565b612c066060830185612743565b612c1360808301846129d6565b9695505050505050565b6000819050919050565b6000612c42612c3d612c3884612c1d565b6126dc565b612074565b9050919050565b612c5281612c27565b82525050565b6000819050919050565b6000612c7d612c78612c7384612c58565b6126dc565b612074565b9050919050565b612c8d81612c62565b82525050565b6000819050919050565b6000612cb8612cb3612cae84612c93565b6126dc565b612074565b9050919050565b612cc881612c9d565b82525050565b600060a082019050612ce36000830188612c49565b612cf06020830187612708565b612cfd6040830186612c84565b612d0a6060830185612743565b612d176080830184612cbf565b9695505050505050565b7f4f6e6c792067616d6520636f6e7472616374732063616e2063616c6c2074686960008201527f73206d6574686f64000000000000000000000000000000000000000000000000602082015250565b6000612d7d6028836125e9565b9150612d8882612d21565b604082019050919050565b60006020820190508181036000830152612dac81612d70565b9050919050565b612dbc8161203c565b82525050565b612dcb81611f40565b82525050565b612dda81612074565b82525050565b61010082016000820151612df76000850182612dd1565b506020820151612e0a6020850182612dd1565b506040820151612e1d6040850182612dd1565b506060820151612e306060850182612dd1565b506080820151612e436080850182612dd1565b5060a0820151612e5660a0850182612dd1565b5060c0820151612e6960c0850182612dd1565b5060e0820151612e7c60e0850182612dd1565b50505050565b606082016000820151612e986000850182612dd1565b506020820151612eab6020850182612dd1565b506040820151612ebe6040850182612dd1565b50505050565b61022082016000820151612edb6000850182612db3565b506020820151612eee6020850182612dc2565b506040820151612f016040850182612dd1565b506060820151612f146060850182612dd1565b506080820151612f276080850182612dd1565b5060a0820151612f3a60a0850182612dd1565b5060c0820151612f4d60c0850182612de0565b5060e0820151612f616101c0850182612e82565b50505050565b600061022082019050612f7d6000830184612ec4565b92915050565b600060208284031215612f9957612f98611f1b565b5b6000612fa7848285016127a5565b91505092915050565b7f4e487b7100000000000000000000000000000000000000000000000000000000600052601160045260246000fd5b6000612fea82612074565b9150612ff583612074565b9250827fffffffffffffffffffffffffffffffffffffffffffffffffffffffffffffffff0382111561302a57613029612fb0565b5b82820190509291505056fea264697066735822122063632e0dcb24918e69ddcb2eb0dab2d96bfb026f4334c2ebbb8bcf7cfd264f5864736f6c63430008090033",
			"opcodes": "PUSH1 0x80 PUSH1 0x40 MSTORE PUSH1 0x0 DUP1 PUSH1 0x0 PUSH2 0x100 EXP DUP2 SLOAD DUP2 PUSH20 0xFFFFFFFFFFFFFFFFFFFFFFFFFFFFFFFFFFFFFFFF MUL NOT AND SWAP1 DUP4 PUSH20 0xFFFFFFFFFFFFFFFFFFFFFFFFFFFFFFFFFFFFFFFF AND MUL OR SWAP1 SSTORE POP PUSH1 0x0 PUSH1 0x1 PUSH1 0x0 PUSH2 0x100 EXP DUP2 SLOAD DUP2 PUSH20 0xFFFFFFFFFFFFFFFFFFFFFFFFFFFFFFFFFFFFFFFF MUL NOT AND SWAP1 DUP4 PUSH20 0xFFFFFFFFFFFFFFFFFFFFFFFFFFFFFFFFFFFFFFFF AND MUL OR SWAP1 SSTORE POP PUSH1 0x0 PUSH1 0x2 PUSH1 0x0 PUSH2 0x100 EXP DUP2 SLOAD DUP2 PUSH20 0xFFFFFFFFFFFFFFFFFFFFFFFFFFFFFFFFFFFFFFFF MUL NOT AND SWAP1 DUP4 PUSH20 0xFFFFFFFFFFFFFFFFFFFFFFFFFFFFFFFFFFFFFFFF AND MUL OR SWAP1 SSTORE POP PUSH1 0x0 PUSH1 0x3 PUSH1 0x0 PUSH2 0x100 EXP DUP2 SLOAD DUP2 PUSH20 0xFFFFFFFFFFFFFFFFFFFFFFFFFFFFFFFFFFFFFFFF MUL NOT AND SWAP1 DUP4 PUSH20 0xFFFFFFFFFFFFFFFFFFFFFFFFFFFFFFFFFFFFFFFF AND MUL OR SWAP1 SSTORE POP PUSH1 0x0 PUSH1 0x4 PUSH1 0x0 PUSH2 0x100 EXP DUP2 SLOAD DUP2 PUSH20 0xFFFFFFFFFFFFFFFFFFFFFFFFFFFFFFFFFFFFFFFF MUL NOT AND SWAP1 DUP4 PUSH20 0xFFFFFFFFFFFFFFFFFFFFFFFFFFFFFFFFFFFFFFFF AND MUL OR SWAP1 SSTORE POP PUSH1 0x0 PUSH1 0x6 PUSH1 0x0 PUSH2 0x100 EXP DUP2 SLOAD DUP2 PUSH20 0xFFFFFFFFFFFFFFFFFFFFFFFFFFFFFFFFFFFFFFFF MUL NOT AND SWAP1 DUP4 PUSH20 0xFFFFFFFFFFFFFFFFFFFFFFFFFFFFFFFFFFFFFFFF AND MUL OR SWAP1 SSTORE POP CALLVALUE DUP1 ISZERO PUSH2 0x19B JUMPI PUSH1 0x0 DUP1 REVERT JUMPDEST POP PUSH1 0x6 CALLER PUSH1 0x0 DUP1 PUSH2 0x100 EXP DUP2 SLOAD DUP2 PUSH20 0xFFFFFFFFFFFFFFFFFFFFFFFFFFFFFFFFFFFFFFFF MUL NOT AND SWAP1 DUP4 PUSH20 0xFFFFFFFFFFFFFFFFFFFFFFFFFFFFFFFFFFFFFFFF AND MUL OR SWAP1 SSTORE POP CALLER PUSH1 0x6 PUSH1 0x0 PUSH2 0x100 EXP DUP2 SLOAD DUP2 PUSH20 0xFFFFFFFFFFFFFFFFFFFFFFFFFFFFFFFFFFFFFFFF MUL NOT AND SWAP1 DUP4 PUSH20 0xFFFFFFFFFFFFFFFFFFFFFFFFFFFFFFFFFFFFFFFF AND MUL OR SWAP1 SSTORE POP DUP1 PUSH1 0x7 DUP2 SWAP1 SSTORE POP POP PUSH2 0x306B DUP1 PUSH2 0x236 PUSH1 0x0 CODECOPY PUSH1 0x0 RETURN INVALID PUSH1 0x80 PUSH1 0x40 MSTORE CALLVALUE DUP1 ISZERO PUSH2 0x10 JUMPI PUSH1 0x0 DUP1 REVERT JUMPDEST POP PUSH1 0x4 CALLDATASIZE LT PUSH2 0x12B JUMPI PUSH1 0x0 CALLDATALOAD PUSH1 0xE0 SHR DUP1 PUSH4 0x83499DF6 GT PUSH2 0xAD JUMPI DUP1 PUSH4 0xD3DD4F29 GT PUSH2 0x71 JUMPI DUP1 PUSH4 0xD3DD4F29 EQ PUSH2 0x2F6 JUMPI DUP1 PUSH4 0xD7050B05 EQ PUSH2 0x314 JUMPI DUP1 PUSH4 0xD8327B2F EQ PUSH2 0x330 JUMPI DUP1 PUSH4 0xE1D38814 EQ PUSH2 0x34C JUMPI DUP1 PUSH4 0xFAE2C19B EQ PUSH2 0x36A JUMPI PUSH2 0x12B JUMP JUMPDEST DUP1 PUSH4 0x83499DF6 EQ PUSH2 0x264 JUMPI DUP1 PUSH4 0x85535CC5 EQ PUSH2 0x280 JUMPI DUP1 PUSH4 0x859329A2 EQ PUSH2 0x29C JUMPI DUP1 PUSH4 0x99597B70 EQ PUSH2 0x2BA JUMPI DUP1 PUSH4 0xC85045F7 EQ PUSH2 0x2D8 JUMPI PUSH2 0x12B JUMP JUMPDEST DUP1 PUSH4 0x3CCFD60B GT PUSH2 0xF4 JUMPI DUP1 PUSH4 0x3CCFD60B EQ PUSH2 0x1E6 JUMPI DUP1 PUSH4 0x3EE52721 EQ PUSH2 0x1F0 JUMPI DUP1 PUSH4 0x411557D1 EQ PUSH2 0x20C JUMPI DUP1 PUSH4 0x603EEFA5 EQ PUSH2 0x22A JUMPI DUP1 PUSH4 0x6EFC00EE EQ PUSH2 0x248 JUMPI PUSH2 0x12B JUMP JUMPDEST DUP1 PUSH3 0xA8B188 EQ PUSH2 0x130 JUMPI DUP1 PUSH4 0x14E8CD99 EQ PUSH2 0x14C JUMPI DUP1 PUSH4 0x1B915579 EQ PUSH2 0x17C JUMPI DUP1 PUSH4 0x2F2DDF54 EQ PUSH2 0x198 JUMPI DUP1 PUSH4 0x320B00D8 EQ PUSH2 0x1C8 JUMPI JUMPDEST PUSH1 0x0 DUP1 REVERT JUMPDEST PUSH2 0x14A PUSH1 0x4 DUP1 CALLDATASIZE SUB DUP2 ADD SWAP1 PUSH2 0x145 SWAP2 SWAP1 PUSH2 0x1F7E JUMP JUMPDEST PUSH2 0x39A JUMP JUMPDEST STOP JUMPDEST PUSH2 0x166 PUSH1 0x4 DUP1 CALLDATASIZE SUB DUP2 ADD SWAP1 PUSH2 0x161 SWAP2 SWAP1 PUSH2 0x22A3 JUMP JUMPDEST PUSH2 0x46C JUMP JUMPDEST PUSH1 0x40 MLOAD PUSH2 0x173 SWAP2 SWAP1 PUSH2 0x22F4 JUMP JUMPDEST PUSH1 0x40 MLOAD DUP1 SWAP2 SUB SWAP1 RETURN JUMPDEST PUSH2 0x196 PUSH1 0x4 DUP1 CALLDATASIZE SUB DUP2 ADD SWAP1 PUSH2 0x191 SWAP2 SWAP1 PUSH2 0x1F7E JUMP JUMPDEST PUSH2 0x481 JUMP JUMPDEST STOP JUMPDEST PUSH2 0x1B2 PUSH1 0x4 DUP1 CALLDATASIZE SUB DUP2 ADD SWAP1 PUSH2 0x1AD SWAP2 SWAP1 PUSH2 0x230F JUMP JUMPDEST PUSH2 0x553 JUMP JUMPDEST PUSH1 0x40 MLOAD PUSH2 0x1BF SWAP2 SWAP1 PUSH2 0x24EF JUMP JUMPDEST PUSH1 0x40 MLOAD DUP1 SWAP2 SUB SWAP1 RETURN JUMPDEST PUSH2 0x1D0 PUSH2 0x1577 JUMP JUMPDEST PUSH1 0x40 MLOAD PUSH2 0x1DD SWAP2 SWAP1 PUSH2 0x2520 JUMP JUMPDEST PUSH1 0x40 MLOAD DUP1 SWAP2 SUB SWAP1 RETURN JUMPDEST PUSH2 0x1EE PUSH2 0x159D JUMP JUMPDEST STOP JUMPDEST PUSH2 0x20A PUSH1 0x4 DUP1 CALLDATASIZE SUB DUP2 ADD SWAP1 PUSH2 0x205 SWAP2 SWAP1 PUSH2 0x253B JUMP JUMPDEST PUSH2 0x1696 JUMP JUMPDEST STOP JUMPDEST PUSH2 0x214 PUSH2 0x18E8 JUMP JUMPDEST PUSH1 0x40 MLOAD PUSH2 0x221 SWAP2 SWAP1 PUSH2 0x2520 JUMP JUMPDEST PUSH1 0x40 MLOAD DUP1 SWAP2 SUB SWAP1 RETURN JUMPDEST PUSH2 0x232 PUSH2 0x190E JUMP JUMPDEST PUSH1 0x40 MLOAD PUSH2 0x23F SWAP2 SWAP1 PUSH2 0x2520 JUMP JUMPDEST PUSH1 0x40 MLOAD DUP1 SWAP2 SUB SWAP1 RETURN JUMPDEST PUSH2 0x262 PUSH1 0x4 DUP1 CALLDATASIZE SUB DUP2 ADD SWAP1 PUSH2 0x25D SWAP2 SWAP1 PUSH2 0x1F7E JUMP JUMPDEST PUSH2 0x1934 JUMP JUMPDEST STOP JUMPDEST PUSH2 0x27E PUSH1 0x4 DUP1 CALLDATASIZE SUB DUP2 ADD SWAP1 PUSH2 0x279 SWAP2 SWAP1 PUSH2 0x1F7E JUMP JUMPDEST PUSH2 0x1A06 JUMP JUMPDEST STOP JUMPDEST PUSH2 0x29A PUSH1 0x4 DUP1 CALLDATASIZE SUB DUP2 ADD SWAP1 PUSH2 0x295 SWAP2 SWAP1 PUSH2 0x1F7E JUMP JUMPDEST PUSH2 0x1AD8 JUMP JUMPDEST STOP JUMPDEST PUSH2 0x2A4 PUSH2 0x1BAA JUMP JUMPDEST PUSH1 0x40 MLOAD PUSH2 0x2B1 SWAP2 SWAP1 PUSH2 0x25A0 JUMP JUMPDEST PUSH1 0x40 MLOAD DUP1 SWAP2 SUB SWAP1 RETURN JUMPDEST PUSH2 0x2C2 PUSH2 0x1BB0 JUMP JUMPDEST PUSH1 0x40 MLOAD PUSH2 0x2CF SWAP2 SWAP1 PUSH2 0x2520 JUMP JUMPDEST PUSH1 0x40 MLOAD DUP1 SWAP2 SUB SWAP1 RETURN JUMPDEST PUSH2 0x2E0 PUSH2 0x1BD4 JUMP JUMPDEST PUSH1 0x40 MLOAD PUSH2 0x2ED SWAP2 SWAP1 PUSH2 0x2520 JUMP JUMPDEST PUSH1 0x40 MLOAD DUP1 SWAP2 SUB SWAP1 RETURN JUMPDEST PUSH2 0x2FE PUSH2 0x1BFA JUMP JUMPDEST PUSH1 0x40 MLOAD PUSH2 0x30B SWAP2 SWAP1 PUSH2 0x2520 JUMP JUMPDEST PUSH1 0x40 MLOAD DUP1 SWAP2 SUB SWAP1 RETURN JUMPDEST PUSH2 0x32E PUSH1 0x4 DUP1 CALLDATASIZE SUB DUP2 ADD SWAP1 PUSH2 0x329 SWAP2 SWAP1 PUSH2 0x1F7E JUMP JUMPDEST PUSH2 0x1C20 JUMP JUMPDEST STOP JUMPDEST PUSH2 0x34A PUSH1 0x4 DUP1 CALLDATASIZE SUB DUP2 ADD SWAP1 PUSH2 0x345 SWAP2 SWAP1 PUSH2 0x1F7E JUMP JUMPDEST PUSH2 0x1CF2 JUMP JUMPDEST STOP JUMPDEST PUSH2 0x354 PUSH2 0x1DC3 JUMP JUMPDEST PUSH1 0x40 MLOAD PUSH2 0x361 SWAP2 SWAP1 PUSH2 0x2520 JUMP JUMPDEST PUSH1 0x40 MLOAD DUP1 SWAP2 SUB SWAP1 RETURN JUMPDEST PUSH2 0x384 PUSH1 0x4 DUP1 CALLDATASIZE SUB DUP2 ADD SWAP1 PUSH2 0x37F SWAP2 SWAP1 PUSH2 0x25BB JUMP JUMPDEST PUSH2 0x1DE9 JUMP JUMPDEST PUSH1 0x40 MLOAD PUSH2 0x391 SWAP2 SWAP1 PUSH2 0x25A0 JUMP JUMPDEST PUSH1 0x40 MLOAD DUP1 SWAP2 SUB SWAP1 RETURN JUMPDEST PUSH1 0x0 DUP1 SLOAD SWAP1 PUSH2 0x100 EXP SWAP1 DIV PUSH20 0xFFFFFFFFFFFFFFFFFFFFFFFFFFFFFFFFFFFFFFFF AND PUSH20 0xFFFFFFFFFFFFFFFFFFFFFFFFFFFFFFFFFFFFFFFF AND CALLER PUSH20 0xFFFFFFFFFFFFFFFFFFFFFFFFFFFFFFFFFFFFFFFF AND EQ PUSH2 0x428 JUMPI PUSH1 0x40 MLOAD PUSH32 0x8C379A000000000000000000000000000000000000000000000000000000000 DUP2 MSTORE PUSH1 0x4 ADD PUSH2 0x41F SWAP1 PUSH2 0x2646 JUMP JUMPDEST PUSH1 0x40 MLOAD DUP1 SWAP2 SUB SWAP1 REVERT JUMPDEST DUP1 PUSH1 0x3 PUSH1 0x0 PUSH2 0x100 EXP DUP2 SLOAD DUP2 PUSH20 0xFFFFFFFFFFFFFFFFFFFFFFFFFFFFFFFFFFFFFFFF MUL NOT AND SWAP1 DUP4 PUSH20 0xFFFFFFFFFFFFFFFFFFFFFFFFFFFFFFFFFFFFFFFF AND MUL OR SWAP1 SSTORE POP POP JUMP JUMPDEST PUSH1 0x0 DUP2 PUSH2 0x478 DUP5 PUSH2 0x1DFB JUMP JUMPDEST EQ SWAP1 POP SWAP3 SWAP2 POP POP JUMP JUMPDEST PUSH1 0x0 DUP1 SLOAD SWAP1 PUSH2 0x100 EXP SWAP1 DIV PUSH20 0xFFFFFFFFFFFFFFFFFFFFFFFFFFFFFFFFFFFFFFFF AND PUSH20 0xFFFFFFFFFFFFFFFFFFFFFFFFFFFFFFFFFFFFFFFF AND CALLER PUSH20 0xFFFFFFFFFFFFFFFFFFFFFFFFFFFFFFFFFFFFFFFF AND EQ PUSH2 0x50F JUMPI PUSH1 0x40 MLOAD PUSH32 0x8C379A000000000000000000000000000000000000000000000000000000000 DUP2 MSTORE PUSH1 0x4 ADD PUSH2 0x506 SWAP1 PUSH2 0x2646 JUMP JUMPDEST PUSH1 0x40 MLOAD DUP1 SWAP2 SUB SWAP1 REVERT JUMPDEST DUP1 PUSH1 0x1 PUSH1 0x0 PUSH2 0x100 EXP DUP2 SLOAD DUP2 PUSH20 0xFFFFFFFFFFFFFFFFFFFFFFFFFFFFFFFFFFFFFFFF MUL NOT AND SWAP1 DUP4 PUSH20 0xFFFFFFFFFFFFFFFFFFFFFFFFFFFFFFFFFFFFFFFF AND MUL OR SWAP1 SSTORE POP POP JUMP JUMPDEST PUSH1 0x60 DUP2 PUSH1 0x7 SLOAD DUP2 GT ISZERO PUSH2 0x59B JUMPI PUSH1 0x40 MLOAD PUSH32 0x8C379A000000000000000000000000000000000000000000000000000000000 DUP2 MSTORE PUSH1 0x4 ADD PUSH2 0x592 SWAP1 PUSH2 0x26B2 JUMP JUMPDEST PUSH1 0x40 MLOAD DUP1 SWAP2 SUB SWAP1 REVERT JUMPDEST PUSH1 0x0 DUP4 EQ ISZERO PUSH2 0x6D0 JUMPI PUSH1 0x1 PUSH8 0xFFFFFFFFFFFFFFFF DUP2 GT ISZERO PUSH2 0x5BF JUMPI PUSH2 0x5BE PUSH2 0x1FC1 JUMP JUMPDEST JUMPDEST PUSH1 0x40 MLOAD SWAP1 DUP1 DUP3 MSTORE DUP1 PUSH1 0x20 MUL PUSH1 0x20 ADD DUP3 ADD PUSH1 0x40 MSTORE DUP1 ISZERO PUSH2 0x5F8 JUMPI DUP2 PUSH1 0x20 ADD JUMPDEST PUSH2 0x5E5 PUSH2 0x1EA3 JUMP JUMPDEST DUP2 MSTORE PUSH1 0x20 ADD SWAP1 PUSH1 0x1 SWAP1 SUB SWAP1 DUP2 PUSH2 0x5DD JUMPI SWAP1 POP JUMPDEST POP SWAP2 POP PUSH1 0x40 MLOAD DUP1 PUSH1 0x60 ADD PUSH1 0x40 MSTORE DUP1 PUSH1 0x1 DUP2 MSTORE PUSH1 0x20 ADD PUSH1 0x1 ISZERO ISZERO DUP2 MSTORE PUSH1 0x20 ADD PUSH20 0x0 PUSH4 0x50DB78FC PUSH1 0x1 DUP1 PUSH1 0x1 PUSH1 0x0 DUP1 PUSH1 0x40 MLOAD DUP7 PUSH4 0xFFFFFFFF AND PUSH1 0xE0 SHL DUP2 MSTORE PUSH1 0x4 ADD PUSH2 0x658 SWAP6 SWAP5 SWAP4 SWAP3 SWAP2 SWAP1 PUSH2 0x2752 JUMP JUMPDEST PUSH2 0x100 PUSH1 0x40 MLOAD DUP1 DUP4 SUB DUP2 DUP7 DUP1 EXTCODESIZE ISZERO DUP1 ISZERO PUSH2 0x671 JUMPI PUSH1 0x0 DUP1 REVERT JUMPDEST POP GAS DELEGATECALL ISZERO DUP1 ISZERO PUSH2 0x685 JUMPI RETURNDATASIZE PUSH1 0x0 DUP1 RETURNDATACOPY RETURNDATASIZE PUSH1 0x0 REVERT JUMPDEST POP POP POP POP PUSH1 0x40 MLOAD RETURNDATASIZE PUSH1 0x1F NOT PUSH1 0x1F DUP3 ADD AND DUP3 ADD DUP1 PUSH1 0x40 MSTORE POP DUP2 ADD SWAP1 PUSH2 0x6A9 SWAP2 SWAP1 PUSH2 0x2884 JUMP JUMPDEST DUP2 MSTORE POP DUP3 PUSH1 0x0 DUP2 MLOAD DUP2 LT PUSH2 0x6C0 JUMPI PUSH2 0x6BF PUSH2 0x28B2 JUMP JUMPDEST JUMPDEST PUSH1 0x20 MUL PUSH1 0x20 ADD ADD DUP2 SWAP1 MSTORE POP PUSH2 0x1571 JUMP JUMPDEST PUSH1 0x1 DUP4 EQ ISZERO PUSH2 0x9A5 JUMPI PUSH1 0x3 PUSH8 0xFFFFFFFFFFFFFFFF DUP2 GT ISZERO PUSH2 0x6F4 JUMPI PUSH2 0x6F3 PUSH2 0x1FC1 JUMP JUMPDEST JUMPDEST PUSH1 0x40 MLOAD SWAP1 DUP1 DUP3 MSTORE DUP1 PUSH1 0x20 MUL PUSH1 0x20 ADD DUP3 ADD PUSH1 0x40 MSTORE DUP1 ISZERO PUSH2 0x72D JUMPI DUP2 PUSH1 0x20 ADD JUMPDEST PUSH2 0x71A PUSH2 0x1EA3 JUMP JUMPDEST DUP2 MSTORE PUSH1 0x20 ADD SWAP1 PUSH1 0x1 SWAP1 SUB SWAP1 DUP2 PUSH2 0x712 JUMPI SWAP1 POP JUMPDEST POP SWAP2 POP PUSH1 0x40 MLOAD DUP1 PUSH1 0x60 ADD PUSH1 0x40 MSTORE DUP1 PUSH1 0x1 DUP2 MSTORE PUSH1 0x20 ADD PUSH1 0x1 ISZERO ISZERO DUP2 MSTORE PUSH1 0x20 ADD PUSH20 0x0 PUSH4 0x50DB78FC PUSH1 0x1 DUP1 PUSH1 0x1 PUSH1 0x0 DUP1 PUSH1 0x40 MLOAD DUP7 PUSH4 0xFFFFFFFF AND PUSH1 0xE0 SHL DUP2 MSTORE PUSH1 0x4 ADD PUSH2 0x78D SWAP6 SWAP5 SWAP4 SWAP3 SWAP2 SWAP1 PUSH2 0x2752 JUMP JUMPDEST PUSH2 0x100 PUSH1 0x40 MLOAD DUP1 DUP4 SUB DUP2 DUP7 DUP1 EXTCODESIZE ISZERO DUP1 ISZERO PUSH2 0x7A6 JUMPI PUSH1 0x0 DUP1 REVERT JUMPDEST POP GAS DELEGATECALL ISZERO DUP1 ISZERO PUSH2 0x7BA JUMPI RETURNDATASIZE PUSH1 0x0 DUP1 RETURNDATACOPY RETURNDATASIZE PUSH1 0x0 REVERT JUMPDEST POP POP POP POP PUSH1 0x40 MLOAD RETURNDATASIZE PUSH1 0x1F NOT PUSH1 0x1F DUP3 ADD AND DUP3 ADD DUP1 PUSH1 0x40 MSTORE POP DUP2 ADD SWAP1 PUSH2 0x7DE SWAP2 SWAP1 PUSH2 0x2884 JUMP JUMPDEST DUP2 MSTORE POP DUP3 PUSH1 0x0 DUP2 MLOAD DUP2 LT PUSH2 0x7F5 JUMPI PUSH2 0x7F4 PUSH2 0x28B2 JUMP JUMPDEST JUMPDEST PUSH1 0x20 MUL PUSH1 0x20 ADD ADD DUP2 SWAP1 MSTORE POP PUSH1 0x40 MLOAD DUP1 PUSH1 0x60 ADD PUSH1 0x40 MSTORE DUP1 PUSH1 0x2 DUP2 MSTORE PUSH1 0x20 ADD PUSH1 0x1 ISZERO ISZERO DUP2 MSTORE PUSH1 0x20 ADD PUSH20 0x0 PUSH4 0x50DB78FC PUSH1 0x1 DUP1 PUSH1 0x1 PUSH1 0x0 DUP1 PUSH1 0x40 MLOAD DUP7 PUSH4 0xFFFFFFFF AND PUSH1 0xE0 SHL DUP2 MSTORE PUSH1 0x4 ADD PUSH2 0x85D SWAP6 SWAP5 SWAP4 SWAP3 SWAP2 SWAP1 PUSH2 0x2752 JUMP JUMPDEST PUSH2 0x100 PUSH1 0x40 MLOAD DUP1 DUP4 SUB DUP2 DUP7 DUP1 EXTCODESIZE ISZERO DUP1 ISZERO PUSH2 0x876 JUMPI PUSH1 0x0 DUP1 REVERT JUMPDEST POP GAS DELEGATECALL ISZERO DUP1 ISZERO PUSH2 0x88A JUMPI RETURNDATASIZE PUSH1 0x0 DUP1 RETURNDATACOPY RETURNDATASIZE PUSH1 0x0 REVERT JUMPDEST POP POP POP POP PUSH1 0x40 MLOAD RETURNDATASIZE PUSH1 0x1F NOT PUSH1 0x1F DUP3 ADD AND DUP3 ADD DUP1 PUSH1 0x40 MSTORE POP DUP2 ADD SWAP1 PUSH2 0x8AE SWAP2 SWAP1 PUSH2 0x2884 JUMP JUMPDEST DUP2 MSTORE POP DUP3 PUSH1 0x1 DUP2 MLOAD DUP2 LT PUSH2 0x8C5 JUMPI PUSH2 0x8C4 PUSH2 0x28B2 JUMP JUMPDEST JUMPDEST PUSH1 0x20 MUL PUSH1 0x20 ADD ADD DUP2 SWAP1 MSTORE POP PUSH1 0x40 MLOAD DUP1 PUSH1 0x60 ADD PUSH1 0x40 MSTORE DUP1 PUSH1 0x3 DUP2 MSTORE PUSH1 0x20 ADD PUSH1 0x1 ISZERO ISZERO DUP2 MSTORE PUSH1 0x20 ADD PUSH20 0x0 PUSH4 0x50DB78FC PUSH1 0x1 DUP1 PUSH1 0x1 PUSH1 0x0 DUP1 PUSH1 0x40 MLOAD DUP7 PUSH4 0xFFFFFFFF AND PUSH1 0xE0 SHL DUP2 MSTORE PUSH1 0x4 ADD PUSH2 0x92D SWAP6 SWAP5 SWAP4 SWAP3 SWAP2 SWAP1 PUSH2 0x2752 JUMP JUMPDEST PUSH2 0x100 PUSH1 0x40 MLOAD DUP1 DUP4 SUB DUP2 DUP7 DUP1 EXTCODESIZE ISZERO DUP1 ISZERO PUSH2 0x946 JUMPI PUSH1 0x0 DUP1 REVERT JUMPDEST POP GAS DELEGATECALL ISZERO DUP1 ISZERO PUSH2 0x95A JUMPI RETURNDATASIZE PUSH1 0x0 DUP1 RETURNDATACOPY RETURNDATASIZE PUSH1 0x0 REVERT JUMPDEST POP POP POP POP PUSH1 0x40 MLOAD RETURNDATASIZE PUSH1 0x1F NOT PUSH1 0x1F DUP3 ADD AND DUP3 ADD DUP1 PUSH1 0x40 MSTORE POP DUP2 ADD SWAP1 PUSH2 0x97E SWAP2 SWAP1 PUSH2 0x2884 JUMP JUMPDEST DUP2 MSTORE POP DUP3 PUSH1 0x2 DUP2 MLOAD DUP2 LT PUSH2 0x995 JUMPI PUSH2 0x994 PUSH2 0x28B2 JUMP JUMPDEST JUMPDEST PUSH1 0x20 MUL PUSH1 0x20 ADD ADD DUP2 SWAP1 MSTORE POP PUSH2 0x1570 JUMP JUMPDEST PUSH1 0x2 DUP4 EQ ISZERO PUSH2 0xC7C JUMPI PUSH1 0x3 PUSH8 0xFFFFFFFFFFFFFFFF DUP2 GT ISZERO PUSH2 0x9C9 JUMPI PUSH2 0x9C8 PUSH2 0x1FC1 JUMP JUMPDEST JUMPDEST PUSH1 0x40 MLOAD SWAP1 DUP1 DUP3 MSTORE DUP1 PUSH1 0x20 MUL PUSH1 0x20 ADD DUP3 ADD PUSH1 0x40 MSTORE DUP1 ISZERO PUSH2 0xA02 JUMPI DUP2 PUSH1 0x20 ADD JUMPDEST PUSH2 0x9EF PUSH2 0x1EA3 JUMP JUMPDEST DUP2 MSTORE PUSH1 0x20 ADD SWAP1 PUSH1 0x1 SWAP1 SUB SWAP1 DUP2 PUSH2 0x9E7 JUMPI SWAP1 POP JUMPDEST POP SWAP2 POP PUSH1 0x40 MLOAD DUP1 PUSH1 0x60 ADD PUSH1 0x40 MSTORE DUP1 PUSH1 0x1 DUP2 MSTORE PUSH1 0x20 ADD PUSH1 0x1 ISZERO ISZERO DUP2 MSTORE PUSH1 0x20 ADD PUSH20 0x0 PUSH4 0x50DB78FC PUSH1 0x1 DUP1 PUSH1 0x1 PUSH1 0x0 DUP1 PUSH1 0x40 MLOAD DUP7 PUSH4 0xFFFFFFFF AND PUSH1 0xE0 SHL DUP2 MSTORE PUSH1 0x4 ADD PUSH2 0xA62 SWAP6 SWAP5 SWAP4 SWAP3 SWAP2 SWAP1 PUSH2 0x2752 JUMP JUMPDEST PUSH2 0x100 PUSH1 0x40 MLOAD DUP1 DUP4 SUB DUP2 DUP7 DUP1 EXTCODESIZE ISZERO DUP1 ISZERO PUSH2 0xA7B JUMPI PUSH1 0x0 DUP1 REVERT JUMPDEST POP GAS DELEGATECALL ISZERO DUP1 ISZERO PUSH2 0xA8F JUMPI RETURNDATASIZE PUSH1 0x0 DUP1 RETURNDATACOPY RETURNDATASIZE PUSH1 0x0 REVERT JUMPDEST POP POP POP POP PUSH1 0x40 MLOAD RETURNDATASIZE PUSH1 0x1F NOT PUSH1 0x1F DUP3 ADD AND DUP3 ADD DUP1 PUSH1 0x40 MSTORE POP DUP2 ADD SWAP1 PUSH2 0xAB3 SWAP2 SWAP1 PUSH2 0x2884 JUMP JUMPDEST DUP2 MSTORE POP DUP3 PUSH1 0x0 DUP2 MLOAD DUP2 LT PUSH2 0xACA JUMPI PUSH2 0xAC9 PUSH2 0x28B2 JUMP JUMPDEST JUMPDEST PUSH1 0x20 MUL PUSH1 0x20 ADD ADD DUP2 SWAP1 MSTORE POP PUSH1 0x40 MLOAD DUP1 PUSH1 0x60 ADD PUSH1 0x40 MSTORE DUP1 PUSH1 0x2 DUP2 MSTORE PUSH1 0x20 ADD PUSH1 0x1 ISZERO ISZERO DUP2 MSTORE PUSH1 0x20 ADD PUSH20 0x0 PUSH4 0x50DB78FC PUSH1 0x2 PUSH1 0x1 PUSH1 0x3 PUSH1 0x0 PUSH1 0x1 PUSH1 0x40 MLOAD DUP7 PUSH4 0xFFFFFFFF AND PUSH1 0xE0 SHL DUP2 MSTORE PUSH1 0x4 ADD PUSH2 0xB34 SWAP6 SWAP5 SWAP4 SWAP3 SWAP2 SWAP1 PUSH2 0x2957 JUMP JUMPDEST PUSH2 0x100 PUSH1 0x40 MLOAD DUP1 DUP4 SUB DUP2 DUP7 DUP1 EXTCODESIZE ISZERO DUP1 ISZERO PUSH2 0xB4D JUMPI PUSH1 0x0 DUP1 REVERT JUMPDEST POP GAS DELEGATECALL ISZERO DUP1 ISZERO PUSH2 0xB61 JUMPI RETURNDATASIZE PUSH1 0x0 DUP1 RETURNDATACOPY RETURNDATASIZE PUSH1 0x0 REVERT JUMPDEST POP POP POP POP PUSH1 0x40 MLOAD RETURNDATASIZE PUSH1 0x1F NOT PUSH1 0x1F DUP3 ADD AND DUP3 ADD DUP1 PUSH1 0x40 MSTORE POP DUP2 ADD SWAP1 PUSH2 0xB85 SWAP2 SWAP1 PUSH2 0x2884 JUMP JUMPDEST DUP2 MSTORE POP DUP3 PUSH1 0x1 DUP2 MLOAD DUP2 LT PUSH2 0xB9C JUMPI PUSH2 0xB9B PUSH2 0x28B2 JUMP JUMPDEST JUMPDEST PUSH1 0x20 MUL PUSH1 0x20 ADD ADD DUP2 SWAP1 MSTORE POP PUSH1 0x40 MLOAD DUP1 PUSH1 0x60 ADD PUSH1 0x40 MSTORE DUP1 PUSH1 0x3 DUP2 MSTORE PUSH1 0x20 ADD PUSH1 0x1 ISZERO ISZERO DUP2 MSTORE PUSH1 0x20 ADD PUSH20 0x0 PUSH4 0x50DB78FC PUSH1 0x1 DUP1 PUSH1 0x1 PUSH1 0x0 DUP1 PUSH1 0x40 MLOAD DUP7 PUSH4 0xFFFFFFFF AND PUSH1 0xE0 SHL DUP2 MSTORE PUSH1 0x4 ADD PUSH2 0xC04 SWAP6 SWAP5 SWAP4 SWAP3 SWAP2 SWAP1 PUSH2 0x2752 JUMP JUMPDEST PUSH2 0x100 PUSH1 0x40 MLOAD DUP1 DUP4 SUB DUP2 DUP7 DUP1 EXTCODESIZE ISZERO DUP1 ISZERO PUSH2 0xC1D JUMPI PUSH1 0x0 DUP1 REVERT JUMPDEST POP GAS DELEGATECALL ISZERO DUP1 ISZERO PUSH2 0xC31 JUMPI RETURNDATASIZE PUSH1 0x0 DUP1 RETURNDATACOPY RETURNDATASIZE PUSH1 0x0 REVERT JUMPDEST POP POP POP POP PUSH1 0x40 MLOAD RETURNDATASIZE PUSH1 0x1F NOT PUSH1 0x1F DUP3 ADD AND DUP3 ADD DUP1 PUSH1 0x40 MSTORE POP DUP2 ADD SWAP1 PUSH2 0xC55 SWAP2 SWAP1 PUSH2 0x2884 JUMP JUMPDEST DUP2 MSTORE POP DUP3 PUSH1 0x2 DUP2 MLOAD DUP2 LT PUSH2 0xC6C JUMPI PUSH2 0xC6B PUSH2 0x28B2 JUMP JUMPDEST JUMPDEST PUSH1 0x20 MUL PUSH1 0x20 ADD ADD DUP2 SWAP1 MSTORE POP PUSH2 0x156F JUMP JUMPDEST PUSH1 0x3 DUP4 EQ ISZERO PUSH2 0xF57 JUMPI PUSH1 0x3 PUSH8 0xFFFFFFFFFFFFFFFF DUP2 GT ISZERO PUSH2 0xCA0 JUMPI PUSH2 0xC9F PUSH2 0x1FC1 JUMP JUMPDEST JUMPDEST PUSH1 0x40 MLOAD SWAP1 DUP1 DUP3 MSTORE DUP1 PUSH1 0x20 MUL PUSH1 0x20 ADD DUP3 ADD PUSH1 0x40 MSTORE DUP1 ISZERO PUSH2 0xCD9 JUMPI DUP2 PUSH1 0x20 ADD JUMPDEST PUSH2 0xCC6 PUSH2 0x1EA3 JUMP JUMPDEST DUP2 MSTORE PUSH1 0x20 ADD SWAP1 PUSH1 0x1 SWAP1 SUB SWAP1 DUP2 PUSH2 0xCBE JUMPI SWAP1 POP JUMPDEST POP SWAP2 POP PUSH1 0x40 MLOAD DUP1 PUSH1 0x60 ADD PUSH1 0x40 MSTORE DUP1 PUSH1 0x1 DUP2 MSTORE PUSH1 0x20 ADD PUSH1 0x1 ISZERO ISZERO DUP2 MSTORE PUSH1 0x20 ADD PUSH20 0x0 PUSH4 0x50DB78FC PUSH1 0x5 PUSH1 0x1 PUSH1 0x5 PUSH1 0x0 PUSH1 0x1 PUSH1 0x40 MLOAD DUP7 PUSH4 0xFFFFFFFF AND PUSH1 0xE0 SHL DUP2 MSTORE PUSH1 0x4 ADD PUSH2 0xD3B SWAP6 SWAP5 SWAP4 SWAP3 SWAP2 SWAP1 PUSH2 0x29E5 JUMP JUMPDEST PUSH2 0x100 PUSH1 0x40 MLOAD DUP1 DUP4 SUB DUP2 DUP7 DUP1 EXTCODESIZE ISZERO DUP1 ISZERO PUSH2 0xD54 JUMPI PUSH1 0x0 DUP1 REVERT JUMPDEST POP GAS DELEGATECALL ISZERO DUP1 ISZERO PUSH2 0xD68 JUMPI RETURNDATASIZE PUSH1 0x0 DUP1 RETURNDATACOPY RETURNDATASIZE PUSH1 0x0 REVERT JUMPDEST POP POP POP POP PUSH1 0x40 MLOAD RETURNDATASIZE PUSH1 0x1F NOT PUSH1 0x1F DUP3 ADD AND DUP3 ADD DUP1 PUSH1 0x40 MSTORE POP DUP2 ADD SWAP1 PUSH2 0xD8C SWAP2 SWAP1 PUSH2 0x2884 JUMP JUMPDEST DUP2 MSTORE POP DUP3 PUSH1 0x0 DUP2 MLOAD DUP2 LT PUSH2 0xDA3 JUMPI PUSH2 0xDA2 PUSH2 0x28B2 JUMP JUMPDEST JUMPDEST PUSH1 0x20 MUL PUSH1 0x20 ADD ADD DUP2 SWAP1 MSTORE POP PUSH1 0x40 MLOAD DUP1 PUSH1 0x60 ADD PUSH1 0x40 MSTORE DUP1 PUSH1 0x2 DUP2 MSTORE PUSH1 0x20 ADD PUSH1 0x1 ISZERO ISZERO DUP2 MSTORE PUSH1 0x20 ADD PUSH20 0x0 PUSH4 0x50DB78FC PUSH1 0x5 PUSH1 0x1 PUSH1 0x5 PUSH1 0x0 PUSH1 0x1 PUSH1 0x40 MLOAD DUP7 PUSH4 0xFFFFFFFF AND PUSH1 0xE0 SHL DUP2 MSTORE PUSH1 0x4 ADD PUSH2 0xE0D SWAP6 SWAP5 SWAP4 SWAP3 SWAP2 SWAP1 PUSH2 0x29E5 JUMP JUMPDEST PUSH2 0x100 PUSH1 0x40 MLOAD DUP1 DUP4 SUB DUP2 DUP7 DUP1 EXTCODESIZE ISZERO DUP1 ISZERO PUSH2 0xE26 JUMPI PUSH1 0x0 DUP1 REVERT JUMPDEST POP GAS DELEGATECALL ISZERO DUP1 ISZERO PUSH2 0xE3A JUMPI RETURNDATASIZE PUSH1 0x0 DUP1 RETURNDATACOPY RETURNDATASIZE PUSH1 0x0 REVERT JUMPDEST POP POP POP POP PUSH1 0x40 MLOAD RETURNDATASIZE PUSH1 0x1F NOT PUSH1 0x1F DUP3 ADD AND DUP3 ADD DUP1 PUSH1 0x40 MSTORE POP DUP2 ADD SWAP1 PUSH2 0xE5E SWAP2 SWAP1 PUSH2 0x2884 JUMP JUMPDEST DUP2 MSTORE POP DUP3 PUSH1 0x1 DUP2 MLOAD DUP2 LT PUSH2 0xE75 JUMPI PUSH2 0xE74 PUSH2 0x28B2 JUMP JUMPDEST JUMPDEST PUSH1 0x20 MUL PUSH1 0x20 ADD ADD DUP2 SWAP1 MSTORE POP PUSH1 0x40 MLOAD DUP1 PUSH1 0x60 ADD PUSH1 0x40 MSTORE DUP1 PUSH1 0x3 DUP2 MSTORE PUSH1 0x20 ADD PUSH1 0x1 ISZERO ISZERO DUP2 MSTORE PUSH1 0x20 ADD PUSH20 0x0 PUSH4 0x50DB78FC PUSH1 0x5 PUSH1 0x1 PUSH1 0x5 PUSH1 0x0 PUSH1 0x1 PUSH1 0x40 MLOAD DUP7 PUSH4 0xFFFFFFFF AND PUSH1 0xE0 SHL DUP2 MSTORE PUSH1 0x4 ADD PUSH2 0xEDF SWAP6 SWAP5 SWAP4 SWAP3 SWAP2 SWAP1 PUSH2 0x29E5 JUMP JUMPDEST PUSH2 0x100 PUSH1 0x40 MLOAD DUP1 DUP4 SUB DUP2 DUP7 DUP1 EXTCODESIZE ISZERO DUP1 ISZERO PUSH2 0xEF8 JUMPI PUSH1 0x0 DUP1 REVERT JUMPDEST POP GAS DELEGATECALL ISZERO DUP1 ISZERO PUSH2 0xF0C JUMPI RETURNDATASIZE PUSH1 0x0 DUP1 RETURNDATACOPY RETURNDATASIZE PUSH1 0x0 REVERT JUMPDEST POP POP POP POP PUSH1 0x40 MLOAD RETURNDATASIZE PUSH1 0x1F NOT PUSH1 0x1F DUP3 ADD AND DUP3 ADD DUP1 PUSH1 0x40 MSTORE POP DUP2 ADD SWAP1 PUSH2 0xF30 SWAP2 SWAP1 PUSH2 0x2884 JUMP JUMPDEST DUP2 MSTORE POP DUP3 PUSH1 0x2 DUP2 MLOAD DUP2 LT PUSH2 0xF47 JUMPI PUSH2 0xF46 PUSH2 0x28B2 JUMP JUMPDEST JUMPDEST PUSH1 0x20 MUL PUSH1 0x20 ADD ADD DUP2 SWAP1 MSTORE POP PUSH2 0x156E JUMP JUMPDEST PUSH1 0x4 DUP4 EQ ISZERO PUSH2 0x122F JUMPI PUSH1 0x3 PUSH8 0xFFFFFFFFFFFFFFFF DUP2 GT ISZERO PUSH2 0xF7B JUMPI PUSH2 0xF7A PUSH2 0x1FC1 JUMP JUMPDEST JUMPDEST PUSH1 0x40 MLOAD SWAP1 DUP1 DUP3 MSTORE DUP1 PUSH1 0x20 MUL PUSH1 0x20 ADD DUP3 ADD PUSH1 0x40 MSTORE DUP1 ISZERO PUSH2 0xFB4 JUMPI DUP2 PUSH1 0x20 ADD JUMPDEST PUSH2 0xFA1 PUSH2 0x1EA3 JUMP JUMPDEST DUP2 MSTORE PUSH1 0x20 ADD SWAP1 PUSH1 0x1 SWAP1 SUB SWAP1 DUP2 PUSH2 0xF99 JUMPI SWAP1 POP JUMPDEST POP SWAP2 POP PUSH1 0x40 MLOAD DUP1 PUSH1 0x60 ADD PUSH1 0x40 MSTORE DUP1 PUSH1 0x1 DUP2 MSTORE PUSH1 0x20 ADD PUSH1 0x1 ISZERO ISZERO DUP2 MSTORE PUSH1 0x20 ADD PUSH20 0x0 PUSH4 0x50DB78FC PUSH1 0x8 PUSH1 0x1 PUSH1 0xC PUSH1 0x0 DUP1 PUSH1 0x40 MLOAD DUP7 PUSH4 0xFFFFFFFF AND PUSH1 0xE0 SHL DUP2 MSTORE PUSH1 0x4 ADD PUSH2 0x1015 SWAP6 SWAP5 SWAP4 SWAP3 SWAP2 SWAP1 PUSH2 0x2AAE JUMP JUMPDEST PUSH2 0x100 PUSH1 0x40 MLOAD DUP1 DUP4 SUB DUP2 DUP7 DUP1 EXTCODESIZE ISZERO DUP1 ISZERO PUSH2 0x102E JUMPI PUSH1 0x0 DUP1 REVERT JUMPDEST POP GAS DELEGATECALL ISZERO DUP1 ISZERO PUSH2 0x1042 JUMPI RETURNDATASIZE PUSH1 0x0 DUP1 RETURNDATACOPY RETURNDATASIZE PUSH1 0x0 REVERT JUMPDEST POP POP POP POP PUSH1 0x40 MLOAD RETURNDATASIZE PUSH1 0x1F NOT PUSH1 0x1F DUP3 ADD AND DUP3 ADD DUP1 PUSH1 0x40 MSTORE POP DUP2 ADD SWAP1 PUSH2 0x1066 SWAP2 SWAP1 PUSH2 0x2884 JUMP JUMPDEST DUP2 MSTORE POP DUP3 PUSH1 0x0 DUP2 MLOAD DUP2 LT PUSH2 0x107D JUMPI PUSH2 0x107C PUSH2 0x28B2 JUMP JUMPDEST JUMPDEST PUSH1 0x20 MUL PUSH1 0x20 ADD ADD DUP2 SWAP1 MSTORE POP PUSH1 0x40 MLOAD DUP1 PUSH1 0x60 ADD PUSH1 0x40 MSTORE DUP1 PUSH1 0x2 DUP2 MSTORE PUSH1 0x20 ADD PUSH1 0x1 ISZERO ISZERO DUP2 MSTORE PUSH1 0x20 ADD PUSH20 0x0 PUSH4 0x50DB78FC PUSH1 0x8 PUSH1 0x1 PUSH1 0xC PUSH1 0x0 DUP1 PUSH1 0x40 MLOAD DUP7 PUSH4 0xFFFFFFFF AND PUSH1 0xE0 SHL DUP2 MSTORE PUSH1 0x4 ADD PUSH2 0x10E6 SWAP6 SWAP5 SWAP4 SWAP3 SWAP2 SWAP1 PUSH2 0x2AAE JUMP JUMPDEST PUSH2 0x100 PUSH1 0x40 MLOAD DUP1 DUP4 SUB DUP2 DUP7 DUP1 EXTCODESIZE ISZERO DUP1 ISZERO PUSH2 0x10FF JUMPI PUSH1 0x0 DUP1 REVERT JUMPDEST POP GAS DELEGATECALL ISZERO DUP1 ISZERO PUSH2 0x1113 JUMPI RETURNDATASIZE PUSH1 0x0 DUP1 RETURNDATACOPY RETURNDATASIZE PUSH1 0x0 REVERT JUMPDEST POP POP POP POP PUSH1 0x40 MLOAD RETURNDATASIZE PUSH1 0x1F NOT PUSH1 0x1F DUP3 ADD AND DUP3 ADD DUP1 PUSH1 0x40 MSTORE POP DUP2 ADD SWAP1 PUSH2 0x1137 SWAP2 SWAP1 PUSH2 0x2884 JUMP JUMPDEST DUP2 MSTORE POP DUP3 PUSH1 0x1 DUP2 MLOAD DUP2 LT PUSH2 0x114E JUMPI PUSH2 0x114D PUSH2 0x28B2 JUMP JUMPDEST JUMPDEST PUSH1 0x20 MUL PUSH1 0x20 ADD ADD DUP2 SWAP1 MSTORE POP PUSH1 0x40 MLOAD DUP1 PUSH1 0x60 ADD PUSH1 0x40 MSTORE DUP1 PUSH1 0x3 DUP2 MSTORE PUSH1 0x20 ADD PUSH1 0x1 ISZERO ISZERO DUP2 MSTORE PUSH1 0x20 ADD PUSH20 0x0 PUSH4 0x50DB78FC PUSH1 0x8 PUSH1 0x1 PUSH1 0xC PUSH1 0x0 DUP1 PUSH1 0x40 MLOAD DUP7 PUSH4 0xFFFFFFFF AND PUSH1 0xE0 SHL DUP2 MSTORE PUSH1 0x4 ADD PUSH2 0x11B7 SWAP6 SWAP5 SWAP4 SWAP3 SWAP2 SWAP1 PUSH2 0x2AAE JUMP JUMPDEST PUSH2 0x100 PUSH1 0x40 MLOAD DUP1 DUP4 SUB DUP2 DUP7 DUP1 EXTCODESIZE ISZERO DUP1 ISZERO PUSH2 0x11D0 JUMPI PUSH1 0x0 DUP1 REVERT JUMPDEST POP GAS DELEGATECALL ISZERO DUP1 ISZERO PUSH2 0x11E4 JUMPI RETURNDATASIZE PUSH1 0x0 DUP1 RETURNDATACOPY RETURNDATASIZE PUSH1 0x0 REVERT JUMPDEST POP POP POP POP PUSH1 0x40 MLOAD RETURNDATASIZE PUSH1 0x1F NOT PUSH1 0x1F DUP3 ADD AND DUP3 ADD DUP1 PUSH1 0x40 MSTORE POP DUP2 ADD SWAP1 PUSH2 0x1208 SWAP2 SWAP1 PUSH2 0x2884 JUMP JUMPDEST DUP2 MSTORE POP DUP3 PUSH1 0x2 DUP2 MLOAD DUP2 LT PUSH2 0x121F JUMPI PUSH2 0x121E PUSH2 0x28B2 JUMP JUMPDEST JUMPDEST PUSH1 0x20 MUL PUSH1 0x20 ADD ADD DUP2 SWAP1 MSTORE POP PUSH2 0x156D JUMP JUMPDEST PUSH1 0x5 DUP4 EQ ISZERO PUSH2 0x1438 JUMPI PUSH1 0x2 PUSH8 0xFFFFFFFFFFFFFFFF DUP2 GT ISZERO PUSH2 0x1253 JUMPI PUSH2 0x1252 PUSH2 0x1FC1 JUMP JUMPDEST JUMPDEST PUSH1 0x40 MLOAD SWAP1 DUP1 DUP3 MSTORE DUP1 PUSH1 0x20 MUL PUSH1 0x20 ADD DUP3 ADD PUSH1 0x40 MSTORE DUP1 ISZERO PUSH2 0x128C JUMPI DUP2 PUSH1 0x20 ADD JUMPDEST PUSH2 0x1279 PUSH2 0x1EA3 JUMP JUMPDEST DUP2 MSTORE PUSH1 0x20 ADD SWAP1 PUSH1 0x1 SWAP1 SUB SWAP1 DUP2 PUSH2 0x1271 JUMPI SWAP1 POP JUMPDEST POP SWAP2 POP PUSH1 0x40 MLOAD DUP1 PUSH1 0x60 ADD PUSH1 0x40 MSTORE DUP1 PUSH1 0x1 DUP2 MSTORE PUSH1 0x20 ADD PUSH1 0x1 ISZERO ISZERO DUP2 MSTORE PUSH1 0x20 ADD PUSH20 0x0 PUSH4 0x50DB78FC PUSH1 0x12 PUSH1 0x1 PUSH1 0xC PUSH1 0x0 PUSH1 0x2 PUSH1 0x40 MLOAD DUP7 PUSH4 0xFFFFFFFF AND PUSH1 0xE0 SHL DUP2 MSTORE PUSH1 0x4 ADD PUSH2 0x12EE SWAP6 SWAP5 SWAP4 SWAP3 SWAP2 SWAP1 PUSH2 0x2B3C JUMP JUMPDEST PUSH2 0x100 PUSH1 0x40 MLOAD DUP1 DUP4 SUB DUP2 DUP7 DUP1 EXTCODESIZE ISZERO DUP1 ISZERO PUSH2 0x1307 JUMPI PUSH1 0x0 DUP1 REVERT JUMPDEST POP GAS DELEGATECALL ISZERO DUP1 ISZERO PUSH2 0x131B JUMPI RETURNDATASIZE PUSH1 0x0 DUP1 RETURNDATACOPY RETURNDATASIZE PUSH1 0x0 REVERT JUMPDEST POP POP POP POP PUSH1 0x40 MLOAD RETURNDATASIZE PUSH1 0x1F NOT PUSH1 0x1F DUP3 ADD AND DUP3 ADD DUP1 PUSH1 0x40 MSTORE POP DUP2 ADD SWAP1 PUSH2 0x133F SWAP2 SWAP1 PUSH2 0x2884 JUMP JUMPDEST DUP2 MSTORE POP DUP3 PUSH1 0x0 DUP2 MLOAD DUP2 LT PUSH2 0x1356 JUMPI PUSH2 0x1355 PUSH2 0x28B2 JUMP JUMPDEST JUMPDEST PUSH1 0x20 MUL PUSH1 0x20 ADD ADD DUP2 SWAP1 MSTORE POP PUSH1 0x40 MLOAD DUP1 PUSH1 0x60 ADD PUSH1 0x40 MSTORE DUP1 PUSH1 0x2 DUP2 MSTORE PUSH1 0x20 ADD PUSH1 0x1 ISZERO ISZERO DUP2 MSTORE PUSH1 0x20 ADD PUSH20 0x0 PUSH4 0x50DB78FC PUSH1 0xF PUSH1 0x1 PUSH1 0xF PUSH1 0x0 PUSH1 0x5 PUSH1 0x40 MLOAD DUP7 PUSH4 0xFFFFFFFF AND PUSH1 0xE0 SHL DUP2 MSTORE PUSH1 0x4 ADD PUSH2 0x13C0 SWAP6 SWAP5 SWAP4 SWAP3 SWAP2 SWAP1 PUSH2 0x2BCA JUMP JUMPDEST PUSH2 0x100 PUSH1 0x40 MLOAD DUP1 DUP4 SUB DUP2 DUP7 DUP1 EXTCODESIZE ISZERO DUP1 ISZERO PUSH2 0x13D9 JUMPI PUSH1 0x0 DUP1 REVERT JUMPDEST POP GAS DELEGATECALL ISZERO DUP1 ISZERO PUSH2 0x13ED JUMPI RETURNDATASIZE PUSH1 0x0 DUP1 RETURNDATACOPY RETURNDATASIZE PUSH1 0x0 REVERT JUMPDEST POP POP POP POP PUSH1 0x40 MLOAD RETURNDATASIZE PUSH1 0x1F NOT PUSH1 0x1F DUP3 ADD AND DUP3 ADD DUP1 PUSH1 0x40 MSTORE POP DUP2 ADD SWAP1 PUSH2 0x1411 SWAP2 SWAP1 PUSH2 0x2884 JUMP JUMPDEST DUP2 MSTORE POP DUP3 PUSH1 0x1 DUP2 MLOAD DUP2 LT PUSH2 0x1428 JUMPI PUSH2 0x1427 PUSH2 0x28B2 JUMP JUMPDEST JUMPDEST PUSH1 0x20 MUL PUSH1 0x20 ADD ADD DUP2 SWAP1 MSTORE POP PUSH2 0x156C JUMP JUMPDEST PUSH1 0x6 DUP4 EQ ISZERO PUSH2 0x156B JUMPI PUSH1 0x1 PUSH8 0xFFFFFFFFFFFFFFFF DUP2 GT ISZERO PUSH2 0x145C JUMPI PUSH2 0x145B PUSH2 0x1FC1 JUMP JUMPDEST JUMPDEST PUSH1 0x40 MLOAD SWAP1 DUP1 DUP3 MSTORE DUP1 PUSH1 0x20 MUL PUSH1 0x20 ADD DUP3 ADD PUSH1 0x40 MSTORE DUP1 ISZERO PUSH2 0x1495 JUMPI DUP2 PUSH1 0x20 ADD JUMPDEST PUSH2 0x1482 PUSH2 0x1EA3 JUMP JUMPDEST DUP2 MSTORE PUSH1 0x20 ADD SWAP1 PUSH1 0x1 SWAP1 SUB SWAP1 DUP2 PUSH2 0x147A JUMPI SWAP1 POP JUMPDEST POP SWAP2 POP PUSH1 0x40 MLOAD DUP1 PUSH1 0x60 ADD PUSH1 0x40 MSTORE DUP1 PUSH1 0x1 DUP2 MSTORE PUSH1 0x20 ADD PUSH1 0x1 ISZERO ISZERO DUP2 MSTORE PUSH1 0x20 ADD PUSH20 0x0 PUSH4 0x50DB78FC PUSH1 0x23 PUSH1 0x1 PUSH1 0x32 PUSH1 0x0 PUSH1 0xA PUSH1 0x40 MLOAD DUP7 PUSH4 0xFFFFFFFF AND PUSH1 0xE0 SHL DUP2 MSTORE PUSH1 0x4 ADD PUSH2 0x14F7 SWAP6 SWAP5 SWAP4 SWAP3 SWAP2 SWAP1 PUSH2 0x2CCE JUMP JUMPDEST PUSH2 0x100 PUSH1 0x40 MLOAD DUP1 DUP4 SUB DUP2 DUP7 DUP1 EXTCODESIZE ISZERO DUP1 ISZERO PUSH2 0x1510 JUMPI PUSH1 0x0 DUP1 REVERT JUMPDEST POP GAS DELEGATECALL ISZERO DUP1 ISZERO PUSH2 0x1524 JUMPI RETURNDATASIZE PUSH1 0x0 DUP1 RETURNDATACOPY RETURNDATASIZE PUSH1 0x0 REVERT JUMPDEST POP POP POP POP PUSH1 0x40 MLOAD RETURNDATASIZE PUSH1 0x1F NOT PUSH1 0x1F DUP3 ADD AND DUP3 ADD DUP1 PUSH1 0x40 MSTORE POP DUP2 ADD SWAP1 PUSH2 0x1548 SWAP2 SWAP1 PUSH2 0x2884 JUMP JUMPDEST DUP2 MSTORE POP DUP3 PUSH1 0x0 DUP2 MLOAD DUP2 LT PUSH2 0x155F JUMPI PUSH2 0x155E PUSH2 0x28B2 JUMP JUMPDEST JUMPDEST PUSH1 0x20 MUL PUSH1 0x20 ADD ADD DUP2 SWAP1 MSTORE POP JUMPDEST JUMPDEST JUMPDEST JUMPDEST JUMPDEST JUMPDEST JUMPDEST POP SWAP2 SWAP1 POP JUMP JUMPDEST PUSH1 0x2 PUSH1 0x0 SWAP1 SLOAD SWAP1 PUSH2 0x100 EXP SWAP1 DIV PUSH20 0xFFFFFFFFFFFFFFFFFFFFFFFFFFFFFFFFFFFFFFFF AND DUP2 JUMP JUMPDEST PUSH1 0x0 DUP1 SLOAD SWAP1 PUSH2 0x100 EXP SWAP1 DIV PUSH20 0xFFFFFFFFFFFFFFFFFFFFFFFFFFFFFFFFFFFFFFFF AND PUSH20 0xFFFFFFFFFFFFFFFFFFFFFFFFFFFFFFFFFFFFFFFF AND CALLER PUSH20 0xFFFFFFFFFFFFFFFFFFFFFFFFFFFFFFFFFFFFFFFF AND EQ PUSH2 0x162B JUMPI PUSH1 0x40 MLOAD PUSH32 0x8C379A000000000000000000000000000000000000000000000000000000000 DUP2 MSTORE PUSH1 0x4 ADD PUSH2 0x1622 SWAP1 PUSH2 0x2646 JUMP JUMPDEST PUSH1 0x40 MLOAD DUP1 SWAP2 SUB SWAP1 REVERT JUMPDEST PUSH1 0x6 PUSH1 0x0 SWAP1 SLOAD SWAP1 PUSH2 0x100 EXP SWAP1 DIV PUSH20 0xFFFFFFFFFFFFFFFFFFFFFFFFFFFFFFFFFFFFFFFF AND PUSH20 0xFFFFFFFFFFFFFFFFFFFFFFFFFFFFFFFFFFFFFFFF AND PUSH2 0x8FC SELFBALANCE SWAP1 DUP2 ISZERO MUL SWAP1 PUSH1 0x40 MLOAD PUSH1 0x0 PUSH1 0x40 MLOAD DUP1 DUP4 SUB DUP2 DUP6 DUP9 DUP9 CALL SWAP4 POP POP POP POP ISZERO DUP1 ISZERO PUSH2 0x1693 JUMPI RETURNDATASIZE PUSH1 0x0 DUP1 RETURNDATACOPY RETURNDATASIZE PUSH1 0x0 REVERT JUMPDEST POP JUMP JUMPDEST PUSH1 0x0 DUP1 SLOAD SWAP1 PUSH2 0x100 EXP SWAP1 DIV PUSH20 0xFFFFFFFFFFFFFFFFFFFFFFFFFFFFFFFFFFFFFFFF AND PUSH20 0xFFFFFFFFFFFFFFFFFFFFFFFFFFFFFFFFFFFFFFFF AND CALLER PUSH20 0xFFFFFFFFFFFFFFFFFFFFFFFFFFFFFFFFFFFFFFFF AND EQ DUP1 PUSH2 0x173D JUMPI POP PUSH1 0x1 PUSH1 0x0 SWAP1 SLOAD SWAP1 PUSH2 0x100 EXP SWAP1 DIV PUSH20 0xFFFFFFFFFFFFFFFFFFFFFFFFFFFFFFFFFFFFFFFF AND PUSH20 0xFFFFFFFFFFFFFFFFFFFFFFFFFFFFFFFFFFFFFFFF AND CALLER PUSH20 0xFFFFFFFFFFFFFFFFFFFFFFFFFFFFFFFFFFFFFFFF AND EQ JUMPDEST DUP1 PUSH2 0x1795 JUMPI POP PUSH1 0x2 PUSH1 0x0 SWAP1 SLOAD SWAP1 PUSH2 0x100 EXP SWAP1 DIV PUSH20 0xFFFFFFFFFFFFFFFFFFFFFFFFFFFFFFFFFFFFFFFF AND PUSH20 0xFFFFFFFFFFFFFFFFFFFFFFFFFFFFFFFFFFFFFFFF AND CALLER PUSH20 0xFFFFFFFFFFFFFFFFFFFFFFFFFFFFFFFFFFFFFFFF AND EQ JUMPDEST DUP1 PUSH2 0x17ED JUMPI POP PUSH1 0x3 PUSH1 0x0 SWAP1 SLOAD SWAP1 PUSH2 0x100 EXP SWAP1 DIV PUSH20 0xFFFFFFFFFFFFFFFFFFFFFFFFFFFFFFFFFFFFFFFF AND PUSH20 0xFFFFFFFFFFFFFFFFFFFFFFFFFFFFFFFFFFFFFFFF AND CALLER PUSH20 0xFFFFFFFFFFFFFFFFFFFFFFFFFFFFFFFFFFFFFFFF AND EQ JUMPDEST PUSH2 0x182C JUMPI PUSH1 0x40 MLOAD PUSH32 0x8C379A000000000000000000000000000000000000000000000000000000000 DUP2 MSTORE PUSH1 0x4 ADD PUSH2 0x1823 SWAP1 PUSH2 0x2D93 JUMP JUMPDEST PUSH1 0x40 MLOAD DUP1 SWAP2 SUB SWAP1 REVERT JUMPDEST DUP1 ISZERO PUSH2 0x18E3 JUMPI PUSH1 0x0 PUSH20 0x0 PUSH4 0xC0D2E8E6 DUP6 PUSH1 0x40 MLOAD DUP3 PUSH4 0xFFFFFFFF AND PUSH1 0xE0 SHL DUP2 MSTORE PUSH1 0x4 ADD PUSH2 0x186B SWAP2 SWAP1 PUSH2 0x2F67 JUMP JUMPDEST PUSH1 0x20 PUSH1 0x40 MLOAD DUP1 DUP4 SUB DUP2 DUP7 DUP1 EXTCODESIZE ISZERO DUP1 ISZERO PUSH2 0x1883 JUMPI PUSH1 0x0 DUP1 REVERT JUMPDEST POP GAS DELEGATECALL ISZERO DUP1 ISZERO PUSH2 0x1897 JUMPI RETURNDATASIZE PUSH1 0x0 DUP1 RETURNDATACOPY RETURNDATASIZE PUSH1 0x0 REVERT JUMPDEST POP POP POP POP PUSH1 0x40 MLOAD RETURNDATASIZE PUSH1 0x1F NOT PUSH1 0x1F DUP3 ADD AND DUP3 ADD DUP1 PUSH1 0x40 MSTORE POP DUP2 ADD SWAP1 PUSH2 0x18BB SWAP2 SWAP1 PUSH2 0x2F83 JUMP JUMPDEST SWAP1 POP PUSH1 0x1 DUP4 PUSH2 0x18CA SWAP2 SWAP1 PUSH2 0x2FDF JUMP JUMPDEST PUSH1 0x8 PUSH1 0x0 DUP4 DUP2 MSTORE PUSH1 0x20 ADD SWAP1 DUP2 MSTORE PUSH1 0x20 ADD PUSH1 0x0 KECCAK256 DUP2 SWAP1 SSTORE POP POP JUMPDEST POP POP POP JUMP JUMPDEST PUSH1 0x6 PUSH1 0x0 SWAP1 SLOAD SWAP1 PUSH2 0x100 EXP SWAP1 DIV PUSH20 0xFFFFFFFFFFFFFFFFFFFFFFFFFFFFFFFFFFFFFFFF AND DUP2 JUMP JUMPDEST PUSH1 0x1 PUSH1 0x0 SWAP1 SLOAD SWAP1 PUSH2 0x100 EXP SWAP1 DIV PUSH20 0xFFFFFFFFFFFFFFFFFFFFFFFFFFFFFFFFFFFFFFFF AND DUP2 JUMP JUMPDEST PUSH1 0x0 DUP1 SLOAD SWAP1 PUSH2 0x100 EXP SWAP1 DIV PUSH20 0xFFFFFFFFFFFFFFFFFFFFFFFFFFFFFFFFFFFFFFFF AND PUSH20 0xFFFFFFFFFFFFFFFFFFFFFFFFFFFFFFFFFFFFFFFF AND CALLER PUSH20 0xFFFFFFFFFFFFFFFFFFFFFFFFFFFFFFFFFFFFFFFF AND EQ PUSH2 0x19C2 JUMPI PUSH1 0x40 MLOAD PUSH32 0x8C379A000000000000000000000000000000000000000000000000000000000 DUP2 MSTORE PUSH1 0x4 ADD PUSH2 0x19B9 SWAP1 PUSH2 0x2646 JUMP JUMPDEST PUSH1 0x40 MLOAD DUP1 SWAP2 SUB SWAP1 REVERT JUMPDEST DUP1 PUSH1 0x4 PUSH1 0x0 PUSH2 0x100 EXP DUP2 SLOAD DUP2 PUSH20 0xFFFFFFFFFFFFFFFFFFFFFFFFFFFFFFFFFFFFFFFF MUL NOT AND SWAP1 DUP4 PUSH20 0xFFFFFFFFFFFFFFFFFFFFFFFFFFFFFFFFFFFFFFFF AND MUL OR SWAP1 SSTORE POP POP JUMP JUMPDEST PUSH1 0x0 DUP1 SLOAD SWAP1 PUSH2 0x100 EXP SWAP1 DIV PUSH20 0xFFFFFFFFFFFFFFFFFFFFFFFFFFFFFFFFFFFFFFFF AND PUSH20 0xFFFFFFFFFFFFFFFFFFFFFFFFFFFFFFFFFFFFFFFF AND CALLER PUSH20 0xFFFFFFFFFFFFFFFFFFFFFFFFFFFFFFFFFFFFFFFF AND EQ PUSH2 0x1A94 JUMPI PUSH1 0x40 MLOAD PUSH32 0x8C379A000000000000000000000000000000000000000000000000000000000 DUP2 MSTORE PUSH1 0x4 ADD PUSH2 0x1A8B SWAP1 PUSH2 0x2646 JUMP JUMPDEST PUSH1 0x40 MLOAD DUP1 SWAP2 SUB SWAP1 REVERT JUMPDEST DUP1 PUSH1 0x2 PUSH1 0x0 PUSH2 0x100 EXP DUP2 SLOAD DUP2 PUSH20 0xFFFFFFFFFFFFFFFFFFFFFFFFFFFFFFFFFFFFFFFF MUL NOT AND SWAP1 DUP4 PUSH20 0xFFFFFFFFFFFFFFFFFFFFFFFFFFFFFFFFFFFFFFFF AND MUL OR SWAP1 SSTORE POP POP JUMP JUMPDEST PUSH1 0x0 DUP1 SLOAD SWAP1 PUSH2 0x100 EXP SWAP1 DIV PUSH20 0xFFFFFFFFFFFFFFFFFFFFFFFFFFFFFFFFFFFFFFFF AND PUSH20 0xFFFFFFFFFFFFFFFFFFFFFFFFFFFFFFFFFFFFFFFF AND CALLER PUSH20 0xFFFFFFFFFFFFFFFFFFFFFFFFFFFFFFFFFFFFFFFF AND EQ PUSH2 0x1B66 JUMPI PUSH1 0x40 MLOAD PUSH32 0x8C379A000000000000000000000000000000000000000000000000000000000 DUP2 MSTORE PUSH1 0x4 ADD PUSH2 0x1B5D SWAP1 PUSH2 0x2646 JUMP JUMPDEST PUSH1 0x40 MLOAD DUP1 SWAP2 SUB SWAP1 REVERT JUMPDEST DUP1 PUSH1 0x6 PUSH1 0x0 PUSH2 0x100 EXP DUP2 SLOAD DUP2 PUSH20 0xFFFFFFFFFFFFFFFFFFFFFFFFFFFFFFFFFFFFFFFF MUL NOT AND SWAP1 DUP4 PUSH20 0xFFFFFFFFFFFFFFFFFFFFFFFFFFFFFFFFFFFFFFFF AND MUL OR SWAP1 SSTORE POP POP JUMP JUMPDEST PUSH1 0x7 SLOAD DUP2 JUMP JUMPDEST PUSH1 0x0 DUP1 SLOAD SWAP1 PUSH2 0x100 EXP SWAP1 DIV PUSH20 0xFFFFFFFFFFFFFFFFFFFFFFFFFFFFFFFFFFFFFFFF AND DUP2 JUMP JUMPDEST PUSH1 0x4 PUSH1 0x0 SWAP1 SLOAD SWAP1 PUSH2 0x100 EXP SWAP1 DIV PUSH20 0xFFFFFFFFFFFFFFFFFFFFFFFFFFFFFFFFFFFFFFFF AND DUP2 JUMP JUMPDEST PUSH1 0x5 PUSH1 0x0 SWAP1 SLOAD SWAP1 PUSH2 0x100 EXP SWAP1 DIV PUSH20 0xFFFFFFFFFFFFFFFFFFFFFFFFFFFFFFFFFFFFFFFF AND DUP2 JUMP JUMPDEST PUSH1 0x0 DUP1 SLOAD SWAP1 PUSH2 0x100 EXP SWAP1 DIV PUSH20 0xFFFFFFFFFFFFFFFFFFFFFFFFFFFFFFFFFFFFFFFF AND PUSH20 0xFFFFFFFFFFFFFFFFFFFFFFFFFFFFFFFFFFFFFFFF AND CALLER PUSH20 0xFFFFFFFFFFFFFFFFFFFFFFFFFFFFFFFFFFFFFFFF AND EQ PUSH2 0x1CAE JUMPI PUSH1 0x40 MLOAD PUSH32 0x8C379A000000000000000000000000000000000000000000000000000000000 DUP2 MSTORE PUSH1 0x4 ADD PUSH2 0x1CA5 SWAP1 PUSH2 0x2646 JUMP JUMPDEST PUSH1 0x40 MLOAD DUP1 SWAP2 SUB SWAP1 REVERT JUMPDEST DUP1 PUSH1 0x5 PUSH1 0x0 PUSH2 0x100 EXP DUP2 SLOAD DUP2 PUSH20 0xFFFFFFFFFFFFFFFFFFFFFFFFFFFFFFFFFFFFFFFF MUL NOT AND SWAP1 DUP4 PUSH20 0xFFFFFFFFFFFFFFFFFFFFFFFFFFFFFFFFFFFFFFFF AND MUL OR SWAP1 SSTORE POP POP JUMP JUMPDEST PUSH1 0x0 DUP1 SLOAD SWAP1 PUSH2 0x100 EXP SWAP1 DIV PUSH20 0xFFFFFFFFFFFFFFFFFFFFFFFFFFFFFFFFFFFFFFFF AND PUSH20 0xFFFFFFFFFFFFFFFFFFFFFFFFFFFFFFFFFFFFFFFF AND CALLER PUSH20 0xFFFFFFFFFFFFFFFFFFFFFFFFFFFFFFFFFFFFFFFF AND EQ PUSH2 0x1D80 JUMPI PUSH1 0x40 MLOAD PUSH32 0x8C379A000000000000000000000000000000000000000000000000000000000 DUP2 MSTORE PUSH1 0x4 ADD PUSH2 0x1D77 SWAP1 PUSH2 0x2646 JUMP JUMPDEST PUSH1 0x40 MLOAD DUP1 SWAP2 SUB SWAP1 REVERT JUMPDEST DUP1 PUSH1 0x0 DUP1 PUSH2 0x100 EXP DUP2 SLOAD DUP2 PUSH20 0xFFFFFFFFFFFFFFFFFFFFFFFFFFFFFFFFFFFFFFFF MUL NOT AND SWAP1 DUP4 PUSH20 0xFFFFFFFFFFFFFFFFFFFFFFFFFFFFFFFFFFFFFFFF AND MUL OR SWAP1 SSTORE POP POP JUMP JUMPDEST PUSH1 0x3 PUSH1 0x0 SWAP1 SLOAD SWAP1 PUSH2 0x100 EXP SWAP1 DIV PUSH20 0xFFFFFFFFFFFFFFFFFFFFFFFFFFFFFFFFFFFFFFFF AND DUP2 JUMP JUMPDEST PUSH1 0x0 PUSH2 0x1DF4 DUP3 PUSH2 0x1DFB JUMP JUMPDEST SWAP1 POP SWAP2 SWAP1 POP JUMP JUMPDEST PUSH1 0x0 DUP1 PUSH20 0x0 PUSH4 0xC0D2E8E6 DUP5 PUSH1 0x40 MLOAD DUP3 PUSH4 0xFFFFFFFF AND PUSH1 0xE0 SHL DUP2 MSTORE PUSH1 0x4 ADD PUSH2 0x1E35 SWAP2 SWAP1 PUSH2 0x2F67 JUMP JUMPDEST PUSH1 0x20 PUSH1 0x40 MLOAD DUP1 DUP4 SUB DUP2 DUP7 DUP1 EXTCODESIZE ISZERO DUP1 ISZERO PUSH2 0x1E4D JUMPI PUSH1 0x0 DUP1 REVERT JUMPDEST POP GAS DELEGATECALL ISZERO DUP1 ISZERO PUSH2 0x1E61 JUMPI RETURNDATASIZE PUSH1 0x0 DUP1 RETURNDATACOPY RETURNDATASIZE PUSH1 0x0 REVERT JUMPDEST POP POP POP POP PUSH1 0x40 MLOAD RETURNDATASIZE PUSH1 0x1F NOT PUSH1 0x1F DUP3 ADD AND DUP3 ADD DUP1 PUSH1 0x40 MSTORE POP DUP2 ADD SWAP1 PUSH2 0x1E85 SWAP2 SWAP1 PUSH2 0x2F83 JUMP JUMPDEST SWAP1 POP PUSH1 0x8 PUSH1 0x0 DUP3 DUP2 MSTORE PUSH1 0x20 ADD SWAP1 DUP2 MSTORE PUSH1 0x20 ADD PUSH1 0x0 KECCAK256 SLOAD SWAP2 POP POP SWAP2 SWAP1 POP JUMP JUMPDEST PUSH1 0x40 MLOAD DUP1 PUSH1 0x60 ADD PUSH1 0x40 MSTORE DUP1 PUSH1 0x0 DUP2 MSTORE PUSH1 0x20 ADD PUSH1 0x0 ISZERO ISZERO DUP2 MSTORE PUSH1 0x20 ADD PUSH2 0x1EC6 PUSH2 0x1ECC JUMP JUMPDEST DUP2 MSTORE POP SWAP1 JUMP JUMPDEST PUSH1 0x40 MLOAD DUP1 PUSH2 0x100 ADD PUSH1 0x40 MSTORE DUP1 PUSH1 0x0 DUP2 MSTORE PUSH1 0x20 ADD PUSH1 0x0 DUP2 MSTORE PUSH1 0x20 ADD PUSH1 0x0 DUP2 MSTORE PUSH1 0x20 ADD PUSH1 0x0 DUP2 MSTORE PUSH1 0x20 ADD PUSH1 0x0 DUP2 MSTORE PUSH1 0x20 ADD PUSH1 0x0 DUP2 MSTORE PUSH1 0x20 ADD PUSH1 0x0 DUP2 MSTORE PUSH1 0x20 ADD PUSH1 0x0 DUP2 MSTORE POP SWAP1 JUMP JUMPDEST PUSH1 0x0 PUSH1 0x40 MLOAD SWAP1 POP SWAP1 JUMP JUMPDEST PUSH1 0x0 DUP1 REVERT JUMPDEST PUSH1 0x0 PUSH20 0xFFFFFFFFFFFFFFFFFFFFFFFFFFFFFFFFFFFFFFFF DUP3 AND SWAP1 POP SWAP2 SWAP1 POP JUMP JUMPDEST PUSH1 0x0 PUSH2 0x1F4B DUP3 PUSH2 0x1F20 JUMP JUMPDEST SWAP1 POP SWAP2 SWAP1 POP JUMP JUMPDEST PUSH2 0x1F5B DUP2 PUSH2 0x1F40 JUMP JUMPDEST DUP2 EQ PUSH2 0x1F66 JUMPI PUSH1 0x0 DUP1 REVERT JUMPDEST POP JUMP JUMPDEST PUSH1 0x0 DUP2 CALLDATALOAD SWAP1 POP PUSH2 0x1F78 DUP2 PUSH2 0x1F52 JUMP JUMPDEST SWAP3 SWAP2 POP POP JUMP JUMPDEST PUSH1 0x0 PUSH1 0x20 DUP3 DUP5 SUB SLT ISZERO PUSH2 0x1F94 JUMPI PUSH2 0x1F93 PUSH2 0x1F1B JUMP JUMPDEST JUMPDEST PUSH1 0x0 PUSH2 0x1FA2 DUP5 DUP3 DUP6 ADD PUSH2 0x1F69 JUMP JUMPDEST SWAP2 POP POP SWAP3 SWAP2 POP POP JUMP JUMPDEST PUSH1 0x0 DUP1 REVERT JUMPDEST PUSH1 0x0 PUSH1 0x1F NOT PUSH1 0x1F DUP4 ADD AND SWAP1 POP SWAP2 SWAP1 POP JUMP JUMPDEST PUSH32 0x4E487B7100000000000000000000000000000000000000000000000000000000 PUSH1 0x0 MSTORE PUSH1 0x41 PUSH1 0x4 MSTORE PUSH1 0x24 PUSH1 0x0 REVERT JUMPDEST PUSH2 0x1FF9 DUP3 PUSH2 0x1FB0 JUMP JUMPDEST DUP2 ADD DUP2 DUP2 LT PUSH8 0xFFFFFFFFFFFFFFFF DUP3 GT OR ISZERO PUSH2 0x2018 JUMPI PUSH2 0x2017 PUSH2 0x1FC1 JUMP JUMPDEST JUMPDEST DUP1 PUSH1 0x40 MSTORE POP POP POP JUMP JUMPDEST PUSH1 0x0 PUSH2 0x202B PUSH2 0x1F11 JUMP JUMPDEST SWAP1 POP PUSH2 0x2037 DUP3 DUP3 PUSH2 0x1FF0 JUMP JUMPDEST SWAP2 SWAP1 POP JUMP JUMPDEST PUSH1 0x0 DUP2 ISZERO ISZERO SWAP1 POP SWAP2 SWAP1 POP JUMP JUMPDEST PUSH2 0x2051 DUP2 PUSH2 0x203C JUMP JUMPDEST DUP2 EQ PUSH2 0x205C JUMPI PUSH1 0x0 DUP1 REVERT JUMPDEST POP JUMP JUMPDEST PUSH1 0x0 DUP2 CALLDATALOAD SWAP1 POP PUSH2 0x206E DUP2 PUSH2 0x2048 JUMP JUMPDEST SWAP3 SWAP2 POP POP JUMP JUMPDEST PUSH1 0x0 DUP2 SWAP1 POP SWAP2 SWAP1 POP JUMP JUMPDEST PUSH2 0x2087 DUP2 PUSH2 0x2074 JUMP JUMPDEST DUP2 EQ PUSH2 0x2092 JUMPI PUSH1 0x0 DUP1 REVERT JUMPDEST POP JUMP JUMPDEST PUSH1 0x0 DUP2 CALLDATALOAD SWAP1 POP PUSH2 0x20A4 DUP2 PUSH2 0x207E JUMP JUMPDEST SWAP3 SWAP2 POP POP JUMP JUMPDEST PUSH1 0x0 PUSH2 0x100 DUP3 DUP5 SUB SLT ISZERO PUSH2 0x20C1 JUMPI PUSH2 0x20C0 PUSH2 0x1FAB JUMP JUMPDEST JUMPDEST PUSH2 0x20CC PUSH2 0x100 PUSH2 0x2021 JUMP JUMPDEST SWAP1 POP PUSH1 0x0 PUSH2 0x20DC DUP5 DUP3 DUP6 ADD PUSH2 0x2095 JUMP JUMPDEST PUSH1 0x0 DUP4 ADD MSTORE POP PUSH1 0x20 PUSH2 0x20F0 DUP5 DUP3 DUP6 ADD PUSH2 0x2095 JUMP JUMPDEST PUSH1 0x20 DUP4 ADD MSTORE POP PUSH1 0x40 PUSH2 0x2104 DUP5 DUP3 DUP6 ADD PUSH2 0x2095 JUMP JUMPDEST PUSH1 0x40 DUP4 ADD MSTORE POP PUSH1 0x60 PUSH2 0x2118 DUP5 DUP3 DUP6 ADD PUSH2 0x2095 JUMP JUMPDEST PUSH1 0x60 DUP4 ADD MSTORE POP PUSH1 0x80 PUSH2 0x212C DUP5 DUP3 DUP6 ADD PUSH2 0x2095 JUMP JUMPDEST PUSH1 0x80 DUP4 ADD MSTORE POP PUSH1 0xA0 PUSH2 0x2140 DUP5 DUP3 DUP6 ADD PUSH2 0x2095 JUMP JUMPDEST PUSH1 0xA0 DUP4 ADD MSTORE POP PUSH1 0xC0 PUSH2 0x2154 DUP5 DUP3 DUP6 ADD PUSH2 0x2095 JUMP JUMPDEST PUSH1 0xC0 DUP4 ADD MSTORE POP PUSH1 0xE0 PUSH2 0x2168 DUP5 DUP3 DUP6 ADD PUSH2 0x2095 JUMP JUMPDEST PUSH1 0xE0 DUP4 ADD MSTORE POP SWAP3 SWAP2 POP POP JUMP JUMPDEST PUSH1 0x0 PUSH1 0x60 DUP3 DUP5 SUB SLT ISZERO PUSH2 0x218A JUMPI PUSH2 0x2189 PUSH2 0x1FAB JUMP JUMPDEST JUMPDEST PUSH2 0x2194 PUSH1 0x60 PUSH2 0x2021 JUMP JUMPDEST SWAP1 POP PUSH1 0x0 PUSH2 0x21A4 DUP5 DUP3 DUP6 ADD PUSH2 0x2095 JUMP JUMPDEST PUSH1 0x0 DUP4 ADD MSTORE POP PUSH1 0x20 PUSH2 0x21B8 DUP5 DUP3 DUP6 ADD PUSH2 0x2095 JUMP JUMPDEST PUSH1 0x20 DUP4 ADD MSTORE POP PUSH1 0x40 PUSH2 0x21CC DUP5 DUP3 DUP6 ADD PUSH2 0x2095 JUMP JUMPDEST PUSH1 0x40 DUP4 ADD MSTORE POP SWAP3 SWAP2 POP POP JUMP JUMPDEST PUSH1 0x0 PUSH2 0x220 DUP3 DUP5 SUB SLT ISZERO PUSH2 0x21EF JUMPI PUSH2 0x21EE PUSH2 0x1FAB JUMP JUMPDEST JUMPDEST PUSH2 0x21FA PUSH2 0x100 PUSH2 0x2021 JUMP JUMPDEST SWAP1 POP PUSH1 0x0 PUSH2 0x220A DUP5 DUP3 DUP6 ADD PUSH2 0x205F JUMP JUMPDEST PUSH1 0x0 DUP4 ADD MSTORE POP PUSH1 0x20 PUSH2 0x221E DUP5 DUP3 DUP6 ADD PUSH2 0x1F69 JUMP JUMPDEST PUSH1 0x20 DUP4 ADD MSTORE POP PUSH1 0x40 PUSH2 0x2232 DUP5 DUP3 DUP6 ADD PUSH2 0x2095 JUMP JUMPDEST PUSH1 0x40 DUP4 ADD MSTORE POP PUSH1 0x60 PUSH2 0x2246 DUP5 DUP3 DUP6 ADD PUSH2 0x2095 JUMP JUMPDEST PUSH1 0x60 DUP4 ADD MSTORE POP PUSH1 0x80 PUSH2 0x225A DUP5 DUP3 DUP6 ADD PUSH2 0x2095 JUMP JUMPDEST PUSH1 0x80 DUP4 ADD MSTORE POP PUSH1 0xA0 PUSH2 0x226E DUP5 DUP3 DUP6 ADD PUSH2 0x2095 JUMP JUMPDEST PUSH1 0xA0 DUP4 ADD MSTORE POP PUSH1 0xC0 PUSH2 0x2282 DUP5 DUP3 DUP6 ADD PUSH2 0x20AA JUMP JUMPDEST PUSH1 0xC0 DUP4 ADD MSTORE POP PUSH2 0x1C0 PUSH2 0x2297 DUP5 DUP3 DUP6 ADD PUSH2 0x2174 JUMP JUMPDEST PUSH1 0xE0 DUP4 ADD MSTORE POP SWAP3 SWAP2 POP POP JUMP JUMPDEST PUSH1 0x0 DUP1 PUSH2 0x240 DUP4 DUP6 SUB SLT ISZERO PUSH2 0x22BB JUMPI PUSH2 0x22BA PUSH2 0x1F1B JUMP JUMPDEST JUMPDEST PUSH1 0x0 PUSH2 0x22C9 DUP6 DUP3 DUP7 ADD PUSH2 0x21D8 JUMP JUMPDEST SWAP3 POP POP PUSH2 0x220 PUSH2 0x22DB DUP6 DUP3 DUP7 ADD PUSH2 0x2095 JUMP JUMPDEST SWAP2 POP POP SWAP3 POP SWAP3 SWAP1 POP JUMP JUMPDEST PUSH2 0x22EE DUP2 PUSH2 0x203C JUMP JUMPDEST DUP3 MSTORE POP POP JUMP JUMPDEST PUSH1 0x0 PUSH1 0x20 DUP3 ADD SWAP1 POP PUSH2 0x2309 PUSH1 0x0 DUP4 ADD DUP5 PUSH2 0x22E5 JUMP JUMPDEST SWAP3 SWAP2 POP POP JUMP JUMPDEST PUSH1 0x0 PUSH1 0x20 DUP3 DUP5 SUB SLT ISZERO PUSH2 0x2325 JUMPI PUSH2 0x2324 PUSH2 0x1F1B JUMP JUMPDEST JUMPDEST PUSH1 0x0 PUSH2 0x2333 DUP5 DUP3 DUP6 ADD PUSH2 0x2095 JUMP JUMPDEST SWAP2 POP POP SWAP3 SWAP2 POP POP JUMP JUMPDEST PUSH1 0x0 DUP2 MLOAD SWAP1 POP SWAP2 SWAP1 POP JUMP JUMPDEST PUSH1 0x0 DUP3 DUP3 MSTORE PUSH1 0x20 DUP3 ADD SWAP1 POP SWAP3 SWAP2 POP POP JUMP JUMPDEST PUSH1 0x0 DUP2 SWAP1 POP PUSH1 0x20 DUP3 ADD SWAP1 POP SWAP2 SWAP1 POP JUMP JUMPDEST PUSH2 0x2371 DUP2 PUSH2 0x2074 JUMP JUMPDEST DUP3 MSTORE POP POP JUMP JUMPDEST PUSH2 0x2380 DUP2 PUSH2 0x203C JUMP JUMPDEST DUP3 MSTORE POP POP JUMP JUMPDEST PUSH2 0x100 DUP3 ADD PUSH1 0x0 DUP3 ADD MLOAD PUSH2 0x239D PUSH1 0x0 DUP6 ADD DUP3 PUSH2 0x2368 JUMP JUMPDEST POP PUSH1 0x20 DUP3 ADD MLOAD PUSH2 0x23B0 PUSH1 0x20 DUP6 ADD DUP3 PUSH2 0x2368 JUMP JUMPDEST POP PUSH1 0x40 DUP3 ADD MLOAD PUSH2 0x23C3 PUSH1 0x40 DUP6 ADD DUP3 PUSH2 0x2368 JUMP JUMPDEST POP PUSH1 0x60 DUP3 ADD MLOAD PUSH2 0x23D6 PUSH1 0x60 DUP6 ADD DUP3 PUSH2 0x2368 JUMP JUMPDEST POP PUSH1 0x80 DUP3 ADD MLOAD PUSH2 0x23E9 PUSH1 0x80 DUP6 ADD DUP3 PUSH2 0x2368 JUMP JUMPDEST POP PUSH1 0xA0 DUP3 ADD MLOAD PUSH2 0x23FC PUSH1 0xA0 DUP6 ADD DUP3 PUSH2 0x2368 JUMP JUMPDEST POP PUSH1 0xC0 DUP3 ADD MLOAD PUSH2 0x240F PUSH1 0xC0 DUP6 ADD DUP3 PUSH2 0x2368 JUMP JUMPDEST POP PUSH1 0xE0 DUP3 ADD MLOAD PUSH2 0x2422 PUSH1 0xE0 DUP6 ADD DUP3 PUSH2 0x2368 JUMP JUMPDEST POP POP POP POP JUMP JUMPDEST PUSH2 0x140 DUP3 ADD PUSH1 0x0 DUP3 ADD MLOAD PUSH2 0x243F PUSH1 0x0 DUP6 ADD DUP3 PUSH2 0x2368 JUMP JUMPDEST POP PUSH1 0x20 DUP3 ADD MLOAD PUSH2 0x2452 PUSH1 0x20 DUP6 ADD DUP3 PUSH2 0x2377 JUMP JUMPDEST POP PUSH1 0x40 DUP3 ADD MLOAD PUSH2 0x2465 PUSH1 0x40 DUP6 ADD DUP3 PUSH2 0x2386 JUMP JUMPDEST POP POP POP POP JUMP JUMPDEST PUSH1 0x0 PUSH2 0x2477 DUP4 DUP4 PUSH2 0x2428 JUMP JUMPDEST PUSH2 0x140 DUP4 ADD SWAP1 POP SWAP3 SWAP2 POP POP JUMP JUMPDEST PUSH1 0x0 PUSH1 0x20 DUP3 ADD SWAP1 POP SWAP2 SWAP1 POP JUMP JUMPDEST PUSH1 0x0 PUSH2 0x249C DUP3 PUSH2 0x233C JUMP JUMPDEST PUSH2 0x24A6 DUP2 DUP6 PUSH2 0x2347 JUMP JUMPDEST SWAP4 POP PUSH2 0x24B1 DUP4 PUSH2 0x2358 JUMP JUMPDEST DUP1 PUSH1 0x0 JUMPDEST DUP4 DUP2 LT ISZERO PUSH2 0x24E2 JUMPI DUP2 MLOAD PUSH2 0x24C9 DUP9 DUP3 PUSH2 0x246B JUMP JUMPDEST SWAP8 POP PUSH2 0x24D4 DUP4 PUSH2 0x2484 JUMP JUMPDEST SWAP3 POP POP PUSH1 0x1 DUP2 ADD SWAP1 POP PUSH2 0x24B5 JUMP JUMPDEST POP DUP6 SWAP4 POP POP POP POP SWAP3 SWAP2 POP POP JUMP JUMPDEST PUSH1 0x0 PUSH1 0x20 DUP3 ADD SWAP1 POP DUP2 DUP2 SUB PUSH1 0x0 DUP4 ADD MSTORE PUSH2 0x2509 DUP2 DUP5 PUSH2 0x2491 JUMP JUMPDEST SWAP1 POP SWAP3 SWAP2 POP POP JUMP JUMPDEST PUSH2 0x251A DUP2 PUSH2 0x1F40 JUMP JUMPDEST DUP3 MSTORE POP POP JUMP JUMPDEST PUSH1 0x0 PUSH1 0x20 DUP3 ADD SWAP1 POP PUSH2 0x2535 PUSH1 0x0 DUP4 ADD DUP5 PUSH2 0x2511 JUMP JUMPDEST SWAP3 SWAP2 POP POP JUMP JUMPDEST PUSH1 0x0 DUP1 PUSH1 0x0 PUSH2 0x260 DUP5 DUP7 SUB SLT ISZERO PUSH2 0x2555 JUMPI PUSH2 0x2554 PUSH2 0x1F1B JUMP JUMPDEST JUMPDEST PUSH1 0x0 PUSH2 0x2563 DUP7 DUP3 DUP8 ADD PUSH2 0x21D8 JUMP JUMPDEST SWAP4 POP POP PUSH2 0x220 PUSH2 0x2575 DUP7 DUP3 DUP8 ADD PUSH2 0x2095 JUMP JUMPDEST SWAP3 POP POP PUSH2 0x240 PUSH2 0x2587 DUP7 DUP3 DUP8 ADD PUSH2 0x205F JUMP JUMPDEST SWAP2 POP POP SWAP3 POP SWAP3 POP SWAP3 JUMP JUMPDEST PUSH2 0x259A DUP2 PUSH2 0x2074 JUMP JUMPDEST DUP3 MSTORE POP POP JUMP JUMPDEST PUSH1 0x0 PUSH1 0x20 DUP3 ADD SWAP1 POP PUSH2 0x25B5 PUSH1 0x0 DUP4 ADD DUP5 PUSH2 0x2591 JUMP JUMPDEST SWAP3 SWAP2 POP POP JUMP JUMPDEST PUSH1 0x0 PUSH2 0x220 DUP3 DUP5 SUB SLT ISZERO PUSH2 0x25D2 JUMPI PUSH2 0x25D1 PUSH2 0x1F1B JUMP JUMPDEST JUMPDEST PUSH1 0x0 PUSH2 0x25E0 DUP5 DUP3 DUP6 ADD PUSH2 0x21D8 JUMP JUMPDEST SWAP2 POP POP SWAP3 SWAP2 POP POP JUMP JUMPDEST PUSH1 0x0 DUP3 DUP3 MSTORE PUSH1 0x20 DUP3 ADD SWAP1 POP SWAP3 SWAP2 POP POP JUMP JUMPDEST PUSH32 0x43616E2062652063616C6C6564206F6E6C7920627920474D0000000000000000 PUSH1 0x0 DUP3 ADD MSTORE POP JUMP JUMPDEST PUSH1 0x0 PUSH2 0x2630 PUSH1 0x18 DUP4 PUSH2 0x25E9 JUMP JUMPDEST SWAP2 POP PUSH2 0x263B DUP3 PUSH2 0x25FA JUMP JUMPDEST PUSH1 0x20 DUP3 ADD SWAP1 POP SWAP2 SWAP1 POP JUMP JUMPDEST PUSH1 0x0 PUSH1 0x20 DUP3 ADD SWAP1 POP DUP2 DUP2 SUB PUSH1 0x0 DUP4 ADD MSTORE PUSH2 0x265F DUP2 PUSH2 0x2623 JUMP JUMPDEST SWAP1 POP SWAP2 SWAP1 POP JUMP JUMPDEST PUSH32 0x496E76616C6964206C6576656C20696E64657800000000000000000000000000 PUSH1 0x0 DUP3 ADD MSTORE POP JUMP JUMPDEST PUSH1 0x0 PUSH2 0x269C PUSH1 0x13 DUP4 PUSH2 0x25E9 JUMP JUMPDEST SWAP2 POP PUSH2 0x26A7 DUP3 PUSH2 0x2666 JUMP JUMPDEST PUSH1 0x20 DUP3 ADD SWAP1 POP SWAP2 SWAP1 POP JUMP JUMPDEST PUSH1 0x0 PUSH1 0x20 DUP3 ADD SWAP1 POP DUP2 DUP2 SUB PUSH1 0x0 DUP4 ADD MSTORE PUSH2 0x26CB DUP2 PUSH2 0x268F JUMP JUMPDEST SWAP1 POP SWAP2 SWAP1 POP JUMP JUMPDEST PUSH1 0x0 DUP2 SWAP1 POP SWAP2 SWAP1 POP JUMP JUMPDEST PUSH1 0x0 DUP2 SWAP1 POP SWAP2 SWAP1 POP JUMP JUMPDEST PUSH1 0x0 PUSH2 0x2701 PUSH2 0x26FC PUSH2 0x26F7 DUP5 PUSH2 0x26D2 JUMP JUMPDEST PUSH2 0x26DC JUMP JUMPDEST PUSH2 0x2074 JUMP JUMPDEST SWAP1 POP SWAP2 SWAP1 POP JUMP JUMPDEST PUSH2 0x2711 DUP2 PUSH2 0x26E6 JUMP JUMPDEST DUP3 MSTORE POP POP JUMP JUMPDEST PUSH1 0x0 DUP2 SWAP1 POP SWAP2 SWAP1 POP JUMP JUMPDEST PUSH1 0x0 PUSH2 0x273C PUSH2 0x2737 PUSH2 0x2732 DUP5 PUSH2 0x2717 JUMP JUMPDEST PUSH2 0x26DC JUMP JUMPDEST PUSH2 0x2074 JUMP JUMPDEST SWAP1 POP SWAP2 SWAP1 POP JUMP JUMPDEST PUSH2 0x274C DUP2 PUSH2 0x2721 JUMP JUMPDEST DUP3 MSTORE POP POP JUMP JUMPDEST PUSH1 0x0 PUSH1 0xA0 DUP3 ADD SWAP1 POP PUSH2 0x2767 PUSH1 0x0 DUP4 ADD DUP9 PUSH2 0x2708 JUMP JUMPDEST PUSH2 0x2774 PUSH1 0x20 DUP4 ADD DUP8 PUSH2 0x2708 JUMP JUMPDEST PUSH2 0x2781 PUSH1 0x40 DUP4 ADD DUP7 PUSH2 0x2708 JUMP JUMPDEST PUSH2 0x278E PUSH1 0x60 DUP4 ADD DUP6 PUSH2 0x2743 JUMP JUMPDEST PUSH2 0x279B PUSH1 0x80 DUP4 ADD DUP5 PUSH2 0x2743 JUMP JUMPDEST SWAP7 SWAP6 POP POP POP POP POP POP JUMP JUMPDEST PUSH1 0x0 DUP2 MLOAD SWAP1 POP PUSH2 0x27B4 DUP2 PUSH2 0x207E JUMP JUMPDEST SWAP3 SWAP2 POP POP JUMP JUMPDEST PUSH1 0x0 PUSH2 0x100 DUP3 DUP5 SUB SLT ISZERO PUSH2 0x27D1 JUMPI PUSH2 0x27D0 PUSH2 0x1FAB JUMP JUMPDEST JUMPDEST PUSH2 0x27DC PUSH2 0x100 PUSH2 0x2021 JUMP JUMPDEST SWAP1 POP PUSH1 0x0 PUSH2 0x27EC DUP5 DUP3 DUP6 ADD PUSH2 0x27A5 JUMP JUMPDEST PUSH1 0x0 DUP4 ADD MSTORE POP PUSH1 0x20 PUSH2 0x2800 DUP5 DUP3 DUP6 ADD PUSH2 0x27A5 JUMP JUMPDEST PUSH1 0x20 DUP4 ADD MSTORE POP PUSH1 0x40 PUSH2 0x2814 DUP5 DUP3 DUP6 ADD PUSH2 0x27A5 JUMP JUMPDEST PUSH1 0x40 DUP4 ADD MSTORE POP PUSH1 0x60 PUSH2 0x2828 DUP5 DUP3 DUP6 ADD PUSH2 0x27A5 JUMP JUMPDEST PUSH1 0x60 DUP4 ADD MSTORE POP PUSH1 0x80 PUSH2 0x283C DUP5 DUP3 DUP6 ADD PUSH2 0x27A5 JUMP JUMPDEST PUSH1 0x80 DUP4 ADD MSTORE POP PUSH1 0xA0 PUSH2 0x2850 DUP5 DUP3 DUP6 ADD PUSH2 0x27A5 JUMP JUMPDEST PUSH1 0xA0 DUP4 ADD MSTORE POP PUSH1 0xC0 PUSH2 0x2864 DUP5 DUP3 DUP6 ADD PUSH2 0x27A5 JUMP JUMPDEST PUSH1 0xC0 DUP4 ADD MSTORE POP PUSH1 0xE0 PUSH2 0x2878 DUP5 DUP3 DUP6 ADD PUSH2 0x27A5 JUMP JUMPDEST PUSH1 0xE0 DUP4 ADD MSTORE POP SWAP3 SWAP2 POP POP JUMP JUMPDEST PUSH1 0x0 PUSH2 0x100 DUP3 DUP5 SUB SLT ISZERO PUSH2 0x289B JUMPI PUSH2 0x289A PUSH2 0x1F1B JUMP JUMPDEST JUMPDEST PUSH1 0x0 PUSH2 0x28A9 DUP5 DUP3 DUP6 ADD PUSH2 0x27BA JUMP JUMPDEST SWAP2 POP POP SWAP3 SWAP2 POP POP JUMP JUMPDEST PUSH32 0x4E487B7100000000000000000000000000000000000000000000000000000000 PUSH1 0x0 MSTORE PUSH1 0x32 PUSH1 0x4 MSTORE PUSH1 0x24 PUSH1 0x0 REVERT JUMPDEST PUSH1 0x0 DUP2 SWAP1 POP SWAP2 SWAP1 POP JUMP JUMPDEST PUSH1 0x0 PUSH2 0x2906 PUSH2 0x2901 PUSH2 0x28FC DUP5 PUSH2 0x28E1 JUMP JUMPDEST PUSH2 0x26DC JUMP JUMPDEST PUSH2 0x2074 JUMP JUMPDEST SWAP1 POP SWAP2 SWAP1 POP JUMP JUMPDEST PUSH2 0x2916 DUP2 PUSH2 0x28EB JUMP JUMPDEST DUP3 MSTORE POP POP JUMP JUMPDEST PUSH1 0x0 DUP2 SWAP1 POP SWAP2 SWAP1 POP JUMP JUMPDEST PUSH1 0x0 PUSH2 0x2941 PUSH2 0x293C PUSH2 0x2937 DUP5 PUSH2 0x291C JUMP JUMPDEST PUSH2 0x26DC JUMP JUMPDEST PUSH2 0x2074 JUMP JUMPDEST SWAP1 POP SWAP2 SWAP1 POP JUMP JUMPDEST PUSH2 0x2951 DUP2 PUSH2 0x2926 JUMP JUMPDEST DUP3 MSTORE POP POP JUMP JUMPDEST PUSH1 0x0 PUSH1 0xA0 DUP3 ADD SWAP1 POP PUSH2 0x296C PUSH1 0x0 DUP4 ADD DUP9 PUSH2 0x290D JUMP JUMPDEST PUSH2 0x2979 PUSH1 0x20 DUP4 ADD DUP8 PUSH2 0x2708 JUMP JUMPDEST PUSH2 0x2986 PUSH1 0x40 DUP4 ADD DUP7 PUSH2 0x2948 JUMP JUMPDEST PUSH2 0x2993 PUSH1 0x60 DUP4 ADD DUP6 PUSH2 0x2743 JUMP JUMPDEST PUSH2 0x29A0 PUSH1 0x80 DUP4 ADD DUP5 PUSH2 0x2708 JUMP JUMPDEST SWAP7 SWAP6 POP POP POP POP POP POP JUMP JUMPDEST PUSH1 0x0 DUP2 SWAP1 POP SWAP2 SWAP1 POP JUMP JUMPDEST PUSH1 0x0 PUSH2 0x29CF PUSH2 0x29CA PUSH2 0x29C5 DUP5 PUSH2 0x29AA JUMP JUMPDEST PUSH2 0x26DC JUMP JUMPDEST PUSH2 0x2074 JUMP JUMPDEST SWAP1 POP SWAP2 SWAP1 POP JUMP JUMPDEST PUSH2 0x29DF DUP2 PUSH2 0x29B4 JUMP JUMPDEST DUP3 MSTORE POP POP JUMP JUMPDEST PUSH1 0x0 PUSH1 0xA0 DUP3 ADD SWAP1 POP PUSH2 0x29FA PUSH1 0x0 DUP4 ADD DUP9 PUSH2 0x29D6 JUMP JUMPDEST PUSH2 0x2A07 PUSH1 0x20 DUP4 ADD DUP8 PUSH2 0x2708 JUMP JUMPDEST PUSH2 0x2A14 PUSH1 0x40 DUP4 ADD DUP7 PUSH2 0x29D6 JUMP JUMPDEST PUSH2 0x2A21 PUSH1 0x60 DUP4 ADD DUP6 PUSH2 0x2743 JUMP JUMPDEST PUSH2 0x2A2E PUSH1 0x80 DUP4 ADD DUP5 PUSH2 0x2708 JUMP JUMPDEST SWAP7 SWAP6 POP POP POP POP POP POP JUMP JUMPDEST PUSH1 0x0 DUP2 SWAP1 POP SWAP2 SWAP1 POP JUMP JUMPDEST PUSH1 0x0 PUSH2 0x2A5D PUSH2 0x2A58 PUSH2 0x2A53 DUP5 PUSH2 0x2A38 JUMP JUMPDEST PUSH2 0x26DC JUMP JUMPDEST PUSH2 0x2074 JUMP JUMPDEST SWAP1 POP SWAP2 SWAP1 POP JUMP JUMPDEST PUSH2 0x2A6D DUP2 PUSH2 0x2A42 JUMP JUMPDEST DUP3 MSTORE POP POP JUMP JUMPDEST PUSH1 0x0 DUP2 SWAP1 POP SWAP2 SWAP1 POP JUMP JUMPDEST PUSH1 0x0 PUSH2 0x2A98 PUSH2 0x2A93 PUSH2 0x2A8E DUP5 PUSH2 0x2A73 JUMP JUMPDEST PUSH2 0x26DC JUMP JUMPDEST PUSH2 0x2074 JUMP JUMPDEST SWAP1 POP SWAP2 SWAP1 POP JUMP JUMPDEST PUSH2 0x2AA8 DUP2 PUSH2 0x2A7D JUMP JUMPDEST DUP3 MSTORE POP POP JUMP JUMPDEST PUSH1 0x0 PUSH1 0xA0 DUP3 ADD SWAP1 POP PUSH2 0x2AC3 PUSH1 0x0 DUP4 ADD DUP9 PUSH2 0x2A64 JUMP JUMPDEST PUSH2 0x2AD0 PUSH1 0x20 DUP4 ADD DUP8 PUSH2 0x2708 JUMP JUMPDEST PUSH2 0x2ADD PUSH1 0x40 DUP4 ADD DUP7 PUSH2 0x2A9F JUMP JUMPDEST PUSH2 0x2AEA PUSH1 0x60 DUP4 ADD DUP6 PUSH2 0x2743 JUMP JUMPDEST PUSH2 0x2AF7 PUSH1 0x80 DUP4 ADD DUP5 PUSH2 0x2743 JUMP JUMPDEST SWAP7 SWAP6 POP POP POP POP POP POP JUMP JUMPDEST PUSH1 0x0 DUP2 SWAP1 POP SWAP2 SWAP1 POP JUMP JUMPDEST PUSH1 0x0 PUSH2 0x2B26 PUSH2 0x2B21 PUSH2 0x2B1C DUP5 PUSH2 0x2B01 JUMP JUMPDEST PUSH2 0x26DC JUMP JUMPDEST PUSH2 0x2074 JUMP JUMPDEST SWAP1 POP SWAP2 SWAP1 POP JUMP JUMPDEST PUSH2 0x2B36 DUP2 PUSH2 0x2B0B JUMP JUMPDEST DUP3 MSTORE POP POP JUMP JUMPDEST PUSH1 0x0 PUSH1 0xA0 DUP3 ADD SWAP1 POP PUSH2 0x2B51 PUSH1 0x0 DUP4 ADD DUP9 PUSH2 0x2B2D JUMP JUMPDEST PUSH2 0x2B5E PUSH1 0x20 DUP4 ADD DUP8 PUSH2 0x2708 JUMP JUMPDEST PUSH2 0x2B6B PUSH1 0x40 DUP4 ADD DUP7 PUSH2 0x2A9F JUMP JUMPDEST PUSH2 0x2B78 PUSH1 0x60 DUP4 ADD DUP6 PUSH2 0x2743 JUMP JUMPDEST PUSH2 0x2B85 PUSH1 0x80 DUP4 ADD DUP5 PUSH2 0x290D JUMP JUMPDEST SWAP7 SWAP6 POP POP POP POP POP POP JUMP JUMPDEST PUSH1 0x0 DUP2 SWAP1 POP SWAP2 SWAP1 POP JUMP JUMPDEST PUSH1 0x0 PUSH2 0x2BB4 PUSH2 0x2BAF PUSH2 0x2BAA DUP5 PUSH2 0x2B8F JUMP JUMPDEST PUSH2 0x26DC JUMP JUMPDEST PUSH2 0x2074 JUMP JUMPDEST SWAP1 POP SWAP2 SWAP1 POP JUMP JUMPDEST PUSH2 0x2BC4 DUP2 PUSH2 0x2B99 JUMP JUMPDEST DUP3 MSTORE POP POP JUMP JUMPDEST PUSH1 0x0 PUSH1 0xA0 DUP3 ADD SWAP1 POP PUSH2 0x2BDF PUSH1 0x0 DUP4 ADD DUP9 PUSH2 0x2BBB JUMP JUMPDEST PUSH2 0x2BEC PUSH1 0x20 DUP4 ADD DUP8 PUSH2 0x2708 JUMP JUMPDEST PUSH2 0x2BF9 PUSH1 0x40 DUP4 ADD DUP7 PUSH2 0x2BBB JUMP JUMPDEST PUSH2 0x2C06 PUSH1 0x60 DUP4 ADD DUP6 PUSH2 0x2743 JUMP JUMPDEST PUSH2 0x2C13 PUSH1 0x80 DUP4 ADD DUP5 PUSH2 0x29D6 JUMP JUMPDEST SWAP7 SWAP6 POP POP POP POP POP POP JUMP JUMPDEST PUSH1 0x0 DUP2 SWAP1 POP SWAP2 SWAP1 POP JUMP JUMPDEST PUSH1 0x0 PUSH2 0x2C42 PUSH2 0x2C3D PUSH2 0x2C38 DUP5 PUSH2 0x2C1D JUMP JUMPDEST PUSH2 0x26DC JUMP JUMPDEST PUSH2 0x2074 JUMP JUMPDEST SWAP1 POP SWAP2 SWAP1 POP JUMP JUMPDEST PUSH2 0x2C52 DUP2 PUSH2 0x2C27 JUMP JUMPDEST DUP3 MSTORE POP POP JUMP JUMPDEST PUSH1 0x0 DUP2 SWAP1 POP SWAP2 SWAP1 POP JUMP JUMPDEST PUSH1 0x0 PUSH2 0x2C7D PUSH2 0x2C78 PUSH2 0x2C73 DUP5 PUSH2 0x2C58 JUMP JUMPDEST PUSH2 0x26DC JUMP JUMPDEST PUSH2 0x2074 JUMP JUMPDEST SWAP1 POP SWAP2 SWAP1 POP JUMP JUMPDEST PUSH2 0x2C8D DUP2 PUSH2 0x2C62 JUMP JUMPDEST DUP3 MSTORE POP POP JUMP JUMPDEST PUSH1 0x0 DUP2 SWAP1 POP SWAP2 SWAP1 POP JUMP JUMPDEST PUSH1 0x0 PUSH2 0x2CB8 PUSH2 0x2CB3 PUSH2 0x2CAE DUP5 PUSH2 0x2C93 JUMP JUMPDEST PUSH2 0x26DC JUMP JUMPDEST PUSH2 0x2074 JUMP JUMPDEST SWAP1 POP SWAP2 SWAP1 POP JUMP JUMPDEST PUSH2 0x2CC8 DUP2 PUSH2 0x2C9D JUMP JUMPDEST DUP3 MSTORE POP POP JUMP JUMPDEST PUSH1 0x0 PUSH1 0xA0 DUP3 ADD SWAP1 POP PUSH2 0x2CE3 PUSH1 0x0 DUP4 ADD DUP9 PUSH2 0x2C49 JUMP JUMPDEST PUSH2 0x2CF0 PUSH1 0x20 DUP4 ADD DUP8 PUSH2 0x2708 JUMP JUMPDEST PUSH2 0x2CFD PUSH1 0x40 DUP4 ADD DUP7 PUSH2 0x2C84 JUMP JUMPDEST PUSH2 0x2D0A PUSH1 0x60 DUP4 ADD DUP6 PUSH2 0x2743 JUMP JUMPDEST PUSH2 0x2D17 PUSH1 0x80 DUP4 ADD DUP5 PUSH2 0x2CBF JUMP JUMPDEST SWAP7 SWAP6 POP POP POP POP POP POP JUMP JUMPDEST PUSH32 0x4F6E6C792067616D6520636F6E7472616374732063616E2063616C6C20746869 PUSH1 0x0 DUP3 ADD MSTORE PUSH32 0x73206D6574686F64000000000000000000000000000000000000000000000000 PUSH1 0x20 DUP3 ADD MSTORE POP JUMP JUMPDEST PUSH1 0x0 PUSH2 0x2D7D PUSH1 0x28 DUP4 PUSH2 0x25E9 JUMP JUMPDEST SWAP2 POP PUSH2 0x2D88 DUP3 PUSH2 0x2D21 JUMP JUMPDEST PUSH1 0x40 DUP3 ADD SWAP1 POP SWAP2 SWAP1 POP JUMP JUMPDEST PUSH1 0x0 PUSH1 0x20 DUP3 ADD SWAP1 POP DUP2 DUP2 SUB PUSH1 0x0 DUP4 ADD MSTORE PUSH2 0x2DAC DUP2 PUSH2 0x2D70 JUMP JUMPDEST SWAP1 POP SWAP2 SWAP1 POP JUMP JUMPDEST PUSH2 0x2DBC DUP2 PUSH2 0x203C JUMP JUMPDEST DUP3 MSTORE POP POP JUMP JUMPDEST PUSH2 0x2DCB DUP2 PUSH2 0x1F40 JUMP JUMPDEST DUP3 MSTORE POP POP JUMP JUMPDEST PUSH2 0x2DDA DUP2 PUSH2 0x2074 JUMP JUMPDEST DUP3 MSTORE POP POP JUMP JUMPDEST PUSH2 0x100 DUP3 ADD PUSH1 0x0 DUP3 ADD MLOAD PUSH2 0x2DF7 PUSH1 0x0 DUP6 ADD DUP3 PUSH2 0x2DD1 JUMP JUMPDEST POP PUSH1 0x20 DUP3 ADD MLOAD PUSH2 0x2E0A PUSH1 0x20 DUP6 ADD DUP3 PUSH2 0x2DD1 JUMP JUMPDEST POP PUSH1 0x40 DUP3 ADD MLOAD PUSH2 0x2E1D PUSH1 0x40 DUP6 ADD DUP3 PUSH2 0x2DD1 JUMP JUMPDEST POP PUSH1 0x60 DUP3 ADD MLOAD PUSH2 0x2E30 PUSH1 0x60 DUP6 ADD DUP3 PUSH2 0x2DD1 JUMP JUMPDEST POP PUSH1 0x80 DUP3 ADD MLOAD PUSH2 0x2E43 PUSH1 0x80 DUP6 ADD DUP3 PUSH2 0x2DD1 JUMP JUMPDEST POP PUSH1 0xA0 DUP3 ADD MLOAD PUSH2 0x2E56 PUSH1 0xA0 DUP6 ADD DUP3 PUSH2 0x2DD1 JUMP JUMPDEST POP PUSH1 0xC0 DUP3 ADD MLOAD PUSH2 0x2E69 PUSH1 0xC0 DUP6 ADD DUP3 PUSH2 0x2DD1 JUMP JUMPDEST POP PUSH1 0xE0 DUP3 ADD MLOAD PUSH2 0x2E7C PUSH1 0xE0 DUP6 ADD DUP3 PUSH2 0x2DD1 JUMP JUMPDEST POP POP POP POP JUMP JUMPDEST PUSH1 0x60 DUP3 ADD PUSH1 0x0 DUP3 ADD MLOAD PUSH2 0x2E98 PUSH1 0x0 DUP6 ADD DUP3 PUSH2 0x2DD1 JUMP JUMPDEST POP PUSH1 0x20 DUP3 ADD MLOAD PUSH2 0x2EAB PUSH1 0x20 DUP6 ADD DUP3 PUSH2 0x2DD1 JUMP JUMPDEST POP PUSH1 0x40 DUP3 ADD MLOAD PUSH2 0x2EBE PUSH1 0x40 DUP6 ADD DUP3 PUSH2 0x2DD1 JUMP JUMPDEST POP POP POP POP JUMP JUMPDEST PUSH2 0x220 DUP3 ADD PUSH1 0x0 DUP3 ADD MLOAD PUSH2 0x2EDB PUSH1 0x0 DUP6 ADD DUP3 PUSH2 0x2DB3 JUMP JUMPDEST POP PUSH1 0x20 DUP3 ADD MLOAD PUSH2 0x2EEE PUSH1 0x20 DUP6 ADD DUP3 PUSH2 0x2DC2 JUMP JUMPDEST POP PUSH1 0x40 DUP3 ADD MLOAD PUSH2 0x2F01 PUSH1 0x40 DUP6 ADD DUP3 PUSH2 0x2DD1 JUMP JUMPDEST POP PUSH1 0x60 DUP3 ADD MLOAD PUSH2 0x2F14 PUSH1 0x60 DUP6 ADD DUP3 PUSH2 0x2DD1 JUMP JUMPDEST POP PUSH1 0x80 DUP3 ADD MLOAD PUSH2 0x2F27 PUSH1 0x80 DUP6 ADD DUP3 PUSH2 0x2DD1 JUMP JUMPDEST POP PUSH1 0xA0 DUP3 ADD MLOAD PUSH2 0x2F3A PUSH1 0xA0 DUP6 ADD DUP3 PUSH2 0x2DD1 JUMP JUMPDEST POP PUSH1 0xC0 DUP3 ADD MLOAD PUSH2 0x2F4D PUSH1 0xC0 DUP6 ADD DUP3 PUSH2 0x2DE0 JUMP JUMPDEST POP PUSH1 0xE0 DUP3 ADD MLOAD PUSH2 0x2F61 PUSH2 0x1C0 DUP6 ADD DUP3 PUSH2 0x2E82 JUMP JUMPDEST POP POP POP POP JUMP JUMPDEST PUSH1 0x0 PUSH2 0x220 DUP3 ADD SWAP1 POP PUSH2 0x2F7D PUSH1 0x0 DUP4 ADD DUP5 PUSH2 0x2EC4 JUMP JUMPDEST SWAP3 SWAP2 POP POP JUMP JUMPDEST PUSH1 0x0 PUSH1 0x20 DUP3 DUP5 SUB SLT ISZERO PUSH2 0x2F99 JUMPI PUSH2 0x2F98 PUSH2 0x1F1B JUMP JUMPDEST JUMPDEST PUSH1 0x0 PUSH2 0x2FA7 DUP5 DUP3 DUP6 ADD PUSH2 0x27A5 JUMP JUMPDEST SWAP2 POP POP SWAP3 SWAP2 POP POP JUMP JUMPDEST PUSH32 0x4E487B7100000000000000000000000000000000000000000000000000000000 PUSH1 0x0 MSTORE PUSH1 0x11 PUSH1 0x4 MSTORE PUSH1 0x24 PUSH1 0x0 REVERT JUMPDEST PUSH1 0x0 PUSH2 0x2FEA DUP3 PUSH2 0x2074 JUMP JUMPDEST SWAP2 POP PUSH2 0x2FF5 DUP4 PUSH2 0x2074 JUMP JUMPDEST SWAP3 POP DUP3 PUSH32 0xFFFFFFFFFFFFFFFFFFFFFFFFFFFFFFFFFFFFFFFFFFFFFFFFFFFFFFFFFFFFFFFF SUB DUP3 GT ISZERO PUSH2 0x302A JUMPI PUSH2 0x3029 PUSH2 0x2FB0 JUMP JUMPDEST JUMPDEST DUP3 DUP3 ADD SWAP1 POP SWAP3 SWAP2 POP POP JUMP INVALID LOG2 PUSH5 0x6970667358 0x22 SLT KECCAK256 PUSH4 0x632E0DCB 0x24 SWAP2 DUP15 PUSH10 0xDDCB2EB0DAB2D96BFB02 PUSH16 0x4334C2EBBB8BCF7CFD264F5864736F6C PUSH4 0x43000809 STOP CALLER "
		},
		"gasEstimates": {
			"creation": {
				"codeDepositCost": "2479000",
				"executionCost": "218926",
				"totalCost": "2697926"
			},
			"external": {
				"CHARACTER_CONTRACT_ADDRESS()": "2626",
				"EQUIPMENT_CONTRACT()": "2625",
				"FIGHT_CONTRACT_ADDRESS()": "2602",
				"GAME_MANAGER_CONTRACT_ADDRESS()": "2603",
				"GAME_MASTER()": "2600",
				"MAX_LEVEL_INDEX()": "2496",
				"RANDOM_CONTRACT_ADDRESS()": "2536",
				"VAULT()": "2581",
				"getEnemies(uint256)": "infinite",
				"getProgress((bool,address,uint256,uint256,uint256,uint256,(uint256,uint256,uint256,uint256,uint256,uint256,uint256,uint256),(uint256,uint256,uint256)))": "infinite",
				"hasAccess((bool,address,uint256,uint256,uint256,uint256,(uint256,uint256,uint256,uint256,uint256,uint256,uint256,uint256),(uint256,uint256,uint256)),uint256)": "infinite",
				"setCharacterContractAddress(address)": "26912",
				"setEquipmentContractAddress(address)": "27000",
				"setFightContractAddress(address)": "26913",
				"setGMContractAddress(address)": "26957",
				"setGameMasterAddress(address)": "26955",
				"setRandomContractAddress(address)": "26933",
				"setVaultAddress(address)": "26934",
				"update((bool,address,uint256,uint256,uint256,uint256,(uint256,uint256,uint256,uint256,uint256,uint256,uint256,uint256),(uint256,uint256,uint256)),uint256,bool)": "infinite",
				"withdraw()": "infinite"
			},
			"internal": {
				"_getProgress(struct Character memory)": "infinite"
			}
		},
		"methodIdentifiers": {
			"CHARACTER_CONTRACT_ADDRESS()": "320b00d8",
			"EQUIPMENT_CONTRACT()": "c85045f7",
			"FIGHT_CONTRACT_ADDRESS()": "e1d38814",
			"GAME_MANAGER_CONTRACT_ADDRESS()": "603eefa5",
			"GAME_MASTER()": "99597b70",
			"MAX_LEVEL_INDEX()": "859329a2",
			"RANDOM_CONTRACT_ADDRESS()": "d3dd4f29",
			"VAULT()": "411557d1",
			"getEnemies(uint256)": "2f2ddf54",
			"getProgress((bool,address,uint256,uint256,uint256,uint256,(uint256,uint256,uint256,uint256,uint256,uint256,uint256,uint256),(uint256,uint256,uint256)))": "fae2c19b",
			"hasAccess((bool,address,uint256,uint256,uint256,uint256,(uint256,uint256,uint256,uint256,uint256,uint256,uint256,uint256),(uint256,uint256,uint256)),uint256)": "14e8cd99",
			"setCharacterContractAddress(address)": "83499df6",
			"setEquipmentContractAddress(address)": "6efc00ee",
			"setFightContractAddress(address)": "00a8b188",
			"setGMContractAddress(address)": "1b915579",
			"setGameMasterAddress(address)": "d8327b2f",
			"setRandomContractAddress(address)": "d7050b05",
			"setVaultAddress(address)": "85535cc5",
			"update((bool,address,uint256,uint256,uint256,uint256,(uint256,uint256,uint256,uint256,uint256,uint256,uint256,uint256),(uint256,uint256,uint256)),uint256,bool)": "3ee52721",
			"withdraw()": "3ccfd60b"
		}
	},
	"abi": [
		{
			"inputs": [],
			"stateMutability": "nonpayable",
			"type": "constructor"
		},
		{
			"inputs": [],
			"name": "CHARACTER_CONTRACT_ADDRESS",
			"outputs": [
				{
					"internalType": "address",
					"name": "",
					"type": "address"
				}
			],
			"stateMutability": "view",
			"type": "function"
		},
		{
			"inputs": [],
			"name": "EQUIPMENT_CONTRACT",
			"outputs": [
				{
					"internalType": "address",
					"name": "",
					"type": "address"
				}
			],
			"stateMutability": "view",
			"type": "function"
		},
		{
			"inputs": [],
			"name": "FIGHT_CONTRACT_ADDRESS",
			"outputs": [
				{
					"internalType": "address",
					"name": "",
					"type": "address"
				}
			],
			"stateMutability": "view",
			"type": "function"
		},
		{
			"inputs": [],
			"name": "GAME_MANAGER_CONTRACT_ADDRESS",
			"outputs": [
				{
					"internalType": "address",
					"name": "",
					"type": "address"
				}
			],
			"stateMutability": "view",
			"type": "function"
		},
		{
			"inputs": [],
			"name": "GAME_MASTER",
			"outputs": [
				{
					"internalType": "address",
					"name": "",
					"type": "address"
				}
			],
			"stateMutability": "view",
			"type": "function"
		},
		{
			"inputs": [],
			"name": "MAX_LEVEL_INDEX",
			"outputs": [
				{
					"internalType": "uint256",
					"name": "",
					"type": "uint256"
				}
			],
			"stateMutability": "view",
			"type": "function"
		},
		{
			"inputs": [],
			"name": "RANDOM_CONTRACT_ADDRESS",
			"outputs": [
				{
					"internalType": "address",
					"name": "",
					"type": "address"
				}
			],
			"stateMutability": "view",
			"type": "function"
		},
		{
			"inputs": [],
			"name": "VAULT",
			"outputs": [
				{
					"internalType": "address",
					"name": "",
					"type": "address"
				}
			],
			"stateMutability": "view",
			"type": "function"
		},
		{
			"inputs": [
				{
					"internalType": "uint256",
					"name": "levelIndex",
					"type": "uint256"
				}
			],
			"name": "getEnemies",
			"outputs": [
				{
					"components": [
						{
							"internalType": "uint256",
							"name": "id",
							"type": "uint256"
						},
						{
							"internalType": "bool",
							"name": "present",
							"type": "bool"
						},
						{
							"components": [
								{
									"internalType": "uint256",
									"name": "strength",
									"type": "uint256"
								},
								{
									"internalType": "uint256",
									"name": "dexterity",
									"type": "uint256"
								},
								{
									"internalType": "uint256",
									"name": "constitution",
									"type": "uint256"
								},
								{
									"internalType": "uint256",
									"name": "luck",
									"type": "uint256"
								},
								{
									"internalType": "uint256",
									"name": "armor",
									"type": "uint256"
								},
								{
									"internalType": "uint256",
									"name": "attack",
									"type": "uint256"
								},
								{
									"internalType": "uint256",
									"name": "health",
									"type": "uint256"
								},
								{
									"internalType": "uint256",
									"name": "takenDamage",
									"type": "uint256"
								}
							],
							"internalType": "struct ComputedStats.Stats",
							"name": "stats",
							"type": "tuple"
						}
					],
					"internalType": "struct Enemy[]",
					"name": "enemies",
					"type": "tuple[]"
				}
			],
			"stateMutability": "view",
			"type": "function"
		},
		{
			"inputs": [
				{
					"components": [
						{
							"internalType": "bool",
							"name": "exists",
							"type": "bool"
						},
						{
							"internalType": "address",
							"name": "contractAddress",
							"type": "address"
						},
						{
							"internalType": "uint256",
							"name": "tokenId",
							"type": "uint256"
						},
						{
							"internalType": "uint256",
							"name": "level",
							"type": "uint256"
						},
						{
							"internalType": "uint256",
							"name": "exp",
							"type": "uint256"
						},
						{
							"internalType": "uint256",
							"name": "upgrades",
							"type": "uint256"
						},
						{
							"components": [
								{
									"internalType": "uint256",
									"name": "strength",
									"type": "uint256"
								},
								{
									"internalType": "uint256",
									"name": "dexterity",
									"type": "uint256"
								},
								{
									"internalType": "uint256",
									"name": "constitution",
									"type": "uint256"
								},
								{
									"internalType": "uint256",
									"name": "luck",
									"type": "uint256"
								},
								{
									"internalType": "uint256",
									"name": "armor",
									"type": "uint256"
								},
								{
									"internalType": "uint256",
									"name": "attack",
									"type": "uint256"
								},
								{
									"internalType": "uint256",
									"name": "health",
									"type": "uint256"
								},
								{
									"internalType": "uint256",
									"name": "takenDamage",
									"type": "uint256"
								}
							],
							"internalType": "struct ComputedStats.Stats",
							"name": "stats",
							"type": "tuple"
						},
						{
							"components": [
								{
									"internalType": "uint256",
									"name": "armorSetId",
									"type": "uint256"
								},
								{
									"internalType": "uint256",
									"name": "weaponSetId",
									"type": "uint256"
								},
								{
									"internalType": "uint256",
									"name": "shieldId",
									"type": "uint256"
								}
							],
							"internalType": "struct Equipment",
							"name": "equipment",
							"type": "tuple"
						}
					],
					"internalType": "struct Character",
					"name": "character",
					"type": "tuple"
				}
			],
			"name": "getProgress",
			"outputs": [
				{
					"internalType": "uint256",
					"name": "",
					"type": "uint256"
				}
			],
			"stateMutability": "view",
			"type": "function"
		},
		{
			"inputs": [
				{
					"components": [
						{
							"internalType": "bool",
							"name": "exists",
							"type": "bool"
						},
						{
							"internalType": "address",
							"name": "contractAddress",
							"type": "address"
						},
						{
							"internalType": "uint256",
							"name": "tokenId",
							"type": "uint256"
						},
						{
							"internalType": "uint256",
							"name": "level",
							"type": "uint256"
						},
						{
							"internalType": "uint256",
							"name": "exp",
							"type": "uint256"
						},
						{
							"internalType": "uint256",
							"name": "upgrades",
							"type": "uint256"
						},
						{
							"components": [
								{
									"internalType": "uint256",
									"name": "strength",
									"type": "uint256"
								},
								{
									"internalType": "uint256",
									"name": "dexterity",
									"type": "uint256"
								},
								{
									"internalType": "uint256",
									"name": "constitution",
									"type": "uint256"
								},
								{
									"internalType": "uint256",
									"name": "luck",
									"type": "uint256"
								},
								{
									"internalType": "uint256",
									"name": "armor",
									"type": "uint256"
								},
								{
									"internalType": "uint256",
									"name": "attack",
									"type": "uint256"
								},
								{
									"internalType": "uint256",
									"name": "health",
									"type": "uint256"
								},
								{
									"internalType": "uint256",
									"name": "takenDamage",
									"type": "uint256"
								}
							],
							"internalType": "struct ComputedStats.Stats",
							"name": "stats",
							"type": "tuple"
						},
						{
							"components": [
								{
									"internalType": "uint256",
									"name": "armorSetId",
									"type": "uint256"
								},
								{
									"internalType": "uint256",
									"name": "weaponSetId",
									"type": "uint256"
								},
								{
									"internalType": "uint256",
									"name": "shieldId",
									"type": "uint256"
								}
							],
							"internalType": "struct Equipment",
							"name": "equipment",
							"type": "tuple"
						}
					],
					"internalType": "struct Character",
					"name": "character",
					"type": "tuple"
				},
				{
					"internalType": "uint256",
					"name": "index",
					"type": "uint256"
				}
			],
			"name": "hasAccess",
			"outputs": [
				{
					"internalType": "bool",
					"name": "",
					"type": "bool"
				}
			],
			"stateMutability": "view",
			"type": "function"
		},
		{
			"inputs": [
				{
					"internalType": "address",
					"name": "_address",
					"type": "address"
				}
			],
			"name": "setCharacterContractAddress",
			"outputs": [],
			"stateMutability": "nonpayable",
			"type": "function"
		},
		{
			"inputs": [
				{
					"internalType": "address",
					"name": "_address",
					"type": "address"
				}
			],
			"name": "setEquipmentContractAddress",
			"outputs": [],
			"stateMutability": "nonpayable",
			"type": "function"
		},
		{
			"inputs": [
				{
					"internalType": "address",
					"name": "_address",
					"type": "address"
				}
			],
			"name": "setFightContractAddress",
			"outputs": [],
			"stateMutability": "nonpayable",
			"type": "function"
		},
		{
			"inputs": [
				{
					"internalType": "address",
					"name": "_address",
					"type": "address"
				}
			],
			"name": "setGMContractAddress",
			"outputs": [],
			"stateMutability": "nonpayable",
			"type": "function"
		},
		{
			"inputs": [
				{
					"internalType": "address",
					"name": "newGM",
					"type": "address"
				}
			],
			"name": "setGameMasterAddress",
			"outputs": [],
			"stateMutability": "nonpayable",
			"type": "function"
		},
		{
			"inputs": [
				{
					"internalType": "address",
					"name": "newAddress",
					"type": "address"
				}
			],
			"name": "setRandomContractAddress",
			"outputs": [],
			"stateMutability": "nonpayable",
			"type": "function"
		},
		{
			"inputs": [
				{
					"internalType": "address",
					"name": "_address",
					"type": "address"
				}
			],
			"name": "setVaultAddress",
			"outputs": [],
			"stateMutability": "nonpayable",
			"type": "function"
		},
		{
			"inputs": [
				{
					"components": [
						{
							"internalType": "bool",
							"name": "exists",
							"type": "bool"
						},
						{
							"internalType": "address",
							"name": "contractAddress",
							"type": "address"
						},
						{
							"internalType": "uint256",
							"name": "tokenId",
							"type": "uint256"
						},
						{
							"internalType": "uint256",
							"name": "level",
							"type": "uint256"
						},
						{
							"internalType": "uint256",
							"name": "exp",
							"type": "uint256"
						},
						{
							"internalType": "uint256",
							"name": "upgrades",
							"type": "uint256"
						},
						{
							"components": [
								{
									"internalType": "uint256",
									"name": "strength",
									"type": "uint256"
								},
								{
									"internalType": "uint256",
									"name": "dexterity",
									"type": "uint256"
								},
								{
									"internalType": "uint256",
									"name": "constitution",
									"type": "uint256"
								},
								{
									"internalType": "uint256",
									"name": "luck",
									"type": "uint256"
								},
								{
									"internalType": "uint256",
									"name": "armor",
									"type": "uint256"
								},
								{
									"internalType": "uint256",
									"name": "attack",
									"type": "uint256"
								},
								{
									"internalType": "uint256",
									"name": "health",
									"type": "uint256"
								},
								{
									"internalType": "uint256",
									"name": "takenDamage",
									"type": "uint256"
								}
							],
							"internalType": "struct ComputedStats.Stats",
							"name": "stats",
							"type": "tuple"
						},
						{
							"components": [
								{
									"internalType": "uint256",
									"name": "armorSetId",
									"type": "uint256"
								},
								{
									"internalType": "uint256",
									"name": "weaponSetId",
									"type": "uint256"
								},
								{
									"internalType": "uint256",
									"name": "shieldId",
									"type": "uint256"
								}
							],
							"internalType": "struct Equipment",
							"name": "equipment",
							"type": "tuple"
						}
					],
					"internalType": "struct Character",
					"name": "character",
					"type": "tuple"
				},
				{
					"internalType": "uint256",
					"name": "index",
					"type": "uint256"
				},
				{
					"internalType": "bool",
					"name": "victory",
					"type": "bool"
				}
			],
			"name": "update",
			"outputs": [],
			"stateMutability": "nonpayable",
			"type": "function"
		},
		{
			"inputs": [],
			"name": "withdraw",
			"outputs": [],
			"stateMutability": "nonpayable",
			"type": "function"
		}
	]
}