{
	"data": {
		"bytecode": {
			"linkReferences": {
				"contracts/libraries/ComputedStats.sol": {
					"ComputedStats": [
						{
							"length": 20,
							"start": 1186
						},
						{
							"length": 20,
							"start": 1472
						},
						{
							"length": 20,
							"start": 1696
						},
						{
							"length": 20,
							"start": 1921
						},
						{
							"length": 20,
							"start": 2192
						},
						{
							"length": 20,
							"start": 2418
						},
						{
							"length": 20,
							"start": 2590
						},
						{
							"length": 20,
							"start": 2814
						},
						{
							"length": 20,
							"start": 3038
						},
						{
							"length": 20,
							"start": 3210
						},
						{
							"length": 20,
							"start": 3434
						},
						{
							"length": 20,
							"start": 3658
						},
						{
							"length": 20,
							"start": 3830
						},
						{
							"length": 20,
							"start": 4057
						},
						{
							"length": 20,
							"start": 4326
						}
					]
				},
				"contracts/libraries/Utils.sol": {
					"Utils": [
						{
							"length": 20,
							"start": 4772
						},
						{
							"length": 20,
							"start": 5253
						}
					]
				}
			},
			"object": "6080604052600080546001600160a01b031990811690915560018054821690556002805482169055600380548216905560058054909116905534801561004457600080fd5b5060008054336001600160a01b0319918216811783556005805490921617905560068055611a2d90819061007890396000f3fe608060405234801561001057600080fd5b50600436106101155760003560e01c806383499df6116100a2578063d3dd4f2911610071578063d3dd4f2914610246578063d7050b0514610259578063d8327b2f1461026c578063e1d388141461027f578063fae2c19b1461029257600080fd5b806383499df6146101f657806385535cc514610209578063859329a21461021c57806399597b701461023357600080fd5b8063320b00d8116100e9578063320b00d81461018a5780633ccfd60b146101b55780633ee52721146101bd578063411557d1146101d0578063603eefa5146101e357600080fd5b8062a8b1881461011a57806314e8cd991461012f5780631b915579146101575780632f2ddf541461016a575b600080fd5b61012d61012836600461152c565b6102a5565b005b61014261013d3660046116f2565b6102fa565b60405190151581526020015b60405180910390f35b61012d61016536600461152c565b61030e565b61017d61017836600461171f565b61035a565b60405161014e9190611786565b60025461019d906001600160a01b031681565b6040516001600160a01b03909116815260200161014e565b61012d611104565b61012d6101cb3660046117ec565b61116a565b60055461019d906001600160a01b031681565b60015461019d906001600160a01b031681565b61012d61020436600461152c565b6112c7565b61012d61021736600461152c565b611313565b61022560065481565b60405190815260200161014e565b60005461019d906001600160a01b031681565b60045461019d906001600160a01b031681565b61012d61026736600461152c565b61135f565b61012d61027a36600461152c565b6113ab565b60035461019d906001600160a01b031681565b6102256102a036600461182c565b6113f7565b6000546001600160a01b031633146102d85760405162461bcd60e51b81526004016102cf90611849565b60405180910390fd5b600380546001600160a01b0319166001600160a01b0392909216919091179055565b60008161030684611408565b149392505050565b6000546001600160a01b031633146103385760405162461bcd60e51b81526004016102cf90611849565b600180546001600160a01b0319166001600160a01b0392909216919091179055565b6060816006548111156103a55760405162461bcd60e51b8152602060048201526013602482015272092dcecc2d8d2c840d8caeccad840d2dcc8caf606b1b60448201526064016102cf565b826104be5760408051600180825281830190925290816020015b6103c76114a8565b8152602001906001900390816103bf57905050604080516060810182526001808252602082018190528251631436de3f60e21b8152600481018290526024810182905260448101919091526000606482018190526084820152929450919082019073__$d18125c9528dfe4cb67fa81d29b24a1cca$__906350db78fc9060a4016101006040518083038186803b15801561046057600080fd5b505af4158015610474573d6000803e3d6000fd5b505050506040513d601f19601f820116820180604052508101906104989190611880565b815250826000815181106104ae576104ae61191e565b60200260200101819052506110fe565b826001141561078e576040805160038082526080820190925290816020015b6104e56114a8565b8152602001906001900390816104dd57905050604080516060810182526001808252602082018190528251631436de3f60e21b8152600481018290526024810182905260448101919091526000606482018190526084820152929450919082019073__$d18125c9528dfe4cb67fa81d29b24a1cca$__906350db78fc9060a4016101006040518083038186803b15801561057e57600080fd5b505af4158015610592573d6000803e3d6000fd5b505050506040513d601f19601f820116820180604052508101906105b69190611880565b815250826000815181106105cc576105cc61191e565b602090810291909101810191909152604080516060810182526002815260019281018390528151631436de3f60e21b8152600481018490526024810184905260448101939093526000606484018190526084840152919082019073__$d18125c9528dfe4cb67fa81d29b24a1cca$__906350db78fc9060a4015b6101006040518083038186803b15801561065f57600080fd5b505af4158015610673573d6000803e3d6000fd5b505050506040513d601f19601f820116820180604052508101906106979190611880565b815250826001815181106106ad576106ad61191e565b602090810291909101810191909152604080516060810182526003815260019281018390528151631436de3f60e21b8152600481018490526024810184905260448101939093526000606484018190526084840152919082019073__$d18125c9528dfe4cb67fa81d29b24a1cca$__906350db78fc9060a4015b6101006040518083038186803b15801561074057600080fd5b505af4158015610754573d6000803e3d6000fd5b505050506040513d601f19601f820116820180604052508101906107789190611880565b815250826002815181106104ae576104ae61191e565b826002141561091c576040805160038082526080820190925290816020015b6107b56114a8565b8152602001906001900390816107ad57905050604080516060810182526001808252602082018190528251631436de3f60e21b8152600481018290526024810182905260448101919091526000606482018190526084820152929450919082019073__$d18125c9528dfe4cb67fa81d29b24a1cca$__906350db78fc9060a4016101006040518083038186803b15801561084e57600080fd5b505af4158015610862573d6000803e3d6000fd5b505050506040513d601f19601f820116820180604052508101906108869190611880565b8152508260008151811061089c5761089c61191e565b60209081029190910181019190915260408051606081018252600280825260019382018490528251631436de3f60e21b815260048101919091526024810184905260036044820152600060648201526084810193909352919082019073__$d18125c9528dfe4cb67fa81d29b24a1cca$__906350db78fc9060a401610646565b8260031415610b88576040805160038082526080820190925290816020015b6109436114a8565b81526020019060019003908161093b57905050604080516060810182526001808252602082018190528251631436de3f60e21b8152600560048201819052602482018390526044820152600060648201526084810191909152929450919082019073__$d18125c9528dfe4cb67fa81d29b24a1cca$__906350db78fc9060a4016101006040518083038186803b1580156109dc57600080fd5b505af41580156109f0573d6000803e3d6000fd5b505050506040513d601f19601f82011682018060405250810190610a149190611880565b81525082600081518110610a2a57610a2a61191e565b602090810291909101810191909152604080516060810182526002815260019281018390528151631436de3f60e21b8152600560048201819052602482018590526044820152600060648201526084810193909352919082019073__$d18125c9528dfe4cb67fa81d29b24a1cca$__906350db78fc9060a4016101006040518083038186803b158015610abc57600080fd5b505af4158015610ad0573d6000803e3d6000fd5b505050506040513d601f19601f82011682018060405250810190610af49190611880565b81525082600181518110610b0a57610b0a61191e565b602090810291909101810191909152604080516060810182526003815260019281018390528151631436de3f60e21b8152600560048201819052602482018590526044820152600060648201526084810193909352919082019073__$d18125c9528dfe4cb67fa81d29b24a1cca$__906350db78fc9060a401610727565b8260041415610df4576040805160038082526080820190925290816020015b610baf6114a8565b815260200190600190039081610ba757905050604080516060810182526001808252602082018190528251631436de3f60e21b8152600860048201526024810191909152600c60448201526000606482018190526084820152929450919082019073__$d18125c9528dfe4cb67fa81d29b24a1cca$__906350db78fc9060a4016101006040518083038186803b158015610c4857600080fd5b505af4158015610c5c573d6000803e3d6000fd5b505050506040513d601f19601f82011682018060405250810190610c809190611880565b81525082600081518110610c9657610c9661191e565b602090810291909101810191909152604080516060810182526002815260019281018390528151631436de3f60e21b8152600860048201526024810193909352600c60448401526000606484018190526084840152919082019073__$d18125c9528dfe4cb67fa81d29b24a1cca$__906350db78fc9060a4016101006040518083038186803b158015610d2857600080fd5b505af4158015610d3c573d6000803e3d6000fd5b505050506040513d601f19601f82011682018060405250810190610d609190611880565b81525082600181518110610d7657610d7661191e565b602090810291909101810191909152604080516060810182526003815260019281018390528151631436de3f60e21b8152600860048201526024810193909352600c60448401526000606484018190526084840152919082019073__$d18125c9528dfe4cb67fa81d29b24a1cca$__906350db78fc9060a401610727565b8260051415610fe5576040805160028082526060820190925290816020015b610e1b6114a8565b815260200190600190039081610e1357905050604080516060810182526001808252602082018190528251631436de3f60e21b8152601260048201526024810191909152600c60448201526000606482015260026084820152929450919082019073__$d18125c9528dfe4cb67fa81d29b24a1cca$__906350db78fc9060a4016101006040518083038186803b158015610eb457600080fd5b505af4158015610ec8573d6000803e3d6000fd5b505050506040513d601f19601f82011682018060405250810190610eec9190611880565b81525082600081518110610f0257610f0261191e565b602090810291909101810191909152604080516060810182526002815260019281018390528151631436de3f60e21b8152600f60048201819052602482019490945260448101939093526000606484015260056084840152919082019073__$d18125c9528dfe4cb67fa81d29b24a1cca$__906350db78fc9060a4016101006040518083038186803b158015610f9757600080fd5b505af4158015610fab573d6000803e3d6000fd5b505050506040513d601f19601f82011682018060405250810190610fcf9190611880565b815250826001815181106104ae576104ae61191e565b82600614156110fe5760408051600180825281830190925290816020015b61100b6114a8565b81526020019060019003908161100357905050604080516060810182526001808252602082018190528251631436de3f60e21b81526023600482015260248101919091526032604482015260006064820152600a6084820152929450919082019073__$d18125c9528dfe4cb67fa81d29b24a1cca$__906350db78fc9060a4016101006040518083038186803b1580156110a457600080fd5b505af41580156110b8573d6000803e3d6000fd5b505050506040513d601f19601f820116820180604052508101906110dc9190611880565b815250826000815181106110f2576110f261191e565b60200260200101819052505b50919050565b6000546001600160a01b0316331461112e5760405162461bcd60e51b81526004016102cf90611849565b6005546040516001600160a01b03909116904780156108fc02916000818181858888f19350505050158015611167573d6000803e3d6000fd5b50565b6000546001600160a01b031633148061118d57506001546001600160a01b031633145b806111a257506002546001600160a01b031633145b806111b757506003546001600160a01b031633145b6112145760405162461bcd60e51b815260206004820152602860248201527f4f6e6c792067616d6520636f6e7472616374732063616e2063616c6c207468696044820152671cc81b595d1a1bd960c21b60648201526084016102cf565b80156112c257604051636069747360e11b815260009073__$b4ae538d42a0e0bb8330684d08e51a40b4$__9063c0d2e8e690611254908790600401611934565b60206040518083038186803b15801561126c57600080fd5b505af4158015611280573d6000803e3d6000fd5b505050506040513d601f19601f820116820180604052508101906112a491906119b8565b90506112b18360016119d1565b600091825260076020526040909120555b505050565b6000546001600160a01b031633146112f15760405162461bcd60e51b81526004016102cf90611849565b600280546001600160a01b0319166001600160a01b0392909216919091179055565b6000546001600160a01b0316331461133d5760405162461bcd60e51b81526004016102cf90611849565b600580546001600160a01b0319166001600160a01b0392909216919091179055565b6000546001600160a01b031633146113895760405162461bcd60e51b81526004016102cf90611849565b600480546001600160a01b0319166001600160a01b0392909216919091179055565b6000546001600160a01b031633146113d55760405162461bcd60e51b81526004016102cf90611849565b600080546001600160a01b0319166001600160a01b0392909216919091179055565b600061140282611408565b92915050565b60008073__$b4ae538d42a0e0bb8330684d08e51a40b4$__63c0d2e8e6846040518263ffffffff1660e01b81526004016114429190611934565b60206040518083038186803b15801561145a57600080fd5b505af415801561146e573d6000803e3d6000fd5b505050506040513d601f19601f8201168201806040525081019061149291906119b8565b6000908152600760205260409020549392505050565b60405180606001604052806000815260200160001515815260200161150b60405180610100016040528060008152602001600081526020016000815260200160008152602001600081526020016000815260200160008152602001600081525090565b905290565b80356001600160a01b038116811461152757600080fd5b919050565b60006020828403121561153e57600080fd5b61154782611510565b9392505050565b604051610100810167ffffffffffffffff8111828210171561158057634e487b7160e01b600052604160045260246000fd5b60405290565b8035801515811461152757600080fd5b6000606082840312156115a857600080fd5b6040516060810181811067ffffffffffffffff821117156115d957634e487b7160e01b600052604160045260246000fd5b80604052508091508235815260208301356020820152604083013560408201525092915050565b600081830361022081121561161457600080fd5b61161c61154e565b915061162783611586565b825261163560208401611510565b602083015260408301356040830152606083013560608301526080830135608083015260a083013560a08301526101008060bf198301121561167657600080fd5b61167e61154e565b915060c0840135825260e08401356020830152808401356040830152506101208301356060820152610140830135608082015261016083013560a082015261018083013560c08201526101a083013560e08201528060c0830152506116e7836101c08401611596565b60e082015292915050565b600080610240838503121561170657600080fd5b6117108484611600565b94610220939093013593505050565b60006020828403121561173157600080fd5b5035919050565b805182526020810151602083015260408101516040830152606081015160608301526080810151608083015260a081015160a083015260c081015160c083015260e081015160e08301525050565b602080825282518282018190526000919060409081850190868401855b828110156117df57815180518552868101511515878601528501516117ca86860182611738565b506101409390930192908501906001016117a3565b5091979650505050505050565b6000806000610260848603121561180257600080fd5b61180c8585611600565b925061022084013591506118236102408501611586565b90509250925092565b6000610220828403121561183f57600080fd5b6115478383611600565b60208082526018908201527f43616e2062652063616c6c6564206f6e6c7920627920474d0000000000000000604082015260600190565b600061010080838503121561189457600080fd5b6040519081019067ffffffffffffffff821181831017156118c557634e487b7160e01b600052604160045260246000fd5b81604052835181526020840151602082015260408401516040820152606084015160608201526080840151608082015260a084015160a082015260c084015160c082015260e084015160e0820152809250505092915050565b634e487b7160e01b600052603260045260246000fd5b60006102208201905082511515825260018060a01b03602084015116602083015260408301516040830152606083015160608301526080830151608083015260a083015160a083015260c083015161198f60c0840182611738565b5060e0929092015180516101c083015260208101516101e0830152604001516102009091015290565b6000602082840312156119ca57600080fd5b5051919050565b600082198211156119f257634e487b7160e01b600052601160045260246000fd5b50019056fea26469706673582212200072132a62bba3b002ee8d8a3c0faa3f97dfe0fe0072eb3fb5d744734a5be74a64736f6c63430008090033",
			"opcodes": "PUSH1 0x80 PUSH1 0x40 MSTORE PUSH1 0x0 DUP1 SLOAD PUSH1 0x1 PUSH1 0x1 PUSH1 0xA0 SHL SUB NOT SWAP1 DUP2 AND SWAP1 SWAP2 SSTORE PUSH1 0x1 DUP1 SLOAD DUP3 AND SWAP1 SSTORE PUSH1 0x2 DUP1 SLOAD DUP3 AND SWAP1 SSTORE PUSH1 0x3 DUP1 SLOAD DUP3 AND SWAP1 SSTORE PUSH1 0x5 DUP1 SLOAD SWAP1 SWAP2 AND SWAP1 SSTORE CALLVALUE DUP1 ISZERO PUSH2 0x44 JUMPI PUSH1 0x0 DUP1 REVERT JUMPDEST POP PUSH1 0x0 DUP1 SLOAD CALLER PUSH1 0x1 PUSH1 0x1 PUSH1 0xA0 SHL SUB NOT SWAP2 DUP3 AND DUP2 OR DUP4 SSTORE PUSH1 0x5 DUP1 SLOAD SWAP1 SWAP3 AND OR SWAP1 SSTORE PUSH1 0x6 DUP1 SSTORE PUSH2 0x1A2D SWAP1 DUP2 SWAP1 PUSH2 0x78 SWAP1 CODECOPY PUSH1 0x0 RETURN INVALID PUSH1 0x80 PUSH1 0x40 MSTORE CALLVALUE DUP1 ISZERO PUSH2 0x10 JUMPI PUSH1 0x0 DUP1 REVERT JUMPDEST POP PUSH1 0x4 CALLDATASIZE LT PUSH2 0x115 JUMPI PUSH1 0x0 CALLDATALOAD PUSH1 0xE0 SHR DUP1 PUSH4 0x83499DF6 GT PUSH2 0xA2 JUMPI DUP1 PUSH4 0xD3DD4F29 GT PUSH2 0x71 JUMPI DUP1 PUSH4 0xD3DD4F29 EQ PUSH2 0x246 JUMPI DUP1 PUSH4 0xD7050B05 EQ PUSH2 0x259 JUMPI DUP1 PUSH4 0xD8327B2F EQ PUSH2 0x26C JUMPI DUP1 PUSH4 0xE1D38814 EQ PUSH2 0x27F JUMPI DUP1 PUSH4 0xFAE2C19B EQ PUSH2 0x292 JUMPI PUSH1 0x0 DUP1 REVERT JUMPDEST DUP1 PUSH4 0x83499DF6 EQ PUSH2 0x1F6 JUMPI DUP1 PUSH4 0x85535CC5 EQ PUSH2 0x209 JUMPI DUP1 PUSH4 0x859329A2 EQ PUSH2 0x21C JUMPI DUP1 PUSH4 0x99597B70 EQ PUSH2 0x233 JUMPI PUSH1 0x0 DUP1 REVERT JUMPDEST DUP1 PUSH4 0x320B00D8 GT PUSH2 0xE9 JUMPI DUP1 PUSH4 0x320B00D8 EQ PUSH2 0x18A JUMPI DUP1 PUSH4 0x3CCFD60B EQ PUSH2 0x1B5 JUMPI DUP1 PUSH4 0x3EE52721 EQ PUSH2 0x1BD JUMPI DUP1 PUSH4 0x411557D1 EQ PUSH2 0x1D0 JUMPI DUP1 PUSH4 0x603EEFA5 EQ PUSH2 0x1E3 JUMPI PUSH1 0x0 DUP1 REVERT JUMPDEST DUP1 PUSH3 0xA8B188 EQ PUSH2 0x11A JUMPI DUP1 PUSH4 0x14E8CD99 EQ PUSH2 0x12F JUMPI DUP1 PUSH4 0x1B915579 EQ PUSH2 0x157 JUMPI DUP1 PUSH4 0x2F2DDF54 EQ PUSH2 0x16A JUMPI JUMPDEST PUSH1 0x0 DUP1 REVERT JUMPDEST PUSH2 0x12D PUSH2 0x128 CALLDATASIZE PUSH1 0x4 PUSH2 0x152C JUMP JUMPDEST PUSH2 0x2A5 JUMP JUMPDEST STOP JUMPDEST PUSH2 0x142 PUSH2 0x13D CALLDATASIZE PUSH1 0x4 PUSH2 0x16F2 JUMP JUMPDEST PUSH2 0x2FA JUMP JUMPDEST PUSH1 0x40 MLOAD SWAP1 ISZERO ISZERO DUP2 MSTORE PUSH1 0x20 ADD JUMPDEST PUSH1 0x40 MLOAD DUP1 SWAP2 SUB SWAP1 RETURN JUMPDEST PUSH2 0x12D PUSH2 0x165 CALLDATASIZE PUSH1 0x4 PUSH2 0x152C JUMP JUMPDEST PUSH2 0x30E JUMP JUMPDEST PUSH2 0x17D PUSH2 0x178 CALLDATASIZE PUSH1 0x4 PUSH2 0x171F JUMP JUMPDEST PUSH2 0x35A JUMP JUMPDEST PUSH1 0x40 MLOAD PUSH2 0x14E SWAP2 SWAP1 PUSH2 0x1786 JUMP JUMPDEST PUSH1 0x2 SLOAD PUSH2 0x19D SWAP1 PUSH1 0x1 PUSH1 0x1 PUSH1 0xA0 SHL SUB AND DUP2 JUMP JUMPDEST PUSH1 0x40 MLOAD PUSH1 0x1 PUSH1 0x1 PUSH1 0xA0 SHL SUB SWAP1 SWAP2 AND DUP2 MSTORE PUSH1 0x20 ADD PUSH2 0x14E JUMP JUMPDEST PUSH2 0x12D PUSH2 0x1104 JUMP JUMPDEST PUSH2 0x12D PUSH2 0x1CB CALLDATASIZE PUSH1 0x4 PUSH2 0x17EC JUMP JUMPDEST PUSH2 0x116A JUMP JUMPDEST PUSH1 0x5 SLOAD PUSH2 0x19D SWAP1 PUSH1 0x1 PUSH1 0x1 PUSH1 0xA0 SHL SUB AND DUP2 JUMP JUMPDEST PUSH1 0x1 SLOAD PUSH2 0x19D SWAP1 PUSH1 0x1 PUSH1 0x1 PUSH1 0xA0 SHL SUB AND DUP2 JUMP JUMPDEST PUSH2 0x12D PUSH2 0x204 CALLDATASIZE PUSH1 0x4 PUSH2 0x152C JUMP JUMPDEST PUSH2 0x12C7 JUMP JUMPDEST PUSH2 0x12D PUSH2 0x217 CALLDATASIZE PUSH1 0x4 PUSH2 0x152C JUMP JUMPDEST PUSH2 0x1313 JUMP JUMPDEST PUSH2 0x225 PUSH1 0x6 SLOAD DUP2 JUMP JUMPDEST PUSH1 0x40 MLOAD SWAP1 DUP2 MSTORE PUSH1 0x20 ADD PUSH2 0x14E JUMP JUMPDEST PUSH1 0x0 SLOAD PUSH2 0x19D SWAP1 PUSH1 0x1 PUSH1 0x1 PUSH1 0xA0 SHL SUB AND DUP2 JUMP JUMPDEST PUSH1 0x4 SLOAD PUSH2 0x19D SWAP1 PUSH1 0x1 PUSH1 0x1 PUSH1 0xA0 SHL SUB AND DUP2 JUMP JUMPDEST PUSH2 0x12D PUSH2 0x267 CALLDATASIZE PUSH1 0x4 PUSH2 0x152C JUMP JUMPDEST PUSH2 0x135F JUMP JUMPDEST PUSH2 0x12D PUSH2 0x27A CALLDATASIZE PUSH1 0x4 PUSH2 0x152C JUMP JUMPDEST PUSH2 0x13AB JUMP JUMPDEST PUSH1 0x3 SLOAD PUSH2 0x19D SWAP1 PUSH1 0x1 PUSH1 0x1 PUSH1 0xA0 SHL SUB AND DUP2 JUMP JUMPDEST PUSH2 0x225 PUSH2 0x2A0 CALLDATASIZE PUSH1 0x4 PUSH2 0x182C JUMP JUMPDEST PUSH2 0x13F7 JUMP JUMPDEST PUSH1 0x0 SLOAD PUSH1 0x1 PUSH1 0x1 PUSH1 0xA0 SHL SUB AND CALLER EQ PUSH2 0x2D8 JUMPI PUSH1 0x40 MLOAD PUSH3 0x461BCD PUSH1 0xE5 SHL DUP2 MSTORE PUSH1 0x4 ADD PUSH2 0x2CF SWAP1 PUSH2 0x1849 JUMP JUMPDEST PUSH1 0x40 MLOAD DUP1 SWAP2 SUB SWAP1 REVERT JUMPDEST PUSH1 0x3 DUP1 SLOAD PUSH1 0x1 PUSH1 0x1 PUSH1 0xA0 SHL SUB NOT AND PUSH1 0x1 PUSH1 0x1 PUSH1 0xA0 SHL SUB SWAP3 SWAP1 SWAP3 AND SWAP2 SWAP1 SWAP2 OR SWAP1 SSTORE JUMP JUMPDEST PUSH1 0x0 DUP2 PUSH2 0x306 DUP5 PUSH2 0x1408 JUMP JUMPDEST EQ SWAP4 SWAP3 POP POP POP JUMP JUMPDEST PUSH1 0x0 SLOAD PUSH1 0x1 PUSH1 0x1 PUSH1 0xA0 SHL SUB AND CALLER EQ PUSH2 0x338 JUMPI PUSH1 0x40 MLOAD PUSH3 0x461BCD PUSH1 0xE5 SHL DUP2 MSTORE PUSH1 0x4 ADD PUSH2 0x2CF SWAP1 PUSH2 0x1849 JUMP JUMPDEST PUSH1 0x1 DUP1 SLOAD PUSH1 0x1 PUSH1 0x1 PUSH1 0xA0 SHL SUB NOT AND PUSH1 0x1 PUSH1 0x1 PUSH1 0xA0 SHL SUB SWAP3 SWAP1 SWAP3 AND SWAP2 SWAP1 SWAP2 OR SWAP1 SSTORE JUMP JUMPDEST PUSH1 0x60 DUP2 PUSH1 0x6 SLOAD DUP2 GT ISZERO PUSH2 0x3A5 JUMPI PUSH1 0x40 MLOAD PUSH3 0x461BCD PUSH1 0xE5 SHL DUP2 MSTORE PUSH1 0x20 PUSH1 0x4 DUP3 ADD MSTORE PUSH1 0x13 PUSH1 0x24 DUP3 ADD MSTORE PUSH19 0x92DCECC2D8D2C840D8CAECCAD840D2DCC8CAF PUSH1 0x6B SHL PUSH1 0x44 DUP3 ADD MSTORE PUSH1 0x64 ADD PUSH2 0x2CF JUMP JUMPDEST DUP3 PUSH2 0x4BE JUMPI PUSH1 0x40 DUP1 MLOAD PUSH1 0x1 DUP1 DUP3 MSTORE DUP2 DUP4 ADD SWAP1 SWAP3 MSTORE SWAP1 DUP2 PUSH1 0x20 ADD JUMPDEST PUSH2 0x3C7 PUSH2 0x14A8 JUMP JUMPDEST DUP2 MSTORE PUSH1 0x20 ADD SWAP1 PUSH1 0x1 SWAP1 SUB SWAP1 DUP2 PUSH2 0x3BF JUMPI SWAP1 POP POP PUSH1 0x40 DUP1 MLOAD PUSH1 0x60 DUP2 ADD DUP3 MSTORE PUSH1 0x1 DUP1 DUP3 MSTORE PUSH1 0x20 DUP3 ADD DUP2 SWAP1 MSTORE DUP3 MLOAD PUSH4 0x1436DE3F PUSH1 0xE2 SHL DUP2 MSTORE PUSH1 0x4 DUP2 ADD DUP3 SWAP1 MSTORE PUSH1 0x24 DUP2 ADD DUP3 SWAP1 MSTORE PUSH1 0x44 DUP2 ADD SWAP2 SWAP1 SWAP2 MSTORE PUSH1 0x0 PUSH1 0x64 DUP3 ADD DUP2 SWAP1 MSTORE PUSH1 0x84 DUP3 ADD MSTORE SWAP3 SWAP5 POP SWAP2 SWAP1 DUP3 ADD SWAP1 PUSH20 0x0 SWAP1 PUSH4 0x50DB78FC SWAP1 PUSH1 0xA4 ADD PUSH2 0x100 PUSH1 0x40 MLOAD DUP1 DUP4 SUB DUP2 DUP7 DUP1 EXTCODESIZE ISZERO DUP1 ISZERO PUSH2 0x460 JUMPI PUSH1 0x0 DUP1 REVERT JUMPDEST POP GAS DELEGATECALL ISZERO DUP1 ISZERO PUSH2 0x474 JUMPI RETURNDATASIZE PUSH1 0x0 DUP1 RETURNDATACOPY RETURNDATASIZE PUSH1 0x0 REVERT JUMPDEST POP POP POP POP PUSH1 0x40 MLOAD RETURNDATASIZE PUSH1 0x1F NOT PUSH1 0x1F DUP3 ADD AND DUP3 ADD DUP1 PUSH1 0x40 MSTORE POP DUP2 ADD SWAP1 PUSH2 0x498 SWAP2 SWAP1 PUSH2 0x1880 JUMP JUMPDEST DUP2 MSTORE POP DUP3 PUSH1 0x0 DUP2 MLOAD DUP2 LT PUSH2 0x4AE JUMPI PUSH2 0x4AE PUSH2 0x191E JUMP JUMPDEST PUSH1 0x20 MUL PUSH1 0x20 ADD ADD DUP2 SWAP1 MSTORE POP PUSH2 0x10FE JUMP JUMPDEST DUP3 PUSH1 0x1 EQ ISZERO PUSH2 0x78E JUMPI PUSH1 0x40 DUP1 MLOAD PUSH1 0x3 DUP1 DUP3 MSTORE PUSH1 0x80 DUP3 ADD SWAP1 SWAP3 MSTORE SWAP1 DUP2 PUSH1 0x20 ADD JUMPDEST PUSH2 0x4E5 PUSH2 0x14A8 JUMP JUMPDEST DUP2 MSTORE PUSH1 0x20 ADD SWAP1 PUSH1 0x1 SWAP1 SUB SWAP1 DUP2 PUSH2 0x4DD JUMPI SWAP1 POP POP PUSH1 0x40 DUP1 MLOAD PUSH1 0x60 DUP2 ADD DUP3 MSTORE PUSH1 0x1 DUP1 DUP3 MSTORE PUSH1 0x20 DUP3 ADD DUP2 SWAP1 MSTORE DUP3 MLOAD PUSH4 0x1436DE3F PUSH1 0xE2 SHL DUP2 MSTORE PUSH1 0x4 DUP2 ADD DUP3 SWAP1 MSTORE PUSH1 0x24 DUP2 ADD DUP3 SWAP1 MSTORE PUSH1 0x44 DUP2 ADD SWAP2 SWAP1 SWAP2 MSTORE PUSH1 0x0 PUSH1 0x64 DUP3 ADD DUP2 SWAP1 MSTORE PUSH1 0x84 DUP3 ADD MSTORE SWAP3 SWAP5 POP SWAP2 SWAP1 DUP3 ADD SWAP1 PUSH20 0x0 SWAP1 PUSH4 0x50DB78FC SWAP1 PUSH1 0xA4 ADD PUSH2 0x100 PUSH1 0x40 MLOAD DUP1 DUP4 SUB DUP2 DUP7 DUP1 EXTCODESIZE ISZERO DUP1 ISZERO PUSH2 0x57E JUMPI PUSH1 0x0 DUP1 REVERT JUMPDEST POP GAS DELEGATECALL ISZERO DUP1 ISZERO PUSH2 0x592 JUMPI RETURNDATASIZE PUSH1 0x0 DUP1 RETURNDATACOPY RETURNDATASIZE PUSH1 0x0 REVERT JUMPDEST POP POP POP POP PUSH1 0x40 MLOAD RETURNDATASIZE PUSH1 0x1F NOT PUSH1 0x1F DUP3 ADD AND DUP3 ADD DUP1 PUSH1 0x40 MSTORE POP DUP2 ADD SWAP1 PUSH2 0x5B6 SWAP2 SWAP1 PUSH2 0x1880 JUMP JUMPDEST DUP2 MSTORE POP DUP3 PUSH1 0x0 DUP2 MLOAD DUP2 LT PUSH2 0x5CC JUMPI PUSH2 0x5CC PUSH2 0x191E JUMP JUMPDEST PUSH1 0x20 SWAP1 DUP2 MUL SWAP2 SWAP1 SWAP2 ADD DUP2 ADD SWAP2 SWAP1 SWAP2 MSTORE PUSH1 0x40 DUP1 MLOAD PUSH1 0x60 DUP2 ADD DUP3 MSTORE PUSH1 0x2 DUP2 MSTORE PUSH1 0x1 SWAP3 DUP2 ADD DUP4 SWAP1 MSTORE DUP2 MLOAD PUSH4 0x1436DE3F PUSH1 0xE2 SHL DUP2 MSTORE PUSH1 0x4 DUP2 ADD DUP5 SWAP1 MSTORE PUSH1 0x24 DUP2 ADD DUP5 SWAP1 MSTORE PUSH1 0x44 DUP2 ADD SWAP4 SWAP1 SWAP4 MSTORE PUSH1 0x0 PUSH1 0x64 DUP5 ADD DUP2 SWAP1 MSTORE PUSH1 0x84 DUP5 ADD MSTORE SWAP2 SWAP1 DUP3 ADD SWAP1 PUSH20 0x0 SWAP1 PUSH4 0x50DB78FC SWAP1 PUSH1 0xA4 ADD JUMPDEST PUSH2 0x100 PUSH1 0x40 MLOAD DUP1 DUP4 SUB DUP2 DUP7 DUP1 EXTCODESIZE ISZERO DUP1 ISZERO PUSH2 0x65F JUMPI PUSH1 0x0 DUP1 REVERT JUMPDEST POP GAS DELEGATECALL ISZERO DUP1 ISZERO PUSH2 0x673 JUMPI RETURNDATASIZE PUSH1 0x0 DUP1 RETURNDATACOPY RETURNDATASIZE PUSH1 0x0 REVERT JUMPDEST POP POP POP POP PUSH1 0x40 MLOAD RETURNDATASIZE PUSH1 0x1F NOT PUSH1 0x1F DUP3 ADD AND DUP3 ADD DUP1 PUSH1 0x40 MSTORE POP DUP2 ADD SWAP1 PUSH2 0x697 SWAP2 SWAP1 PUSH2 0x1880 JUMP JUMPDEST DUP2 MSTORE POP DUP3 PUSH1 0x1 DUP2 MLOAD DUP2 LT PUSH2 0x6AD JUMPI PUSH2 0x6AD PUSH2 0x191E JUMP JUMPDEST PUSH1 0x20 SWAP1 DUP2 MUL SWAP2 SWAP1 SWAP2 ADD DUP2 ADD SWAP2 SWAP1 SWAP2 MSTORE PUSH1 0x40 DUP1 MLOAD PUSH1 0x60 DUP2 ADD DUP3 MSTORE PUSH1 0x3 DUP2 MSTORE PUSH1 0x1 SWAP3 DUP2 ADD DUP4 SWAP1 MSTORE DUP2 MLOAD PUSH4 0x1436DE3F PUSH1 0xE2 SHL DUP2 MSTORE PUSH1 0x4 DUP2 ADD DUP5 SWAP1 MSTORE PUSH1 0x24 DUP2 ADD DUP5 SWAP1 MSTORE PUSH1 0x44 DUP2 ADD SWAP4 SWAP1 SWAP4 MSTORE PUSH1 0x0 PUSH1 0x64 DUP5 ADD DUP2 SWAP1 MSTORE PUSH1 0x84 DUP5 ADD MSTORE SWAP2 SWAP1 DUP3 ADD SWAP1 PUSH20 0x0 SWAP1 PUSH4 0x50DB78FC SWAP1 PUSH1 0xA4 ADD JUMPDEST PUSH2 0x100 PUSH1 0x40 MLOAD DUP1 DUP4 SUB DUP2 DUP7 DUP1 EXTCODESIZE ISZERO DUP1 ISZERO PUSH2 0x740 JUMPI PUSH1 0x0 DUP1 REVERT JUMPDEST POP GAS DELEGATECALL ISZERO DUP1 ISZERO PUSH2 0x754 JUMPI RETURNDATASIZE PUSH1 0x0 DUP1 RETURNDATACOPY RETURNDATASIZE PUSH1 0x0 REVERT JUMPDEST POP POP POP POP PUSH1 0x40 MLOAD RETURNDATASIZE PUSH1 0x1F NOT PUSH1 0x1F DUP3 ADD AND DUP3 ADD DUP1 PUSH1 0x40 MSTORE POP DUP2 ADD SWAP1 PUSH2 0x778 SWAP2 SWAP1 PUSH2 0x1880 JUMP JUMPDEST DUP2 MSTORE POP DUP3 PUSH1 0x2 DUP2 MLOAD DUP2 LT PUSH2 0x4AE JUMPI PUSH2 0x4AE PUSH2 0x191E JUMP JUMPDEST DUP3 PUSH1 0x2 EQ ISZERO PUSH2 0x91C JUMPI PUSH1 0x40 DUP1 MLOAD PUSH1 0x3 DUP1 DUP3 MSTORE PUSH1 0x80 DUP3 ADD SWAP1 SWAP3 MSTORE SWAP1 DUP2 PUSH1 0x20 ADD JUMPDEST PUSH2 0x7B5 PUSH2 0x14A8 JUMP JUMPDEST DUP2 MSTORE PUSH1 0x20 ADD SWAP1 PUSH1 0x1 SWAP1 SUB SWAP1 DUP2 PUSH2 0x7AD JUMPI SWAP1 POP POP PUSH1 0x40 DUP1 MLOAD PUSH1 0x60 DUP2 ADD DUP3 MSTORE PUSH1 0x1 DUP1 DUP3 MSTORE PUSH1 0x20 DUP3 ADD DUP2 SWAP1 MSTORE DUP3 MLOAD PUSH4 0x1436DE3F PUSH1 0xE2 SHL DUP2 MSTORE PUSH1 0x4 DUP2 ADD DUP3 SWAP1 MSTORE PUSH1 0x24 DUP2 ADD DUP3 SWAP1 MSTORE PUSH1 0x44 DUP2 ADD SWAP2 SWAP1 SWAP2 MSTORE PUSH1 0x0 PUSH1 0x64 DUP3 ADD DUP2 SWAP1 MSTORE PUSH1 0x84 DUP3 ADD MSTORE SWAP3 SWAP5 POP SWAP2 SWAP1 DUP3 ADD SWAP1 PUSH20 0x0 SWAP1 PUSH4 0x50DB78FC SWAP1 PUSH1 0xA4 ADD PUSH2 0x100 PUSH1 0x40 MLOAD DUP1 DUP4 SUB DUP2 DUP7 DUP1 EXTCODESIZE ISZERO DUP1 ISZERO PUSH2 0x84E JUMPI PUSH1 0x0 DUP1 REVERT JUMPDEST POP GAS DELEGATECALL ISZERO DUP1 ISZERO PUSH2 0x862 JUMPI RETURNDATASIZE PUSH1 0x0 DUP1 RETURNDATACOPY RETURNDATASIZE PUSH1 0x0 REVERT JUMPDEST POP POP POP POP PUSH1 0x40 MLOAD RETURNDATASIZE PUSH1 0x1F NOT PUSH1 0x1F DUP3 ADD AND DUP3 ADD DUP1 PUSH1 0x40 MSTORE POP DUP2 ADD SWAP1 PUSH2 0x886 SWAP2 SWAP1 PUSH2 0x1880 JUMP JUMPDEST DUP2 MSTORE POP DUP3 PUSH1 0x0 DUP2 MLOAD DUP2 LT PUSH2 0x89C JUMPI PUSH2 0x89C PUSH2 0x191E JUMP JUMPDEST PUSH1 0x20 SWAP1 DUP2 MUL SWAP2 SWAP1 SWAP2 ADD DUP2 ADD SWAP2 SWAP1 SWAP2 MSTORE PUSH1 0x40 DUP1 MLOAD PUSH1 0x60 DUP2 ADD DUP3 MSTORE PUSH1 0x2 DUP1 DUP3 MSTORE PUSH1 0x1 SWAP4 DUP3 ADD DUP5 SWAP1 MSTORE DUP3 MLOAD PUSH4 0x1436DE3F PUSH1 0xE2 SHL DUP2 MSTORE PUSH1 0x4 DUP2 ADD SWAP2 SWAP1 SWAP2 MSTORE PUSH1 0x24 DUP2 ADD DUP5 SWAP1 MSTORE PUSH1 0x3 PUSH1 0x44 DUP3 ADD MSTORE PUSH1 0x0 PUSH1 0x64 DUP3 ADD MSTORE PUSH1 0x84 DUP2 ADD SWAP4 SWAP1 SWAP4 MSTORE SWAP2 SWAP1 DUP3 ADD SWAP1 PUSH20 0x0 SWAP1 PUSH4 0x50DB78FC SWAP1 PUSH1 0xA4 ADD PUSH2 0x646 JUMP JUMPDEST DUP3 PUSH1 0x3 EQ ISZERO PUSH2 0xB88 JUMPI PUSH1 0x40 DUP1 MLOAD PUSH1 0x3 DUP1 DUP3 MSTORE PUSH1 0x80 DUP3 ADD SWAP1 SWAP3 MSTORE SWAP1 DUP2 PUSH1 0x20 ADD JUMPDEST PUSH2 0x943 PUSH2 0x14A8 JUMP JUMPDEST DUP2 MSTORE PUSH1 0x20 ADD SWAP1 PUSH1 0x1 SWAP1 SUB SWAP1 DUP2 PUSH2 0x93B JUMPI SWAP1 POP POP PUSH1 0x40 DUP1 MLOAD PUSH1 0x60 DUP2 ADD DUP3 MSTORE PUSH1 0x1 DUP1 DUP3 MSTORE PUSH1 0x20 DUP3 ADD DUP2 SWAP1 MSTORE DUP3 MLOAD PUSH4 0x1436DE3F PUSH1 0xE2 SHL DUP2 MSTORE PUSH1 0x5 PUSH1 0x4 DUP3 ADD DUP2 SWAP1 MSTORE PUSH1 0x24 DUP3 ADD DUP4 SWAP1 MSTORE PUSH1 0x44 DUP3 ADD MSTORE PUSH1 0x0 PUSH1 0x64 DUP3 ADD MSTORE PUSH1 0x84 DUP2 ADD SWAP2 SWAP1 SWAP2 MSTORE SWAP3 SWAP5 POP SWAP2 SWAP1 DUP3 ADD SWAP1 PUSH20 0x0 SWAP1 PUSH4 0x50DB78FC SWAP1 PUSH1 0xA4 ADD PUSH2 0x100 PUSH1 0x40 MLOAD DUP1 DUP4 SUB DUP2 DUP7 DUP1 EXTCODESIZE ISZERO DUP1 ISZERO PUSH2 0x9DC JUMPI PUSH1 0x0 DUP1 REVERT JUMPDEST POP GAS DELEGATECALL ISZERO DUP1 ISZERO PUSH2 0x9F0 JUMPI RETURNDATASIZE PUSH1 0x0 DUP1 RETURNDATACOPY RETURNDATASIZE PUSH1 0x0 REVERT JUMPDEST POP POP POP POP PUSH1 0x40 MLOAD RETURNDATASIZE PUSH1 0x1F NOT PUSH1 0x1F DUP3 ADD AND DUP3 ADD DUP1 PUSH1 0x40 MSTORE POP DUP2 ADD SWAP1 PUSH2 0xA14 SWAP2 SWAP1 PUSH2 0x1880 JUMP JUMPDEST DUP2 MSTORE POP DUP3 PUSH1 0x0 DUP2 MLOAD DUP2 LT PUSH2 0xA2A JUMPI PUSH2 0xA2A PUSH2 0x191E JUMP JUMPDEST PUSH1 0x20 SWAP1 DUP2 MUL SWAP2 SWAP1 SWAP2 ADD DUP2 ADD SWAP2 SWAP1 SWAP2 MSTORE PUSH1 0x40 DUP1 MLOAD PUSH1 0x60 DUP2 ADD DUP3 MSTORE PUSH1 0x2 DUP2 MSTORE PUSH1 0x1 SWAP3 DUP2 ADD DUP4 SWAP1 MSTORE DUP2 MLOAD PUSH4 0x1436DE3F PUSH1 0xE2 SHL DUP2 MSTORE PUSH1 0x5 PUSH1 0x4 DUP3 ADD DUP2 SWAP1 MSTORE PUSH1 0x24 DUP3 ADD DUP6 SWAP1 MSTORE PUSH1 0x44 DUP3 ADD MSTORE PUSH1 0x0 PUSH1 0x64 DUP3 ADD MSTORE PUSH1 0x84 DUP2 ADD SWAP4 SWAP1 SWAP4 MSTORE SWAP2 SWAP1 DUP3 ADD SWAP1 PUSH20 0x0 SWAP1 PUSH4 0x50DB78FC SWAP1 PUSH1 0xA4 ADD PUSH2 0x100 PUSH1 0x40 MLOAD DUP1 DUP4 SUB DUP2 DUP7 DUP1 EXTCODESIZE ISZERO DUP1 ISZERO PUSH2 0xABC JUMPI PUSH1 0x0 DUP1 REVERT JUMPDEST POP GAS DELEGATECALL ISZERO DUP1 ISZERO PUSH2 0xAD0 JUMPI RETURNDATASIZE PUSH1 0x0 DUP1 RETURNDATACOPY RETURNDATASIZE PUSH1 0x0 REVERT JUMPDEST POP POP POP POP PUSH1 0x40 MLOAD RETURNDATASIZE PUSH1 0x1F NOT PUSH1 0x1F DUP3 ADD AND DUP3 ADD DUP1 PUSH1 0x40 MSTORE POP DUP2 ADD SWAP1 PUSH2 0xAF4 SWAP2 SWAP1 PUSH2 0x1880 JUMP JUMPDEST DUP2 MSTORE POP DUP3 PUSH1 0x1 DUP2 MLOAD DUP2 LT PUSH2 0xB0A JUMPI PUSH2 0xB0A PUSH2 0x191E JUMP JUMPDEST PUSH1 0x20 SWAP1 DUP2 MUL SWAP2 SWAP1 SWAP2 ADD DUP2 ADD SWAP2 SWAP1 SWAP2 MSTORE PUSH1 0x40 DUP1 MLOAD PUSH1 0x60 DUP2 ADD DUP3 MSTORE PUSH1 0x3 DUP2 MSTORE PUSH1 0x1 SWAP3 DUP2 ADD DUP4 SWAP1 MSTORE DUP2 MLOAD PUSH4 0x1436DE3F PUSH1 0xE2 SHL DUP2 MSTORE PUSH1 0x5 PUSH1 0x4 DUP3 ADD DUP2 SWAP1 MSTORE PUSH1 0x24 DUP3 ADD DUP6 SWAP1 MSTORE PUSH1 0x44 DUP3 ADD MSTORE PUSH1 0x0 PUSH1 0x64 DUP3 ADD MSTORE PUSH1 0x84 DUP2 ADD SWAP4 SWAP1 SWAP4 MSTORE SWAP2 SWAP1 DUP3 ADD SWAP1 PUSH20 0x0 SWAP1 PUSH4 0x50DB78FC SWAP1 PUSH1 0xA4 ADD PUSH2 0x727 JUMP JUMPDEST DUP3 PUSH1 0x4 EQ ISZERO PUSH2 0xDF4 JUMPI PUSH1 0x40 DUP1 MLOAD PUSH1 0x3 DUP1 DUP3 MSTORE PUSH1 0x80 DUP3 ADD SWAP1 SWAP3 MSTORE SWAP1 DUP2 PUSH1 0x20 ADD JUMPDEST PUSH2 0xBAF PUSH2 0x14A8 JUMP JUMPDEST DUP2 MSTORE PUSH1 0x20 ADD SWAP1 PUSH1 0x1 SWAP1 SUB SWAP1 DUP2 PUSH2 0xBA7 JUMPI SWAP1 POP POP PUSH1 0x40 DUP1 MLOAD PUSH1 0x60 DUP2 ADD DUP3 MSTORE PUSH1 0x1 DUP1 DUP3 MSTORE PUSH1 0x20 DUP3 ADD DUP2 SWAP1 MSTORE DUP3 MLOAD PUSH4 0x1436DE3F PUSH1 0xE2 SHL DUP2 MSTORE PUSH1 0x8 PUSH1 0x4 DUP3 ADD MSTORE PUSH1 0x24 DUP2 ADD SWAP2 SWAP1 SWAP2 MSTORE PUSH1 0xC PUSH1 0x44 DUP3 ADD MSTORE PUSH1 0x0 PUSH1 0x64 DUP3 ADD DUP2 SWAP1 MSTORE PUSH1 0x84 DUP3 ADD MSTORE SWAP3 SWAP5 POP SWAP2 SWAP1 DUP3 ADD SWAP1 PUSH20 0x0 SWAP1 PUSH4 0x50DB78FC SWAP1 PUSH1 0xA4 ADD PUSH2 0x100 PUSH1 0x40 MLOAD DUP1 DUP4 SUB DUP2 DUP7 DUP1 EXTCODESIZE ISZERO DUP1 ISZERO PUSH2 0xC48 JUMPI PUSH1 0x0 DUP1 REVERT JUMPDEST POP GAS DELEGATECALL ISZERO DUP1 ISZERO PUSH2 0xC5C JUMPI RETURNDATASIZE PUSH1 0x0 DUP1 RETURNDATACOPY RETURNDATASIZE PUSH1 0x0 REVERT JUMPDEST POP POP POP POP PUSH1 0x40 MLOAD RETURNDATASIZE PUSH1 0x1F NOT PUSH1 0x1F DUP3 ADD AND DUP3 ADD DUP1 PUSH1 0x40 MSTORE POP DUP2 ADD SWAP1 PUSH2 0xC80 SWAP2 SWAP1 PUSH2 0x1880 JUMP JUMPDEST DUP2 MSTORE POP DUP3 PUSH1 0x0 DUP2 MLOAD DUP2 LT PUSH2 0xC96 JUMPI PUSH2 0xC96 PUSH2 0x191E JUMP JUMPDEST PUSH1 0x20 SWAP1 DUP2 MUL SWAP2 SWAP1 SWAP2 ADD DUP2 ADD SWAP2 SWAP1 SWAP2 MSTORE PUSH1 0x40 DUP1 MLOAD PUSH1 0x60 DUP2 ADD DUP3 MSTORE PUSH1 0x2 DUP2 MSTORE PUSH1 0x1 SWAP3 DUP2 ADD DUP4 SWAP1 MSTORE DUP2 MLOAD PUSH4 0x1436DE3F PUSH1 0xE2 SHL DUP2 MSTORE PUSH1 0x8 PUSH1 0x4 DUP3 ADD MSTORE PUSH1 0x24 DUP2 ADD SWAP4 SWAP1 SWAP4 MSTORE PUSH1 0xC PUSH1 0x44 DUP5 ADD MSTORE PUSH1 0x0 PUSH1 0x64 DUP5 ADD DUP2 SWAP1 MSTORE PUSH1 0x84 DUP5 ADD MSTORE SWAP2 SWAP1 DUP3 ADD SWAP1 PUSH20 0x0 SWAP1 PUSH4 0x50DB78FC SWAP1 PUSH1 0xA4 ADD PUSH2 0x100 PUSH1 0x40 MLOAD DUP1 DUP4 SUB DUP2 DUP7 DUP1 EXTCODESIZE ISZERO DUP1 ISZERO PUSH2 0xD28 JUMPI PUSH1 0x0 DUP1 REVERT JUMPDEST POP GAS DELEGATECALL ISZERO DUP1 ISZERO PUSH2 0xD3C JUMPI RETURNDATASIZE PUSH1 0x0 DUP1 RETURNDATACOPY RETURNDATASIZE PUSH1 0x0 REVERT JUMPDEST POP POP POP POP PUSH1 0x40 MLOAD RETURNDATASIZE PUSH1 0x1F NOT PUSH1 0x1F DUP3 ADD AND DUP3 ADD DUP1 PUSH1 0x40 MSTORE POP DUP2 ADD SWAP1 PUSH2 0xD60 SWAP2 SWAP1 PUSH2 0x1880 JUMP JUMPDEST DUP2 MSTORE POP DUP3 PUSH1 0x1 DUP2 MLOAD DUP2 LT PUSH2 0xD76 JUMPI PUSH2 0xD76 PUSH2 0x191E JUMP JUMPDEST PUSH1 0x20 SWAP1 DUP2 MUL SWAP2 SWAP1 SWAP2 ADD DUP2 ADD SWAP2 SWAP1 SWAP2 MSTORE PUSH1 0x40 DUP1 MLOAD PUSH1 0x60 DUP2 ADD DUP3 MSTORE PUSH1 0x3 DUP2 MSTORE PUSH1 0x1 SWAP3 DUP2 ADD DUP4 SWAP1 MSTORE DUP2 MLOAD PUSH4 0x1436DE3F PUSH1 0xE2 SHL DUP2 MSTORE PUSH1 0x8 PUSH1 0x4 DUP3 ADD MSTORE PUSH1 0x24 DUP2 ADD SWAP4 SWAP1 SWAP4 MSTORE PUSH1 0xC PUSH1 0x44 DUP5 ADD MSTORE PUSH1 0x0 PUSH1 0x64 DUP5 ADD DUP2 SWAP1 MSTORE PUSH1 0x84 DUP5 ADD MSTORE SWAP2 SWAP1 DUP3 ADD SWAP1 PUSH20 0x0 SWAP1 PUSH4 0x50DB78FC SWAP1 PUSH1 0xA4 ADD PUSH2 0x727 JUMP JUMPDEST DUP3 PUSH1 0x5 EQ ISZERO PUSH2 0xFE5 JUMPI PUSH1 0x40 DUP1 MLOAD PUSH1 0x2 DUP1 DUP3 MSTORE PUSH1 0x60 DUP3 ADD SWAP1 SWAP3 MSTORE SWAP1 DUP2 PUSH1 0x20 ADD JUMPDEST PUSH2 0xE1B PUSH2 0x14A8 JUMP JUMPDEST DUP2 MSTORE PUSH1 0x20 ADD SWAP1 PUSH1 0x1 SWAP1 SUB SWAP1 DUP2 PUSH2 0xE13 JUMPI SWAP1 POP POP PUSH1 0x40 DUP1 MLOAD PUSH1 0x60 DUP2 ADD DUP3 MSTORE PUSH1 0x1 DUP1 DUP3 MSTORE PUSH1 0x20 DUP3 ADD DUP2 SWAP1 MSTORE DUP3 MLOAD PUSH4 0x1436DE3F PUSH1 0xE2 SHL DUP2 MSTORE PUSH1 0x12 PUSH1 0x4 DUP3 ADD MSTORE PUSH1 0x24 DUP2 ADD SWAP2 SWAP1 SWAP2 MSTORE PUSH1 0xC PUSH1 0x44 DUP3 ADD MSTORE PUSH1 0x0 PUSH1 0x64 DUP3 ADD MSTORE PUSH1 0x2 PUSH1 0x84 DUP3 ADD MSTORE SWAP3 SWAP5 POP SWAP2 SWAP1 DUP3 ADD SWAP1 PUSH20 0x0 SWAP1 PUSH4 0x50DB78FC SWAP1 PUSH1 0xA4 ADD PUSH2 0x100 PUSH1 0x40 MLOAD DUP1 DUP4 SUB DUP2 DUP7 DUP1 EXTCODESIZE ISZERO DUP1 ISZERO PUSH2 0xEB4 JUMPI PUSH1 0x0 DUP1 REVERT JUMPDEST POP GAS DELEGATECALL ISZERO DUP1 ISZERO PUSH2 0xEC8 JUMPI RETURNDATASIZE PUSH1 0x0 DUP1 RETURNDATACOPY RETURNDATASIZE PUSH1 0x0 REVERT JUMPDEST POP POP POP POP PUSH1 0x40 MLOAD RETURNDATASIZE PUSH1 0x1F NOT PUSH1 0x1F DUP3 ADD AND DUP3 ADD DUP1 PUSH1 0x40 MSTORE POP DUP2 ADD SWAP1 PUSH2 0xEEC SWAP2 SWAP1 PUSH2 0x1880 JUMP JUMPDEST DUP2 MSTORE POP DUP3 PUSH1 0x0 DUP2 MLOAD DUP2 LT PUSH2 0xF02 JUMPI PUSH2 0xF02 PUSH2 0x191E JUMP JUMPDEST PUSH1 0x20 SWAP1 DUP2 MUL SWAP2 SWAP1 SWAP2 ADD DUP2 ADD SWAP2 SWAP1 SWAP2 MSTORE PUSH1 0x40 DUP1 MLOAD PUSH1 0x60 DUP2 ADD DUP3 MSTORE PUSH1 0x2 DUP2 MSTORE PUSH1 0x1 SWAP3 DUP2 ADD DUP4 SWAP1 MSTORE DUP2 MLOAD PUSH4 0x1436DE3F PUSH1 0xE2 SHL DUP2 MSTORE PUSH1 0xF PUSH1 0x4 DUP3 ADD DUP2 SWAP1 MSTORE PUSH1 0x24 DUP3 ADD SWAP5 SWAP1 SWAP5 MSTORE PUSH1 0x44 DUP2 ADD SWAP4 SWAP1 SWAP4 MSTORE PUSH1 0x0 PUSH1 0x64 DUP5 ADD MSTORE PUSH1 0x5 PUSH1 0x84 DUP5 ADD MSTORE SWAP2 SWAP1 DUP3 ADD SWAP1 PUSH20 0x0 SWAP1 PUSH4 0x50DB78FC SWAP1 PUSH1 0xA4 ADD PUSH2 0x100 PUSH1 0x40 MLOAD DUP1 DUP4 SUB DUP2 DUP7 DUP1 EXTCODESIZE ISZERO DUP1 ISZERO PUSH2 0xF97 JUMPI PUSH1 0x0 DUP1 REVERT JUMPDEST POP GAS DELEGATECALL ISZERO DUP1 ISZERO PUSH2 0xFAB JUMPI RETURNDATASIZE PUSH1 0x0 DUP1 RETURNDATACOPY RETURNDATASIZE PUSH1 0x0 REVERT JUMPDEST POP POP POP POP PUSH1 0x40 MLOAD RETURNDATASIZE PUSH1 0x1F NOT PUSH1 0x1F DUP3 ADD AND DUP3 ADD DUP1 PUSH1 0x40 MSTORE POP DUP2 ADD SWAP1 PUSH2 0xFCF SWAP2 SWAP1 PUSH2 0x1880 JUMP JUMPDEST DUP2 MSTORE POP DUP3 PUSH1 0x1 DUP2 MLOAD DUP2 LT PUSH2 0x4AE JUMPI PUSH2 0x4AE PUSH2 0x191E JUMP JUMPDEST DUP3 PUSH1 0x6 EQ ISZERO PUSH2 0x10FE JUMPI PUSH1 0x40 DUP1 MLOAD PUSH1 0x1 DUP1 DUP3 MSTORE DUP2 DUP4 ADD SWAP1 SWAP3 MSTORE SWAP1 DUP2 PUSH1 0x20 ADD JUMPDEST PUSH2 0x100B PUSH2 0x14A8 JUMP JUMPDEST DUP2 MSTORE PUSH1 0x20 ADD SWAP1 PUSH1 0x1 SWAP1 SUB SWAP1 DUP2 PUSH2 0x1003 JUMPI SWAP1 POP POP PUSH1 0x40 DUP1 MLOAD PUSH1 0x60 DUP2 ADD DUP3 MSTORE PUSH1 0x1 DUP1 DUP3 MSTORE PUSH1 0x20 DUP3 ADD DUP2 SWAP1 MSTORE DUP3 MLOAD PUSH4 0x1436DE3F PUSH1 0xE2 SHL DUP2 MSTORE PUSH1 0x23 PUSH1 0x4 DUP3 ADD MSTORE PUSH1 0x24 DUP2 ADD SWAP2 SWAP1 SWAP2 MSTORE PUSH1 0x32 PUSH1 0x44 DUP3 ADD MSTORE PUSH1 0x0 PUSH1 0x64 DUP3 ADD MSTORE PUSH1 0xA PUSH1 0x84 DUP3 ADD MSTORE SWAP3 SWAP5 POP SWAP2 SWAP1 DUP3 ADD SWAP1 PUSH20 0x0 SWAP1 PUSH4 0x50DB78FC SWAP1 PUSH1 0xA4 ADD PUSH2 0x100 PUSH1 0x40 MLOAD DUP1 DUP4 SUB DUP2 DUP7 DUP1 EXTCODESIZE ISZERO DUP1 ISZERO PUSH2 0x10A4 JUMPI PUSH1 0x0 DUP1 REVERT JUMPDEST POP GAS DELEGATECALL ISZERO DUP1 ISZERO PUSH2 0x10B8 JUMPI RETURNDATASIZE PUSH1 0x0 DUP1 RETURNDATACOPY RETURNDATASIZE PUSH1 0x0 REVERT JUMPDEST POP POP POP POP PUSH1 0x40 MLOAD RETURNDATASIZE PUSH1 0x1F NOT PUSH1 0x1F DUP3 ADD AND DUP3 ADD DUP1 PUSH1 0x40 MSTORE POP DUP2 ADD SWAP1 PUSH2 0x10DC SWAP2 SWAP1 PUSH2 0x1880 JUMP JUMPDEST DUP2 MSTORE POP DUP3 PUSH1 0x0 DUP2 MLOAD DUP2 LT PUSH2 0x10F2 JUMPI PUSH2 0x10F2 PUSH2 0x191E JUMP JUMPDEST PUSH1 0x20 MUL PUSH1 0x20 ADD ADD DUP2 SWAP1 MSTORE POP JUMPDEST POP SWAP2 SWAP1 POP JUMP JUMPDEST PUSH1 0x0 SLOAD PUSH1 0x1 PUSH1 0x1 PUSH1 0xA0 SHL SUB AND CALLER EQ PUSH2 0x112E JUMPI PUSH1 0x40 MLOAD PUSH3 0x461BCD PUSH1 0xE5 SHL DUP2 MSTORE PUSH1 0x4 ADD PUSH2 0x2CF SWAP1 PUSH2 0x1849 JUMP JUMPDEST PUSH1 0x5 SLOAD PUSH1 0x40 MLOAD PUSH1 0x1 PUSH1 0x1 PUSH1 0xA0 SHL SUB SWAP1 SWAP2 AND SWAP1 SELFBALANCE DUP1 ISZERO PUSH2 0x8FC MUL SWAP2 PUSH1 0x0 DUP2 DUP2 DUP2 DUP6 DUP9 DUP9 CALL SWAP4 POP POP POP POP ISZERO DUP1 ISZERO PUSH2 0x1167 JUMPI RETURNDATASIZE PUSH1 0x0 DUP1 RETURNDATACOPY RETURNDATASIZE PUSH1 0x0 REVERT JUMPDEST POP JUMP JUMPDEST PUSH1 0x0 SLOAD PUSH1 0x1 PUSH1 0x1 PUSH1 0xA0 SHL SUB AND CALLER EQ DUP1 PUSH2 0x118D JUMPI POP PUSH1 0x1 SLOAD PUSH1 0x1 PUSH1 0x1 PUSH1 0xA0 SHL SUB AND CALLER EQ JUMPDEST DUP1 PUSH2 0x11A2 JUMPI POP PUSH1 0x2 SLOAD PUSH1 0x1 PUSH1 0x1 PUSH1 0xA0 SHL SUB AND CALLER EQ JUMPDEST DUP1 PUSH2 0x11B7 JUMPI POP PUSH1 0x3 SLOAD PUSH1 0x1 PUSH1 0x1 PUSH1 0xA0 SHL SUB AND CALLER EQ JUMPDEST PUSH2 0x1214 JUMPI PUSH1 0x40 MLOAD PUSH3 0x461BCD PUSH1 0xE5 SHL DUP2 MSTORE PUSH1 0x20 PUSH1 0x4 DUP3 ADD MSTORE PUSH1 0x28 PUSH1 0x24 DUP3 ADD MSTORE PUSH32 0x4F6E6C792067616D6520636F6E7472616374732063616E2063616C6C20746869 PUSH1 0x44 DUP3 ADD MSTORE PUSH8 0x1CC81B595D1A1BD9 PUSH1 0xC2 SHL PUSH1 0x64 DUP3 ADD MSTORE PUSH1 0x84 ADD PUSH2 0x2CF JUMP JUMPDEST DUP1 ISZERO PUSH2 0x12C2 JUMPI PUSH1 0x40 MLOAD PUSH4 0x60697473 PUSH1 0xE1 SHL DUP2 MSTORE PUSH1 0x0 SWAP1 PUSH20 0x0 SWAP1 PUSH4 0xC0D2E8E6 SWAP1 PUSH2 0x1254 SWAP1 DUP8 SWAP1 PUSH1 0x4 ADD PUSH2 0x1934 JUMP JUMPDEST PUSH1 0x20 PUSH1 0x40 MLOAD DUP1 DUP4 SUB DUP2 DUP7 DUP1 EXTCODESIZE ISZERO DUP1 ISZERO PUSH2 0x126C JUMPI PUSH1 0x0 DUP1 REVERT JUMPDEST POP GAS DELEGATECALL ISZERO DUP1 ISZERO PUSH2 0x1280 JUMPI RETURNDATASIZE PUSH1 0x0 DUP1 RETURNDATACOPY RETURNDATASIZE PUSH1 0x0 REVERT JUMPDEST POP POP POP POP PUSH1 0x40 MLOAD RETURNDATASIZE PUSH1 0x1F NOT PUSH1 0x1F DUP3 ADD AND DUP3 ADD DUP1 PUSH1 0x40 MSTORE POP DUP2 ADD SWAP1 PUSH2 0x12A4 SWAP2 SWAP1 PUSH2 0x19B8 JUMP JUMPDEST SWAP1 POP PUSH2 0x12B1 DUP4 PUSH1 0x1 PUSH2 0x19D1 JUMP JUMPDEST PUSH1 0x0 SWAP2 DUP3 MSTORE PUSH1 0x7 PUSH1 0x20 MSTORE PUSH1 0x40 SWAP1 SWAP2 KECCAK256 SSTORE JUMPDEST POP POP POP JUMP JUMPDEST PUSH1 0x0 SLOAD PUSH1 0x1 PUSH1 0x1 PUSH1 0xA0 SHL SUB AND CALLER EQ PUSH2 0x12F1 JUMPI PUSH1 0x40 MLOAD PUSH3 0x461BCD PUSH1 0xE5 SHL DUP2 MSTORE PUSH1 0x4 ADD PUSH2 0x2CF SWAP1 PUSH2 0x1849 JUMP JUMPDEST PUSH1 0x2 DUP1 SLOAD PUSH1 0x1 PUSH1 0x1 PUSH1 0xA0 SHL SUB NOT AND PUSH1 0x1 PUSH1 0x1 PUSH1 0xA0 SHL SUB SWAP3 SWAP1 SWAP3 AND SWAP2 SWAP1 SWAP2 OR SWAP1 SSTORE JUMP JUMPDEST PUSH1 0x0 SLOAD PUSH1 0x1 PUSH1 0x1 PUSH1 0xA0 SHL SUB AND CALLER EQ PUSH2 0x133D JUMPI PUSH1 0x40 MLOAD PUSH3 0x461BCD PUSH1 0xE5 SHL DUP2 MSTORE PUSH1 0x4 ADD PUSH2 0x2CF SWAP1 PUSH2 0x1849 JUMP JUMPDEST PUSH1 0x5 DUP1 SLOAD PUSH1 0x1 PUSH1 0x1 PUSH1 0xA0 SHL SUB NOT AND PUSH1 0x1 PUSH1 0x1 PUSH1 0xA0 SHL SUB SWAP3 SWAP1 SWAP3 AND SWAP2 SWAP1 SWAP2 OR SWAP1 SSTORE JUMP JUMPDEST PUSH1 0x0 SLOAD PUSH1 0x1 PUSH1 0x1 PUSH1 0xA0 SHL SUB AND CALLER EQ PUSH2 0x1389 JUMPI PUSH1 0x40 MLOAD PUSH3 0x461BCD PUSH1 0xE5 SHL DUP2 MSTORE PUSH1 0x4 ADD PUSH2 0x2CF SWAP1 PUSH2 0x1849 JUMP JUMPDEST PUSH1 0x4 DUP1 SLOAD PUSH1 0x1 PUSH1 0x1 PUSH1 0xA0 SHL SUB NOT AND PUSH1 0x1 PUSH1 0x1 PUSH1 0xA0 SHL SUB SWAP3 SWAP1 SWAP3 AND SWAP2 SWAP1 SWAP2 OR SWAP1 SSTORE JUMP JUMPDEST PUSH1 0x0 SLOAD PUSH1 0x1 PUSH1 0x1 PUSH1 0xA0 SHL SUB AND CALLER EQ PUSH2 0x13D5 JUMPI PUSH1 0x40 MLOAD PUSH3 0x461BCD PUSH1 0xE5 SHL DUP2 MSTORE PUSH1 0x4 ADD PUSH2 0x2CF SWAP1 PUSH2 0x1849 JUMP JUMPDEST PUSH1 0x0 DUP1 SLOAD PUSH1 0x1 PUSH1 0x1 PUSH1 0xA0 SHL SUB NOT AND PUSH1 0x1 PUSH1 0x1 PUSH1 0xA0 SHL SUB SWAP3 SWAP1 SWAP3 AND SWAP2 SWAP1 SWAP2 OR SWAP1 SSTORE JUMP JUMPDEST PUSH1 0x0 PUSH2 0x1402 DUP3 PUSH2 0x1408 JUMP JUMPDEST SWAP3 SWAP2 POP POP JUMP JUMPDEST PUSH1 0x0 DUP1 PUSH20 0x0 PUSH4 0xC0D2E8E6 DUP5 PUSH1 0x40 MLOAD DUP3 PUSH4 0xFFFFFFFF AND PUSH1 0xE0 SHL DUP2 MSTORE PUSH1 0x4 ADD PUSH2 0x1442 SWAP2 SWAP1 PUSH2 0x1934 JUMP JUMPDEST PUSH1 0x20 PUSH1 0x40 MLOAD DUP1 DUP4 SUB DUP2 DUP7 DUP1 EXTCODESIZE ISZERO DUP1 ISZERO PUSH2 0x145A JUMPI PUSH1 0x0 DUP1 REVERT JUMPDEST POP GAS DELEGATECALL ISZERO DUP1 ISZERO PUSH2 0x146E JUMPI RETURNDATASIZE PUSH1 0x0 DUP1 RETURNDATACOPY RETURNDATASIZE PUSH1 0x0 REVERT JUMPDEST POP POP POP POP PUSH1 0x40 MLOAD RETURNDATASIZE PUSH1 0x1F NOT PUSH1 0x1F DUP3 ADD AND DUP3 ADD DUP1 PUSH1 0x40 MSTORE POP DUP2 ADD SWAP1 PUSH2 0x1492 SWAP2 SWAP1 PUSH2 0x19B8 JUMP JUMPDEST PUSH1 0x0 SWAP1 DUP2 MSTORE PUSH1 0x7 PUSH1 0x20 MSTORE PUSH1 0x40 SWAP1 KECCAK256 SLOAD SWAP4 SWAP3 POP POP POP JUMP JUMPDEST PUSH1 0x40 MLOAD DUP1 PUSH1 0x60 ADD PUSH1 0x40 MSTORE DUP1 PUSH1 0x0 DUP2 MSTORE PUSH1 0x20 ADD PUSH1 0x0 ISZERO ISZERO DUP2 MSTORE PUSH1 0x20 ADD PUSH2 0x150B PUSH1 0x40 MLOAD DUP1 PUSH2 0x100 ADD PUSH1 0x40 MSTORE DUP1 PUSH1 0x0 DUP2 MSTORE PUSH1 0x20 ADD PUSH1 0x0 DUP2 MSTORE PUSH1 0x20 ADD PUSH1 0x0 DUP2 MSTORE PUSH1 0x20 ADD PUSH1 0x0 DUP2 MSTORE PUSH1 0x20 ADD PUSH1 0x0 DUP2 MSTORE PUSH1 0x20 ADD PUSH1 0x0 DUP2 MSTORE PUSH1 0x20 ADD PUSH1 0x0 DUP2 MSTORE PUSH1 0x20 ADD PUSH1 0x0 DUP2 MSTORE POP SWAP1 JUMP JUMPDEST SWAP1 MSTORE SWAP1 JUMP JUMPDEST DUP1 CALLDATALOAD PUSH1 0x1 PUSH1 0x1 PUSH1 0xA0 SHL SUB DUP2 AND DUP2 EQ PUSH2 0x1527 JUMPI PUSH1 0x0 DUP1 REVERT JUMPDEST SWAP2 SWAP1 POP JUMP JUMPDEST PUSH1 0x0 PUSH1 0x20 DUP3 DUP5 SUB SLT ISZERO PUSH2 0x153E JUMPI PUSH1 0x0 DUP1 REVERT JUMPDEST PUSH2 0x1547 DUP3 PUSH2 0x1510 JUMP JUMPDEST SWAP4 SWAP3 POP POP POP JUMP JUMPDEST PUSH1 0x40 MLOAD PUSH2 0x100 DUP2 ADD PUSH8 0xFFFFFFFFFFFFFFFF DUP2 GT DUP3 DUP3 LT OR ISZERO PUSH2 0x1580 JUMPI PUSH4 0x4E487B71 PUSH1 0xE0 SHL PUSH1 0x0 MSTORE PUSH1 0x41 PUSH1 0x4 MSTORE PUSH1 0x24 PUSH1 0x0 REVERT JUMPDEST PUSH1 0x40 MSTORE SWAP1 JUMP JUMPDEST DUP1 CALLDATALOAD DUP1 ISZERO ISZERO DUP2 EQ PUSH2 0x1527 JUMPI PUSH1 0x0 DUP1 REVERT JUMPDEST PUSH1 0x0 PUSH1 0x60 DUP3 DUP5 SUB SLT ISZERO PUSH2 0x15A8 JUMPI PUSH1 0x0 DUP1 REVERT JUMPDEST PUSH1 0x40 MLOAD PUSH1 0x60 DUP2 ADD DUP2 DUP2 LT PUSH8 0xFFFFFFFFFFFFFFFF DUP3 GT OR ISZERO PUSH2 0x15D9 JUMPI PUSH4 0x4E487B71 PUSH1 0xE0 SHL PUSH1 0x0 MSTORE PUSH1 0x41 PUSH1 0x4 MSTORE PUSH1 0x24 PUSH1 0x0 REVERT JUMPDEST DUP1 PUSH1 0x40 MSTORE POP DUP1 SWAP2 POP DUP3 CALLDATALOAD DUP2 MSTORE PUSH1 0x20 DUP4 ADD CALLDATALOAD PUSH1 0x20 DUP3 ADD MSTORE PUSH1 0x40 DUP4 ADD CALLDATALOAD PUSH1 0x40 DUP3 ADD MSTORE POP SWAP3 SWAP2 POP POP JUMP JUMPDEST PUSH1 0x0 DUP2 DUP4 SUB PUSH2 0x220 DUP2 SLT ISZERO PUSH2 0x1614 JUMPI PUSH1 0x0 DUP1 REVERT JUMPDEST PUSH2 0x161C PUSH2 0x154E JUMP JUMPDEST SWAP2 POP PUSH2 0x1627 DUP4 PUSH2 0x1586 JUMP JUMPDEST DUP3 MSTORE PUSH2 0x1635 PUSH1 0x20 DUP5 ADD PUSH2 0x1510 JUMP JUMPDEST PUSH1 0x20 DUP4 ADD MSTORE PUSH1 0x40 DUP4 ADD CALLDATALOAD PUSH1 0x40 DUP4 ADD MSTORE PUSH1 0x60 DUP4 ADD CALLDATALOAD PUSH1 0x60 DUP4 ADD MSTORE PUSH1 0x80 DUP4 ADD CALLDATALOAD PUSH1 0x80 DUP4 ADD MSTORE PUSH1 0xA0 DUP4 ADD CALLDATALOAD PUSH1 0xA0 DUP4 ADD MSTORE PUSH2 0x100 DUP1 PUSH1 0xBF NOT DUP4 ADD SLT ISZERO PUSH2 0x1676 JUMPI PUSH1 0x0 DUP1 REVERT JUMPDEST PUSH2 0x167E PUSH2 0x154E JUMP JUMPDEST SWAP2 POP PUSH1 0xC0 DUP5 ADD CALLDATALOAD DUP3 MSTORE PUSH1 0xE0 DUP5 ADD CALLDATALOAD PUSH1 0x20 DUP4 ADD MSTORE DUP1 DUP5 ADD CALLDATALOAD PUSH1 0x40 DUP4 ADD MSTORE POP PUSH2 0x120 DUP4 ADD CALLDATALOAD PUSH1 0x60 DUP3 ADD MSTORE PUSH2 0x140 DUP4 ADD CALLDATALOAD PUSH1 0x80 DUP3 ADD MSTORE PUSH2 0x160 DUP4 ADD CALLDATALOAD PUSH1 0xA0 DUP3 ADD MSTORE PUSH2 0x180 DUP4 ADD CALLDATALOAD PUSH1 0xC0 DUP3 ADD MSTORE PUSH2 0x1A0 DUP4 ADD CALLDATALOAD PUSH1 0xE0 DUP3 ADD MSTORE DUP1 PUSH1 0xC0 DUP4 ADD MSTORE POP PUSH2 0x16E7 DUP4 PUSH2 0x1C0 DUP5 ADD PUSH2 0x1596 JUMP JUMPDEST PUSH1 0xE0 DUP3 ADD MSTORE SWAP3 SWAP2 POP POP JUMP JUMPDEST PUSH1 0x0 DUP1 PUSH2 0x240 DUP4 DUP6 SUB SLT ISZERO PUSH2 0x1706 JUMPI PUSH1 0x0 DUP1 REVERT JUMPDEST PUSH2 0x1710 DUP5 DUP5 PUSH2 0x1600 JUMP JUMPDEST SWAP5 PUSH2 0x220 SWAP4 SWAP1 SWAP4 ADD CALLDATALOAD SWAP4 POP POP POP JUMP JUMPDEST PUSH1 0x0 PUSH1 0x20 DUP3 DUP5 SUB SLT ISZERO PUSH2 0x1731 JUMPI PUSH1 0x0 DUP1 REVERT JUMPDEST POP CALLDATALOAD SWAP2 SWAP1 POP JUMP JUMPDEST DUP1 MLOAD DUP3 MSTORE PUSH1 0x20 DUP2 ADD MLOAD PUSH1 0x20 DUP4 ADD MSTORE PUSH1 0x40 DUP2 ADD MLOAD PUSH1 0x40 DUP4 ADD MSTORE PUSH1 0x60 DUP2 ADD MLOAD PUSH1 0x60 DUP4 ADD MSTORE PUSH1 0x80 DUP2 ADD MLOAD PUSH1 0x80 DUP4 ADD MSTORE PUSH1 0xA0 DUP2 ADD MLOAD PUSH1 0xA0 DUP4 ADD MSTORE PUSH1 0xC0 DUP2 ADD MLOAD PUSH1 0xC0 DUP4 ADD MSTORE PUSH1 0xE0 DUP2 ADD MLOAD PUSH1 0xE0 DUP4 ADD MSTORE POP POP JUMP JUMPDEST PUSH1 0x20 DUP1 DUP3 MSTORE DUP3 MLOAD DUP3 DUP3 ADD DUP2 SWAP1 MSTORE PUSH1 0x0 SWAP2 SWAP1 PUSH1 0x40 SWAP1 DUP2 DUP6 ADD SWAP1 DUP7 DUP5 ADD DUP6 JUMPDEST DUP3 DUP2 LT ISZERO PUSH2 0x17DF JUMPI DUP2 MLOAD DUP1 MLOAD DUP6 MSTORE DUP7 DUP2 ADD MLOAD ISZERO ISZERO DUP8 DUP7 ADD MSTORE DUP6 ADD MLOAD PUSH2 0x17CA DUP7 DUP7 ADD DUP3 PUSH2 0x1738 JUMP JUMPDEST POP PUSH2 0x140 SWAP4 SWAP1 SWAP4 ADD SWAP3 SWAP1 DUP6 ADD SWAP1 PUSH1 0x1 ADD PUSH2 0x17A3 JUMP JUMPDEST POP SWAP2 SWAP8 SWAP7 POP POP POP POP POP POP POP JUMP JUMPDEST PUSH1 0x0 DUP1 PUSH1 0x0 PUSH2 0x260 DUP5 DUP7 SUB SLT ISZERO PUSH2 0x1802 JUMPI PUSH1 0x0 DUP1 REVERT JUMPDEST PUSH2 0x180C DUP6 DUP6 PUSH2 0x1600 JUMP JUMPDEST SWAP3 POP PUSH2 0x220 DUP5 ADD CALLDATALOAD SWAP2 POP PUSH2 0x1823 PUSH2 0x240 DUP6 ADD PUSH2 0x1586 JUMP JUMPDEST SWAP1 POP SWAP3 POP SWAP3 POP SWAP3 JUMP JUMPDEST PUSH1 0x0 PUSH2 0x220 DUP3 DUP5 SUB SLT ISZERO PUSH2 0x183F JUMPI PUSH1 0x0 DUP1 REVERT JUMPDEST PUSH2 0x1547 DUP4 DUP4 PUSH2 0x1600 JUMP JUMPDEST PUSH1 0x20 DUP1 DUP3 MSTORE PUSH1 0x18 SWAP1 DUP3 ADD MSTORE PUSH32 0x43616E2062652063616C6C6564206F6E6C7920627920474D0000000000000000 PUSH1 0x40 DUP3 ADD MSTORE PUSH1 0x60 ADD SWAP1 JUMP JUMPDEST PUSH1 0x0 PUSH2 0x100 DUP1 DUP4 DUP6 SUB SLT ISZERO PUSH2 0x1894 JUMPI PUSH1 0x0 DUP1 REVERT JUMPDEST PUSH1 0x40 MLOAD SWAP1 DUP2 ADD SWAP1 PUSH8 0xFFFFFFFFFFFFFFFF DUP3 GT DUP2 DUP4 LT OR ISZERO PUSH2 0x18C5 JUMPI PUSH4 0x4E487B71 PUSH1 0xE0 SHL PUSH1 0x0 MSTORE PUSH1 0x41 PUSH1 0x4 MSTORE PUSH1 0x24 PUSH1 0x0 REVERT JUMPDEST DUP2 PUSH1 0x40 MSTORE DUP4 MLOAD DUP2 MSTORE PUSH1 0x20 DUP5 ADD MLOAD PUSH1 0x20 DUP3 ADD MSTORE PUSH1 0x40 DUP5 ADD MLOAD PUSH1 0x40 DUP3 ADD MSTORE PUSH1 0x60 DUP5 ADD MLOAD PUSH1 0x60 DUP3 ADD MSTORE PUSH1 0x80 DUP5 ADD MLOAD PUSH1 0x80 DUP3 ADD MSTORE PUSH1 0xA0 DUP5 ADD MLOAD PUSH1 0xA0 DUP3 ADD MSTORE PUSH1 0xC0 DUP5 ADD MLOAD PUSH1 0xC0 DUP3 ADD MSTORE PUSH1 0xE0 DUP5 ADD MLOAD PUSH1 0xE0 DUP3 ADD MSTORE DUP1 SWAP3 POP POP POP SWAP3 SWAP2 POP POP JUMP JUMPDEST PUSH4 0x4E487B71 PUSH1 0xE0 SHL PUSH1 0x0 MSTORE PUSH1 0x32 PUSH1 0x4 MSTORE PUSH1 0x24 PUSH1 0x0 REVERT JUMPDEST PUSH1 0x0 PUSH2 0x220 DUP3 ADD SWAP1 POP DUP3 MLOAD ISZERO ISZERO DUP3 MSTORE PUSH1 0x1 DUP1 PUSH1 0xA0 SHL SUB PUSH1 0x20 DUP5 ADD MLOAD AND PUSH1 0x20 DUP4 ADD MSTORE PUSH1 0x40 DUP4 ADD MLOAD PUSH1 0x40 DUP4 ADD MSTORE PUSH1 0x60 DUP4 ADD MLOAD PUSH1 0x60 DUP4 ADD MSTORE PUSH1 0x80 DUP4 ADD MLOAD PUSH1 0x80 DUP4 ADD MSTORE PUSH1 0xA0 DUP4 ADD MLOAD PUSH1 0xA0 DUP4 ADD MSTORE PUSH1 0xC0 DUP4 ADD MLOAD PUSH2 0x198F PUSH1 0xC0 DUP5 ADD DUP3 PUSH2 0x1738 JUMP JUMPDEST POP PUSH1 0xE0 SWAP3 SWAP1 SWAP3 ADD MLOAD DUP1 MLOAD PUSH2 0x1C0 DUP4 ADD MSTORE PUSH1 0x20 DUP2 ADD MLOAD PUSH2 0x1E0 DUP4 ADD MSTORE PUSH1 0x40 ADD MLOAD PUSH2 0x200 SWAP1 SWAP2 ADD MSTORE SWAP1 JUMP JUMPDEST PUSH1 0x0 PUSH1 0x20 DUP3 DUP5 SUB SLT ISZERO PUSH2 0x19CA JUMPI PUSH1 0x0 DUP1 REVERT JUMPDEST POP MLOAD SWAP2 SWAP1 POP JUMP JUMPDEST PUSH1 0x0 DUP3 NOT DUP3 GT ISZERO PUSH2 0x19F2 JUMPI PUSH4 0x4E487B71 PUSH1 0xE0 SHL PUSH1 0x0 MSTORE PUSH1 0x11 PUSH1 0x4 MSTORE PUSH1 0x24 PUSH1 0x0 REVERT JUMPDEST POP ADD SWAP1 JUMP INVALID LOG2 PUSH5 0x6970667358 0x22 SLT KECCAK256 STOP PUSH19 0x132A62BBA3B002EE8D8A3C0FAA3F97DFE0FE00 PUSH19 0xEB3FB5D744734A5BE74A64736F6C6343000809 STOP CALLER "
		},
		"gasEstimates": {
			"creation": {
				"codeDepositCost": "1340200",
				"executionCost": "193076",
				"totalCost": "1533276"
			},
			"external": {
				"CHARACTER_CONTRACT_ADDRESS()": "2360",
				"FIGHT_CONTRACT_ADDRESS()": "2425",
				"GAME_MANAGER_CONTRACT_ADDRESS()": "2448",
				"GAME_MASTER()": "2426",
				"MAX_LEVEL_INDEX()": "2362",
				"RANDOM_CONTRACT_ADDRESS()": "2359",
				"VAULT()": "2426",
				"getEnemies(uint256)": "infinite",
				"getProgress((bool,address,uint256,uint256,uint256,uint256,(uint256,uint256,uint256,uint256,uint256,uint256,uint256,uint256),(uint256,uint256,uint256)))": "infinite",
				"hasAccess((bool,address,uint256,uint256,uint256,uint256,(uint256,uint256,uint256,uint256,uint256,uint256,uint256,uint256),(uint256,uint256,uint256)),uint256)": "infinite",
				"setCharacterContractAddress(address)": "26734",
				"setFightContractAddress(address)": "26735",
				"setGMContractAddress(address)": "26779",
				"setGameMasterAddress(address)": "26777",
				"setRandomContractAddress(address)": "26755",
				"setVaultAddress(address)": "26756",
				"update((bool,address,uint256,uint256,uint256,uint256,(uint256,uint256,uint256,uint256,uint256,uint256,uint256,uint256),(uint256,uint256,uint256)),uint256,bool)": "infinite",
				"withdraw()": "infinite"
			},
			"internal": {
				"_getProgress(struct Character memory)": "infinite"
			}
		},
		"methodIdentifiers": {
			"CHARACTER_CONTRACT_ADDRESS()": "320b00d8",
			"FIGHT_CONTRACT_ADDRESS()": "e1d38814",
			"GAME_MANAGER_CONTRACT_ADDRESS()": "603eefa5",
			"GAME_MASTER()": "99597b70",
			"MAX_LEVEL_INDEX()": "859329a2",
			"RANDOM_CONTRACT_ADDRESS()": "d3dd4f29",
			"VAULT()": "411557d1",
			"getEnemies(uint256)": "2f2ddf54",
			"getProgress((bool,address,uint256,uint256,uint256,uint256,(uint256,uint256,uint256,uint256,uint256,uint256,uint256,uint256),(uint256,uint256,uint256)))": "fae2c19b",
			"hasAccess((bool,address,uint256,uint256,uint256,uint256,(uint256,uint256,uint256,uint256,uint256,uint256,uint256,uint256),(uint256,uint256,uint256)),uint256)": "14e8cd99",
			"setCharacterContractAddress(address)": "83499df6",
			"setFightContractAddress(address)": "00a8b188",
			"setGMContractAddress(address)": "1b915579",
			"setGameMasterAddress(address)": "d8327b2f",
			"setRandomContractAddress(address)": "d7050b05",
			"setVaultAddress(address)": "85535cc5",
			"update((bool,address,uint256,uint256,uint256,uint256,(uint256,uint256,uint256,uint256,uint256,uint256,uint256,uint256),(uint256,uint256,uint256)),uint256,bool)": "3ee52721",
			"withdraw()": "3ccfd60b"
		}
	},
	"abi": [
		{
			"inputs": [],
			"stateMutability": "nonpayable",
			"type": "constructor"
		},
		{
			"inputs": [],
			"name": "CHARACTER_CONTRACT_ADDRESS",
			"outputs": [
				{
					"internalType": "address",
					"name": "",
					"type": "address"
				}
			],
			"stateMutability": "view",
			"type": "function"
		},
		{
			"inputs": [],
			"name": "FIGHT_CONTRACT_ADDRESS",
			"outputs": [
				{
					"internalType": "address",
					"name": "",
					"type": "address"
				}
			],
			"stateMutability": "view",
			"type": "function"
		},
		{
			"inputs": [],
			"name": "GAME_MANAGER_CONTRACT_ADDRESS",
			"outputs": [
				{
					"internalType": "address",
					"name": "",
					"type": "address"
				}
			],
			"stateMutability": "view",
			"type": "function"
		},
		{
			"inputs": [],
			"name": "GAME_MASTER",
			"outputs": [
				{
					"internalType": "address",
					"name": "",
					"type": "address"
				}
			],
			"stateMutability": "view",
			"type": "function"
		},
		{
			"inputs": [],
			"name": "MAX_LEVEL_INDEX",
			"outputs": [
				{
					"internalType": "uint256",
					"name": "",
					"type": "uint256"
				}
			],
			"stateMutability": "view",
			"type": "function"
		},
		{
			"inputs": [],
			"name": "RANDOM_CONTRACT_ADDRESS",
			"outputs": [
				{
					"internalType": "address",
					"name": "",
					"type": "address"
				}
			],
			"stateMutability": "view",
			"type": "function"
		},
		{
			"inputs": [],
			"name": "VAULT",
			"outputs": [
				{
					"internalType": "address",
					"name": "",
					"type": "address"
				}
			],
			"stateMutability": "view",
			"type": "function"
		},
		{
			"inputs": [
				{
					"internalType": "uint256",
					"name": "levelIndex",
					"type": "uint256"
				}
			],
			"name": "getEnemies",
			"outputs": [
				{
					"components": [
						{
							"internalType": "uint256",
							"name": "id",
							"type": "uint256"
						},
						{
							"internalType": "bool",
							"name": "present",
							"type": "bool"
						},
						{
							"components": [
								{
									"internalType": "uint256",
									"name": "strength",
									"type": "uint256"
								},
								{
									"internalType": "uint256",
									"name": "dexterity",
									"type": "uint256"
								},
								{
									"internalType": "uint256",
									"name": "constitution",
									"type": "uint256"
								},
								{
									"internalType": "uint256",
									"name": "luck",
									"type": "uint256"
								},
								{
									"internalType": "uint256",
									"name": "armor",
									"type": "uint256"
								},
								{
									"internalType": "uint256",
									"name": "attack",
									"type": "uint256"
								},
								{
									"internalType": "uint256",
									"name": "health",
									"type": "uint256"
								},
								{
									"internalType": "uint256",
									"name": "takenDamage",
									"type": "uint256"
								}
							],
							"internalType": "struct ComputedStats.Stats",
							"name": "stats",
							"type": "tuple"
						}
					],
					"internalType": "struct Enemy[]",
					"name": "enemies",
					"type": "tuple[]"
				}
			],
			"stateMutability": "view",
			"type": "function"
		},
		{
			"inputs": [
				{
					"components": [
						{
							"internalType": "bool",
							"name": "exists",
							"type": "bool"
						},
						{
							"internalType": "address",
							"name": "contractAddress",
							"type": "address"
						},
						{
							"internalType": "uint256",
							"name": "tokenId",
							"type": "uint256"
						},
						{
							"internalType": "uint256",
							"name": "level",
							"type": "uint256"
						},
						{
							"internalType": "uint256",
							"name": "exp",
							"type": "uint256"
						},
						{
							"internalType": "uint256",
							"name": "upgrades",
							"type": "uint256"
						},
						{
							"components": [
								{
									"internalType": "uint256",
									"name": "strength",
									"type": "uint256"
								},
								{
									"internalType": "uint256",
									"name": "dexterity",
									"type": "uint256"
								},
								{
									"internalType": "uint256",
									"name": "constitution",
									"type": "uint256"
								},
								{
									"internalType": "uint256",
									"name": "luck",
									"type": "uint256"
								},
								{
									"internalType": "uint256",
									"name": "armor",
									"type": "uint256"
								},
								{
									"internalType": "uint256",
									"name": "attack",
									"type": "uint256"
								},
								{
									"internalType": "uint256",
									"name": "health",
									"type": "uint256"
								},
								{
									"internalType": "uint256",
									"name": "takenDamage",
									"type": "uint256"
								}
							],
							"internalType": "struct ComputedStats.Stats",
							"name": "stats",
							"type": "tuple"
						},
						{
							"components": [
								{
									"internalType": "uint256",
									"name": "armorSetId",
									"type": "uint256"
								},
								{
									"internalType": "uint256",
									"name": "weaponSetId",
									"type": "uint256"
								},
								{
									"internalType": "uint256",
									"name": "shieldId",
									"type": "uint256"
								}
							],
							"internalType": "struct Equipment",
							"name": "equipment",
							"type": "tuple"
						}
					],
					"internalType": "struct Character",
					"name": "character",
					"type": "tuple"
				}
			],
			"name": "getProgress",
			"outputs": [
				{
					"internalType": "uint256",
					"name": "",
					"type": "uint256"
				}
			],
			"stateMutability": "view",
			"type": "function"
		},
		{
			"inputs": [
				{
					"components": [
						{
							"internalType": "bool",
							"name": "exists",
							"type": "bool"
						},
						{
							"internalType": "address",
							"name": "contractAddress",
							"type": "address"
						},
						{
							"internalType": "uint256",
							"name": "tokenId",
							"type": "uint256"
						},
						{
							"internalType": "uint256",
							"name": "level",
							"type": "uint256"
						},
						{
							"internalType": "uint256",
							"name": "exp",
							"type": "uint256"
						},
						{
							"internalType": "uint256",
							"name": "upgrades",
							"type": "uint256"
						},
						{
							"components": [
								{
									"internalType": "uint256",
									"name": "strength",
									"type": "uint256"
								},
								{
									"internalType": "uint256",
									"name": "dexterity",
									"type": "uint256"
								},
								{
									"internalType": "uint256",
									"name": "constitution",
									"type": "uint256"
								},
								{
									"internalType": "uint256",
									"name": "luck",
									"type": "uint256"
								},
								{
									"internalType": "uint256",
									"name": "armor",
									"type": "uint256"
								},
								{
									"internalType": "uint256",
									"name": "attack",
									"type": "uint256"
								},
								{
									"internalType": "uint256",
									"name": "health",
									"type": "uint256"
								},
								{
									"internalType": "uint256",
									"name": "takenDamage",
									"type": "uint256"
								}
							],
							"internalType": "struct ComputedStats.Stats",
							"name": "stats",
							"type": "tuple"
						},
						{
							"components": [
								{
									"internalType": "uint256",
									"name": "armorSetId",
									"type": "uint256"
								},
								{
									"internalType": "uint256",
									"name": "weaponSetId",
									"type": "uint256"
								},
								{
									"internalType": "uint256",
									"name": "shieldId",
									"type": "uint256"
								}
							],
							"internalType": "struct Equipment",
							"name": "equipment",
							"type": "tuple"
						}
					],
					"internalType": "struct Character",
					"name": "character",
					"type": "tuple"
				},
				{
					"internalType": "uint256",
					"name": "index",
					"type": "uint256"
				}
			],
			"name": "hasAccess",
			"outputs": [
				{
					"internalType": "bool",
					"name": "",
					"type": "bool"
				}
			],
			"stateMutability": "view",
			"type": "function"
		},
		{
			"inputs": [
				{
					"internalType": "address",
					"name": "_address",
					"type": "address"
				}
			],
			"name": "setCharacterContractAddress",
			"outputs": [],
			"stateMutability": "nonpayable",
			"type": "function"
		},
		{
			"inputs": [
				{
					"internalType": "address",
					"name": "_address",
					"type": "address"
				}
			],
			"name": "setFightContractAddress",
			"outputs": [],
			"stateMutability": "nonpayable",
			"type": "function"
		},
		{
			"inputs": [
				{
					"internalType": "address",
					"name": "_address",
					"type": "address"
				}
			],
			"name": "setGMContractAddress",
			"outputs": [],
			"stateMutability": "nonpayable",
			"type": "function"
		},
		{
			"inputs": [
				{
					"internalType": "address",
					"name": "newGM",
					"type": "address"
				}
			],
			"name": "setGameMasterAddress",
			"outputs": [],
			"stateMutability": "nonpayable",
			"type": "function"
		},
		{
			"inputs": [
				{
					"internalType": "address",
					"name": "newAddress",
					"type": "address"
				}
			],
			"name": "setRandomContractAddress",
			"outputs": [],
			"stateMutability": "nonpayable",
			"type": "function"
		},
		{
			"inputs": [
				{
					"internalType": "address",
					"name": "_address",
					"type": "address"
				}
			],
			"name": "setVaultAddress",
			"outputs": [],
			"stateMutability": "nonpayable",
			"type": "function"
		},
		{
			"inputs": [
				{
					"components": [
						{
							"internalType": "bool",
							"name": "exists",
							"type": "bool"
						},
						{
							"internalType": "address",
							"name": "contractAddress",
							"type": "address"
						},
						{
							"internalType": "uint256",
							"name": "tokenId",
							"type": "uint256"
						},
						{
							"internalType": "uint256",
							"name": "level",
							"type": "uint256"
						},
						{
							"internalType": "uint256",
							"name": "exp",
							"type": "uint256"
						},
						{
							"internalType": "uint256",
							"name": "upgrades",
							"type": "uint256"
						},
						{
							"components": [
								{
									"internalType": "uint256",
									"name": "strength",
									"type": "uint256"
								},
								{
									"internalType": "uint256",
									"name": "dexterity",
									"type": "uint256"
								},
								{
									"internalType": "uint256",
									"name": "constitution",
									"type": "uint256"
								},
								{
									"internalType": "uint256",
									"name": "luck",
									"type": "uint256"
								},
								{
									"internalType": "uint256",
									"name": "armor",
									"type": "uint256"
								},
								{
									"internalType": "uint256",
									"name": "attack",
									"type": "uint256"
								},
								{
									"internalType": "uint256",
									"name": "health",
									"type": "uint256"
								},
								{
									"internalType": "uint256",
									"name": "takenDamage",
									"type": "uint256"
								}
							],
							"internalType": "struct ComputedStats.Stats",
							"name": "stats",
							"type": "tuple"
						},
						{
							"components": [
								{
									"internalType": "uint256",
									"name": "armorSetId",
									"type": "uint256"
								},
								{
									"internalType": "uint256",
									"name": "weaponSetId",
									"type": "uint256"
								},
								{
									"internalType": "uint256",
									"name": "shieldId",
									"type": "uint256"
								}
							],
							"internalType": "struct Equipment",
							"name": "equipment",
							"type": "tuple"
						}
					],
					"internalType": "struct Character",
					"name": "character",
					"type": "tuple"
				},
				{
					"internalType": "uint256",
					"name": "index",
					"type": "uint256"
				},
				{
					"internalType": "bool",
					"name": "victory",
					"type": "bool"
				}
			],
			"name": "update",
			"outputs": [],
			"stateMutability": "nonpayable",
			"type": "function"
		},
		{
			"inputs": [],
			"name": "withdraw",
			"outputs": [],
			"stateMutability": "nonpayable",
			"type": "function"
		}
	]
}