{
	"data": {
		"bytecode": {
			"linkReferences": {},
			"object": "608060405234801561001057600080fd5b506102cc806100206000396000f3fe608060405234801561001057600080fd5b50600436106100415760003560e01c8063552dc7f0146100465780636901f66814610076578063d590f8c914610094575b600080fd5b610060600480360381019061005b91906101a1565b6100c4565b60405161006d9190610245565b60405180910390f35b61007e6100e4565b60405161008b919061027b565b60405180910390f35b6100ae60048036038101906100a991906101a1565b6100e9565b6040516100bb9190610245565b60405180910390f35b60006020528060005260406000206000915054906101000a900460ff1681565b600090565b60008060008373ffffffffffffffffffffffffffffffffffffffff1673ffffffffffffffffffffffffffffffffffffffff16815260200190815260200160002060009054906101000a900460ff169050919050565b600080fd5b600073ffffffffffffffffffffffffffffffffffffffff82169050919050565b600061016e82610143565b9050919050565b61017e81610163565b811461018957600080fd5b50565b60008135905061019b81610175565b92915050565b6000602082840312156101b7576101b661013e565b5b60006101c58482850161018c565b91505092915050565b7f4e487b7100000000000000000000000000000000000000000000000000000000600052602160045260246000fd5b6003811061020e5761020d6101ce565b5b50565b600081905061021f826101fd565b919050565b600061022f82610211565b9050919050565b61023f81610224565b82525050565b600060208201905061025a6000830184610236565b92915050565b60008115159050919050565b61027581610260565b82525050565b6000602082019050610290600083018461026c565b9291505056fea26469706673582212208c91314aba9b466dd8aa545a01805a251c6b2988249553918b776af36ab9a75a64736f6c634300080a0033",
			"opcodes": "PUSH1 0x80 PUSH1 0x40 MSTORE CALLVALUE DUP1 ISZERO PUSH2 0x10 JUMPI PUSH1 0x0 DUP1 REVERT JUMPDEST POP PUSH2 0x2CC DUP1 PUSH2 0x20 PUSH1 0x0 CODECOPY PUSH1 0x0 RETURN INVALID PUSH1 0x80 PUSH1 0x40 MSTORE CALLVALUE DUP1 ISZERO PUSH2 0x10 JUMPI PUSH1 0x0 DUP1 REVERT JUMPDEST POP PUSH1 0x4 CALLDATASIZE LT PUSH2 0x41 JUMPI PUSH1 0x0 CALLDATALOAD PUSH1 0xE0 SHR DUP1 PUSH4 0x552DC7F0 EQ PUSH2 0x46 JUMPI DUP1 PUSH4 0x6901F668 EQ PUSH2 0x76 JUMPI DUP1 PUSH4 0xD590F8C9 EQ PUSH2 0x94 JUMPI JUMPDEST PUSH1 0x0 DUP1 REVERT JUMPDEST PUSH2 0x60 PUSH1 0x4 DUP1 CALLDATASIZE SUB DUP2 ADD SWAP1 PUSH2 0x5B SWAP2 SWAP1 PUSH2 0x1A1 JUMP JUMPDEST PUSH2 0xC4 JUMP JUMPDEST PUSH1 0x40 MLOAD PUSH2 0x6D SWAP2 SWAP1 PUSH2 0x245 JUMP JUMPDEST PUSH1 0x40 MLOAD DUP1 SWAP2 SUB SWAP1 RETURN JUMPDEST PUSH2 0x7E PUSH2 0xE4 JUMP JUMPDEST PUSH1 0x40 MLOAD PUSH2 0x8B SWAP2 SWAP1 PUSH2 0x27B JUMP JUMPDEST PUSH1 0x40 MLOAD DUP1 SWAP2 SUB SWAP1 RETURN JUMPDEST PUSH2 0xAE PUSH1 0x4 DUP1 CALLDATASIZE SUB DUP2 ADD SWAP1 PUSH2 0xA9 SWAP2 SWAP1 PUSH2 0x1A1 JUMP JUMPDEST PUSH2 0xE9 JUMP JUMPDEST PUSH1 0x40 MLOAD PUSH2 0xBB SWAP2 SWAP1 PUSH2 0x245 JUMP JUMPDEST PUSH1 0x40 MLOAD DUP1 SWAP2 SUB SWAP1 RETURN JUMPDEST PUSH1 0x0 PUSH1 0x20 MSTORE DUP1 PUSH1 0x0 MSTORE PUSH1 0x40 PUSH1 0x0 KECCAK256 PUSH1 0x0 SWAP2 POP SLOAD SWAP1 PUSH2 0x100 EXP SWAP1 DIV PUSH1 0xFF AND DUP2 JUMP JUMPDEST PUSH1 0x0 SWAP1 JUMP JUMPDEST PUSH1 0x0 DUP1 PUSH1 0x0 DUP4 PUSH20 0xFFFFFFFFFFFFFFFFFFFFFFFFFFFFFFFFFFFFFFFF AND PUSH20 0xFFFFFFFFFFFFFFFFFFFFFFFFFFFFFFFFFFFFFFFF AND DUP2 MSTORE PUSH1 0x20 ADD SWAP1 DUP2 MSTORE PUSH1 0x20 ADD PUSH1 0x0 KECCAK256 PUSH1 0x0 SWAP1 SLOAD SWAP1 PUSH2 0x100 EXP SWAP1 DIV PUSH1 0xFF AND SWAP1 POP SWAP2 SWAP1 POP JUMP JUMPDEST PUSH1 0x0 DUP1 REVERT JUMPDEST PUSH1 0x0 PUSH20 0xFFFFFFFFFFFFFFFFFFFFFFFFFFFFFFFFFFFFFFFF DUP3 AND SWAP1 POP SWAP2 SWAP1 POP JUMP JUMPDEST PUSH1 0x0 PUSH2 0x16E DUP3 PUSH2 0x143 JUMP JUMPDEST SWAP1 POP SWAP2 SWAP1 POP JUMP JUMPDEST PUSH2 0x17E DUP2 PUSH2 0x163 JUMP JUMPDEST DUP2 EQ PUSH2 0x189 JUMPI PUSH1 0x0 DUP1 REVERT JUMPDEST POP JUMP JUMPDEST PUSH1 0x0 DUP2 CALLDATALOAD SWAP1 POP PUSH2 0x19B DUP2 PUSH2 0x175 JUMP JUMPDEST SWAP3 SWAP2 POP POP JUMP JUMPDEST PUSH1 0x0 PUSH1 0x20 DUP3 DUP5 SUB SLT ISZERO PUSH2 0x1B7 JUMPI PUSH2 0x1B6 PUSH2 0x13E JUMP JUMPDEST JUMPDEST PUSH1 0x0 PUSH2 0x1C5 DUP5 DUP3 DUP6 ADD PUSH2 0x18C JUMP JUMPDEST SWAP2 POP POP SWAP3 SWAP2 POP POP JUMP JUMPDEST PUSH32 0x4E487B7100000000000000000000000000000000000000000000000000000000 PUSH1 0x0 MSTORE PUSH1 0x21 PUSH1 0x4 MSTORE PUSH1 0x24 PUSH1 0x0 REVERT JUMPDEST PUSH1 0x3 DUP2 LT PUSH2 0x20E JUMPI PUSH2 0x20D PUSH2 0x1CE JUMP JUMPDEST JUMPDEST POP JUMP JUMPDEST PUSH1 0x0 DUP2 SWAP1 POP PUSH2 0x21F DUP3 PUSH2 0x1FD JUMP JUMPDEST SWAP2 SWAP1 POP JUMP JUMPDEST PUSH1 0x0 PUSH2 0x22F DUP3 PUSH2 0x211 JUMP JUMPDEST SWAP1 POP SWAP2 SWAP1 POP JUMP JUMPDEST PUSH2 0x23F DUP2 PUSH2 0x224 JUMP JUMPDEST DUP3 MSTORE POP POP JUMP JUMPDEST PUSH1 0x0 PUSH1 0x20 DUP3 ADD SWAP1 POP PUSH2 0x25A PUSH1 0x0 DUP4 ADD DUP5 PUSH2 0x236 JUMP JUMPDEST SWAP3 SWAP2 POP POP JUMP JUMPDEST PUSH1 0x0 DUP2 ISZERO ISZERO SWAP1 POP SWAP2 SWAP1 POP JUMP JUMPDEST PUSH2 0x275 DUP2 PUSH2 0x260 JUMP JUMPDEST DUP3 MSTORE POP POP JUMP JUMPDEST PUSH1 0x0 PUSH1 0x20 DUP3 ADD SWAP1 POP PUSH2 0x290 PUSH1 0x0 DUP4 ADD DUP5 PUSH2 0x26C JUMP JUMPDEST SWAP3 SWAP2 POP POP JUMP INVALID LOG2 PUSH5 0x6970667358 0x22 SLT KECCAK256 DUP13 SWAP2 BALANCE 0x4A 0xBA SWAP12 CHAINID PUSH14 0xD8AA545A01805A251C6B29882495 MSTORE8 SWAP2 DUP12 PUSH24 0x6AF36AB9A75A64736F6C634300080A003300000000000000 "
		},
		"gasEstimates": {
			"creation": {
				"codeDepositCost": "143200",
				"executionCost": "190",
				"totalCost": "143390"
			},
			"external": {
				"ContractRoles(address)": "2912",
				"role(address)": "2994",
				"validate()": "335"
			}
		},
		"methodIdentifiers": {
			"ContractRoles(address)": "552dc7f0",
			"role(address)": "d590f8c9",
			"validate()": "6901f668"
		}
	},
	"abi": [
		{
			"inputs": [],
			"stateMutability": "nonpayable",
			"type": "constructor"
		},
		{
			"inputs": [
				{
					"internalType": "address",
					"name": "",
					"type": "address"
				}
			],
			"name": "ContractRoles",
			"outputs": [
				{
					"internalType": "enum AuthRoles",
					"name": "",
					"type": "uint8"
				}
			],
			"stateMutability": "view",
			"type": "function"
		},
		{
			"inputs": [
				{
					"internalType": "address",
					"name": "_address",
					"type": "address"
				}
			],
			"name": "role",
			"outputs": [
				{
					"internalType": "enum AuthRoles",
					"name": "_role",
					"type": "uint8"
				}
			],
			"stateMutability": "view",
			"type": "function"
		},
		{
			"inputs": [],
			"name": "validate",
			"outputs": [
				{
					"internalType": "bool",
					"name": "result",
					"type": "bool"
				}
			],
			"stateMutability": "view",
			"type": "function"
		}
	]
}