{
	"data": {
		"bytecode": {
			"linkReferences": {
				"contracts/libraries/ComputedStats.sol": {
					"ComputedStats": [
						{
							"length": 20,
							"start": 11146
						}
					]
				}
			},
			"object": "608060405260008060006101000a81548173ffffffffffffffffffffffffffffffffffffffff021916908373ffffffffffffffffffffffffffffffffffffffff1602179055506000600160006101000a81548173ffffffffffffffffffffffffffffffffffffffff021916908373ffffffffffffffffffffffffffffffffffffffff1602179055506000600260006101000a81548173ffffffffffffffffffffffffffffffffffffffff021916908373ffffffffffffffffffffffffffffffffffffffff1602179055506000600360006101000a81548173ffffffffffffffffffffffffffffffffffffffff021916908373ffffffffffffffffffffffffffffffffffffffff1602179055506000600460006101000a81548173ffffffffffffffffffffffffffffffffffffffff021916908373ffffffffffffffffffffffffffffffffffffffff1602179055506000600760006101000a81548173ffffffffffffffffffffffffffffffffffffffff021916908373ffffffffffffffffffffffffffffffffffffffff160217905550604051806112e00160405280600660ff168152602001600960ff168152602001600960ff168152602001600c60ff168152602001600c60ff168152602001600f60ff168152602001600f60ff168152602001601260ff168152602001601260ff168152602001601260ff168152602001601560ff168152602001601560ff168152602001601560ff168152602001601560ff168152602001601860ff168152602001601860ff168152602001601860ff168152602001601860ff168152602001601b60ff168152602001601b60ff168152602001601b60ff168152602001601b60ff168152602001601e60ff168152602001601e60ff168152602001601e60ff168152602001601e60ff168152602001601e60ff168152602001602160ff168152602001602160ff168152602001602160ff168152602001602160ff168152602001602160ff168152602001602160ff168152602001602460ff168152602001602460ff168152602001602460ff168152602001602460ff168152602001602460ff168152602001602460ff168152602001602760ff168152602001602760ff168152602001602760ff168152602001602760ff168152602001602760ff168152602001602760ff168152602001602a60ff168152602001602a60ff168152602001602a60ff168152602001602a60ff168152602001602a60ff168152602001602a60ff168152602001602a60ff168152602001602d60ff168152602001602d60ff168152602001602d60ff168152602001602d60ff168152602001602d60ff168152602001602d60ff168152602001602d60ff168152602001602d60ff168152602001603060ff168152602001603060ff168152602001603060ff168152602001603060ff168152602001603060ff168152602001603060ff168152602001603060ff168152602001603060ff168152602001603360ff168152602001603360ff168152602001603360ff168152602001603360ff168152602001603360ff168152602001603360ff168152602001603360ff168152602001603360ff168152602001603660ff168152602001603660ff168152602001603660ff168152602001603660ff168152602001603660ff168152602001603660ff168152602001603660ff168152602001603660ff168152602001603660ff168152602001603960ff168152602001603960ff168152602001603960ff168152602001603960ff168152602001603960ff168152602001603960ff168152602001603960ff168152602001603960ff168152602001603960ff168152602001603960ff168152602001603c60ff168152602001603c60ff168152602001603c60ff168152602001603c60ff168152602001603c60ff168152602001603c60ff168152602001603c60ff168152602001603c60ff168152602001603c60ff168152602001603c60ff168152602001603f60ff168152602001603f60ff168152602001603f60ff168152602001603f60ff168152602001603f60ff168152602001603f60ff168152602001603f60ff168152602001603f60ff168152602001603f60ff168152602001603f60ff168152602001604260ff168152602001604260ff168152602001604260ff168152602001604260ff168152602001604260ff168152602001604260ff168152602001604260ff168152602001604260ff168152602001604260ff168152602001604260ff168152602001604260ff168152602001604560ff168152602001604560ff168152602001604560ff168152602001604560ff168152602001604560ff168152602001604560ff168152602001604560ff168152602001604560ff168152602001604560ff168152602001604560ff168152602001604560ff168152602001604560ff168152602001604860ff168152602001604860ff168152602001604860ff168152602001604860ff168152602001604860ff168152602001604860ff168152602001604860ff168152602001604860ff168152602001604860ff168152602001604860ff168152602001604860ff168152602001604860ff168152602001605060ff1681525060099060976200079192919062000868565b503480156200079f57600080fd5b50336000806101000a81548173ffffffffffffffffffffffffffffffffffffffff021916908373ffffffffffffffffffffffffffffffffffffffff16021790555033600760006101000a81548173ffffffffffffffffffffffffffffffffffffffff021916908373ffffffffffffffffffffffffffffffffffffffff16021790555030600260006101000a81548173ffffffffffffffffffffffffffffffffffffffff021916908373ffffffffffffffffffffffffffffffffffffffff160217905550620008de565b828054828255906000526020600020908101928215620008ac579160200282015b82811115620008ab578251829060ff1690559160200191906001019062000889565b5b509050620008bb9190620008bf565b5090565b5b80821115620008da576000816000905550600101620008c0565b5090565b61328880620008ee6000396000f3fe608060405234801561001057600080fd5b50600436106101415760003560e01c806383499df6116100b8578063d3dd4f291161007c578063d3dd4f2914610326578063d7050b0514610344578063d8327b2f14610360578063e1d388141461037c578063e4cb30ad1461039a578063ff780137146103ca57610141565b806383499df61461028257806385535cc51461029e57806399597b70146102ba578063a8d6df6c146102d8578063c85045f71461030857610141565b80633f5f44801161010a5780633f5f4480146101c2578063411557d1146101de5780635c79d49d146101fc578063603eefa51461022c5780636efc00ee1461024a57806374fb44041461026657610141565b8062a8b188146101465780631b91557914610162578063320b00d81461017e5780633ccfd60b1461019c5780633e9f5237146101a6575b600080fd5b610160600480360381019061015b919061249e565b6103e6565b005b61017c6004803603810190610177919061249e565b6104b8565b005b61018661058a565b60405161019391906124da565b60405180910390f35b6101a46105b0565b005b6101c060048036038101906101bb9190612802565b6106a9565b005b6101dc60048036038101906101d79190612869565b610996565b005b6101e6610db9565b6040516101f391906124da565b60405180910390f35b6102166004803603810190610211919061249e565b610ddf565b60405161022391906128df565b60405180910390f35b610234610dff565b60405161024191906124da565b60405180910390f35b610264600480360381019061025f919061249e565b610e25565b005b610280600480360381019061027b91906128fa565b610ef7565b005b61029c6004803603810190610297919061249e565b6110ed565b005b6102b860048036038101906102b3919061249e565b6111bf565b005b6102c2611291565b6040516102cf91906124da565b60405180910390f35b6102f260048036038101906102ed9190612928565b6112b5565b6040516102ff9190612964565b60405180910390f35b610310611397565b60405161031d91906124da565b60405180910390f35b61032e6113bd565b60405161033b91906124da565b60405180910390f35b61035e6004803603810190610359919061249e565b6113e3565b005b61037a6004803603810190610375919061249e565b6114b5565b005b610384611586565b60405161039191906124da565b60405180910390f35b6103b460048036038101906103af919061297f565b6115ac565b6040516103c19190612b87565b60405180910390f35b6103e460048036038101906103df9190612ba3565b6115c6565b005b60008054906101000a900473ffffffffffffffffffffffffffffffffffffffff1673ffffffffffffffffffffffffffffffffffffffff163373ffffffffffffffffffffffffffffffffffffffff1614610474576040517f08c379a000000000000000000000000000000000000000000000000000000000815260040161046b90612c53565b60405180910390fd5b80600360006101000a81548173ffffffffffffffffffffffffffffffffffffffff021916908373ffffffffffffffffffffffffffffffffffffffff16021790555050565b60008054906101000a900473ffffffffffffffffffffffffffffffffffffffff1673ffffffffffffffffffffffffffffffffffffffff163373ffffffffffffffffffffffffffffffffffffffff1614610546576040517f08c379a000000000000000000000000000000000000000000000000000000000815260040161053d90612c53565b60405180910390fd5b80600160006101000a81548173ffffffffffffffffffffffffffffffffffffffff021916908373ffffffffffffffffffffffffffffffffffffffff16021790555050565b600260009054906101000a900473ffffffffffffffffffffffffffffffffffffffff1681565b60008054906101000a900473ffffffffffffffffffffffffffffffffffffffff1673ffffffffffffffffffffffffffffffffffffffff163373ffffffffffffffffffffffffffffffffffffffff161461063e576040517f08c379a000000000000000000000000000000000000000000000000000000000815260040161063590612c53565b60405180910390fd5b600760009054906101000a900473ffffffffffffffffffffffffffffffffffffffff1673ffffffffffffffffffffffffffffffffffffffff166108fc479081150290604051600060405180830381858888f193505050501580156106a6573d6000803e3d6000fd5b50565b60008054906101000a900473ffffffffffffffffffffffffffffffffffffffff1673ffffffffffffffffffffffffffffffffffffffff163373ffffffffffffffffffffffffffffffffffffffff1614806107505750600160009054906101000a900473ffffffffffffffffffffffffffffffffffffffff1673ffffffffffffffffffffffffffffffffffffffff163373ffffffffffffffffffffffffffffffffffffffff16145b806107a85750600260009054906101000a900473ffffffffffffffffffffffffffffffffffffffff1673ffffffffffffffffffffffffffffffffffffffff163373ffffffffffffffffffffffffffffffffffffffff16145b806108005750600360009054906101000a900473ffffffffffffffffffffffffffffffffffffffff1673ffffffffffffffffffffffffffffffffffffffff163373ffffffffffffffffffffffffffffffffffffffff16145b806108545750600560003373ffffffffffffffffffffffffffffffffffffffff1673ffffffffffffffffffffffffffffffffffffffff16815260200190815260200160002060009054906101000a900460ff165b610893576040517f08c379a000000000000000000000000000000000000000000000000000000000815260040161088a90612ce5565b60405180910390fd5b60008114156108a157610992565b808260a0018181516108b39190612d34565b915081815250505b6108c882608001516112b5565b8260a0015110610988576108df82608001516112b5565b8260a0018181516108f09190612d8a565b9150818152505060018260800181815161090a9190612d34565b9150818152505060018260c0018181516109249190612d34565b915081815250507f78e2d3f9d54f6b793c45a5d3d60ac4e6061fb0001ef5feb0b67bc38fdddf91c682608001518360a0015161096385608001516112b5565b60018660c0015160405161097b959493929190612e03565b60405180910390a16108bb565b61099182611cb6565b5b5050565b60008054906101000a900473ffffffffffffffffffffffffffffffffffffffff1673ffffffffffffffffffffffffffffffffffffffff163373ffffffffffffffffffffffffffffffffffffffff161480610a3d5750600160009054906101000a900473ffffffffffffffffffffffffffffffffffffffff1673ffffffffffffffffffffffffffffffffffffffff163373ffffffffffffffffffffffffffffffffffffffff16145b80610a955750600260009054906101000a900473ffffffffffffffffffffffffffffffffffffffff1673ffffffffffffffffffffffffffffffffffffffff163373ffffffffffffffffffffffffffffffffffffffff16145b80610aed5750600360009054906101000a900473ffffffffffffffffffffffffffffffffffffffff1673ffffffffffffffffffffffffffffffffffffffff163373ffffffffffffffffffffffffffffffffffffffff16145b80610b415750600560003373ffffffffffffffffffffffffffffffffffffffff1673ffffffffffffffffffffffffffffffffffffffff16815260200190815260200160002060009054906101000a900460ff165b610b80576040517f08c379a0000000000000000000000000000000000000000000000000000000008152600401610b7790612ce5565b60405180910390fd5b6000600860008673ffffffffffffffffffffffffffffffffffffffff1673ffffffffffffffffffffffffffffffffffffffff1681526020019081526020016000206000858152602001908152602001600020604051806101200160405290816000820160009054906101000a900460ff161515151581526020016000820160019054906101000a900473ffffffffffffffffffffffffffffffffffffffff1673ffffffffffffffffffffffffffffffffffffffff1673ffffffffffffffffffffffffffffffffffffffff168152602001600182015481526020016002820160009054906101000a900473ffffffffffffffffffffffffffffffffffffffff1673ffffffffffffffffffffffffffffffffffffffff1673ffffffffffffffffffffffffffffffffffffffff1681526020016003820154815260200160048201548152602001600582015481526020016006820160405180610100016040529081600082015481526020016001820154815260200160028201548152602001600382015481526020016004820154815260200160058201548152602001600682015481526020016007820154815250508152602001600e82016040518060600160405290816000820154815260200160018201548152602001600282015481525050815250509050610d71818484611e70565b7f27aa9482c22097b6e7b888415f9a482138d8d0e132dcbed1c1075b382cc438b38160e001518260c00151604051610daa929190612ef8565b60405180910390a15050505050565b600760009054906101000a900473ffffffffffffffffffffffffffffffffffffffff1681565b60056020528060005260406000206000915054906101000a900460ff1681565b600160009054906101000a900473ffffffffffffffffffffffffffffffffffffffff1681565b60008054906101000a900473ffffffffffffffffffffffffffffffffffffffff1673ffffffffffffffffffffffffffffffffffffffff163373ffffffffffffffffffffffffffffffffffffffff1614610eb3576040517f08c379a0000000000000000000000000000000000000000000000000000000008152600401610eaa90612c53565b60405180910390fd5b80600460006101000a81548173ffffffffffffffffffffffffffffffffffffffff021916908373ffffffffffffffffffffffffffffffffffffffff16021790555050565b60008054906101000a900473ffffffffffffffffffffffffffffffffffffffff1673ffffffffffffffffffffffffffffffffffffffff163373ffffffffffffffffffffffffffffffffffffffff161480610f9e5750600160009054906101000a900473ffffffffffffffffffffffffffffffffffffffff1673ffffffffffffffffffffffffffffffffffffffff163373ffffffffffffffffffffffffffffffffffffffff16145b80610ff65750600260009054906101000a900473ffffffffffffffffffffffffffffffffffffffff1673ffffffffffffffffffffffffffffffffffffffff163373ffffffffffffffffffffffffffffffffffffffff16145b8061104e5750600360009054906101000a900473ffffffffffffffffffffffffffffffffffffffff1673ffffffffffffffffffffffffffffffffffffffff163373ffffffffffffffffffffffffffffffffffffffff16145b806110a25750600560003373ffffffffffffffffffffffffffffffffffffffff1673ffffffffffffffffffffffffffffffffffffffff16815260200190815260200160002060009054906101000a900460ff165b6110e1576040517f08c379a00000000000000000000000000000000000000000000000000000000081526004016110d890612ce5565b60405180910390fd5b6110ea81611cb6565b50565b60008054906101000a900473ffffffffffffffffffffffffffffffffffffffff1673ffffffffffffffffffffffffffffffffffffffff163373ffffffffffffffffffffffffffffffffffffffff161461117b576040517f08c379a000000000000000000000000000000000000000000000000000000000815260040161117290612c53565b60405180910390fd5b80600260006101000a81548173ffffffffffffffffffffffffffffffffffffffff021916908373ffffffffffffffffffffffffffffffffffffffff16021790555050565b60008054906101000a900473ffffffffffffffffffffffffffffffffffffffff1673ffffffffffffffffffffffffffffffffffffffff163373ffffffffffffffffffffffffffffffffffffffff161461124d576040517f08c379a000000000000000000000000000000000000000000000000000000000815260040161124490612c53565b60405180910390fd5b80600760006101000a81548173ffffffffffffffffffffffffffffffffffffffff021916908373ffffffffffffffffffffffffffffffffffffffff16021790555050565b60008054906101000a900473ffffffffffffffffffffffffffffffffffffffff1681565b60008082116112f9576040517f08c379a00000000000000000000000000000000000000000000000000000000081526004016112f090612f95565b60405180910390fd5b6009805490508210156113385760096001836113159190612d8a565b8154811061132657611325612fb5565b5b90600052602060002001549050611392565b600980549050826113499190612d8a565b600a6113559190612fe4565b600960016009805490506113699190612d8a565b8154811061137a57611379612fb5565b5b906000526020600020015461138f9190612d34565b90505b919050565b600460009054906101000a900473ffffffffffffffffffffffffffffffffffffffff1681565b600660009054906101000a900473ffffffffffffffffffffffffffffffffffffffff1681565b60008054906101000a900473ffffffffffffffffffffffffffffffffffffffff1673ffffffffffffffffffffffffffffffffffffffff163373ffffffffffffffffffffffffffffffffffffffff1614611471576040517f08c379a000000000000000000000000000000000000000000000000000000000815260040161146890612c53565b60405180910390fd5b80600660006101000a81548173ffffffffffffffffffffffffffffffffffffffff021916908373ffffffffffffffffffffffffffffffffffffffff16021790555050565b60008054906101000a900473ffffffffffffffffffffffffffffffffffffffff1673ffffffffffffffffffffffffffffffffffffffff163373ffffffffffffffffffffffffffffffffffffffff1614611543576040517f08c379a000000000000000000000000000000000000000000000000000000000815260040161153a90612c53565b60405180910390fd5b806000806101000a81548173ffffffffffffffffffffffffffffffffffffffff021916908373ffffffffffffffffffffffffffffffffffffffff16021790555050565b600360009054906101000a900473ffffffffffffffffffffffffffffffffffffffff1681565b6115b4612345565b6115be8383612018565b905092915050565b60008054906101000a900473ffffffffffffffffffffffffffffffffffffffff1673ffffffffffffffffffffffffffffffffffffffff163373ffffffffffffffffffffffffffffffffffffffff16148061166d5750600160009054906101000a900473ffffffffffffffffffffffffffffffffffffffff1673ffffffffffffffffffffffffffffffffffffffff163373ffffffffffffffffffffffffffffffffffffffff16145b806116c55750600260009054906101000a900473ffffffffffffffffffffffffffffffffffffffff1673ffffffffffffffffffffffffffffffffffffffff163373ffffffffffffffffffffffffffffffffffffffff16145b8061171d5750600360009054906101000a900473ffffffffffffffffffffffffffffffffffffffff1673ffffffffffffffffffffffffffffffffffffffff163373ffffffffffffffffffffffffffffffffffffffff16145b806117715750600560003373ffffffffffffffffffffffffffffffffffffffff1673ffffffffffffffffffffffffffffffffffffffff16815260200190815260200160002060009054906101000a900460ff165b6117b0576040517f08c379a00000000000000000000000000000000000000000000000000000000081526004016117a790612ce5565b60405180910390fd5b3383836000600860008473ffffffffffffffffffffffffffffffffffffffff1673ffffffffffffffffffffffffffffffffffffffff1681526020019081526020016000206000838152602001908152602001600020604051806101200160405290816000820160009054906101000a900460ff161515151581526020016000820160019054906101000a900473ffffffffffffffffffffffffffffffffffffffff1673ffffffffffffffffffffffffffffffffffffffff1673ffffffffffffffffffffffffffffffffffffffff168152602001600182015481526020016002820160009054906101000a900473ffffffffffffffffffffffffffffffffffffffff1673ffffffffffffffffffffffffffffffffffffffff1673ffffffffffffffffffffffffffffffffffffffff1681526020016003820154815260200160048201548152602001600582015481526020016006820160405180610100016040529081600082015481526020016001820154815260200160028201548152602001600382015481526020016004820154815260200160058201548152602001600682015481526020016007820154815250508152602001600e8201604051806060016040529081600082015481526020016001820154815260200160028201548152505081525050905060008160c00151116119e0576040517f08c379a00000000000000000000000000000000000000000000000000000000081526004016119d79061308a565b60405180910390fd5b600060048111156119f4576119f36130aa565b5b856004811115611a0757611a066130aa565b5b10158015611a3a575060026004811115611a2457611a236130aa565b5b856004811115611a3757611a366130aa565b5b11155b611a79576040517f08c379a0000000000000000000000000000000000000000000000000000000008152600401611a7090613125565b60405180910390fd5b6000600860008973ffffffffffffffffffffffffffffffffffffffff1673ffffffffffffffffffffffffffffffffffffffff1681526020019081526020016000206000888152602001908152602001600020604051806101200160405290816000820160009054906101000a900460ff161515151581526020016000820160019054906101000a900473ffffffffffffffffffffffffffffffffffffffff1673ffffffffffffffffffffffffffffffffffffffff1673ffffffffffffffffffffffffffffffffffffffff168152602001600182015481526020016002820160009054906101000a900473ffffffffffffffffffffffffffffffffffffffff1673ffffffffffffffffffffffffffffffffffffffff1673ffffffffffffffffffffffffffffffffffffffff1681526020016003820154815260200160048201548152602001600582015481526020016006820160405180610100016040529081600082015481526020016001820154815260200160028201548152602001600382015481526020016004820154815260200160058201548152602001600682015481526020016007820154815250508152602001600e82016040518060600160405290816000820154815260200160018201548152602001600282015481525050815250509050611c6b81876001611e70565b7f27aa9482c22097b6e7b888415f9a482138d8d0e132dcbed1c1075b382cc438b38160e001518260c00151604051611ca4929190612ef8565b60405180910390a15050505050505050565b8060086000836020015173ffffffffffffffffffffffffffffffffffffffff1673ffffffffffffffffffffffffffffffffffffffff16815260200190815260200160002060008360400151815260200190815260200160002060008201518160000160006101000a81548160ff02191690831515021790555060208201518160000160016101000a81548173ffffffffffffffffffffffffffffffffffffffff021916908373ffffffffffffffffffffffffffffffffffffffff1602179055506040820151816001015560608201518160020160006101000a81548173ffffffffffffffffffffffffffffffffffffffff021916908373ffffffffffffffffffffffffffffffffffffffff1602179055506080820151816003015560a0820151816004015560c0820151816005015560e082015181600601600082015181600001556020820151816001015560408201518160020155606082015181600301556080820151816004015560a0820151816005015560c0820151816006015560e08201518160070155505061010082015181600e01600082015181600001556020820151816001015560408201518160020155505090505050565b808360c001818151611e829190612d8a565b9150818152505060006004811115611e9d57611e9c6130aa565b5b826004811115611eb057611eaf6130aa565b5b1415611ed857808360e00151600001818151611ecc9190612d34565b91508181525050612013565b60016004811115611eec57611eeb6130aa565b5b826004811115611eff57611efe6130aa565b5b1415611f2757808360e00151602001818151611f1b9190612d34565b91508181525050612012565b60026004811115611f3b57611f3a6130aa565b5b826004811115611f4e57611f4d6130aa565b5b1415611f7657808360e00151602001818151611f6a9190612d34565b91508181525050612011565b60036004811115611f8a57611f896130aa565b5b826004811115611f9d57611f9c6130aa565b5b1415611fc557808360e00151602001818151611fb99190612d34565b91508181525050612010565b600480811115611fd857611fd76130aa565b5b826004811115611feb57611fea6130aa565b5b141561200f57808360e001516020018181516120079190612d34565b915081815250505b5b5b5b5b505050565b612020612345565b6000600860008573ffffffffffffffffffffffffffffffffffffffff1673ffffffffffffffffffffffffffffffffffffffff1681526020019081526020016000206000848152602001908152602001600020604051806101200160405290816000820160009054906101000a900460ff161515151581526020016000820160019054906101000a900473ffffffffffffffffffffffffffffffffffffffff1673ffffffffffffffffffffffffffffffffffffffff1673ffffffffffffffffffffffffffffffffffffffff168152602001600182015481526020016002820160009054906101000a900473ffffffffffffffffffffffffffffffffffffffff1673ffffffffffffffffffffffffffffffffffffffff1673ffffffffffffffffffffffffffffffffffffffff1681526020016003820154815260200160048201548152602001600582015481526020016006820160405180610100016040529081600082015481526020016001820154815260200160028201548152602001600382015481526020016004820154815260200160058201548152602001600682015481526020016007820154815250508152602001600e82016040518060600160405290816000820154815260200160018201548152602001600282015481525050815250509050806000015161221e576122198484612229565b612220565b805b91505092915050565b612231612345565b6040518061012001604052806001151581526020018473ffffffffffffffffffffffffffffffffffffffff168152602001838152602001600073ffffffffffffffffffffffffffffffffffffffff16815260200160018152602001600081526020016000815260200173__$d18125c9528dfe4cb67fa81d29b24a1cca$__63f72870566040518163ffffffff1660e01b81526004016101006040518083038186803b1580156122df57600080fd5b505af41580156122f3573d6000803e3d6000fd5b505050506040513d601f19601f820116820180604052508101906123179190613224565b8152602001604051806060016040528060008152602001600081526020016000815250815250905092915050565b604051806101200160405280600015158152602001600073ffffffffffffffffffffffffffffffffffffffff16815260200160008152602001600073ffffffffffffffffffffffffffffffffffffffff1681526020016000815260200160008152602001600081526020016123b86123cb565b81526020016123c5612410565b81525090565b60405180610100016040528060008152602001600081526020016000815260200160008152602001600081526020016000815260200160008152602001600081525090565b60405180606001604052806000815260200160008152602001600081525090565b6000604051905090565b600080fd5b600073ffffffffffffffffffffffffffffffffffffffff82169050919050565b600061246b82612440565b9050919050565b61247b81612460565b811461248657600080fd5b50565b60008135905061249881612472565b92915050565b6000602082840312156124b4576124b361243b565b5b60006124c284828501612489565b91505092915050565b6124d481612460565b82525050565b60006020820190506124ef60008301846124cb565b92915050565b600080fd5b6000601f19601f8301169050919050565b7f4e487b7100000000000000000000000000000000000000000000000000000000600052604160045260246000fd5b612543826124fa565b810181811067ffffffffffffffff821117156125625761256161250b565b5b80604052505050565b6000612575612431565b9050612581828261253a565b919050565b60008115159050919050565b61259b81612586565b81146125a657600080fd5b50565b6000813590506125b881612592565b92915050565b6000819050919050565b6125d1816125be565b81146125dc57600080fd5b50565b6000813590506125ee816125c8565b92915050565b6000610100828403121561260b5761260a6124f5565b5b61261661010061256b565b90506000612626848285016125df565b600083015250602061263a848285016125df565b602083015250604061264e848285016125df565b6040830152506060612662848285016125df565b6060830152506080612676848285016125df565b60808301525060a061268a848285016125df565b60a08301525060c061269e848285016125df565b60c08301525060e06126b2848285016125df565b60e08301525092915050565b6000606082840312156126d4576126d36124f5565b5b6126de606061256b565b905060006126ee848285016125df565b6000830152506020612702848285016125df565b6020830152506040612716848285016125df565b60408301525092915050565b60006102408284031215612739576127386124f5565b5b61274461012061256b565b90506000612754848285016125a9565b600083015250602061276884828501612489565b602083015250604061277c848285016125df565b604083015250606061279084828501612489565b60608301525060806127a4848285016125df565b60808301525060a06127b8848285016125df565b60a08301525060c06127cc848285016125df565b60c08301525060e06127e0848285016125f4565b60e0830152506101e06127f5848285016126be565b6101008301525092915050565b600080610260838503121561281a5761281961243b565b5b600061282885828601612722565b92505061024061283a858286016125df565b9150509250929050565b6005811061285157600080fd5b50565b60008135905061286381612844565b92915050565b600080600080608085870312156128835761288261243b565b5b600061289187828801612489565b94505060206128a2878288016125df565b93505060406128b387828801612854565b92505060606128c4878288016125df565b91505092959194509250565b6128d981612586565b82525050565b60006020820190506128f460008301846128d0565b92915050565b600061024082840312156129115761291061243b565b5b600061291f84828501612722565b91505092915050565b60006020828403121561293e5761293d61243b565b5b600061294c848285016125df565b91505092915050565b61295e816125be565b82525050565b60006020820190506129796000830184612955565b92915050565b600080604083850312156129965761299561243b565b5b60006129a485828601612489565b92505060206129b5858286016125df565b9150509250929050565b6129c881612586565b82525050565b6129d781612460565b82525050565b6129e6816125be565b82525050565b61010082016000820151612a0360008501826129dd565b506020820151612a1660208501826129dd565b506040820151612a2960408501826129dd565b506060820151612a3c60608501826129dd565b506080820151612a4f60808501826129dd565b5060a0820151612a6260a08501826129dd565b5060c0820151612a7560c08501826129dd565b5060e0820151612a8860e08501826129dd565b50505050565b606082016000820151612aa460008501826129dd565b506020820151612ab760208501826129dd565b506040820151612aca60408501826129dd565b50505050565b61024082016000820151612ae760008501826129bf565b506020820151612afa60208501826129ce565b506040820151612b0d60408501826129dd565b506060820151612b2060608501826129ce565b506080820151612b3360808501826129dd565b5060a0820151612b4660a08501826129dd565b5060c0820151612b5960c08501826129dd565b5060e0820151612b6c60e08501826129ec565b50610100820151612b816101e0850182612a8e565b50505050565b600061024082019050612b9d6000830184612ad0565b92915050565b600080600060608486031215612bbc57612bbb61243b565b5b6000612bca86828701612489565b9350506020612bdb868287016125df565b9250506040612bec86828701612854565b9150509250925092565b600082825260208201905092915050565b7f43616e2062652063616c6c6564206f6e6c7920627920474d0000000000000000600082015250565b6000612c3d601883612bf6565b9150612c4882612c07565b602082019050919050565b60006020820190508181036000830152612c6c81612c30565b9050919050565b7f4f6e6c792067616d6520636f6e7472616374732063616e2063616c6c2074686960008201527f73206d6574686f64000000000000000000000000000000000000000000000000602082015250565b6000612ccf602883612bf6565b9150612cda82612c73565b604082019050919050565b60006020820190508181036000830152612cfe81612cc2565b9050919050565b7f4e487b7100000000000000000000000000000000000000000000000000000000600052601160045260246000fd5b6000612d3f826125be565b9150612d4a836125be565b9250827fffffffffffffffffffffffffffffffffffffffffffffffffffffffffffffffff03821115612d7f57612d7e612d05565b5b828201905092915050565b6000612d95826125be565b9150612da0836125be565b925082821015612db357612db2612d05565b5b828203905092915050565b6000819050919050565b6000819050919050565b6000612ded612de8612de384612dbe565b612dc8565b6125be565b9050919050565b612dfd81612dd2565b82525050565b600060a082019050612e186000830188612955565b612e256020830187612955565b612e326040830186612955565b612e3f6060830185612df4565b612e4c6080830184612955565b9695505050505050565b61010082016000820151612e6d60008501826129dd565b506020820151612e8060208501826129dd565b506040820151612e9360408501826129dd565b506060820151612ea660608501826129dd565b506080820151612eb960808501826129dd565b5060a0820151612ecc60a08501826129dd565b5060c0820151612edf60c08501826129dd565b5060e0820151612ef260e08501826129dd565b50505050565b600061012082019050612f0e6000830185612e56565b612f1c610100830184612955565b9392505050565b7f4c6576656c2073686f756c642062652067726561746572207468616e207a657260008201527f6f00000000000000000000000000000000000000000000000000000000000000602082015250565b6000612f7f602183612bf6565b9150612f8a82612f23565b604082019050919050565b60006020820190508181036000830152612fae81612f72565b9050919050565b7f4e487b7100000000000000000000000000000000000000000000000000000000600052603260045260246000fd5b6000612fef826125be565b9150612ffa836125be565b9250817fffffffffffffffffffffffffffffffffffffffffffffffffffffffffffffffff048311821515161561303357613032612d05565b5b828202905092915050565b7f4e6f20757067726164657320617661696c61626c650000000000000000000000600082015250565b6000613074601583612bf6565b915061307f8261303e565b602082019050919050565b600060208201905081810360008301526130a381613067565b9050919050565b7f4e487b7100000000000000000000000000000000000000000000000000000000600052602160045260246000fd5b7f496e76616c696420737461742074797065000000000000000000000000000000600082015250565b600061310f601183612bf6565b915061311a826130d9565b602082019050919050565b6000602082019050818103600083015261313e81613102565b9050919050565b600081519050613154816125c8565b92915050565b60006101008284031215613171576131706124f5565b5b61317c61010061256b565b9050600061318c84828501613145565b60008301525060206131a084828501613145565b60208301525060406131b484828501613145565b60408301525060606131c884828501613145565b60608301525060806131dc84828501613145565b60808301525060a06131f084828501613145565b60a08301525060c061320484828501613145565b60c08301525060e061321884828501613145565b60e08301525092915050565b6000610100828403121561323b5761323a61243b565b5b60006132498482850161315a565b9150509291505056fea2646970667358221220f468217a1a6f8f99d9f3f38fc98d8899c601a7f1c8ed31ad8f54684e4b13644964736f6c63430008090033",
			"opcodes": "PUSH1 0x80 PUSH1 0x40 MSTORE PUSH1 0x0 DUP1 PUSH1 0x0 PUSH2 0x100 EXP DUP2 SLOAD DUP2 PUSH20 0xFFFFFFFFFFFFFFFFFFFFFFFFFFFFFFFFFFFFFFFF MUL NOT AND SWAP1 DUP4 PUSH20 0xFFFFFFFFFFFFFFFFFFFFFFFFFFFFFFFFFFFFFFFF AND MUL OR SWAP1 SSTORE POP PUSH1 0x0 PUSH1 0x1 PUSH1 0x0 PUSH2 0x100 EXP DUP2 SLOAD DUP2 PUSH20 0xFFFFFFFFFFFFFFFFFFFFFFFFFFFFFFFFFFFFFFFF MUL NOT AND SWAP1 DUP4 PUSH20 0xFFFFFFFFFFFFFFFFFFFFFFFFFFFFFFFFFFFFFFFF AND MUL OR SWAP1 SSTORE POP PUSH1 0x0 PUSH1 0x2 PUSH1 0x0 PUSH2 0x100 EXP DUP2 SLOAD DUP2 PUSH20 0xFFFFFFFFFFFFFFFFFFFFFFFFFFFFFFFFFFFFFFFF MUL NOT AND SWAP1 DUP4 PUSH20 0xFFFFFFFFFFFFFFFFFFFFFFFFFFFFFFFFFFFFFFFF AND MUL OR SWAP1 SSTORE POP PUSH1 0x0 PUSH1 0x3 PUSH1 0x0 PUSH2 0x100 EXP DUP2 SLOAD DUP2 PUSH20 0xFFFFFFFFFFFFFFFFFFFFFFFFFFFFFFFFFFFFFFFF MUL NOT AND SWAP1 DUP4 PUSH20 0xFFFFFFFFFFFFFFFFFFFFFFFFFFFFFFFFFFFFFFFF AND MUL OR SWAP1 SSTORE POP PUSH1 0x0 PUSH1 0x4 PUSH1 0x0 PUSH2 0x100 EXP DUP2 SLOAD DUP2 PUSH20 0xFFFFFFFFFFFFFFFFFFFFFFFFFFFFFFFFFFFFFFFF MUL NOT AND SWAP1 DUP4 PUSH20 0xFFFFFFFFFFFFFFFFFFFFFFFFFFFFFFFFFFFFFFFF AND MUL OR SWAP1 SSTORE POP PUSH1 0x0 PUSH1 0x7 PUSH1 0x0 PUSH2 0x100 EXP DUP2 SLOAD DUP2 PUSH20 0xFFFFFFFFFFFFFFFFFFFFFFFFFFFFFFFFFFFFFFFF MUL NOT AND SWAP1 DUP4 PUSH20 0xFFFFFFFFFFFFFFFFFFFFFFFFFFFFFFFFFFFFFFFF AND MUL OR SWAP1 SSTORE POP PUSH1 0x40 MLOAD DUP1 PUSH2 0x12E0 ADD PUSH1 0x40 MSTORE DUP1 PUSH1 0x6 PUSH1 0xFF AND DUP2 MSTORE PUSH1 0x20 ADD PUSH1 0x9 PUSH1 0xFF AND DUP2 MSTORE PUSH1 0x20 ADD PUSH1 0x9 PUSH1 0xFF AND DUP2 MSTORE PUSH1 0x20 ADD PUSH1 0xC PUSH1 0xFF AND DUP2 MSTORE PUSH1 0x20 ADD PUSH1 0xC PUSH1 0xFF AND DUP2 MSTORE PUSH1 0x20 ADD PUSH1 0xF PUSH1 0xFF AND DUP2 MSTORE PUSH1 0x20 ADD PUSH1 0xF PUSH1 0xFF AND DUP2 MSTORE PUSH1 0x20 ADD PUSH1 0x12 PUSH1 0xFF AND DUP2 MSTORE PUSH1 0x20 ADD PUSH1 0x12 PUSH1 0xFF AND DUP2 MSTORE PUSH1 0x20 ADD PUSH1 0x12 PUSH1 0xFF AND DUP2 MSTORE PUSH1 0x20 ADD PUSH1 0x15 PUSH1 0xFF AND DUP2 MSTORE PUSH1 0x20 ADD PUSH1 0x15 PUSH1 0xFF AND DUP2 MSTORE PUSH1 0x20 ADD PUSH1 0x15 PUSH1 0xFF AND DUP2 MSTORE PUSH1 0x20 ADD PUSH1 0x15 PUSH1 0xFF AND DUP2 MSTORE PUSH1 0x20 ADD PUSH1 0x18 PUSH1 0xFF AND DUP2 MSTORE PUSH1 0x20 ADD PUSH1 0x18 PUSH1 0xFF AND DUP2 MSTORE PUSH1 0x20 ADD PUSH1 0x18 PUSH1 0xFF AND DUP2 MSTORE PUSH1 0x20 ADD PUSH1 0x18 PUSH1 0xFF AND DUP2 MSTORE PUSH1 0x20 ADD PUSH1 0x1B PUSH1 0xFF AND DUP2 MSTORE PUSH1 0x20 ADD PUSH1 0x1B PUSH1 0xFF AND DUP2 MSTORE PUSH1 0x20 ADD PUSH1 0x1B PUSH1 0xFF AND DUP2 MSTORE PUSH1 0x20 ADD PUSH1 0x1B PUSH1 0xFF AND DUP2 MSTORE PUSH1 0x20 ADD PUSH1 0x1E PUSH1 0xFF AND DUP2 MSTORE PUSH1 0x20 ADD PUSH1 0x1E PUSH1 0xFF AND DUP2 MSTORE PUSH1 0x20 ADD PUSH1 0x1E PUSH1 0xFF AND DUP2 MSTORE PUSH1 0x20 ADD PUSH1 0x1E PUSH1 0xFF AND DUP2 MSTORE PUSH1 0x20 ADD PUSH1 0x1E PUSH1 0xFF AND DUP2 MSTORE PUSH1 0x20 ADD PUSH1 0x21 PUSH1 0xFF AND DUP2 MSTORE PUSH1 0x20 ADD PUSH1 0x21 PUSH1 0xFF AND DUP2 MSTORE PUSH1 0x20 ADD PUSH1 0x21 PUSH1 0xFF AND DUP2 MSTORE PUSH1 0x20 ADD PUSH1 0x21 PUSH1 0xFF AND DUP2 MSTORE PUSH1 0x20 ADD PUSH1 0x21 PUSH1 0xFF AND DUP2 MSTORE PUSH1 0x20 ADD PUSH1 0x21 PUSH1 0xFF AND DUP2 MSTORE PUSH1 0x20 ADD PUSH1 0x24 PUSH1 0xFF AND DUP2 MSTORE PUSH1 0x20 ADD PUSH1 0x24 PUSH1 0xFF AND DUP2 MSTORE PUSH1 0x20 ADD PUSH1 0x24 PUSH1 0xFF AND DUP2 MSTORE PUSH1 0x20 ADD PUSH1 0x24 PUSH1 0xFF AND DUP2 MSTORE PUSH1 0x20 ADD PUSH1 0x24 PUSH1 0xFF AND DUP2 MSTORE PUSH1 0x20 ADD PUSH1 0x24 PUSH1 0xFF AND DUP2 MSTORE PUSH1 0x20 ADD PUSH1 0x27 PUSH1 0xFF AND DUP2 MSTORE PUSH1 0x20 ADD PUSH1 0x27 PUSH1 0xFF AND DUP2 MSTORE PUSH1 0x20 ADD PUSH1 0x27 PUSH1 0xFF AND DUP2 MSTORE PUSH1 0x20 ADD PUSH1 0x27 PUSH1 0xFF AND DUP2 MSTORE PUSH1 0x20 ADD PUSH1 0x27 PUSH1 0xFF AND DUP2 MSTORE PUSH1 0x20 ADD PUSH1 0x27 PUSH1 0xFF AND DUP2 MSTORE PUSH1 0x20 ADD PUSH1 0x2A PUSH1 0xFF AND DUP2 MSTORE PUSH1 0x20 ADD PUSH1 0x2A PUSH1 0xFF AND DUP2 MSTORE PUSH1 0x20 ADD PUSH1 0x2A PUSH1 0xFF AND DUP2 MSTORE PUSH1 0x20 ADD PUSH1 0x2A PUSH1 0xFF AND DUP2 MSTORE PUSH1 0x20 ADD PUSH1 0x2A PUSH1 0xFF AND DUP2 MSTORE PUSH1 0x20 ADD PUSH1 0x2A PUSH1 0xFF AND DUP2 MSTORE PUSH1 0x20 ADD PUSH1 0x2A PUSH1 0xFF AND DUP2 MSTORE PUSH1 0x20 ADD PUSH1 0x2D PUSH1 0xFF AND DUP2 MSTORE PUSH1 0x20 ADD PUSH1 0x2D PUSH1 0xFF AND DUP2 MSTORE PUSH1 0x20 ADD PUSH1 0x2D PUSH1 0xFF AND DUP2 MSTORE PUSH1 0x20 ADD PUSH1 0x2D PUSH1 0xFF AND DUP2 MSTORE PUSH1 0x20 ADD PUSH1 0x2D PUSH1 0xFF AND DUP2 MSTORE PUSH1 0x20 ADD PUSH1 0x2D PUSH1 0xFF AND DUP2 MSTORE PUSH1 0x20 ADD PUSH1 0x2D PUSH1 0xFF AND DUP2 MSTORE PUSH1 0x20 ADD PUSH1 0x2D PUSH1 0xFF AND DUP2 MSTORE PUSH1 0x20 ADD PUSH1 0x30 PUSH1 0xFF AND DUP2 MSTORE PUSH1 0x20 ADD PUSH1 0x30 PUSH1 0xFF AND DUP2 MSTORE PUSH1 0x20 ADD PUSH1 0x30 PUSH1 0xFF AND DUP2 MSTORE PUSH1 0x20 ADD PUSH1 0x30 PUSH1 0xFF AND DUP2 MSTORE PUSH1 0x20 ADD PUSH1 0x30 PUSH1 0xFF AND DUP2 MSTORE PUSH1 0x20 ADD PUSH1 0x30 PUSH1 0xFF AND DUP2 MSTORE PUSH1 0x20 ADD PUSH1 0x30 PUSH1 0xFF AND DUP2 MSTORE PUSH1 0x20 ADD PUSH1 0x30 PUSH1 0xFF AND DUP2 MSTORE PUSH1 0x20 ADD PUSH1 0x33 PUSH1 0xFF AND DUP2 MSTORE PUSH1 0x20 ADD PUSH1 0x33 PUSH1 0xFF AND DUP2 MSTORE PUSH1 0x20 ADD PUSH1 0x33 PUSH1 0xFF AND DUP2 MSTORE PUSH1 0x20 ADD PUSH1 0x33 PUSH1 0xFF AND DUP2 MSTORE PUSH1 0x20 ADD PUSH1 0x33 PUSH1 0xFF AND DUP2 MSTORE PUSH1 0x20 ADD PUSH1 0x33 PUSH1 0xFF AND DUP2 MSTORE PUSH1 0x20 ADD PUSH1 0x33 PUSH1 0xFF AND DUP2 MSTORE PUSH1 0x20 ADD PUSH1 0x33 PUSH1 0xFF AND DUP2 MSTORE PUSH1 0x20 ADD PUSH1 0x36 PUSH1 0xFF AND DUP2 MSTORE PUSH1 0x20 ADD PUSH1 0x36 PUSH1 0xFF AND DUP2 MSTORE PUSH1 0x20 ADD PUSH1 0x36 PUSH1 0xFF AND DUP2 MSTORE PUSH1 0x20 ADD PUSH1 0x36 PUSH1 0xFF AND DUP2 MSTORE PUSH1 0x20 ADD PUSH1 0x36 PUSH1 0xFF AND DUP2 MSTORE PUSH1 0x20 ADD PUSH1 0x36 PUSH1 0xFF AND DUP2 MSTORE PUSH1 0x20 ADD PUSH1 0x36 PUSH1 0xFF AND DUP2 MSTORE PUSH1 0x20 ADD PUSH1 0x36 PUSH1 0xFF AND DUP2 MSTORE PUSH1 0x20 ADD PUSH1 0x36 PUSH1 0xFF AND DUP2 MSTORE PUSH1 0x20 ADD PUSH1 0x39 PUSH1 0xFF AND DUP2 MSTORE PUSH1 0x20 ADD PUSH1 0x39 PUSH1 0xFF AND DUP2 MSTORE PUSH1 0x20 ADD PUSH1 0x39 PUSH1 0xFF AND DUP2 MSTORE PUSH1 0x20 ADD PUSH1 0x39 PUSH1 0xFF AND DUP2 MSTORE PUSH1 0x20 ADD PUSH1 0x39 PUSH1 0xFF AND DUP2 MSTORE PUSH1 0x20 ADD PUSH1 0x39 PUSH1 0xFF AND DUP2 MSTORE PUSH1 0x20 ADD PUSH1 0x39 PUSH1 0xFF AND DUP2 MSTORE PUSH1 0x20 ADD PUSH1 0x39 PUSH1 0xFF AND DUP2 MSTORE PUSH1 0x20 ADD PUSH1 0x39 PUSH1 0xFF AND DUP2 MSTORE PUSH1 0x20 ADD PUSH1 0x39 PUSH1 0xFF AND DUP2 MSTORE PUSH1 0x20 ADD PUSH1 0x3C PUSH1 0xFF AND DUP2 MSTORE PUSH1 0x20 ADD PUSH1 0x3C PUSH1 0xFF AND DUP2 MSTORE PUSH1 0x20 ADD PUSH1 0x3C PUSH1 0xFF AND DUP2 MSTORE PUSH1 0x20 ADD PUSH1 0x3C PUSH1 0xFF AND DUP2 MSTORE PUSH1 0x20 ADD PUSH1 0x3C PUSH1 0xFF AND DUP2 MSTORE PUSH1 0x20 ADD PUSH1 0x3C PUSH1 0xFF AND DUP2 MSTORE PUSH1 0x20 ADD PUSH1 0x3C PUSH1 0xFF AND DUP2 MSTORE PUSH1 0x20 ADD PUSH1 0x3C PUSH1 0xFF AND DUP2 MSTORE PUSH1 0x20 ADD PUSH1 0x3C PUSH1 0xFF AND DUP2 MSTORE PUSH1 0x20 ADD PUSH1 0x3C PUSH1 0xFF AND DUP2 MSTORE PUSH1 0x20 ADD PUSH1 0x3F PUSH1 0xFF AND DUP2 MSTORE PUSH1 0x20 ADD PUSH1 0x3F PUSH1 0xFF AND DUP2 MSTORE PUSH1 0x20 ADD PUSH1 0x3F PUSH1 0xFF AND DUP2 MSTORE PUSH1 0x20 ADD PUSH1 0x3F PUSH1 0xFF AND DUP2 MSTORE PUSH1 0x20 ADD PUSH1 0x3F PUSH1 0xFF AND DUP2 MSTORE PUSH1 0x20 ADD PUSH1 0x3F PUSH1 0xFF AND DUP2 MSTORE PUSH1 0x20 ADD PUSH1 0x3F PUSH1 0xFF AND DUP2 MSTORE PUSH1 0x20 ADD PUSH1 0x3F PUSH1 0xFF AND DUP2 MSTORE PUSH1 0x20 ADD PUSH1 0x3F PUSH1 0xFF AND DUP2 MSTORE PUSH1 0x20 ADD PUSH1 0x3F PUSH1 0xFF AND DUP2 MSTORE PUSH1 0x20 ADD PUSH1 0x42 PUSH1 0xFF AND DUP2 MSTORE PUSH1 0x20 ADD PUSH1 0x42 PUSH1 0xFF AND DUP2 MSTORE PUSH1 0x20 ADD PUSH1 0x42 PUSH1 0xFF AND DUP2 MSTORE PUSH1 0x20 ADD PUSH1 0x42 PUSH1 0xFF AND DUP2 MSTORE PUSH1 0x20 ADD PUSH1 0x42 PUSH1 0xFF AND DUP2 MSTORE PUSH1 0x20 ADD PUSH1 0x42 PUSH1 0xFF AND DUP2 MSTORE PUSH1 0x20 ADD PUSH1 0x42 PUSH1 0xFF AND DUP2 MSTORE PUSH1 0x20 ADD PUSH1 0x42 PUSH1 0xFF AND DUP2 MSTORE PUSH1 0x20 ADD PUSH1 0x42 PUSH1 0xFF AND DUP2 MSTORE PUSH1 0x20 ADD PUSH1 0x42 PUSH1 0xFF AND DUP2 MSTORE PUSH1 0x20 ADD PUSH1 0x42 PUSH1 0xFF AND DUP2 MSTORE PUSH1 0x20 ADD PUSH1 0x45 PUSH1 0xFF AND DUP2 MSTORE PUSH1 0x20 ADD PUSH1 0x45 PUSH1 0xFF AND DUP2 MSTORE PUSH1 0x20 ADD PUSH1 0x45 PUSH1 0xFF AND DUP2 MSTORE PUSH1 0x20 ADD PUSH1 0x45 PUSH1 0xFF AND DUP2 MSTORE PUSH1 0x20 ADD PUSH1 0x45 PUSH1 0xFF AND DUP2 MSTORE PUSH1 0x20 ADD PUSH1 0x45 PUSH1 0xFF AND DUP2 MSTORE PUSH1 0x20 ADD PUSH1 0x45 PUSH1 0xFF AND DUP2 MSTORE PUSH1 0x20 ADD PUSH1 0x45 PUSH1 0xFF AND DUP2 MSTORE PUSH1 0x20 ADD PUSH1 0x45 PUSH1 0xFF AND DUP2 MSTORE PUSH1 0x20 ADD PUSH1 0x45 PUSH1 0xFF AND DUP2 MSTORE PUSH1 0x20 ADD PUSH1 0x45 PUSH1 0xFF AND DUP2 MSTORE PUSH1 0x20 ADD PUSH1 0x45 PUSH1 0xFF AND DUP2 MSTORE PUSH1 0x20 ADD PUSH1 0x48 PUSH1 0xFF AND DUP2 MSTORE PUSH1 0x20 ADD PUSH1 0x48 PUSH1 0xFF AND DUP2 MSTORE PUSH1 0x20 ADD PUSH1 0x48 PUSH1 0xFF AND DUP2 MSTORE PUSH1 0x20 ADD PUSH1 0x48 PUSH1 0xFF AND DUP2 MSTORE PUSH1 0x20 ADD PUSH1 0x48 PUSH1 0xFF AND DUP2 MSTORE PUSH1 0x20 ADD PUSH1 0x48 PUSH1 0xFF AND DUP2 MSTORE PUSH1 0x20 ADD PUSH1 0x48 PUSH1 0xFF AND DUP2 MSTORE PUSH1 0x20 ADD PUSH1 0x48 PUSH1 0xFF AND DUP2 MSTORE PUSH1 0x20 ADD PUSH1 0x48 PUSH1 0xFF AND DUP2 MSTORE PUSH1 0x20 ADD PUSH1 0x48 PUSH1 0xFF AND DUP2 MSTORE PUSH1 0x20 ADD PUSH1 0x48 PUSH1 0xFF AND DUP2 MSTORE PUSH1 0x20 ADD PUSH1 0x48 PUSH1 0xFF AND DUP2 MSTORE PUSH1 0x20 ADD PUSH1 0x50 PUSH1 0xFF AND DUP2 MSTORE POP PUSH1 0x9 SWAP1 PUSH1 0x97 PUSH3 0x791 SWAP3 SWAP2 SWAP1 PUSH3 0x868 JUMP JUMPDEST POP CALLVALUE DUP1 ISZERO PUSH3 0x79F JUMPI PUSH1 0x0 DUP1 REVERT JUMPDEST POP CALLER PUSH1 0x0 DUP1 PUSH2 0x100 EXP DUP2 SLOAD DUP2 PUSH20 0xFFFFFFFFFFFFFFFFFFFFFFFFFFFFFFFFFFFFFFFF MUL NOT AND SWAP1 DUP4 PUSH20 0xFFFFFFFFFFFFFFFFFFFFFFFFFFFFFFFFFFFFFFFF AND MUL OR SWAP1 SSTORE POP CALLER PUSH1 0x7 PUSH1 0x0 PUSH2 0x100 EXP DUP2 SLOAD DUP2 PUSH20 0xFFFFFFFFFFFFFFFFFFFFFFFFFFFFFFFFFFFFFFFF MUL NOT AND SWAP1 DUP4 PUSH20 0xFFFFFFFFFFFFFFFFFFFFFFFFFFFFFFFFFFFFFFFF AND MUL OR SWAP1 SSTORE POP ADDRESS PUSH1 0x2 PUSH1 0x0 PUSH2 0x100 EXP DUP2 SLOAD DUP2 PUSH20 0xFFFFFFFFFFFFFFFFFFFFFFFFFFFFFFFFFFFFFFFF MUL NOT AND SWAP1 DUP4 PUSH20 0xFFFFFFFFFFFFFFFFFFFFFFFFFFFFFFFFFFFFFFFF AND MUL OR SWAP1 SSTORE POP PUSH3 0x8DE JUMP JUMPDEST DUP3 DUP1 SLOAD DUP3 DUP3 SSTORE SWAP1 PUSH1 0x0 MSTORE PUSH1 0x20 PUSH1 0x0 KECCAK256 SWAP1 DUP2 ADD SWAP3 DUP3 ISZERO PUSH3 0x8AC JUMPI SWAP2 PUSH1 0x20 MUL DUP3 ADD JUMPDEST DUP3 DUP2 GT ISZERO PUSH3 0x8AB JUMPI DUP3 MLOAD DUP3 SWAP1 PUSH1 0xFF AND SWAP1 SSTORE SWAP2 PUSH1 0x20 ADD SWAP2 SWAP1 PUSH1 0x1 ADD SWAP1 PUSH3 0x889 JUMP JUMPDEST JUMPDEST POP SWAP1 POP PUSH3 0x8BB SWAP2 SWAP1 PUSH3 0x8BF JUMP JUMPDEST POP SWAP1 JUMP JUMPDEST JUMPDEST DUP1 DUP3 GT ISZERO PUSH3 0x8DA JUMPI PUSH1 0x0 DUP2 PUSH1 0x0 SWAP1 SSTORE POP PUSH1 0x1 ADD PUSH3 0x8C0 JUMP JUMPDEST POP SWAP1 JUMP JUMPDEST PUSH2 0x3288 DUP1 PUSH3 0x8EE PUSH1 0x0 CODECOPY PUSH1 0x0 RETURN INVALID PUSH1 0x80 PUSH1 0x40 MSTORE CALLVALUE DUP1 ISZERO PUSH2 0x10 JUMPI PUSH1 0x0 DUP1 REVERT JUMPDEST POP PUSH1 0x4 CALLDATASIZE LT PUSH2 0x141 JUMPI PUSH1 0x0 CALLDATALOAD PUSH1 0xE0 SHR DUP1 PUSH4 0x83499DF6 GT PUSH2 0xB8 JUMPI DUP1 PUSH4 0xD3DD4F29 GT PUSH2 0x7C JUMPI DUP1 PUSH4 0xD3DD4F29 EQ PUSH2 0x326 JUMPI DUP1 PUSH4 0xD7050B05 EQ PUSH2 0x344 JUMPI DUP1 PUSH4 0xD8327B2F EQ PUSH2 0x360 JUMPI DUP1 PUSH4 0xE1D38814 EQ PUSH2 0x37C JUMPI DUP1 PUSH4 0xE4CB30AD EQ PUSH2 0x39A JUMPI DUP1 PUSH4 0xFF780137 EQ PUSH2 0x3CA JUMPI PUSH2 0x141 JUMP JUMPDEST DUP1 PUSH4 0x83499DF6 EQ PUSH2 0x282 JUMPI DUP1 PUSH4 0x85535CC5 EQ PUSH2 0x29E JUMPI DUP1 PUSH4 0x99597B70 EQ PUSH2 0x2BA JUMPI DUP1 PUSH4 0xA8D6DF6C EQ PUSH2 0x2D8 JUMPI DUP1 PUSH4 0xC85045F7 EQ PUSH2 0x308 JUMPI PUSH2 0x141 JUMP JUMPDEST DUP1 PUSH4 0x3F5F4480 GT PUSH2 0x10A JUMPI DUP1 PUSH4 0x3F5F4480 EQ PUSH2 0x1C2 JUMPI DUP1 PUSH4 0x411557D1 EQ PUSH2 0x1DE JUMPI DUP1 PUSH4 0x5C79D49D EQ PUSH2 0x1FC JUMPI DUP1 PUSH4 0x603EEFA5 EQ PUSH2 0x22C JUMPI DUP1 PUSH4 0x6EFC00EE EQ PUSH2 0x24A JUMPI DUP1 PUSH4 0x74FB4404 EQ PUSH2 0x266 JUMPI PUSH2 0x141 JUMP JUMPDEST DUP1 PUSH3 0xA8B188 EQ PUSH2 0x146 JUMPI DUP1 PUSH4 0x1B915579 EQ PUSH2 0x162 JUMPI DUP1 PUSH4 0x320B00D8 EQ PUSH2 0x17E JUMPI DUP1 PUSH4 0x3CCFD60B EQ PUSH2 0x19C JUMPI DUP1 PUSH4 0x3E9F5237 EQ PUSH2 0x1A6 JUMPI JUMPDEST PUSH1 0x0 DUP1 REVERT JUMPDEST PUSH2 0x160 PUSH1 0x4 DUP1 CALLDATASIZE SUB DUP2 ADD SWAP1 PUSH2 0x15B SWAP2 SWAP1 PUSH2 0x249E JUMP JUMPDEST PUSH2 0x3E6 JUMP JUMPDEST STOP JUMPDEST PUSH2 0x17C PUSH1 0x4 DUP1 CALLDATASIZE SUB DUP2 ADD SWAP1 PUSH2 0x177 SWAP2 SWAP1 PUSH2 0x249E JUMP JUMPDEST PUSH2 0x4B8 JUMP JUMPDEST STOP JUMPDEST PUSH2 0x186 PUSH2 0x58A JUMP JUMPDEST PUSH1 0x40 MLOAD PUSH2 0x193 SWAP2 SWAP1 PUSH2 0x24DA JUMP JUMPDEST PUSH1 0x40 MLOAD DUP1 SWAP2 SUB SWAP1 RETURN JUMPDEST PUSH2 0x1A4 PUSH2 0x5B0 JUMP JUMPDEST STOP JUMPDEST PUSH2 0x1C0 PUSH1 0x4 DUP1 CALLDATASIZE SUB DUP2 ADD SWAP1 PUSH2 0x1BB SWAP2 SWAP1 PUSH2 0x2802 JUMP JUMPDEST PUSH2 0x6A9 JUMP JUMPDEST STOP JUMPDEST PUSH2 0x1DC PUSH1 0x4 DUP1 CALLDATASIZE SUB DUP2 ADD SWAP1 PUSH2 0x1D7 SWAP2 SWAP1 PUSH2 0x2869 JUMP JUMPDEST PUSH2 0x996 JUMP JUMPDEST STOP JUMPDEST PUSH2 0x1E6 PUSH2 0xDB9 JUMP JUMPDEST PUSH1 0x40 MLOAD PUSH2 0x1F3 SWAP2 SWAP1 PUSH2 0x24DA JUMP JUMPDEST PUSH1 0x40 MLOAD DUP1 SWAP2 SUB SWAP1 RETURN JUMPDEST PUSH2 0x216 PUSH1 0x4 DUP1 CALLDATASIZE SUB DUP2 ADD SWAP1 PUSH2 0x211 SWAP2 SWAP1 PUSH2 0x249E JUMP JUMPDEST PUSH2 0xDDF JUMP JUMPDEST PUSH1 0x40 MLOAD PUSH2 0x223 SWAP2 SWAP1 PUSH2 0x28DF JUMP JUMPDEST PUSH1 0x40 MLOAD DUP1 SWAP2 SUB SWAP1 RETURN JUMPDEST PUSH2 0x234 PUSH2 0xDFF JUMP JUMPDEST PUSH1 0x40 MLOAD PUSH2 0x241 SWAP2 SWAP1 PUSH2 0x24DA JUMP JUMPDEST PUSH1 0x40 MLOAD DUP1 SWAP2 SUB SWAP1 RETURN JUMPDEST PUSH2 0x264 PUSH1 0x4 DUP1 CALLDATASIZE SUB DUP2 ADD SWAP1 PUSH2 0x25F SWAP2 SWAP1 PUSH2 0x249E JUMP JUMPDEST PUSH2 0xE25 JUMP JUMPDEST STOP JUMPDEST PUSH2 0x280 PUSH1 0x4 DUP1 CALLDATASIZE SUB DUP2 ADD SWAP1 PUSH2 0x27B SWAP2 SWAP1 PUSH2 0x28FA JUMP JUMPDEST PUSH2 0xEF7 JUMP JUMPDEST STOP JUMPDEST PUSH2 0x29C PUSH1 0x4 DUP1 CALLDATASIZE SUB DUP2 ADD SWAP1 PUSH2 0x297 SWAP2 SWAP1 PUSH2 0x249E JUMP JUMPDEST PUSH2 0x10ED JUMP JUMPDEST STOP JUMPDEST PUSH2 0x2B8 PUSH1 0x4 DUP1 CALLDATASIZE SUB DUP2 ADD SWAP1 PUSH2 0x2B3 SWAP2 SWAP1 PUSH2 0x249E JUMP JUMPDEST PUSH2 0x11BF JUMP JUMPDEST STOP JUMPDEST PUSH2 0x2C2 PUSH2 0x1291 JUMP JUMPDEST PUSH1 0x40 MLOAD PUSH2 0x2CF SWAP2 SWAP1 PUSH2 0x24DA JUMP JUMPDEST PUSH1 0x40 MLOAD DUP1 SWAP2 SUB SWAP1 RETURN JUMPDEST PUSH2 0x2F2 PUSH1 0x4 DUP1 CALLDATASIZE SUB DUP2 ADD SWAP1 PUSH2 0x2ED SWAP2 SWAP1 PUSH2 0x2928 JUMP JUMPDEST PUSH2 0x12B5 JUMP JUMPDEST PUSH1 0x40 MLOAD PUSH2 0x2FF SWAP2 SWAP1 PUSH2 0x2964 JUMP JUMPDEST PUSH1 0x40 MLOAD DUP1 SWAP2 SUB SWAP1 RETURN JUMPDEST PUSH2 0x310 PUSH2 0x1397 JUMP JUMPDEST PUSH1 0x40 MLOAD PUSH2 0x31D SWAP2 SWAP1 PUSH2 0x24DA JUMP JUMPDEST PUSH1 0x40 MLOAD DUP1 SWAP2 SUB SWAP1 RETURN JUMPDEST PUSH2 0x32E PUSH2 0x13BD JUMP JUMPDEST PUSH1 0x40 MLOAD PUSH2 0x33B SWAP2 SWAP1 PUSH2 0x24DA JUMP JUMPDEST PUSH1 0x40 MLOAD DUP1 SWAP2 SUB SWAP1 RETURN JUMPDEST PUSH2 0x35E PUSH1 0x4 DUP1 CALLDATASIZE SUB DUP2 ADD SWAP1 PUSH2 0x359 SWAP2 SWAP1 PUSH2 0x249E JUMP JUMPDEST PUSH2 0x13E3 JUMP JUMPDEST STOP JUMPDEST PUSH2 0x37A PUSH1 0x4 DUP1 CALLDATASIZE SUB DUP2 ADD SWAP1 PUSH2 0x375 SWAP2 SWAP1 PUSH2 0x249E JUMP JUMPDEST PUSH2 0x14B5 JUMP JUMPDEST STOP JUMPDEST PUSH2 0x384 PUSH2 0x1586 JUMP JUMPDEST PUSH1 0x40 MLOAD PUSH2 0x391 SWAP2 SWAP1 PUSH2 0x24DA JUMP JUMPDEST PUSH1 0x40 MLOAD DUP1 SWAP2 SUB SWAP1 RETURN JUMPDEST PUSH2 0x3B4 PUSH1 0x4 DUP1 CALLDATASIZE SUB DUP2 ADD SWAP1 PUSH2 0x3AF SWAP2 SWAP1 PUSH2 0x297F JUMP JUMPDEST PUSH2 0x15AC JUMP JUMPDEST PUSH1 0x40 MLOAD PUSH2 0x3C1 SWAP2 SWAP1 PUSH2 0x2B87 JUMP JUMPDEST PUSH1 0x40 MLOAD DUP1 SWAP2 SUB SWAP1 RETURN JUMPDEST PUSH2 0x3E4 PUSH1 0x4 DUP1 CALLDATASIZE SUB DUP2 ADD SWAP1 PUSH2 0x3DF SWAP2 SWAP1 PUSH2 0x2BA3 JUMP JUMPDEST PUSH2 0x15C6 JUMP JUMPDEST STOP JUMPDEST PUSH1 0x0 DUP1 SLOAD SWAP1 PUSH2 0x100 EXP SWAP1 DIV PUSH20 0xFFFFFFFFFFFFFFFFFFFFFFFFFFFFFFFFFFFFFFFF AND PUSH20 0xFFFFFFFFFFFFFFFFFFFFFFFFFFFFFFFFFFFFFFFF AND CALLER PUSH20 0xFFFFFFFFFFFFFFFFFFFFFFFFFFFFFFFFFFFFFFFF AND EQ PUSH2 0x474 JUMPI PUSH1 0x40 MLOAD PUSH32 0x8C379A000000000000000000000000000000000000000000000000000000000 DUP2 MSTORE PUSH1 0x4 ADD PUSH2 0x46B SWAP1 PUSH2 0x2C53 JUMP JUMPDEST PUSH1 0x40 MLOAD DUP1 SWAP2 SUB SWAP1 REVERT JUMPDEST DUP1 PUSH1 0x3 PUSH1 0x0 PUSH2 0x100 EXP DUP2 SLOAD DUP2 PUSH20 0xFFFFFFFFFFFFFFFFFFFFFFFFFFFFFFFFFFFFFFFF MUL NOT AND SWAP1 DUP4 PUSH20 0xFFFFFFFFFFFFFFFFFFFFFFFFFFFFFFFFFFFFFFFF AND MUL OR SWAP1 SSTORE POP POP JUMP JUMPDEST PUSH1 0x0 DUP1 SLOAD SWAP1 PUSH2 0x100 EXP SWAP1 DIV PUSH20 0xFFFFFFFFFFFFFFFFFFFFFFFFFFFFFFFFFFFFFFFF AND PUSH20 0xFFFFFFFFFFFFFFFFFFFFFFFFFFFFFFFFFFFFFFFF AND CALLER PUSH20 0xFFFFFFFFFFFFFFFFFFFFFFFFFFFFFFFFFFFFFFFF AND EQ PUSH2 0x546 JUMPI PUSH1 0x40 MLOAD PUSH32 0x8C379A000000000000000000000000000000000000000000000000000000000 DUP2 MSTORE PUSH1 0x4 ADD PUSH2 0x53D SWAP1 PUSH2 0x2C53 JUMP JUMPDEST PUSH1 0x40 MLOAD DUP1 SWAP2 SUB SWAP1 REVERT JUMPDEST DUP1 PUSH1 0x1 PUSH1 0x0 PUSH2 0x100 EXP DUP2 SLOAD DUP2 PUSH20 0xFFFFFFFFFFFFFFFFFFFFFFFFFFFFFFFFFFFFFFFF MUL NOT AND SWAP1 DUP4 PUSH20 0xFFFFFFFFFFFFFFFFFFFFFFFFFFFFFFFFFFFFFFFF AND MUL OR SWAP1 SSTORE POP POP JUMP JUMPDEST PUSH1 0x2 PUSH1 0x0 SWAP1 SLOAD SWAP1 PUSH2 0x100 EXP SWAP1 DIV PUSH20 0xFFFFFFFFFFFFFFFFFFFFFFFFFFFFFFFFFFFFFFFF AND DUP2 JUMP JUMPDEST PUSH1 0x0 DUP1 SLOAD SWAP1 PUSH2 0x100 EXP SWAP1 DIV PUSH20 0xFFFFFFFFFFFFFFFFFFFFFFFFFFFFFFFFFFFFFFFF AND PUSH20 0xFFFFFFFFFFFFFFFFFFFFFFFFFFFFFFFFFFFFFFFF AND CALLER PUSH20 0xFFFFFFFFFFFFFFFFFFFFFFFFFFFFFFFFFFFFFFFF AND EQ PUSH2 0x63E JUMPI PUSH1 0x40 MLOAD PUSH32 0x8C379A000000000000000000000000000000000000000000000000000000000 DUP2 MSTORE PUSH1 0x4 ADD PUSH2 0x635 SWAP1 PUSH2 0x2C53 JUMP JUMPDEST PUSH1 0x40 MLOAD DUP1 SWAP2 SUB SWAP1 REVERT JUMPDEST PUSH1 0x7 PUSH1 0x0 SWAP1 SLOAD SWAP1 PUSH2 0x100 EXP SWAP1 DIV PUSH20 0xFFFFFFFFFFFFFFFFFFFFFFFFFFFFFFFFFFFFFFFF AND PUSH20 0xFFFFFFFFFFFFFFFFFFFFFFFFFFFFFFFFFFFFFFFF AND PUSH2 0x8FC SELFBALANCE SWAP1 DUP2 ISZERO MUL SWAP1 PUSH1 0x40 MLOAD PUSH1 0x0 PUSH1 0x40 MLOAD DUP1 DUP4 SUB DUP2 DUP6 DUP9 DUP9 CALL SWAP4 POP POP POP POP ISZERO DUP1 ISZERO PUSH2 0x6A6 JUMPI RETURNDATASIZE PUSH1 0x0 DUP1 RETURNDATACOPY RETURNDATASIZE PUSH1 0x0 REVERT JUMPDEST POP JUMP JUMPDEST PUSH1 0x0 DUP1 SLOAD SWAP1 PUSH2 0x100 EXP SWAP1 DIV PUSH20 0xFFFFFFFFFFFFFFFFFFFFFFFFFFFFFFFFFFFFFFFF AND PUSH20 0xFFFFFFFFFFFFFFFFFFFFFFFFFFFFFFFFFFFFFFFF AND CALLER PUSH20 0xFFFFFFFFFFFFFFFFFFFFFFFFFFFFFFFFFFFFFFFF AND EQ DUP1 PUSH2 0x750 JUMPI POP PUSH1 0x1 PUSH1 0x0 SWAP1 SLOAD SWAP1 PUSH2 0x100 EXP SWAP1 DIV PUSH20 0xFFFFFFFFFFFFFFFFFFFFFFFFFFFFFFFFFFFFFFFF AND PUSH20 0xFFFFFFFFFFFFFFFFFFFFFFFFFFFFFFFFFFFFFFFF AND CALLER PUSH20 0xFFFFFFFFFFFFFFFFFFFFFFFFFFFFFFFFFFFFFFFF AND EQ JUMPDEST DUP1 PUSH2 0x7A8 JUMPI POP PUSH1 0x2 PUSH1 0x0 SWAP1 SLOAD SWAP1 PUSH2 0x100 EXP SWAP1 DIV PUSH20 0xFFFFFFFFFFFFFFFFFFFFFFFFFFFFFFFFFFFFFFFF AND PUSH20 0xFFFFFFFFFFFFFFFFFFFFFFFFFFFFFFFFFFFFFFFF AND CALLER PUSH20 0xFFFFFFFFFFFFFFFFFFFFFFFFFFFFFFFFFFFFFFFF AND EQ JUMPDEST DUP1 PUSH2 0x800 JUMPI POP PUSH1 0x3 PUSH1 0x0 SWAP1 SLOAD SWAP1 PUSH2 0x100 EXP SWAP1 DIV PUSH20 0xFFFFFFFFFFFFFFFFFFFFFFFFFFFFFFFFFFFFFFFF AND PUSH20 0xFFFFFFFFFFFFFFFFFFFFFFFFFFFFFFFFFFFFFFFF AND CALLER PUSH20 0xFFFFFFFFFFFFFFFFFFFFFFFFFFFFFFFFFFFFFFFF AND EQ JUMPDEST DUP1 PUSH2 0x854 JUMPI POP PUSH1 0x5 PUSH1 0x0 CALLER PUSH20 0xFFFFFFFFFFFFFFFFFFFFFFFFFFFFFFFFFFFFFFFF AND PUSH20 0xFFFFFFFFFFFFFFFFFFFFFFFFFFFFFFFFFFFFFFFF AND DUP2 MSTORE PUSH1 0x20 ADD SWAP1 DUP2 MSTORE PUSH1 0x20 ADD PUSH1 0x0 KECCAK256 PUSH1 0x0 SWAP1 SLOAD SWAP1 PUSH2 0x100 EXP SWAP1 DIV PUSH1 0xFF AND JUMPDEST PUSH2 0x893 JUMPI PUSH1 0x40 MLOAD PUSH32 0x8C379A000000000000000000000000000000000000000000000000000000000 DUP2 MSTORE PUSH1 0x4 ADD PUSH2 0x88A SWAP1 PUSH2 0x2CE5 JUMP JUMPDEST PUSH1 0x40 MLOAD DUP1 SWAP2 SUB SWAP1 REVERT JUMPDEST PUSH1 0x0 DUP2 EQ ISZERO PUSH2 0x8A1 JUMPI PUSH2 0x992 JUMP JUMPDEST DUP1 DUP3 PUSH1 0xA0 ADD DUP2 DUP2 MLOAD PUSH2 0x8B3 SWAP2 SWAP1 PUSH2 0x2D34 JUMP JUMPDEST SWAP2 POP DUP2 DUP2 MSTORE POP POP JUMPDEST PUSH2 0x8C8 DUP3 PUSH1 0x80 ADD MLOAD PUSH2 0x12B5 JUMP JUMPDEST DUP3 PUSH1 0xA0 ADD MLOAD LT PUSH2 0x988 JUMPI PUSH2 0x8DF DUP3 PUSH1 0x80 ADD MLOAD PUSH2 0x12B5 JUMP JUMPDEST DUP3 PUSH1 0xA0 ADD DUP2 DUP2 MLOAD PUSH2 0x8F0 SWAP2 SWAP1 PUSH2 0x2D8A JUMP JUMPDEST SWAP2 POP DUP2 DUP2 MSTORE POP POP PUSH1 0x1 DUP3 PUSH1 0x80 ADD DUP2 DUP2 MLOAD PUSH2 0x90A SWAP2 SWAP1 PUSH2 0x2D34 JUMP JUMPDEST SWAP2 POP DUP2 DUP2 MSTORE POP POP PUSH1 0x1 DUP3 PUSH1 0xC0 ADD DUP2 DUP2 MLOAD PUSH2 0x924 SWAP2 SWAP1 PUSH2 0x2D34 JUMP JUMPDEST SWAP2 POP DUP2 DUP2 MSTORE POP POP PUSH32 0x78E2D3F9D54F6B793C45A5D3D60AC4E6061FB0001EF5FEB0B67BC38FDDDF91C6 DUP3 PUSH1 0x80 ADD MLOAD DUP4 PUSH1 0xA0 ADD MLOAD PUSH2 0x963 DUP6 PUSH1 0x80 ADD MLOAD PUSH2 0x12B5 JUMP JUMPDEST PUSH1 0x1 DUP7 PUSH1 0xC0 ADD MLOAD PUSH1 0x40 MLOAD PUSH2 0x97B SWAP6 SWAP5 SWAP4 SWAP3 SWAP2 SWAP1 PUSH2 0x2E03 JUMP JUMPDEST PUSH1 0x40 MLOAD DUP1 SWAP2 SUB SWAP1 LOG1 PUSH2 0x8BB JUMP JUMPDEST PUSH2 0x991 DUP3 PUSH2 0x1CB6 JUMP JUMPDEST JUMPDEST POP POP JUMP JUMPDEST PUSH1 0x0 DUP1 SLOAD SWAP1 PUSH2 0x100 EXP SWAP1 DIV PUSH20 0xFFFFFFFFFFFFFFFFFFFFFFFFFFFFFFFFFFFFFFFF AND PUSH20 0xFFFFFFFFFFFFFFFFFFFFFFFFFFFFFFFFFFFFFFFF AND CALLER PUSH20 0xFFFFFFFFFFFFFFFFFFFFFFFFFFFFFFFFFFFFFFFF AND EQ DUP1 PUSH2 0xA3D JUMPI POP PUSH1 0x1 PUSH1 0x0 SWAP1 SLOAD SWAP1 PUSH2 0x100 EXP SWAP1 DIV PUSH20 0xFFFFFFFFFFFFFFFFFFFFFFFFFFFFFFFFFFFFFFFF AND PUSH20 0xFFFFFFFFFFFFFFFFFFFFFFFFFFFFFFFFFFFFFFFF AND CALLER PUSH20 0xFFFFFFFFFFFFFFFFFFFFFFFFFFFFFFFFFFFFFFFF AND EQ JUMPDEST DUP1 PUSH2 0xA95 JUMPI POP PUSH1 0x2 PUSH1 0x0 SWAP1 SLOAD SWAP1 PUSH2 0x100 EXP SWAP1 DIV PUSH20 0xFFFFFFFFFFFFFFFFFFFFFFFFFFFFFFFFFFFFFFFF AND PUSH20 0xFFFFFFFFFFFFFFFFFFFFFFFFFFFFFFFFFFFFFFFF AND CALLER PUSH20 0xFFFFFFFFFFFFFFFFFFFFFFFFFFFFFFFFFFFFFFFF AND EQ JUMPDEST DUP1 PUSH2 0xAED JUMPI POP PUSH1 0x3 PUSH1 0x0 SWAP1 SLOAD SWAP1 PUSH2 0x100 EXP SWAP1 DIV PUSH20 0xFFFFFFFFFFFFFFFFFFFFFFFFFFFFFFFFFFFFFFFF AND PUSH20 0xFFFFFFFFFFFFFFFFFFFFFFFFFFFFFFFFFFFFFFFF AND CALLER PUSH20 0xFFFFFFFFFFFFFFFFFFFFFFFFFFFFFFFFFFFFFFFF AND EQ JUMPDEST DUP1 PUSH2 0xB41 JUMPI POP PUSH1 0x5 PUSH1 0x0 CALLER PUSH20 0xFFFFFFFFFFFFFFFFFFFFFFFFFFFFFFFFFFFFFFFF AND PUSH20 0xFFFFFFFFFFFFFFFFFFFFFFFFFFFFFFFFFFFFFFFF AND DUP2 MSTORE PUSH1 0x20 ADD SWAP1 DUP2 MSTORE PUSH1 0x20 ADD PUSH1 0x0 KECCAK256 PUSH1 0x0 SWAP1 SLOAD SWAP1 PUSH2 0x100 EXP SWAP1 DIV PUSH1 0xFF AND JUMPDEST PUSH2 0xB80 JUMPI PUSH1 0x40 MLOAD PUSH32 0x8C379A000000000000000000000000000000000000000000000000000000000 DUP2 MSTORE PUSH1 0x4 ADD PUSH2 0xB77 SWAP1 PUSH2 0x2CE5 JUMP JUMPDEST PUSH1 0x40 MLOAD DUP1 SWAP2 SUB SWAP1 REVERT JUMPDEST PUSH1 0x0 PUSH1 0x8 PUSH1 0x0 DUP7 PUSH20 0xFFFFFFFFFFFFFFFFFFFFFFFFFFFFFFFFFFFFFFFF AND PUSH20 0xFFFFFFFFFFFFFFFFFFFFFFFFFFFFFFFFFFFFFFFF AND DUP2 MSTORE PUSH1 0x20 ADD SWAP1 DUP2 MSTORE PUSH1 0x20 ADD PUSH1 0x0 KECCAK256 PUSH1 0x0 DUP6 DUP2 MSTORE PUSH1 0x20 ADD SWAP1 DUP2 MSTORE PUSH1 0x20 ADD PUSH1 0x0 KECCAK256 PUSH1 0x40 MLOAD DUP1 PUSH2 0x120 ADD PUSH1 0x40 MSTORE SWAP1 DUP2 PUSH1 0x0 DUP3 ADD PUSH1 0x0 SWAP1 SLOAD SWAP1 PUSH2 0x100 EXP SWAP1 DIV PUSH1 0xFF AND ISZERO ISZERO ISZERO ISZERO DUP2 MSTORE PUSH1 0x20 ADD PUSH1 0x0 DUP3 ADD PUSH1 0x1 SWAP1 SLOAD SWAP1 PUSH2 0x100 EXP SWAP1 DIV PUSH20 0xFFFFFFFFFFFFFFFFFFFFFFFFFFFFFFFFFFFFFFFF AND PUSH20 0xFFFFFFFFFFFFFFFFFFFFFFFFFFFFFFFFFFFFFFFF AND PUSH20 0xFFFFFFFFFFFFFFFFFFFFFFFFFFFFFFFFFFFFFFFF AND DUP2 MSTORE PUSH1 0x20 ADD PUSH1 0x1 DUP3 ADD SLOAD DUP2 MSTORE PUSH1 0x20 ADD PUSH1 0x2 DUP3 ADD PUSH1 0x0 SWAP1 SLOAD SWAP1 PUSH2 0x100 EXP SWAP1 DIV PUSH20 0xFFFFFFFFFFFFFFFFFFFFFFFFFFFFFFFFFFFFFFFF AND PUSH20 0xFFFFFFFFFFFFFFFFFFFFFFFFFFFFFFFFFFFFFFFF AND PUSH20 0xFFFFFFFFFFFFFFFFFFFFFFFFFFFFFFFFFFFFFFFF AND DUP2 MSTORE PUSH1 0x20 ADD PUSH1 0x3 DUP3 ADD SLOAD DUP2 MSTORE PUSH1 0x20 ADD PUSH1 0x4 DUP3 ADD SLOAD DUP2 MSTORE PUSH1 0x20 ADD PUSH1 0x5 DUP3 ADD SLOAD DUP2 MSTORE PUSH1 0x20 ADD PUSH1 0x6 DUP3 ADD PUSH1 0x40 MLOAD DUP1 PUSH2 0x100 ADD PUSH1 0x40 MSTORE SWAP1 DUP2 PUSH1 0x0 DUP3 ADD SLOAD DUP2 MSTORE PUSH1 0x20 ADD PUSH1 0x1 DUP3 ADD SLOAD DUP2 MSTORE PUSH1 0x20 ADD PUSH1 0x2 DUP3 ADD SLOAD DUP2 MSTORE PUSH1 0x20 ADD PUSH1 0x3 DUP3 ADD SLOAD DUP2 MSTORE PUSH1 0x20 ADD PUSH1 0x4 DUP3 ADD SLOAD DUP2 MSTORE PUSH1 0x20 ADD PUSH1 0x5 DUP3 ADD SLOAD DUP2 MSTORE PUSH1 0x20 ADD PUSH1 0x6 DUP3 ADD SLOAD DUP2 MSTORE PUSH1 0x20 ADD PUSH1 0x7 DUP3 ADD SLOAD DUP2 MSTORE POP POP DUP2 MSTORE PUSH1 0x20 ADD PUSH1 0xE DUP3 ADD PUSH1 0x40 MLOAD DUP1 PUSH1 0x60 ADD PUSH1 0x40 MSTORE SWAP1 DUP2 PUSH1 0x0 DUP3 ADD SLOAD DUP2 MSTORE PUSH1 0x20 ADD PUSH1 0x1 DUP3 ADD SLOAD DUP2 MSTORE PUSH1 0x20 ADD PUSH1 0x2 DUP3 ADD SLOAD DUP2 MSTORE POP POP DUP2 MSTORE POP POP SWAP1 POP PUSH2 0xD71 DUP2 DUP5 DUP5 PUSH2 0x1E70 JUMP JUMPDEST PUSH32 0x27AA9482C22097B6E7B888415F9A482138D8D0E132DCBED1C1075B382CC438B3 DUP2 PUSH1 0xE0 ADD MLOAD DUP3 PUSH1 0xC0 ADD MLOAD PUSH1 0x40 MLOAD PUSH2 0xDAA SWAP3 SWAP2 SWAP1 PUSH2 0x2EF8 JUMP JUMPDEST PUSH1 0x40 MLOAD DUP1 SWAP2 SUB SWAP1 LOG1 POP POP POP POP POP JUMP JUMPDEST PUSH1 0x7 PUSH1 0x0 SWAP1 SLOAD SWAP1 PUSH2 0x100 EXP SWAP1 DIV PUSH20 0xFFFFFFFFFFFFFFFFFFFFFFFFFFFFFFFFFFFFFFFF AND DUP2 JUMP JUMPDEST PUSH1 0x5 PUSH1 0x20 MSTORE DUP1 PUSH1 0x0 MSTORE PUSH1 0x40 PUSH1 0x0 KECCAK256 PUSH1 0x0 SWAP2 POP SLOAD SWAP1 PUSH2 0x100 EXP SWAP1 DIV PUSH1 0xFF AND DUP2 JUMP JUMPDEST PUSH1 0x1 PUSH1 0x0 SWAP1 SLOAD SWAP1 PUSH2 0x100 EXP SWAP1 DIV PUSH20 0xFFFFFFFFFFFFFFFFFFFFFFFFFFFFFFFFFFFFFFFF AND DUP2 JUMP JUMPDEST PUSH1 0x0 DUP1 SLOAD SWAP1 PUSH2 0x100 EXP SWAP1 DIV PUSH20 0xFFFFFFFFFFFFFFFFFFFFFFFFFFFFFFFFFFFFFFFF AND PUSH20 0xFFFFFFFFFFFFFFFFFFFFFFFFFFFFFFFFFFFFFFFF AND CALLER PUSH20 0xFFFFFFFFFFFFFFFFFFFFFFFFFFFFFFFFFFFFFFFF AND EQ PUSH2 0xEB3 JUMPI PUSH1 0x40 MLOAD PUSH32 0x8C379A000000000000000000000000000000000000000000000000000000000 DUP2 MSTORE PUSH1 0x4 ADD PUSH2 0xEAA SWAP1 PUSH2 0x2C53 JUMP JUMPDEST PUSH1 0x40 MLOAD DUP1 SWAP2 SUB SWAP1 REVERT JUMPDEST DUP1 PUSH1 0x4 PUSH1 0x0 PUSH2 0x100 EXP DUP2 SLOAD DUP2 PUSH20 0xFFFFFFFFFFFFFFFFFFFFFFFFFFFFFFFFFFFFFFFF MUL NOT AND SWAP1 DUP4 PUSH20 0xFFFFFFFFFFFFFFFFFFFFFFFFFFFFFFFFFFFFFFFF AND MUL OR SWAP1 SSTORE POP POP JUMP JUMPDEST PUSH1 0x0 DUP1 SLOAD SWAP1 PUSH2 0x100 EXP SWAP1 DIV PUSH20 0xFFFFFFFFFFFFFFFFFFFFFFFFFFFFFFFFFFFFFFFF AND PUSH20 0xFFFFFFFFFFFFFFFFFFFFFFFFFFFFFFFFFFFFFFFF AND CALLER PUSH20 0xFFFFFFFFFFFFFFFFFFFFFFFFFFFFFFFFFFFFFFFF AND EQ DUP1 PUSH2 0xF9E JUMPI POP PUSH1 0x1 PUSH1 0x0 SWAP1 SLOAD SWAP1 PUSH2 0x100 EXP SWAP1 DIV PUSH20 0xFFFFFFFFFFFFFFFFFFFFFFFFFFFFFFFFFFFFFFFF AND PUSH20 0xFFFFFFFFFFFFFFFFFFFFFFFFFFFFFFFFFFFFFFFF AND CALLER PUSH20 0xFFFFFFFFFFFFFFFFFFFFFFFFFFFFFFFFFFFFFFFF AND EQ JUMPDEST DUP1 PUSH2 0xFF6 JUMPI POP PUSH1 0x2 PUSH1 0x0 SWAP1 SLOAD SWAP1 PUSH2 0x100 EXP SWAP1 DIV PUSH20 0xFFFFFFFFFFFFFFFFFFFFFFFFFFFFFFFFFFFFFFFF AND PUSH20 0xFFFFFFFFFFFFFFFFFFFFFFFFFFFFFFFFFFFFFFFF AND CALLER PUSH20 0xFFFFFFFFFFFFFFFFFFFFFFFFFFFFFFFFFFFFFFFF AND EQ JUMPDEST DUP1 PUSH2 0x104E JUMPI POP PUSH1 0x3 PUSH1 0x0 SWAP1 SLOAD SWAP1 PUSH2 0x100 EXP SWAP1 DIV PUSH20 0xFFFFFFFFFFFFFFFFFFFFFFFFFFFFFFFFFFFFFFFF AND PUSH20 0xFFFFFFFFFFFFFFFFFFFFFFFFFFFFFFFFFFFFFFFF AND CALLER PUSH20 0xFFFFFFFFFFFFFFFFFFFFFFFFFFFFFFFFFFFFFFFF AND EQ JUMPDEST DUP1 PUSH2 0x10A2 JUMPI POP PUSH1 0x5 PUSH1 0x0 CALLER PUSH20 0xFFFFFFFFFFFFFFFFFFFFFFFFFFFFFFFFFFFFFFFF AND PUSH20 0xFFFFFFFFFFFFFFFFFFFFFFFFFFFFFFFFFFFFFFFF AND DUP2 MSTORE PUSH1 0x20 ADD SWAP1 DUP2 MSTORE PUSH1 0x20 ADD PUSH1 0x0 KECCAK256 PUSH1 0x0 SWAP1 SLOAD SWAP1 PUSH2 0x100 EXP SWAP1 DIV PUSH1 0xFF AND JUMPDEST PUSH2 0x10E1 JUMPI PUSH1 0x40 MLOAD PUSH32 0x8C379A000000000000000000000000000000000000000000000000000000000 DUP2 MSTORE PUSH1 0x4 ADD PUSH2 0x10D8 SWAP1 PUSH2 0x2CE5 JUMP JUMPDEST PUSH1 0x40 MLOAD DUP1 SWAP2 SUB SWAP1 REVERT JUMPDEST PUSH2 0x10EA DUP2 PUSH2 0x1CB6 JUMP JUMPDEST POP JUMP JUMPDEST PUSH1 0x0 DUP1 SLOAD SWAP1 PUSH2 0x100 EXP SWAP1 DIV PUSH20 0xFFFFFFFFFFFFFFFFFFFFFFFFFFFFFFFFFFFFFFFF AND PUSH20 0xFFFFFFFFFFFFFFFFFFFFFFFFFFFFFFFFFFFFFFFF AND CALLER PUSH20 0xFFFFFFFFFFFFFFFFFFFFFFFFFFFFFFFFFFFFFFFF AND EQ PUSH2 0x117B JUMPI PUSH1 0x40 MLOAD PUSH32 0x8C379A000000000000000000000000000000000000000000000000000000000 DUP2 MSTORE PUSH1 0x4 ADD PUSH2 0x1172 SWAP1 PUSH2 0x2C53 JUMP JUMPDEST PUSH1 0x40 MLOAD DUP1 SWAP2 SUB SWAP1 REVERT JUMPDEST DUP1 PUSH1 0x2 PUSH1 0x0 PUSH2 0x100 EXP DUP2 SLOAD DUP2 PUSH20 0xFFFFFFFFFFFFFFFFFFFFFFFFFFFFFFFFFFFFFFFF MUL NOT AND SWAP1 DUP4 PUSH20 0xFFFFFFFFFFFFFFFFFFFFFFFFFFFFFFFFFFFFFFFF AND MUL OR SWAP1 SSTORE POP POP JUMP JUMPDEST PUSH1 0x0 DUP1 SLOAD SWAP1 PUSH2 0x100 EXP SWAP1 DIV PUSH20 0xFFFFFFFFFFFFFFFFFFFFFFFFFFFFFFFFFFFFFFFF AND PUSH20 0xFFFFFFFFFFFFFFFFFFFFFFFFFFFFFFFFFFFFFFFF AND CALLER PUSH20 0xFFFFFFFFFFFFFFFFFFFFFFFFFFFFFFFFFFFFFFFF AND EQ PUSH2 0x124D JUMPI PUSH1 0x40 MLOAD PUSH32 0x8C379A000000000000000000000000000000000000000000000000000000000 DUP2 MSTORE PUSH1 0x4 ADD PUSH2 0x1244 SWAP1 PUSH2 0x2C53 JUMP JUMPDEST PUSH1 0x40 MLOAD DUP1 SWAP2 SUB SWAP1 REVERT JUMPDEST DUP1 PUSH1 0x7 PUSH1 0x0 PUSH2 0x100 EXP DUP2 SLOAD DUP2 PUSH20 0xFFFFFFFFFFFFFFFFFFFFFFFFFFFFFFFFFFFFFFFF MUL NOT AND SWAP1 DUP4 PUSH20 0xFFFFFFFFFFFFFFFFFFFFFFFFFFFFFFFFFFFFFFFF AND MUL OR SWAP1 SSTORE POP POP JUMP JUMPDEST PUSH1 0x0 DUP1 SLOAD SWAP1 PUSH2 0x100 EXP SWAP1 DIV PUSH20 0xFFFFFFFFFFFFFFFFFFFFFFFFFFFFFFFFFFFFFFFF AND DUP2 JUMP JUMPDEST PUSH1 0x0 DUP1 DUP3 GT PUSH2 0x12F9 JUMPI PUSH1 0x40 MLOAD PUSH32 0x8C379A000000000000000000000000000000000000000000000000000000000 DUP2 MSTORE PUSH1 0x4 ADD PUSH2 0x12F0 SWAP1 PUSH2 0x2F95 JUMP JUMPDEST PUSH1 0x40 MLOAD DUP1 SWAP2 SUB SWAP1 REVERT JUMPDEST PUSH1 0x9 DUP1 SLOAD SWAP1 POP DUP3 LT ISZERO PUSH2 0x1338 JUMPI PUSH1 0x9 PUSH1 0x1 DUP4 PUSH2 0x1315 SWAP2 SWAP1 PUSH2 0x2D8A JUMP JUMPDEST DUP2 SLOAD DUP2 LT PUSH2 0x1326 JUMPI PUSH2 0x1325 PUSH2 0x2FB5 JUMP JUMPDEST JUMPDEST SWAP1 PUSH1 0x0 MSTORE PUSH1 0x20 PUSH1 0x0 KECCAK256 ADD SLOAD SWAP1 POP PUSH2 0x1392 JUMP JUMPDEST PUSH1 0x9 DUP1 SLOAD SWAP1 POP DUP3 PUSH2 0x1349 SWAP2 SWAP1 PUSH2 0x2D8A JUMP JUMPDEST PUSH1 0xA PUSH2 0x1355 SWAP2 SWAP1 PUSH2 0x2FE4 JUMP JUMPDEST PUSH1 0x9 PUSH1 0x1 PUSH1 0x9 DUP1 SLOAD SWAP1 POP PUSH2 0x1369 SWAP2 SWAP1 PUSH2 0x2D8A JUMP JUMPDEST DUP2 SLOAD DUP2 LT PUSH2 0x137A JUMPI PUSH2 0x1379 PUSH2 0x2FB5 JUMP JUMPDEST JUMPDEST SWAP1 PUSH1 0x0 MSTORE PUSH1 0x20 PUSH1 0x0 KECCAK256 ADD SLOAD PUSH2 0x138F SWAP2 SWAP1 PUSH2 0x2D34 JUMP JUMPDEST SWAP1 POP JUMPDEST SWAP2 SWAP1 POP JUMP JUMPDEST PUSH1 0x4 PUSH1 0x0 SWAP1 SLOAD SWAP1 PUSH2 0x100 EXP SWAP1 DIV PUSH20 0xFFFFFFFFFFFFFFFFFFFFFFFFFFFFFFFFFFFFFFFF AND DUP2 JUMP JUMPDEST PUSH1 0x6 PUSH1 0x0 SWAP1 SLOAD SWAP1 PUSH2 0x100 EXP SWAP1 DIV PUSH20 0xFFFFFFFFFFFFFFFFFFFFFFFFFFFFFFFFFFFFFFFF AND DUP2 JUMP JUMPDEST PUSH1 0x0 DUP1 SLOAD SWAP1 PUSH2 0x100 EXP SWAP1 DIV PUSH20 0xFFFFFFFFFFFFFFFFFFFFFFFFFFFFFFFFFFFFFFFF AND PUSH20 0xFFFFFFFFFFFFFFFFFFFFFFFFFFFFFFFFFFFFFFFF AND CALLER PUSH20 0xFFFFFFFFFFFFFFFFFFFFFFFFFFFFFFFFFFFFFFFF AND EQ PUSH2 0x1471 JUMPI PUSH1 0x40 MLOAD PUSH32 0x8C379A000000000000000000000000000000000000000000000000000000000 DUP2 MSTORE PUSH1 0x4 ADD PUSH2 0x1468 SWAP1 PUSH2 0x2C53 JUMP JUMPDEST PUSH1 0x40 MLOAD DUP1 SWAP2 SUB SWAP1 REVERT JUMPDEST DUP1 PUSH1 0x6 PUSH1 0x0 PUSH2 0x100 EXP DUP2 SLOAD DUP2 PUSH20 0xFFFFFFFFFFFFFFFFFFFFFFFFFFFFFFFFFFFFFFFF MUL NOT AND SWAP1 DUP4 PUSH20 0xFFFFFFFFFFFFFFFFFFFFFFFFFFFFFFFFFFFFFFFF AND MUL OR SWAP1 SSTORE POP POP JUMP JUMPDEST PUSH1 0x0 DUP1 SLOAD SWAP1 PUSH2 0x100 EXP SWAP1 DIV PUSH20 0xFFFFFFFFFFFFFFFFFFFFFFFFFFFFFFFFFFFFFFFF AND PUSH20 0xFFFFFFFFFFFFFFFFFFFFFFFFFFFFFFFFFFFFFFFF AND CALLER PUSH20 0xFFFFFFFFFFFFFFFFFFFFFFFFFFFFFFFFFFFFFFFF AND EQ PUSH2 0x1543 JUMPI PUSH1 0x40 MLOAD PUSH32 0x8C379A000000000000000000000000000000000000000000000000000000000 DUP2 MSTORE PUSH1 0x4 ADD PUSH2 0x153A SWAP1 PUSH2 0x2C53 JUMP JUMPDEST PUSH1 0x40 MLOAD DUP1 SWAP2 SUB SWAP1 REVERT JUMPDEST DUP1 PUSH1 0x0 DUP1 PUSH2 0x100 EXP DUP2 SLOAD DUP2 PUSH20 0xFFFFFFFFFFFFFFFFFFFFFFFFFFFFFFFFFFFFFFFF MUL NOT AND SWAP1 DUP4 PUSH20 0xFFFFFFFFFFFFFFFFFFFFFFFFFFFFFFFFFFFFFFFF AND MUL OR SWAP1 SSTORE POP POP JUMP JUMPDEST PUSH1 0x3 PUSH1 0x0 SWAP1 SLOAD SWAP1 PUSH2 0x100 EXP SWAP1 DIV PUSH20 0xFFFFFFFFFFFFFFFFFFFFFFFFFFFFFFFFFFFFFFFF AND DUP2 JUMP JUMPDEST PUSH2 0x15B4 PUSH2 0x2345 JUMP JUMPDEST PUSH2 0x15BE DUP4 DUP4 PUSH2 0x2018 JUMP JUMPDEST SWAP1 POP SWAP3 SWAP2 POP POP JUMP JUMPDEST PUSH1 0x0 DUP1 SLOAD SWAP1 PUSH2 0x100 EXP SWAP1 DIV PUSH20 0xFFFFFFFFFFFFFFFFFFFFFFFFFFFFFFFFFFFFFFFF AND PUSH20 0xFFFFFFFFFFFFFFFFFFFFFFFFFFFFFFFFFFFFFFFF AND CALLER PUSH20 0xFFFFFFFFFFFFFFFFFFFFFFFFFFFFFFFFFFFFFFFF AND EQ DUP1 PUSH2 0x166D JUMPI POP PUSH1 0x1 PUSH1 0x0 SWAP1 SLOAD SWAP1 PUSH2 0x100 EXP SWAP1 DIV PUSH20 0xFFFFFFFFFFFFFFFFFFFFFFFFFFFFFFFFFFFFFFFF AND PUSH20 0xFFFFFFFFFFFFFFFFFFFFFFFFFFFFFFFFFFFFFFFF AND CALLER PUSH20 0xFFFFFFFFFFFFFFFFFFFFFFFFFFFFFFFFFFFFFFFF AND EQ JUMPDEST DUP1 PUSH2 0x16C5 JUMPI POP PUSH1 0x2 PUSH1 0x0 SWAP1 SLOAD SWAP1 PUSH2 0x100 EXP SWAP1 DIV PUSH20 0xFFFFFFFFFFFFFFFFFFFFFFFFFFFFFFFFFFFFFFFF AND PUSH20 0xFFFFFFFFFFFFFFFFFFFFFFFFFFFFFFFFFFFFFFFF AND CALLER PUSH20 0xFFFFFFFFFFFFFFFFFFFFFFFFFFFFFFFFFFFFFFFF AND EQ JUMPDEST DUP1 PUSH2 0x171D JUMPI POP PUSH1 0x3 PUSH1 0x0 SWAP1 SLOAD SWAP1 PUSH2 0x100 EXP SWAP1 DIV PUSH20 0xFFFFFFFFFFFFFFFFFFFFFFFFFFFFFFFFFFFFFFFF AND PUSH20 0xFFFFFFFFFFFFFFFFFFFFFFFFFFFFFFFFFFFFFFFF AND CALLER PUSH20 0xFFFFFFFFFFFFFFFFFFFFFFFFFFFFFFFFFFFFFFFF AND EQ JUMPDEST DUP1 PUSH2 0x1771 JUMPI POP PUSH1 0x5 PUSH1 0x0 CALLER PUSH20 0xFFFFFFFFFFFFFFFFFFFFFFFFFFFFFFFFFFFFFFFF AND PUSH20 0xFFFFFFFFFFFFFFFFFFFFFFFFFFFFFFFFFFFFFFFF AND DUP2 MSTORE PUSH1 0x20 ADD SWAP1 DUP2 MSTORE PUSH1 0x20 ADD PUSH1 0x0 KECCAK256 PUSH1 0x0 SWAP1 SLOAD SWAP1 PUSH2 0x100 EXP SWAP1 DIV PUSH1 0xFF AND JUMPDEST PUSH2 0x17B0 JUMPI PUSH1 0x40 MLOAD PUSH32 0x8C379A000000000000000000000000000000000000000000000000000000000 DUP2 MSTORE PUSH1 0x4 ADD PUSH2 0x17A7 SWAP1 PUSH2 0x2CE5 JUMP JUMPDEST PUSH1 0x40 MLOAD DUP1 SWAP2 SUB SWAP1 REVERT JUMPDEST CALLER DUP4 DUP4 PUSH1 0x0 PUSH1 0x8 PUSH1 0x0 DUP5 PUSH20 0xFFFFFFFFFFFFFFFFFFFFFFFFFFFFFFFFFFFFFFFF AND PUSH20 0xFFFFFFFFFFFFFFFFFFFFFFFFFFFFFFFFFFFFFFFF AND DUP2 MSTORE PUSH1 0x20 ADD SWAP1 DUP2 MSTORE PUSH1 0x20 ADD PUSH1 0x0 KECCAK256 PUSH1 0x0 DUP4 DUP2 MSTORE PUSH1 0x20 ADD SWAP1 DUP2 MSTORE PUSH1 0x20 ADD PUSH1 0x0 KECCAK256 PUSH1 0x40 MLOAD DUP1 PUSH2 0x120 ADD PUSH1 0x40 MSTORE SWAP1 DUP2 PUSH1 0x0 DUP3 ADD PUSH1 0x0 SWAP1 SLOAD SWAP1 PUSH2 0x100 EXP SWAP1 DIV PUSH1 0xFF AND ISZERO ISZERO ISZERO ISZERO DUP2 MSTORE PUSH1 0x20 ADD PUSH1 0x0 DUP3 ADD PUSH1 0x1 SWAP1 SLOAD SWAP1 PUSH2 0x100 EXP SWAP1 DIV PUSH20 0xFFFFFFFFFFFFFFFFFFFFFFFFFFFFFFFFFFFFFFFF AND PUSH20 0xFFFFFFFFFFFFFFFFFFFFFFFFFFFFFFFFFFFFFFFF AND PUSH20 0xFFFFFFFFFFFFFFFFFFFFFFFFFFFFFFFFFFFFFFFF AND DUP2 MSTORE PUSH1 0x20 ADD PUSH1 0x1 DUP3 ADD SLOAD DUP2 MSTORE PUSH1 0x20 ADD PUSH1 0x2 DUP3 ADD PUSH1 0x0 SWAP1 SLOAD SWAP1 PUSH2 0x100 EXP SWAP1 DIV PUSH20 0xFFFFFFFFFFFFFFFFFFFFFFFFFFFFFFFFFFFFFFFF AND PUSH20 0xFFFFFFFFFFFFFFFFFFFFFFFFFFFFFFFFFFFFFFFF AND PUSH20 0xFFFFFFFFFFFFFFFFFFFFFFFFFFFFFFFFFFFFFFFF AND DUP2 MSTORE PUSH1 0x20 ADD PUSH1 0x3 DUP3 ADD SLOAD DUP2 MSTORE PUSH1 0x20 ADD PUSH1 0x4 DUP3 ADD SLOAD DUP2 MSTORE PUSH1 0x20 ADD PUSH1 0x5 DUP3 ADD SLOAD DUP2 MSTORE PUSH1 0x20 ADD PUSH1 0x6 DUP3 ADD PUSH1 0x40 MLOAD DUP1 PUSH2 0x100 ADD PUSH1 0x40 MSTORE SWAP1 DUP2 PUSH1 0x0 DUP3 ADD SLOAD DUP2 MSTORE PUSH1 0x20 ADD PUSH1 0x1 DUP3 ADD SLOAD DUP2 MSTORE PUSH1 0x20 ADD PUSH1 0x2 DUP3 ADD SLOAD DUP2 MSTORE PUSH1 0x20 ADD PUSH1 0x3 DUP3 ADD SLOAD DUP2 MSTORE PUSH1 0x20 ADD PUSH1 0x4 DUP3 ADD SLOAD DUP2 MSTORE PUSH1 0x20 ADD PUSH1 0x5 DUP3 ADD SLOAD DUP2 MSTORE PUSH1 0x20 ADD PUSH1 0x6 DUP3 ADD SLOAD DUP2 MSTORE PUSH1 0x20 ADD PUSH1 0x7 DUP3 ADD SLOAD DUP2 MSTORE POP POP DUP2 MSTORE PUSH1 0x20 ADD PUSH1 0xE DUP3 ADD PUSH1 0x40 MLOAD DUP1 PUSH1 0x60 ADD PUSH1 0x40 MSTORE SWAP1 DUP2 PUSH1 0x0 DUP3 ADD SLOAD DUP2 MSTORE PUSH1 0x20 ADD PUSH1 0x1 DUP3 ADD SLOAD DUP2 MSTORE PUSH1 0x20 ADD PUSH1 0x2 DUP3 ADD SLOAD DUP2 MSTORE POP POP DUP2 MSTORE POP POP SWAP1 POP PUSH1 0x0 DUP2 PUSH1 0xC0 ADD MLOAD GT PUSH2 0x19E0 JUMPI PUSH1 0x40 MLOAD PUSH32 0x8C379A000000000000000000000000000000000000000000000000000000000 DUP2 MSTORE PUSH1 0x4 ADD PUSH2 0x19D7 SWAP1 PUSH2 0x308A JUMP JUMPDEST PUSH1 0x40 MLOAD DUP1 SWAP2 SUB SWAP1 REVERT JUMPDEST PUSH1 0x0 PUSH1 0x4 DUP2 GT ISZERO PUSH2 0x19F4 JUMPI PUSH2 0x19F3 PUSH2 0x30AA JUMP JUMPDEST JUMPDEST DUP6 PUSH1 0x4 DUP2 GT ISZERO PUSH2 0x1A07 JUMPI PUSH2 0x1A06 PUSH2 0x30AA JUMP JUMPDEST JUMPDEST LT ISZERO DUP1 ISZERO PUSH2 0x1A3A JUMPI POP PUSH1 0x2 PUSH1 0x4 DUP2 GT ISZERO PUSH2 0x1A24 JUMPI PUSH2 0x1A23 PUSH2 0x30AA JUMP JUMPDEST JUMPDEST DUP6 PUSH1 0x4 DUP2 GT ISZERO PUSH2 0x1A37 JUMPI PUSH2 0x1A36 PUSH2 0x30AA JUMP JUMPDEST JUMPDEST GT ISZERO JUMPDEST PUSH2 0x1A79 JUMPI PUSH1 0x40 MLOAD PUSH32 0x8C379A000000000000000000000000000000000000000000000000000000000 DUP2 MSTORE PUSH1 0x4 ADD PUSH2 0x1A70 SWAP1 PUSH2 0x3125 JUMP JUMPDEST PUSH1 0x40 MLOAD DUP1 SWAP2 SUB SWAP1 REVERT JUMPDEST PUSH1 0x0 PUSH1 0x8 PUSH1 0x0 DUP10 PUSH20 0xFFFFFFFFFFFFFFFFFFFFFFFFFFFFFFFFFFFFFFFF AND PUSH20 0xFFFFFFFFFFFFFFFFFFFFFFFFFFFFFFFFFFFFFFFF AND DUP2 MSTORE PUSH1 0x20 ADD SWAP1 DUP2 MSTORE PUSH1 0x20 ADD PUSH1 0x0 KECCAK256 PUSH1 0x0 DUP9 DUP2 MSTORE PUSH1 0x20 ADD SWAP1 DUP2 MSTORE PUSH1 0x20 ADD PUSH1 0x0 KECCAK256 PUSH1 0x40 MLOAD DUP1 PUSH2 0x120 ADD PUSH1 0x40 MSTORE SWAP1 DUP2 PUSH1 0x0 DUP3 ADD PUSH1 0x0 SWAP1 SLOAD SWAP1 PUSH2 0x100 EXP SWAP1 DIV PUSH1 0xFF AND ISZERO ISZERO ISZERO ISZERO DUP2 MSTORE PUSH1 0x20 ADD PUSH1 0x0 DUP3 ADD PUSH1 0x1 SWAP1 SLOAD SWAP1 PUSH2 0x100 EXP SWAP1 DIV PUSH20 0xFFFFFFFFFFFFFFFFFFFFFFFFFFFFFFFFFFFFFFFF AND PUSH20 0xFFFFFFFFFFFFFFFFFFFFFFFFFFFFFFFFFFFFFFFF AND PUSH20 0xFFFFFFFFFFFFFFFFFFFFFFFFFFFFFFFFFFFFFFFF AND DUP2 MSTORE PUSH1 0x20 ADD PUSH1 0x1 DUP3 ADD SLOAD DUP2 MSTORE PUSH1 0x20 ADD PUSH1 0x2 DUP3 ADD PUSH1 0x0 SWAP1 SLOAD SWAP1 PUSH2 0x100 EXP SWAP1 DIV PUSH20 0xFFFFFFFFFFFFFFFFFFFFFFFFFFFFFFFFFFFFFFFF AND PUSH20 0xFFFFFFFFFFFFFFFFFFFFFFFFFFFFFFFFFFFFFFFF AND PUSH20 0xFFFFFFFFFFFFFFFFFFFFFFFFFFFFFFFFFFFFFFFF AND DUP2 MSTORE PUSH1 0x20 ADD PUSH1 0x3 DUP3 ADD SLOAD DUP2 MSTORE PUSH1 0x20 ADD PUSH1 0x4 DUP3 ADD SLOAD DUP2 MSTORE PUSH1 0x20 ADD PUSH1 0x5 DUP3 ADD SLOAD DUP2 MSTORE PUSH1 0x20 ADD PUSH1 0x6 DUP3 ADD PUSH1 0x40 MLOAD DUP1 PUSH2 0x100 ADD PUSH1 0x40 MSTORE SWAP1 DUP2 PUSH1 0x0 DUP3 ADD SLOAD DUP2 MSTORE PUSH1 0x20 ADD PUSH1 0x1 DUP3 ADD SLOAD DUP2 MSTORE PUSH1 0x20 ADD PUSH1 0x2 DUP3 ADD SLOAD DUP2 MSTORE PUSH1 0x20 ADD PUSH1 0x3 DUP3 ADD SLOAD DUP2 MSTORE PUSH1 0x20 ADD PUSH1 0x4 DUP3 ADD SLOAD DUP2 MSTORE PUSH1 0x20 ADD PUSH1 0x5 DUP3 ADD SLOAD DUP2 MSTORE PUSH1 0x20 ADD PUSH1 0x6 DUP3 ADD SLOAD DUP2 MSTORE PUSH1 0x20 ADD PUSH1 0x7 DUP3 ADD SLOAD DUP2 MSTORE POP POP DUP2 MSTORE PUSH1 0x20 ADD PUSH1 0xE DUP3 ADD PUSH1 0x40 MLOAD DUP1 PUSH1 0x60 ADD PUSH1 0x40 MSTORE SWAP1 DUP2 PUSH1 0x0 DUP3 ADD SLOAD DUP2 MSTORE PUSH1 0x20 ADD PUSH1 0x1 DUP3 ADD SLOAD DUP2 MSTORE PUSH1 0x20 ADD PUSH1 0x2 DUP3 ADD SLOAD DUP2 MSTORE POP POP DUP2 MSTORE POP POP SWAP1 POP PUSH2 0x1C6B DUP2 DUP8 PUSH1 0x1 PUSH2 0x1E70 JUMP JUMPDEST PUSH32 0x27AA9482C22097B6E7B888415F9A482138D8D0E132DCBED1C1075B382CC438B3 DUP2 PUSH1 0xE0 ADD MLOAD DUP3 PUSH1 0xC0 ADD MLOAD PUSH1 0x40 MLOAD PUSH2 0x1CA4 SWAP3 SWAP2 SWAP1 PUSH2 0x2EF8 JUMP JUMPDEST PUSH1 0x40 MLOAD DUP1 SWAP2 SUB SWAP1 LOG1 POP POP POP POP POP POP POP POP JUMP JUMPDEST DUP1 PUSH1 0x8 PUSH1 0x0 DUP4 PUSH1 0x20 ADD MLOAD PUSH20 0xFFFFFFFFFFFFFFFFFFFFFFFFFFFFFFFFFFFFFFFF AND PUSH20 0xFFFFFFFFFFFFFFFFFFFFFFFFFFFFFFFFFFFFFFFF AND DUP2 MSTORE PUSH1 0x20 ADD SWAP1 DUP2 MSTORE PUSH1 0x20 ADD PUSH1 0x0 KECCAK256 PUSH1 0x0 DUP4 PUSH1 0x40 ADD MLOAD DUP2 MSTORE PUSH1 0x20 ADD SWAP1 DUP2 MSTORE PUSH1 0x20 ADD PUSH1 0x0 KECCAK256 PUSH1 0x0 DUP3 ADD MLOAD DUP2 PUSH1 0x0 ADD PUSH1 0x0 PUSH2 0x100 EXP DUP2 SLOAD DUP2 PUSH1 0xFF MUL NOT AND SWAP1 DUP4 ISZERO ISZERO MUL OR SWAP1 SSTORE POP PUSH1 0x20 DUP3 ADD MLOAD DUP2 PUSH1 0x0 ADD PUSH1 0x1 PUSH2 0x100 EXP DUP2 SLOAD DUP2 PUSH20 0xFFFFFFFFFFFFFFFFFFFFFFFFFFFFFFFFFFFFFFFF MUL NOT AND SWAP1 DUP4 PUSH20 0xFFFFFFFFFFFFFFFFFFFFFFFFFFFFFFFFFFFFFFFF AND MUL OR SWAP1 SSTORE POP PUSH1 0x40 DUP3 ADD MLOAD DUP2 PUSH1 0x1 ADD SSTORE PUSH1 0x60 DUP3 ADD MLOAD DUP2 PUSH1 0x2 ADD PUSH1 0x0 PUSH2 0x100 EXP DUP2 SLOAD DUP2 PUSH20 0xFFFFFFFFFFFFFFFFFFFFFFFFFFFFFFFFFFFFFFFF MUL NOT AND SWAP1 DUP4 PUSH20 0xFFFFFFFFFFFFFFFFFFFFFFFFFFFFFFFFFFFFFFFF AND MUL OR SWAP1 SSTORE POP PUSH1 0x80 DUP3 ADD MLOAD DUP2 PUSH1 0x3 ADD SSTORE PUSH1 0xA0 DUP3 ADD MLOAD DUP2 PUSH1 0x4 ADD SSTORE PUSH1 0xC0 DUP3 ADD MLOAD DUP2 PUSH1 0x5 ADD SSTORE PUSH1 0xE0 DUP3 ADD MLOAD DUP2 PUSH1 0x6 ADD PUSH1 0x0 DUP3 ADD MLOAD DUP2 PUSH1 0x0 ADD SSTORE PUSH1 0x20 DUP3 ADD MLOAD DUP2 PUSH1 0x1 ADD SSTORE PUSH1 0x40 DUP3 ADD MLOAD DUP2 PUSH1 0x2 ADD SSTORE PUSH1 0x60 DUP3 ADD MLOAD DUP2 PUSH1 0x3 ADD SSTORE PUSH1 0x80 DUP3 ADD MLOAD DUP2 PUSH1 0x4 ADD SSTORE PUSH1 0xA0 DUP3 ADD MLOAD DUP2 PUSH1 0x5 ADD SSTORE PUSH1 0xC0 DUP3 ADD MLOAD DUP2 PUSH1 0x6 ADD SSTORE PUSH1 0xE0 DUP3 ADD MLOAD DUP2 PUSH1 0x7 ADD SSTORE POP POP PUSH2 0x100 DUP3 ADD MLOAD DUP2 PUSH1 0xE ADD PUSH1 0x0 DUP3 ADD MLOAD DUP2 PUSH1 0x0 ADD SSTORE PUSH1 0x20 DUP3 ADD MLOAD DUP2 PUSH1 0x1 ADD SSTORE PUSH1 0x40 DUP3 ADD MLOAD DUP2 PUSH1 0x2 ADD SSTORE POP POP SWAP1 POP POP POP JUMP JUMPDEST DUP1 DUP4 PUSH1 0xC0 ADD DUP2 DUP2 MLOAD PUSH2 0x1E82 SWAP2 SWAP1 PUSH2 0x2D8A JUMP JUMPDEST SWAP2 POP DUP2 DUP2 MSTORE POP POP PUSH1 0x0 PUSH1 0x4 DUP2 GT ISZERO PUSH2 0x1E9D JUMPI PUSH2 0x1E9C PUSH2 0x30AA JUMP JUMPDEST JUMPDEST DUP3 PUSH1 0x4 DUP2 GT ISZERO PUSH2 0x1EB0 JUMPI PUSH2 0x1EAF PUSH2 0x30AA JUMP JUMPDEST JUMPDEST EQ ISZERO PUSH2 0x1ED8 JUMPI DUP1 DUP4 PUSH1 0xE0 ADD MLOAD PUSH1 0x0 ADD DUP2 DUP2 MLOAD PUSH2 0x1ECC SWAP2 SWAP1 PUSH2 0x2D34 JUMP JUMPDEST SWAP2 POP DUP2 DUP2 MSTORE POP POP PUSH2 0x2013 JUMP JUMPDEST PUSH1 0x1 PUSH1 0x4 DUP2 GT ISZERO PUSH2 0x1EEC JUMPI PUSH2 0x1EEB PUSH2 0x30AA JUMP JUMPDEST JUMPDEST DUP3 PUSH1 0x4 DUP2 GT ISZERO PUSH2 0x1EFF JUMPI PUSH2 0x1EFE PUSH2 0x30AA JUMP JUMPDEST JUMPDEST EQ ISZERO PUSH2 0x1F27 JUMPI DUP1 DUP4 PUSH1 0xE0 ADD MLOAD PUSH1 0x20 ADD DUP2 DUP2 MLOAD PUSH2 0x1F1B SWAP2 SWAP1 PUSH2 0x2D34 JUMP JUMPDEST SWAP2 POP DUP2 DUP2 MSTORE POP POP PUSH2 0x2012 JUMP JUMPDEST PUSH1 0x2 PUSH1 0x4 DUP2 GT ISZERO PUSH2 0x1F3B JUMPI PUSH2 0x1F3A PUSH2 0x30AA JUMP JUMPDEST JUMPDEST DUP3 PUSH1 0x4 DUP2 GT ISZERO PUSH2 0x1F4E JUMPI PUSH2 0x1F4D PUSH2 0x30AA JUMP JUMPDEST JUMPDEST EQ ISZERO PUSH2 0x1F76 JUMPI DUP1 DUP4 PUSH1 0xE0 ADD MLOAD PUSH1 0x20 ADD DUP2 DUP2 MLOAD PUSH2 0x1F6A SWAP2 SWAP1 PUSH2 0x2D34 JUMP JUMPDEST SWAP2 POP DUP2 DUP2 MSTORE POP POP PUSH2 0x2011 JUMP JUMPDEST PUSH1 0x3 PUSH1 0x4 DUP2 GT ISZERO PUSH2 0x1F8A JUMPI PUSH2 0x1F89 PUSH2 0x30AA JUMP JUMPDEST JUMPDEST DUP3 PUSH1 0x4 DUP2 GT ISZERO PUSH2 0x1F9D JUMPI PUSH2 0x1F9C PUSH2 0x30AA JUMP JUMPDEST JUMPDEST EQ ISZERO PUSH2 0x1FC5 JUMPI DUP1 DUP4 PUSH1 0xE0 ADD MLOAD PUSH1 0x20 ADD DUP2 DUP2 MLOAD PUSH2 0x1FB9 SWAP2 SWAP1 PUSH2 0x2D34 JUMP JUMPDEST SWAP2 POP DUP2 DUP2 MSTORE POP POP PUSH2 0x2010 JUMP JUMPDEST PUSH1 0x4 DUP1 DUP2 GT ISZERO PUSH2 0x1FD8 JUMPI PUSH2 0x1FD7 PUSH2 0x30AA JUMP JUMPDEST JUMPDEST DUP3 PUSH1 0x4 DUP2 GT ISZERO PUSH2 0x1FEB JUMPI PUSH2 0x1FEA PUSH2 0x30AA JUMP JUMPDEST JUMPDEST EQ ISZERO PUSH2 0x200F JUMPI DUP1 DUP4 PUSH1 0xE0 ADD MLOAD PUSH1 0x20 ADD DUP2 DUP2 MLOAD PUSH2 0x2007 SWAP2 SWAP1 PUSH2 0x2D34 JUMP JUMPDEST SWAP2 POP DUP2 DUP2 MSTORE POP POP JUMPDEST JUMPDEST JUMPDEST JUMPDEST JUMPDEST POP POP POP JUMP JUMPDEST PUSH2 0x2020 PUSH2 0x2345 JUMP JUMPDEST PUSH1 0x0 PUSH1 0x8 PUSH1 0x0 DUP6 PUSH20 0xFFFFFFFFFFFFFFFFFFFFFFFFFFFFFFFFFFFFFFFF AND PUSH20 0xFFFFFFFFFFFFFFFFFFFFFFFFFFFFFFFFFFFFFFFF AND DUP2 MSTORE PUSH1 0x20 ADD SWAP1 DUP2 MSTORE PUSH1 0x20 ADD PUSH1 0x0 KECCAK256 PUSH1 0x0 DUP5 DUP2 MSTORE PUSH1 0x20 ADD SWAP1 DUP2 MSTORE PUSH1 0x20 ADD PUSH1 0x0 KECCAK256 PUSH1 0x40 MLOAD DUP1 PUSH2 0x120 ADD PUSH1 0x40 MSTORE SWAP1 DUP2 PUSH1 0x0 DUP3 ADD PUSH1 0x0 SWAP1 SLOAD SWAP1 PUSH2 0x100 EXP SWAP1 DIV PUSH1 0xFF AND ISZERO ISZERO ISZERO ISZERO DUP2 MSTORE PUSH1 0x20 ADD PUSH1 0x0 DUP3 ADD PUSH1 0x1 SWAP1 SLOAD SWAP1 PUSH2 0x100 EXP SWAP1 DIV PUSH20 0xFFFFFFFFFFFFFFFFFFFFFFFFFFFFFFFFFFFFFFFF AND PUSH20 0xFFFFFFFFFFFFFFFFFFFFFFFFFFFFFFFFFFFFFFFF AND PUSH20 0xFFFFFFFFFFFFFFFFFFFFFFFFFFFFFFFFFFFFFFFF AND DUP2 MSTORE PUSH1 0x20 ADD PUSH1 0x1 DUP3 ADD SLOAD DUP2 MSTORE PUSH1 0x20 ADD PUSH1 0x2 DUP3 ADD PUSH1 0x0 SWAP1 SLOAD SWAP1 PUSH2 0x100 EXP SWAP1 DIV PUSH20 0xFFFFFFFFFFFFFFFFFFFFFFFFFFFFFFFFFFFFFFFF AND PUSH20 0xFFFFFFFFFFFFFFFFFFFFFFFFFFFFFFFFFFFFFFFF AND PUSH20 0xFFFFFFFFFFFFFFFFFFFFFFFFFFFFFFFFFFFFFFFF AND DUP2 MSTORE PUSH1 0x20 ADD PUSH1 0x3 DUP3 ADD SLOAD DUP2 MSTORE PUSH1 0x20 ADD PUSH1 0x4 DUP3 ADD SLOAD DUP2 MSTORE PUSH1 0x20 ADD PUSH1 0x5 DUP3 ADD SLOAD DUP2 MSTORE PUSH1 0x20 ADD PUSH1 0x6 DUP3 ADD PUSH1 0x40 MLOAD DUP1 PUSH2 0x100 ADD PUSH1 0x40 MSTORE SWAP1 DUP2 PUSH1 0x0 DUP3 ADD SLOAD DUP2 MSTORE PUSH1 0x20 ADD PUSH1 0x1 DUP3 ADD SLOAD DUP2 MSTORE PUSH1 0x20 ADD PUSH1 0x2 DUP3 ADD SLOAD DUP2 MSTORE PUSH1 0x20 ADD PUSH1 0x3 DUP3 ADD SLOAD DUP2 MSTORE PUSH1 0x20 ADD PUSH1 0x4 DUP3 ADD SLOAD DUP2 MSTORE PUSH1 0x20 ADD PUSH1 0x5 DUP3 ADD SLOAD DUP2 MSTORE PUSH1 0x20 ADD PUSH1 0x6 DUP3 ADD SLOAD DUP2 MSTORE PUSH1 0x20 ADD PUSH1 0x7 DUP3 ADD SLOAD DUP2 MSTORE POP POP DUP2 MSTORE PUSH1 0x20 ADD PUSH1 0xE DUP3 ADD PUSH1 0x40 MLOAD DUP1 PUSH1 0x60 ADD PUSH1 0x40 MSTORE SWAP1 DUP2 PUSH1 0x0 DUP3 ADD SLOAD DUP2 MSTORE PUSH1 0x20 ADD PUSH1 0x1 DUP3 ADD SLOAD DUP2 MSTORE PUSH1 0x20 ADD PUSH1 0x2 DUP3 ADD SLOAD DUP2 MSTORE POP POP DUP2 MSTORE POP POP SWAP1 POP DUP1 PUSH1 0x0 ADD MLOAD PUSH2 0x221E JUMPI PUSH2 0x2219 DUP5 DUP5 PUSH2 0x2229 JUMP JUMPDEST PUSH2 0x2220 JUMP JUMPDEST DUP1 JUMPDEST SWAP2 POP POP SWAP3 SWAP2 POP POP JUMP JUMPDEST PUSH2 0x2231 PUSH2 0x2345 JUMP JUMPDEST PUSH1 0x40 MLOAD DUP1 PUSH2 0x120 ADD PUSH1 0x40 MSTORE DUP1 PUSH1 0x1 ISZERO ISZERO DUP2 MSTORE PUSH1 0x20 ADD DUP5 PUSH20 0xFFFFFFFFFFFFFFFFFFFFFFFFFFFFFFFFFFFFFFFF AND DUP2 MSTORE PUSH1 0x20 ADD DUP4 DUP2 MSTORE PUSH1 0x20 ADD PUSH1 0x0 PUSH20 0xFFFFFFFFFFFFFFFFFFFFFFFFFFFFFFFFFFFFFFFF AND DUP2 MSTORE PUSH1 0x20 ADD PUSH1 0x1 DUP2 MSTORE PUSH1 0x20 ADD PUSH1 0x0 DUP2 MSTORE PUSH1 0x20 ADD PUSH1 0x0 DUP2 MSTORE PUSH1 0x20 ADD PUSH20 0x0 PUSH4 0xF7287056 PUSH1 0x40 MLOAD DUP2 PUSH4 0xFFFFFFFF AND PUSH1 0xE0 SHL DUP2 MSTORE PUSH1 0x4 ADD PUSH2 0x100 PUSH1 0x40 MLOAD DUP1 DUP4 SUB DUP2 DUP7 DUP1 EXTCODESIZE ISZERO DUP1 ISZERO PUSH2 0x22DF JUMPI PUSH1 0x0 DUP1 REVERT JUMPDEST POP GAS DELEGATECALL ISZERO DUP1 ISZERO PUSH2 0x22F3 JUMPI RETURNDATASIZE PUSH1 0x0 DUP1 RETURNDATACOPY RETURNDATASIZE PUSH1 0x0 REVERT JUMPDEST POP POP POP POP PUSH1 0x40 MLOAD RETURNDATASIZE PUSH1 0x1F NOT PUSH1 0x1F DUP3 ADD AND DUP3 ADD DUP1 PUSH1 0x40 MSTORE POP DUP2 ADD SWAP1 PUSH2 0x2317 SWAP2 SWAP1 PUSH2 0x3224 JUMP JUMPDEST DUP2 MSTORE PUSH1 0x20 ADD PUSH1 0x40 MLOAD DUP1 PUSH1 0x60 ADD PUSH1 0x40 MSTORE DUP1 PUSH1 0x0 DUP2 MSTORE PUSH1 0x20 ADD PUSH1 0x0 DUP2 MSTORE PUSH1 0x20 ADD PUSH1 0x0 DUP2 MSTORE POP DUP2 MSTORE POP SWAP1 POP SWAP3 SWAP2 POP POP JUMP JUMPDEST PUSH1 0x40 MLOAD DUP1 PUSH2 0x120 ADD PUSH1 0x40 MSTORE DUP1 PUSH1 0x0 ISZERO ISZERO DUP2 MSTORE PUSH1 0x20 ADD PUSH1 0x0 PUSH20 0xFFFFFFFFFFFFFFFFFFFFFFFFFFFFFFFFFFFFFFFF AND DUP2 MSTORE PUSH1 0x20 ADD PUSH1 0x0 DUP2 MSTORE PUSH1 0x20 ADD PUSH1 0x0 PUSH20 0xFFFFFFFFFFFFFFFFFFFFFFFFFFFFFFFFFFFFFFFF AND DUP2 MSTORE PUSH1 0x20 ADD PUSH1 0x0 DUP2 MSTORE PUSH1 0x20 ADD PUSH1 0x0 DUP2 MSTORE PUSH1 0x20 ADD PUSH1 0x0 DUP2 MSTORE PUSH1 0x20 ADD PUSH2 0x23B8 PUSH2 0x23CB JUMP JUMPDEST DUP2 MSTORE PUSH1 0x20 ADD PUSH2 0x23C5 PUSH2 0x2410 JUMP JUMPDEST DUP2 MSTORE POP SWAP1 JUMP JUMPDEST PUSH1 0x40 MLOAD DUP1 PUSH2 0x100 ADD PUSH1 0x40 MSTORE DUP1 PUSH1 0x0 DUP2 MSTORE PUSH1 0x20 ADD PUSH1 0x0 DUP2 MSTORE PUSH1 0x20 ADD PUSH1 0x0 DUP2 MSTORE PUSH1 0x20 ADD PUSH1 0x0 DUP2 MSTORE PUSH1 0x20 ADD PUSH1 0x0 DUP2 MSTORE PUSH1 0x20 ADD PUSH1 0x0 DUP2 MSTORE PUSH1 0x20 ADD PUSH1 0x0 DUP2 MSTORE PUSH1 0x20 ADD PUSH1 0x0 DUP2 MSTORE POP SWAP1 JUMP JUMPDEST PUSH1 0x40 MLOAD DUP1 PUSH1 0x60 ADD PUSH1 0x40 MSTORE DUP1 PUSH1 0x0 DUP2 MSTORE PUSH1 0x20 ADD PUSH1 0x0 DUP2 MSTORE PUSH1 0x20 ADD PUSH1 0x0 DUP2 MSTORE POP SWAP1 JUMP JUMPDEST PUSH1 0x0 PUSH1 0x40 MLOAD SWAP1 POP SWAP1 JUMP JUMPDEST PUSH1 0x0 DUP1 REVERT JUMPDEST PUSH1 0x0 PUSH20 0xFFFFFFFFFFFFFFFFFFFFFFFFFFFFFFFFFFFFFFFF DUP3 AND SWAP1 POP SWAP2 SWAP1 POP JUMP JUMPDEST PUSH1 0x0 PUSH2 0x246B DUP3 PUSH2 0x2440 JUMP JUMPDEST SWAP1 POP SWAP2 SWAP1 POP JUMP JUMPDEST PUSH2 0x247B DUP2 PUSH2 0x2460 JUMP JUMPDEST DUP2 EQ PUSH2 0x2486 JUMPI PUSH1 0x0 DUP1 REVERT JUMPDEST POP JUMP JUMPDEST PUSH1 0x0 DUP2 CALLDATALOAD SWAP1 POP PUSH2 0x2498 DUP2 PUSH2 0x2472 JUMP JUMPDEST SWAP3 SWAP2 POP POP JUMP JUMPDEST PUSH1 0x0 PUSH1 0x20 DUP3 DUP5 SUB SLT ISZERO PUSH2 0x24B4 JUMPI PUSH2 0x24B3 PUSH2 0x243B JUMP JUMPDEST JUMPDEST PUSH1 0x0 PUSH2 0x24C2 DUP5 DUP3 DUP6 ADD PUSH2 0x2489 JUMP JUMPDEST SWAP2 POP POP SWAP3 SWAP2 POP POP JUMP JUMPDEST PUSH2 0x24D4 DUP2 PUSH2 0x2460 JUMP JUMPDEST DUP3 MSTORE POP POP JUMP JUMPDEST PUSH1 0x0 PUSH1 0x20 DUP3 ADD SWAP1 POP PUSH2 0x24EF PUSH1 0x0 DUP4 ADD DUP5 PUSH2 0x24CB JUMP JUMPDEST SWAP3 SWAP2 POP POP JUMP JUMPDEST PUSH1 0x0 DUP1 REVERT JUMPDEST PUSH1 0x0 PUSH1 0x1F NOT PUSH1 0x1F DUP4 ADD AND SWAP1 POP SWAP2 SWAP1 POP JUMP JUMPDEST PUSH32 0x4E487B7100000000000000000000000000000000000000000000000000000000 PUSH1 0x0 MSTORE PUSH1 0x41 PUSH1 0x4 MSTORE PUSH1 0x24 PUSH1 0x0 REVERT JUMPDEST PUSH2 0x2543 DUP3 PUSH2 0x24FA JUMP JUMPDEST DUP2 ADD DUP2 DUP2 LT PUSH8 0xFFFFFFFFFFFFFFFF DUP3 GT OR ISZERO PUSH2 0x2562 JUMPI PUSH2 0x2561 PUSH2 0x250B JUMP JUMPDEST JUMPDEST DUP1 PUSH1 0x40 MSTORE POP POP POP JUMP JUMPDEST PUSH1 0x0 PUSH2 0x2575 PUSH2 0x2431 JUMP JUMPDEST SWAP1 POP PUSH2 0x2581 DUP3 DUP3 PUSH2 0x253A JUMP JUMPDEST SWAP2 SWAP1 POP JUMP JUMPDEST PUSH1 0x0 DUP2 ISZERO ISZERO SWAP1 POP SWAP2 SWAP1 POP JUMP JUMPDEST PUSH2 0x259B DUP2 PUSH2 0x2586 JUMP JUMPDEST DUP2 EQ PUSH2 0x25A6 JUMPI PUSH1 0x0 DUP1 REVERT JUMPDEST POP JUMP JUMPDEST PUSH1 0x0 DUP2 CALLDATALOAD SWAP1 POP PUSH2 0x25B8 DUP2 PUSH2 0x2592 JUMP JUMPDEST SWAP3 SWAP2 POP POP JUMP JUMPDEST PUSH1 0x0 DUP2 SWAP1 POP SWAP2 SWAP1 POP JUMP JUMPDEST PUSH2 0x25D1 DUP2 PUSH2 0x25BE JUMP JUMPDEST DUP2 EQ PUSH2 0x25DC JUMPI PUSH1 0x0 DUP1 REVERT JUMPDEST POP JUMP JUMPDEST PUSH1 0x0 DUP2 CALLDATALOAD SWAP1 POP PUSH2 0x25EE DUP2 PUSH2 0x25C8 JUMP JUMPDEST SWAP3 SWAP2 POP POP JUMP JUMPDEST PUSH1 0x0 PUSH2 0x100 DUP3 DUP5 SUB SLT ISZERO PUSH2 0x260B JUMPI PUSH2 0x260A PUSH2 0x24F5 JUMP JUMPDEST JUMPDEST PUSH2 0x2616 PUSH2 0x100 PUSH2 0x256B JUMP JUMPDEST SWAP1 POP PUSH1 0x0 PUSH2 0x2626 DUP5 DUP3 DUP6 ADD PUSH2 0x25DF JUMP JUMPDEST PUSH1 0x0 DUP4 ADD MSTORE POP PUSH1 0x20 PUSH2 0x263A DUP5 DUP3 DUP6 ADD PUSH2 0x25DF JUMP JUMPDEST PUSH1 0x20 DUP4 ADD MSTORE POP PUSH1 0x40 PUSH2 0x264E DUP5 DUP3 DUP6 ADD PUSH2 0x25DF JUMP JUMPDEST PUSH1 0x40 DUP4 ADD MSTORE POP PUSH1 0x60 PUSH2 0x2662 DUP5 DUP3 DUP6 ADD PUSH2 0x25DF JUMP JUMPDEST PUSH1 0x60 DUP4 ADD MSTORE POP PUSH1 0x80 PUSH2 0x2676 DUP5 DUP3 DUP6 ADD PUSH2 0x25DF JUMP JUMPDEST PUSH1 0x80 DUP4 ADD MSTORE POP PUSH1 0xA0 PUSH2 0x268A DUP5 DUP3 DUP6 ADD PUSH2 0x25DF JUMP JUMPDEST PUSH1 0xA0 DUP4 ADD MSTORE POP PUSH1 0xC0 PUSH2 0x269E DUP5 DUP3 DUP6 ADD PUSH2 0x25DF JUMP JUMPDEST PUSH1 0xC0 DUP4 ADD MSTORE POP PUSH1 0xE0 PUSH2 0x26B2 DUP5 DUP3 DUP6 ADD PUSH2 0x25DF JUMP JUMPDEST PUSH1 0xE0 DUP4 ADD MSTORE POP SWAP3 SWAP2 POP POP JUMP JUMPDEST PUSH1 0x0 PUSH1 0x60 DUP3 DUP5 SUB SLT ISZERO PUSH2 0x26D4 JUMPI PUSH2 0x26D3 PUSH2 0x24F5 JUMP JUMPDEST JUMPDEST PUSH2 0x26DE PUSH1 0x60 PUSH2 0x256B JUMP JUMPDEST SWAP1 POP PUSH1 0x0 PUSH2 0x26EE DUP5 DUP3 DUP6 ADD PUSH2 0x25DF JUMP JUMPDEST PUSH1 0x0 DUP4 ADD MSTORE POP PUSH1 0x20 PUSH2 0x2702 DUP5 DUP3 DUP6 ADD PUSH2 0x25DF JUMP JUMPDEST PUSH1 0x20 DUP4 ADD MSTORE POP PUSH1 0x40 PUSH2 0x2716 DUP5 DUP3 DUP6 ADD PUSH2 0x25DF JUMP JUMPDEST PUSH1 0x40 DUP4 ADD MSTORE POP SWAP3 SWAP2 POP POP JUMP JUMPDEST PUSH1 0x0 PUSH2 0x240 DUP3 DUP5 SUB SLT ISZERO PUSH2 0x2739 JUMPI PUSH2 0x2738 PUSH2 0x24F5 JUMP JUMPDEST JUMPDEST PUSH2 0x2744 PUSH2 0x120 PUSH2 0x256B JUMP JUMPDEST SWAP1 POP PUSH1 0x0 PUSH2 0x2754 DUP5 DUP3 DUP6 ADD PUSH2 0x25A9 JUMP JUMPDEST PUSH1 0x0 DUP4 ADD MSTORE POP PUSH1 0x20 PUSH2 0x2768 DUP5 DUP3 DUP6 ADD PUSH2 0x2489 JUMP JUMPDEST PUSH1 0x20 DUP4 ADD MSTORE POP PUSH1 0x40 PUSH2 0x277C DUP5 DUP3 DUP6 ADD PUSH2 0x25DF JUMP JUMPDEST PUSH1 0x40 DUP4 ADD MSTORE POP PUSH1 0x60 PUSH2 0x2790 DUP5 DUP3 DUP6 ADD PUSH2 0x2489 JUMP JUMPDEST PUSH1 0x60 DUP4 ADD MSTORE POP PUSH1 0x80 PUSH2 0x27A4 DUP5 DUP3 DUP6 ADD PUSH2 0x25DF JUMP JUMPDEST PUSH1 0x80 DUP4 ADD MSTORE POP PUSH1 0xA0 PUSH2 0x27B8 DUP5 DUP3 DUP6 ADD PUSH2 0x25DF JUMP JUMPDEST PUSH1 0xA0 DUP4 ADD MSTORE POP PUSH1 0xC0 PUSH2 0x27CC DUP5 DUP3 DUP6 ADD PUSH2 0x25DF JUMP JUMPDEST PUSH1 0xC0 DUP4 ADD MSTORE POP PUSH1 0xE0 PUSH2 0x27E0 DUP5 DUP3 DUP6 ADD PUSH2 0x25F4 JUMP JUMPDEST PUSH1 0xE0 DUP4 ADD MSTORE POP PUSH2 0x1E0 PUSH2 0x27F5 DUP5 DUP3 DUP6 ADD PUSH2 0x26BE JUMP JUMPDEST PUSH2 0x100 DUP4 ADD MSTORE POP SWAP3 SWAP2 POP POP JUMP JUMPDEST PUSH1 0x0 DUP1 PUSH2 0x260 DUP4 DUP6 SUB SLT ISZERO PUSH2 0x281A JUMPI PUSH2 0x2819 PUSH2 0x243B JUMP JUMPDEST JUMPDEST PUSH1 0x0 PUSH2 0x2828 DUP6 DUP3 DUP7 ADD PUSH2 0x2722 JUMP JUMPDEST SWAP3 POP POP PUSH2 0x240 PUSH2 0x283A DUP6 DUP3 DUP7 ADD PUSH2 0x25DF JUMP JUMPDEST SWAP2 POP POP SWAP3 POP SWAP3 SWAP1 POP JUMP JUMPDEST PUSH1 0x5 DUP2 LT PUSH2 0x2851 JUMPI PUSH1 0x0 DUP1 REVERT JUMPDEST POP JUMP JUMPDEST PUSH1 0x0 DUP2 CALLDATALOAD SWAP1 POP PUSH2 0x2863 DUP2 PUSH2 0x2844 JUMP JUMPDEST SWAP3 SWAP2 POP POP JUMP JUMPDEST PUSH1 0x0 DUP1 PUSH1 0x0 DUP1 PUSH1 0x80 DUP6 DUP8 SUB SLT ISZERO PUSH2 0x2883 JUMPI PUSH2 0x2882 PUSH2 0x243B JUMP JUMPDEST JUMPDEST PUSH1 0x0 PUSH2 0x2891 DUP8 DUP3 DUP9 ADD PUSH2 0x2489 JUMP JUMPDEST SWAP5 POP POP PUSH1 0x20 PUSH2 0x28A2 DUP8 DUP3 DUP9 ADD PUSH2 0x25DF JUMP JUMPDEST SWAP4 POP POP PUSH1 0x40 PUSH2 0x28B3 DUP8 DUP3 DUP9 ADD PUSH2 0x2854 JUMP JUMPDEST SWAP3 POP POP PUSH1 0x60 PUSH2 0x28C4 DUP8 DUP3 DUP9 ADD PUSH2 0x25DF JUMP JUMPDEST SWAP2 POP POP SWAP3 SWAP6 SWAP2 SWAP5 POP SWAP3 POP JUMP JUMPDEST PUSH2 0x28D9 DUP2 PUSH2 0x2586 JUMP JUMPDEST DUP3 MSTORE POP POP JUMP JUMPDEST PUSH1 0x0 PUSH1 0x20 DUP3 ADD SWAP1 POP PUSH2 0x28F4 PUSH1 0x0 DUP4 ADD DUP5 PUSH2 0x28D0 JUMP JUMPDEST SWAP3 SWAP2 POP POP JUMP JUMPDEST PUSH1 0x0 PUSH2 0x240 DUP3 DUP5 SUB SLT ISZERO PUSH2 0x2911 JUMPI PUSH2 0x2910 PUSH2 0x243B JUMP JUMPDEST JUMPDEST PUSH1 0x0 PUSH2 0x291F DUP5 DUP3 DUP6 ADD PUSH2 0x2722 JUMP JUMPDEST SWAP2 POP POP SWAP3 SWAP2 POP POP JUMP JUMPDEST PUSH1 0x0 PUSH1 0x20 DUP3 DUP5 SUB SLT ISZERO PUSH2 0x293E JUMPI PUSH2 0x293D PUSH2 0x243B JUMP JUMPDEST JUMPDEST PUSH1 0x0 PUSH2 0x294C DUP5 DUP3 DUP6 ADD PUSH2 0x25DF JUMP JUMPDEST SWAP2 POP POP SWAP3 SWAP2 POP POP JUMP JUMPDEST PUSH2 0x295E DUP2 PUSH2 0x25BE JUMP JUMPDEST DUP3 MSTORE POP POP JUMP JUMPDEST PUSH1 0x0 PUSH1 0x20 DUP3 ADD SWAP1 POP PUSH2 0x2979 PUSH1 0x0 DUP4 ADD DUP5 PUSH2 0x2955 JUMP JUMPDEST SWAP3 SWAP2 POP POP JUMP JUMPDEST PUSH1 0x0 DUP1 PUSH1 0x40 DUP4 DUP6 SUB SLT ISZERO PUSH2 0x2996 JUMPI PUSH2 0x2995 PUSH2 0x243B JUMP JUMPDEST JUMPDEST PUSH1 0x0 PUSH2 0x29A4 DUP6 DUP3 DUP7 ADD PUSH2 0x2489 JUMP JUMPDEST SWAP3 POP POP PUSH1 0x20 PUSH2 0x29B5 DUP6 DUP3 DUP7 ADD PUSH2 0x25DF JUMP JUMPDEST SWAP2 POP POP SWAP3 POP SWAP3 SWAP1 POP JUMP JUMPDEST PUSH2 0x29C8 DUP2 PUSH2 0x2586 JUMP JUMPDEST DUP3 MSTORE POP POP JUMP JUMPDEST PUSH2 0x29D7 DUP2 PUSH2 0x2460 JUMP JUMPDEST DUP3 MSTORE POP POP JUMP JUMPDEST PUSH2 0x29E6 DUP2 PUSH2 0x25BE JUMP JUMPDEST DUP3 MSTORE POP POP JUMP JUMPDEST PUSH2 0x100 DUP3 ADD PUSH1 0x0 DUP3 ADD MLOAD PUSH2 0x2A03 PUSH1 0x0 DUP6 ADD DUP3 PUSH2 0x29DD JUMP JUMPDEST POP PUSH1 0x20 DUP3 ADD MLOAD PUSH2 0x2A16 PUSH1 0x20 DUP6 ADD DUP3 PUSH2 0x29DD JUMP JUMPDEST POP PUSH1 0x40 DUP3 ADD MLOAD PUSH2 0x2A29 PUSH1 0x40 DUP6 ADD DUP3 PUSH2 0x29DD JUMP JUMPDEST POP PUSH1 0x60 DUP3 ADD MLOAD PUSH2 0x2A3C PUSH1 0x60 DUP6 ADD DUP3 PUSH2 0x29DD JUMP JUMPDEST POP PUSH1 0x80 DUP3 ADD MLOAD PUSH2 0x2A4F PUSH1 0x80 DUP6 ADD DUP3 PUSH2 0x29DD JUMP JUMPDEST POP PUSH1 0xA0 DUP3 ADD MLOAD PUSH2 0x2A62 PUSH1 0xA0 DUP6 ADD DUP3 PUSH2 0x29DD JUMP JUMPDEST POP PUSH1 0xC0 DUP3 ADD MLOAD PUSH2 0x2A75 PUSH1 0xC0 DUP6 ADD DUP3 PUSH2 0x29DD JUMP JUMPDEST POP PUSH1 0xE0 DUP3 ADD MLOAD PUSH2 0x2A88 PUSH1 0xE0 DUP6 ADD DUP3 PUSH2 0x29DD JUMP JUMPDEST POP POP POP POP JUMP JUMPDEST PUSH1 0x60 DUP3 ADD PUSH1 0x0 DUP3 ADD MLOAD PUSH2 0x2AA4 PUSH1 0x0 DUP6 ADD DUP3 PUSH2 0x29DD JUMP JUMPDEST POP PUSH1 0x20 DUP3 ADD MLOAD PUSH2 0x2AB7 PUSH1 0x20 DUP6 ADD DUP3 PUSH2 0x29DD JUMP JUMPDEST POP PUSH1 0x40 DUP3 ADD MLOAD PUSH2 0x2ACA PUSH1 0x40 DUP6 ADD DUP3 PUSH2 0x29DD JUMP JUMPDEST POP POP POP POP JUMP JUMPDEST PUSH2 0x240 DUP3 ADD PUSH1 0x0 DUP3 ADD MLOAD PUSH2 0x2AE7 PUSH1 0x0 DUP6 ADD DUP3 PUSH2 0x29BF JUMP JUMPDEST POP PUSH1 0x20 DUP3 ADD MLOAD PUSH2 0x2AFA PUSH1 0x20 DUP6 ADD DUP3 PUSH2 0x29CE JUMP JUMPDEST POP PUSH1 0x40 DUP3 ADD MLOAD PUSH2 0x2B0D PUSH1 0x40 DUP6 ADD DUP3 PUSH2 0x29DD JUMP JUMPDEST POP PUSH1 0x60 DUP3 ADD MLOAD PUSH2 0x2B20 PUSH1 0x60 DUP6 ADD DUP3 PUSH2 0x29CE JUMP JUMPDEST POP PUSH1 0x80 DUP3 ADD MLOAD PUSH2 0x2B33 PUSH1 0x80 DUP6 ADD DUP3 PUSH2 0x29DD JUMP JUMPDEST POP PUSH1 0xA0 DUP3 ADD MLOAD PUSH2 0x2B46 PUSH1 0xA0 DUP6 ADD DUP3 PUSH2 0x29DD JUMP JUMPDEST POP PUSH1 0xC0 DUP3 ADD MLOAD PUSH2 0x2B59 PUSH1 0xC0 DUP6 ADD DUP3 PUSH2 0x29DD JUMP JUMPDEST POP PUSH1 0xE0 DUP3 ADD MLOAD PUSH2 0x2B6C PUSH1 0xE0 DUP6 ADD DUP3 PUSH2 0x29EC JUMP JUMPDEST POP PUSH2 0x100 DUP3 ADD MLOAD PUSH2 0x2B81 PUSH2 0x1E0 DUP6 ADD DUP3 PUSH2 0x2A8E JUMP JUMPDEST POP POP POP POP JUMP JUMPDEST PUSH1 0x0 PUSH2 0x240 DUP3 ADD SWAP1 POP PUSH2 0x2B9D PUSH1 0x0 DUP4 ADD DUP5 PUSH2 0x2AD0 JUMP JUMPDEST SWAP3 SWAP2 POP POP JUMP JUMPDEST PUSH1 0x0 DUP1 PUSH1 0x0 PUSH1 0x60 DUP5 DUP7 SUB SLT ISZERO PUSH2 0x2BBC JUMPI PUSH2 0x2BBB PUSH2 0x243B JUMP JUMPDEST JUMPDEST PUSH1 0x0 PUSH2 0x2BCA DUP7 DUP3 DUP8 ADD PUSH2 0x2489 JUMP JUMPDEST SWAP4 POP POP PUSH1 0x20 PUSH2 0x2BDB DUP7 DUP3 DUP8 ADD PUSH2 0x25DF JUMP JUMPDEST SWAP3 POP POP PUSH1 0x40 PUSH2 0x2BEC DUP7 DUP3 DUP8 ADD PUSH2 0x2854 JUMP JUMPDEST SWAP2 POP POP SWAP3 POP SWAP3 POP SWAP3 JUMP JUMPDEST PUSH1 0x0 DUP3 DUP3 MSTORE PUSH1 0x20 DUP3 ADD SWAP1 POP SWAP3 SWAP2 POP POP JUMP JUMPDEST PUSH32 0x43616E2062652063616C6C6564206F6E6C7920627920474D0000000000000000 PUSH1 0x0 DUP3 ADD MSTORE POP JUMP JUMPDEST PUSH1 0x0 PUSH2 0x2C3D PUSH1 0x18 DUP4 PUSH2 0x2BF6 JUMP JUMPDEST SWAP2 POP PUSH2 0x2C48 DUP3 PUSH2 0x2C07 JUMP JUMPDEST PUSH1 0x20 DUP3 ADD SWAP1 POP SWAP2 SWAP1 POP JUMP JUMPDEST PUSH1 0x0 PUSH1 0x20 DUP3 ADD SWAP1 POP DUP2 DUP2 SUB PUSH1 0x0 DUP4 ADD MSTORE PUSH2 0x2C6C DUP2 PUSH2 0x2C30 JUMP JUMPDEST SWAP1 POP SWAP2 SWAP1 POP JUMP JUMPDEST PUSH32 0x4F6E6C792067616D6520636F6E7472616374732063616E2063616C6C20746869 PUSH1 0x0 DUP3 ADD MSTORE PUSH32 0x73206D6574686F64000000000000000000000000000000000000000000000000 PUSH1 0x20 DUP3 ADD MSTORE POP JUMP JUMPDEST PUSH1 0x0 PUSH2 0x2CCF PUSH1 0x28 DUP4 PUSH2 0x2BF6 JUMP JUMPDEST SWAP2 POP PUSH2 0x2CDA DUP3 PUSH2 0x2C73 JUMP JUMPDEST PUSH1 0x40 DUP3 ADD SWAP1 POP SWAP2 SWAP1 POP JUMP JUMPDEST PUSH1 0x0 PUSH1 0x20 DUP3 ADD SWAP1 POP DUP2 DUP2 SUB PUSH1 0x0 DUP4 ADD MSTORE PUSH2 0x2CFE DUP2 PUSH2 0x2CC2 JUMP JUMPDEST SWAP1 POP SWAP2 SWAP1 POP JUMP JUMPDEST PUSH32 0x4E487B7100000000000000000000000000000000000000000000000000000000 PUSH1 0x0 MSTORE PUSH1 0x11 PUSH1 0x4 MSTORE PUSH1 0x24 PUSH1 0x0 REVERT JUMPDEST PUSH1 0x0 PUSH2 0x2D3F DUP3 PUSH2 0x25BE JUMP JUMPDEST SWAP2 POP PUSH2 0x2D4A DUP4 PUSH2 0x25BE JUMP JUMPDEST SWAP3 POP DUP3 PUSH32 0xFFFFFFFFFFFFFFFFFFFFFFFFFFFFFFFFFFFFFFFFFFFFFFFFFFFFFFFFFFFFFFFF SUB DUP3 GT ISZERO PUSH2 0x2D7F JUMPI PUSH2 0x2D7E PUSH2 0x2D05 JUMP JUMPDEST JUMPDEST DUP3 DUP3 ADD SWAP1 POP SWAP3 SWAP2 POP POP JUMP JUMPDEST PUSH1 0x0 PUSH2 0x2D95 DUP3 PUSH2 0x25BE JUMP JUMPDEST SWAP2 POP PUSH2 0x2DA0 DUP4 PUSH2 0x25BE JUMP JUMPDEST SWAP3 POP DUP3 DUP3 LT ISZERO PUSH2 0x2DB3 JUMPI PUSH2 0x2DB2 PUSH2 0x2D05 JUMP JUMPDEST JUMPDEST DUP3 DUP3 SUB SWAP1 POP SWAP3 SWAP2 POP POP JUMP JUMPDEST PUSH1 0x0 DUP2 SWAP1 POP SWAP2 SWAP1 POP JUMP JUMPDEST PUSH1 0x0 DUP2 SWAP1 POP SWAP2 SWAP1 POP JUMP JUMPDEST PUSH1 0x0 PUSH2 0x2DED PUSH2 0x2DE8 PUSH2 0x2DE3 DUP5 PUSH2 0x2DBE JUMP JUMPDEST PUSH2 0x2DC8 JUMP JUMPDEST PUSH2 0x25BE JUMP JUMPDEST SWAP1 POP SWAP2 SWAP1 POP JUMP JUMPDEST PUSH2 0x2DFD DUP2 PUSH2 0x2DD2 JUMP JUMPDEST DUP3 MSTORE POP POP JUMP JUMPDEST PUSH1 0x0 PUSH1 0xA0 DUP3 ADD SWAP1 POP PUSH2 0x2E18 PUSH1 0x0 DUP4 ADD DUP9 PUSH2 0x2955 JUMP JUMPDEST PUSH2 0x2E25 PUSH1 0x20 DUP4 ADD DUP8 PUSH2 0x2955 JUMP JUMPDEST PUSH2 0x2E32 PUSH1 0x40 DUP4 ADD DUP7 PUSH2 0x2955 JUMP JUMPDEST PUSH2 0x2E3F PUSH1 0x60 DUP4 ADD DUP6 PUSH2 0x2DF4 JUMP JUMPDEST PUSH2 0x2E4C PUSH1 0x80 DUP4 ADD DUP5 PUSH2 0x2955 JUMP JUMPDEST SWAP7 SWAP6 POP POP POP POP POP POP JUMP JUMPDEST PUSH2 0x100 DUP3 ADD PUSH1 0x0 DUP3 ADD MLOAD PUSH2 0x2E6D PUSH1 0x0 DUP6 ADD DUP3 PUSH2 0x29DD JUMP JUMPDEST POP PUSH1 0x20 DUP3 ADD MLOAD PUSH2 0x2E80 PUSH1 0x20 DUP6 ADD DUP3 PUSH2 0x29DD JUMP JUMPDEST POP PUSH1 0x40 DUP3 ADD MLOAD PUSH2 0x2E93 PUSH1 0x40 DUP6 ADD DUP3 PUSH2 0x29DD JUMP JUMPDEST POP PUSH1 0x60 DUP3 ADD MLOAD PUSH2 0x2EA6 PUSH1 0x60 DUP6 ADD DUP3 PUSH2 0x29DD JUMP JUMPDEST POP PUSH1 0x80 DUP3 ADD MLOAD PUSH2 0x2EB9 PUSH1 0x80 DUP6 ADD DUP3 PUSH2 0x29DD JUMP JUMPDEST POP PUSH1 0xA0 DUP3 ADD MLOAD PUSH2 0x2ECC PUSH1 0xA0 DUP6 ADD DUP3 PUSH2 0x29DD JUMP JUMPDEST POP PUSH1 0xC0 DUP3 ADD MLOAD PUSH2 0x2EDF PUSH1 0xC0 DUP6 ADD DUP3 PUSH2 0x29DD JUMP JUMPDEST POP PUSH1 0xE0 DUP3 ADD MLOAD PUSH2 0x2EF2 PUSH1 0xE0 DUP6 ADD DUP3 PUSH2 0x29DD JUMP JUMPDEST POP POP POP POP JUMP JUMPDEST PUSH1 0x0 PUSH2 0x120 DUP3 ADD SWAP1 POP PUSH2 0x2F0E PUSH1 0x0 DUP4 ADD DUP6 PUSH2 0x2E56 JUMP JUMPDEST PUSH2 0x2F1C PUSH2 0x100 DUP4 ADD DUP5 PUSH2 0x2955 JUMP JUMPDEST SWAP4 SWAP3 POP POP POP JUMP JUMPDEST PUSH32 0x4C6576656C2073686F756C642062652067726561746572207468616E207A6572 PUSH1 0x0 DUP3 ADD MSTORE PUSH32 0x6F00000000000000000000000000000000000000000000000000000000000000 PUSH1 0x20 DUP3 ADD MSTORE POP JUMP JUMPDEST PUSH1 0x0 PUSH2 0x2F7F PUSH1 0x21 DUP4 PUSH2 0x2BF6 JUMP JUMPDEST SWAP2 POP PUSH2 0x2F8A DUP3 PUSH2 0x2F23 JUMP JUMPDEST PUSH1 0x40 DUP3 ADD SWAP1 POP SWAP2 SWAP1 POP JUMP JUMPDEST PUSH1 0x0 PUSH1 0x20 DUP3 ADD SWAP1 POP DUP2 DUP2 SUB PUSH1 0x0 DUP4 ADD MSTORE PUSH2 0x2FAE DUP2 PUSH2 0x2F72 JUMP JUMPDEST SWAP1 POP SWAP2 SWAP1 POP JUMP JUMPDEST PUSH32 0x4E487B7100000000000000000000000000000000000000000000000000000000 PUSH1 0x0 MSTORE PUSH1 0x32 PUSH1 0x4 MSTORE PUSH1 0x24 PUSH1 0x0 REVERT JUMPDEST PUSH1 0x0 PUSH2 0x2FEF DUP3 PUSH2 0x25BE JUMP JUMPDEST SWAP2 POP PUSH2 0x2FFA DUP4 PUSH2 0x25BE JUMP JUMPDEST SWAP3 POP DUP2 PUSH32 0xFFFFFFFFFFFFFFFFFFFFFFFFFFFFFFFFFFFFFFFFFFFFFFFFFFFFFFFFFFFFFFFF DIV DUP4 GT DUP3 ISZERO ISZERO AND ISZERO PUSH2 0x3033 JUMPI PUSH2 0x3032 PUSH2 0x2D05 JUMP JUMPDEST JUMPDEST DUP3 DUP3 MUL SWAP1 POP SWAP3 SWAP2 POP POP JUMP JUMPDEST PUSH32 0x4E6F20757067726164657320617661696C61626C650000000000000000000000 PUSH1 0x0 DUP3 ADD MSTORE POP JUMP JUMPDEST PUSH1 0x0 PUSH2 0x3074 PUSH1 0x15 DUP4 PUSH2 0x2BF6 JUMP JUMPDEST SWAP2 POP PUSH2 0x307F DUP3 PUSH2 0x303E JUMP JUMPDEST PUSH1 0x20 DUP3 ADD SWAP1 POP SWAP2 SWAP1 POP JUMP JUMPDEST PUSH1 0x0 PUSH1 0x20 DUP3 ADD SWAP1 POP DUP2 DUP2 SUB PUSH1 0x0 DUP4 ADD MSTORE PUSH2 0x30A3 DUP2 PUSH2 0x3067 JUMP JUMPDEST SWAP1 POP SWAP2 SWAP1 POP JUMP JUMPDEST PUSH32 0x4E487B7100000000000000000000000000000000000000000000000000000000 PUSH1 0x0 MSTORE PUSH1 0x21 PUSH1 0x4 MSTORE PUSH1 0x24 PUSH1 0x0 REVERT JUMPDEST PUSH32 0x496E76616C696420737461742074797065000000000000000000000000000000 PUSH1 0x0 DUP3 ADD MSTORE POP JUMP JUMPDEST PUSH1 0x0 PUSH2 0x310F PUSH1 0x11 DUP4 PUSH2 0x2BF6 JUMP JUMPDEST SWAP2 POP PUSH2 0x311A DUP3 PUSH2 0x30D9 JUMP JUMPDEST PUSH1 0x20 DUP3 ADD SWAP1 POP SWAP2 SWAP1 POP JUMP JUMPDEST PUSH1 0x0 PUSH1 0x20 DUP3 ADD SWAP1 POP DUP2 DUP2 SUB PUSH1 0x0 DUP4 ADD MSTORE PUSH2 0x313E DUP2 PUSH2 0x3102 JUMP JUMPDEST SWAP1 POP SWAP2 SWAP1 POP JUMP JUMPDEST PUSH1 0x0 DUP2 MLOAD SWAP1 POP PUSH2 0x3154 DUP2 PUSH2 0x25C8 JUMP JUMPDEST SWAP3 SWAP2 POP POP JUMP JUMPDEST PUSH1 0x0 PUSH2 0x100 DUP3 DUP5 SUB SLT ISZERO PUSH2 0x3171 JUMPI PUSH2 0x3170 PUSH2 0x24F5 JUMP JUMPDEST JUMPDEST PUSH2 0x317C PUSH2 0x100 PUSH2 0x256B JUMP JUMPDEST SWAP1 POP PUSH1 0x0 PUSH2 0x318C DUP5 DUP3 DUP6 ADD PUSH2 0x3145 JUMP JUMPDEST PUSH1 0x0 DUP4 ADD MSTORE POP PUSH1 0x20 PUSH2 0x31A0 DUP5 DUP3 DUP6 ADD PUSH2 0x3145 JUMP JUMPDEST PUSH1 0x20 DUP4 ADD MSTORE POP PUSH1 0x40 PUSH2 0x31B4 DUP5 DUP3 DUP6 ADD PUSH2 0x3145 JUMP JUMPDEST PUSH1 0x40 DUP4 ADD MSTORE POP PUSH1 0x60 PUSH2 0x31C8 DUP5 DUP3 DUP6 ADD PUSH2 0x3145 JUMP JUMPDEST PUSH1 0x60 DUP4 ADD MSTORE POP PUSH1 0x80 PUSH2 0x31DC DUP5 DUP3 DUP6 ADD PUSH2 0x3145 JUMP JUMPDEST PUSH1 0x80 DUP4 ADD MSTORE POP PUSH1 0xA0 PUSH2 0x31F0 DUP5 DUP3 DUP6 ADD PUSH2 0x3145 JUMP JUMPDEST PUSH1 0xA0 DUP4 ADD MSTORE POP PUSH1 0xC0 PUSH2 0x3204 DUP5 DUP3 DUP6 ADD PUSH2 0x3145 JUMP JUMPDEST PUSH1 0xC0 DUP4 ADD MSTORE POP PUSH1 0xE0 PUSH2 0x3218 DUP5 DUP3 DUP6 ADD PUSH2 0x3145 JUMP JUMPDEST PUSH1 0xE0 DUP4 ADD MSTORE POP SWAP3 SWAP2 POP POP JUMP JUMPDEST PUSH1 0x0 PUSH2 0x100 DUP3 DUP5 SUB SLT ISZERO PUSH2 0x323B JUMPI PUSH2 0x323A PUSH2 0x243B JUMP JUMPDEST JUMPDEST PUSH1 0x0 PUSH2 0x3249 DUP5 DUP3 DUP6 ADD PUSH2 0x315A JUMP JUMPDEST SWAP2 POP POP SWAP3 SWAP2 POP POP JUMP INVALID LOG2 PUSH5 0x6970667358 0x22 SLT KECCAK256 DELEGATECALL PUSH9 0x217A1A6F8F99D9F3F3 DUP16 0xC9 DUP14 DUP9 SWAP10 0xC6 ADD 0xA7 CALL 0xC8 0xED BALANCE 0xAD DUP16 SLOAD PUSH9 0x4E4B13644964736F6C PUSH4 0x43000809 STOP CALLER "
		},
		"gasEstimates": {
			"creation": {
				"codeDepositCost": "2587200",
				"executionCost": "infinite",
				"totalCost": "infinite"
			},
			"external": {
				"CHARACTER_CONTRACT_ADDRESS()": "2582",
				"EQUIPMENT_CONTRACT()": "2625",
				"FIGHT_CONTRACT_ADDRESS()": "2602",
				"GAME_MANAGER_CONTRACT_ADDRESS()": "2603",
				"GAME_MASTER()": "2578",
				"MAP_CONTRACTS(address)": "2912",
				"RANDOM_CONTRACT_ADDRESS()": "2536",
				"VAULT()": "2559",
				"addExp((bool,address,uint256,address,uint256,uint256,uint256,(uint256,uint256,uint256,uint256,uint256,uint256,uint256,uint256),(uint256,uint256,uint256)),uint256)": "infinite",
				"getCharacter(address,uint256)": "infinite",
				"modifyStats(address,uint256,uint8,uint256)": "infinite",
				"save((bool,address,uint256,address,uint256,uint256,uint256,(uint256,uint256,uint256,uint256,uint256,uint256,uint256,uint256),(uint256,uint256,uint256)))": "infinite",
				"setCharacterContractAddress(address)": "26912",
				"setEquipmentContractAddress(address)": "27000",
				"setFightContractAddress(address)": "26913",
				"setGMContractAddress(address)": "26935",
				"setGameMasterAddress(address)": "26955",
				"setRandomContractAddress(address)": "26933",
				"setVaultAddress(address)": "26934",
				"toNextLevel(uint256)": "infinite",
				"upgrade(address,uint256,uint8)": "infinite",
				"withdraw()": "infinite"
			},
			"internal": {
				"_defaultCharacter(address,uint256)": "infinite",
				"_getStoredOrDefaultCharacter(address,uint256)": "infinite",
				"_modify(struct Character memory,enum StatType,uint256,int8)": "infinite",
				"_saveCharacter(struct Character memory)": "infinite",
				"_upgrade(struct Character memory,enum StatType,uint256)": "infinite"
			}
		},
		"methodIdentifiers": {
			"CHARACTER_CONTRACT_ADDRESS()": "320b00d8",
			"EQUIPMENT_CONTRACT()": "c85045f7",
			"FIGHT_CONTRACT_ADDRESS()": "e1d38814",
			"GAME_MANAGER_CONTRACT_ADDRESS()": "603eefa5",
			"GAME_MASTER()": "99597b70",
			"MAP_CONTRACTS(address)": "5c79d49d",
			"RANDOM_CONTRACT_ADDRESS()": "d3dd4f29",
			"VAULT()": "411557d1",
			"addExp((bool,address,uint256,address,uint256,uint256,uint256,(uint256,uint256,uint256,uint256,uint256,uint256,uint256,uint256),(uint256,uint256,uint256)),uint256)": "3e9f5237",
			"getCharacter(address,uint256)": "e4cb30ad",
			"modifyStats(address,uint256,uint8,uint256)": "3f5f4480",
			"save((bool,address,uint256,address,uint256,uint256,uint256,(uint256,uint256,uint256,uint256,uint256,uint256,uint256,uint256),(uint256,uint256,uint256)))": "74fb4404",
			"setCharacterContractAddress(address)": "83499df6",
			"setEquipmentContractAddress(address)": "6efc00ee",
			"setFightContractAddress(address)": "00a8b188",
			"setGMContractAddress(address)": "1b915579",
			"setGameMasterAddress(address)": "d8327b2f",
			"setRandomContractAddress(address)": "d7050b05",
			"setVaultAddress(address)": "85535cc5",
			"toNextLevel(uint256)": "a8d6df6c",
			"upgrade(address,uint256,uint8)": "ff780137",
			"withdraw()": "3ccfd60b"
		}
	},
	"abi": [
		{
			"inputs": [],
			"stateMutability": "nonpayable",
			"type": "constructor"
		},
		{
			"anonymous": false,
			"inputs": [
				{
					"indexed": false,
					"internalType": "uint256",
					"name": "level",
					"type": "uint256"
				},
				{
					"indexed": false,
					"internalType": "uint256",
					"name": "exp",
					"type": "uint256"
				},
				{
					"indexed": false,
					"internalType": "uint256",
					"name": "tnl",
					"type": "uint256"
				},
				{
					"indexed": false,
					"internalType": "uint256",
					"name": "upgradesGiven",
					"type": "uint256"
				},
				{
					"indexed": false,
					"internalType": "uint256",
					"name": "upgradesTotal",
					"type": "uint256"
				}
			],
			"name": "LevelUp",
			"type": "event"
		},
		{
			"anonymous": false,
			"inputs": [
				{
					"components": [
						{
							"internalType": "bool",
							"name": "exists",
							"type": "bool"
						},
						{
							"internalType": "address",
							"name": "contractAddress",
							"type": "address"
						},
						{
							"internalType": "uint256",
							"name": "tokenId",
							"type": "uint256"
						},
						{
							"internalType": "address",
							"name": "owner",
							"type": "address"
						},
						{
							"internalType": "uint256",
							"name": "level",
							"type": "uint256"
						},
						{
							"internalType": "uint256",
							"name": "exp",
							"type": "uint256"
						},
						{
							"internalType": "uint256",
							"name": "upgrades",
							"type": "uint256"
						},
						{
							"components": [
								{
									"internalType": "uint256",
									"name": "strength",
									"type": "uint256"
								},
								{
									"internalType": "uint256",
									"name": "dexterity",
									"type": "uint256"
								},
								{
									"internalType": "uint256",
									"name": "constitution",
									"type": "uint256"
								},
								{
									"internalType": "uint256",
									"name": "luck",
									"type": "uint256"
								},
								{
									"internalType": "uint256",
									"name": "armor",
									"type": "uint256"
								},
								{
									"internalType": "uint256",
									"name": "attack",
									"type": "uint256"
								},
								{
									"internalType": "uint256",
									"name": "health",
									"type": "uint256"
								},
								{
									"internalType": "uint256",
									"name": "takenDamage",
									"type": "uint256"
								}
							],
							"internalType": "struct ComputedStats.Stats",
							"name": "stats",
							"type": "tuple"
						},
						{
							"components": [
								{
									"internalType": "uint256",
									"name": "armorSetId",
									"type": "uint256"
								},
								{
									"internalType": "uint256",
									"name": "weaponSetId",
									"type": "uint256"
								},
								{
									"internalType": "uint256",
									"name": "shieldId",
									"type": "uint256"
								}
							],
							"internalType": "struct Equipment",
							"name": "equipment",
							"type": "tuple"
						}
					],
					"indexed": false,
					"internalType": "struct Character",
					"name": "newCharacter",
					"type": "tuple"
				}
			],
			"name": "NewCharacter",
			"type": "event"
		},
		{
			"anonymous": false,
			"inputs": [
				{
					"components": [
						{
							"internalType": "uint256",
							"name": "strength",
							"type": "uint256"
						},
						{
							"internalType": "uint256",
							"name": "dexterity",
							"type": "uint256"
						},
						{
							"internalType": "uint256",
							"name": "constitution",
							"type": "uint256"
						},
						{
							"internalType": "uint256",
							"name": "luck",
							"type": "uint256"
						},
						{
							"internalType": "uint256",
							"name": "armor",
							"type": "uint256"
						},
						{
							"internalType": "uint256",
							"name": "attack",
							"type": "uint256"
						},
						{
							"internalType": "uint256",
							"name": "health",
							"type": "uint256"
						},
						{
							"internalType": "uint256",
							"name": "takenDamage",
							"type": "uint256"
						}
					],
					"indexed": false,
					"internalType": "struct ComputedStats.Stats",
					"name": "newStats",
					"type": "tuple"
				},
				{
					"indexed": false,
					"internalType": "uint256",
					"name": "remainigUpgrades",
					"type": "uint256"
				}
			],
			"name": "NewStats",
			"type": "event"
		},
		{
			"inputs": [],
			"name": "CHARACTER_CONTRACT_ADDRESS",
			"outputs": [
				{
					"internalType": "address",
					"name": "",
					"type": "address"
				}
			],
			"stateMutability": "view",
			"type": "function"
		},
		{
			"inputs": [],
			"name": "EQUIPMENT_CONTRACT",
			"outputs": [
				{
					"internalType": "address",
					"name": "",
					"type": "address"
				}
			],
			"stateMutability": "view",
			"type": "function"
		},
		{
			"inputs": [],
			"name": "FIGHT_CONTRACT_ADDRESS",
			"outputs": [
				{
					"internalType": "address",
					"name": "",
					"type": "address"
				}
			],
			"stateMutability": "view",
			"type": "function"
		},
		{
			"inputs": [],
			"name": "GAME_MANAGER_CONTRACT_ADDRESS",
			"outputs": [
				{
					"internalType": "address",
					"name": "",
					"type": "address"
				}
			],
			"stateMutability": "view",
			"type": "function"
		},
		{
			"inputs": [],
			"name": "GAME_MASTER",
			"outputs": [
				{
					"internalType": "address",
					"name": "",
					"type": "address"
				}
			],
			"stateMutability": "view",
			"type": "function"
		},
		{
			"inputs": [
				{
					"internalType": "address",
					"name": "",
					"type": "address"
				}
			],
			"name": "MAP_CONTRACTS",
			"outputs": [
				{
					"internalType": "bool",
					"name": "",
					"type": "bool"
				}
			],
			"stateMutability": "view",
			"type": "function"
		},
		{
			"inputs": [],
			"name": "RANDOM_CONTRACT_ADDRESS",
			"outputs": [
				{
					"internalType": "address",
					"name": "",
					"type": "address"
				}
			],
			"stateMutability": "view",
			"type": "function"
		},
		{
			"inputs": [],
			"name": "VAULT",
			"outputs": [
				{
					"internalType": "address",
					"name": "",
					"type": "address"
				}
			],
			"stateMutability": "view",
			"type": "function"
		},
		{
			"inputs": [
				{
					"components": [
						{
							"internalType": "bool",
							"name": "exists",
							"type": "bool"
						},
						{
							"internalType": "address",
							"name": "contractAddress",
							"type": "address"
						},
						{
							"internalType": "uint256",
							"name": "tokenId",
							"type": "uint256"
						},
						{
							"internalType": "address",
							"name": "owner",
							"type": "address"
						},
						{
							"internalType": "uint256",
							"name": "level",
							"type": "uint256"
						},
						{
							"internalType": "uint256",
							"name": "exp",
							"type": "uint256"
						},
						{
							"internalType": "uint256",
							"name": "upgrades",
							"type": "uint256"
						},
						{
							"components": [
								{
									"internalType": "uint256",
									"name": "strength",
									"type": "uint256"
								},
								{
									"internalType": "uint256",
									"name": "dexterity",
									"type": "uint256"
								},
								{
									"internalType": "uint256",
									"name": "constitution",
									"type": "uint256"
								},
								{
									"internalType": "uint256",
									"name": "luck",
									"type": "uint256"
								},
								{
									"internalType": "uint256",
									"name": "armor",
									"type": "uint256"
								},
								{
									"internalType": "uint256",
									"name": "attack",
									"type": "uint256"
								},
								{
									"internalType": "uint256",
									"name": "health",
									"type": "uint256"
								},
								{
									"internalType": "uint256",
									"name": "takenDamage",
									"type": "uint256"
								}
							],
							"internalType": "struct ComputedStats.Stats",
							"name": "stats",
							"type": "tuple"
						},
						{
							"components": [
								{
									"internalType": "uint256",
									"name": "armorSetId",
									"type": "uint256"
								},
								{
									"internalType": "uint256",
									"name": "weaponSetId",
									"type": "uint256"
								},
								{
									"internalType": "uint256",
									"name": "shieldId",
									"type": "uint256"
								}
							],
							"internalType": "struct Equipment",
							"name": "equipment",
							"type": "tuple"
						}
					],
					"internalType": "struct Character",
					"name": "character",
					"type": "tuple"
				},
				{
					"internalType": "uint256",
					"name": "exp",
					"type": "uint256"
				}
			],
			"name": "addExp",
			"outputs": [],
			"stateMutability": "nonpayable",
			"type": "function"
		},
		{
			"inputs": [
				{
					"internalType": "address",
					"name": "contractAddress",
					"type": "address"
				},
				{
					"internalType": "uint256",
					"name": "tokenId",
					"type": "uint256"
				}
			],
			"name": "getCharacter",
			"outputs": [
				{
					"components": [
						{
							"internalType": "bool",
							"name": "exists",
							"type": "bool"
						},
						{
							"internalType": "address",
							"name": "contractAddress",
							"type": "address"
						},
						{
							"internalType": "uint256",
							"name": "tokenId",
							"type": "uint256"
						},
						{
							"internalType": "address",
							"name": "owner",
							"type": "address"
						},
						{
							"internalType": "uint256",
							"name": "level",
							"type": "uint256"
						},
						{
							"internalType": "uint256",
							"name": "exp",
							"type": "uint256"
						},
						{
							"internalType": "uint256",
							"name": "upgrades",
							"type": "uint256"
						},
						{
							"components": [
								{
									"internalType": "uint256",
									"name": "strength",
									"type": "uint256"
								},
								{
									"internalType": "uint256",
									"name": "dexterity",
									"type": "uint256"
								},
								{
									"internalType": "uint256",
									"name": "constitution",
									"type": "uint256"
								},
								{
									"internalType": "uint256",
									"name": "luck",
									"type": "uint256"
								},
								{
									"internalType": "uint256",
									"name": "armor",
									"type": "uint256"
								},
								{
									"internalType": "uint256",
									"name": "attack",
									"type": "uint256"
								},
								{
									"internalType": "uint256",
									"name": "health",
									"type": "uint256"
								},
								{
									"internalType": "uint256",
									"name": "takenDamage",
									"type": "uint256"
								}
							],
							"internalType": "struct ComputedStats.Stats",
							"name": "stats",
							"type": "tuple"
						},
						{
							"components": [
								{
									"internalType": "uint256",
									"name": "armorSetId",
									"type": "uint256"
								},
								{
									"internalType": "uint256",
									"name": "weaponSetId",
									"type": "uint256"
								},
								{
									"internalType": "uint256",
									"name": "shieldId",
									"type": "uint256"
								}
							],
							"internalType": "struct Equipment",
							"name": "equipment",
							"type": "tuple"
						}
					],
					"internalType": "struct Character",
					"name": "character",
					"type": "tuple"
				}
			],
			"stateMutability": "view",
			"type": "function"
		},
		{
			"inputs": [
				{
					"internalType": "address",
					"name": "contractAddress",
					"type": "address"
				},
				{
					"internalType": "uint256",
					"name": "tokenId",
					"type": "uint256"
				},
				{
					"internalType": "enum StatType",
					"name": "stat",
					"type": "uint8"
				},
				{
					"internalType": "uint256",
					"name": "value",
					"type": "uint256"
				}
			],
			"name": "modifyStats",
			"outputs": [],
			"stateMutability": "nonpayable",
			"type": "function"
		},
		{
			"inputs": [
				{
					"components": [
						{
							"internalType": "bool",
							"name": "exists",
							"type": "bool"
						},
						{
							"internalType": "address",
							"name": "contractAddress",
							"type": "address"
						},
						{
							"internalType": "uint256",
							"name": "tokenId",
							"type": "uint256"
						},
						{
							"internalType": "address",
							"name": "owner",
							"type": "address"
						},
						{
							"internalType": "uint256",
							"name": "level",
							"type": "uint256"
						},
						{
							"internalType": "uint256",
							"name": "exp",
							"type": "uint256"
						},
						{
							"internalType": "uint256",
							"name": "upgrades",
							"type": "uint256"
						},
						{
							"components": [
								{
									"internalType": "uint256",
									"name": "strength",
									"type": "uint256"
								},
								{
									"internalType": "uint256",
									"name": "dexterity",
									"type": "uint256"
								},
								{
									"internalType": "uint256",
									"name": "constitution",
									"type": "uint256"
								},
								{
									"internalType": "uint256",
									"name": "luck",
									"type": "uint256"
								},
								{
									"internalType": "uint256",
									"name": "armor",
									"type": "uint256"
								},
								{
									"internalType": "uint256",
									"name": "attack",
									"type": "uint256"
								},
								{
									"internalType": "uint256",
									"name": "health",
									"type": "uint256"
								},
								{
									"internalType": "uint256",
									"name": "takenDamage",
									"type": "uint256"
								}
							],
							"internalType": "struct ComputedStats.Stats",
							"name": "stats",
							"type": "tuple"
						},
						{
							"components": [
								{
									"internalType": "uint256",
									"name": "armorSetId",
									"type": "uint256"
								},
								{
									"internalType": "uint256",
									"name": "weaponSetId",
									"type": "uint256"
								},
								{
									"internalType": "uint256",
									"name": "shieldId",
									"type": "uint256"
								}
							],
							"internalType": "struct Equipment",
							"name": "equipment",
							"type": "tuple"
						}
					],
					"internalType": "struct Character",
					"name": "character",
					"type": "tuple"
				}
			],
			"name": "save",
			"outputs": [],
			"stateMutability": "nonpayable",
			"type": "function"
		},
		{
			"inputs": [
				{
					"internalType": "address",
					"name": "_address",
					"type": "address"
				}
			],
			"name": "setCharacterContractAddress",
			"outputs": [],
			"stateMutability": "nonpayable",
			"type": "function"
		},
		{
			"inputs": [
				{
					"internalType": "address",
					"name": "_address",
					"type": "address"
				}
			],
			"name": "setEquipmentContractAddress",
			"outputs": [],
			"stateMutability": "nonpayable",
			"type": "function"
		},
		{
			"inputs": [
				{
					"internalType": "address",
					"name": "_address",
					"type": "address"
				}
			],
			"name": "setFightContractAddress",
			"outputs": [],
			"stateMutability": "nonpayable",
			"type": "function"
		},
		{
			"inputs": [
				{
					"internalType": "address",
					"name": "_address",
					"type": "address"
				}
			],
			"name": "setGMContractAddress",
			"outputs": [],
			"stateMutability": "nonpayable",
			"type": "function"
		},
		{
			"inputs": [
				{
					"internalType": "address",
					"name": "newGM",
					"type": "address"
				}
			],
			"name": "setGameMasterAddress",
			"outputs": [],
			"stateMutability": "nonpayable",
			"type": "function"
		},
		{
			"inputs": [
				{
					"internalType": "address",
					"name": "newAddress",
					"type": "address"
				}
			],
			"name": "setRandomContractAddress",
			"outputs": [],
			"stateMutability": "nonpayable",
			"type": "function"
		},
		{
			"inputs": [
				{
					"internalType": "address",
					"name": "_address",
					"type": "address"
				}
			],
			"name": "setVaultAddress",
			"outputs": [],
			"stateMutability": "nonpayable",
			"type": "function"
		},
		{
			"inputs": [
				{
					"internalType": "uint256",
					"name": "level",
					"type": "uint256"
				}
			],
			"name": "toNextLevel",
			"outputs": [
				{
					"internalType": "uint256",
					"name": "amount",
					"type": "uint256"
				}
			],
			"stateMutability": "view",
			"type": "function"
		},
		{
			"inputs": [
				{
					"internalType": "address",
					"name": "contractAddress",
					"type": "address"
				},
				{
					"internalType": "uint256",
					"name": "tokenId",
					"type": "uint256"
				},
				{
					"internalType": "enum StatType",
					"name": "stat",
					"type": "uint8"
				}
			],
			"name": "upgrade",
			"outputs": [],
			"stateMutability": "nonpayable",
			"type": "function"
		},
		{
			"inputs": [],
			"name": "withdraw",
			"outputs": [],
			"stateMutability": "nonpayable",
			"type": "function"
		}
	]
}