{
	"data": {
		"bytecode": {
			"linkReferences": {},
			"object": "608060405260008060006101000a81548173ffffffffffffffffffffffffffffffffffffffff021916908373ffffffffffffffffffffffffffffffffffffffff16021790555034801561005157600080fd5b50604051610ceb380380610ceb83398181016040528101906100739190610193565b80806100848161008c60201b60201c565b5050506101c0565b806000806101000a81548173ffffffffffffffffffffffffffffffffffffffff021916908373ffffffffffffffffffffffffffffffffffffffff16021790555060008054906101000a900473ffffffffffffffffffffffffffffffffffffffff16600160006101000a81548173ffffffffffffffffffffffffffffffffffffffff021916908373ffffffffffffffffffffffffffffffffffffffff16021790555050565b600080fd5b600073ffffffffffffffffffffffffffffffffffffffff82169050919050565b600061016082610135565b9050919050565b61017081610155565b811461017b57600080fd5b50565b60008151905061018d81610167565b92915050565b6000602082840312156101a9576101a8610130565b5b60006101b78482850161017e565b91505092915050565b610b1c806101cf6000396000f3fe608060405234801561001057600080fd5b50600436106100575760003560e01c8063410022291461005c5780634848d46314610078578063a93ee52314610096578063d3dd4f29146100b2578063d7050b05146100d0575b600080fd5b61007660048036038101906100719190610841565b6100ec565b005b6100806101fc565b60405161008d91906108a6565b60405180910390f35b6100b060048036038101906100ab91906108c1565b610220565b005b6100ba61032f565b6040516100c791906108a6565b60405180910390f35b6100ea60048036038101906100e59190610903565b610355565b005b336000600160009054906101000a900473ffffffffffffffffffffffffffffffffffffffff1673ffffffffffffffffffffffffffffffffffffffff1663d590f8c9836040518263ffffffff1660e01b815260040161014a91906108a6565b602060405180830381865afa158015610167573d6000803e3d6000fd5b505050506040513d601f19601f8201168201806040525081019061018b9190610955565b9050600160028111156101a1576101a0610982565b5b8160028111156101b4576101b3610982565b5b10156101f5576040517f08c379a00000000000000000000000000000000000000000000000000000000081526004016101ec90610a34565b60405180910390fd5b5050505050565b60008054906101000a900473ffffffffffffffffffffffffffffffffffffffff1681565b336000600160009054906101000a900473ffffffffffffffffffffffffffffffffffffffff1673ffffffffffffffffffffffffffffffffffffffff1663d590f8c9836040518263ffffffff1660e01b815260040161027e91906108a6565b602060405180830381865afa15801561029b573d6000803e3d6000fd5b505050506040513d601f19601f820116820180604052508101906102bf9190610955565b9050600160028111156102d5576102d4610982565b5b8160028111156102e8576102e7610982565b5b1015610329576040517f08c379a000000000000000000000000000000000000000000000000000000000815260040161032090610a34565b60405180910390fd5b50505050565b600260009054906101000a900473ffffffffffffffffffffffffffffffffffffffff1681565b336000600160009054906101000a900473ffffffffffffffffffffffffffffffffffffffff1673ffffffffffffffffffffffffffffffffffffffff1663d590f8c9836040518263ffffffff1660e01b81526004016103b391906108a6565b602060405180830381865afa1580156103d0573d6000803e3d6000fd5b505050506040513d601f19601f820116820180604052508101906103f49190610955565b905060028081111561040957610408610982565b5b81600281111561041c5761041b610982565b5b1461045c576040517f08c379a000000000000000000000000000000000000000000000000000000000815260040161045390610ac6565b60405180910390fd5b82600260006101000a81548173ffffffffffffffffffffffffffffffffffffffff021916908373ffffffffffffffffffffffffffffffffffffffff160217905550505050565b6000604051905090565b600080fd5b600080fd5b6000601f19601f8301169050919050565b7f4e487b7100000000000000000000000000000000000000000000000000000000600052604160045260246000fd5b6104ff826104b6565b810181811067ffffffffffffffff8211171561051e5761051d6104c7565b5b80604052505050565b60006105316104a2565b905061053d82826104f6565b919050565b60008115159050919050565b61055781610542565b811461056257600080fd5b50565b6000813590506105748161054e565b92915050565b600073ffffffffffffffffffffffffffffffffffffffff82169050919050565b60006105a58261057a565b9050919050565b6105b58161059a565b81146105c057600080fd5b50565b6000813590506105d2816105ac565b92915050565b6000819050919050565b6105eb816105d8565b81146105f657600080fd5b50565b600081359050610608816105e2565b92915050565b60006101008284031215610625576106246104b1565b5b610630610100610527565b90506000610640848285016105f9565b6000830152506020610654848285016105f9565b6020830152506040610668848285016105f9565b604083015250606061067c848285016105f9565b6060830152506080610690848285016105f9565b60808301525060a06106a4848285016105f9565b60a08301525060c06106b8848285016105f9565b60c08301525060e06106cc848285016105f9565b60e08301525092915050565b6000606082840312156106ee576106ed6104b1565b5b6106f86060610527565b90506000610708848285016105f9565b600083015250602061071c848285016105f9565b6020830152506040610730848285016105f9565b60408301525092915050565b60006102408284031215610753576107526104b1565b5b61075e610120610527565b9050600061076e84828501610565565b6000830152506020610782848285016105c3565b6020830152506040610796848285016105f9565b60408301525060606107aa848285016105c3565b60608301525060806107be848285016105f9565b60808301525060a06107d2848285016105f9565b60a08301525060c06107e6848285016105f9565b60c08301525060e06107fa8482850161060e565b60e0830152506101e061080f848285016106d8565b6101008301525092915050565b6004811061082957600080fd5b50565b60008135905061083b8161081c565b92915050565b6000806000610280848603121561085b5761085a6104ac565b5b60006108698682870161073c565b93505061024061087b8682870161082c565b92505061026061088d868287016105f9565b9150509250925092565b6108a08161059a565b82525050565b60006020820190506108bb6000830184610897565b92915050565b60008061026083850312156108d9576108d86104ac565b5b60006108e78582860161073c565b9250506102406108f98582860161082c565b9150509250929050565b600060208284031215610919576109186104ac565b5b6000610927848285016105c3565b91505092915050565b6003811061093d57600080fd5b50565b60008151905061094f81610930565b92915050565b60006020828403121561096b5761096a6104ac565b5b600061097984828501610940565b91505092915050565b7f4e487b7100000000000000000000000000000000000000000000000000000000600052602160045260246000fd5b600082825260208201905092915050565b7f4f6e6c792067616d6520636f6e7472616374732063616e2063616c6c2074686960008201527f73206d6574686f64000000000000000000000000000000000000000000000000602082015250565b6000610a1e6028836109b1565b9150610a29826109c2565b604082019050919050565b60006020820190508181036000830152610a4d81610a11565b9050919050565b7f4f6e6c792047616d65204d61737465722063616e2063616c6c2074686973206d60008201527f6574686f64000000000000000000000000000000000000000000000000000000602082015250565b6000610ab06025836109b1565b9150610abb82610a54565b604082019050919050565b60006020820190508181036000830152610adf81610aa3565b905091905056fea2646970667358221220f5c535b1711dafc40ab4815dee9858fd7cbe740135a0c4af423ec17d365b271764736f6c634300080a0033",
			"opcodes": "PUSH1 0x80 PUSH1 0x40 MSTORE PUSH1 0x0 DUP1 PUSH1 0x0 PUSH2 0x100 EXP DUP2 SLOAD DUP2 PUSH20 0xFFFFFFFFFFFFFFFFFFFFFFFFFFFFFFFFFFFFFFFF MUL NOT AND SWAP1 DUP4 PUSH20 0xFFFFFFFFFFFFFFFFFFFFFFFFFFFFFFFFFFFFFFFF AND MUL OR SWAP1 SSTORE POP CALLVALUE DUP1 ISZERO PUSH2 0x51 JUMPI PUSH1 0x0 DUP1 REVERT JUMPDEST POP PUSH1 0x40 MLOAD PUSH2 0xCEB CODESIZE SUB DUP1 PUSH2 0xCEB DUP4 CODECOPY DUP2 DUP2 ADD PUSH1 0x40 MSTORE DUP2 ADD SWAP1 PUSH2 0x73 SWAP2 SWAP1 PUSH2 0x193 JUMP JUMPDEST DUP1 DUP1 PUSH2 0x84 DUP2 PUSH2 0x8C PUSH1 0x20 SHL PUSH1 0x20 SHR JUMP JUMPDEST POP POP POP PUSH2 0x1C0 JUMP JUMPDEST DUP1 PUSH1 0x0 DUP1 PUSH2 0x100 EXP DUP2 SLOAD DUP2 PUSH20 0xFFFFFFFFFFFFFFFFFFFFFFFFFFFFFFFFFFFFFFFF MUL NOT AND SWAP1 DUP4 PUSH20 0xFFFFFFFFFFFFFFFFFFFFFFFFFFFFFFFFFFFFFFFF AND MUL OR SWAP1 SSTORE POP PUSH1 0x0 DUP1 SLOAD SWAP1 PUSH2 0x100 EXP SWAP1 DIV PUSH20 0xFFFFFFFFFFFFFFFFFFFFFFFFFFFFFFFFFFFFFFFF AND PUSH1 0x1 PUSH1 0x0 PUSH2 0x100 EXP DUP2 SLOAD DUP2 PUSH20 0xFFFFFFFFFFFFFFFFFFFFFFFFFFFFFFFFFFFFFFFF MUL NOT AND SWAP1 DUP4 PUSH20 0xFFFFFFFFFFFFFFFFFFFFFFFFFFFFFFFFFFFFFFFF AND MUL OR SWAP1 SSTORE POP POP JUMP JUMPDEST PUSH1 0x0 DUP1 REVERT JUMPDEST PUSH1 0x0 PUSH20 0xFFFFFFFFFFFFFFFFFFFFFFFFFFFFFFFFFFFFFFFF DUP3 AND SWAP1 POP SWAP2 SWAP1 POP JUMP JUMPDEST PUSH1 0x0 PUSH2 0x160 DUP3 PUSH2 0x135 JUMP JUMPDEST SWAP1 POP SWAP2 SWAP1 POP JUMP JUMPDEST PUSH2 0x170 DUP2 PUSH2 0x155 JUMP JUMPDEST DUP2 EQ PUSH2 0x17B JUMPI PUSH1 0x0 DUP1 REVERT JUMPDEST POP JUMP JUMPDEST PUSH1 0x0 DUP2 MLOAD SWAP1 POP PUSH2 0x18D DUP2 PUSH2 0x167 JUMP JUMPDEST SWAP3 SWAP2 POP POP JUMP JUMPDEST PUSH1 0x0 PUSH1 0x20 DUP3 DUP5 SUB SLT ISZERO PUSH2 0x1A9 JUMPI PUSH2 0x1A8 PUSH2 0x130 JUMP JUMPDEST JUMPDEST PUSH1 0x0 PUSH2 0x1B7 DUP5 DUP3 DUP6 ADD PUSH2 0x17E JUMP JUMPDEST SWAP2 POP POP SWAP3 SWAP2 POP POP JUMP JUMPDEST PUSH2 0xB1C DUP1 PUSH2 0x1CF PUSH1 0x0 CODECOPY PUSH1 0x0 RETURN INVALID PUSH1 0x80 PUSH1 0x40 MSTORE CALLVALUE DUP1 ISZERO PUSH2 0x10 JUMPI PUSH1 0x0 DUP1 REVERT JUMPDEST POP PUSH1 0x4 CALLDATASIZE LT PUSH2 0x57 JUMPI PUSH1 0x0 CALLDATALOAD PUSH1 0xE0 SHR DUP1 PUSH4 0x41002229 EQ PUSH2 0x5C JUMPI DUP1 PUSH4 0x4848D463 EQ PUSH2 0x78 JUMPI DUP1 PUSH4 0xA93EE523 EQ PUSH2 0x96 JUMPI DUP1 PUSH4 0xD3DD4F29 EQ PUSH2 0xB2 JUMPI DUP1 PUSH4 0xD7050B05 EQ PUSH2 0xD0 JUMPI JUMPDEST PUSH1 0x0 DUP1 REVERT JUMPDEST PUSH2 0x76 PUSH1 0x4 DUP1 CALLDATASIZE SUB DUP2 ADD SWAP1 PUSH2 0x71 SWAP2 SWAP1 PUSH2 0x841 JUMP JUMPDEST PUSH2 0xEC JUMP JUMPDEST STOP JUMPDEST PUSH2 0x80 PUSH2 0x1FC JUMP JUMPDEST PUSH1 0x40 MLOAD PUSH2 0x8D SWAP2 SWAP1 PUSH2 0x8A6 JUMP JUMPDEST PUSH1 0x40 MLOAD DUP1 SWAP2 SUB SWAP1 RETURN JUMPDEST PUSH2 0xB0 PUSH1 0x4 DUP1 CALLDATASIZE SUB DUP2 ADD SWAP1 PUSH2 0xAB SWAP2 SWAP1 PUSH2 0x8C1 JUMP JUMPDEST PUSH2 0x220 JUMP JUMPDEST STOP JUMPDEST PUSH2 0xBA PUSH2 0x32F JUMP JUMPDEST PUSH1 0x40 MLOAD PUSH2 0xC7 SWAP2 SWAP1 PUSH2 0x8A6 JUMP JUMPDEST PUSH1 0x40 MLOAD DUP1 SWAP2 SUB SWAP1 RETURN JUMPDEST PUSH2 0xEA PUSH1 0x4 DUP1 CALLDATASIZE SUB DUP2 ADD SWAP1 PUSH2 0xE5 SWAP2 SWAP1 PUSH2 0x903 JUMP JUMPDEST PUSH2 0x355 JUMP JUMPDEST STOP JUMPDEST CALLER PUSH1 0x0 PUSH1 0x1 PUSH1 0x0 SWAP1 SLOAD SWAP1 PUSH2 0x100 EXP SWAP1 DIV PUSH20 0xFFFFFFFFFFFFFFFFFFFFFFFFFFFFFFFFFFFFFFFF AND PUSH20 0xFFFFFFFFFFFFFFFFFFFFFFFFFFFFFFFFFFFFFFFF AND PUSH4 0xD590F8C9 DUP4 PUSH1 0x40 MLOAD DUP3 PUSH4 0xFFFFFFFF AND PUSH1 0xE0 SHL DUP2 MSTORE PUSH1 0x4 ADD PUSH2 0x14A SWAP2 SWAP1 PUSH2 0x8A6 JUMP JUMPDEST PUSH1 0x20 PUSH1 0x40 MLOAD DUP1 DUP4 SUB DUP2 DUP7 GAS STATICCALL ISZERO DUP1 ISZERO PUSH2 0x167 JUMPI RETURNDATASIZE PUSH1 0x0 DUP1 RETURNDATACOPY RETURNDATASIZE PUSH1 0x0 REVERT JUMPDEST POP POP POP POP PUSH1 0x40 MLOAD RETURNDATASIZE PUSH1 0x1F NOT PUSH1 0x1F DUP3 ADD AND DUP3 ADD DUP1 PUSH1 0x40 MSTORE POP DUP2 ADD SWAP1 PUSH2 0x18B SWAP2 SWAP1 PUSH2 0x955 JUMP JUMPDEST SWAP1 POP PUSH1 0x1 PUSH1 0x2 DUP2 GT ISZERO PUSH2 0x1A1 JUMPI PUSH2 0x1A0 PUSH2 0x982 JUMP JUMPDEST JUMPDEST DUP2 PUSH1 0x2 DUP2 GT ISZERO PUSH2 0x1B4 JUMPI PUSH2 0x1B3 PUSH2 0x982 JUMP JUMPDEST JUMPDEST LT ISZERO PUSH2 0x1F5 JUMPI PUSH1 0x40 MLOAD PUSH32 0x8C379A000000000000000000000000000000000000000000000000000000000 DUP2 MSTORE PUSH1 0x4 ADD PUSH2 0x1EC SWAP1 PUSH2 0xA34 JUMP JUMPDEST PUSH1 0x40 MLOAD DUP1 SWAP2 SUB SWAP1 REVERT JUMPDEST POP POP POP POP POP JUMP JUMPDEST PUSH1 0x0 DUP1 SLOAD SWAP1 PUSH2 0x100 EXP SWAP1 DIV PUSH20 0xFFFFFFFFFFFFFFFFFFFFFFFFFFFFFFFFFFFFFFFF AND DUP2 JUMP JUMPDEST CALLER PUSH1 0x0 PUSH1 0x1 PUSH1 0x0 SWAP1 SLOAD SWAP1 PUSH2 0x100 EXP SWAP1 DIV PUSH20 0xFFFFFFFFFFFFFFFFFFFFFFFFFFFFFFFFFFFFFFFF AND PUSH20 0xFFFFFFFFFFFFFFFFFFFFFFFFFFFFFFFFFFFFFFFF AND PUSH4 0xD590F8C9 DUP4 PUSH1 0x40 MLOAD DUP3 PUSH4 0xFFFFFFFF AND PUSH1 0xE0 SHL DUP2 MSTORE PUSH1 0x4 ADD PUSH2 0x27E SWAP2 SWAP1 PUSH2 0x8A6 JUMP JUMPDEST PUSH1 0x20 PUSH1 0x40 MLOAD DUP1 DUP4 SUB DUP2 DUP7 GAS STATICCALL ISZERO DUP1 ISZERO PUSH2 0x29B JUMPI RETURNDATASIZE PUSH1 0x0 DUP1 RETURNDATACOPY RETURNDATASIZE PUSH1 0x0 REVERT JUMPDEST POP POP POP POP PUSH1 0x40 MLOAD RETURNDATASIZE PUSH1 0x1F NOT PUSH1 0x1F DUP3 ADD AND DUP3 ADD DUP1 PUSH1 0x40 MSTORE POP DUP2 ADD SWAP1 PUSH2 0x2BF SWAP2 SWAP1 PUSH2 0x955 JUMP JUMPDEST SWAP1 POP PUSH1 0x1 PUSH1 0x2 DUP2 GT ISZERO PUSH2 0x2D5 JUMPI PUSH2 0x2D4 PUSH2 0x982 JUMP JUMPDEST JUMPDEST DUP2 PUSH1 0x2 DUP2 GT ISZERO PUSH2 0x2E8 JUMPI PUSH2 0x2E7 PUSH2 0x982 JUMP JUMPDEST JUMPDEST LT ISZERO PUSH2 0x329 JUMPI PUSH1 0x40 MLOAD PUSH32 0x8C379A000000000000000000000000000000000000000000000000000000000 DUP2 MSTORE PUSH1 0x4 ADD PUSH2 0x320 SWAP1 PUSH2 0xA34 JUMP JUMPDEST PUSH1 0x40 MLOAD DUP1 SWAP2 SUB SWAP1 REVERT JUMPDEST POP POP POP POP JUMP JUMPDEST PUSH1 0x2 PUSH1 0x0 SWAP1 SLOAD SWAP1 PUSH2 0x100 EXP SWAP1 DIV PUSH20 0xFFFFFFFFFFFFFFFFFFFFFFFFFFFFFFFFFFFFFFFF AND DUP2 JUMP JUMPDEST CALLER PUSH1 0x0 PUSH1 0x1 PUSH1 0x0 SWAP1 SLOAD SWAP1 PUSH2 0x100 EXP SWAP1 DIV PUSH20 0xFFFFFFFFFFFFFFFFFFFFFFFFFFFFFFFFFFFFFFFF AND PUSH20 0xFFFFFFFFFFFFFFFFFFFFFFFFFFFFFFFFFFFFFFFF AND PUSH4 0xD590F8C9 DUP4 PUSH1 0x40 MLOAD DUP3 PUSH4 0xFFFFFFFF AND PUSH1 0xE0 SHL DUP2 MSTORE PUSH1 0x4 ADD PUSH2 0x3B3 SWAP2 SWAP1 PUSH2 0x8A6 JUMP JUMPDEST PUSH1 0x20 PUSH1 0x40 MLOAD DUP1 DUP4 SUB DUP2 DUP7 GAS STATICCALL ISZERO DUP1 ISZERO PUSH2 0x3D0 JUMPI RETURNDATASIZE PUSH1 0x0 DUP1 RETURNDATACOPY RETURNDATASIZE PUSH1 0x0 REVERT JUMPDEST POP POP POP POP PUSH1 0x40 MLOAD RETURNDATASIZE PUSH1 0x1F NOT PUSH1 0x1F DUP3 ADD AND DUP3 ADD DUP1 PUSH1 0x40 MSTORE POP DUP2 ADD SWAP1 PUSH2 0x3F4 SWAP2 SWAP1 PUSH2 0x955 JUMP JUMPDEST SWAP1 POP PUSH1 0x2 DUP1 DUP2 GT ISZERO PUSH2 0x409 JUMPI PUSH2 0x408 PUSH2 0x982 JUMP JUMPDEST JUMPDEST DUP2 PUSH1 0x2 DUP2 GT ISZERO PUSH2 0x41C JUMPI PUSH2 0x41B PUSH2 0x982 JUMP JUMPDEST JUMPDEST EQ PUSH2 0x45C JUMPI PUSH1 0x40 MLOAD PUSH32 0x8C379A000000000000000000000000000000000000000000000000000000000 DUP2 MSTORE PUSH1 0x4 ADD PUSH2 0x453 SWAP1 PUSH2 0xAC6 JUMP JUMPDEST PUSH1 0x40 MLOAD DUP1 SWAP2 SUB SWAP1 REVERT JUMPDEST DUP3 PUSH1 0x2 PUSH1 0x0 PUSH2 0x100 EXP DUP2 SLOAD DUP2 PUSH20 0xFFFFFFFFFFFFFFFFFFFFFFFFFFFFFFFFFFFFFFFF MUL NOT AND SWAP1 DUP4 PUSH20 0xFFFFFFFFFFFFFFFFFFFFFFFFFFFFFFFFFFFFFFFF AND MUL OR SWAP1 SSTORE POP POP POP POP JUMP JUMPDEST PUSH1 0x0 PUSH1 0x40 MLOAD SWAP1 POP SWAP1 JUMP JUMPDEST PUSH1 0x0 DUP1 REVERT JUMPDEST PUSH1 0x0 DUP1 REVERT JUMPDEST PUSH1 0x0 PUSH1 0x1F NOT PUSH1 0x1F DUP4 ADD AND SWAP1 POP SWAP2 SWAP1 POP JUMP JUMPDEST PUSH32 0x4E487B7100000000000000000000000000000000000000000000000000000000 PUSH1 0x0 MSTORE PUSH1 0x41 PUSH1 0x4 MSTORE PUSH1 0x24 PUSH1 0x0 REVERT JUMPDEST PUSH2 0x4FF DUP3 PUSH2 0x4B6 JUMP JUMPDEST DUP2 ADD DUP2 DUP2 LT PUSH8 0xFFFFFFFFFFFFFFFF DUP3 GT OR ISZERO PUSH2 0x51E JUMPI PUSH2 0x51D PUSH2 0x4C7 JUMP JUMPDEST JUMPDEST DUP1 PUSH1 0x40 MSTORE POP POP POP JUMP JUMPDEST PUSH1 0x0 PUSH2 0x531 PUSH2 0x4A2 JUMP JUMPDEST SWAP1 POP PUSH2 0x53D DUP3 DUP3 PUSH2 0x4F6 JUMP JUMPDEST SWAP2 SWAP1 POP JUMP JUMPDEST PUSH1 0x0 DUP2 ISZERO ISZERO SWAP1 POP SWAP2 SWAP1 POP JUMP JUMPDEST PUSH2 0x557 DUP2 PUSH2 0x542 JUMP JUMPDEST DUP2 EQ PUSH2 0x562 JUMPI PUSH1 0x0 DUP1 REVERT JUMPDEST POP JUMP JUMPDEST PUSH1 0x0 DUP2 CALLDATALOAD SWAP1 POP PUSH2 0x574 DUP2 PUSH2 0x54E JUMP JUMPDEST SWAP3 SWAP2 POP POP JUMP JUMPDEST PUSH1 0x0 PUSH20 0xFFFFFFFFFFFFFFFFFFFFFFFFFFFFFFFFFFFFFFFF DUP3 AND SWAP1 POP SWAP2 SWAP1 POP JUMP JUMPDEST PUSH1 0x0 PUSH2 0x5A5 DUP3 PUSH2 0x57A JUMP JUMPDEST SWAP1 POP SWAP2 SWAP1 POP JUMP JUMPDEST PUSH2 0x5B5 DUP2 PUSH2 0x59A JUMP JUMPDEST DUP2 EQ PUSH2 0x5C0 JUMPI PUSH1 0x0 DUP1 REVERT JUMPDEST POP JUMP JUMPDEST PUSH1 0x0 DUP2 CALLDATALOAD SWAP1 POP PUSH2 0x5D2 DUP2 PUSH2 0x5AC JUMP JUMPDEST SWAP3 SWAP2 POP POP JUMP JUMPDEST PUSH1 0x0 DUP2 SWAP1 POP SWAP2 SWAP1 POP JUMP JUMPDEST PUSH2 0x5EB DUP2 PUSH2 0x5D8 JUMP JUMPDEST DUP2 EQ PUSH2 0x5F6 JUMPI PUSH1 0x0 DUP1 REVERT JUMPDEST POP JUMP JUMPDEST PUSH1 0x0 DUP2 CALLDATALOAD SWAP1 POP PUSH2 0x608 DUP2 PUSH2 0x5E2 JUMP JUMPDEST SWAP3 SWAP2 POP POP JUMP JUMPDEST PUSH1 0x0 PUSH2 0x100 DUP3 DUP5 SUB SLT ISZERO PUSH2 0x625 JUMPI PUSH2 0x624 PUSH2 0x4B1 JUMP JUMPDEST JUMPDEST PUSH2 0x630 PUSH2 0x100 PUSH2 0x527 JUMP JUMPDEST SWAP1 POP PUSH1 0x0 PUSH2 0x640 DUP5 DUP3 DUP6 ADD PUSH2 0x5F9 JUMP JUMPDEST PUSH1 0x0 DUP4 ADD MSTORE POP PUSH1 0x20 PUSH2 0x654 DUP5 DUP3 DUP6 ADD PUSH2 0x5F9 JUMP JUMPDEST PUSH1 0x20 DUP4 ADD MSTORE POP PUSH1 0x40 PUSH2 0x668 DUP5 DUP3 DUP6 ADD PUSH2 0x5F9 JUMP JUMPDEST PUSH1 0x40 DUP4 ADD MSTORE POP PUSH1 0x60 PUSH2 0x67C DUP5 DUP3 DUP6 ADD PUSH2 0x5F9 JUMP JUMPDEST PUSH1 0x60 DUP4 ADD MSTORE POP PUSH1 0x80 PUSH2 0x690 DUP5 DUP3 DUP6 ADD PUSH2 0x5F9 JUMP JUMPDEST PUSH1 0x80 DUP4 ADD MSTORE POP PUSH1 0xA0 PUSH2 0x6A4 DUP5 DUP3 DUP6 ADD PUSH2 0x5F9 JUMP JUMPDEST PUSH1 0xA0 DUP4 ADD MSTORE POP PUSH1 0xC0 PUSH2 0x6B8 DUP5 DUP3 DUP6 ADD PUSH2 0x5F9 JUMP JUMPDEST PUSH1 0xC0 DUP4 ADD MSTORE POP PUSH1 0xE0 PUSH2 0x6CC DUP5 DUP3 DUP6 ADD PUSH2 0x5F9 JUMP JUMPDEST PUSH1 0xE0 DUP4 ADD MSTORE POP SWAP3 SWAP2 POP POP JUMP JUMPDEST PUSH1 0x0 PUSH1 0x60 DUP3 DUP5 SUB SLT ISZERO PUSH2 0x6EE JUMPI PUSH2 0x6ED PUSH2 0x4B1 JUMP JUMPDEST JUMPDEST PUSH2 0x6F8 PUSH1 0x60 PUSH2 0x527 JUMP JUMPDEST SWAP1 POP PUSH1 0x0 PUSH2 0x708 DUP5 DUP3 DUP6 ADD PUSH2 0x5F9 JUMP JUMPDEST PUSH1 0x0 DUP4 ADD MSTORE POP PUSH1 0x20 PUSH2 0x71C DUP5 DUP3 DUP6 ADD PUSH2 0x5F9 JUMP JUMPDEST PUSH1 0x20 DUP4 ADD MSTORE POP PUSH1 0x40 PUSH2 0x730 DUP5 DUP3 DUP6 ADD PUSH2 0x5F9 JUMP JUMPDEST PUSH1 0x40 DUP4 ADD MSTORE POP SWAP3 SWAP2 POP POP JUMP JUMPDEST PUSH1 0x0 PUSH2 0x240 DUP3 DUP5 SUB SLT ISZERO PUSH2 0x753 JUMPI PUSH2 0x752 PUSH2 0x4B1 JUMP JUMPDEST JUMPDEST PUSH2 0x75E PUSH2 0x120 PUSH2 0x527 JUMP JUMPDEST SWAP1 POP PUSH1 0x0 PUSH2 0x76E DUP5 DUP3 DUP6 ADD PUSH2 0x565 JUMP JUMPDEST PUSH1 0x0 DUP4 ADD MSTORE POP PUSH1 0x20 PUSH2 0x782 DUP5 DUP3 DUP6 ADD PUSH2 0x5C3 JUMP JUMPDEST PUSH1 0x20 DUP4 ADD MSTORE POP PUSH1 0x40 PUSH2 0x796 DUP5 DUP3 DUP6 ADD PUSH2 0x5F9 JUMP JUMPDEST PUSH1 0x40 DUP4 ADD MSTORE POP PUSH1 0x60 PUSH2 0x7AA DUP5 DUP3 DUP6 ADD PUSH2 0x5C3 JUMP JUMPDEST PUSH1 0x60 DUP4 ADD MSTORE POP PUSH1 0x80 PUSH2 0x7BE DUP5 DUP3 DUP6 ADD PUSH2 0x5F9 JUMP JUMPDEST PUSH1 0x80 DUP4 ADD MSTORE POP PUSH1 0xA0 PUSH2 0x7D2 DUP5 DUP3 DUP6 ADD PUSH2 0x5F9 JUMP JUMPDEST PUSH1 0xA0 DUP4 ADD MSTORE POP PUSH1 0xC0 PUSH2 0x7E6 DUP5 DUP3 DUP6 ADD PUSH2 0x5F9 JUMP JUMPDEST PUSH1 0xC0 DUP4 ADD MSTORE POP PUSH1 0xE0 PUSH2 0x7FA DUP5 DUP3 DUP6 ADD PUSH2 0x60E JUMP JUMPDEST PUSH1 0xE0 DUP4 ADD MSTORE POP PUSH2 0x1E0 PUSH2 0x80F DUP5 DUP3 DUP6 ADD PUSH2 0x6D8 JUMP JUMPDEST PUSH2 0x100 DUP4 ADD MSTORE POP SWAP3 SWAP2 POP POP JUMP JUMPDEST PUSH1 0x4 DUP2 LT PUSH2 0x829 JUMPI PUSH1 0x0 DUP1 REVERT JUMPDEST POP JUMP JUMPDEST PUSH1 0x0 DUP2 CALLDATALOAD SWAP1 POP PUSH2 0x83B DUP2 PUSH2 0x81C JUMP JUMPDEST SWAP3 SWAP2 POP POP JUMP JUMPDEST PUSH1 0x0 DUP1 PUSH1 0x0 PUSH2 0x280 DUP5 DUP7 SUB SLT ISZERO PUSH2 0x85B JUMPI PUSH2 0x85A PUSH2 0x4AC JUMP JUMPDEST JUMPDEST PUSH1 0x0 PUSH2 0x869 DUP7 DUP3 DUP8 ADD PUSH2 0x73C JUMP JUMPDEST SWAP4 POP POP PUSH2 0x240 PUSH2 0x87B DUP7 DUP3 DUP8 ADD PUSH2 0x82C JUMP JUMPDEST SWAP3 POP POP PUSH2 0x260 PUSH2 0x88D DUP7 DUP3 DUP8 ADD PUSH2 0x5F9 JUMP JUMPDEST SWAP2 POP POP SWAP3 POP SWAP3 POP SWAP3 JUMP JUMPDEST PUSH2 0x8A0 DUP2 PUSH2 0x59A JUMP JUMPDEST DUP3 MSTORE POP POP JUMP JUMPDEST PUSH1 0x0 PUSH1 0x20 DUP3 ADD SWAP1 POP PUSH2 0x8BB PUSH1 0x0 DUP4 ADD DUP5 PUSH2 0x897 JUMP JUMPDEST SWAP3 SWAP2 POP POP JUMP JUMPDEST PUSH1 0x0 DUP1 PUSH2 0x260 DUP4 DUP6 SUB SLT ISZERO PUSH2 0x8D9 JUMPI PUSH2 0x8D8 PUSH2 0x4AC JUMP JUMPDEST JUMPDEST PUSH1 0x0 PUSH2 0x8E7 DUP6 DUP3 DUP7 ADD PUSH2 0x73C JUMP JUMPDEST SWAP3 POP POP PUSH2 0x240 PUSH2 0x8F9 DUP6 DUP3 DUP7 ADD PUSH2 0x82C JUMP JUMPDEST SWAP2 POP POP SWAP3 POP SWAP3 SWAP1 POP JUMP JUMPDEST PUSH1 0x0 PUSH1 0x20 DUP3 DUP5 SUB SLT ISZERO PUSH2 0x919 JUMPI PUSH2 0x918 PUSH2 0x4AC JUMP JUMPDEST JUMPDEST PUSH1 0x0 PUSH2 0x927 DUP5 DUP3 DUP6 ADD PUSH2 0x5C3 JUMP JUMPDEST SWAP2 POP POP SWAP3 SWAP2 POP POP JUMP JUMPDEST PUSH1 0x3 DUP2 LT PUSH2 0x93D JUMPI PUSH1 0x0 DUP1 REVERT JUMPDEST POP JUMP JUMPDEST PUSH1 0x0 DUP2 MLOAD SWAP1 POP PUSH2 0x94F DUP2 PUSH2 0x930 JUMP JUMPDEST SWAP3 SWAP2 POP POP JUMP JUMPDEST PUSH1 0x0 PUSH1 0x20 DUP3 DUP5 SUB SLT ISZERO PUSH2 0x96B JUMPI PUSH2 0x96A PUSH2 0x4AC JUMP JUMPDEST JUMPDEST PUSH1 0x0 PUSH2 0x979 DUP5 DUP3 DUP6 ADD PUSH2 0x940 JUMP JUMPDEST SWAP2 POP POP SWAP3 SWAP2 POP POP JUMP JUMPDEST PUSH32 0x4E487B7100000000000000000000000000000000000000000000000000000000 PUSH1 0x0 MSTORE PUSH1 0x21 PUSH1 0x4 MSTORE PUSH1 0x24 PUSH1 0x0 REVERT JUMPDEST PUSH1 0x0 DUP3 DUP3 MSTORE PUSH1 0x20 DUP3 ADD SWAP1 POP SWAP3 SWAP2 POP POP JUMP JUMPDEST PUSH32 0x4F6E6C792067616D6520636F6E7472616374732063616E2063616C6C20746869 PUSH1 0x0 DUP3 ADD MSTORE PUSH32 0x73206D6574686F64000000000000000000000000000000000000000000000000 PUSH1 0x20 DUP3 ADD MSTORE POP JUMP JUMPDEST PUSH1 0x0 PUSH2 0xA1E PUSH1 0x28 DUP4 PUSH2 0x9B1 JUMP JUMPDEST SWAP2 POP PUSH2 0xA29 DUP3 PUSH2 0x9C2 JUMP JUMPDEST PUSH1 0x40 DUP3 ADD SWAP1 POP SWAP2 SWAP1 POP JUMP JUMPDEST PUSH1 0x0 PUSH1 0x20 DUP3 ADD SWAP1 POP DUP2 DUP2 SUB PUSH1 0x0 DUP4 ADD MSTORE PUSH2 0xA4D DUP2 PUSH2 0xA11 JUMP JUMPDEST SWAP1 POP SWAP2 SWAP1 POP JUMP JUMPDEST PUSH32 0x4F6E6C792047616D65204D61737465722063616E2063616C6C2074686973206D PUSH1 0x0 DUP3 ADD MSTORE PUSH32 0x6574686F64000000000000000000000000000000000000000000000000000000 PUSH1 0x20 DUP3 ADD MSTORE POP JUMP JUMPDEST PUSH1 0x0 PUSH2 0xAB0 PUSH1 0x25 DUP4 PUSH2 0x9B1 JUMP JUMPDEST SWAP2 POP PUSH2 0xABB DUP3 PUSH2 0xA54 JUMP JUMPDEST PUSH1 0x40 DUP3 ADD SWAP1 POP SWAP2 SWAP1 POP JUMP JUMPDEST PUSH1 0x0 PUSH1 0x20 DUP3 ADD SWAP1 POP DUP2 DUP2 SUB PUSH1 0x0 DUP4 ADD MSTORE PUSH2 0xADF DUP2 PUSH2 0xAA3 JUMP JUMPDEST SWAP1 POP SWAP2 SWAP1 POP JUMP INVALID LOG2 PUSH5 0x6970667358 0x22 SLT KECCAK256 CREATE2 0xC5 CALLDATALOAD 0xB1 PUSH18 0x1DAFC40AB4815DEE9858FD7CBE740135A0C4 0xAF TIMESTAMP RETURNDATACOPY 0xC1 PUSH30 0x365B271764736F6C634300080A0033000000000000000000000000000000 "
		},
		"gasEstimates": {
			"creation": {
				"codeDepositCost": "568800",
				"executionCost": "infinite",
				"totalCost": "infinite"
			},
			"external": {
				"AUTH_CONTRACT_ADDRESS()": "2511",
				"RANDOM_CONTRACT_ADDRESS()": "2558",
				"equip((bool,address,uint256,address,uint256,uint256,uint256,(uint256,uint256,uint256,uint256,uint256,uint256,uint256,uint256),(uint256,uint256,uint256)),uint8,uint256)": "infinite",
				"setRandomContractAddress(address)": "infinite",
				"uneqip((bool,address,uint256,address,uint256,uint256,uint256,(uint256,uint256,uint256,uint256,uint256,uint256,uint256,uint256),(uint256,uint256,uint256)),uint8)": "infinite"
			}
		},
		"methodIdentifiers": {
			"AUTH_CONTRACT_ADDRESS()": "4848d463",
			"RANDOM_CONTRACT_ADDRESS()": "d3dd4f29",
			"equip((bool,address,uint256,address,uint256,uint256,uint256,(uint256,uint256,uint256,uint256,uint256,uint256,uint256,uint256),(uint256,uint256,uint256)),uint8,uint256)": "41002229",
			"setRandomContractAddress(address)": "d7050b05",
			"uneqip((bool,address,uint256,address,uint256,uint256,uint256,(uint256,uint256,uint256,uint256,uint256,uint256,uint256,uint256),(uint256,uint256,uint256)),uint8)": "a93ee523"
		}
	},
	"abi": [
		{
			"inputs": [
				{
					"internalType": "address",
					"name": "authContractAddress",
					"type": "address"
				}
			],
			"stateMutability": "nonpayable",
			"type": "constructor"
		},
		{
			"inputs": [],
			"name": "AUTH_CONTRACT_ADDRESS",
			"outputs": [
				{
					"internalType": "address",
					"name": "",
					"type": "address"
				}
			],
			"stateMutability": "view",
			"type": "function"
		},
		{
			"inputs": [],
			"name": "RANDOM_CONTRACT_ADDRESS",
			"outputs": [
				{
					"internalType": "address",
					"name": "",
					"type": "address"
				}
			],
			"stateMutability": "view",
			"type": "function"
		},
		{
			"inputs": [
				{
					"components": [
						{
							"internalType": "bool",
							"name": "exists",
							"type": "bool"
						},
						{
							"internalType": "address",
							"name": "contractAddress",
							"type": "address"
						},
						{
							"internalType": "uint256",
							"name": "tokenId",
							"type": "uint256"
						},
						{
							"internalType": "address",
							"name": "owner",
							"type": "address"
						},
						{
							"internalType": "uint256",
							"name": "level",
							"type": "uint256"
						},
						{
							"internalType": "uint256",
							"name": "exp",
							"type": "uint256"
						},
						{
							"internalType": "uint256",
							"name": "upgrades",
							"type": "uint256"
						},
						{
							"components": [
								{
									"internalType": "uint256",
									"name": "strength",
									"type": "uint256"
								},
								{
									"internalType": "uint256",
									"name": "dexterity",
									"type": "uint256"
								},
								{
									"internalType": "uint256",
									"name": "constitution",
									"type": "uint256"
								},
								{
									"internalType": "uint256",
									"name": "luck",
									"type": "uint256"
								},
								{
									"internalType": "uint256",
									"name": "armor",
									"type": "uint256"
								},
								{
									"internalType": "uint256",
									"name": "attack",
									"type": "uint256"
								},
								{
									"internalType": "uint256",
									"name": "health",
									"type": "uint256"
								},
								{
									"internalType": "uint256",
									"name": "takenDamage",
									"type": "uint256"
								}
							],
							"internalType": "struct ComputedStats.Stats",
							"name": "stats",
							"type": "tuple"
						},
						{
							"components": [
								{
									"internalType": "uint256",
									"name": "armorSetId",
									"type": "uint256"
								},
								{
									"internalType": "uint256",
									"name": "weaponSetId",
									"type": "uint256"
								},
								{
									"internalType": "uint256",
									"name": "shieldId",
									"type": "uint256"
								}
							],
							"internalType": "struct Equipment",
							"name": "equipment",
							"type": "tuple"
						}
					],
					"internalType": "struct Character",
					"name": "character",
					"type": "tuple"
				},
				{
					"internalType": "enum ItemSlot",
					"name": "slot",
					"type": "uint8"
				},
				{
					"internalType": "uint256",
					"name": "itemId",
					"type": "uint256"
				}
			],
			"name": "equip",
			"outputs": [],
			"stateMutability": "nonpayable",
			"type": "function"
		},
		{
			"inputs": [
				{
					"internalType": "address",
					"name": "newAddress",
					"type": "address"
				}
			],
			"name": "setRandomContractAddress",
			"outputs": [],
			"stateMutability": "nonpayable",
			"type": "function"
		},
		{
			"inputs": [
				{
					"components": [
						{
							"internalType": "bool",
							"name": "exists",
							"type": "bool"
						},
						{
							"internalType": "address",
							"name": "contractAddress",
							"type": "address"
						},
						{
							"internalType": "uint256",
							"name": "tokenId",
							"type": "uint256"
						},
						{
							"internalType": "address",
							"name": "owner",
							"type": "address"
						},
						{
							"internalType": "uint256",
							"name": "level",
							"type": "uint256"
						},
						{
							"internalType": "uint256",
							"name": "exp",
							"type": "uint256"
						},
						{
							"internalType": "uint256",
							"name": "upgrades",
							"type": "uint256"
						},
						{
							"components": [
								{
									"internalType": "uint256",
									"name": "strength",
									"type": "uint256"
								},
								{
									"internalType": "uint256",
									"name": "dexterity",
									"type": "uint256"
								},
								{
									"internalType": "uint256",
									"name": "constitution",
									"type": "uint256"
								},
								{
									"internalType": "uint256",
									"name": "luck",
									"type": "uint256"
								},
								{
									"internalType": "uint256",
									"name": "armor",
									"type": "uint256"
								},
								{
									"internalType": "uint256",
									"name": "attack",
									"type": "uint256"
								},
								{
									"internalType": "uint256",
									"name": "health",
									"type": "uint256"
								},
								{
									"internalType": "uint256",
									"name": "takenDamage",
									"type": "uint256"
								}
							],
							"internalType": "struct ComputedStats.Stats",
							"name": "stats",
							"type": "tuple"
						},
						{
							"components": [
								{
									"internalType": "uint256",
									"name": "armorSetId",
									"type": "uint256"
								},
								{
									"internalType": "uint256",
									"name": "weaponSetId",
									"type": "uint256"
								},
								{
									"internalType": "uint256",
									"name": "shieldId",
									"type": "uint256"
								}
							],
							"internalType": "struct Equipment",
							"name": "equipment",
							"type": "tuple"
						}
					],
					"internalType": "struct Character",
					"name": "character",
					"type": "tuple"
				},
				{
					"internalType": "enum ItemSlot",
					"name": "slot",
					"type": "uint8"
				}
			],
			"name": "uneqip",
			"outputs": [],
			"stateMutability": "nonpayable",
			"type": "function"
		}
	]
}