{
	"data": {
		"bytecode": {
			"linkReferences": {
				"contracts/libraries/ComputedStats.sol": {
					"ComputedStats": [
						{
							"length": 20,
							"start": 1219
						},
						{
							"length": 20,
							"start": 2201
						},
						{
							"length": 20,
							"start": 2348
						},
						{
							"length": 20,
							"start": 2632
						},
						{
							"length": 20,
							"start": 2944
						},
						{
							"length": 20,
							"start": 3312
						},
						{
							"length": 20,
							"start": 3462
						},
						{
							"length": 20,
							"start": 3618
						},
						{
							"length": 20,
							"start": 3732
						},
						{
							"length": 20,
							"start": 3931
						},
						{
							"length": 20,
							"start": 4288
						}
					]
				}
			},
			"object": "608060405260008060006101000a81548173ffffffffffffffffffffffffffffffffffffffff021916908373ffffffffffffffffffffffffffffffffffffffff160217905550600a600260146101000a81548160ff021916908360ff1602179055503480156200006e57600080fd5b50604051620022bc380380620022bc8339818101604052810190620000949190620001be565b8080620000a781620000b060201b60201c565b505050620001f0565b806000806101000a81548173ffffffffffffffffffffffffffffffffffffffff021916908373ffffffffffffffffffffffffffffffffffffffff16021790555060008054906101000a900473ffffffffffffffffffffffffffffffffffffffff16600160006101000a81548173ffffffffffffffffffffffffffffffffffffffff021916908373ffffffffffffffffffffffffffffffffffffffff16021790555050565b600080fd5b600073ffffffffffffffffffffffffffffffffffffffff82169050919050565b6000620001868262000159565b9050919050565b620001988162000179565b8114620001a457600080fd5b50565b600081519050620001b8816200018d565b92915050565b600060208284031215620001d757620001d662000154565b5b6000620001e784828501620001a7565b91505092915050565b6120bc80620002006000396000f3fe608060405234801561001057600080fd5b506004361061004c5760003560e01c80634848d46314610051578063524429771461006f578063d3dd4f291461009f578063d7050b05146100bd575b600080fd5b6100596100d9565b60405161006691906110eb565b60405180910390f35b61008960048036038101906100849190611587565b6100fd565b60405161009691906117a6565b60405180910390f35b6100a761035a565b6040516100b491906110eb565b60405180910390f35b6100d760048036038101906100d291906117c8565b610380565b005b60008054906101000a900473ffffffffffffffffffffffffffffffffffffffff1681565b610105610fe1565b336000600160009054906101000a900473ffffffffffffffffffffffffffffffffffffffff1673ffffffffffffffffffffffffffffffffffffffff1663d590f8c9836040518263ffffffff1660e01b815260040161016391906110eb565b602060405180830381865afa158015610180573d6000803e3d6000fd5b505050506040513d601f19601f820116820180604052508101906101a4919061181a565b9050600160028111156101ba576101b9611847565b5b8160028111156101cd576101cc611847565b5b101561020e576040517f08c379a0000000000000000000000000000000000000000000000000000000008152600401610205906118f9565b60405180910390fd5b610216611018565b610265604051806080016040528061022c6104cd565b81526020016102396104cd565b81526020016102466104cd565b81526020016102536104cd565b8152508261056c90919063ffffffff16565b6040518060a0016040528060008152602001826020015181526020018760e001518152602001600015158152602001600081525093506102a681878761068b565b856060018660800182815250821515151581525050508560e0015173__$d18125c9528dfe4cb67fa81d29b24a1cca$__63af195af290916040518263ffffffff1660e01b81526004016102f991906119ca565b602060405180830381865af4158015610316573d6000803e3d6000fd5b505050506040513d601f19601f8201168201806040525081019061033a91906119fb565b6103515760028460800151901c8460800181815250505b50505092915050565b600260009054906101000a900473ffffffffffffffffffffffffffffffffffffffff1681565b336000600160009054906101000a900473ffffffffffffffffffffffffffffffffffffffff1673ffffffffffffffffffffffffffffffffffffffff1663d590f8c9836040518263ffffffff1660e01b81526004016103de91906110eb565b602060405180830381865afa1580156103fb573d6000803e3d6000fd5b505050506040513d601f19601f8201168201806040525081019061041f919061181a565b905060028081111561043457610433611847565b5b81600281111561044757610446611847565b5b14610487576040517f08c379a000000000000000000000000000000000000000000000000000000000815260040161047e90611a9a565b60405180910390fd5b82600260006101000a81548173ffffffffffffffffffffffffffffffffffffffff021916908373ffffffffffffffffffffffffffffffffffffffff160217905550505050565b600080600260009054906101000a900473ffffffffffffffffffffffffffffffffffffffff1690508073ffffffffffffffffffffffffffffffffffffffff16635ec01e4d6040518163ffffffff1660e01b81526004016020604051808303816000875af1158015610542573d6000803e3d6000fd5b505050506040513d601f19601f820116820180604052508101906105669190611acf565b91505090565b60008160405160200161057f9190611ba7565b60405160208183030381529060405290506000815167ffffffffffffffff8111156105ad576105ac611130565b5b6040519080825280602002602001820160405280156105db5781602001602082028036833780820191505090505b5090506000815190505b600081111561065f57826001826105fc9190611bf1565b8151811061060d5761060c611c25565b5b602001015160f81c60f81b60f81c828284516106299190611bf1565b8151811061063a57610639611c25565b5b602002602001019060ff16908160ff16815250508061065890611c54565b90506105e5565b506000846000019060ff16908160ff168152505081846020018190525080846040018190525050505050565b600080600090508360e0015173__$d18125c9528dfe4cb67fa81d29b24a1cca$__63e870430790916040518263ffffffff1660e01b81526004016106cf91906119ca565b60006040518083038186803b1580156106e757600080fd5b505af41580156106fb573d6000803e3d6000fd5b5050505060005b83518110156107a35783818151811061071e5761071d611c25565b5b60200260200101516040015173__$d18125c9528dfe4cb67fa81d29b24a1cca$__63e870430790916040518263ffffffff1660e01b815260040161076291906119ca565b60006040518083038186803b15801561077a57600080fd5b505af415801561078e573d6000803e3d6000fd5b505050508061079c90611c7e565b9050610702565b5060005b600260149054906101000a900460ff1660ff16811015610a305760006107d7855188610a3e90919063ffffffff16565b905084518160ff161061081f576040517f08c379a000000000000000000000000000000000000000000000000000000000815260040161081690611d13565b60405180910390fd5b6000858260ff168151811061083757610836611c25565b5b60200260200101519050806040015173__$d18125c9528dfe4cb67fa81d29b24a1cca$__63af195af290916040518263ffffffff1660e01b815260040161087e91906119ca565b602060405180830381865af415801561089b573d6000803e3d6000fd5b505050506040513d601f19601f820116820180604052508101906108bf91906119fb565b6108fe576040517f08c379a00000000000000000000000000000000000000000000000000000000081526004016108f590611d7f565b60405180910390fd5b610911888860e001518360400151610ae9565b8461091c9190611d9f565b935061092786610d2b565b955060008651141561093f5760019450505050610a36565b60005b8651811015610a1c576109788988838151811061096257610961611c25565b5b6020026020010151604001518a60e00151610ae9565b508760e0015173__$d18125c9528dfe4cb67fa81d29b24a1cca$__63af195af290916040518263ffffffff1660e01b81526004016109b691906119ca565b602060405180830381865af41580156109d3573d6000803e3d6000fd5b505050506040513d601f19601f820116820180604052508101906109f791906119fb565b610a0b576000809550955050505050610a36565b80610a1590611c7e565b9050610942565b50505080610a2990611c7e565b90506107a7565b50600091505b935093915050565b6000826040015151836000015160ff1610610a8e576040517f08c379a0000000000000000000000000000000000000000000000000000000008152600401610a8590611e41565b60405180910390fd5b818360400151846000015160ff1681518110610aad57610aac611c25565b5b6020026020010151610abf9190611e9d565b9050600183600001818151610ad49190611ece565b91509060ff16908160ff168152505092915050565b600080808373__$d18125c9528dfe4cb67fa81d29b24a1cca$__63bb0253c19091876040518363ffffffff1660e01b8152600401610b28929190611f05565b602060405180830381865af4158015610b45573d6000803e3d6000fd5b505050506040513d601f19601f82011682018060405250810190610b699190611acf565b610b7d608088610a3e90919063ffffffff16565b60ff161091508373__$d18125c9528dfe4cb67fa81d29b24a1cca$__63849637429091876040518363ffffffff1660e01b8152600401610bbe929190611f05565b602060405180830381865af4158015610bdb573d6000803e3d6000fd5b505050506040513d601f19601f82011682018060405250810190610bff9190611acf565b610c13608088610a3e90919063ffffffff16565b60ff161090508115610c91578373__$d18125c9528dfe4cb67fa81d29b24a1cca$__633cd03cfc90918760a00151846040518463ffffffff1660e01b8152600401610c6093929190611f4e565b60006040518083038186803b158015610c7857600080fd5b505af4158015610c8c573d6000803e3d6000fd5b505050505b8373__$d18125c9528dfe4cb67fa81d29b24a1cca$__63af195af290916040518263ffffffff1660e01b8152600401610cca91906119ca565b602060405180830381865af4158015610ce7573d6000803e3d6000fd5b505050506040513d601f19601f82011682018060405250810190610d0b91906119fb565b610d22578360c0015183610d1f9190611d9f565b92505b50509392505050565b60606000805b8351811015610df857838181518110610d4d57610d4c611c25565b5b60200260200101516040015173__$d18125c9528dfe4cb67fa81d29b24a1cca$__63af195af290916040518263ffffffff1660e01b8152600401610d9191906119ca565b602060405180830381865af4158015610dae573d6000803e3d6000fd5b505050506040513d601f19601f82011682018060405250810190610dd291906119fb565b15610de757600182610de49190611d9f565b91505b80610df190611c7e565b9050610d31565b508067ffffffffffffffff811115610e1357610e12611130565b5b604051908082528060200260200182016040528015610e4c57816020015b610e3961103c565b815260200190600190039081610e315790505b5091506000805b8451811015610fd95784518110610e9f576040517f08c379a0000000000000000000000000000000000000000000000000000000008152600401610e9690611fd4565b60405180910390fd5b848181518110610eb257610eb1611c25565b5b60200260200101516040015173__$d18125c9528dfe4cb67fa81d29b24a1cca$__63af195af290916040518263ffffffff1660e01b8152600401610ef691906119ca565b602060405180830381865af4158015610f13573d6000803e3d6000fd5b505050506040513d601f19601f82011682018060405250810190610f3791906119fb565b15610fc85783518210610f7f576040517f08c379a0000000000000000000000000000000000000000000000000000000008152600401610f7690612066565b60405180910390fd5b848181518110610f9257610f91611c25565b5b6020026020010151848381518110610fad57610fac611c25565b5b6020026020010181905250600182610fc59190611d9f565b91505b80610fd290611c7e565b9050610e53565b505050919050565b6040518060a001604052806000815260200160608152602001611002611065565b8152602001600015158152602001600081525090565b6040518060600160405280600060ff16815260200160608152602001606081525090565b60405180606001604052806000815260200160001515815260200161105f611065565b81525090565b60405180610100016040528060008152602001600081526020016000815260200160008152602001600081526020016000815260200160008152602001600081525090565b600073ffffffffffffffffffffffffffffffffffffffff82169050919050565b60006110d5826110aa565b9050919050565b6110e5816110ca565b82525050565b600060208201905061110060008301846110dc565b92915050565b6000604051905090565b600080fd5b600080fd5b600080fd5b6000601f19601f8301169050919050565b7f4e487b7100000000000000000000000000000000000000000000000000000000600052604160045260246000fd5b6111688261111f565b810181811067ffffffffffffffff8211171561118757611186611130565b5b80604052505050565b600061119a611106565b90506111a6828261115f565b919050565b60008115159050919050565b6111c0816111ab565b81146111cb57600080fd5b50565b6000813590506111dd816111b7565b92915050565b6111ec816110ca565b81146111f757600080fd5b50565b600081359050611209816111e3565b92915050565b6000819050919050565b6112228161120f565b811461122d57600080fd5b50565b60008135905061123f81611219565b92915050565b6000610100828403121561125c5761125b61111a565b5b611267610100611190565b9050600061127784828501611230565b600083015250602061128b84828501611230565b602083015250604061129f84828501611230565b60408301525060606112b384828501611230565b60608301525060806112c784828501611230565b60808301525060a06112db84828501611230565b60a08301525060c06112ef84828501611230565b60c08301525060e061130384828501611230565b60e08301525092915050565b6000606082840312156113255761132461111a565b5b61132f6060611190565b9050600061133f84828501611230565b600083015250602061135384828501611230565b602083015250604061136784828501611230565b60408301525092915050565b6000610240828403121561138a5761138961111a565b5b611395610120611190565b905060006113a5848285016111ce565b60008301525060206113b9848285016111fa565b60208301525060406113cd84828501611230565b60408301525060606113e1848285016111fa565b60608301525060806113f584828501611230565b60808301525060a061140984828501611230565b60a08301525060c061141d84828501611230565b60c08301525060e061143184828501611245565b60e0830152506101e06114468482850161130f565b6101008301525092915050565b600080fd5b600067ffffffffffffffff82111561147357611472611130565b5b602082029050602081019050919050565b600080fd5b600061014082840312156114a05761149f61111a565b5b6114aa6060611190565b905060006114ba84828501611230565b60008301525060206114ce848285016111ce565b60208301525060406114e284828501611245565b60408301525092915050565b60006115016114fc84611458565b611190565b905080838252602082019050610140840283018581111561152557611524611484565b5b835b8181101561154f578061153a8882611489565b84526020840193505061014081019050611527565b5050509392505050565b600082601f83011261156e5761156d611453565b5b813561157e8482602086016114ee565b91505092915050565b600080610260838503121561159f5761159e611110565b5b60006115ad85828601611373565b92505061024083013567ffffffffffffffff8111156115cf576115ce611115565b5b6115db85828601611559565b9150509250929050565b6115ee8161120f565b82525050565b600081519050919050565b600082825260208201905092915050565b60005b8381101561162e578082015181840152602081019050611613565b8381111561163d576000848401525b50505050565b600061164e826115f4565b61165881856115ff565b9350611668818560208601611610565b6116718161111f565b840191505092915050565b6101008201600082015161169360008501826115e5565b5060208201516116a660208501826115e5565b5060408201516116b960408501826115e5565b5060608201516116cc60608501826115e5565b5060808201516116df60808501826115e5565b5060a08201516116f260a08501826115e5565b5060c082015161170560c08501826115e5565b5060e082015161171860e08501826115e5565b50505050565b611727816111ab565b82525050565b60006101808301600083015161174660008601826115e5565b506020830151848203602086015261175e8282611643565b9150506040830151611773604086018261167c565b50606083015161178761014086018261171e565b50608083015161179b6101608601826115e5565b508091505092915050565b600060208201905081810360008301526117c0818461172d565b905092915050565b6000602082840312156117de576117dd611110565b5b60006117ec848285016111fa565b91505092915050565b6003811061180257600080fd5b50565b600081519050611814816117f5565b92915050565b6000602082840312156118305761182f611110565b5b600061183e84828501611805565b91505092915050565b7f4e487b7100000000000000000000000000000000000000000000000000000000600052602160045260246000fd5b600082825260208201905092915050565b7f4f6e6c792067616d6520636f6e7472616374732063616e2063616c6c2074686960008201527f73206d6574686f64000000000000000000000000000000000000000000000000602082015250565b60006118e3602883611876565b91506118ee82611887565b604082019050919050565b60006020820190508181036000830152611912816118d6565b9050919050565b6119228161120f565b82525050565b6101008201600082015161193f6000850182611919565b5060208201516119526020850182611919565b5060408201516119656040850182611919565b5060608201516119786060850182611919565b50608082015161198b6080850182611919565b5060a082015161199e60a0850182611919565b5060c08201516119b160c0850182611919565b5060e08201516119c460e0850182611919565b50505050565b6000610100820190506119e06000830184611928565b92915050565b6000815190506119f5816111b7565b92915050565b600060208284031215611a1157611a10611110565b5b6000611a1f848285016119e6565b91505092915050565b7f4f6e6c792047616d65204d61737465722063616e2063616c6c2074686973206d60008201527f6574686f64000000000000000000000000000000000000000000000000000000602082015250565b6000611a84602583611876565b9150611a8f82611a28565b604082019050919050565b60006020820190508181036000830152611ab381611a77565b9050919050565b600081519050611ac981611219565b92915050565b600060208284031215611ae557611ae4611110565b5b6000611af384828501611aba565b91505092915050565b600060049050919050565b600081905092915050565b6000819050919050565b611b258161120f565b82525050565b6000611b378383611b1c565b60208301905092915050565b6000602082019050919050565b611b5981611afc565b611b638184611b07565b9250611b6e82611b12565b8060005b83811015611b9f578151611b868782611b2b565b9650611b9183611b43565b925050600181019050611b72565b505050505050565b6000611bb38284611b50565b60808201915081905092915050565b7f4e487b7100000000000000000000000000000000000000000000000000000000600052601160045260246000fd5b6000611bfc8261120f565b9150611c078361120f565b925082821015611c1a57611c19611bc2565b5b828203905092915050565b7f4e487b7100000000000000000000000000000000000000000000000000000000600052603260045260246000fd5b6000611c5f8261120f565b91506000821415611c7357611c72611bc2565b5b600182039050919050565b6000611c898261120f565b91507fffffffffffffffffffffffffffffffffffffffffffffffffffffffffffffffff821415611cbc57611cbb611bc2565b5b600182019050919050565b7f496e76616c6964207461726765742073656c6563746564000000000000000000600082015250565b6000611cfd601783611876565b9150611d0882611cc7565b602082019050919050565b60006020820190508181036000830152611d2c81611cf0565b9050919050565b7f5461726765742073686f756c6420626520616c69766500000000000000000000600082015250565b6000611d69601683611876565b9150611d7482611d33565b602082019050919050565b60006020820190508181036000830152611d9881611d5c565b9050919050565b6000611daa8261120f565b9150611db58361120f565b9250827fffffffffffffffffffffffffffffffffffffffffffffffffffffffffffffffff03821115611dea57611de9611bc2565b5b828201905092915050565b7f5365656420646f65736e2774206861766520616e79206d6f726520726f6c6c73600082015250565b6000611e2b602083611876565b9150611e3682611df5565b602082019050919050565b60006020820190508181036000830152611e5a81611e1e565b9050919050565b600060ff82169050919050565b7f4e487b7100000000000000000000000000000000000000000000000000000000600052601260045260246000fd5b6000611ea882611e61565b9150611eb383611e61565b925082611ec357611ec2611e6e565b5b828206905092915050565b6000611ed982611e61565b9150611ee483611e61565b92508260ff03821115611efa57611ef9611bc2565b5b828201905092915050565b600061020082019050611f1b6000830185611928565b611f29610100830184611928565b9392505050565b611f398161120f565b82525050565b611f48816111ab565b82525050565b600061014082019050611f646000830186611928565b611f72610100830185611f30565b611f80610120830184611f3f565b949350505050565b7f496e646578206973206f7574206f662073636f70653a20656e656d6965730000600082015250565b6000611fbe601e83611876565b9150611fc982611f88565b602082019050919050565b60006020820190508181036000830152611fed81611fb1565b9050919050565b7f496e646578206973206f7574206f662073636f70653a206e657720656e656d6960008201527f6573000000000000000000000000000000000000000000000000000000000000602082015250565b6000612050602283611876565b915061205b82611ff4565b604082019050919050565b6000602082019050818103600083015261207f81612043565b905091905056fea26469706673582212205ec595d9933cf7e3dcf676140cb4b7f41258a548ad07b181b7dce0877f9849a664736f6c634300080a0033",
			"opcodes": "PUSH1 0x80 PUSH1 0x40 MSTORE PUSH1 0x0 DUP1 PUSH1 0x0 PUSH2 0x100 EXP DUP2 SLOAD DUP2 PUSH20 0xFFFFFFFFFFFFFFFFFFFFFFFFFFFFFFFFFFFFFFFF MUL NOT AND SWAP1 DUP4 PUSH20 0xFFFFFFFFFFFFFFFFFFFFFFFFFFFFFFFFFFFFFFFF AND MUL OR SWAP1 SSTORE POP PUSH1 0xA PUSH1 0x2 PUSH1 0x14 PUSH2 0x100 EXP DUP2 SLOAD DUP2 PUSH1 0xFF MUL NOT AND SWAP1 DUP4 PUSH1 0xFF AND MUL OR SWAP1 SSTORE POP CALLVALUE DUP1 ISZERO PUSH3 0x6E JUMPI PUSH1 0x0 DUP1 REVERT JUMPDEST POP PUSH1 0x40 MLOAD PUSH3 0x22BC CODESIZE SUB DUP1 PUSH3 0x22BC DUP4 CODECOPY DUP2 DUP2 ADD PUSH1 0x40 MSTORE DUP2 ADD SWAP1 PUSH3 0x94 SWAP2 SWAP1 PUSH3 0x1BE JUMP JUMPDEST DUP1 DUP1 PUSH3 0xA7 DUP2 PUSH3 0xB0 PUSH1 0x20 SHL PUSH1 0x20 SHR JUMP JUMPDEST POP POP POP PUSH3 0x1F0 JUMP JUMPDEST DUP1 PUSH1 0x0 DUP1 PUSH2 0x100 EXP DUP2 SLOAD DUP2 PUSH20 0xFFFFFFFFFFFFFFFFFFFFFFFFFFFFFFFFFFFFFFFF MUL NOT AND SWAP1 DUP4 PUSH20 0xFFFFFFFFFFFFFFFFFFFFFFFFFFFFFFFFFFFFFFFF AND MUL OR SWAP1 SSTORE POP PUSH1 0x0 DUP1 SLOAD SWAP1 PUSH2 0x100 EXP SWAP1 DIV PUSH20 0xFFFFFFFFFFFFFFFFFFFFFFFFFFFFFFFFFFFFFFFF AND PUSH1 0x1 PUSH1 0x0 PUSH2 0x100 EXP DUP2 SLOAD DUP2 PUSH20 0xFFFFFFFFFFFFFFFFFFFFFFFFFFFFFFFFFFFFFFFF MUL NOT AND SWAP1 DUP4 PUSH20 0xFFFFFFFFFFFFFFFFFFFFFFFFFFFFFFFFFFFFFFFF AND MUL OR SWAP1 SSTORE POP POP JUMP JUMPDEST PUSH1 0x0 DUP1 REVERT JUMPDEST PUSH1 0x0 PUSH20 0xFFFFFFFFFFFFFFFFFFFFFFFFFFFFFFFFFFFFFFFF DUP3 AND SWAP1 POP SWAP2 SWAP1 POP JUMP JUMPDEST PUSH1 0x0 PUSH3 0x186 DUP3 PUSH3 0x159 JUMP JUMPDEST SWAP1 POP SWAP2 SWAP1 POP JUMP JUMPDEST PUSH3 0x198 DUP2 PUSH3 0x179 JUMP JUMPDEST DUP2 EQ PUSH3 0x1A4 JUMPI PUSH1 0x0 DUP1 REVERT JUMPDEST POP JUMP JUMPDEST PUSH1 0x0 DUP2 MLOAD SWAP1 POP PUSH3 0x1B8 DUP2 PUSH3 0x18D JUMP JUMPDEST SWAP3 SWAP2 POP POP JUMP JUMPDEST PUSH1 0x0 PUSH1 0x20 DUP3 DUP5 SUB SLT ISZERO PUSH3 0x1D7 JUMPI PUSH3 0x1D6 PUSH3 0x154 JUMP JUMPDEST JUMPDEST PUSH1 0x0 PUSH3 0x1E7 DUP5 DUP3 DUP6 ADD PUSH3 0x1A7 JUMP JUMPDEST SWAP2 POP POP SWAP3 SWAP2 POP POP JUMP JUMPDEST PUSH2 0x20BC DUP1 PUSH3 0x200 PUSH1 0x0 CODECOPY PUSH1 0x0 RETURN INVALID PUSH1 0x80 PUSH1 0x40 MSTORE CALLVALUE DUP1 ISZERO PUSH2 0x10 JUMPI PUSH1 0x0 DUP1 REVERT JUMPDEST POP PUSH1 0x4 CALLDATASIZE LT PUSH2 0x4C JUMPI PUSH1 0x0 CALLDATALOAD PUSH1 0xE0 SHR DUP1 PUSH4 0x4848D463 EQ PUSH2 0x51 JUMPI DUP1 PUSH4 0x52442977 EQ PUSH2 0x6F JUMPI DUP1 PUSH4 0xD3DD4F29 EQ PUSH2 0x9F JUMPI DUP1 PUSH4 0xD7050B05 EQ PUSH2 0xBD JUMPI JUMPDEST PUSH1 0x0 DUP1 REVERT JUMPDEST PUSH2 0x59 PUSH2 0xD9 JUMP JUMPDEST PUSH1 0x40 MLOAD PUSH2 0x66 SWAP2 SWAP1 PUSH2 0x10EB JUMP JUMPDEST PUSH1 0x40 MLOAD DUP1 SWAP2 SUB SWAP1 RETURN JUMPDEST PUSH2 0x89 PUSH1 0x4 DUP1 CALLDATASIZE SUB DUP2 ADD SWAP1 PUSH2 0x84 SWAP2 SWAP1 PUSH2 0x1587 JUMP JUMPDEST PUSH2 0xFD JUMP JUMPDEST PUSH1 0x40 MLOAD PUSH2 0x96 SWAP2 SWAP1 PUSH2 0x17A6 JUMP JUMPDEST PUSH1 0x40 MLOAD DUP1 SWAP2 SUB SWAP1 RETURN JUMPDEST PUSH2 0xA7 PUSH2 0x35A JUMP JUMPDEST PUSH1 0x40 MLOAD PUSH2 0xB4 SWAP2 SWAP1 PUSH2 0x10EB JUMP JUMPDEST PUSH1 0x40 MLOAD DUP1 SWAP2 SUB SWAP1 RETURN JUMPDEST PUSH2 0xD7 PUSH1 0x4 DUP1 CALLDATASIZE SUB DUP2 ADD SWAP1 PUSH2 0xD2 SWAP2 SWAP1 PUSH2 0x17C8 JUMP JUMPDEST PUSH2 0x380 JUMP JUMPDEST STOP JUMPDEST PUSH1 0x0 DUP1 SLOAD SWAP1 PUSH2 0x100 EXP SWAP1 DIV PUSH20 0xFFFFFFFFFFFFFFFFFFFFFFFFFFFFFFFFFFFFFFFF AND DUP2 JUMP JUMPDEST PUSH2 0x105 PUSH2 0xFE1 JUMP JUMPDEST CALLER PUSH1 0x0 PUSH1 0x1 PUSH1 0x0 SWAP1 SLOAD SWAP1 PUSH2 0x100 EXP SWAP1 DIV PUSH20 0xFFFFFFFFFFFFFFFFFFFFFFFFFFFFFFFFFFFFFFFF AND PUSH20 0xFFFFFFFFFFFFFFFFFFFFFFFFFFFFFFFFFFFFFFFF AND PUSH4 0xD590F8C9 DUP4 PUSH1 0x40 MLOAD DUP3 PUSH4 0xFFFFFFFF AND PUSH1 0xE0 SHL DUP2 MSTORE PUSH1 0x4 ADD PUSH2 0x163 SWAP2 SWAP1 PUSH2 0x10EB JUMP JUMPDEST PUSH1 0x20 PUSH1 0x40 MLOAD DUP1 DUP4 SUB DUP2 DUP7 GAS STATICCALL ISZERO DUP1 ISZERO PUSH2 0x180 JUMPI RETURNDATASIZE PUSH1 0x0 DUP1 RETURNDATACOPY RETURNDATASIZE PUSH1 0x0 REVERT JUMPDEST POP POP POP POP PUSH1 0x40 MLOAD RETURNDATASIZE PUSH1 0x1F NOT PUSH1 0x1F DUP3 ADD AND DUP3 ADD DUP1 PUSH1 0x40 MSTORE POP DUP2 ADD SWAP1 PUSH2 0x1A4 SWAP2 SWAP1 PUSH2 0x181A JUMP JUMPDEST SWAP1 POP PUSH1 0x1 PUSH1 0x2 DUP2 GT ISZERO PUSH2 0x1BA JUMPI PUSH2 0x1B9 PUSH2 0x1847 JUMP JUMPDEST JUMPDEST DUP2 PUSH1 0x2 DUP2 GT ISZERO PUSH2 0x1CD JUMPI PUSH2 0x1CC PUSH2 0x1847 JUMP JUMPDEST JUMPDEST LT ISZERO PUSH2 0x20E JUMPI PUSH1 0x40 MLOAD PUSH32 0x8C379A000000000000000000000000000000000000000000000000000000000 DUP2 MSTORE PUSH1 0x4 ADD PUSH2 0x205 SWAP1 PUSH2 0x18F9 JUMP JUMPDEST PUSH1 0x40 MLOAD DUP1 SWAP2 SUB SWAP1 REVERT JUMPDEST PUSH2 0x216 PUSH2 0x1018 JUMP JUMPDEST PUSH2 0x265 PUSH1 0x40 MLOAD DUP1 PUSH1 0x80 ADD PUSH1 0x40 MSTORE DUP1 PUSH2 0x22C PUSH2 0x4CD JUMP JUMPDEST DUP2 MSTORE PUSH1 0x20 ADD PUSH2 0x239 PUSH2 0x4CD JUMP JUMPDEST DUP2 MSTORE PUSH1 0x20 ADD PUSH2 0x246 PUSH2 0x4CD JUMP JUMPDEST DUP2 MSTORE PUSH1 0x20 ADD PUSH2 0x253 PUSH2 0x4CD JUMP JUMPDEST DUP2 MSTORE POP DUP3 PUSH2 0x56C SWAP1 SWAP2 SWAP1 PUSH4 0xFFFFFFFF AND JUMP JUMPDEST PUSH1 0x40 MLOAD DUP1 PUSH1 0xA0 ADD PUSH1 0x40 MSTORE DUP1 PUSH1 0x0 DUP2 MSTORE PUSH1 0x20 ADD DUP3 PUSH1 0x20 ADD MLOAD DUP2 MSTORE PUSH1 0x20 ADD DUP8 PUSH1 0xE0 ADD MLOAD DUP2 MSTORE PUSH1 0x20 ADD PUSH1 0x0 ISZERO ISZERO DUP2 MSTORE PUSH1 0x20 ADD PUSH1 0x0 DUP2 MSTORE POP SWAP4 POP PUSH2 0x2A6 DUP2 DUP8 DUP8 PUSH2 0x68B JUMP JUMPDEST DUP6 PUSH1 0x60 ADD DUP7 PUSH1 0x80 ADD DUP3 DUP2 MSTORE POP DUP3 ISZERO ISZERO ISZERO ISZERO DUP2 MSTORE POP POP POP DUP6 PUSH1 0xE0 ADD MLOAD PUSH20 0x0 PUSH4 0xAF195AF2 SWAP1 SWAP2 PUSH1 0x40 MLOAD DUP3 PUSH4 0xFFFFFFFF AND PUSH1 0xE0 SHL DUP2 MSTORE PUSH1 0x4 ADD PUSH2 0x2F9 SWAP2 SWAP1 PUSH2 0x19CA JUMP JUMPDEST PUSH1 0x20 PUSH1 0x40 MLOAD DUP1 DUP4 SUB DUP2 DUP7 GAS DELEGATECALL ISZERO DUP1 ISZERO PUSH2 0x316 JUMPI RETURNDATASIZE PUSH1 0x0 DUP1 RETURNDATACOPY RETURNDATASIZE PUSH1 0x0 REVERT JUMPDEST POP POP POP POP PUSH1 0x40 MLOAD RETURNDATASIZE PUSH1 0x1F NOT PUSH1 0x1F DUP3 ADD AND DUP3 ADD DUP1 PUSH1 0x40 MSTORE POP DUP2 ADD SWAP1 PUSH2 0x33A SWAP2 SWAP1 PUSH2 0x19FB JUMP JUMPDEST PUSH2 0x351 JUMPI PUSH1 0x2 DUP5 PUSH1 0x80 ADD MLOAD SWAP1 SHR DUP5 PUSH1 0x80 ADD DUP2 DUP2 MSTORE POP POP JUMPDEST POP POP POP SWAP3 SWAP2 POP POP JUMP JUMPDEST PUSH1 0x2 PUSH1 0x0 SWAP1 SLOAD SWAP1 PUSH2 0x100 EXP SWAP1 DIV PUSH20 0xFFFFFFFFFFFFFFFFFFFFFFFFFFFFFFFFFFFFFFFF AND DUP2 JUMP JUMPDEST CALLER PUSH1 0x0 PUSH1 0x1 PUSH1 0x0 SWAP1 SLOAD SWAP1 PUSH2 0x100 EXP SWAP1 DIV PUSH20 0xFFFFFFFFFFFFFFFFFFFFFFFFFFFFFFFFFFFFFFFF AND PUSH20 0xFFFFFFFFFFFFFFFFFFFFFFFFFFFFFFFFFFFFFFFF AND PUSH4 0xD590F8C9 DUP4 PUSH1 0x40 MLOAD DUP3 PUSH4 0xFFFFFFFF AND PUSH1 0xE0 SHL DUP2 MSTORE PUSH1 0x4 ADD PUSH2 0x3DE SWAP2 SWAP1 PUSH2 0x10EB JUMP JUMPDEST PUSH1 0x20 PUSH1 0x40 MLOAD DUP1 DUP4 SUB DUP2 DUP7 GAS STATICCALL ISZERO DUP1 ISZERO PUSH2 0x3FB JUMPI RETURNDATASIZE PUSH1 0x0 DUP1 RETURNDATACOPY RETURNDATASIZE PUSH1 0x0 REVERT JUMPDEST POP POP POP POP PUSH1 0x40 MLOAD RETURNDATASIZE PUSH1 0x1F NOT PUSH1 0x1F DUP3 ADD AND DUP3 ADD DUP1 PUSH1 0x40 MSTORE POP DUP2 ADD SWAP1 PUSH2 0x41F SWAP2 SWAP1 PUSH2 0x181A JUMP JUMPDEST SWAP1 POP PUSH1 0x2 DUP1 DUP2 GT ISZERO PUSH2 0x434 JUMPI PUSH2 0x433 PUSH2 0x1847 JUMP JUMPDEST JUMPDEST DUP2 PUSH1 0x2 DUP2 GT ISZERO PUSH2 0x447 JUMPI PUSH2 0x446 PUSH2 0x1847 JUMP JUMPDEST JUMPDEST EQ PUSH2 0x487 JUMPI PUSH1 0x40 MLOAD PUSH32 0x8C379A000000000000000000000000000000000000000000000000000000000 DUP2 MSTORE PUSH1 0x4 ADD PUSH2 0x47E SWAP1 PUSH2 0x1A9A JUMP JUMPDEST PUSH1 0x40 MLOAD DUP1 SWAP2 SUB SWAP1 REVERT JUMPDEST DUP3 PUSH1 0x2 PUSH1 0x0 PUSH2 0x100 EXP DUP2 SLOAD DUP2 PUSH20 0xFFFFFFFFFFFFFFFFFFFFFFFFFFFFFFFFFFFFFFFF MUL NOT AND SWAP1 DUP4 PUSH20 0xFFFFFFFFFFFFFFFFFFFFFFFFFFFFFFFFFFFFFFFF AND MUL OR SWAP1 SSTORE POP POP POP POP JUMP JUMPDEST PUSH1 0x0 DUP1 PUSH1 0x2 PUSH1 0x0 SWAP1 SLOAD SWAP1 PUSH2 0x100 EXP SWAP1 DIV PUSH20 0xFFFFFFFFFFFFFFFFFFFFFFFFFFFFFFFFFFFFFFFF AND SWAP1 POP DUP1 PUSH20 0xFFFFFFFFFFFFFFFFFFFFFFFFFFFFFFFFFFFFFFFF AND PUSH4 0x5EC01E4D PUSH1 0x40 MLOAD DUP2 PUSH4 0xFFFFFFFF AND PUSH1 0xE0 SHL DUP2 MSTORE PUSH1 0x4 ADD PUSH1 0x20 PUSH1 0x40 MLOAD DUP1 DUP4 SUB DUP2 PUSH1 0x0 DUP8 GAS CALL ISZERO DUP1 ISZERO PUSH2 0x542 JUMPI RETURNDATASIZE PUSH1 0x0 DUP1 RETURNDATACOPY RETURNDATASIZE PUSH1 0x0 REVERT JUMPDEST POP POP POP POP PUSH1 0x40 MLOAD RETURNDATASIZE PUSH1 0x1F NOT PUSH1 0x1F DUP3 ADD AND DUP3 ADD DUP1 PUSH1 0x40 MSTORE POP DUP2 ADD SWAP1 PUSH2 0x566 SWAP2 SWAP1 PUSH2 0x1ACF JUMP JUMPDEST SWAP2 POP POP SWAP1 JUMP JUMPDEST PUSH1 0x0 DUP2 PUSH1 0x40 MLOAD PUSH1 0x20 ADD PUSH2 0x57F SWAP2 SWAP1 PUSH2 0x1BA7 JUMP JUMPDEST PUSH1 0x40 MLOAD PUSH1 0x20 DUP2 DUP4 SUB SUB DUP2 MSTORE SWAP1 PUSH1 0x40 MSTORE SWAP1 POP PUSH1 0x0 DUP2 MLOAD PUSH8 0xFFFFFFFFFFFFFFFF DUP2 GT ISZERO PUSH2 0x5AD JUMPI PUSH2 0x5AC PUSH2 0x1130 JUMP JUMPDEST JUMPDEST PUSH1 0x40 MLOAD SWAP1 DUP1 DUP3 MSTORE DUP1 PUSH1 0x20 MUL PUSH1 0x20 ADD DUP3 ADD PUSH1 0x40 MSTORE DUP1 ISZERO PUSH2 0x5DB JUMPI DUP2 PUSH1 0x20 ADD PUSH1 0x20 DUP3 MUL DUP1 CALLDATASIZE DUP4 CALLDATACOPY DUP1 DUP3 ADD SWAP2 POP POP SWAP1 POP JUMPDEST POP SWAP1 POP PUSH1 0x0 DUP2 MLOAD SWAP1 POP JUMPDEST PUSH1 0x0 DUP2 GT ISZERO PUSH2 0x65F JUMPI DUP3 PUSH1 0x1 DUP3 PUSH2 0x5FC SWAP2 SWAP1 PUSH2 0x1BF1 JUMP JUMPDEST DUP2 MLOAD DUP2 LT PUSH2 0x60D JUMPI PUSH2 0x60C PUSH2 0x1C25 JUMP JUMPDEST JUMPDEST PUSH1 0x20 ADD ADD MLOAD PUSH1 0xF8 SHR PUSH1 0xF8 SHL PUSH1 0xF8 SHR DUP3 DUP3 DUP5 MLOAD PUSH2 0x629 SWAP2 SWAP1 PUSH2 0x1BF1 JUMP JUMPDEST DUP2 MLOAD DUP2 LT PUSH2 0x63A JUMPI PUSH2 0x639 PUSH2 0x1C25 JUMP JUMPDEST JUMPDEST PUSH1 0x20 MUL PUSH1 0x20 ADD ADD SWAP1 PUSH1 0xFF AND SWAP1 DUP2 PUSH1 0xFF AND DUP2 MSTORE POP POP DUP1 PUSH2 0x658 SWAP1 PUSH2 0x1C54 JUMP JUMPDEST SWAP1 POP PUSH2 0x5E5 JUMP JUMPDEST POP PUSH1 0x0 DUP5 PUSH1 0x0 ADD SWAP1 PUSH1 0xFF AND SWAP1 DUP2 PUSH1 0xFF AND DUP2 MSTORE POP POP DUP2 DUP5 PUSH1 0x20 ADD DUP2 SWAP1 MSTORE POP DUP1 DUP5 PUSH1 0x40 ADD DUP2 SWAP1 MSTORE POP POP POP POP POP JUMP JUMPDEST PUSH1 0x0 DUP1 PUSH1 0x0 SWAP1 POP DUP4 PUSH1 0xE0 ADD MLOAD PUSH20 0x0 PUSH4 0xE8704307 SWAP1 SWAP2 PUSH1 0x40 MLOAD DUP3 PUSH4 0xFFFFFFFF AND PUSH1 0xE0 SHL DUP2 MSTORE PUSH1 0x4 ADD PUSH2 0x6CF SWAP2 SWAP1 PUSH2 0x19CA JUMP JUMPDEST PUSH1 0x0 PUSH1 0x40 MLOAD DUP1 DUP4 SUB DUP2 DUP7 DUP1 EXTCODESIZE ISZERO DUP1 ISZERO PUSH2 0x6E7 JUMPI PUSH1 0x0 DUP1 REVERT JUMPDEST POP GAS DELEGATECALL ISZERO DUP1 ISZERO PUSH2 0x6FB JUMPI RETURNDATASIZE PUSH1 0x0 DUP1 RETURNDATACOPY RETURNDATASIZE PUSH1 0x0 REVERT JUMPDEST POP POP POP POP PUSH1 0x0 JUMPDEST DUP4 MLOAD DUP2 LT ISZERO PUSH2 0x7A3 JUMPI DUP4 DUP2 DUP2 MLOAD DUP2 LT PUSH2 0x71E JUMPI PUSH2 0x71D PUSH2 0x1C25 JUMP JUMPDEST JUMPDEST PUSH1 0x20 MUL PUSH1 0x20 ADD ADD MLOAD PUSH1 0x40 ADD MLOAD PUSH20 0x0 PUSH4 0xE8704307 SWAP1 SWAP2 PUSH1 0x40 MLOAD DUP3 PUSH4 0xFFFFFFFF AND PUSH1 0xE0 SHL DUP2 MSTORE PUSH1 0x4 ADD PUSH2 0x762 SWAP2 SWAP1 PUSH2 0x19CA JUMP JUMPDEST PUSH1 0x0 PUSH1 0x40 MLOAD DUP1 DUP4 SUB DUP2 DUP7 DUP1 EXTCODESIZE ISZERO DUP1 ISZERO PUSH2 0x77A JUMPI PUSH1 0x0 DUP1 REVERT JUMPDEST POP GAS DELEGATECALL ISZERO DUP1 ISZERO PUSH2 0x78E JUMPI RETURNDATASIZE PUSH1 0x0 DUP1 RETURNDATACOPY RETURNDATASIZE PUSH1 0x0 REVERT JUMPDEST POP POP POP POP DUP1 PUSH2 0x79C SWAP1 PUSH2 0x1C7E JUMP JUMPDEST SWAP1 POP PUSH2 0x702 JUMP JUMPDEST POP PUSH1 0x0 JUMPDEST PUSH1 0x2 PUSH1 0x14 SWAP1 SLOAD SWAP1 PUSH2 0x100 EXP SWAP1 DIV PUSH1 0xFF AND PUSH1 0xFF AND DUP2 LT ISZERO PUSH2 0xA30 JUMPI PUSH1 0x0 PUSH2 0x7D7 DUP6 MLOAD DUP9 PUSH2 0xA3E SWAP1 SWAP2 SWAP1 PUSH4 0xFFFFFFFF AND JUMP JUMPDEST SWAP1 POP DUP5 MLOAD DUP2 PUSH1 0xFF AND LT PUSH2 0x81F JUMPI PUSH1 0x40 MLOAD PUSH32 0x8C379A000000000000000000000000000000000000000000000000000000000 DUP2 MSTORE PUSH1 0x4 ADD PUSH2 0x816 SWAP1 PUSH2 0x1D13 JUMP JUMPDEST PUSH1 0x40 MLOAD DUP1 SWAP2 SUB SWAP1 REVERT JUMPDEST PUSH1 0x0 DUP6 DUP3 PUSH1 0xFF AND DUP2 MLOAD DUP2 LT PUSH2 0x837 JUMPI PUSH2 0x836 PUSH2 0x1C25 JUMP JUMPDEST JUMPDEST PUSH1 0x20 MUL PUSH1 0x20 ADD ADD MLOAD SWAP1 POP DUP1 PUSH1 0x40 ADD MLOAD PUSH20 0x0 PUSH4 0xAF195AF2 SWAP1 SWAP2 PUSH1 0x40 MLOAD DUP3 PUSH4 0xFFFFFFFF AND PUSH1 0xE0 SHL DUP2 MSTORE PUSH1 0x4 ADD PUSH2 0x87E SWAP2 SWAP1 PUSH2 0x19CA JUMP JUMPDEST PUSH1 0x20 PUSH1 0x40 MLOAD DUP1 DUP4 SUB DUP2 DUP7 GAS DELEGATECALL ISZERO DUP1 ISZERO PUSH2 0x89B JUMPI RETURNDATASIZE PUSH1 0x0 DUP1 RETURNDATACOPY RETURNDATASIZE PUSH1 0x0 REVERT JUMPDEST POP POP POP POP PUSH1 0x40 MLOAD RETURNDATASIZE PUSH1 0x1F NOT PUSH1 0x1F DUP3 ADD AND DUP3 ADD DUP1 PUSH1 0x40 MSTORE POP DUP2 ADD SWAP1 PUSH2 0x8BF SWAP2 SWAP1 PUSH2 0x19FB JUMP JUMPDEST PUSH2 0x8FE JUMPI PUSH1 0x40 MLOAD PUSH32 0x8C379A000000000000000000000000000000000000000000000000000000000 DUP2 MSTORE PUSH1 0x4 ADD PUSH2 0x8F5 SWAP1 PUSH2 0x1D7F JUMP JUMPDEST PUSH1 0x40 MLOAD DUP1 SWAP2 SUB SWAP1 REVERT JUMPDEST PUSH2 0x911 DUP9 DUP9 PUSH1 0xE0 ADD MLOAD DUP4 PUSH1 0x40 ADD MLOAD PUSH2 0xAE9 JUMP JUMPDEST DUP5 PUSH2 0x91C SWAP2 SWAP1 PUSH2 0x1D9F JUMP JUMPDEST SWAP4 POP PUSH2 0x927 DUP7 PUSH2 0xD2B JUMP JUMPDEST SWAP6 POP PUSH1 0x0 DUP7 MLOAD EQ ISZERO PUSH2 0x93F JUMPI PUSH1 0x1 SWAP5 POP POP POP POP PUSH2 0xA36 JUMP JUMPDEST PUSH1 0x0 JUMPDEST DUP7 MLOAD DUP2 LT ISZERO PUSH2 0xA1C JUMPI PUSH2 0x978 DUP10 DUP9 DUP4 DUP2 MLOAD DUP2 LT PUSH2 0x962 JUMPI PUSH2 0x961 PUSH2 0x1C25 JUMP JUMPDEST JUMPDEST PUSH1 0x20 MUL PUSH1 0x20 ADD ADD MLOAD PUSH1 0x40 ADD MLOAD DUP11 PUSH1 0xE0 ADD MLOAD PUSH2 0xAE9 JUMP JUMPDEST POP DUP8 PUSH1 0xE0 ADD MLOAD PUSH20 0x0 PUSH4 0xAF195AF2 SWAP1 SWAP2 PUSH1 0x40 MLOAD DUP3 PUSH4 0xFFFFFFFF AND PUSH1 0xE0 SHL DUP2 MSTORE PUSH1 0x4 ADD PUSH2 0x9B6 SWAP2 SWAP1 PUSH2 0x19CA JUMP JUMPDEST PUSH1 0x20 PUSH1 0x40 MLOAD DUP1 DUP4 SUB DUP2 DUP7 GAS DELEGATECALL ISZERO DUP1 ISZERO PUSH2 0x9D3 JUMPI RETURNDATASIZE PUSH1 0x0 DUP1 RETURNDATACOPY RETURNDATASIZE PUSH1 0x0 REVERT JUMPDEST POP POP POP POP PUSH1 0x40 MLOAD RETURNDATASIZE PUSH1 0x1F NOT PUSH1 0x1F DUP3 ADD AND DUP3 ADD DUP1 PUSH1 0x40 MSTORE POP DUP2 ADD SWAP1 PUSH2 0x9F7 SWAP2 SWAP1 PUSH2 0x19FB JUMP JUMPDEST PUSH2 0xA0B JUMPI PUSH1 0x0 DUP1 SWAP6 POP SWAP6 POP POP POP POP POP PUSH2 0xA36 JUMP JUMPDEST DUP1 PUSH2 0xA15 SWAP1 PUSH2 0x1C7E JUMP JUMPDEST SWAP1 POP PUSH2 0x942 JUMP JUMPDEST POP POP POP DUP1 PUSH2 0xA29 SWAP1 PUSH2 0x1C7E JUMP JUMPDEST SWAP1 POP PUSH2 0x7A7 JUMP JUMPDEST POP PUSH1 0x0 SWAP2 POP JUMPDEST SWAP4 POP SWAP4 SWAP2 POP POP JUMP JUMPDEST PUSH1 0x0 DUP3 PUSH1 0x40 ADD MLOAD MLOAD DUP4 PUSH1 0x0 ADD MLOAD PUSH1 0xFF AND LT PUSH2 0xA8E JUMPI PUSH1 0x40 MLOAD PUSH32 0x8C379A000000000000000000000000000000000000000000000000000000000 DUP2 MSTORE PUSH1 0x4 ADD PUSH2 0xA85 SWAP1 PUSH2 0x1E41 JUMP JUMPDEST PUSH1 0x40 MLOAD DUP1 SWAP2 SUB SWAP1 REVERT JUMPDEST DUP2 DUP4 PUSH1 0x40 ADD MLOAD DUP5 PUSH1 0x0 ADD MLOAD PUSH1 0xFF AND DUP2 MLOAD DUP2 LT PUSH2 0xAAD JUMPI PUSH2 0xAAC PUSH2 0x1C25 JUMP JUMPDEST JUMPDEST PUSH1 0x20 MUL PUSH1 0x20 ADD ADD MLOAD PUSH2 0xABF SWAP2 SWAP1 PUSH2 0x1E9D JUMP JUMPDEST SWAP1 POP PUSH1 0x1 DUP4 PUSH1 0x0 ADD DUP2 DUP2 MLOAD PUSH2 0xAD4 SWAP2 SWAP1 PUSH2 0x1ECE JUMP JUMPDEST SWAP2 POP SWAP1 PUSH1 0xFF AND SWAP1 DUP2 PUSH1 0xFF AND DUP2 MSTORE POP POP SWAP3 SWAP2 POP POP JUMP JUMPDEST PUSH1 0x0 DUP1 DUP1 DUP4 PUSH20 0x0 PUSH4 0xBB0253C1 SWAP1 SWAP2 DUP8 PUSH1 0x40 MLOAD DUP4 PUSH4 0xFFFFFFFF AND PUSH1 0xE0 SHL DUP2 MSTORE PUSH1 0x4 ADD PUSH2 0xB28 SWAP3 SWAP2 SWAP1 PUSH2 0x1F05 JUMP JUMPDEST PUSH1 0x20 PUSH1 0x40 MLOAD DUP1 DUP4 SUB DUP2 DUP7 GAS DELEGATECALL ISZERO DUP1 ISZERO PUSH2 0xB45 JUMPI RETURNDATASIZE PUSH1 0x0 DUP1 RETURNDATACOPY RETURNDATASIZE PUSH1 0x0 REVERT JUMPDEST POP POP POP POP PUSH1 0x40 MLOAD RETURNDATASIZE PUSH1 0x1F NOT PUSH1 0x1F DUP3 ADD AND DUP3 ADD DUP1 PUSH1 0x40 MSTORE POP DUP2 ADD SWAP1 PUSH2 0xB69 SWAP2 SWAP1 PUSH2 0x1ACF JUMP JUMPDEST PUSH2 0xB7D PUSH1 0x80 DUP9 PUSH2 0xA3E SWAP1 SWAP2 SWAP1 PUSH4 0xFFFFFFFF AND JUMP JUMPDEST PUSH1 0xFF AND LT SWAP2 POP DUP4 PUSH20 0x0 PUSH4 0x84963742 SWAP1 SWAP2 DUP8 PUSH1 0x40 MLOAD DUP4 PUSH4 0xFFFFFFFF AND PUSH1 0xE0 SHL DUP2 MSTORE PUSH1 0x4 ADD PUSH2 0xBBE SWAP3 SWAP2 SWAP1 PUSH2 0x1F05 JUMP JUMPDEST PUSH1 0x20 PUSH1 0x40 MLOAD DUP1 DUP4 SUB DUP2 DUP7 GAS DELEGATECALL ISZERO DUP1 ISZERO PUSH2 0xBDB JUMPI RETURNDATASIZE PUSH1 0x0 DUP1 RETURNDATACOPY RETURNDATASIZE PUSH1 0x0 REVERT JUMPDEST POP POP POP POP PUSH1 0x40 MLOAD RETURNDATASIZE PUSH1 0x1F NOT PUSH1 0x1F DUP3 ADD AND DUP3 ADD DUP1 PUSH1 0x40 MSTORE POP DUP2 ADD SWAP1 PUSH2 0xBFF SWAP2 SWAP1 PUSH2 0x1ACF JUMP JUMPDEST PUSH2 0xC13 PUSH1 0x80 DUP9 PUSH2 0xA3E SWAP1 SWAP2 SWAP1 PUSH4 0xFFFFFFFF AND JUMP JUMPDEST PUSH1 0xFF AND LT SWAP1 POP DUP2 ISZERO PUSH2 0xC91 JUMPI DUP4 PUSH20 0x0 PUSH4 0x3CD03CFC SWAP1 SWAP2 DUP8 PUSH1 0xA0 ADD MLOAD DUP5 PUSH1 0x40 MLOAD DUP5 PUSH4 0xFFFFFFFF AND PUSH1 0xE0 SHL DUP2 MSTORE PUSH1 0x4 ADD PUSH2 0xC60 SWAP4 SWAP3 SWAP2 SWAP1 PUSH2 0x1F4E JUMP JUMPDEST PUSH1 0x0 PUSH1 0x40 MLOAD DUP1 DUP4 SUB DUP2 DUP7 DUP1 EXTCODESIZE ISZERO DUP1 ISZERO PUSH2 0xC78 JUMPI PUSH1 0x0 DUP1 REVERT JUMPDEST POP GAS DELEGATECALL ISZERO DUP1 ISZERO PUSH2 0xC8C JUMPI RETURNDATASIZE PUSH1 0x0 DUP1 RETURNDATACOPY RETURNDATASIZE PUSH1 0x0 REVERT JUMPDEST POP POP POP POP JUMPDEST DUP4 PUSH20 0x0 PUSH4 0xAF195AF2 SWAP1 SWAP2 PUSH1 0x40 MLOAD DUP3 PUSH4 0xFFFFFFFF AND PUSH1 0xE0 SHL DUP2 MSTORE PUSH1 0x4 ADD PUSH2 0xCCA SWAP2 SWAP1 PUSH2 0x19CA JUMP JUMPDEST PUSH1 0x20 PUSH1 0x40 MLOAD DUP1 DUP4 SUB DUP2 DUP7 GAS DELEGATECALL ISZERO DUP1 ISZERO PUSH2 0xCE7 JUMPI RETURNDATASIZE PUSH1 0x0 DUP1 RETURNDATACOPY RETURNDATASIZE PUSH1 0x0 REVERT JUMPDEST POP POP POP POP PUSH1 0x40 MLOAD RETURNDATASIZE PUSH1 0x1F NOT PUSH1 0x1F DUP3 ADD AND DUP3 ADD DUP1 PUSH1 0x40 MSTORE POP DUP2 ADD SWAP1 PUSH2 0xD0B SWAP2 SWAP1 PUSH2 0x19FB JUMP JUMPDEST PUSH2 0xD22 JUMPI DUP4 PUSH1 0xC0 ADD MLOAD DUP4 PUSH2 0xD1F SWAP2 SWAP1 PUSH2 0x1D9F JUMP JUMPDEST SWAP3 POP JUMPDEST POP POP SWAP4 SWAP3 POP POP POP JUMP JUMPDEST PUSH1 0x60 PUSH1 0x0 DUP1 JUMPDEST DUP4 MLOAD DUP2 LT ISZERO PUSH2 0xDF8 JUMPI DUP4 DUP2 DUP2 MLOAD DUP2 LT PUSH2 0xD4D JUMPI PUSH2 0xD4C PUSH2 0x1C25 JUMP JUMPDEST JUMPDEST PUSH1 0x20 MUL PUSH1 0x20 ADD ADD MLOAD PUSH1 0x40 ADD MLOAD PUSH20 0x0 PUSH4 0xAF195AF2 SWAP1 SWAP2 PUSH1 0x40 MLOAD DUP3 PUSH4 0xFFFFFFFF AND PUSH1 0xE0 SHL DUP2 MSTORE PUSH1 0x4 ADD PUSH2 0xD91 SWAP2 SWAP1 PUSH2 0x19CA JUMP JUMPDEST PUSH1 0x20 PUSH1 0x40 MLOAD DUP1 DUP4 SUB DUP2 DUP7 GAS DELEGATECALL ISZERO DUP1 ISZERO PUSH2 0xDAE JUMPI RETURNDATASIZE PUSH1 0x0 DUP1 RETURNDATACOPY RETURNDATASIZE PUSH1 0x0 REVERT JUMPDEST POP POP POP POP PUSH1 0x40 MLOAD RETURNDATASIZE PUSH1 0x1F NOT PUSH1 0x1F DUP3 ADD AND DUP3 ADD DUP1 PUSH1 0x40 MSTORE POP DUP2 ADD SWAP1 PUSH2 0xDD2 SWAP2 SWAP1 PUSH2 0x19FB JUMP JUMPDEST ISZERO PUSH2 0xDE7 JUMPI PUSH1 0x1 DUP3 PUSH2 0xDE4 SWAP2 SWAP1 PUSH2 0x1D9F JUMP JUMPDEST SWAP2 POP JUMPDEST DUP1 PUSH2 0xDF1 SWAP1 PUSH2 0x1C7E JUMP JUMPDEST SWAP1 POP PUSH2 0xD31 JUMP JUMPDEST POP DUP1 PUSH8 0xFFFFFFFFFFFFFFFF DUP2 GT ISZERO PUSH2 0xE13 JUMPI PUSH2 0xE12 PUSH2 0x1130 JUMP JUMPDEST JUMPDEST PUSH1 0x40 MLOAD SWAP1 DUP1 DUP3 MSTORE DUP1 PUSH1 0x20 MUL PUSH1 0x20 ADD DUP3 ADD PUSH1 0x40 MSTORE DUP1 ISZERO PUSH2 0xE4C JUMPI DUP2 PUSH1 0x20 ADD JUMPDEST PUSH2 0xE39 PUSH2 0x103C JUMP JUMPDEST DUP2 MSTORE PUSH1 0x20 ADD SWAP1 PUSH1 0x1 SWAP1 SUB SWAP1 DUP2 PUSH2 0xE31 JUMPI SWAP1 POP JUMPDEST POP SWAP2 POP PUSH1 0x0 DUP1 JUMPDEST DUP5 MLOAD DUP2 LT ISZERO PUSH2 0xFD9 JUMPI DUP5 MLOAD DUP2 LT PUSH2 0xE9F JUMPI PUSH1 0x40 MLOAD PUSH32 0x8C379A000000000000000000000000000000000000000000000000000000000 DUP2 MSTORE PUSH1 0x4 ADD PUSH2 0xE96 SWAP1 PUSH2 0x1FD4 JUMP JUMPDEST PUSH1 0x40 MLOAD DUP1 SWAP2 SUB SWAP1 REVERT JUMPDEST DUP5 DUP2 DUP2 MLOAD DUP2 LT PUSH2 0xEB2 JUMPI PUSH2 0xEB1 PUSH2 0x1C25 JUMP JUMPDEST JUMPDEST PUSH1 0x20 MUL PUSH1 0x20 ADD ADD MLOAD PUSH1 0x40 ADD MLOAD PUSH20 0x0 PUSH4 0xAF195AF2 SWAP1 SWAP2 PUSH1 0x40 MLOAD DUP3 PUSH4 0xFFFFFFFF AND PUSH1 0xE0 SHL DUP2 MSTORE PUSH1 0x4 ADD PUSH2 0xEF6 SWAP2 SWAP1 PUSH2 0x19CA JUMP JUMPDEST PUSH1 0x20 PUSH1 0x40 MLOAD DUP1 DUP4 SUB DUP2 DUP7 GAS DELEGATECALL ISZERO DUP1 ISZERO PUSH2 0xF13 JUMPI RETURNDATASIZE PUSH1 0x0 DUP1 RETURNDATACOPY RETURNDATASIZE PUSH1 0x0 REVERT JUMPDEST POP POP POP POP PUSH1 0x40 MLOAD RETURNDATASIZE PUSH1 0x1F NOT PUSH1 0x1F DUP3 ADD AND DUP3 ADD DUP1 PUSH1 0x40 MSTORE POP DUP2 ADD SWAP1 PUSH2 0xF37 SWAP2 SWAP1 PUSH2 0x19FB JUMP JUMPDEST ISZERO PUSH2 0xFC8 JUMPI DUP4 MLOAD DUP3 LT PUSH2 0xF7F JUMPI PUSH1 0x40 MLOAD PUSH32 0x8C379A000000000000000000000000000000000000000000000000000000000 DUP2 MSTORE PUSH1 0x4 ADD PUSH2 0xF76 SWAP1 PUSH2 0x2066 JUMP JUMPDEST PUSH1 0x40 MLOAD DUP1 SWAP2 SUB SWAP1 REVERT JUMPDEST DUP5 DUP2 DUP2 MLOAD DUP2 LT PUSH2 0xF92 JUMPI PUSH2 0xF91 PUSH2 0x1C25 JUMP JUMPDEST JUMPDEST PUSH1 0x20 MUL PUSH1 0x20 ADD ADD MLOAD DUP5 DUP4 DUP2 MLOAD DUP2 LT PUSH2 0xFAD JUMPI PUSH2 0xFAC PUSH2 0x1C25 JUMP JUMPDEST JUMPDEST PUSH1 0x20 MUL PUSH1 0x20 ADD ADD DUP2 SWAP1 MSTORE POP PUSH1 0x1 DUP3 PUSH2 0xFC5 SWAP2 SWAP1 PUSH2 0x1D9F JUMP JUMPDEST SWAP2 POP JUMPDEST DUP1 PUSH2 0xFD2 SWAP1 PUSH2 0x1C7E JUMP JUMPDEST SWAP1 POP PUSH2 0xE53 JUMP JUMPDEST POP POP POP SWAP2 SWAP1 POP JUMP JUMPDEST PUSH1 0x40 MLOAD DUP1 PUSH1 0xA0 ADD PUSH1 0x40 MSTORE DUP1 PUSH1 0x0 DUP2 MSTORE PUSH1 0x20 ADD PUSH1 0x60 DUP2 MSTORE PUSH1 0x20 ADD PUSH2 0x1002 PUSH2 0x1065 JUMP JUMPDEST DUP2 MSTORE PUSH1 0x20 ADD PUSH1 0x0 ISZERO ISZERO DUP2 MSTORE PUSH1 0x20 ADD PUSH1 0x0 DUP2 MSTORE POP SWAP1 JUMP JUMPDEST PUSH1 0x40 MLOAD DUP1 PUSH1 0x60 ADD PUSH1 0x40 MSTORE DUP1 PUSH1 0x0 PUSH1 0xFF AND DUP2 MSTORE PUSH1 0x20 ADD PUSH1 0x60 DUP2 MSTORE PUSH1 0x20 ADD PUSH1 0x60 DUP2 MSTORE POP SWAP1 JUMP JUMPDEST PUSH1 0x40 MLOAD DUP1 PUSH1 0x60 ADD PUSH1 0x40 MSTORE DUP1 PUSH1 0x0 DUP2 MSTORE PUSH1 0x20 ADD PUSH1 0x0 ISZERO ISZERO DUP2 MSTORE PUSH1 0x20 ADD PUSH2 0x105F PUSH2 0x1065 JUMP JUMPDEST DUP2 MSTORE POP SWAP1 JUMP JUMPDEST PUSH1 0x40 MLOAD DUP1 PUSH2 0x100 ADD PUSH1 0x40 MSTORE DUP1 PUSH1 0x0 DUP2 MSTORE PUSH1 0x20 ADD PUSH1 0x0 DUP2 MSTORE PUSH1 0x20 ADD PUSH1 0x0 DUP2 MSTORE PUSH1 0x20 ADD PUSH1 0x0 DUP2 MSTORE PUSH1 0x20 ADD PUSH1 0x0 DUP2 MSTORE PUSH1 0x20 ADD PUSH1 0x0 DUP2 MSTORE PUSH1 0x20 ADD PUSH1 0x0 DUP2 MSTORE PUSH1 0x20 ADD PUSH1 0x0 DUP2 MSTORE POP SWAP1 JUMP JUMPDEST PUSH1 0x0 PUSH20 0xFFFFFFFFFFFFFFFFFFFFFFFFFFFFFFFFFFFFFFFF DUP3 AND SWAP1 POP SWAP2 SWAP1 POP JUMP JUMPDEST PUSH1 0x0 PUSH2 0x10D5 DUP3 PUSH2 0x10AA JUMP JUMPDEST SWAP1 POP SWAP2 SWAP1 POP JUMP JUMPDEST PUSH2 0x10E5 DUP2 PUSH2 0x10CA JUMP JUMPDEST DUP3 MSTORE POP POP JUMP JUMPDEST PUSH1 0x0 PUSH1 0x20 DUP3 ADD SWAP1 POP PUSH2 0x1100 PUSH1 0x0 DUP4 ADD DUP5 PUSH2 0x10DC JUMP JUMPDEST SWAP3 SWAP2 POP POP JUMP JUMPDEST PUSH1 0x0 PUSH1 0x40 MLOAD SWAP1 POP SWAP1 JUMP JUMPDEST PUSH1 0x0 DUP1 REVERT JUMPDEST PUSH1 0x0 DUP1 REVERT JUMPDEST PUSH1 0x0 DUP1 REVERT JUMPDEST PUSH1 0x0 PUSH1 0x1F NOT PUSH1 0x1F DUP4 ADD AND SWAP1 POP SWAP2 SWAP1 POP JUMP JUMPDEST PUSH32 0x4E487B7100000000000000000000000000000000000000000000000000000000 PUSH1 0x0 MSTORE PUSH1 0x41 PUSH1 0x4 MSTORE PUSH1 0x24 PUSH1 0x0 REVERT JUMPDEST PUSH2 0x1168 DUP3 PUSH2 0x111F JUMP JUMPDEST DUP2 ADD DUP2 DUP2 LT PUSH8 0xFFFFFFFFFFFFFFFF DUP3 GT OR ISZERO PUSH2 0x1187 JUMPI PUSH2 0x1186 PUSH2 0x1130 JUMP JUMPDEST JUMPDEST DUP1 PUSH1 0x40 MSTORE POP POP POP JUMP JUMPDEST PUSH1 0x0 PUSH2 0x119A PUSH2 0x1106 JUMP JUMPDEST SWAP1 POP PUSH2 0x11A6 DUP3 DUP3 PUSH2 0x115F JUMP JUMPDEST SWAP2 SWAP1 POP JUMP JUMPDEST PUSH1 0x0 DUP2 ISZERO ISZERO SWAP1 POP SWAP2 SWAP1 POP JUMP JUMPDEST PUSH2 0x11C0 DUP2 PUSH2 0x11AB JUMP JUMPDEST DUP2 EQ PUSH2 0x11CB JUMPI PUSH1 0x0 DUP1 REVERT JUMPDEST POP JUMP JUMPDEST PUSH1 0x0 DUP2 CALLDATALOAD SWAP1 POP PUSH2 0x11DD DUP2 PUSH2 0x11B7 JUMP JUMPDEST SWAP3 SWAP2 POP POP JUMP JUMPDEST PUSH2 0x11EC DUP2 PUSH2 0x10CA JUMP JUMPDEST DUP2 EQ PUSH2 0x11F7 JUMPI PUSH1 0x0 DUP1 REVERT JUMPDEST POP JUMP JUMPDEST PUSH1 0x0 DUP2 CALLDATALOAD SWAP1 POP PUSH2 0x1209 DUP2 PUSH2 0x11E3 JUMP JUMPDEST SWAP3 SWAP2 POP POP JUMP JUMPDEST PUSH1 0x0 DUP2 SWAP1 POP SWAP2 SWAP1 POP JUMP JUMPDEST PUSH2 0x1222 DUP2 PUSH2 0x120F JUMP JUMPDEST DUP2 EQ PUSH2 0x122D JUMPI PUSH1 0x0 DUP1 REVERT JUMPDEST POP JUMP JUMPDEST PUSH1 0x0 DUP2 CALLDATALOAD SWAP1 POP PUSH2 0x123F DUP2 PUSH2 0x1219 JUMP JUMPDEST SWAP3 SWAP2 POP POP JUMP JUMPDEST PUSH1 0x0 PUSH2 0x100 DUP3 DUP5 SUB SLT ISZERO PUSH2 0x125C JUMPI PUSH2 0x125B PUSH2 0x111A JUMP JUMPDEST JUMPDEST PUSH2 0x1267 PUSH2 0x100 PUSH2 0x1190 JUMP JUMPDEST SWAP1 POP PUSH1 0x0 PUSH2 0x1277 DUP5 DUP3 DUP6 ADD PUSH2 0x1230 JUMP JUMPDEST PUSH1 0x0 DUP4 ADD MSTORE POP PUSH1 0x20 PUSH2 0x128B DUP5 DUP3 DUP6 ADD PUSH2 0x1230 JUMP JUMPDEST PUSH1 0x20 DUP4 ADD MSTORE POP PUSH1 0x40 PUSH2 0x129F DUP5 DUP3 DUP6 ADD PUSH2 0x1230 JUMP JUMPDEST PUSH1 0x40 DUP4 ADD MSTORE POP PUSH1 0x60 PUSH2 0x12B3 DUP5 DUP3 DUP6 ADD PUSH2 0x1230 JUMP JUMPDEST PUSH1 0x60 DUP4 ADD MSTORE POP PUSH1 0x80 PUSH2 0x12C7 DUP5 DUP3 DUP6 ADD PUSH2 0x1230 JUMP JUMPDEST PUSH1 0x80 DUP4 ADD MSTORE POP PUSH1 0xA0 PUSH2 0x12DB DUP5 DUP3 DUP6 ADD PUSH2 0x1230 JUMP JUMPDEST PUSH1 0xA0 DUP4 ADD MSTORE POP PUSH1 0xC0 PUSH2 0x12EF DUP5 DUP3 DUP6 ADD PUSH2 0x1230 JUMP JUMPDEST PUSH1 0xC0 DUP4 ADD MSTORE POP PUSH1 0xE0 PUSH2 0x1303 DUP5 DUP3 DUP6 ADD PUSH2 0x1230 JUMP JUMPDEST PUSH1 0xE0 DUP4 ADD MSTORE POP SWAP3 SWAP2 POP POP JUMP JUMPDEST PUSH1 0x0 PUSH1 0x60 DUP3 DUP5 SUB SLT ISZERO PUSH2 0x1325 JUMPI PUSH2 0x1324 PUSH2 0x111A JUMP JUMPDEST JUMPDEST PUSH2 0x132F PUSH1 0x60 PUSH2 0x1190 JUMP JUMPDEST SWAP1 POP PUSH1 0x0 PUSH2 0x133F DUP5 DUP3 DUP6 ADD PUSH2 0x1230 JUMP JUMPDEST PUSH1 0x0 DUP4 ADD MSTORE POP PUSH1 0x20 PUSH2 0x1353 DUP5 DUP3 DUP6 ADD PUSH2 0x1230 JUMP JUMPDEST PUSH1 0x20 DUP4 ADD MSTORE POP PUSH1 0x40 PUSH2 0x1367 DUP5 DUP3 DUP6 ADD PUSH2 0x1230 JUMP JUMPDEST PUSH1 0x40 DUP4 ADD MSTORE POP SWAP3 SWAP2 POP POP JUMP JUMPDEST PUSH1 0x0 PUSH2 0x240 DUP3 DUP5 SUB SLT ISZERO PUSH2 0x138A JUMPI PUSH2 0x1389 PUSH2 0x111A JUMP JUMPDEST JUMPDEST PUSH2 0x1395 PUSH2 0x120 PUSH2 0x1190 JUMP JUMPDEST SWAP1 POP PUSH1 0x0 PUSH2 0x13A5 DUP5 DUP3 DUP6 ADD PUSH2 0x11CE JUMP JUMPDEST PUSH1 0x0 DUP4 ADD MSTORE POP PUSH1 0x20 PUSH2 0x13B9 DUP5 DUP3 DUP6 ADD PUSH2 0x11FA JUMP JUMPDEST PUSH1 0x20 DUP4 ADD MSTORE POP PUSH1 0x40 PUSH2 0x13CD DUP5 DUP3 DUP6 ADD PUSH2 0x1230 JUMP JUMPDEST PUSH1 0x40 DUP4 ADD MSTORE POP PUSH1 0x60 PUSH2 0x13E1 DUP5 DUP3 DUP6 ADD PUSH2 0x11FA JUMP JUMPDEST PUSH1 0x60 DUP4 ADD MSTORE POP PUSH1 0x80 PUSH2 0x13F5 DUP5 DUP3 DUP6 ADD PUSH2 0x1230 JUMP JUMPDEST PUSH1 0x80 DUP4 ADD MSTORE POP PUSH1 0xA0 PUSH2 0x1409 DUP5 DUP3 DUP6 ADD PUSH2 0x1230 JUMP JUMPDEST PUSH1 0xA0 DUP4 ADD MSTORE POP PUSH1 0xC0 PUSH2 0x141D DUP5 DUP3 DUP6 ADD PUSH2 0x1230 JUMP JUMPDEST PUSH1 0xC0 DUP4 ADD MSTORE POP PUSH1 0xE0 PUSH2 0x1431 DUP5 DUP3 DUP6 ADD PUSH2 0x1245 JUMP JUMPDEST PUSH1 0xE0 DUP4 ADD MSTORE POP PUSH2 0x1E0 PUSH2 0x1446 DUP5 DUP3 DUP6 ADD PUSH2 0x130F JUMP JUMPDEST PUSH2 0x100 DUP4 ADD MSTORE POP SWAP3 SWAP2 POP POP JUMP JUMPDEST PUSH1 0x0 DUP1 REVERT JUMPDEST PUSH1 0x0 PUSH8 0xFFFFFFFFFFFFFFFF DUP3 GT ISZERO PUSH2 0x1473 JUMPI PUSH2 0x1472 PUSH2 0x1130 JUMP JUMPDEST JUMPDEST PUSH1 0x20 DUP3 MUL SWAP1 POP PUSH1 0x20 DUP2 ADD SWAP1 POP SWAP2 SWAP1 POP JUMP JUMPDEST PUSH1 0x0 DUP1 REVERT JUMPDEST PUSH1 0x0 PUSH2 0x140 DUP3 DUP5 SUB SLT ISZERO PUSH2 0x14A0 JUMPI PUSH2 0x149F PUSH2 0x111A JUMP JUMPDEST JUMPDEST PUSH2 0x14AA PUSH1 0x60 PUSH2 0x1190 JUMP JUMPDEST SWAP1 POP PUSH1 0x0 PUSH2 0x14BA DUP5 DUP3 DUP6 ADD PUSH2 0x1230 JUMP JUMPDEST PUSH1 0x0 DUP4 ADD MSTORE POP PUSH1 0x20 PUSH2 0x14CE DUP5 DUP3 DUP6 ADD PUSH2 0x11CE JUMP JUMPDEST PUSH1 0x20 DUP4 ADD MSTORE POP PUSH1 0x40 PUSH2 0x14E2 DUP5 DUP3 DUP6 ADD PUSH2 0x1245 JUMP JUMPDEST PUSH1 0x40 DUP4 ADD MSTORE POP SWAP3 SWAP2 POP POP JUMP JUMPDEST PUSH1 0x0 PUSH2 0x1501 PUSH2 0x14FC DUP5 PUSH2 0x1458 JUMP JUMPDEST PUSH2 0x1190 JUMP JUMPDEST SWAP1 POP DUP1 DUP4 DUP3 MSTORE PUSH1 0x20 DUP3 ADD SWAP1 POP PUSH2 0x140 DUP5 MUL DUP4 ADD DUP6 DUP2 GT ISZERO PUSH2 0x1525 JUMPI PUSH2 0x1524 PUSH2 0x1484 JUMP JUMPDEST JUMPDEST DUP4 JUMPDEST DUP2 DUP2 LT ISZERO PUSH2 0x154F JUMPI DUP1 PUSH2 0x153A DUP9 DUP3 PUSH2 0x1489 JUMP JUMPDEST DUP5 MSTORE PUSH1 0x20 DUP5 ADD SWAP4 POP POP PUSH2 0x140 DUP2 ADD SWAP1 POP PUSH2 0x1527 JUMP JUMPDEST POP POP POP SWAP4 SWAP3 POP POP POP JUMP JUMPDEST PUSH1 0x0 DUP3 PUSH1 0x1F DUP4 ADD SLT PUSH2 0x156E JUMPI PUSH2 0x156D PUSH2 0x1453 JUMP JUMPDEST JUMPDEST DUP2 CALLDATALOAD PUSH2 0x157E DUP5 DUP3 PUSH1 0x20 DUP7 ADD PUSH2 0x14EE JUMP JUMPDEST SWAP2 POP POP SWAP3 SWAP2 POP POP JUMP JUMPDEST PUSH1 0x0 DUP1 PUSH2 0x260 DUP4 DUP6 SUB SLT ISZERO PUSH2 0x159F JUMPI PUSH2 0x159E PUSH2 0x1110 JUMP JUMPDEST JUMPDEST PUSH1 0x0 PUSH2 0x15AD DUP6 DUP3 DUP7 ADD PUSH2 0x1373 JUMP JUMPDEST SWAP3 POP POP PUSH2 0x240 DUP4 ADD CALLDATALOAD PUSH8 0xFFFFFFFFFFFFFFFF DUP2 GT ISZERO PUSH2 0x15CF JUMPI PUSH2 0x15CE PUSH2 0x1115 JUMP JUMPDEST JUMPDEST PUSH2 0x15DB DUP6 DUP3 DUP7 ADD PUSH2 0x1559 JUMP JUMPDEST SWAP2 POP POP SWAP3 POP SWAP3 SWAP1 POP JUMP JUMPDEST PUSH2 0x15EE DUP2 PUSH2 0x120F JUMP JUMPDEST DUP3 MSTORE POP POP JUMP JUMPDEST PUSH1 0x0 DUP2 MLOAD SWAP1 POP SWAP2 SWAP1 POP JUMP JUMPDEST PUSH1 0x0 DUP3 DUP3 MSTORE PUSH1 0x20 DUP3 ADD SWAP1 POP SWAP3 SWAP2 POP POP JUMP JUMPDEST PUSH1 0x0 JUMPDEST DUP4 DUP2 LT ISZERO PUSH2 0x162E JUMPI DUP1 DUP3 ADD MLOAD DUP2 DUP5 ADD MSTORE PUSH1 0x20 DUP2 ADD SWAP1 POP PUSH2 0x1613 JUMP JUMPDEST DUP4 DUP2 GT ISZERO PUSH2 0x163D JUMPI PUSH1 0x0 DUP5 DUP5 ADD MSTORE JUMPDEST POP POP POP POP JUMP JUMPDEST PUSH1 0x0 PUSH2 0x164E DUP3 PUSH2 0x15F4 JUMP JUMPDEST PUSH2 0x1658 DUP2 DUP6 PUSH2 0x15FF JUMP JUMPDEST SWAP4 POP PUSH2 0x1668 DUP2 DUP6 PUSH1 0x20 DUP7 ADD PUSH2 0x1610 JUMP JUMPDEST PUSH2 0x1671 DUP2 PUSH2 0x111F JUMP JUMPDEST DUP5 ADD SWAP2 POP POP SWAP3 SWAP2 POP POP JUMP JUMPDEST PUSH2 0x100 DUP3 ADD PUSH1 0x0 DUP3 ADD MLOAD PUSH2 0x1693 PUSH1 0x0 DUP6 ADD DUP3 PUSH2 0x15E5 JUMP JUMPDEST POP PUSH1 0x20 DUP3 ADD MLOAD PUSH2 0x16A6 PUSH1 0x20 DUP6 ADD DUP3 PUSH2 0x15E5 JUMP JUMPDEST POP PUSH1 0x40 DUP3 ADD MLOAD PUSH2 0x16B9 PUSH1 0x40 DUP6 ADD DUP3 PUSH2 0x15E5 JUMP JUMPDEST POP PUSH1 0x60 DUP3 ADD MLOAD PUSH2 0x16CC PUSH1 0x60 DUP6 ADD DUP3 PUSH2 0x15E5 JUMP JUMPDEST POP PUSH1 0x80 DUP3 ADD MLOAD PUSH2 0x16DF PUSH1 0x80 DUP6 ADD DUP3 PUSH2 0x15E5 JUMP JUMPDEST POP PUSH1 0xA0 DUP3 ADD MLOAD PUSH2 0x16F2 PUSH1 0xA0 DUP6 ADD DUP3 PUSH2 0x15E5 JUMP JUMPDEST POP PUSH1 0xC0 DUP3 ADD MLOAD PUSH2 0x1705 PUSH1 0xC0 DUP6 ADD DUP3 PUSH2 0x15E5 JUMP JUMPDEST POP PUSH1 0xE0 DUP3 ADD MLOAD PUSH2 0x1718 PUSH1 0xE0 DUP6 ADD DUP3 PUSH2 0x15E5 JUMP JUMPDEST POP POP POP POP JUMP JUMPDEST PUSH2 0x1727 DUP2 PUSH2 0x11AB JUMP JUMPDEST DUP3 MSTORE POP POP JUMP JUMPDEST PUSH1 0x0 PUSH2 0x180 DUP4 ADD PUSH1 0x0 DUP4 ADD MLOAD PUSH2 0x1746 PUSH1 0x0 DUP7 ADD DUP3 PUSH2 0x15E5 JUMP JUMPDEST POP PUSH1 0x20 DUP4 ADD MLOAD DUP5 DUP3 SUB PUSH1 0x20 DUP7 ADD MSTORE PUSH2 0x175E DUP3 DUP3 PUSH2 0x1643 JUMP JUMPDEST SWAP2 POP POP PUSH1 0x40 DUP4 ADD MLOAD PUSH2 0x1773 PUSH1 0x40 DUP7 ADD DUP3 PUSH2 0x167C JUMP JUMPDEST POP PUSH1 0x60 DUP4 ADD MLOAD PUSH2 0x1787 PUSH2 0x140 DUP7 ADD DUP3 PUSH2 0x171E JUMP JUMPDEST POP PUSH1 0x80 DUP4 ADD MLOAD PUSH2 0x179B PUSH2 0x160 DUP7 ADD DUP3 PUSH2 0x15E5 JUMP JUMPDEST POP DUP1 SWAP2 POP POP SWAP3 SWAP2 POP POP JUMP JUMPDEST PUSH1 0x0 PUSH1 0x20 DUP3 ADD SWAP1 POP DUP2 DUP2 SUB PUSH1 0x0 DUP4 ADD MSTORE PUSH2 0x17C0 DUP2 DUP5 PUSH2 0x172D JUMP JUMPDEST SWAP1 POP SWAP3 SWAP2 POP POP JUMP JUMPDEST PUSH1 0x0 PUSH1 0x20 DUP3 DUP5 SUB SLT ISZERO PUSH2 0x17DE JUMPI PUSH2 0x17DD PUSH2 0x1110 JUMP JUMPDEST JUMPDEST PUSH1 0x0 PUSH2 0x17EC DUP5 DUP3 DUP6 ADD PUSH2 0x11FA JUMP JUMPDEST SWAP2 POP POP SWAP3 SWAP2 POP POP JUMP JUMPDEST PUSH1 0x3 DUP2 LT PUSH2 0x1802 JUMPI PUSH1 0x0 DUP1 REVERT JUMPDEST POP JUMP JUMPDEST PUSH1 0x0 DUP2 MLOAD SWAP1 POP PUSH2 0x1814 DUP2 PUSH2 0x17F5 JUMP JUMPDEST SWAP3 SWAP2 POP POP JUMP JUMPDEST PUSH1 0x0 PUSH1 0x20 DUP3 DUP5 SUB SLT ISZERO PUSH2 0x1830 JUMPI PUSH2 0x182F PUSH2 0x1110 JUMP JUMPDEST JUMPDEST PUSH1 0x0 PUSH2 0x183E DUP5 DUP3 DUP6 ADD PUSH2 0x1805 JUMP JUMPDEST SWAP2 POP POP SWAP3 SWAP2 POP POP JUMP JUMPDEST PUSH32 0x4E487B7100000000000000000000000000000000000000000000000000000000 PUSH1 0x0 MSTORE PUSH1 0x21 PUSH1 0x4 MSTORE PUSH1 0x24 PUSH1 0x0 REVERT JUMPDEST PUSH1 0x0 DUP3 DUP3 MSTORE PUSH1 0x20 DUP3 ADD SWAP1 POP SWAP3 SWAP2 POP POP JUMP JUMPDEST PUSH32 0x4F6E6C792067616D6520636F6E7472616374732063616E2063616C6C20746869 PUSH1 0x0 DUP3 ADD MSTORE PUSH32 0x73206D6574686F64000000000000000000000000000000000000000000000000 PUSH1 0x20 DUP3 ADD MSTORE POP JUMP JUMPDEST PUSH1 0x0 PUSH2 0x18E3 PUSH1 0x28 DUP4 PUSH2 0x1876 JUMP JUMPDEST SWAP2 POP PUSH2 0x18EE DUP3 PUSH2 0x1887 JUMP JUMPDEST PUSH1 0x40 DUP3 ADD SWAP1 POP SWAP2 SWAP1 POP JUMP JUMPDEST PUSH1 0x0 PUSH1 0x20 DUP3 ADD SWAP1 POP DUP2 DUP2 SUB PUSH1 0x0 DUP4 ADD MSTORE PUSH2 0x1912 DUP2 PUSH2 0x18D6 JUMP JUMPDEST SWAP1 POP SWAP2 SWAP1 POP JUMP JUMPDEST PUSH2 0x1922 DUP2 PUSH2 0x120F JUMP JUMPDEST DUP3 MSTORE POP POP JUMP JUMPDEST PUSH2 0x100 DUP3 ADD PUSH1 0x0 DUP3 ADD MLOAD PUSH2 0x193F PUSH1 0x0 DUP6 ADD DUP3 PUSH2 0x1919 JUMP JUMPDEST POP PUSH1 0x20 DUP3 ADD MLOAD PUSH2 0x1952 PUSH1 0x20 DUP6 ADD DUP3 PUSH2 0x1919 JUMP JUMPDEST POP PUSH1 0x40 DUP3 ADD MLOAD PUSH2 0x1965 PUSH1 0x40 DUP6 ADD DUP3 PUSH2 0x1919 JUMP JUMPDEST POP PUSH1 0x60 DUP3 ADD MLOAD PUSH2 0x1978 PUSH1 0x60 DUP6 ADD DUP3 PUSH2 0x1919 JUMP JUMPDEST POP PUSH1 0x80 DUP3 ADD MLOAD PUSH2 0x198B PUSH1 0x80 DUP6 ADD DUP3 PUSH2 0x1919 JUMP JUMPDEST POP PUSH1 0xA0 DUP3 ADD MLOAD PUSH2 0x199E PUSH1 0xA0 DUP6 ADD DUP3 PUSH2 0x1919 JUMP JUMPDEST POP PUSH1 0xC0 DUP3 ADD MLOAD PUSH2 0x19B1 PUSH1 0xC0 DUP6 ADD DUP3 PUSH2 0x1919 JUMP JUMPDEST POP PUSH1 0xE0 DUP3 ADD MLOAD PUSH2 0x19C4 PUSH1 0xE0 DUP6 ADD DUP3 PUSH2 0x1919 JUMP JUMPDEST POP POP POP POP JUMP JUMPDEST PUSH1 0x0 PUSH2 0x100 DUP3 ADD SWAP1 POP PUSH2 0x19E0 PUSH1 0x0 DUP4 ADD DUP5 PUSH2 0x1928 JUMP JUMPDEST SWAP3 SWAP2 POP POP JUMP JUMPDEST PUSH1 0x0 DUP2 MLOAD SWAP1 POP PUSH2 0x19F5 DUP2 PUSH2 0x11B7 JUMP JUMPDEST SWAP3 SWAP2 POP POP JUMP JUMPDEST PUSH1 0x0 PUSH1 0x20 DUP3 DUP5 SUB SLT ISZERO PUSH2 0x1A11 JUMPI PUSH2 0x1A10 PUSH2 0x1110 JUMP JUMPDEST JUMPDEST PUSH1 0x0 PUSH2 0x1A1F DUP5 DUP3 DUP6 ADD PUSH2 0x19E6 JUMP JUMPDEST SWAP2 POP POP SWAP3 SWAP2 POP POP JUMP JUMPDEST PUSH32 0x4F6E6C792047616D65204D61737465722063616E2063616C6C2074686973206D PUSH1 0x0 DUP3 ADD MSTORE PUSH32 0x6574686F64000000000000000000000000000000000000000000000000000000 PUSH1 0x20 DUP3 ADD MSTORE POP JUMP JUMPDEST PUSH1 0x0 PUSH2 0x1A84 PUSH1 0x25 DUP4 PUSH2 0x1876 JUMP JUMPDEST SWAP2 POP PUSH2 0x1A8F DUP3 PUSH2 0x1A28 JUMP JUMPDEST PUSH1 0x40 DUP3 ADD SWAP1 POP SWAP2 SWAP1 POP JUMP JUMPDEST PUSH1 0x0 PUSH1 0x20 DUP3 ADD SWAP1 POP DUP2 DUP2 SUB PUSH1 0x0 DUP4 ADD MSTORE PUSH2 0x1AB3 DUP2 PUSH2 0x1A77 JUMP JUMPDEST SWAP1 POP SWAP2 SWAP1 POP JUMP JUMPDEST PUSH1 0x0 DUP2 MLOAD SWAP1 POP PUSH2 0x1AC9 DUP2 PUSH2 0x1219 JUMP JUMPDEST SWAP3 SWAP2 POP POP JUMP JUMPDEST PUSH1 0x0 PUSH1 0x20 DUP3 DUP5 SUB SLT ISZERO PUSH2 0x1AE5 JUMPI PUSH2 0x1AE4 PUSH2 0x1110 JUMP JUMPDEST JUMPDEST PUSH1 0x0 PUSH2 0x1AF3 DUP5 DUP3 DUP6 ADD PUSH2 0x1ABA JUMP JUMPDEST SWAP2 POP POP SWAP3 SWAP2 POP POP JUMP JUMPDEST PUSH1 0x0 PUSH1 0x4 SWAP1 POP SWAP2 SWAP1 POP JUMP JUMPDEST PUSH1 0x0 DUP2 SWAP1 POP SWAP3 SWAP2 POP POP JUMP JUMPDEST PUSH1 0x0 DUP2 SWAP1 POP SWAP2 SWAP1 POP JUMP JUMPDEST PUSH2 0x1B25 DUP2 PUSH2 0x120F JUMP JUMPDEST DUP3 MSTORE POP POP JUMP JUMPDEST PUSH1 0x0 PUSH2 0x1B37 DUP4 DUP4 PUSH2 0x1B1C JUMP JUMPDEST PUSH1 0x20 DUP4 ADD SWAP1 POP SWAP3 SWAP2 POP POP JUMP JUMPDEST PUSH1 0x0 PUSH1 0x20 DUP3 ADD SWAP1 POP SWAP2 SWAP1 POP JUMP JUMPDEST PUSH2 0x1B59 DUP2 PUSH2 0x1AFC JUMP JUMPDEST PUSH2 0x1B63 DUP2 DUP5 PUSH2 0x1B07 JUMP JUMPDEST SWAP3 POP PUSH2 0x1B6E DUP3 PUSH2 0x1B12 JUMP JUMPDEST DUP1 PUSH1 0x0 JUMPDEST DUP4 DUP2 LT ISZERO PUSH2 0x1B9F JUMPI DUP2 MLOAD PUSH2 0x1B86 DUP8 DUP3 PUSH2 0x1B2B JUMP JUMPDEST SWAP7 POP PUSH2 0x1B91 DUP4 PUSH2 0x1B43 JUMP JUMPDEST SWAP3 POP POP PUSH1 0x1 DUP2 ADD SWAP1 POP PUSH2 0x1B72 JUMP JUMPDEST POP POP POP POP POP POP JUMP JUMPDEST PUSH1 0x0 PUSH2 0x1BB3 DUP3 DUP5 PUSH2 0x1B50 JUMP JUMPDEST PUSH1 0x80 DUP3 ADD SWAP2 POP DUP2 SWAP1 POP SWAP3 SWAP2 POP POP JUMP JUMPDEST PUSH32 0x4E487B7100000000000000000000000000000000000000000000000000000000 PUSH1 0x0 MSTORE PUSH1 0x11 PUSH1 0x4 MSTORE PUSH1 0x24 PUSH1 0x0 REVERT JUMPDEST PUSH1 0x0 PUSH2 0x1BFC DUP3 PUSH2 0x120F JUMP JUMPDEST SWAP2 POP PUSH2 0x1C07 DUP4 PUSH2 0x120F JUMP JUMPDEST SWAP3 POP DUP3 DUP3 LT ISZERO PUSH2 0x1C1A JUMPI PUSH2 0x1C19 PUSH2 0x1BC2 JUMP JUMPDEST JUMPDEST DUP3 DUP3 SUB SWAP1 POP SWAP3 SWAP2 POP POP JUMP JUMPDEST PUSH32 0x4E487B7100000000000000000000000000000000000000000000000000000000 PUSH1 0x0 MSTORE PUSH1 0x32 PUSH1 0x4 MSTORE PUSH1 0x24 PUSH1 0x0 REVERT JUMPDEST PUSH1 0x0 PUSH2 0x1C5F DUP3 PUSH2 0x120F JUMP JUMPDEST SWAP2 POP PUSH1 0x0 DUP3 EQ ISZERO PUSH2 0x1C73 JUMPI PUSH2 0x1C72 PUSH2 0x1BC2 JUMP JUMPDEST JUMPDEST PUSH1 0x1 DUP3 SUB SWAP1 POP SWAP2 SWAP1 POP JUMP JUMPDEST PUSH1 0x0 PUSH2 0x1C89 DUP3 PUSH2 0x120F JUMP JUMPDEST SWAP2 POP PUSH32 0xFFFFFFFFFFFFFFFFFFFFFFFFFFFFFFFFFFFFFFFFFFFFFFFFFFFFFFFFFFFFFFFF DUP3 EQ ISZERO PUSH2 0x1CBC JUMPI PUSH2 0x1CBB PUSH2 0x1BC2 JUMP JUMPDEST JUMPDEST PUSH1 0x1 DUP3 ADD SWAP1 POP SWAP2 SWAP1 POP JUMP JUMPDEST PUSH32 0x496E76616C6964207461726765742073656C6563746564000000000000000000 PUSH1 0x0 DUP3 ADD MSTORE POP JUMP JUMPDEST PUSH1 0x0 PUSH2 0x1CFD PUSH1 0x17 DUP4 PUSH2 0x1876 JUMP JUMPDEST SWAP2 POP PUSH2 0x1D08 DUP3 PUSH2 0x1CC7 JUMP JUMPDEST PUSH1 0x20 DUP3 ADD SWAP1 POP SWAP2 SWAP1 POP JUMP JUMPDEST PUSH1 0x0 PUSH1 0x20 DUP3 ADD SWAP1 POP DUP2 DUP2 SUB PUSH1 0x0 DUP4 ADD MSTORE PUSH2 0x1D2C DUP2 PUSH2 0x1CF0 JUMP JUMPDEST SWAP1 POP SWAP2 SWAP1 POP JUMP JUMPDEST PUSH32 0x5461726765742073686F756C6420626520616C69766500000000000000000000 PUSH1 0x0 DUP3 ADD MSTORE POP JUMP JUMPDEST PUSH1 0x0 PUSH2 0x1D69 PUSH1 0x16 DUP4 PUSH2 0x1876 JUMP JUMPDEST SWAP2 POP PUSH2 0x1D74 DUP3 PUSH2 0x1D33 JUMP JUMPDEST PUSH1 0x20 DUP3 ADD SWAP1 POP SWAP2 SWAP1 POP JUMP JUMPDEST PUSH1 0x0 PUSH1 0x20 DUP3 ADD SWAP1 POP DUP2 DUP2 SUB PUSH1 0x0 DUP4 ADD MSTORE PUSH2 0x1D98 DUP2 PUSH2 0x1D5C JUMP JUMPDEST SWAP1 POP SWAP2 SWAP1 POP JUMP JUMPDEST PUSH1 0x0 PUSH2 0x1DAA DUP3 PUSH2 0x120F JUMP JUMPDEST SWAP2 POP PUSH2 0x1DB5 DUP4 PUSH2 0x120F JUMP JUMPDEST SWAP3 POP DUP3 PUSH32 0xFFFFFFFFFFFFFFFFFFFFFFFFFFFFFFFFFFFFFFFFFFFFFFFFFFFFFFFFFFFFFFFF SUB DUP3 GT ISZERO PUSH2 0x1DEA JUMPI PUSH2 0x1DE9 PUSH2 0x1BC2 JUMP JUMPDEST JUMPDEST DUP3 DUP3 ADD SWAP1 POP SWAP3 SWAP2 POP POP JUMP JUMPDEST PUSH32 0x5365656420646F65736E2774206861766520616E79206D6F726520726F6C6C73 PUSH1 0x0 DUP3 ADD MSTORE POP JUMP JUMPDEST PUSH1 0x0 PUSH2 0x1E2B PUSH1 0x20 DUP4 PUSH2 0x1876 JUMP JUMPDEST SWAP2 POP PUSH2 0x1E36 DUP3 PUSH2 0x1DF5 JUMP JUMPDEST PUSH1 0x20 DUP3 ADD SWAP1 POP SWAP2 SWAP1 POP JUMP JUMPDEST PUSH1 0x0 PUSH1 0x20 DUP3 ADD SWAP1 POP DUP2 DUP2 SUB PUSH1 0x0 DUP4 ADD MSTORE PUSH2 0x1E5A DUP2 PUSH2 0x1E1E JUMP JUMPDEST SWAP1 POP SWAP2 SWAP1 POP JUMP JUMPDEST PUSH1 0x0 PUSH1 0xFF DUP3 AND SWAP1 POP SWAP2 SWAP1 POP JUMP JUMPDEST PUSH32 0x4E487B7100000000000000000000000000000000000000000000000000000000 PUSH1 0x0 MSTORE PUSH1 0x12 PUSH1 0x4 MSTORE PUSH1 0x24 PUSH1 0x0 REVERT JUMPDEST PUSH1 0x0 PUSH2 0x1EA8 DUP3 PUSH2 0x1E61 JUMP JUMPDEST SWAP2 POP PUSH2 0x1EB3 DUP4 PUSH2 0x1E61 JUMP JUMPDEST SWAP3 POP DUP3 PUSH2 0x1EC3 JUMPI PUSH2 0x1EC2 PUSH2 0x1E6E JUMP JUMPDEST JUMPDEST DUP3 DUP3 MOD SWAP1 POP SWAP3 SWAP2 POP POP JUMP JUMPDEST PUSH1 0x0 PUSH2 0x1ED9 DUP3 PUSH2 0x1E61 JUMP JUMPDEST SWAP2 POP PUSH2 0x1EE4 DUP4 PUSH2 0x1E61 JUMP JUMPDEST SWAP3 POP DUP3 PUSH1 0xFF SUB DUP3 GT ISZERO PUSH2 0x1EFA JUMPI PUSH2 0x1EF9 PUSH2 0x1BC2 JUMP JUMPDEST JUMPDEST DUP3 DUP3 ADD SWAP1 POP SWAP3 SWAP2 POP POP JUMP JUMPDEST PUSH1 0x0 PUSH2 0x200 DUP3 ADD SWAP1 POP PUSH2 0x1F1B PUSH1 0x0 DUP4 ADD DUP6 PUSH2 0x1928 JUMP JUMPDEST PUSH2 0x1F29 PUSH2 0x100 DUP4 ADD DUP5 PUSH2 0x1928 JUMP JUMPDEST SWAP4 SWAP3 POP POP POP JUMP JUMPDEST PUSH2 0x1F39 DUP2 PUSH2 0x120F JUMP JUMPDEST DUP3 MSTORE POP POP JUMP JUMPDEST PUSH2 0x1F48 DUP2 PUSH2 0x11AB JUMP JUMPDEST DUP3 MSTORE POP POP JUMP JUMPDEST PUSH1 0x0 PUSH2 0x140 DUP3 ADD SWAP1 POP PUSH2 0x1F64 PUSH1 0x0 DUP4 ADD DUP7 PUSH2 0x1928 JUMP JUMPDEST PUSH2 0x1F72 PUSH2 0x100 DUP4 ADD DUP6 PUSH2 0x1F30 JUMP JUMPDEST PUSH2 0x1F80 PUSH2 0x120 DUP4 ADD DUP5 PUSH2 0x1F3F JUMP JUMPDEST SWAP5 SWAP4 POP POP POP POP JUMP JUMPDEST PUSH32 0x496E646578206973206F7574206F662073636F70653A20656E656D6965730000 PUSH1 0x0 DUP3 ADD MSTORE POP JUMP JUMPDEST PUSH1 0x0 PUSH2 0x1FBE PUSH1 0x1E DUP4 PUSH2 0x1876 JUMP JUMPDEST SWAP2 POP PUSH2 0x1FC9 DUP3 PUSH2 0x1F88 JUMP JUMPDEST PUSH1 0x20 DUP3 ADD SWAP1 POP SWAP2 SWAP1 POP JUMP JUMPDEST PUSH1 0x0 PUSH1 0x20 DUP3 ADD SWAP1 POP DUP2 DUP2 SUB PUSH1 0x0 DUP4 ADD MSTORE PUSH2 0x1FED DUP2 PUSH2 0x1FB1 JUMP JUMPDEST SWAP1 POP SWAP2 SWAP1 POP JUMP JUMPDEST PUSH32 0x496E646578206973206F7574206F662073636F70653A206E657720656E656D69 PUSH1 0x0 DUP3 ADD MSTORE PUSH32 0x6573000000000000000000000000000000000000000000000000000000000000 PUSH1 0x20 DUP3 ADD MSTORE POP JUMP JUMPDEST PUSH1 0x0 PUSH2 0x2050 PUSH1 0x22 DUP4 PUSH2 0x1876 JUMP JUMPDEST SWAP2 POP PUSH2 0x205B DUP3 PUSH2 0x1FF4 JUMP JUMPDEST PUSH1 0x40 DUP3 ADD SWAP1 POP SWAP2 SWAP1 POP JUMP JUMPDEST PUSH1 0x0 PUSH1 0x20 DUP3 ADD SWAP1 POP DUP2 DUP2 SUB PUSH1 0x0 DUP4 ADD MSTORE PUSH2 0x207F DUP2 PUSH2 0x2043 JUMP JUMPDEST SWAP1 POP SWAP2 SWAP1 POP JUMP INVALID LOG2 PUSH5 0x6970667358 0x22 SLT KECCAK256 0x5E 0xC5 SWAP6 0xD9 SWAP4 EXTCODECOPY 0xF7 0xE3 0xDC 0xF6 PUSH23 0x140CB4B7F41258A548AD07B181B7DCE0877F9849A66473 PUSH16 0x6C634300080A00330000000000000000 "
		},
		"gasEstimates": {
			"creation": {
				"codeDepositCost": "1676000",
				"executionCost": "infinite",
				"totalCost": "infinite"
			},
			"external": {
				"AUTH_CONTRACT_ADDRESS()": "2489",
				"RANDOM_CONTRACT_ADDRESS()": "2536",
				"conductFight((bool,address,uint256,address,uint256,uint256,uint256,(uint256,uint256,uint256,uint256,uint256,uint256,uint256,uint256),(uint256,uint256,uint256)),(uint256,bool,(uint256,uint256,uint256,uint256,uint256,uint256,uint256,uint256))[])": "infinite",
				"setRandomContractAddress(address)": "infinite"
			},
			"internal": {
				"_fight(struct SeedReader.Seed memory,struct Character memory,struct Enemy memory[] memory)": "infinite",
				"_processAttack(struct SeedReader.Seed memory,struct ComputedStats.Stats memory,struct ComputedStats.Stats memory)": "infinite",
				"_recountEnemies(struct Enemy memory[] memory)": "infinite"
			}
		},
		"methodIdentifiers": {
			"AUTH_CONTRACT_ADDRESS()": "4848d463",
			"RANDOM_CONTRACT_ADDRESS()": "d3dd4f29",
			"conductFight((bool,address,uint256,address,uint256,uint256,uint256,(uint256,uint256,uint256,uint256,uint256,uint256,uint256,uint256),(uint256,uint256,uint256)),(uint256,bool,(uint256,uint256,uint256,uint256,uint256,uint256,uint256,uint256))[])": "52442977",
			"setRandomContractAddress(address)": "d7050b05"
		}
	},
	"abi": [
		{
			"inputs": [
				{
					"internalType": "address",
					"name": "authContractAddress",
					"type": "address"
				}
			],
			"stateMutability": "nonpayable",
			"type": "constructor"
		},
		{
			"inputs": [],
			"name": "AUTH_CONTRACT_ADDRESS",
			"outputs": [
				{
					"internalType": "address",
					"name": "",
					"type": "address"
				}
			],
			"stateMutability": "view",
			"type": "function"
		},
		{
			"inputs": [],
			"name": "RANDOM_CONTRACT_ADDRESS",
			"outputs": [
				{
					"internalType": "address",
					"name": "",
					"type": "address"
				}
			],
			"stateMutability": "view",
			"type": "function"
		},
		{
			"inputs": [
				{
					"components": [
						{
							"internalType": "bool",
							"name": "exists",
							"type": "bool"
						},
						{
							"internalType": "address",
							"name": "contractAddress",
							"type": "address"
						},
						{
							"internalType": "uint256",
							"name": "tokenId",
							"type": "uint256"
						},
						{
							"internalType": "address",
							"name": "owner",
							"type": "address"
						},
						{
							"internalType": "uint256",
							"name": "level",
							"type": "uint256"
						},
						{
							"internalType": "uint256",
							"name": "exp",
							"type": "uint256"
						},
						{
							"internalType": "uint256",
							"name": "upgrades",
							"type": "uint256"
						},
						{
							"components": [
								{
									"internalType": "uint256",
									"name": "strength",
									"type": "uint256"
								},
								{
									"internalType": "uint256",
									"name": "dexterity",
									"type": "uint256"
								},
								{
									"internalType": "uint256",
									"name": "constitution",
									"type": "uint256"
								},
								{
									"internalType": "uint256",
									"name": "luck",
									"type": "uint256"
								},
								{
									"internalType": "uint256",
									"name": "armor",
									"type": "uint256"
								},
								{
									"internalType": "uint256",
									"name": "attack",
									"type": "uint256"
								},
								{
									"internalType": "uint256",
									"name": "health",
									"type": "uint256"
								},
								{
									"internalType": "uint256",
									"name": "takenDamage",
									"type": "uint256"
								}
							],
							"internalType": "struct ComputedStats.Stats",
							"name": "stats",
							"type": "tuple"
						},
						{
							"components": [
								{
									"internalType": "uint256",
									"name": "armorSetId",
									"type": "uint256"
								},
								{
									"internalType": "uint256",
									"name": "weaponSetId",
									"type": "uint256"
								},
								{
									"internalType": "uint256",
									"name": "shieldId",
									"type": "uint256"
								}
							],
							"internalType": "struct Equipment",
							"name": "equipment",
							"type": "tuple"
						}
					],
					"internalType": "struct Character",
					"name": "character",
					"type": "tuple"
				},
				{
					"components": [
						{
							"internalType": "uint256",
							"name": "id",
							"type": "uint256"
						},
						{
							"internalType": "bool",
							"name": "present",
							"type": "bool"
						},
						{
							"components": [
								{
									"internalType": "uint256",
									"name": "strength",
									"type": "uint256"
								},
								{
									"internalType": "uint256",
									"name": "dexterity",
									"type": "uint256"
								},
								{
									"internalType": "uint256",
									"name": "constitution",
									"type": "uint256"
								},
								{
									"internalType": "uint256",
									"name": "luck",
									"type": "uint256"
								},
								{
									"internalType": "uint256",
									"name": "armor",
									"type": "uint256"
								},
								{
									"internalType": "uint256",
									"name": "attack",
									"type": "uint256"
								},
								{
									"internalType": "uint256",
									"name": "health",
									"type": "uint256"
								},
								{
									"internalType": "uint256",
									"name": "takenDamage",
									"type": "uint256"
								}
							],
							"internalType": "struct ComputedStats.Stats",
							"name": "stats",
							"type": "tuple"
						}
					],
					"internalType": "struct Enemy[]",
					"name": "enemies",
					"type": "tuple[]"
				}
			],
			"name": "conductFight",
			"outputs": [
				{
					"components": [
						{
							"internalType": "uint256",
							"name": "id",
							"type": "uint256"
						},
						{
							"internalType": "bytes",
							"name": "seed",
							"type": "bytes"
						},
						{
							"components": [
								{
									"internalType": "uint256",
									"name": "strength",
									"type": "uint256"
								},
								{
									"internalType": "uint256",
									"name": "dexterity",
									"type": "uint256"
								},
								{
									"internalType": "uint256",
									"name": "constitution",
									"type": "uint256"
								},
								{
									"internalType": "uint256",
									"name": "luck",
									"type": "uint256"
								},
								{
									"internalType": "uint256",
									"name": "armor",
									"type": "uint256"
								},
								{
									"internalType": "uint256",
									"name": "attack",
									"type": "uint256"
								},
								{
									"internalType": "uint256",
									"name": "health",
									"type": "uint256"
								},
								{
									"internalType": "uint256",
									"name": "takenDamage",
									"type": "uint256"
								}
							],
							"internalType": "struct ComputedStats.Stats",
							"name": "stats",
							"type": "tuple"
						},
						{
							"internalType": "bool",
							"name": "victory",
							"type": "bool"
						},
						{
							"internalType": "uint256",
							"name": "exp",
							"type": "uint256"
						}
					],
					"internalType": "struct Fight",
					"name": "fight",
					"type": "tuple"
				}
			],
			"stateMutability": "nonpayable",
			"type": "function"
		},
		{
			"inputs": [
				{
					"internalType": "address",
					"name": "newAddress",
					"type": "address"
				}
			],
			"name": "setRandomContractAddress",
			"outputs": [],
			"stateMutability": "nonpayable",
			"type": "function"
		}
	]
}