{
	"data": {
		"bytecode": {
			"linkReferences": {
				"contracts/libraries/ComputedStats.sol": {
					"ComputedStats": [
						{
							"length": 20,
							"start": 1616
						},
						{
							"length": 20,
							"start": 2318
						},
						{
							"length": 20,
							"start": 2449
						},
						{
							"length": 20,
							"start": 2739
						},
						{
							"length": 20,
							"start": 3083
						},
						{
							"length": 20,
							"start": 3468
						},
						{
							"length": 20,
							"start": 3610
						},
						{
							"length": 20,
							"start": 3789
						},
						{
							"length": 20,
							"start": 3895
						},
						{
							"length": 20,
							"start": 4093
						},
						{
							"length": 20,
							"start": 4473
						}
					]
				}
			},
			"object": "6080604052600080546001600160a01b031990811690915560018054821690556002805482169055600380549091169055600580546001600160a81b031916600560a11b17905534801561005257600080fd5b50600080546001600160a01b03199081163390811790925560058054821690921790915560038054909116301790556118da806100906000396000f3fe608060405234801561001057600080fd5b50600436106100ff5760003560e01c806383499df611610097578063d3dd4f2911610066578063d3dd4f2914610209578063d7050b051461021c578063d8327b2f1461022f578063e1d388141461024257600080fd5b806383499df6146101b057806385535cc5146101c357806399597b70146101d65780639bf9b929146101e957600080fd5b80633ccfd60b116100d35780633ccfd60b1461016f578063411557d114610177578063603eefa51461018a57806374c0cfcc1461019d57600080fd5b8062a8b18814610104578063187130e6146101195780631b9155791461012c578063320b00d81461013f575b600080fd5b6101176101123660046112e6565b610255565b005b6101176101273660046112e6565b6102aa565b61011761013a3660046112e6565b6102f6565b600254610152906001600160a01b031681565b6040516001600160a01b0390911681526020015b60405180910390f35b610117610342565b600554610152906001600160a01b031681565b600154610152906001600160a01b031681565b600654610152906001600160a01b031681565b6101176101be3660046112e6565b6103a8565b6101176101d13660046112e6565b6103f4565b600054610152906001600160a01b031681565b6101fc6101f736600461151c565b610440565b6040516101669190611633565b600454610152906001600160a01b031681565b61011761022a3660046112e6565b61064f565b61011761023d3660046112e6565b61069b565b600354610152906001600160a01b031681565b6000546001600160a01b031633146102885760405162461bcd60e51b815260040161027f906116ce565b60405180910390fd5b600380546001600160a01b0319166001600160a01b0392909216919091179055565b6000546001600160a01b031633146102d45760405162461bcd60e51b815260040161027f906116ce565b600680546001600160a01b0319166001600160a01b0392909216919091179055565b6000546001600160a01b031633146103205760405162461bcd60e51b815260040161027f906116ce565b600180546001600160a01b0319166001600160a01b0392909216919091179055565b6000546001600160a01b0316331461036c5760405162461bcd60e51b815260040161027f906116ce565b6005546040516001600160a01b03909116904780156108fc02916000818181858888f193505050501580156103a5573d6000803e3d6000fd5b50565b6000546001600160a01b031633146103d25760405162461bcd60e51b815260040161027f906116ce565b600280546001600160a01b0319166001600160a01b0392909216919091179055565b6000546001600160a01b0316331461041e5760405162461bcd60e51b815260040161027f906116ce565b600580546001600160a01b0319166001600160a01b0392909216919091179055565b61044861122c565b6000546001600160a01b031633148061046b57506001546001600160a01b031633145b8061048057506002546001600160a01b031633145b8061049557506003546001600160a01b031633145b6104f25760405162461bcd60e51b815260206004820152602860248201527f4f6e6c792067616d6520636f6e7472616374732063616e2063616c6c207468696044820152671cc81b595d1a1bd960c21b606482015260840161027f565b6105196040518060600160405280600060ff16815260200160608152602001606081525090565b61055f604051806080016040528061052f6106e7565b815260200161053c6106e7565b81526020016105496106e7565b81526020016105566106e7565b9052829061076c565b6040518060a0016040528060008152602001826020015181526020018560c001518152602001600015158152602001600081525091506105a0818585610865565b60808401521515606083015260c084015160405163578cad7960e11b815273__$d18125c9528dfe4cb67fa81d29b24a1cca$__9163af195af2916105e79190600401611705565b60206040518083038186803b1580156105ff57600080fd5b505af4158015610613573d6000803e3d6000fd5b505050506040513d601f19601f820116820180604052508101906106379190611714565b6106475760808201805160021c90525b505b92915050565b6000546001600160a01b031633146106795760405162461bcd60e51b815260040161027f906116ce565b600480546001600160a01b0319166001600160a01b0392909216919091179055565b6000546001600160a01b031633146106c55760405162461bcd60e51b815260040161027f906116ce565b600080546001600160a01b0319166001600160a01b0392909216919091179055565b6004805460408051635ec01e4d60e01b815290516000936001600160a01b03909316928392635ec01e4d928183019260209282900301818887803b15801561072e57600080fd5b505af1158015610742573d6000803e3d6000fd5b505050506040513d601f19601f820116820180604052508101906107669190611731565b91505090565b60008160405160200161077f919061174a565b60405160208183030381529060405290506000815167ffffffffffffffff8111156107ac576107ac611308565b6040519080825280602002602001820160405280156107d5578160200160208202803683370190505b5080519091505b801561084c57826107ee600183611794565b815181106107fe576107fe6117ab565b602001015160f81c60f81b60f81c8282845161081a9190611794565b8151811061082a5761082a6117ab565b60ff90921660209283029190910190910152610845816117c1565b90506107dc565b5060008452602084019190915260409092019190915250565b60c082015160405163e870430760e01b8152600091829173__$d18125c9528dfe4cb67fa81d29b24a1cca$__9163e8704307916108a59190600401611705565b60006040518083038186803b1580156108bd57600080fd5b505af41580156108d1573d6000803e3d6000fd5b5050505060005b8351811015610978578381815181106108f3576108f36117ab565b60200260200101516040015173__$d18125c9528dfe4cb67fa81d29b24a1cca$__63e870430790916040518263ffffffff1660e01b81526004016109379190611705565b60006040518083038186803b15801561094f57600080fd5b505af4158015610963573d6000803e3d6000fd5b5050505080610971906117d8565b90506108d8565b5060005b600554600160a01b900460ff16811015610c2a5760006109a6855188610c3890919063ffffffff16565b905084518160ff16106109fb5760405162461bcd60e51b815260206004820152601760248201527f496e76616c6964207461726765742073656c6563746564000000000000000000604482015260640161027f565b6000858260ff1681518110610a1257610a126117ab565b60200260200101519050806040015173__$d18125c9528dfe4cb67fa81d29b24a1cca$__63af195af290916040518263ffffffff1660e01b8152600401610a599190611705565b60206040518083038186803b158015610a7157600080fd5b505af4158015610a85573d6000803e3d6000fd5b505050506040513d601f19601f82011682018060405250810190610aa99190611714565b610aee5760405162461bcd60e51b81526020600482015260166024820152755461726765742073686f756c6420626520616c69766560501b604482015260640161027f565b610b01888860c001518360400151610ce6565b610b0b90856117f3565b9350610b1686610f3e565b9550855160001415610b2e5760019450505050610c30565b60005b8651811015610c1657610b6689888381518110610b5057610b506117ab565b6020026020010151604001518a60c00151610ce6565b5060c088015160405163578cad7960e11b815273__$d18125c9528dfe4cb67fa81d29b24a1cca$__9163af195af291610ba29190600401611705565b60206040518083038186803b158015610bba57600080fd5b505af4158015610bce573d6000803e3d6000fd5b505050506040513d601f19601f82011682018060405250810190610bf29190611714565b610c06576000809550955050505050610c30565b610c0f816117d8565b9050610b31565b50505080610c23906117d8565b905061097c565b50600091505b935093915050565b6000826040015151836000015160ff1610610c955760405162461bcd60e51b815260206004820181905260248201527f5365656420646f65736e2774206861766520616e79206d6f726520726f6c6c73604482015260640161027f565b818360400151846000015160ff1681518110610cb357610cb36117ab565b6020026020010151610cc5919061180b565b9050600183600001818151610cda919061183b565b60ff1690525092915050565b60405163bb0253c160e01b81526000908190819073__$d18125c9528dfe4cb67fa81d29b24a1cca$__9063bb0253c190610d269087908990600401611860565b60206040518083038186803b158015610d3e57600080fd5b505af4158015610d52573d6000803e3d6000fd5b505050506040513d601f19601f82011682018060405250810190610d769190611731565b610d81876080610c38565b60ff161091508373__$d18125c9528dfe4cb67fa81d29b24a1cca$__63849637429091876040518363ffffffff1660e01b8152600401610dc2929190611860565b60206040518083038186803b158015610dda57600080fd5b505af4158015610dee573d6000803e3d6000fd5b505050506040513d601f19601f82011682018060405250810190610e129190611731565b610e1d876080610c38565b60ff161090508115610e985760a0850151604051630f340f3f60e21b815273__$d18125c9528dfe4cb67fa81d29b24a1cca$__91633cd03cfc91610e67918891869060040161187d565b60006040518083038186803b158015610e7f57600080fd5b505af4158015610e93573d6000803e3d6000fd5b505050505b60405163578cad7960e11b815273__$d18125c9528dfe4cb67fa81d29b24a1cca$__9063af195af290610ecf908790600401611705565b60206040518083038186803b158015610ee757600080fd5b505af4158015610efb573d6000803e3d6000fd5b505050506040513d601f19601f82011682018060405250810190610f1f9190611714565b610f355760c0840151610f3290846117f3565b92505b50509392505050565b60606000805b835181101561101657838181518110610f5f57610f5f6117ab565b60200260200101516040015173__$d18125c9528dfe4cb67fa81d29b24a1cca$__63af195af290916040518263ffffffff1660e01b8152600401610fa39190611705565b60206040518083038186803b158015610fbb57600080fd5b505af4158015610fcf573d6000803e3d6000fd5b505050506040513d601f19601f82011682018060405250810190610ff39190611714565b15611006576110036001836117f3565b91505b61100f816117d8565b9050610f44565b508067ffffffffffffffff81111561103057611030611308565b60405190808252806020026020018201604052801561106957816020015b611056611261565b81526020019060019003908161104e5790505b5091506000805b845181101561122457845181106110c95760405162461bcd60e51b815260206004820152601e60248201527f496e646578206973206f7574206f662073636f70653a20656e656d6965730000604482015260640161027f565b8481815181106110db576110db6117ab565b60200260200101516040015173__$d18125c9528dfe4cb67fa81d29b24a1cca$__63af195af290916040518263ffffffff1660e01b815260040161111f9190611705565b60206040518083038186803b15801561113757600080fd5b505af415801561114b573d6000803e3d6000fd5b505050506040513d601f19601f8201168201806040525081019061116f9190611714565b1561121457835182106111cf5760405162461bcd60e51b815260206004820152602260248201527f496e646578206973206f7574206f662073636f70653a206e657720656e656d69604482015261657360f01b606482015260840161027f565b8481815181106111e1576111e16117ab565b60200260200101518483815181106111fb576111fb6117ab565b60209081029190910101526112116001836117f3565b91505b61121d816117d8565b9050611070565b505050919050565b6040518060a00160405280600081526020016060815260200161124d611285565b815260006020820181905260409091015290565b6040805160608101825260008082526020820152908101611280611285565b905290565b60405180610100016040528060008152602001600081526020016000815260200160008152602001600081526020016000815260200160008152602001600081525090565b80356001600160a01b03811681146112e157600080fd5b919050565b6000602082840312156112f857600080fd5b611301826112ca565b9392505050565b634e487b7160e01b600052604160045260246000fd5b604051610100810167ffffffffffffffff8111828210171561134257611342611308565b60405290565b6040516060810167ffffffffffffffff8111828210171561134257611342611308565b604051601f8201601f1916810167ffffffffffffffff8111828210171561139457611394611308565b604052919050565b80151581146103a557600080fd5b80356112e18161139c565b600061010082840312156113c857600080fd5b6113d061131e565b9050813581526020820135602082015260408201356040820152606082013560608201526080820135608082015260a082013560a082015260c082013560c082015260e082013560e082015292915050565b60006060828403121561143457600080fd5b61143c611348565b905081358152602082013560208201526040820135604082015292915050565b600082601f83011261146d57600080fd5b8135602067ffffffffffffffff82111561148957611489611308565b611497818360051b0161136b565b82815261014092830285018201928282019190878511156114b757600080fd5b8387015b8581101561150f5781818a0312156114d35760008081fd5b6114db611348565b81358152858201356114ec8161139c565b8187015260406114fe8b8483016113b5565b9082015284529284019281016114bb565b5090979650505050505050565b60008082840361024081121561153157600080fd5b6102208082121561154157600080fd5b61154961131e565b9150611554856113aa565b8252611562602086016112ca565b602083015260408501356040830152606085013560608301526080850135608083015260a085013560a083015261159c8660c087016113b5565b60c08301526115af866101c08701611422565b60e083015290925083013567ffffffffffffffff8111156115cf57600080fd5b6115db8582860161145c565b9150509250929050565b805182526020810151602083015260408101516040830152606081015160608301526080810151608083015260a081015160a083015260c081015160c083015260e081015160e08301525050565b60006020808352835181840152808401516101808060408601528151806101a087015260005b81811015611676578381018501518782016101c001528401611659565b818111156116895760006101c083890101525b506040870151935061169e60608701856115e5565b606087015180151561016088015293506080969096015190850152505050601f91909101601f1916016101c00190565b60208082526018908201527f43616e2062652063616c6c6564206f6e6c7920627920474d0000000000000000604082015260600190565b610100810161064982846115e5565b60006020828403121561172657600080fd5b81516113018161139c565b60006020828403121561174357600080fd5b5051919050565b60008183825b600481101561176f578151835260209283019290910190600101611750565b50505060808201905092915050565b634e487b7160e01b600052601160045260246000fd5b6000828210156117a6576117a661177e565b500390565b634e487b7160e01b600052603260045260246000fd5b6000816117d0576117d061177e565b506000190190565b60006000198214156117ec576117ec61177e565b5060010190565b600082198211156118065761180661177e565b500190565b600060ff83168061182c57634e487b7160e01b600052601260045260246000fd5b8060ff84160691505092915050565b600060ff821660ff84168060ff038211156118585761185861177e565b019392505050565b610200810161186f82856115e5565b6113016101008301846115e5565b610140810161188c82866115e5565b8361010083015282151561012083015294935050505056fea2646970667358221220a06722e40ab6bb3df7463cf478c013179c165418d49daf00130ce6374088b98264736f6c63430008090033",
			"opcodes": "PUSH1 0x80 PUSH1 0x40 MSTORE PUSH1 0x0 DUP1 SLOAD PUSH1 0x1 PUSH1 0x1 PUSH1 0xA0 SHL SUB NOT SWAP1 DUP2 AND SWAP1 SWAP2 SSTORE PUSH1 0x1 DUP1 SLOAD DUP3 AND SWAP1 SSTORE PUSH1 0x2 DUP1 SLOAD DUP3 AND SWAP1 SSTORE PUSH1 0x3 DUP1 SLOAD SWAP1 SWAP2 AND SWAP1 SSTORE PUSH1 0x5 DUP1 SLOAD PUSH1 0x1 PUSH1 0x1 PUSH1 0xA8 SHL SUB NOT AND PUSH1 0x5 PUSH1 0xA1 SHL OR SWAP1 SSTORE CALLVALUE DUP1 ISZERO PUSH2 0x52 JUMPI PUSH1 0x0 DUP1 REVERT JUMPDEST POP PUSH1 0x0 DUP1 SLOAD PUSH1 0x1 PUSH1 0x1 PUSH1 0xA0 SHL SUB NOT SWAP1 DUP2 AND CALLER SWAP1 DUP2 OR SWAP1 SWAP3 SSTORE PUSH1 0x5 DUP1 SLOAD DUP3 AND SWAP1 SWAP3 OR SWAP1 SWAP2 SSTORE PUSH1 0x3 DUP1 SLOAD SWAP1 SWAP2 AND ADDRESS OR SWAP1 SSTORE PUSH2 0x18DA DUP1 PUSH2 0x90 PUSH1 0x0 CODECOPY PUSH1 0x0 RETURN INVALID PUSH1 0x80 PUSH1 0x40 MSTORE CALLVALUE DUP1 ISZERO PUSH2 0x10 JUMPI PUSH1 0x0 DUP1 REVERT JUMPDEST POP PUSH1 0x4 CALLDATASIZE LT PUSH2 0xFF JUMPI PUSH1 0x0 CALLDATALOAD PUSH1 0xE0 SHR DUP1 PUSH4 0x83499DF6 GT PUSH2 0x97 JUMPI DUP1 PUSH4 0xD3DD4F29 GT PUSH2 0x66 JUMPI DUP1 PUSH4 0xD3DD4F29 EQ PUSH2 0x209 JUMPI DUP1 PUSH4 0xD7050B05 EQ PUSH2 0x21C JUMPI DUP1 PUSH4 0xD8327B2F EQ PUSH2 0x22F JUMPI DUP1 PUSH4 0xE1D38814 EQ PUSH2 0x242 JUMPI PUSH1 0x0 DUP1 REVERT JUMPDEST DUP1 PUSH4 0x83499DF6 EQ PUSH2 0x1B0 JUMPI DUP1 PUSH4 0x85535CC5 EQ PUSH2 0x1C3 JUMPI DUP1 PUSH4 0x99597B70 EQ PUSH2 0x1D6 JUMPI DUP1 PUSH4 0x9BF9B929 EQ PUSH2 0x1E9 JUMPI PUSH1 0x0 DUP1 REVERT JUMPDEST DUP1 PUSH4 0x3CCFD60B GT PUSH2 0xD3 JUMPI DUP1 PUSH4 0x3CCFD60B EQ PUSH2 0x16F JUMPI DUP1 PUSH4 0x411557D1 EQ PUSH2 0x177 JUMPI DUP1 PUSH4 0x603EEFA5 EQ PUSH2 0x18A JUMPI DUP1 PUSH4 0x74C0CFCC EQ PUSH2 0x19D JUMPI PUSH1 0x0 DUP1 REVERT JUMPDEST DUP1 PUSH3 0xA8B188 EQ PUSH2 0x104 JUMPI DUP1 PUSH4 0x187130E6 EQ PUSH2 0x119 JUMPI DUP1 PUSH4 0x1B915579 EQ PUSH2 0x12C JUMPI DUP1 PUSH4 0x320B00D8 EQ PUSH2 0x13F JUMPI JUMPDEST PUSH1 0x0 DUP1 REVERT JUMPDEST PUSH2 0x117 PUSH2 0x112 CALLDATASIZE PUSH1 0x4 PUSH2 0x12E6 JUMP JUMPDEST PUSH2 0x255 JUMP JUMPDEST STOP JUMPDEST PUSH2 0x117 PUSH2 0x127 CALLDATASIZE PUSH1 0x4 PUSH2 0x12E6 JUMP JUMPDEST PUSH2 0x2AA JUMP JUMPDEST PUSH2 0x117 PUSH2 0x13A CALLDATASIZE PUSH1 0x4 PUSH2 0x12E6 JUMP JUMPDEST PUSH2 0x2F6 JUMP JUMPDEST PUSH1 0x2 SLOAD PUSH2 0x152 SWAP1 PUSH1 0x1 PUSH1 0x1 PUSH1 0xA0 SHL SUB AND DUP2 JUMP JUMPDEST PUSH1 0x40 MLOAD PUSH1 0x1 PUSH1 0x1 PUSH1 0xA0 SHL SUB SWAP1 SWAP2 AND DUP2 MSTORE PUSH1 0x20 ADD JUMPDEST PUSH1 0x40 MLOAD DUP1 SWAP2 SUB SWAP1 RETURN JUMPDEST PUSH2 0x117 PUSH2 0x342 JUMP JUMPDEST PUSH1 0x5 SLOAD PUSH2 0x152 SWAP1 PUSH1 0x1 PUSH1 0x1 PUSH1 0xA0 SHL SUB AND DUP2 JUMP JUMPDEST PUSH1 0x1 SLOAD PUSH2 0x152 SWAP1 PUSH1 0x1 PUSH1 0x1 PUSH1 0xA0 SHL SUB AND DUP2 JUMP JUMPDEST PUSH1 0x6 SLOAD PUSH2 0x152 SWAP1 PUSH1 0x1 PUSH1 0x1 PUSH1 0xA0 SHL SUB AND DUP2 JUMP JUMPDEST PUSH2 0x117 PUSH2 0x1BE CALLDATASIZE PUSH1 0x4 PUSH2 0x12E6 JUMP JUMPDEST PUSH2 0x3A8 JUMP JUMPDEST PUSH2 0x117 PUSH2 0x1D1 CALLDATASIZE PUSH1 0x4 PUSH2 0x12E6 JUMP JUMPDEST PUSH2 0x3F4 JUMP JUMPDEST PUSH1 0x0 SLOAD PUSH2 0x152 SWAP1 PUSH1 0x1 PUSH1 0x1 PUSH1 0xA0 SHL SUB AND DUP2 JUMP JUMPDEST PUSH2 0x1FC PUSH2 0x1F7 CALLDATASIZE PUSH1 0x4 PUSH2 0x151C JUMP JUMPDEST PUSH2 0x440 JUMP JUMPDEST PUSH1 0x40 MLOAD PUSH2 0x166 SWAP2 SWAP1 PUSH2 0x1633 JUMP JUMPDEST PUSH1 0x4 SLOAD PUSH2 0x152 SWAP1 PUSH1 0x1 PUSH1 0x1 PUSH1 0xA0 SHL SUB AND DUP2 JUMP JUMPDEST PUSH2 0x117 PUSH2 0x22A CALLDATASIZE PUSH1 0x4 PUSH2 0x12E6 JUMP JUMPDEST PUSH2 0x64F JUMP JUMPDEST PUSH2 0x117 PUSH2 0x23D CALLDATASIZE PUSH1 0x4 PUSH2 0x12E6 JUMP JUMPDEST PUSH2 0x69B JUMP JUMPDEST PUSH1 0x3 SLOAD PUSH2 0x152 SWAP1 PUSH1 0x1 PUSH1 0x1 PUSH1 0xA0 SHL SUB AND DUP2 JUMP JUMPDEST PUSH1 0x0 SLOAD PUSH1 0x1 PUSH1 0x1 PUSH1 0xA0 SHL SUB AND CALLER EQ PUSH2 0x288 JUMPI PUSH1 0x40 MLOAD PUSH3 0x461BCD PUSH1 0xE5 SHL DUP2 MSTORE PUSH1 0x4 ADD PUSH2 0x27F SWAP1 PUSH2 0x16CE JUMP JUMPDEST PUSH1 0x40 MLOAD DUP1 SWAP2 SUB SWAP1 REVERT JUMPDEST PUSH1 0x3 DUP1 SLOAD PUSH1 0x1 PUSH1 0x1 PUSH1 0xA0 SHL SUB NOT AND PUSH1 0x1 PUSH1 0x1 PUSH1 0xA0 SHL SUB SWAP3 SWAP1 SWAP3 AND SWAP2 SWAP1 SWAP2 OR SWAP1 SSTORE JUMP JUMPDEST PUSH1 0x0 SLOAD PUSH1 0x1 PUSH1 0x1 PUSH1 0xA0 SHL SUB AND CALLER EQ PUSH2 0x2D4 JUMPI PUSH1 0x40 MLOAD PUSH3 0x461BCD PUSH1 0xE5 SHL DUP2 MSTORE PUSH1 0x4 ADD PUSH2 0x27F SWAP1 PUSH2 0x16CE JUMP JUMPDEST PUSH1 0x6 DUP1 SLOAD PUSH1 0x1 PUSH1 0x1 PUSH1 0xA0 SHL SUB NOT AND PUSH1 0x1 PUSH1 0x1 PUSH1 0xA0 SHL SUB SWAP3 SWAP1 SWAP3 AND SWAP2 SWAP1 SWAP2 OR SWAP1 SSTORE JUMP JUMPDEST PUSH1 0x0 SLOAD PUSH1 0x1 PUSH1 0x1 PUSH1 0xA0 SHL SUB AND CALLER EQ PUSH2 0x320 JUMPI PUSH1 0x40 MLOAD PUSH3 0x461BCD PUSH1 0xE5 SHL DUP2 MSTORE PUSH1 0x4 ADD PUSH2 0x27F SWAP1 PUSH2 0x16CE JUMP JUMPDEST PUSH1 0x1 DUP1 SLOAD PUSH1 0x1 PUSH1 0x1 PUSH1 0xA0 SHL SUB NOT AND PUSH1 0x1 PUSH1 0x1 PUSH1 0xA0 SHL SUB SWAP3 SWAP1 SWAP3 AND SWAP2 SWAP1 SWAP2 OR SWAP1 SSTORE JUMP JUMPDEST PUSH1 0x0 SLOAD PUSH1 0x1 PUSH1 0x1 PUSH1 0xA0 SHL SUB AND CALLER EQ PUSH2 0x36C JUMPI PUSH1 0x40 MLOAD PUSH3 0x461BCD PUSH1 0xE5 SHL DUP2 MSTORE PUSH1 0x4 ADD PUSH2 0x27F SWAP1 PUSH2 0x16CE JUMP JUMPDEST PUSH1 0x5 SLOAD PUSH1 0x40 MLOAD PUSH1 0x1 PUSH1 0x1 PUSH1 0xA0 SHL SUB SWAP1 SWAP2 AND SWAP1 SELFBALANCE DUP1 ISZERO PUSH2 0x8FC MUL SWAP2 PUSH1 0x0 DUP2 DUP2 DUP2 DUP6 DUP9 DUP9 CALL SWAP4 POP POP POP POP ISZERO DUP1 ISZERO PUSH2 0x3A5 JUMPI RETURNDATASIZE PUSH1 0x0 DUP1 RETURNDATACOPY RETURNDATASIZE PUSH1 0x0 REVERT JUMPDEST POP JUMP JUMPDEST PUSH1 0x0 SLOAD PUSH1 0x1 PUSH1 0x1 PUSH1 0xA0 SHL SUB AND CALLER EQ PUSH2 0x3D2 JUMPI PUSH1 0x40 MLOAD PUSH3 0x461BCD PUSH1 0xE5 SHL DUP2 MSTORE PUSH1 0x4 ADD PUSH2 0x27F SWAP1 PUSH2 0x16CE JUMP JUMPDEST PUSH1 0x2 DUP1 SLOAD PUSH1 0x1 PUSH1 0x1 PUSH1 0xA0 SHL SUB NOT AND PUSH1 0x1 PUSH1 0x1 PUSH1 0xA0 SHL SUB SWAP3 SWAP1 SWAP3 AND SWAP2 SWAP1 SWAP2 OR SWAP1 SSTORE JUMP JUMPDEST PUSH1 0x0 SLOAD PUSH1 0x1 PUSH1 0x1 PUSH1 0xA0 SHL SUB AND CALLER EQ PUSH2 0x41E JUMPI PUSH1 0x40 MLOAD PUSH3 0x461BCD PUSH1 0xE5 SHL DUP2 MSTORE PUSH1 0x4 ADD PUSH2 0x27F SWAP1 PUSH2 0x16CE JUMP JUMPDEST PUSH1 0x5 DUP1 SLOAD PUSH1 0x1 PUSH1 0x1 PUSH1 0xA0 SHL SUB NOT AND PUSH1 0x1 PUSH1 0x1 PUSH1 0xA0 SHL SUB SWAP3 SWAP1 SWAP3 AND SWAP2 SWAP1 SWAP2 OR SWAP1 SSTORE JUMP JUMPDEST PUSH2 0x448 PUSH2 0x122C JUMP JUMPDEST PUSH1 0x0 SLOAD PUSH1 0x1 PUSH1 0x1 PUSH1 0xA0 SHL SUB AND CALLER EQ DUP1 PUSH2 0x46B JUMPI POP PUSH1 0x1 SLOAD PUSH1 0x1 PUSH1 0x1 PUSH1 0xA0 SHL SUB AND CALLER EQ JUMPDEST DUP1 PUSH2 0x480 JUMPI POP PUSH1 0x2 SLOAD PUSH1 0x1 PUSH1 0x1 PUSH1 0xA0 SHL SUB AND CALLER EQ JUMPDEST DUP1 PUSH2 0x495 JUMPI POP PUSH1 0x3 SLOAD PUSH1 0x1 PUSH1 0x1 PUSH1 0xA0 SHL SUB AND CALLER EQ JUMPDEST PUSH2 0x4F2 JUMPI PUSH1 0x40 MLOAD PUSH3 0x461BCD PUSH1 0xE5 SHL DUP2 MSTORE PUSH1 0x20 PUSH1 0x4 DUP3 ADD MSTORE PUSH1 0x28 PUSH1 0x24 DUP3 ADD MSTORE PUSH32 0x4F6E6C792067616D6520636F6E7472616374732063616E2063616C6C20746869 PUSH1 0x44 DUP3 ADD MSTORE PUSH8 0x1CC81B595D1A1BD9 PUSH1 0xC2 SHL PUSH1 0x64 DUP3 ADD MSTORE PUSH1 0x84 ADD PUSH2 0x27F JUMP JUMPDEST PUSH2 0x519 PUSH1 0x40 MLOAD DUP1 PUSH1 0x60 ADD PUSH1 0x40 MSTORE DUP1 PUSH1 0x0 PUSH1 0xFF AND DUP2 MSTORE PUSH1 0x20 ADD PUSH1 0x60 DUP2 MSTORE PUSH1 0x20 ADD PUSH1 0x60 DUP2 MSTORE POP SWAP1 JUMP JUMPDEST PUSH2 0x55F PUSH1 0x40 MLOAD DUP1 PUSH1 0x80 ADD PUSH1 0x40 MSTORE DUP1 PUSH2 0x52F PUSH2 0x6E7 JUMP JUMPDEST DUP2 MSTORE PUSH1 0x20 ADD PUSH2 0x53C PUSH2 0x6E7 JUMP JUMPDEST DUP2 MSTORE PUSH1 0x20 ADD PUSH2 0x549 PUSH2 0x6E7 JUMP JUMPDEST DUP2 MSTORE PUSH1 0x20 ADD PUSH2 0x556 PUSH2 0x6E7 JUMP JUMPDEST SWAP1 MSTORE DUP3 SWAP1 PUSH2 0x76C JUMP JUMPDEST PUSH1 0x40 MLOAD DUP1 PUSH1 0xA0 ADD PUSH1 0x40 MSTORE DUP1 PUSH1 0x0 DUP2 MSTORE PUSH1 0x20 ADD DUP3 PUSH1 0x20 ADD MLOAD DUP2 MSTORE PUSH1 0x20 ADD DUP6 PUSH1 0xC0 ADD MLOAD DUP2 MSTORE PUSH1 0x20 ADD PUSH1 0x0 ISZERO ISZERO DUP2 MSTORE PUSH1 0x20 ADD PUSH1 0x0 DUP2 MSTORE POP SWAP2 POP PUSH2 0x5A0 DUP2 DUP6 DUP6 PUSH2 0x865 JUMP JUMPDEST PUSH1 0x80 DUP5 ADD MSTORE ISZERO ISZERO PUSH1 0x60 DUP4 ADD MSTORE PUSH1 0xC0 DUP5 ADD MLOAD PUSH1 0x40 MLOAD PUSH4 0x578CAD79 PUSH1 0xE1 SHL DUP2 MSTORE PUSH20 0x0 SWAP2 PUSH4 0xAF195AF2 SWAP2 PUSH2 0x5E7 SWAP2 SWAP1 PUSH1 0x4 ADD PUSH2 0x1705 JUMP JUMPDEST PUSH1 0x20 PUSH1 0x40 MLOAD DUP1 DUP4 SUB DUP2 DUP7 DUP1 EXTCODESIZE ISZERO DUP1 ISZERO PUSH2 0x5FF JUMPI PUSH1 0x0 DUP1 REVERT JUMPDEST POP GAS DELEGATECALL ISZERO DUP1 ISZERO PUSH2 0x613 JUMPI RETURNDATASIZE PUSH1 0x0 DUP1 RETURNDATACOPY RETURNDATASIZE PUSH1 0x0 REVERT JUMPDEST POP POP POP POP PUSH1 0x40 MLOAD RETURNDATASIZE PUSH1 0x1F NOT PUSH1 0x1F DUP3 ADD AND DUP3 ADD DUP1 PUSH1 0x40 MSTORE POP DUP2 ADD SWAP1 PUSH2 0x637 SWAP2 SWAP1 PUSH2 0x1714 JUMP JUMPDEST PUSH2 0x647 JUMPI PUSH1 0x80 DUP3 ADD DUP1 MLOAD PUSH1 0x2 SHR SWAP1 MSTORE JUMPDEST POP JUMPDEST SWAP3 SWAP2 POP POP JUMP JUMPDEST PUSH1 0x0 SLOAD PUSH1 0x1 PUSH1 0x1 PUSH1 0xA0 SHL SUB AND CALLER EQ PUSH2 0x679 JUMPI PUSH1 0x40 MLOAD PUSH3 0x461BCD PUSH1 0xE5 SHL DUP2 MSTORE PUSH1 0x4 ADD PUSH2 0x27F SWAP1 PUSH2 0x16CE JUMP JUMPDEST PUSH1 0x4 DUP1 SLOAD PUSH1 0x1 PUSH1 0x1 PUSH1 0xA0 SHL SUB NOT AND PUSH1 0x1 PUSH1 0x1 PUSH1 0xA0 SHL SUB SWAP3 SWAP1 SWAP3 AND SWAP2 SWAP1 SWAP2 OR SWAP1 SSTORE JUMP JUMPDEST PUSH1 0x0 SLOAD PUSH1 0x1 PUSH1 0x1 PUSH1 0xA0 SHL SUB AND CALLER EQ PUSH2 0x6C5 JUMPI PUSH1 0x40 MLOAD PUSH3 0x461BCD PUSH1 0xE5 SHL DUP2 MSTORE PUSH1 0x4 ADD PUSH2 0x27F SWAP1 PUSH2 0x16CE JUMP JUMPDEST PUSH1 0x0 DUP1 SLOAD PUSH1 0x1 PUSH1 0x1 PUSH1 0xA0 SHL SUB NOT AND PUSH1 0x1 PUSH1 0x1 PUSH1 0xA0 SHL SUB SWAP3 SWAP1 SWAP3 AND SWAP2 SWAP1 SWAP2 OR SWAP1 SSTORE JUMP JUMPDEST PUSH1 0x4 DUP1 SLOAD PUSH1 0x40 DUP1 MLOAD PUSH4 0x5EC01E4D PUSH1 0xE0 SHL DUP2 MSTORE SWAP1 MLOAD PUSH1 0x0 SWAP4 PUSH1 0x1 PUSH1 0x1 PUSH1 0xA0 SHL SUB SWAP1 SWAP4 AND SWAP3 DUP4 SWAP3 PUSH4 0x5EC01E4D SWAP3 DUP2 DUP4 ADD SWAP3 PUSH1 0x20 SWAP3 DUP3 SWAP1 SUB ADD DUP2 DUP9 DUP8 DUP1 EXTCODESIZE ISZERO DUP1 ISZERO PUSH2 0x72E JUMPI PUSH1 0x0 DUP1 REVERT JUMPDEST POP GAS CALL ISZERO DUP1 ISZERO PUSH2 0x742 JUMPI RETURNDATASIZE PUSH1 0x0 DUP1 RETURNDATACOPY RETURNDATASIZE PUSH1 0x0 REVERT JUMPDEST POP POP POP POP PUSH1 0x40 MLOAD RETURNDATASIZE PUSH1 0x1F NOT PUSH1 0x1F DUP3 ADD AND DUP3 ADD DUP1 PUSH1 0x40 MSTORE POP DUP2 ADD SWAP1 PUSH2 0x766 SWAP2 SWAP1 PUSH2 0x1731 JUMP JUMPDEST SWAP2 POP POP SWAP1 JUMP JUMPDEST PUSH1 0x0 DUP2 PUSH1 0x40 MLOAD PUSH1 0x20 ADD PUSH2 0x77F SWAP2 SWAP1 PUSH2 0x174A JUMP JUMPDEST PUSH1 0x40 MLOAD PUSH1 0x20 DUP2 DUP4 SUB SUB DUP2 MSTORE SWAP1 PUSH1 0x40 MSTORE SWAP1 POP PUSH1 0x0 DUP2 MLOAD PUSH8 0xFFFFFFFFFFFFFFFF DUP2 GT ISZERO PUSH2 0x7AC JUMPI PUSH2 0x7AC PUSH2 0x1308 JUMP JUMPDEST PUSH1 0x40 MLOAD SWAP1 DUP1 DUP3 MSTORE DUP1 PUSH1 0x20 MUL PUSH1 0x20 ADD DUP3 ADD PUSH1 0x40 MSTORE DUP1 ISZERO PUSH2 0x7D5 JUMPI DUP2 PUSH1 0x20 ADD PUSH1 0x20 DUP3 MUL DUP1 CALLDATASIZE DUP4 CALLDATACOPY ADD SWAP1 POP JUMPDEST POP DUP1 MLOAD SWAP1 SWAP2 POP JUMPDEST DUP1 ISZERO PUSH2 0x84C JUMPI DUP3 PUSH2 0x7EE PUSH1 0x1 DUP4 PUSH2 0x1794 JUMP JUMPDEST DUP2 MLOAD DUP2 LT PUSH2 0x7FE JUMPI PUSH2 0x7FE PUSH2 0x17AB JUMP JUMPDEST PUSH1 0x20 ADD ADD MLOAD PUSH1 0xF8 SHR PUSH1 0xF8 SHL PUSH1 0xF8 SHR DUP3 DUP3 DUP5 MLOAD PUSH2 0x81A SWAP2 SWAP1 PUSH2 0x1794 JUMP JUMPDEST DUP2 MLOAD DUP2 LT PUSH2 0x82A JUMPI PUSH2 0x82A PUSH2 0x17AB JUMP JUMPDEST PUSH1 0xFF SWAP1 SWAP3 AND PUSH1 0x20 SWAP3 DUP4 MUL SWAP2 SWAP1 SWAP2 ADD SWAP1 SWAP2 ADD MSTORE PUSH2 0x845 DUP2 PUSH2 0x17C1 JUMP JUMPDEST SWAP1 POP PUSH2 0x7DC JUMP JUMPDEST POP PUSH1 0x0 DUP5 MSTORE PUSH1 0x20 DUP5 ADD SWAP2 SWAP1 SWAP2 MSTORE PUSH1 0x40 SWAP1 SWAP3 ADD SWAP2 SWAP1 SWAP2 MSTORE POP JUMP JUMPDEST PUSH1 0xC0 DUP3 ADD MLOAD PUSH1 0x40 MLOAD PUSH4 0xE8704307 PUSH1 0xE0 SHL DUP2 MSTORE PUSH1 0x0 SWAP2 DUP3 SWAP2 PUSH20 0x0 SWAP2 PUSH4 0xE8704307 SWAP2 PUSH2 0x8A5 SWAP2 SWAP1 PUSH1 0x4 ADD PUSH2 0x1705 JUMP JUMPDEST PUSH1 0x0 PUSH1 0x40 MLOAD DUP1 DUP4 SUB DUP2 DUP7 DUP1 EXTCODESIZE ISZERO DUP1 ISZERO PUSH2 0x8BD JUMPI PUSH1 0x0 DUP1 REVERT JUMPDEST POP GAS DELEGATECALL ISZERO DUP1 ISZERO PUSH2 0x8D1 JUMPI RETURNDATASIZE PUSH1 0x0 DUP1 RETURNDATACOPY RETURNDATASIZE PUSH1 0x0 REVERT JUMPDEST POP POP POP POP PUSH1 0x0 JUMPDEST DUP4 MLOAD DUP2 LT ISZERO PUSH2 0x978 JUMPI DUP4 DUP2 DUP2 MLOAD DUP2 LT PUSH2 0x8F3 JUMPI PUSH2 0x8F3 PUSH2 0x17AB JUMP JUMPDEST PUSH1 0x20 MUL PUSH1 0x20 ADD ADD MLOAD PUSH1 0x40 ADD MLOAD PUSH20 0x0 PUSH4 0xE8704307 SWAP1 SWAP2 PUSH1 0x40 MLOAD DUP3 PUSH4 0xFFFFFFFF AND PUSH1 0xE0 SHL DUP2 MSTORE PUSH1 0x4 ADD PUSH2 0x937 SWAP2 SWAP1 PUSH2 0x1705 JUMP JUMPDEST PUSH1 0x0 PUSH1 0x40 MLOAD DUP1 DUP4 SUB DUP2 DUP7 DUP1 EXTCODESIZE ISZERO DUP1 ISZERO PUSH2 0x94F JUMPI PUSH1 0x0 DUP1 REVERT JUMPDEST POP GAS DELEGATECALL ISZERO DUP1 ISZERO PUSH2 0x963 JUMPI RETURNDATASIZE PUSH1 0x0 DUP1 RETURNDATACOPY RETURNDATASIZE PUSH1 0x0 REVERT JUMPDEST POP POP POP POP DUP1 PUSH2 0x971 SWAP1 PUSH2 0x17D8 JUMP JUMPDEST SWAP1 POP PUSH2 0x8D8 JUMP JUMPDEST POP PUSH1 0x0 JUMPDEST PUSH1 0x5 SLOAD PUSH1 0x1 PUSH1 0xA0 SHL SWAP1 DIV PUSH1 0xFF AND DUP2 LT ISZERO PUSH2 0xC2A JUMPI PUSH1 0x0 PUSH2 0x9A6 DUP6 MLOAD DUP9 PUSH2 0xC38 SWAP1 SWAP2 SWAP1 PUSH4 0xFFFFFFFF AND JUMP JUMPDEST SWAP1 POP DUP5 MLOAD DUP2 PUSH1 0xFF AND LT PUSH2 0x9FB JUMPI PUSH1 0x40 MLOAD PUSH3 0x461BCD PUSH1 0xE5 SHL DUP2 MSTORE PUSH1 0x20 PUSH1 0x4 DUP3 ADD MSTORE PUSH1 0x17 PUSH1 0x24 DUP3 ADD MSTORE PUSH32 0x496E76616C6964207461726765742073656C6563746564000000000000000000 PUSH1 0x44 DUP3 ADD MSTORE PUSH1 0x64 ADD PUSH2 0x27F JUMP JUMPDEST PUSH1 0x0 DUP6 DUP3 PUSH1 0xFF AND DUP2 MLOAD DUP2 LT PUSH2 0xA12 JUMPI PUSH2 0xA12 PUSH2 0x17AB JUMP JUMPDEST PUSH1 0x20 MUL PUSH1 0x20 ADD ADD MLOAD SWAP1 POP DUP1 PUSH1 0x40 ADD MLOAD PUSH20 0x0 PUSH4 0xAF195AF2 SWAP1 SWAP2 PUSH1 0x40 MLOAD DUP3 PUSH4 0xFFFFFFFF AND PUSH1 0xE0 SHL DUP2 MSTORE PUSH1 0x4 ADD PUSH2 0xA59 SWAP2 SWAP1 PUSH2 0x1705 JUMP JUMPDEST PUSH1 0x20 PUSH1 0x40 MLOAD DUP1 DUP4 SUB DUP2 DUP7 DUP1 EXTCODESIZE ISZERO DUP1 ISZERO PUSH2 0xA71 JUMPI PUSH1 0x0 DUP1 REVERT JUMPDEST POP GAS DELEGATECALL ISZERO DUP1 ISZERO PUSH2 0xA85 JUMPI RETURNDATASIZE PUSH1 0x0 DUP1 RETURNDATACOPY RETURNDATASIZE PUSH1 0x0 REVERT JUMPDEST POP POP POP POP PUSH1 0x40 MLOAD RETURNDATASIZE PUSH1 0x1F NOT PUSH1 0x1F DUP3 ADD AND DUP3 ADD DUP1 PUSH1 0x40 MSTORE POP DUP2 ADD SWAP1 PUSH2 0xAA9 SWAP2 SWAP1 PUSH2 0x1714 JUMP JUMPDEST PUSH2 0xAEE JUMPI PUSH1 0x40 MLOAD PUSH3 0x461BCD PUSH1 0xE5 SHL DUP2 MSTORE PUSH1 0x20 PUSH1 0x4 DUP3 ADD MSTORE PUSH1 0x16 PUSH1 0x24 DUP3 ADD MSTORE PUSH22 0x5461726765742073686F756C6420626520616C697665 PUSH1 0x50 SHL PUSH1 0x44 DUP3 ADD MSTORE PUSH1 0x64 ADD PUSH2 0x27F JUMP JUMPDEST PUSH2 0xB01 DUP9 DUP9 PUSH1 0xC0 ADD MLOAD DUP4 PUSH1 0x40 ADD MLOAD PUSH2 0xCE6 JUMP JUMPDEST PUSH2 0xB0B SWAP1 DUP6 PUSH2 0x17F3 JUMP JUMPDEST SWAP4 POP PUSH2 0xB16 DUP7 PUSH2 0xF3E JUMP JUMPDEST SWAP6 POP DUP6 MLOAD PUSH1 0x0 EQ ISZERO PUSH2 0xB2E JUMPI PUSH1 0x1 SWAP5 POP POP POP POP PUSH2 0xC30 JUMP JUMPDEST PUSH1 0x0 JUMPDEST DUP7 MLOAD DUP2 LT ISZERO PUSH2 0xC16 JUMPI PUSH2 0xB66 DUP10 DUP9 DUP4 DUP2 MLOAD DUP2 LT PUSH2 0xB50 JUMPI PUSH2 0xB50 PUSH2 0x17AB JUMP JUMPDEST PUSH1 0x20 MUL PUSH1 0x20 ADD ADD MLOAD PUSH1 0x40 ADD MLOAD DUP11 PUSH1 0xC0 ADD MLOAD PUSH2 0xCE6 JUMP JUMPDEST POP PUSH1 0xC0 DUP9 ADD MLOAD PUSH1 0x40 MLOAD PUSH4 0x578CAD79 PUSH1 0xE1 SHL DUP2 MSTORE PUSH20 0x0 SWAP2 PUSH4 0xAF195AF2 SWAP2 PUSH2 0xBA2 SWAP2 SWAP1 PUSH1 0x4 ADD PUSH2 0x1705 JUMP JUMPDEST PUSH1 0x20 PUSH1 0x40 MLOAD DUP1 DUP4 SUB DUP2 DUP7 DUP1 EXTCODESIZE ISZERO DUP1 ISZERO PUSH2 0xBBA JUMPI PUSH1 0x0 DUP1 REVERT JUMPDEST POP GAS DELEGATECALL ISZERO DUP1 ISZERO PUSH2 0xBCE JUMPI RETURNDATASIZE PUSH1 0x0 DUP1 RETURNDATACOPY RETURNDATASIZE PUSH1 0x0 REVERT JUMPDEST POP POP POP POP PUSH1 0x40 MLOAD RETURNDATASIZE PUSH1 0x1F NOT PUSH1 0x1F DUP3 ADD AND DUP3 ADD DUP1 PUSH1 0x40 MSTORE POP DUP2 ADD SWAP1 PUSH2 0xBF2 SWAP2 SWAP1 PUSH2 0x1714 JUMP JUMPDEST PUSH2 0xC06 JUMPI PUSH1 0x0 DUP1 SWAP6 POP SWAP6 POP POP POP POP POP PUSH2 0xC30 JUMP JUMPDEST PUSH2 0xC0F DUP2 PUSH2 0x17D8 JUMP JUMPDEST SWAP1 POP PUSH2 0xB31 JUMP JUMPDEST POP POP POP DUP1 PUSH2 0xC23 SWAP1 PUSH2 0x17D8 JUMP JUMPDEST SWAP1 POP PUSH2 0x97C JUMP JUMPDEST POP PUSH1 0x0 SWAP2 POP JUMPDEST SWAP4 POP SWAP4 SWAP2 POP POP JUMP JUMPDEST PUSH1 0x0 DUP3 PUSH1 0x40 ADD MLOAD MLOAD DUP4 PUSH1 0x0 ADD MLOAD PUSH1 0xFF AND LT PUSH2 0xC95 JUMPI PUSH1 0x40 MLOAD PUSH3 0x461BCD PUSH1 0xE5 SHL DUP2 MSTORE PUSH1 0x20 PUSH1 0x4 DUP3 ADD DUP2 SWAP1 MSTORE PUSH1 0x24 DUP3 ADD MSTORE PUSH32 0x5365656420646F65736E2774206861766520616E79206D6F726520726F6C6C73 PUSH1 0x44 DUP3 ADD MSTORE PUSH1 0x64 ADD PUSH2 0x27F JUMP JUMPDEST DUP2 DUP4 PUSH1 0x40 ADD MLOAD DUP5 PUSH1 0x0 ADD MLOAD PUSH1 0xFF AND DUP2 MLOAD DUP2 LT PUSH2 0xCB3 JUMPI PUSH2 0xCB3 PUSH2 0x17AB JUMP JUMPDEST PUSH1 0x20 MUL PUSH1 0x20 ADD ADD MLOAD PUSH2 0xCC5 SWAP2 SWAP1 PUSH2 0x180B JUMP JUMPDEST SWAP1 POP PUSH1 0x1 DUP4 PUSH1 0x0 ADD DUP2 DUP2 MLOAD PUSH2 0xCDA SWAP2 SWAP1 PUSH2 0x183B JUMP JUMPDEST PUSH1 0xFF AND SWAP1 MSTORE POP SWAP3 SWAP2 POP POP JUMP JUMPDEST PUSH1 0x40 MLOAD PUSH4 0xBB0253C1 PUSH1 0xE0 SHL DUP2 MSTORE PUSH1 0x0 SWAP1 DUP2 SWAP1 DUP2 SWAP1 PUSH20 0x0 SWAP1 PUSH4 0xBB0253C1 SWAP1 PUSH2 0xD26 SWAP1 DUP8 SWAP1 DUP10 SWAP1 PUSH1 0x4 ADD PUSH2 0x1860 JUMP JUMPDEST PUSH1 0x20 PUSH1 0x40 MLOAD DUP1 DUP4 SUB DUP2 DUP7 DUP1 EXTCODESIZE ISZERO DUP1 ISZERO PUSH2 0xD3E JUMPI PUSH1 0x0 DUP1 REVERT JUMPDEST POP GAS DELEGATECALL ISZERO DUP1 ISZERO PUSH2 0xD52 JUMPI RETURNDATASIZE PUSH1 0x0 DUP1 RETURNDATACOPY RETURNDATASIZE PUSH1 0x0 REVERT JUMPDEST POP POP POP POP PUSH1 0x40 MLOAD RETURNDATASIZE PUSH1 0x1F NOT PUSH1 0x1F DUP3 ADD AND DUP3 ADD DUP1 PUSH1 0x40 MSTORE POP DUP2 ADD SWAP1 PUSH2 0xD76 SWAP2 SWAP1 PUSH2 0x1731 JUMP JUMPDEST PUSH2 0xD81 DUP8 PUSH1 0x80 PUSH2 0xC38 JUMP JUMPDEST PUSH1 0xFF AND LT SWAP2 POP DUP4 PUSH20 0x0 PUSH4 0x84963742 SWAP1 SWAP2 DUP8 PUSH1 0x40 MLOAD DUP4 PUSH4 0xFFFFFFFF AND PUSH1 0xE0 SHL DUP2 MSTORE PUSH1 0x4 ADD PUSH2 0xDC2 SWAP3 SWAP2 SWAP1 PUSH2 0x1860 JUMP JUMPDEST PUSH1 0x20 PUSH1 0x40 MLOAD DUP1 DUP4 SUB DUP2 DUP7 DUP1 EXTCODESIZE ISZERO DUP1 ISZERO PUSH2 0xDDA JUMPI PUSH1 0x0 DUP1 REVERT JUMPDEST POP GAS DELEGATECALL ISZERO DUP1 ISZERO PUSH2 0xDEE JUMPI RETURNDATASIZE PUSH1 0x0 DUP1 RETURNDATACOPY RETURNDATASIZE PUSH1 0x0 REVERT JUMPDEST POP POP POP POP PUSH1 0x40 MLOAD RETURNDATASIZE PUSH1 0x1F NOT PUSH1 0x1F DUP3 ADD AND DUP3 ADD DUP1 PUSH1 0x40 MSTORE POP DUP2 ADD SWAP1 PUSH2 0xE12 SWAP2 SWAP1 PUSH2 0x1731 JUMP JUMPDEST PUSH2 0xE1D DUP8 PUSH1 0x80 PUSH2 0xC38 JUMP JUMPDEST PUSH1 0xFF AND LT SWAP1 POP DUP2 ISZERO PUSH2 0xE98 JUMPI PUSH1 0xA0 DUP6 ADD MLOAD PUSH1 0x40 MLOAD PUSH4 0xF340F3F PUSH1 0xE2 SHL DUP2 MSTORE PUSH20 0x0 SWAP2 PUSH4 0x3CD03CFC SWAP2 PUSH2 0xE67 SWAP2 DUP9 SWAP2 DUP7 SWAP1 PUSH1 0x4 ADD PUSH2 0x187D JUMP JUMPDEST PUSH1 0x0 PUSH1 0x40 MLOAD DUP1 DUP4 SUB DUP2 DUP7 DUP1 EXTCODESIZE ISZERO DUP1 ISZERO PUSH2 0xE7F JUMPI PUSH1 0x0 DUP1 REVERT JUMPDEST POP GAS DELEGATECALL ISZERO DUP1 ISZERO PUSH2 0xE93 JUMPI RETURNDATASIZE PUSH1 0x0 DUP1 RETURNDATACOPY RETURNDATASIZE PUSH1 0x0 REVERT JUMPDEST POP POP POP POP JUMPDEST PUSH1 0x40 MLOAD PUSH4 0x578CAD79 PUSH1 0xE1 SHL DUP2 MSTORE PUSH20 0x0 SWAP1 PUSH4 0xAF195AF2 SWAP1 PUSH2 0xECF SWAP1 DUP8 SWAP1 PUSH1 0x4 ADD PUSH2 0x1705 JUMP JUMPDEST PUSH1 0x20 PUSH1 0x40 MLOAD DUP1 DUP4 SUB DUP2 DUP7 DUP1 EXTCODESIZE ISZERO DUP1 ISZERO PUSH2 0xEE7 JUMPI PUSH1 0x0 DUP1 REVERT JUMPDEST POP GAS DELEGATECALL ISZERO DUP1 ISZERO PUSH2 0xEFB JUMPI RETURNDATASIZE PUSH1 0x0 DUP1 RETURNDATACOPY RETURNDATASIZE PUSH1 0x0 REVERT JUMPDEST POP POP POP POP PUSH1 0x40 MLOAD RETURNDATASIZE PUSH1 0x1F NOT PUSH1 0x1F DUP3 ADD AND DUP3 ADD DUP1 PUSH1 0x40 MSTORE POP DUP2 ADD SWAP1 PUSH2 0xF1F SWAP2 SWAP1 PUSH2 0x1714 JUMP JUMPDEST PUSH2 0xF35 JUMPI PUSH1 0xC0 DUP5 ADD MLOAD PUSH2 0xF32 SWAP1 DUP5 PUSH2 0x17F3 JUMP JUMPDEST SWAP3 POP JUMPDEST POP POP SWAP4 SWAP3 POP POP POP JUMP JUMPDEST PUSH1 0x60 PUSH1 0x0 DUP1 JUMPDEST DUP4 MLOAD DUP2 LT ISZERO PUSH2 0x1016 JUMPI DUP4 DUP2 DUP2 MLOAD DUP2 LT PUSH2 0xF5F JUMPI PUSH2 0xF5F PUSH2 0x17AB JUMP JUMPDEST PUSH1 0x20 MUL PUSH1 0x20 ADD ADD MLOAD PUSH1 0x40 ADD MLOAD PUSH20 0x0 PUSH4 0xAF195AF2 SWAP1 SWAP2 PUSH1 0x40 MLOAD DUP3 PUSH4 0xFFFFFFFF AND PUSH1 0xE0 SHL DUP2 MSTORE PUSH1 0x4 ADD PUSH2 0xFA3 SWAP2 SWAP1 PUSH2 0x1705 JUMP JUMPDEST PUSH1 0x20 PUSH1 0x40 MLOAD DUP1 DUP4 SUB DUP2 DUP7 DUP1 EXTCODESIZE ISZERO DUP1 ISZERO PUSH2 0xFBB JUMPI PUSH1 0x0 DUP1 REVERT JUMPDEST POP GAS DELEGATECALL ISZERO DUP1 ISZERO PUSH2 0xFCF JUMPI RETURNDATASIZE PUSH1 0x0 DUP1 RETURNDATACOPY RETURNDATASIZE PUSH1 0x0 REVERT JUMPDEST POP POP POP POP PUSH1 0x40 MLOAD RETURNDATASIZE PUSH1 0x1F NOT PUSH1 0x1F DUP3 ADD AND DUP3 ADD DUP1 PUSH1 0x40 MSTORE POP DUP2 ADD SWAP1 PUSH2 0xFF3 SWAP2 SWAP1 PUSH2 0x1714 JUMP JUMPDEST ISZERO PUSH2 0x1006 JUMPI PUSH2 0x1003 PUSH1 0x1 DUP4 PUSH2 0x17F3 JUMP JUMPDEST SWAP2 POP JUMPDEST PUSH2 0x100F DUP2 PUSH2 0x17D8 JUMP JUMPDEST SWAP1 POP PUSH2 0xF44 JUMP JUMPDEST POP DUP1 PUSH8 0xFFFFFFFFFFFFFFFF DUP2 GT ISZERO PUSH2 0x1030 JUMPI PUSH2 0x1030 PUSH2 0x1308 JUMP JUMPDEST PUSH1 0x40 MLOAD SWAP1 DUP1 DUP3 MSTORE DUP1 PUSH1 0x20 MUL PUSH1 0x20 ADD DUP3 ADD PUSH1 0x40 MSTORE DUP1 ISZERO PUSH2 0x1069 JUMPI DUP2 PUSH1 0x20 ADD JUMPDEST PUSH2 0x1056 PUSH2 0x1261 JUMP JUMPDEST DUP2 MSTORE PUSH1 0x20 ADD SWAP1 PUSH1 0x1 SWAP1 SUB SWAP1 DUP2 PUSH2 0x104E JUMPI SWAP1 POP JUMPDEST POP SWAP2 POP PUSH1 0x0 DUP1 JUMPDEST DUP5 MLOAD DUP2 LT ISZERO PUSH2 0x1224 JUMPI DUP5 MLOAD DUP2 LT PUSH2 0x10C9 JUMPI PUSH1 0x40 MLOAD PUSH3 0x461BCD PUSH1 0xE5 SHL DUP2 MSTORE PUSH1 0x20 PUSH1 0x4 DUP3 ADD MSTORE PUSH1 0x1E PUSH1 0x24 DUP3 ADD MSTORE PUSH32 0x496E646578206973206F7574206F662073636F70653A20656E656D6965730000 PUSH1 0x44 DUP3 ADD MSTORE PUSH1 0x64 ADD PUSH2 0x27F JUMP JUMPDEST DUP5 DUP2 DUP2 MLOAD DUP2 LT PUSH2 0x10DB JUMPI PUSH2 0x10DB PUSH2 0x17AB JUMP JUMPDEST PUSH1 0x20 MUL PUSH1 0x20 ADD ADD MLOAD PUSH1 0x40 ADD MLOAD PUSH20 0x0 PUSH4 0xAF195AF2 SWAP1 SWAP2 PUSH1 0x40 MLOAD DUP3 PUSH4 0xFFFFFFFF AND PUSH1 0xE0 SHL DUP2 MSTORE PUSH1 0x4 ADD PUSH2 0x111F SWAP2 SWAP1 PUSH2 0x1705 JUMP JUMPDEST PUSH1 0x20 PUSH1 0x40 MLOAD DUP1 DUP4 SUB DUP2 DUP7 DUP1 EXTCODESIZE ISZERO DUP1 ISZERO PUSH2 0x1137 JUMPI PUSH1 0x0 DUP1 REVERT JUMPDEST POP GAS DELEGATECALL ISZERO DUP1 ISZERO PUSH2 0x114B JUMPI RETURNDATASIZE PUSH1 0x0 DUP1 RETURNDATACOPY RETURNDATASIZE PUSH1 0x0 REVERT JUMPDEST POP POP POP POP PUSH1 0x40 MLOAD RETURNDATASIZE PUSH1 0x1F NOT PUSH1 0x1F DUP3 ADD AND DUP3 ADD DUP1 PUSH1 0x40 MSTORE POP DUP2 ADD SWAP1 PUSH2 0x116F SWAP2 SWAP1 PUSH2 0x1714 JUMP JUMPDEST ISZERO PUSH2 0x1214 JUMPI DUP4 MLOAD DUP3 LT PUSH2 0x11CF JUMPI PUSH1 0x40 MLOAD PUSH3 0x461BCD PUSH1 0xE5 SHL DUP2 MSTORE PUSH1 0x20 PUSH1 0x4 DUP3 ADD MSTORE PUSH1 0x22 PUSH1 0x24 DUP3 ADD MSTORE PUSH32 0x496E646578206973206F7574206F662073636F70653A206E657720656E656D69 PUSH1 0x44 DUP3 ADD MSTORE PUSH2 0x6573 PUSH1 0xF0 SHL PUSH1 0x64 DUP3 ADD MSTORE PUSH1 0x84 ADD PUSH2 0x27F JUMP JUMPDEST DUP5 DUP2 DUP2 MLOAD DUP2 LT PUSH2 0x11E1 JUMPI PUSH2 0x11E1 PUSH2 0x17AB JUMP JUMPDEST PUSH1 0x20 MUL PUSH1 0x20 ADD ADD MLOAD DUP5 DUP4 DUP2 MLOAD DUP2 LT PUSH2 0x11FB JUMPI PUSH2 0x11FB PUSH2 0x17AB JUMP JUMPDEST PUSH1 0x20 SWAP1 DUP2 MUL SWAP2 SWAP1 SWAP2 ADD ADD MSTORE PUSH2 0x1211 PUSH1 0x1 DUP4 PUSH2 0x17F3 JUMP JUMPDEST SWAP2 POP JUMPDEST PUSH2 0x121D DUP2 PUSH2 0x17D8 JUMP JUMPDEST SWAP1 POP PUSH2 0x1070 JUMP JUMPDEST POP POP POP SWAP2 SWAP1 POP JUMP JUMPDEST PUSH1 0x40 MLOAD DUP1 PUSH1 0xA0 ADD PUSH1 0x40 MSTORE DUP1 PUSH1 0x0 DUP2 MSTORE PUSH1 0x20 ADD PUSH1 0x60 DUP2 MSTORE PUSH1 0x20 ADD PUSH2 0x124D PUSH2 0x1285 JUMP JUMPDEST DUP2 MSTORE PUSH1 0x0 PUSH1 0x20 DUP3 ADD DUP2 SWAP1 MSTORE PUSH1 0x40 SWAP1 SWAP2 ADD MSTORE SWAP1 JUMP JUMPDEST PUSH1 0x40 DUP1 MLOAD PUSH1 0x60 DUP2 ADD DUP3 MSTORE PUSH1 0x0 DUP1 DUP3 MSTORE PUSH1 0x20 DUP3 ADD MSTORE SWAP1 DUP2 ADD PUSH2 0x1280 PUSH2 0x1285 JUMP JUMPDEST SWAP1 MSTORE SWAP1 JUMP JUMPDEST PUSH1 0x40 MLOAD DUP1 PUSH2 0x100 ADD PUSH1 0x40 MSTORE DUP1 PUSH1 0x0 DUP2 MSTORE PUSH1 0x20 ADD PUSH1 0x0 DUP2 MSTORE PUSH1 0x20 ADD PUSH1 0x0 DUP2 MSTORE PUSH1 0x20 ADD PUSH1 0x0 DUP2 MSTORE PUSH1 0x20 ADD PUSH1 0x0 DUP2 MSTORE PUSH1 0x20 ADD PUSH1 0x0 DUP2 MSTORE PUSH1 0x20 ADD PUSH1 0x0 DUP2 MSTORE PUSH1 0x20 ADD PUSH1 0x0 DUP2 MSTORE POP SWAP1 JUMP JUMPDEST DUP1 CALLDATALOAD PUSH1 0x1 PUSH1 0x1 PUSH1 0xA0 SHL SUB DUP2 AND DUP2 EQ PUSH2 0x12E1 JUMPI PUSH1 0x0 DUP1 REVERT JUMPDEST SWAP2 SWAP1 POP JUMP JUMPDEST PUSH1 0x0 PUSH1 0x20 DUP3 DUP5 SUB SLT ISZERO PUSH2 0x12F8 JUMPI PUSH1 0x0 DUP1 REVERT JUMPDEST PUSH2 0x1301 DUP3 PUSH2 0x12CA JUMP JUMPDEST SWAP4 SWAP3 POP POP POP JUMP JUMPDEST PUSH4 0x4E487B71 PUSH1 0xE0 SHL PUSH1 0x0 MSTORE PUSH1 0x41 PUSH1 0x4 MSTORE PUSH1 0x24 PUSH1 0x0 REVERT JUMPDEST PUSH1 0x40 MLOAD PUSH2 0x100 DUP2 ADD PUSH8 0xFFFFFFFFFFFFFFFF DUP2 GT DUP3 DUP3 LT OR ISZERO PUSH2 0x1342 JUMPI PUSH2 0x1342 PUSH2 0x1308 JUMP JUMPDEST PUSH1 0x40 MSTORE SWAP1 JUMP JUMPDEST PUSH1 0x40 MLOAD PUSH1 0x60 DUP2 ADD PUSH8 0xFFFFFFFFFFFFFFFF DUP2 GT DUP3 DUP3 LT OR ISZERO PUSH2 0x1342 JUMPI PUSH2 0x1342 PUSH2 0x1308 JUMP JUMPDEST PUSH1 0x40 MLOAD PUSH1 0x1F DUP3 ADD PUSH1 0x1F NOT AND DUP2 ADD PUSH8 0xFFFFFFFFFFFFFFFF DUP2 GT DUP3 DUP3 LT OR ISZERO PUSH2 0x1394 JUMPI PUSH2 0x1394 PUSH2 0x1308 JUMP JUMPDEST PUSH1 0x40 MSTORE SWAP2 SWAP1 POP JUMP JUMPDEST DUP1 ISZERO ISZERO DUP2 EQ PUSH2 0x3A5 JUMPI PUSH1 0x0 DUP1 REVERT JUMPDEST DUP1 CALLDATALOAD PUSH2 0x12E1 DUP2 PUSH2 0x139C JUMP JUMPDEST PUSH1 0x0 PUSH2 0x100 DUP3 DUP5 SUB SLT ISZERO PUSH2 0x13C8 JUMPI PUSH1 0x0 DUP1 REVERT JUMPDEST PUSH2 0x13D0 PUSH2 0x131E JUMP JUMPDEST SWAP1 POP DUP2 CALLDATALOAD DUP2 MSTORE PUSH1 0x20 DUP3 ADD CALLDATALOAD PUSH1 0x20 DUP3 ADD MSTORE PUSH1 0x40 DUP3 ADD CALLDATALOAD PUSH1 0x40 DUP3 ADD MSTORE PUSH1 0x60 DUP3 ADD CALLDATALOAD PUSH1 0x60 DUP3 ADD MSTORE PUSH1 0x80 DUP3 ADD CALLDATALOAD PUSH1 0x80 DUP3 ADD MSTORE PUSH1 0xA0 DUP3 ADD CALLDATALOAD PUSH1 0xA0 DUP3 ADD MSTORE PUSH1 0xC0 DUP3 ADD CALLDATALOAD PUSH1 0xC0 DUP3 ADD MSTORE PUSH1 0xE0 DUP3 ADD CALLDATALOAD PUSH1 0xE0 DUP3 ADD MSTORE SWAP3 SWAP2 POP POP JUMP JUMPDEST PUSH1 0x0 PUSH1 0x60 DUP3 DUP5 SUB SLT ISZERO PUSH2 0x1434 JUMPI PUSH1 0x0 DUP1 REVERT JUMPDEST PUSH2 0x143C PUSH2 0x1348 JUMP JUMPDEST SWAP1 POP DUP2 CALLDATALOAD DUP2 MSTORE PUSH1 0x20 DUP3 ADD CALLDATALOAD PUSH1 0x20 DUP3 ADD MSTORE PUSH1 0x40 DUP3 ADD CALLDATALOAD PUSH1 0x40 DUP3 ADD MSTORE SWAP3 SWAP2 POP POP JUMP JUMPDEST PUSH1 0x0 DUP3 PUSH1 0x1F DUP4 ADD SLT PUSH2 0x146D JUMPI PUSH1 0x0 DUP1 REVERT JUMPDEST DUP2 CALLDATALOAD PUSH1 0x20 PUSH8 0xFFFFFFFFFFFFFFFF DUP3 GT ISZERO PUSH2 0x1489 JUMPI PUSH2 0x1489 PUSH2 0x1308 JUMP JUMPDEST PUSH2 0x1497 DUP2 DUP4 PUSH1 0x5 SHL ADD PUSH2 0x136B JUMP JUMPDEST DUP3 DUP2 MSTORE PUSH2 0x140 SWAP3 DUP4 MUL DUP6 ADD DUP3 ADD SWAP3 DUP3 DUP3 ADD SWAP2 SWAP1 DUP8 DUP6 GT ISZERO PUSH2 0x14B7 JUMPI PUSH1 0x0 DUP1 REVERT JUMPDEST DUP4 DUP8 ADD JUMPDEST DUP6 DUP2 LT ISZERO PUSH2 0x150F JUMPI DUP2 DUP2 DUP11 SUB SLT ISZERO PUSH2 0x14D3 JUMPI PUSH1 0x0 DUP1 DUP2 REVERT JUMPDEST PUSH2 0x14DB PUSH2 0x1348 JUMP JUMPDEST DUP2 CALLDATALOAD DUP2 MSTORE DUP6 DUP3 ADD CALLDATALOAD PUSH2 0x14EC DUP2 PUSH2 0x139C JUMP JUMPDEST DUP2 DUP8 ADD MSTORE PUSH1 0x40 PUSH2 0x14FE DUP12 DUP5 DUP4 ADD PUSH2 0x13B5 JUMP JUMPDEST SWAP1 DUP3 ADD MSTORE DUP5 MSTORE SWAP3 DUP5 ADD SWAP3 DUP2 ADD PUSH2 0x14BB JUMP JUMPDEST POP SWAP1 SWAP8 SWAP7 POP POP POP POP POP POP POP JUMP JUMPDEST PUSH1 0x0 DUP1 DUP3 DUP5 SUB PUSH2 0x240 DUP2 SLT ISZERO PUSH2 0x1531 JUMPI PUSH1 0x0 DUP1 REVERT JUMPDEST PUSH2 0x220 DUP1 DUP3 SLT ISZERO PUSH2 0x1541 JUMPI PUSH1 0x0 DUP1 REVERT JUMPDEST PUSH2 0x1549 PUSH2 0x131E JUMP JUMPDEST SWAP2 POP PUSH2 0x1554 DUP6 PUSH2 0x13AA JUMP JUMPDEST DUP3 MSTORE PUSH2 0x1562 PUSH1 0x20 DUP7 ADD PUSH2 0x12CA JUMP JUMPDEST PUSH1 0x20 DUP4 ADD MSTORE PUSH1 0x40 DUP6 ADD CALLDATALOAD PUSH1 0x40 DUP4 ADD MSTORE PUSH1 0x60 DUP6 ADD CALLDATALOAD PUSH1 0x60 DUP4 ADD MSTORE PUSH1 0x80 DUP6 ADD CALLDATALOAD PUSH1 0x80 DUP4 ADD MSTORE PUSH1 0xA0 DUP6 ADD CALLDATALOAD PUSH1 0xA0 DUP4 ADD MSTORE PUSH2 0x159C DUP7 PUSH1 0xC0 DUP8 ADD PUSH2 0x13B5 JUMP JUMPDEST PUSH1 0xC0 DUP4 ADD MSTORE PUSH2 0x15AF DUP7 PUSH2 0x1C0 DUP8 ADD PUSH2 0x1422 JUMP JUMPDEST PUSH1 0xE0 DUP4 ADD MSTORE SWAP1 SWAP3 POP DUP4 ADD CALLDATALOAD PUSH8 0xFFFFFFFFFFFFFFFF DUP2 GT ISZERO PUSH2 0x15CF JUMPI PUSH1 0x0 DUP1 REVERT JUMPDEST PUSH2 0x15DB DUP6 DUP3 DUP7 ADD PUSH2 0x145C JUMP JUMPDEST SWAP2 POP POP SWAP3 POP SWAP3 SWAP1 POP JUMP JUMPDEST DUP1 MLOAD DUP3 MSTORE PUSH1 0x20 DUP2 ADD MLOAD PUSH1 0x20 DUP4 ADD MSTORE PUSH1 0x40 DUP2 ADD MLOAD PUSH1 0x40 DUP4 ADD MSTORE PUSH1 0x60 DUP2 ADD MLOAD PUSH1 0x60 DUP4 ADD MSTORE PUSH1 0x80 DUP2 ADD MLOAD PUSH1 0x80 DUP4 ADD MSTORE PUSH1 0xA0 DUP2 ADD MLOAD PUSH1 0xA0 DUP4 ADD MSTORE PUSH1 0xC0 DUP2 ADD MLOAD PUSH1 0xC0 DUP4 ADD MSTORE PUSH1 0xE0 DUP2 ADD MLOAD PUSH1 0xE0 DUP4 ADD MSTORE POP POP JUMP JUMPDEST PUSH1 0x0 PUSH1 0x20 DUP1 DUP4 MSTORE DUP4 MLOAD DUP2 DUP5 ADD MSTORE DUP1 DUP5 ADD MLOAD PUSH2 0x180 DUP1 PUSH1 0x40 DUP7 ADD MSTORE DUP2 MLOAD DUP1 PUSH2 0x1A0 DUP8 ADD MSTORE PUSH1 0x0 JUMPDEST DUP2 DUP2 LT ISZERO PUSH2 0x1676 JUMPI DUP4 DUP2 ADD DUP6 ADD MLOAD DUP8 DUP3 ADD PUSH2 0x1C0 ADD MSTORE DUP5 ADD PUSH2 0x1659 JUMP JUMPDEST DUP2 DUP2 GT ISZERO PUSH2 0x1689 JUMPI PUSH1 0x0 PUSH2 0x1C0 DUP4 DUP10 ADD ADD MSTORE JUMPDEST POP PUSH1 0x40 DUP8 ADD MLOAD SWAP4 POP PUSH2 0x169E PUSH1 0x60 DUP8 ADD DUP6 PUSH2 0x15E5 JUMP JUMPDEST PUSH1 0x60 DUP8 ADD MLOAD DUP1 ISZERO ISZERO PUSH2 0x160 DUP9 ADD MSTORE SWAP4 POP PUSH1 0x80 SWAP7 SWAP1 SWAP7 ADD MLOAD SWAP1 DUP6 ADD MSTORE POP POP POP PUSH1 0x1F SWAP2 SWAP1 SWAP2 ADD PUSH1 0x1F NOT AND ADD PUSH2 0x1C0 ADD SWAP1 JUMP JUMPDEST PUSH1 0x20 DUP1 DUP3 MSTORE PUSH1 0x18 SWAP1 DUP3 ADD MSTORE PUSH32 0x43616E2062652063616C6C6564206F6E6C7920627920474D0000000000000000 PUSH1 0x40 DUP3 ADD MSTORE PUSH1 0x60 ADD SWAP1 JUMP JUMPDEST PUSH2 0x100 DUP2 ADD PUSH2 0x649 DUP3 DUP5 PUSH2 0x15E5 JUMP JUMPDEST PUSH1 0x0 PUSH1 0x20 DUP3 DUP5 SUB SLT ISZERO PUSH2 0x1726 JUMPI PUSH1 0x0 DUP1 REVERT JUMPDEST DUP2 MLOAD PUSH2 0x1301 DUP2 PUSH2 0x139C JUMP JUMPDEST PUSH1 0x0 PUSH1 0x20 DUP3 DUP5 SUB SLT ISZERO PUSH2 0x1743 JUMPI PUSH1 0x0 DUP1 REVERT JUMPDEST POP MLOAD SWAP2 SWAP1 POP JUMP JUMPDEST PUSH1 0x0 DUP2 DUP4 DUP3 JUMPDEST PUSH1 0x4 DUP2 LT ISZERO PUSH2 0x176F JUMPI DUP2 MLOAD DUP4 MSTORE PUSH1 0x20 SWAP3 DUP4 ADD SWAP3 SWAP1 SWAP2 ADD SWAP1 PUSH1 0x1 ADD PUSH2 0x1750 JUMP JUMPDEST POP POP POP PUSH1 0x80 DUP3 ADD SWAP1 POP SWAP3 SWAP2 POP POP JUMP JUMPDEST PUSH4 0x4E487B71 PUSH1 0xE0 SHL PUSH1 0x0 MSTORE PUSH1 0x11 PUSH1 0x4 MSTORE PUSH1 0x24 PUSH1 0x0 REVERT JUMPDEST PUSH1 0x0 DUP3 DUP3 LT ISZERO PUSH2 0x17A6 JUMPI PUSH2 0x17A6 PUSH2 0x177E JUMP JUMPDEST POP SUB SWAP1 JUMP JUMPDEST PUSH4 0x4E487B71 PUSH1 0xE0 SHL PUSH1 0x0 MSTORE PUSH1 0x32 PUSH1 0x4 MSTORE PUSH1 0x24 PUSH1 0x0 REVERT JUMPDEST PUSH1 0x0 DUP2 PUSH2 0x17D0 JUMPI PUSH2 0x17D0 PUSH2 0x177E JUMP JUMPDEST POP PUSH1 0x0 NOT ADD SWAP1 JUMP JUMPDEST PUSH1 0x0 PUSH1 0x0 NOT DUP3 EQ ISZERO PUSH2 0x17EC JUMPI PUSH2 0x17EC PUSH2 0x177E JUMP JUMPDEST POP PUSH1 0x1 ADD SWAP1 JUMP JUMPDEST PUSH1 0x0 DUP3 NOT DUP3 GT ISZERO PUSH2 0x1806 JUMPI PUSH2 0x1806 PUSH2 0x177E JUMP JUMPDEST POP ADD SWAP1 JUMP JUMPDEST PUSH1 0x0 PUSH1 0xFF DUP4 AND DUP1 PUSH2 0x182C JUMPI PUSH4 0x4E487B71 PUSH1 0xE0 SHL PUSH1 0x0 MSTORE PUSH1 0x12 PUSH1 0x4 MSTORE PUSH1 0x24 PUSH1 0x0 REVERT JUMPDEST DUP1 PUSH1 0xFF DUP5 AND MOD SWAP2 POP POP SWAP3 SWAP2 POP POP JUMP JUMPDEST PUSH1 0x0 PUSH1 0xFF DUP3 AND PUSH1 0xFF DUP5 AND DUP1 PUSH1 0xFF SUB DUP3 GT ISZERO PUSH2 0x1858 JUMPI PUSH2 0x1858 PUSH2 0x177E JUMP JUMPDEST ADD SWAP4 SWAP3 POP POP POP JUMP JUMPDEST PUSH2 0x200 DUP2 ADD PUSH2 0x186F DUP3 DUP6 PUSH2 0x15E5 JUMP JUMPDEST PUSH2 0x1301 PUSH2 0x100 DUP4 ADD DUP5 PUSH2 0x15E5 JUMP JUMPDEST PUSH2 0x140 DUP2 ADD PUSH2 0x188C DUP3 DUP7 PUSH2 0x15E5 JUMP JUMPDEST DUP4 PUSH2 0x100 DUP4 ADD MSTORE DUP3 ISZERO ISZERO PUSH2 0x120 DUP4 ADD MSTORE SWAP5 SWAP4 POP POP POP POP JUMP INVALID LOG2 PUSH5 0x6970667358 0x22 SLT KECCAK256 LOG0 PUSH8 0x22E40AB6BB3DF746 EXTCODECOPY DELEGATECALL PUSH25 0xC013179C165418D49DAF00130CE6374088B98264736F6C6343 STOP ADDMOD MULMOD STOP CALLER "
		},
		"gasEstimates": {
			"creation": {
				"codeDepositCost": "1272400",
				"executionCost": "195151",
				"totalCost": "1467551"
			},
			"external": {
				"CHARACTER_CONTRACT_ADDRESS()": "2416",
				"FIGHT_CONTRACT_ADDRESS()": "2414",
				"GAME_MANAGER_CONTRACT_ADDRESS()": "2393",
				"GAME_MASTER()": "2393",
				"MAP_CONTRACT_ADDRESS()": "2415",
				"RANDOM_CONTRACT_ADDRESS()": "2348",
				"VAULT()": "2371",
				"conductFight((bool,address,uint256,uint256,uint256,uint256,(uint256,uint256,uint256,uint256,uint256,uint256,uint256,uint256),(uint256,uint256,uint256)),(uint256,bool,(uint256,uint256,uint256,uint256,uint256,uint256,uint256,uint256))[])": "infinite",
				"setCharacterContractAddress(address)": "26734",
				"setFightContractAddress(address)": "26735",
				"setGMContractAddress(address)": "26779",
				"setGameMasterAddress(address)": "26777",
				"setMapContractAddress(address)": "26757",
				"setRandomContractAddress(address)": "26755",
				"setVaultAddress(address)": "26756",
				"withdraw()": "infinite"
			},
			"internal": {
				"_fight(struct SeedReader.Seed memory,struct Character memory,struct Enemy memory[] memory)": "infinite",
				"_processAttack(struct SeedReader.Seed memory,struct ComputedStats.Stats memory,struct ComputedStats.Stats memory)": "infinite",
				"_recountEnemies(struct Enemy memory[] memory)": "infinite"
			}
		},
		"methodIdentifiers": {
			"CHARACTER_CONTRACT_ADDRESS()": "320b00d8",
			"FIGHT_CONTRACT_ADDRESS()": "e1d38814",
			"GAME_MANAGER_CONTRACT_ADDRESS()": "603eefa5",
			"GAME_MASTER()": "99597b70",
			"MAP_CONTRACT_ADDRESS()": "74c0cfcc",
			"RANDOM_CONTRACT_ADDRESS()": "d3dd4f29",
			"VAULT()": "411557d1",
			"conductFight((bool,address,uint256,uint256,uint256,uint256,(uint256,uint256,uint256,uint256,uint256,uint256,uint256,uint256),(uint256,uint256,uint256)),(uint256,bool,(uint256,uint256,uint256,uint256,uint256,uint256,uint256,uint256))[])": "9bf9b929",
			"setCharacterContractAddress(address)": "83499df6",
			"setFightContractAddress(address)": "00a8b188",
			"setGMContractAddress(address)": "1b915579",
			"setGameMasterAddress(address)": "d8327b2f",
			"setMapContractAddress(address)": "187130e6",
			"setRandomContractAddress(address)": "d7050b05",
			"setVaultAddress(address)": "85535cc5",
			"withdraw()": "3ccfd60b"
		}
	},
	"abi": [
		{
			"inputs": [],
			"stateMutability": "nonpayable",
			"type": "constructor"
		},
		{
			"inputs": [],
			"name": "CHARACTER_CONTRACT_ADDRESS",
			"outputs": [
				{
					"internalType": "address",
					"name": "",
					"type": "address"
				}
			],
			"stateMutability": "view",
			"type": "function"
		},
		{
			"inputs": [],
			"name": "FIGHT_CONTRACT_ADDRESS",
			"outputs": [
				{
					"internalType": "address",
					"name": "",
					"type": "address"
				}
			],
			"stateMutability": "view",
			"type": "function"
		},
		{
			"inputs": [],
			"name": "GAME_MANAGER_CONTRACT_ADDRESS",
			"outputs": [
				{
					"internalType": "address",
					"name": "",
					"type": "address"
				}
			],
			"stateMutability": "view",
			"type": "function"
		},
		{
			"inputs": [],
			"name": "GAME_MASTER",
			"outputs": [
				{
					"internalType": "address",
					"name": "",
					"type": "address"
				}
			],
			"stateMutability": "view",
			"type": "function"
		},
		{
			"inputs": [],
			"name": "MAP_CONTRACT_ADDRESS",
			"outputs": [
				{
					"internalType": "address",
					"name": "",
					"type": "address"
				}
			],
			"stateMutability": "view",
			"type": "function"
		},
		{
			"inputs": [],
			"name": "RANDOM_CONTRACT_ADDRESS",
			"outputs": [
				{
					"internalType": "address",
					"name": "",
					"type": "address"
				}
			],
			"stateMutability": "view",
			"type": "function"
		},
		{
			"inputs": [],
			"name": "VAULT",
			"outputs": [
				{
					"internalType": "address",
					"name": "",
					"type": "address"
				}
			],
			"stateMutability": "view",
			"type": "function"
		},
		{
			"inputs": [
				{
					"components": [
						{
							"internalType": "bool",
							"name": "exists",
							"type": "bool"
						},
						{
							"internalType": "address",
							"name": "contractAddress",
							"type": "address"
						},
						{
							"internalType": "uint256",
							"name": "tokenId",
							"type": "uint256"
						},
						{
							"internalType": "uint256",
							"name": "level",
							"type": "uint256"
						},
						{
							"internalType": "uint256",
							"name": "exp",
							"type": "uint256"
						},
						{
							"internalType": "uint256",
							"name": "upgrades",
							"type": "uint256"
						},
						{
							"components": [
								{
									"internalType": "uint256",
									"name": "strength",
									"type": "uint256"
								},
								{
									"internalType": "uint256",
									"name": "dexterity",
									"type": "uint256"
								},
								{
									"internalType": "uint256",
									"name": "constitution",
									"type": "uint256"
								},
								{
									"internalType": "uint256",
									"name": "luck",
									"type": "uint256"
								},
								{
									"internalType": "uint256",
									"name": "armor",
									"type": "uint256"
								},
								{
									"internalType": "uint256",
									"name": "attack",
									"type": "uint256"
								},
								{
									"internalType": "uint256",
									"name": "health",
									"type": "uint256"
								},
								{
									"internalType": "uint256",
									"name": "takenDamage",
									"type": "uint256"
								}
							],
							"internalType": "struct ComputedStats.Stats",
							"name": "stats",
							"type": "tuple"
						},
						{
							"components": [
								{
									"internalType": "uint256",
									"name": "armorSetId",
									"type": "uint256"
								},
								{
									"internalType": "uint256",
									"name": "weaponSetId",
									"type": "uint256"
								},
								{
									"internalType": "uint256",
									"name": "shieldId",
									"type": "uint256"
								}
							],
							"internalType": "struct Equipment",
							"name": "equipment",
							"type": "tuple"
						}
					],
					"internalType": "struct Character",
					"name": "character",
					"type": "tuple"
				},
				{
					"components": [
						{
							"internalType": "uint256",
							"name": "id",
							"type": "uint256"
						},
						{
							"internalType": "bool",
							"name": "present",
							"type": "bool"
						},
						{
							"components": [
								{
									"internalType": "uint256",
									"name": "strength",
									"type": "uint256"
								},
								{
									"internalType": "uint256",
									"name": "dexterity",
									"type": "uint256"
								},
								{
									"internalType": "uint256",
									"name": "constitution",
									"type": "uint256"
								},
								{
									"internalType": "uint256",
									"name": "luck",
									"type": "uint256"
								},
								{
									"internalType": "uint256",
									"name": "armor",
									"type": "uint256"
								},
								{
									"internalType": "uint256",
									"name": "attack",
									"type": "uint256"
								},
								{
									"internalType": "uint256",
									"name": "health",
									"type": "uint256"
								},
								{
									"internalType": "uint256",
									"name": "takenDamage",
									"type": "uint256"
								}
							],
							"internalType": "struct ComputedStats.Stats",
							"name": "stats",
							"type": "tuple"
						}
					],
					"internalType": "struct Enemy[]",
					"name": "enemies",
					"type": "tuple[]"
				}
			],
			"name": "conductFight",
			"outputs": [
				{
					"components": [
						{
							"internalType": "uint256",
							"name": "id",
							"type": "uint256"
						},
						{
							"internalType": "bytes",
							"name": "seed",
							"type": "bytes"
						},
						{
							"components": [
								{
									"internalType": "uint256",
									"name": "strength",
									"type": "uint256"
								},
								{
									"internalType": "uint256",
									"name": "dexterity",
									"type": "uint256"
								},
								{
									"internalType": "uint256",
									"name": "constitution",
									"type": "uint256"
								},
								{
									"internalType": "uint256",
									"name": "luck",
									"type": "uint256"
								},
								{
									"internalType": "uint256",
									"name": "armor",
									"type": "uint256"
								},
								{
									"internalType": "uint256",
									"name": "attack",
									"type": "uint256"
								},
								{
									"internalType": "uint256",
									"name": "health",
									"type": "uint256"
								},
								{
									"internalType": "uint256",
									"name": "takenDamage",
									"type": "uint256"
								}
							],
							"internalType": "struct ComputedStats.Stats",
							"name": "stats",
							"type": "tuple"
						},
						{
							"internalType": "bool",
							"name": "victory",
							"type": "bool"
						},
						{
							"internalType": "uint256",
							"name": "exp",
							"type": "uint256"
						}
					],
					"internalType": "struct Fight",
					"name": "fight",
					"type": "tuple"
				}
			],
			"stateMutability": "nonpayable",
			"type": "function"
		},
		{
			"inputs": [
				{
					"internalType": "address",
					"name": "_address",
					"type": "address"
				}
			],
			"name": "setCharacterContractAddress",
			"outputs": [],
			"stateMutability": "nonpayable",
			"type": "function"
		},
		{
			"inputs": [
				{
					"internalType": "address",
					"name": "_address",
					"type": "address"
				}
			],
			"name": "setFightContractAddress",
			"outputs": [],
			"stateMutability": "nonpayable",
			"type": "function"
		},
		{
			"inputs": [
				{
					"internalType": "address",
					"name": "_address",
					"type": "address"
				}
			],
			"name": "setGMContractAddress",
			"outputs": [],
			"stateMutability": "nonpayable",
			"type": "function"
		},
		{
			"inputs": [
				{
					"internalType": "address",
					"name": "newGM",
					"type": "address"
				}
			],
			"name": "setGameMasterAddress",
			"outputs": [],
			"stateMutability": "nonpayable",
			"type": "function"
		},
		{
			"inputs": [
				{
					"internalType": "address",
					"name": "newAddress",
					"type": "address"
				}
			],
			"name": "setMapContractAddress",
			"outputs": [],
			"stateMutability": "nonpayable",
			"type": "function"
		},
		{
			"inputs": [
				{
					"internalType": "address",
					"name": "newAddress",
					"type": "address"
				}
			],
			"name": "setRandomContractAddress",
			"outputs": [],
			"stateMutability": "nonpayable",
			"type": "function"
		},
		{
			"inputs": [
				{
					"internalType": "address",
					"name": "_address",
					"type": "address"
				}
			],
			"name": "setVaultAddress",
			"outputs": [],
			"stateMutability": "nonpayable",
			"type": "function"
		},
		{
			"inputs": [],
			"name": "withdraw",
			"outputs": [],
			"stateMutability": "nonpayable",
			"type": "function"
		}
	]
}